{
  "contractName": "DegisToken",
  "abi": [
    {
      "inputs": [],
      "stateMutability": "nonpayable",
      "type": "constructor"
    },
    {
      "anonymous": false,
      "inputs": [
        {
          "indexed": true,
          "internalType": "address",
          "name": "owner",
          "type": "address"
        },
        {
          "indexed": true,
          "internalType": "address",
          "name": "spender",
          "type": "address"
        },
        {
          "indexed": false,
          "internalType": "uint256",
          "name": "value",
          "type": "uint256"
        }
      ],
      "name": "Approval",
      "type": "event"
    },
    {
      "anonymous": false,
      "inputs": [
        {
          "indexed": true,
          "internalType": "address",
          "name": "from",
          "type": "address"
        },
        {
          "indexed": true,
          "internalType": "address",
          "name": "to",
          "type": "address"
        }
      ],
      "name": "MinterChanged",
      "type": "event"
    },
    {
      "anonymous": false,
      "inputs": [
        {
          "indexed": true,
          "internalType": "address",
          "name": "from",
          "type": "address"
        },
        {
          "indexed": true,
          "internalType": "address",
          "name": "to",
          "type": "address"
        },
        {
          "indexed": false,
          "internalType": "uint256",
          "name": "value",
          "type": "uint256"
        }
      ],
      "name": "Transfer",
      "type": "event"
    },
    {
      "inputs": [
        {
          "internalType": "address",
          "name": "owner",
          "type": "address"
        },
        {
          "internalType": "address",
          "name": "spender",
          "type": "address"
        }
      ],
      "name": "allowance",
      "outputs": [
        {
          "internalType": "uint256",
          "name": "",
          "type": "uint256"
        }
      ],
      "stateMutability": "view",
      "type": "function"
    },
    {
      "inputs": [
        {
          "internalType": "address",
          "name": "spender",
          "type": "address"
        },
        {
          "internalType": "uint256",
          "name": "amount",
          "type": "uint256"
        }
      ],
      "name": "approve",
      "outputs": [
        {
          "internalType": "bool",
          "name": "",
          "type": "bool"
        }
      ],
      "stateMutability": "nonpayable",
      "type": "function"
    },
    {
      "inputs": [
        {
          "internalType": "address",
          "name": "account",
          "type": "address"
        }
      ],
      "name": "balanceOf",
      "outputs": [
        {
          "internalType": "uint256",
          "name": "",
          "type": "uint256"
        }
      ],
      "stateMutability": "view",
      "type": "function"
    },
    {
      "inputs": [],
      "name": "decimals",
      "outputs": [
        {
          "internalType": "uint8",
          "name": "",
          "type": "uint8"
        }
      ],
      "stateMutability": "view",
      "type": "function"
    },
    {
      "inputs": [
        {
          "internalType": "address",
          "name": "spender",
          "type": "address"
        },
        {
          "internalType": "uint256",
          "name": "subtractedValue",
          "type": "uint256"
        }
      ],
      "name": "decreaseAllowance",
      "outputs": [
        {
          "internalType": "bool",
          "name": "",
          "type": "bool"
        }
      ],
      "stateMutability": "nonpayable",
      "type": "function"
    },
    {
      "inputs": [
        {
          "internalType": "address",
          "name": "spender",
          "type": "address"
        },
        {
          "internalType": "uint256",
          "name": "addedValue",
          "type": "uint256"
        }
      ],
      "name": "increaseAllowance",
      "outputs": [
        {
          "internalType": "bool",
          "name": "",
          "type": "bool"
        }
      ],
      "stateMutability": "nonpayable",
      "type": "function"
    },
    {
      "inputs": [],
      "name": "minter",
      "outputs": [
        {
          "internalType": "address",
          "name": "",
          "type": "address"
        }
      ],
      "stateMutability": "view",
      "type": "function"
    },
    {
      "inputs": [],
      "name": "name",
      "outputs": [
        {
          "internalType": "string",
          "name": "",
          "type": "string"
        }
      ],
      "stateMutability": "view",
      "type": "function"
    },
    {
      "inputs": [],
      "name": "owner",
      "outputs": [
        {
          "internalType": "address",
          "name": "",
          "type": "address"
        }
      ],
      "stateMutability": "view",
      "type": "function"
    },
    {
      "inputs": [],
      "name": "symbol",
      "outputs": [
        {
          "internalType": "string",
          "name": "",
          "type": "string"
        }
      ],
      "stateMutability": "view",
      "type": "function"
    },
    {
      "inputs": [],
      "name": "totalSupply",
      "outputs": [
        {
          "internalType": "uint256",
          "name": "",
          "type": "uint256"
        }
      ],
      "stateMutability": "view",
      "type": "function"
    },
    {
      "inputs": [
        {
          "internalType": "address",
          "name": "recipient",
          "type": "address"
        },
        {
          "internalType": "uint256",
          "name": "amount",
          "type": "uint256"
        }
      ],
      "name": "transfer",
      "outputs": [
        {
          "internalType": "bool",
          "name": "",
          "type": "bool"
        }
      ],
      "stateMutability": "nonpayable",
      "type": "function"
    },
    {
      "inputs": [
        {
          "internalType": "address",
          "name": "sender",
          "type": "address"
        },
        {
          "internalType": "address",
          "name": "recipient",
          "type": "address"
        },
        {
          "internalType": "uint256",
          "name": "amount",
          "type": "uint256"
        }
      ],
      "name": "transferFrom",
      "outputs": [
        {
          "internalType": "bool",
          "name": "",
          "type": "bool"
        }
      ],
      "stateMutability": "nonpayable",
      "type": "function"
    },
    {
      "inputs": [
        {
          "internalType": "address",
          "name": "_newMinter",
          "type": "address"
        }
      ],
      "name": "passMinterRole",
      "outputs": [
        {
          "internalType": "bool",
          "name": "",
          "type": "bool"
        }
      ],
      "stateMutability": "nonpayable",
      "type": "function"
    },
    {
      "inputs": [
        {
          "internalType": "address",
          "name": "_account",
          "type": "address"
        },
        {
          "internalType": "uint256",
          "name": "_amount",
          "type": "uint256"
        }
      ],
      "name": "mint",
      "outputs": [],
      "stateMutability": "nonpayable",
      "type": "function"
    }
  ],
  "bytecode": "0x60806040523480156200001157600080fd5b506040518060400160405280600a81526020017f4465676973546f6b656e000000000000000000000000000000000000000000008152506040518060400160405280600581526020017f44454749530000000000000000000000000000000000000000000000000000008152508160039080519060200190620000969291906200013a565b508060049080519060200190620000af9291906200013a565b50505033600560006101000a81548173ffffffffffffffffffffffffffffffffffffffff021916908373ffffffffffffffffffffffffffffffffffffffff16021790555033600660006101000a81548173ffffffffffffffffffffffffffffffffffffffff021916908373ffffffffffffffffffffffffffffffffffffffff1602179055506200024f565b8280546200014890620001ea565b90600052602060002090601f0160209004810192826200016c5760008555620001b8565b82601f106200018757805160ff1916838001178555620001b8565b82800160010185558215620001b8579182015b82811115620001b75782518255916020019190600101906200019a565b5b509050620001c79190620001cb565b5090565b5b80821115620001e6576000816000905550600101620001cc565b5090565b600060028204905060018216806200020357607f821691505b602082108114156200021a576200021962000220565b5b50919050565b7f4e487b7100000000000000000000000000000000000000000000000000000000600052602260045260246000fd5b6119b8806200025f6000396000f3fe608060405234801561001057600080fd5b50600436106100f55760003560e01c806340c10f1911610097578063a457c2d711610066578063a457c2d71461028a578063a9059cbb146102ba578063d7fc5b15146102ea578063dd62ed3e1461031a576100f5565b806340c10f191461020257806370a082311461021e5780638da5cb5b1461024e57806395d89b411461026c576100f5565b806318160ddd116100d357806318160ddd1461016657806323b872dd14610184578063313ce567146101b457806339509351146101d2576100f5565b806306fdde03146100fa5780630754617214610118578063095ea7b314610136575b600080fd5b61010261034a565b60405161010f919061132c565b60405180910390f35b6101206103dc565b60405161012d91906112f6565b60405180910390f35b610150600480360381019061014b91906110e3565b610402565b60405161015d9190611311565b60405180910390f35b61016e610420565b60405161017b919061148e565b60405180910390f35b61019e60048036038101906101999190611090565b61042a565b6040516101ab9190611311565b60405180910390f35b6101bc610522565b6040516101c991906114a9565b60405180910390f35b6101ec60048036038101906101e791906110e3565b61052b565b6040516101f99190611311565b60405180910390f35b61021c600480360381019061021791906110e3565b6105d7565b005b61023860048036038101906102339190611023565b610675565b604051610245919061148e565b60405180910390f35b6102566106bd565b60405161026391906112f6565b60405180910390f35b6102746106e3565b604051610281919061132c565b60405180910390f35b6102a4600480360381019061029f91906110e3565b610775565b6040516102b19190611311565b60405180910390f35b6102d460048036038101906102cf91906110e3565b610860565b6040516102e19190611311565b60405180910390f35b61030460048036038101906102ff9190611023565b61087e565b6040516103119190611311565b60405180910390f35b610334600480360381019061032f9190611050565b6109b4565b604051610341919061148e565b60405180910390f35b606060038054610359906115be565b80601f0160208091040260200160405190810160405280929190818152602001828054610385906115be565b80156103d25780601f106103a7576101008083540402835291602001916103d2565b820191906000526020600020905b8154815290600101906020018083116103b557829003601f168201915b5050505050905090565b600560009054906101000a900473ffffffffffffffffffffffffffffffffffffffff1681565b600061041661040f610a3b565b8484610a43565b6001905092915050565b6000600254905090565b6000610437848484610c0e565b6000600160008673ffffffffffffffffffffffffffffffffffffffff1673ffffffffffffffffffffffffffffffffffffffff1681526020019081526020016000206000610482610a3b565b73ffffffffffffffffffffffffffffffffffffffff1673ffffffffffffffffffffffffffffffffffffffff16815260200190815260200160002054905082811015610502576040517f08c379a00000000000000000000000000000000000000000000000000000000081526004016104f9906113ce565b60405180910390fd5b6105168561050e610a3b565b858403610a43565b60019150509392505050565b60006012905090565b60006105cd610538610a3b565b848460016000610546610a3b565b73ffffffffffffffffffffffffffffffffffffffff1673ffffffffffffffffffffffffffffffffffffffff16815260200190815260200160002060008873ffffffffffffffffffffffffffffffffffffffff1673ffffffffffffffffffffffffffffffffffffffff168152602001908152602001600020546105c891906114e0565b610a43565b6001905092915050565b600560009054906101000a900473ffffffffffffffffffffffffffffffffffffffff1673ffffffffffffffffffffffffffffffffffffffff163373ffffffffffffffffffffffffffffffffffffffff1614610667576040517f08c379a000000000000000000000000000000000000000000000000000000000815260040161065e9061138e565b60405180910390fd5b6106718282610e8f565b5050565b60008060008373ffffffffffffffffffffffffffffffffffffffff1673ffffffffffffffffffffffffffffffffffffffff168152602001908152602001600020549050919050565b600660009054906101000a900473ffffffffffffffffffffffffffffffffffffffff1681565b6060600480546106f2906115be565b80601f016020809104026020016040519081016040528092919081815260200182805461071e906115be565b801561076b5780601f106107405761010080835404028352916020019161076b565b820191906000526020600020905b81548152906001019060200180831161074e57829003601f168201915b5050505050905090565b60008060016000610784610a3b565b73ffffffffffffffffffffffffffffffffffffffff1673ffffffffffffffffffffffffffffffffffffffff16815260200190815260200160002060008573ffffffffffffffffffffffffffffffffffffffff1673ffffffffffffffffffffffffffffffffffffffff16815260200190815260200160002054905082811015610841576040517f08c379a00000000000000000000000000000000000000000000000000000000081526004016108389061144e565b60405180910390fd5b61085561084c610a3b565b85858403610a43565b600191505092915050565b600061087461086d610a3b565b8484610c0e565b6001905092915050565b6000600660009054906101000a900473ffffffffffffffffffffffffffffffffffffffff1673ffffffffffffffffffffffffffffffffffffffff163373ffffffffffffffffffffffffffffffffffffffff1614610910576040517f08c379a00000000000000000000000000000000000000000000000000000000081526004016109079061142e565b60405180910390fd5b81600560006101000a81548173ffffffffffffffffffffffffffffffffffffffff021916908373ffffffffffffffffffffffffffffffffffffffff1602179055508173ffffffffffffffffffffffffffffffffffffffff163373ffffffffffffffffffffffffffffffffffffffff167f3b0007eb941cf645526cbb3a4fdaecda9d28ce4843167d9263b536a1f1edc0f660405160405180910390a360019050919050565b6000600160008473ffffffffffffffffffffffffffffffffffffffff1673ffffffffffffffffffffffffffffffffffffffff16815260200190815260200160002060008373ffffffffffffffffffffffffffffffffffffffff1673ffffffffffffffffffffffffffffffffffffffff16815260200190815260200160002054905092915050565b600033905090565b600073ffffffffffffffffffffffffffffffffffffffff168373ffffffffffffffffffffffffffffffffffffffff161415610ab3576040517f08c379a0000000000000000000000000000000000000000000000000000000008152600401610aaa9061140e565b60405180910390fd5b600073ffffffffffffffffffffffffffffffffffffffff168273ffffffffffffffffffffffffffffffffffffffff161415610b23576040517f08c379a0000000000000000000000000000000000000000000000000000000008152600401610b1a9061136e565b60405180910390fd5b80600160008573ffffffffffffffffffffffffffffffffffffffff1673ffffffffffffffffffffffffffffffffffffffff16815260200190815260200160002060008473ffffffffffffffffffffffffffffffffffffffff1673ffffffffffffffffffffffffffffffffffffffff168152602001908152602001600020819055508173ffffffffffffffffffffffffffffffffffffffff168373ffffffffffffffffffffffffffffffffffffffff167f8c5be1e5ebec7d5bd14f71427d1e84f3dd0314c0f7b2291e5b200ac8c7c3b92583604051610c01919061148e565b60405180910390a3505050565b600073ffffffffffffffffffffffffffffffffffffffff168373ffffffffffffffffffffffffffffffffffffffff161415610c7e576040517f08c379a0000000000000000000000000000000000000000000000000000000008152600401610c75906113ee565b60405180910390fd5b600073ffffffffffffffffffffffffffffffffffffffff168273ffffffffffffffffffffffffffffffffffffffff161415610cee576040517f08c379a0000000000000000000000000000000000000000000000000000000008152600401610ce59061134e565b60405180910390fd5b610cf9838383610fef565b60008060008573ffffffffffffffffffffffffffffffffffffffff1673ffffffffffffffffffffffffffffffffffffffff16815260200190815260200160002054905081811015610d7f576040517f08c379a0000000000000000000000000000000000000000000000000000000008152600401610d76906113ae565b60405180910390fd5b8181036000808673ffffffffffffffffffffffffffffffffffffffff1673ffffffffffffffffffffffffffffffffffffffff16815260200190815260200160002081905550816000808573ffffffffffffffffffffffffffffffffffffffff1673ffffffffffffffffffffffffffffffffffffffff1681526020019081526020016000206000828254610e1291906114e0565b925050819055508273ffffffffffffffffffffffffffffffffffffffff168473ffffffffffffffffffffffffffffffffffffffff167fddf252ad1be2c89b69c2b068fc378daa952ba7f163c4a11628f55a4df523b3ef84604051610e76919061148e565b60405180910390a3610e89848484610ff4565b50505050565b600073ffffffffffffffffffffffffffffffffffffffff168273ffffffffffffffffffffffffffffffffffffffff161415610eff576040517f08c379a0000000000000000000000000000000000000000000000000000000008152600401610ef69061146e565b60405180910390fd5b610f0b60008383610fef565b8060026000828254610f1d91906114e0565b92505081905550806000808473ffffffffffffffffffffffffffffffffffffffff1673ffffffffffffffffffffffffffffffffffffffff1681526020019081526020016000206000828254610f7291906114e0565b925050819055508173ffffffffffffffffffffffffffffffffffffffff16600073ffffffffffffffffffffffffffffffffffffffff167fddf252ad1be2c89b69c2b068fc378daa952ba7f163c4a11628f55a4df523b3ef83604051610fd7919061148e565b60405180910390a3610feb60008383610ff4565b5050565b505050565b505050565b60008135905061100881611954565b92915050565b60008135905061101d8161196b565b92915050565b6000602082840312156110395761103861164e565b5b600061104784828501610ff9565b91505092915050565b600080604083850312156110675761106661164e565b5b600061107585828601610ff9565b925050602061108685828601610ff9565b9150509250929050565b6000806000606084860312156110a9576110a861164e565b5b60006110b786828701610ff9565b93505060206110c886828701610ff9565b92505060406110d98682870161100e565b9150509250925092565b600080604083850312156110fa576110f961164e565b5b600061110885828601610ff9565b92505060206111198582860161100e565b9150509250929050565b61112c81611536565b82525050565b61113b81611548565b82525050565b600061114c826114c4565b61115681856114cf565b935061116681856020860161158b565b61116f81611653565b840191505092915050565b60006111876023836114cf565b915061119282611664565b604082019050919050565b60006111aa6022836114cf565b91506111b5826116b3565b604082019050919050565b60006111cd6024836114cf565b91506111d882611702565b604082019050919050565b60006111f06026836114cf565b91506111fb82611751565b604082019050919050565b60006112136028836114cf565b915061121e826117a0565b604082019050919050565b60006112366025836114cf565b9150611241826117ef565b604082019050919050565b60006112596024836114cf565b91506112648261183e565b604082019050919050565b600061127c6030836114cf565b91506112878261188d565b604082019050919050565b600061129f6025836114cf565b91506112aa826118dc565b604082019050919050565b60006112c2601f836114cf565b91506112cd8261192b565b602082019050919050565b6112e181611574565b82525050565b6112f08161157e565b82525050565b600060208201905061130b6000830184611123565b92915050565b60006020820190506113266000830184611132565b92915050565b600060208201905081810360008301526113468184611141565b905092915050565b600060208201905081810360008301526113678161117a565b9050919050565b600060208201905081810360008301526113878161119d565b9050919050565b600060208201905081810360008301526113a7816111c0565b9050919050565b600060208201905081810360008301526113c7816111e3565b9050919050565b600060208201905081810360008301526113e781611206565b9050919050565b6000602082019050818103600083015261140781611229565b9050919050565b600060208201905081810360008301526114278161124c565b9050919050565b600060208201905081810360008301526114478161126f565b9050919050565b6000602082019050818103600083015261146781611292565b9050919050565b60006020820190508181036000830152611487816112b5565b9050919050565b60006020820190506114a360008301846112d8565b92915050565b60006020820190506114be60008301846112e7565b92915050565b600081519050919050565b600082825260208201905092915050565b60006114eb82611574565b91506114f683611574565b9250827fffffffffffffffffffffffffffffffffffffffffffffffffffffffffffffffff0382111561152b5761152a6115f0565b5b828201905092915050565b600061154182611554565b9050919050565b60008115159050919050565b600073ffffffffffffffffffffffffffffffffffffffff82169050919050565b6000819050919050565b600060ff82169050919050565b60005b838110156115a957808201518184015260208101905061158e565b838111156115b8576000848401525b50505050565b600060028204905060018216806115d657607f821691505b602082108114156115ea576115e961161f565b5b50919050565b7f4e487b7100000000000000000000000000000000000000000000000000000000600052601160045260246000fd5b7f4e487b7100000000000000000000000000000000000000000000000000000000600052602260045260246000fd5b600080fd5b6000601f19601f8301169050919050565b7f45524332303a207472616e7366657220746f20746865207a65726f206164647260008201527f6573730000000000000000000000000000000000000000000000000000000000602082015250565b7f45524332303a20617070726f766520746f20746865207a65726f20616464726560008201527f7373000000000000000000000000000000000000000000000000000000000000602082015250565b7f4572726f7221204d73672e73656e646572206d75737420626520746865206d6960008201527f6e74657200000000000000000000000000000000000000000000000000000000602082015250565b7f45524332303a207472616e7366657220616d6f756e742065786365656473206260008201527f616c616e63650000000000000000000000000000000000000000000000000000602082015250565b7f45524332303a207472616e7366657220616d6f756e742065786365656473206160008201527f6c6c6f77616e6365000000000000000000000000000000000000000000000000602082015250565b7f45524332303a207472616e736665722066726f6d20746865207a65726f20616460008201527f6472657373000000000000000000000000000000000000000000000000000000602082015250565b7f45524332303a20617070726f76652066726f6d20746865207a65726f2061646460008201527f7265737300000000000000000000000000000000000000000000000000000000602082015250565b7f4572726f7221206f6e6c7920746865206f776e65722063616e206368616e676560008201527f20746865206d696e74657220726f6c6500000000000000000000000000000000602082015250565b7f45524332303a2064656372656173656420616c6c6f77616e63652062656c6f7760008201527f207a65726f000000000000000000000000000000000000000000000000000000602082015250565b7f45524332303a206d696e7420746f20746865207a65726f206164647265737300600082015250565b61195d81611536565b811461196857600080fd5b50565b61197481611574565b811461197f57600080fd5b5056fea2646970667358221220635905fb188589e70727ef7a3b932c100708eb983cf513e1d9b2d65436b4815664736f6c63430008050033",
  "immutableReferences": {},
  "source": "// SPDX-License-Identifier: MIT\r\npragma solidity ^0.8.0;\r\n\r\nimport \"@openzeppelin/contracts/token/ERC20/ERC20.sol\";\r\n\r\n/**\r\n * @dev This contract / DegisToken has an owner and a minter.\r\n * When lauched on mainnet, the owner may be removed ?\r\n * By default, the owner & minter account will be the one that deploys the contract.\r\n * This can later be changed with {passMinterRole}.\r\n */\r\ncontract DegisToken is ERC20 {\r\n    // Owner can change the minter\r\n    // Typically the minter will be the \"InsurancePool\" contract\r\n    // Public addresses, can be checked on Etherscan\r\n    address public minter;\r\n    address public owner;\r\n\r\n    // Indicate that the minter Changed !!!\r\n    event MinterChanged(address indexed from, address indexed to);\r\n\r\n    /**\r\n     * @notice use ERC20 constructor and set the owner\r\n     */\r\n    constructor() ERC20(\"DegisToken\", \"DEGIS\") {\r\n        minter = msg.sender;\r\n        owner = msg.sender;\r\n    }\r\n\r\n    /**\r\n     * @notice Pass the minter role to a new address, only the owner can change the minter !!!\r\n     * @param _newMinter: new minter's address\r\n     * @return bool: whether the minter has been changed\r\n     */\r\n    function passMinterRole(address _newMinter) public returns (bool) {\r\n        require(\r\n            msg.sender == owner,\r\n            \"Error! only the owner can change the minter role\"\r\n        );\r\n        minter = _newMinter;\r\n\r\n        emit MinterChanged(msg.sender, _newMinter);\r\n        return true;\r\n    }\r\n\r\n    /**\r\n     * @notice Mint tokens !!!\r\n     * @param _account: receiver's address\r\n     * @param _amount: amount to be minted\r\n     */\r\n    function mint(address _account, uint256 _amount) public {\r\n        // Check if msg.sender is the minter\r\n        require(msg.sender == minter, \"Error! Msg.sender must be the minter\");\r\n\r\n        _mint(_account, _amount); // ERC20 method with an event\r\n    }\r\n}\r\n",
  "sourcePath": "D:\\src\\Degis-Contracts-1\\contracts\\DegisToken.sol",
  "compiler": {
    "name": "solc",
    "version": "0.8.5+commit.a4f2e591.Emscripten.clang"
  },
  "schemaVersion": "3.4.3",
  "updatedAt": "2021-10-07T16:23:49.020Z",
  "networkType": "ethereum",
  "devdoc": {
    "details": "This contract / DegisToken has an owner and a minter. When lauched on mainnet, the owner may be removed ? By default, the owner & minter account will be the one that deploys the contract. This can later be changed with {passMinterRole}.",
    "kind": "dev",
    "methods": {
      "allowance(address,address)": {
        "details": "See {IERC20-allowance}."
      },
      "approve(address,uint256)": {
        "details": "See {IERC20-approve}. Requirements: - `spender` cannot be the zero address."
      },
      "balanceOf(address)": {
        "details": "See {IERC20-balanceOf}."
      },
      "decimals()": {
        "details": "Returns the number of decimals used to get its user representation. For example, if `decimals` equals `2`, a balance of `505` tokens should be displayed to a user as `5.05` (`505 / 10 ** 2`). Tokens usually opt for a value of 18, imitating the relationship between Ether and Wei. This is the value {ERC20} uses, unless this function is overridden; NOTE: This information is only used for _display_ purposes: it in no way affects any of the arithmetic of the contract, including {IERC20-balanceOf} and {IERC20-transfer}."
      },
      "decreaseAllowance(address,uint256)": {
        "details": "Atomically decreases the allowance granted to `spender` by the caller. This is an alternative to {approve} that can be used as a mitigation for problems described in {IERC20-approve}. Emits an {Approval} event indicating the updated allowance. Requirements: - `spender` cannot be the zero address. - `spender` must have allowance for the caller of at least `subtractedValue`."
      },
      "increaseAllowance(address,uint256)": {
        "details": "Atomically increases the allowance granted to `spender` by the caller. This is an alternative to {approve} that can be used as a mitigation for problems described in {IERC20-approve}. Emits an {Approval} event indicating the updated allowance. Requirements: - `spender` cannot be the zero address."
      },
      "mint(address,uint256)": {
        "params": {
          "_account": ": receiver's address",
          "_amount": ": amount to be minted"
        }
      },
      "name()": {
        "details": "Returns the name of the token."
      },
      "passMinterRole(address)": {
        "params": {
          "_newMinter": ": new minter's address"
        },
        "returns": {
          "_0": "bool: whether the minter has been changed"
        }
      },
      "symbol()": {
        "details": "Returns the symbol of the token, usually a shorter version of the name."
      },
      "totalSupply()": {
        "details": "See {IERC20-totalSupply}."
      },
      "transfer(address,uint256)": {
        "details": "See {IERC20-transfer}. Requirements: - `recipient` cannot be the zero address. - the caller must have a balance of at least `amount`."
      },
      "transferFrom(address,address,uint256)": {
        "details": "See {IERC20-transferFrom}. Emits an {Approval} event indicating the updated allowance. This is not required by the EIP. See the note at the beginning of {ERC20}. Requirements: - `sender` and `recipient` cannot be the zero address. - `sender` must have a balance of at least `amount`. - the caller must have allowance for ``sender``'s tokens of at least `amount`."
      }
    },
    "version": 1
  },
  "userdoc": {
    "kind": "user",
    "methods": {
      "constructor": {
        "notice": "use ERC20 constructor and set the owner"
      },
      "mint(address,uint256)": {
        "notice": "Mint tokens !!!"
      },
      "passMinterRole(address)": {
        "notice": "Pass the minter role to a new address, only the owner can change the minter !!!"
      }
    },
    "version": 1
  }
}