{
  "contractName": "DegisLottery",
  "abi": [
    {
      "inputs": [
        {
          "internalType": "address",
          "name": "_degisTokenAddress",
          "type": "address"
        },
        {
          "internalType": "address",
          "name": "_usdcTokenAddress",
          "type": "address"
        },
        {
          "internalType": "address",
          "name": "_randomGeneratorAddress",
          "type": "address"
        }
      ],
      "stateMutability": "nonpayable",
      "type": "constructor"
    },
    {
      "anonymous": false,
      "inputs": [
        {
          "indexed": false,
          "internalType": "address",
          "name": "token",
          "type": "address"
        },
        {
          "indexed": false,
          "internalType": "uint256",
          "name": "amount",
          "type": "uint256"
        }
      ],
      "name": "AdminTokenRecovery",
      "type": "event"
    },
    {
      "anonymous": false,
      "inputs": [
        {
          "indexed": true,
          "internalType": "uint256",
          "name": "lotteryId",
          "type": "uint256"
        }
      ],
      "name": "LotteryClose",
      "type": "event"
    },
    {
      "anonymous": false,
      "inputs": [
        {
          "indexed": true,
          "internalType": "uint256",
          "name": "lotteryId",
          "type": "uint256"
        },
        {
          "indexed": false,
          "internalType": "uint256",
          "name": "injectedAmount",
          "type": "uint256"
        }
      ],
      "name": "LotteryInjection",
      "type": "event"
    },
    {
      "anonymous": false,
      "inputs": [
        {
          "indexed": true,
          "internalType": "uint256",
          "name": "lotteryId",
          "type": "uint256"
        },
        {
          "indexed": false,
          "internalType": "uint256",
          "name": "finalNumber",
          "type": "uint256"
        },
        {
          "indexed": false,
          "internalType": "uint256",
          "name": "countWinningTickets",
          "type": "uint256"
        }
      ],
      "name": "LotteryNumberDrawn",
      "type": "event"
    },
    {
      "anonymous": false,
      "inputs": [
        {
          "indexed": true,
          "internalType": "uint256",
          "name": "lotteryId",
          "type": "uint256"
        },
        {
          "indexed": false,
          "internalType": "uint256",
          "name": "startTime",
          "type": "uint256"
        },
        {
          "indexed": false,
          "internalType": "uint256",
          "name": "endTime",
          "type": "uint256"
        },
        {
          "indexed": false,
          "internalType": "uint256",
          "name": "priceTicketInDegis",
          "type": "uint256"
        },
        {
          "indexed": false,
          "internalType": "uint256",
          "name": "injectedAmount",
          "type": "uint256"
        }
      ],
      "name": "LotteryOpen",
      "type": "event"
    },
    {
      "anonymous": false,
      "inputs": [
        {
          "indexed": false,
          "internalType": "address",
          "name": "operator",
          "type": "address"
        },
        {
          "indexed": false,
          "internalType": "address",
          "name": "treasury",
          "type": "address"
        },
        {
          "indexed": false,
          "internalType": "address",
          "name": "injector",
          "type": "address"
        }
      ],
      "name": "NewOperatorAndTreasuryAndInjectorAddresses",
      "type": "event"
    },
    {
      "anonymous": false,
      "inputs": [
        {
          "indexed": true,
          "internalType": "address",
          "name": "randomGenerator",
          "type": "address"
        }
      ],
      "name": "NewRandomGenerator",
      "type": "event"
    },
    {
      "anonymous": false,
      "inputs": [
        {
          "indexed": true,
          "internalType": "address",
          "name": "previousOwner",
          "type": "address"
        },
        {
          "indexed": true,
          "internalType": "address",
          "name": "newOwner",
          "type": "address"
        }
      ],
      "name": "OwnershipTransferred",
      "type": "event"
    },
    {
      "anonymous": false,
      "inputs": [
        {
          "indexed": true,
          "internalType": "address",
          "name": "claimer",
          "type": "address"
        },
        {
          "indexed": false,
          "internalType": "uint256",
          "name": "amount",
          "type": "uint256"
        },
        {
          "indexed": true,
          "internalType": "uint256",
          "name": "lotteryId",
          "type": "uint256"
        }
      ],
      "name": "TicketsClaim",
      "type": "event"
    },
    {
      "anonymous": false,
      "inputs": [
        {
          "indexed": true,
          "internalType": "address",
          "name": "buyer",
          "type": "address"
        },
        {
          "indexed": true,
          "internalType": "uint256",
          "name": "lotteryId",
          "type": "uint256"
        },
        {
          "indexed": false,
          "internalType": "uint256",
          "name": "numberTickets",
          "type": "uint256"
        }
      ],
      "name": "TicketsPurchase",
      "type": "event"
    },
    {
      "anonymous": false,
      "inputs": [
        {
          "indexed": true,
          "internalType": "address",
          "name": "redeemer",
          "type": "address"
        },
        {
          "indexed": true,
          "internalType": "uint256",
          "name": "lotteryId",
          "type": "uint256"
        },
        {
          "indexed": false,
          "internalType": "uint256",
          "name": "numberTickets",
          "type": "uint256"
        }
      ],
      "name": "TicketsRedeem",
      "type": "event"
    },
    {
      "inputs": [],
      "name": "DegisToken",
      "outputs": [
        {
          "internalType": "contract IERC20",
          "name": "",
          "type": "address"
        }
      ],
      "stateMutability": "view",
      "type": "function",
      "constant": true
    },
    {
      "inputs": [],
      "name": "MAX_LENGTH_LOTTERY",
      "outputs": [
        {
          "internalType": "uint256",
          "name": "",
          "type": "uint256"
        }
      ],
      "stateMutability": "view",
      "type": "function",
      "constant": true
    },
    {
      "inputs": [],
      "name": "MAX_TICKET_NUMBER",
      "outputs": [
        {
          "internalType": "uint32",
          "name": "",
          "type": "uint32"
        }
      ],
      "stateMutability": "view",
      "type": "function",
      "constant": true
    },
    {
      "inputs": [],
      "name": "MAX_TREASURY_FEE",
      "outputs": [
        {
          "internalType": "uint256",
          "name": "",
          "type": "uint256"
        }
      ],
      "stateMutability": "view",
      "type": "function",
      "constant": true
    },
    {
      "inputs": [],
      "name": "MIN_LENGTH_LOTTERY",
      "outputs": [
        {
          "internalType": "uint256",
          "name": "",
          "type": "uint256"
        }
      ],
      "stateMutability": "view",
      "type": "function",
      "constant": true
    },
    {
      "inputs": [],
      "name": "MIN_TICKET_NUMBER",
      "outputs": [
        {
          "internalType": "uint32",
          "name": "",
          "type": "uint32"
        }
      ],
      "stateMutability": "view",
      "type": "function",
      "constant": true
    },
    {
      "inputs": [],
      "name": "USDCToken",
      "outputs": [
        {
          "internalType": "contract IERC20",
          "name": "",
          "type": "address"
        }
      ],
      "stateMutability": "view",
      "type": "function",
      "constant": true
    },
    {
      "inputs": [],
      "name": "currentLotteryId",
      "outputs": [
        {
          "internalType": "uint256",
          "name": "",
          "type": "uint256"
        }
      ],
      "stateMutability": "view",
      "type": "function",
      "constant": true
    },
    {
      "inputs": [],
      "name": "currentTicketId",
      "outputs": [
        {
          "internalType": "uint256",
          "name": "",
          "type": "uint256"
        }
      ],
      "stateMutability": "view",
      "type": "function",
      "constant": true
    },
    {
      "inputs": [],
      "name": "injectorAddress",
      "outputs": [
        {
          "internalType": "address",
          "name": "",
          "type": "address"
        }
      ],
      "stateMutability": "view",
      "type": "function",
      "constant": true
    },
    {
      "inputs": [],
      "name": "maxNumberTicketsPerBuyOrClaim",
      "outputs": [
        {
          "internalType": "uint256",
          "name": "",
          "type": "uint256"
        }
      ],
      "stateMutability": "view",
      "type": "function",
      "constant": true
    },
    {
      "inputs": [],
      "name": "maxNumberTicketsPerRedeem",
      "outputs": [
        {
          "internalType": "uint256",
          "name": "",
          "type": "uint256"
        }
      ],
      "stateMutability": "view",
      "type": "function",
      "constant": true
    },
    {
      "inputs": [],
      "name": "maxPriceTicketInDegis",
      "outputs": [
        {
          "internalType": "uint256",
          "name": "",
          "type": "uint256"
        }
      ],
      "stateMutability": "view",
      "type": "function",
      "constant": true
    },
    {
      "inputs": [],
      "name": "minPriceTicketInDegis",
      "outputs": [
        {
          "internalType": "uint256",
          "name": "",
          "type": "uint256"
        }
      ],
      "stateMutability": "view",
      "type": "function",
      "constant": true
    },
    {
      "inputs": [],
      "name": "operatorAddress",
      "outputs": [
        {
          "internalType": "address",
          "name": "",
          "type": "address"
        }
      ],
      "stateMutability": "view",
      "type": "function",
      "constant": true
    },
    {
      "inputs": [],
      "name": "owner",
      "outputs": [
        {
          "internalType": "address",
          "name": "",
          "type": "address"
        }
      ],
      "stateMutability": "view",
      "type": "function",
      "constant": true
    },
    {
      "inputs": [],
      "name": "pendingInjectionNextLottery",
      "outputs": [
        {
          "internalType": "uint256",
          "name": "",
          "type": "uint256"
        }
      ],
      "stateMutability": "view",
      "type": "function",
      "constant": true
    },
    {
      "inputs": [],
      "name": "randomGenerator",
      "outputs": [
        {
          "internalType": "contract IRandomNumberGenerator",
          "name": "",
          "type": "address"
        }
      ],
      "stateMutability": "view",
      "type": "function",
      "constant": true
    },
    {
      "inputs": [],
      "name": "renounceOwnership",
      "outputs": [],
      "stateMutability": "nonpayable",
      "type": "function"
    },
    {
      "inputs": [
        {
          "internalType": "address",
          "name": "newOwner",
          "type": "address"
        }
      ],
      "name": "transferOwnership",
      "outputs": [],
      "stateMutability": "nonpayable",
      "type": "function"
    },
    {
      "inputs": [],
      "name": "treasuryAddress",
      "outputs": [
        {
          "internalType": "address",
          "name": "",
          "type": "address"
        }
      ],
      "stateMutability": "view",
      "type": "function",
      "constant": true
    },
    {
      "inputs": [
        {
          "internalType": "uint32[]",
          "name": "_ticketNumbers",
          "type": "uint32[]"
        }
      ],
      "name": "buyTickets",
      "outputs": [],
      "stateMutability": "nonpayable",
      "type": "function"
    },
    {
      "inputs": [
        {
          "internalType": "uint256[]",
          "name": "_ticketIds",
          "type": "uint256[]"
        }
      ],
      "name": "redeemTickets",
      "outputs": [],
      "stateMutability": "nonpayable",
      "type": "function"
    },
    {
      "inputs": [
        {
          "internalType": "uint256",
          "name": "_lotteryId",
          "type": "uint256"
        },
        {
          "internalType": "uint256[]",
          "name": "_ticketIds",
          "type": "uint256[]"
        }
      ],
      "name": "claimTickets",
      "outputs": [],
      "stateMutability": "nonpayable",
      "type": "function"
    },
    {
      "inputs": [
        {
          "internalType": "uint256",
          "name": "_lotteryId",
          "type": "uint256"
        }
      ],
      "name": "claimAllTickets",
      "outputs": [],
      "stateMutability": "nonpayable",
      "type": "function"
    },
    {
      "inputs": [
        {
          "internalType": "uint256",
          "name": "_lotteryId",
          "type": "uint256"
        }
      ],
      "name": "closeLottery",
      "outputs": [],
      "stateMutability": "nonpayable",
      "type": "function"
    },
    {
      "inputs": [
        {
          "internalType": "uint256",
          "name": "_lotteryId",
          "type": "uint256"
        },
        {
          "internalType": "bool",
          "name": "_autoInjection",
          "type": "bool"
        }
      ],
      "name": "drawFinalNumberAndMakeLotteryClaimable",
      "outputs": [],
      "stateMutability": "nonpayable",
      "type": "function"
    },
    {
      "inputs": [
        {
          "internalType": "address",
          "name": "_randomGeneratorAddress",
          "type": "address"
        }
      ],
      "name": "changeRandomGenerator",
      "outputs": [],
      "stateMutability": "nonpayable",
      "type": "function"
    },
    {
      "inputs": [
        {
          "internalType": "uint256",
          "name": "_lotteryId",
          "type": "uint256"
        },
        {
          "internalType": "uint256",
          "name": "_amount",
          "type": "uint256"
        }
      ],
      "name": "injectFunds",
      "outputs": [],
      "stateMutability": "nonpayable",
      "type": "function"
    },
    {
      "inputs": [
        {
          "internalType": "uint256",
          "name": "_endTime",
          "type": "uint256"
        },
        {
          "internalType": "uint256",
          "name": "_priceTicketInDegis",
          "type": "uint256"
        },
        {
          "internalType": "uint256[4]",
          "name": "_rewardsBreakdown",
          "type": "uint256[4]"
        },
        {
          "internalType": "uint256",
          "name": "_treasuryFee",
          "type": "uint256"
        }
      ],
      "name": "startLottery",
      "outputs": [],
      "stateMutability": "nonpayable",
      "type": "function"
    },
    {
      "inputs": [
        {
          "internalType": "address",
          "name": "_tokenAddress",
          "type": "address"
        },
        {
          "internalType": "uint256",
          "name": "_tokenAmount",
          "type": "uint256"
        }
      ],
      "name": "recoverWrongTokens",
      "outputs": [],
      "stateMutability": "nonpayable",
      "type": "function"
    },
    {
      "inputs": [
        {
          "internalType": "uint256",
          "name": "_minPriceTicketInDegis",
          "type": "uint256"
        },
        {
          "internalType": "uint256",
          "name": "_maxPriceTicketInDegis",
          "type": "uint256"
        }
      ],
      "name": "setMinAndMaxTicketPrice",
      "outputs": [],
      "stateMutability": "nonpayable",
      "type": "function"
    },
    {
      "inputs": [
        {
          "internalType": "uint256",
          "name": "_maxNumber",
          "type": "uint256"
        }
      ],
      "name": "setMaxNumberTicketsPeyBuyOrClaim",
      "outputs": [],
      "stateMutability": "nonpayable",
      "type": "function"
    },
    {
      "inputs": [
        {
          "internalType": "address",
          "name": "_operatorAddress",
          "type": "address"
        },
        {
          "internalType": "address",
          "name": "_treasuryAddress",
          "type": "address"
        },
        {
          "internalType": "address",
          "name": "_injectorAddress",
          "type": "address"
        }
      ],
      "name": "setOperatorAndTreasuryAndInjectorAddresses",
      "outputs": [],
      "stateMutability": "nonpayable",
      "type": "function"
    },
    {
      "inputs": [
        {
          "internalType": "uint256",
          "name": "_priceTicket",
          "type": "uint256"
        },
        {
          "internalType": "uint256",
          "name": "_numberTickets",
          "type": "uint256"
        }
      ],
      "name": "calculateTotalPriceForBulkTickets",
      "outputs": [
        {
          "internalType": "uint256",
          "name": "",
          "type": "uint256"
        }
      ],
      "stateMutability": "pure",
      "type": "function",
      "constant": true
    },
    {
      "inputs": [],
      "name": "viewCurrentLotteryId",
      "outputs": [
        {
          "internalType": "uint256",
          "name": "",
          "type": "uint256"
        }
      ],
      "stateMutability": "view",
      "type": "function",
      "constant": true
    },
    {
      "inputs": [
        {
          "internalType": "uint256",
          "name": "_lotteryId",
          "type": "uint256"
        }
      ],
      "name": "viewLottery",
      "outputs": [
        {
          "components": [
            {
              "internalType": "enum DegisLottery.Status",
              "name": "status",
              "type": "uint8"
            },
            {
              "internalType": "uint256",
              "name": "startTime",
              "type": "uint256"
            },
            {
              "internalType": "uint256",
              "name": "endTime",
              "type": "uint256"
            },
            {
              "internalType": "uint256",
              "name": "priceTicketInDegis",
              "type": "uint256"
            },
            {
              "internalType": "uint256[4]",
              "name": "rewardsBreakdown",
              "type": "uint256[4]"
            },
            {
              "internalType": "uint256",
              "name": "treasuryFee",
              "type": "uint256"
            },
            {
              "internalType": "uint256[4]",
              "name": "rewardPerTicketInBracket",
              "type": "uint256[4]"
            },
            {
              "internalType": "uint256[4]",
              "name": "countWinnersPerBracket",
              "type": "uint256[4]"
            },
            {
              "internalType": "uint256",
              "name": "amountCollected",
              "type": "uint256"
            },
            {
              "internalType": "uint256",
              "name": "pendingAwards",
              "type": "uint256"
            },
            {
              "internalType": "uint32",
              "name": "finalNumber",
              "type": "uint32"
            }
          ],
          "internalType": "struct DegisLottery.Lottery",
          "name": "",
          "type": "tuple"
        }
      ],
      "stateMutability": "view",
      "type": "function",
      "constant": true
    },
    {
      "inputs": [
        {
          "internalType": "uint256[]",
          "name": "_ticketIds",
          "type": "uint256[]"
        }
      ],
      "name": "viewNumbersAndStatusesForTicketIds",
      "outputs": [
        {
          "internalType": "uint32[]",
          "name": "",
          "type": "uint32[]"
        },
        {
          "internalType": "bool[]",
          "name": "",
          "type": "bool[]"
        }
      ],
      "stateMutability": "view",
      "type": "function",
      "constant": true
    },
    {
      "inputs": [
        {
          "internalType": "uint256",
          "name": "_lotteryId",
          "type": "uint256"
        },
        {
          "internalType": "uint256",
          "name": "_ticketId",
          "type": "uint256"
        }
      ],
      "name": "viewRewardsForTicketId",
      "outputs": [
        {
          "internalType": "uint256",
          "name": "",
          "type": "uint256"
        }
      ],
      "stateMutability": "view",
      "type": "function",
      "constant": true
    },
    {
      "inputs": [
        {
          "internalType": "address",
          "name": "_user",
          "type": "address"
        },
        {
          "internalType": "uint256",
          "name": "_lotteryId",
          "type": "uint256"
        },
        {
          "internalType": "uint256",
          "name": "_cursor",
          "type": "uint256"
        },
        {
          "internalType": "uint256",
          "name": "_size",
          "type": "uint256"
        }
      ],
      "name": "viewUserInfoForLotteryId",
      "outputs": [
        {
          "internalType": "uint256[]",
          "name": "",
          "type": "uint256[]"
        },
        {
          "internalType": "uint32[]",
          "name": "",
          "type": "uint32[]"
        },
        {
          "internalType": "bool[]",
          "name": "",
          "type": "bool[]"
        },
        {
          "internalType": "uint256",
          "name": "",
          "type": "uint256"
        }
      ],
      "stateMutability": "view",
      "type": "function",
      "constant": true
    },
    {
      "inputs": [
        {
          "internalType": "uint256",
          "name": "_lotteryId",
          "type": "uint256"
        }
      ],
      "name": "viewClaimAllTickets",
      "outputs": [
        {
          "internalType": "uint256",
          "name": "",
          "type": "uint256"
        }
      ],
      "stateMutability": "view",
      "type": "function",
      "constant": true
    }
  ],
  "bytecode": "0x6080604052600a600755600a6008556802b5e3af16b18800006009556611c37937e08000600a553480156200003357600080fd5b5060405162005314380380620053148339810160408190526200005691620001de565b6001600090815562000070640100000000620001bd810204565b60018054600160a060020a031916600160a060020a038316908117909155604051919250906000907f8be0079c531659141344cd1fd0a4f28419497f9722a3daafe3b4186f6b6457e0908290a350600c8054600160a060020a03948516600160a060020a031991821617909155600d805493851693821693909317909255600e805491909316911617905560126020527f7e7fa33969761a458e04f477e039a608702b4f924981d6653935a8319a08ad7b805463ffffffff199081166001179091557f71a67924699a20698523213e55fe499d539379d7769cd5567e2c45d583f815a380548216600b1790557f8e1fee8c88a9e04123b21e90cae2727a7715bf522a1e46eb5934ccd05203a6b280548216606f17905560036000527f0f36ad39aee03e7108cc48f54934702a5f0d4066f10344cebf8198978d86976a805490911661045717905562000228565b3390565b8051600160a060020a0381168114620001d957600080fd5b919050565b600080600060608486031215620001f457600080fd5b620001ff84620001c1565b92506200020f60208501620001c1565b91506200021f60408501620001c1565b90509250925092565b6150dc80620002386000396000f3fe608060405234801561001057600080fd5b50600436106102f0576000357c01000000000000000000000000000000000000000000000000000000009004806380a06160116101a3578063c38de53911610100578063dcbad90d116100b4578063f2b3c8091161008e578063f2b3c809146105b4578063f2fde38b146105bd578063fd10c96c146105d057600080fd5b8063dcbad90d1461057b578063e1059fe51461058e578063e49eb0da146105a157600080fd5b8063da4ca039116100e5578063da4ca0391461054a578063db19da0d1461055d578063dc5fc1241461056857600080fd5b8063c38de53914610524578063c5f956af1461053757600080fd5b80639c38465311610157578063af65bc251161013c578063af65bc25146104ff578063b3d8f83a14610508578063b3e3649b1461051157600080fd5b80639c384653146104d95780639d8ca531146104ec57600080fd5b80638fc3539a116101885780638fc3539a14610492578063967159f3146104b357806398359fa1146104c657600080fd5b806380a06160146104795780638da5cb5b1461048157600080fd5b80633f138d4b1161025157806365dc59d6116102055780636be4097c116101ea5780636be4097c1461045f578063715018a6146104685780637250e45d1461047057600080fd5b806365dc59d614610443578063686465b81461045657600080fd5b8063471aeab411610236578063471aeab41461040a5780634c34c8de1461041d5780635ac774d91461043057600080fd5b80633f138d4b146103e457806344848a99146103f757600080fd5b80631fe86c6b116102a85780632423807a1161028d5780632423807a146103a65780632a4b8972146103c657806338c6c355146103cf57600080fd5b80631fe86c6b1461038a5780632149485d1461039357600080fd5b8063127effb2116102d9578063127effb21461033857806312a9769d1461036357806314a0792f1461036c57600080fd5b806305531eeb146102f557806307fb5a9c14610321575b600080fd5b6103086103033660046148c2565b6105e3565b6040516103189493929190614b96565b60405180910390f35b61032a610ce481565b604051908152602001610318565b60035461034b90600160a060020a031681565b604051600160a060020a039091168152602001610318565b61032a600b5481565b61037561271081565b60405163ffffffff9091168152602001610318565b61032a60075481565b61032a6103a1366004614a08565b610862565b6103b96103b436600461495a565b610a88565b6040516103189190614c6b565b61032a600a5481565b6103e26103dd36600461495a565b610bd2565b005b6103e26103f2366004614898565b610c84565b6103e261040536600461495a565b610d9c565b6103e2610418366004614a08565b6111cf565b600d5461034b90600160a060020a031681565b61032a61043e36600461495a565b61144f565b600c5461034b90600160a060020a031681565b61032a60065481565b61032a60055481565b6103e261169a565b610375614e1f81565b60055461032a565b600154600160a060020a031661034b565b6104a56104a03660046148fb565b61174e565b604051610318929190614c0a565b6103e26104c13660046148fb565b6118d5565b6103e26104d436600461483a565b611eea565b60025461034b90600160a060020a031681565b6103e26104fa36600461495a565b612113565b61032a60085481565b61032a60095481565b6103e261051f366004614a2a565b6123e2565b6103e26105323660046149d8565b6128b5565b60045461034b90600160a060020a031681565b6103e2610558366004614855565b613042565b61032a6301e134ac81565b6103e2610576366004614a08565b61323b565b600e5461034b90600160a060020a031681565b6103e261059c3660046148fb565b6132f6565b6103e26105af36600461498c565b61393f565b61032a610bb881565b6103e26105cb36600461483a565b613edf565b61032a6105de366004614a08565b614024565b600160a060020a038416600090815260146020526040812054606091829182919085906106108882614eb7565b821115610624576106218882614eb7565b91505b60008267ffffffffffffffff81111561063f5761063f615054565b604051908082528060200260200182016040528015610668578160200160208202803683370190505b50905060008367ffffffffffffffff81111561068657610686615054565b6040519080825280602002602001820160405280156106af578160200160208202803683370190505b50905060008467ffffffffffffffff8111156106cd576106cd615054565b6040519080825280602002602001820160405280156106f6578160200160208202803683370190505b50905060005b8581101561083c57600160a060020a038e1660009081526014602052604090206107268d83614d14565b8154811061073657610736615025565b906000526020600020015484828151811061075357610753615025565b6020026020010181815250506011600085838151811061077557610775615025565b6020026020010151815260200190815260200160002060000160009054906101000a900463ffffffff168382815181106107b1576107b1615025565b602002602001019063ffffffff16908163ffffffff1681525050601160008583815181106107e1576107e1615025565b6020026020010151815260200190815260200160002060020160009054906101000a900460ff1682828151811061081a5761081a615025565b911515602092830291909101909101528061083481614f36565b9150506106fc565b5082828261084a888f614d14565b98509850985098505050505050945094509450949050565b6000600360008481526010602052604090205460ff16600381111561088957610889614ff6565b1461089657506000610a82565b6000828152601160205260409020600101548310156108ff5760405160e560020a62461bcd02815260206004820152601560248201527f7469636b6574496420697320746f6f206c61726765000000000000000000000060448201526064015b60405180910390fd5b60008281526011602052604090206002015460ff161515600114156109815760008281526011602052604090206003015483106109815760405160e560020a62461bcd02815260206004820152601560248201527f7469636b65744964207761732072656465656d6564000000000000000000000060448201526064016108f6565b6000828152600f6020908152604080832086845290915290205460ff16156109ee5760405160e560020a62461bcd02815260206004820152600e60248201527f7072697a6520726563656976656400000000000000000000000000000000000060448201526064016108f6565b600082815260116020526040902060010154831080610a3f575060008281526011602052604090206002015460ff1615156001148015610a3f57506000828152601160205260409020600301548310155b80610a6857506000828152600f6020908152604080832086845290915290205460ff1615156001145b15610a7557506000610a82565b610a7f8383614080565b90505b92915050565b610a906146f6565b60008281526010602052604090819020815161016081019092528054829060ff166003811115610ac257610ac2614ff6565b6003811115610ad357610ad3614ff6565b8152600182015460208201526002820154604080830191909152600383015460608301528051608080820192839052909201919060048085019182845b815481526020019060010190808311610b1057505050918352505060088201546020820152604080516080810182529101906009830160048282826020028201915b815481526020019060010190808311610b5257505050918352505060408051608081019182905260209092019190600d84019060049082845b815481526020019060010190808311610b8b575050509183525050601182015460208201526012820154604082015260139091015463ffffffff1660609091015292915050565b600154600160a060020a03163314610c2f5760405160e560020a62461bcd02815260206004820181905260248201527f4f776e61626c653a2063616c6c6572206973206e6f7420746865206f776e657260448201526064016108f6565b80610c7f5760405160e560020a62461bcd02815260206004820152600b60248201527f4d757374206265203e203000000000000000000000000000000000000000000060448201526064016108f6565b600755565b600154600160a060020a03163314610ce15760405160e560020a62461bcd02815260206004820181905260248201527f4f776e61626c653a2063616c6c6572206973206e6f7420746865206f776e657260448201526064016108f6565b600c54600160a060020a0383811691161415610d425760405160e560020a62461bcd02815260206004820152601560248201527f43616e6e6f7420626520444547495320746f6b656e000000000000000000000060448201526064016108f6565b610d56600160a060020a03831633836142a9565b60408051600160a060020a0384168152602081018390527f74545154aac348a3eac92596bd1971957ca94795f4e954ec5f613b55fab78129910160405180910390a15050565b333b15610dee5760405160e560020a62461bcd02815260206004820152601460248201527f436f6e7472616374206e6f7420616c6c6f77656400000000000000000000000060448201526064016108f6565b333214610e405760405160e560020a62461bcd02815260206004820152601a60248201527f50726f787920636f6e7472616374206e6f7420616c6c6f77656400000000000060448201526064016108f6565b60026000541415610e965760405160e560020a62461bcd02815260206004820152601f60248201527f5265656e7472616e637947756172643a207265656e7472616e742063616c6c0060448201526064016108f6565b6002600055600360008281526010602052604090205460ff166003811115610ec057610ec0614ff6565b14610f365760405160e560020a62461bcd02815260206004820152603060248201527f7468697320726f756e64206f66206c6f747465727920617265206e6f7420726560448201527f61647920666f7220636c61696d696e670000000000000000000000000000000060648201526084016108f6565b6000805b3360009081526014602052604090205481101561110157336000908152601460205260408120805483908110610f7257610f72615025565b60009182526020808320919091015480835260119091526040909120549091506401000000009004600160a060020a031633146110195760405160e560020a62461bcd028152602060048201526024808201527f796f7520617265206e6f7420746865206f776e6572206f66207468697320746960448201527f636b65740000000000000000000000000000000000000000000000000000000060648201526084016108f6565b60008181526011602052604090206001015484101561103857506110ef565b60008181526011602052604090206002015460ff1615156001141561107557600081815260116020526040902060030154841061107557506110ef565b6000818152600f6020908152604080832087845290915290205460ff161515600114156110a257506110ef565b60006110ae8583614080565b9050806110bc5750506110ef565b6000828152600f602090815260408083208884529091529020805460ff191660011790556110ea8185614d14565b935050505b806110f981614f36565b915050610f3a565b50806111525760405160e560020a62461bcd02815260206004820152600860248201527f6e6f207072697a6500000000000000000000000000000000000000000000000060448201526064016108f6565b600d5461116990600160a060020a031633836142a9565b6000828152601060205260408120601201805483929061118a908490614eb7565b9091555050604051818152829033907f0fdeb33b5931b477077383757e0ba077bd3d8eddfa2cc711c54ad2d3a0cfac659060200160405180910390a350506001600055565b600154600160a060020a03163314806111f25750600254600160a060020a031633145b6112415760405160e560020a62461bcd02815260206004820152601560248201527f4e6f74206f776e6572206f7220696e6a6563746f72000000000000000000000060448201526064016108f6565b600160008381526010602052604090205460ff16600381111561126657611266614ff6565b146112dc5760405160e560020a62461bcd02815260206004820152603560248201527f746865206c6f747465727920726f756e64206973206e6f74206f70656e2c206360448201527f686f6f73652074686520726967687420726f756e64000000000000000000000060648201526084016108f6565b600d546112f490600160a060020a0316333084614357565b600d546040517f70a08231000000000000000000000000000000000000000000000000000000008152306004820152600091600160a060020a0316906370a082319060240160206040518083038186803b15801561135157600080fd5b505afa158015611365573d6000803e3d6000fd5b505050506040513d601f19601f820116820180604052508101906113899190614973565b9050816010600085815260200190815260200160002060110160008282546113b19190614d14565b909155508190506113c06143ae565b146114105760405160e560020a62461bcd02815260206004820152601360248201527f74686520616d6f756e742069732077726f6e670000000000000000000000000060448201526064016108f6565b827f1bbd659dd628a25f7ff2eabb69c74a56939c539728282275c1c9c1a2d3e340498360405161144291815260200190565b60405180910390a2505050565b6000600360008381526010602052604090205460ff16600381111561147657611476614ff6565b146114ec5760405160e560020a62461bcd02815260206004820152603060248201527f7468697320726f756e64206f66206c6f747465727920617265206e6f7420726560448201527f61647920666f7220636c61696d696e670000000000000000000000000000000060648201526084016108f6565b6000805b336000908152601460205260409020548110156116935733600090815260146020526040812080548390811061152857611528615025565b60009182526020808320919091015480835260119091526040909120549091506401000000009004600160a060020a031633146115cf5760405160e560020a62461bcd028152602060048201526024808201527f796f7520617265206e6f7420746865206f776e6572206f66207468697320746960448201527f636b65740000000000000000000000000000000000000000000000000000000060648201526084016108f6565b6000818152601160205260409020600101548510156115ee5750611681565b60008181526011602052604090206002015460ff1615156001141561162b57600081815260116020526040902060030154851061162b5750611681565b6000818152600f6020908152604080832088845290915290205460ff161515600114156116585750611681565b60006116648683614080565b905080611672575050611681565b61167c8185614d14565b935050505b8061168b81614f36565b9150506114f0565b5092915050565b600154600160a060020a031633146116f75760405160e560020a62461bcd02815260206004820181905260248201527f4f776e61626c653a2063616c6c6572206973206e6f7420746865206f776e657260448201526064016108f6565b600154604051600091600160a060020a0316907f8be0079c531659141344cd1fd0a4f28419497f9722a3daafe3b4186f6b6457e0908390a36001805473ffffffffffffffffffffffffffffffffffffffff19169055565b6060808260008167ffffffffffffffff81111561176d5761176d615054565b604051908082528060200260200182016040528015611796578160200160208202803683370190505b50905060008267ffffffffffffffff8111156117b4576117b4615054565b6040519080825280602002602001820160405280156117dd578160200160208202803683370190505b50905060005b838110156118c6576011600089898481811061180157611801615025565b90506020020135815260200190815260200160002060000160009054906101000a900463ffffffff1683828151811061183c5761183c615025565b602002602001019063ffffffff16908163ffffffff16815250506011600089898481811061186c5761186c615025565b90506020020135815260200190815260200160002060020160009054906101000a900460ff168282815181106118a4576118a4615025565b91151560209283029190910190910152806118be81614f36565b9150506117e3565b509093509150505b9250929050565b333b156119275760405160e560020a62461bcd02815260206004820152601460248201527f436f6e7472616374206e6f7420616c6c6f77656400000000000000000000000060448201526064016108f6565b3332146119795760405160e560020a62461bcd02815260206004820152601a60248201527f50726f787920636f6e7472616374206e6f7420616c6c6f77656400000000000060448201526064016108f6565b600260005414156119cf5760405160e560020a62461bcd02815260206004820152601f60248201527f5265656e7472616e637947756172643a207265656e7472616e742063616c6c0060448201526064016108f6565b600260005580611a245760405160e560020a62461bcd02815260206004820152601b60248201527f6e6f207469636b65747320617265206265696e6720626f75676874000000000060448201526064016108f6565b600854811115611a9f5760405160e560020a62461bcd02815260206004820152602f60248201527f746f6f206d616e79207469636b65747320617265206265696e672072656d656560448201527f646564206174206f6e652074696d65000000000000000000000000000000000060648201526084016108f6565b600160055460009081526010602052604090205460ff166003811115611ac757611ac7614ff6565b14611b3d5760405160e560020a62461bcd02815260206004820152602260248201527f736f7272792c2063757272656e74206c6f7474657279206973206e6f74206f7060448201527f656e00000000000000000000000000000000000000000000000000000000000060648201526084016108f6565b6005546000908152601060205260409020600201544210611ba35760405160e560020a62461bcd02815260206004820152601e60248201527f736f7272792c2063757272656e74206c6f7474657279206973206f766572000060448201526064016108f6565b6000805b82811015611e8f576000848483818110611bc357611bc3615025565b9050602002013590508060065411611c205760405160e560020a62461bcd02815260206004820152601560248201527f7469636b6574496420697320746f6f206c61726765000000000000000000000060448201526064016108f6565b6000818152601160205260409020546401000000009004600160a060020a03163314611cb65760405160e560020a62461bcd028152602060048201526024808201527f796f7520617265206e6f7420746865206f776e6572206f66207468697320746960448201527f636b65740000000000000000000000000000000000000000000000000000000060648201526084016108f6565b60008181526011602052604090206002015460ff1615611d1b5760405160e560020a62461bcd02815260206004820152601860248201527f7469636b657420686173206265656e2072656465656d6564000000000000000060448201526064016108f6565b600081815260116020526040902060028101805460ff19166001179055600554600382015560040154611d4e9084614d14565b60008281526011602052604081205491945063ffffffff90911690601390611d77600a84614f75565b611d82906001614d2c565b63ffffffff16815260208101919091526040016000908120805491611da683614f1f565b90915550601390506000611dbb606484614f75565b611dc690600b614d2c565b63ffffffff16815260208101919091526040016000908120805491611dea83614f1f565b90915550601390506000611e006103e884614f75565b611e0b90606f614d2c565b63ffffffff16815260208101919091526040016000908120805491611e2f83614f1f565b90915550601390506000611e4561271084614f75565b611e5190610457614d2c565b63ffffffff16815260208101919091526040016000908120805491611e7583614f1f565b919050555050508080611e8790614f36565b915050611ba7565b50600c54611ea790600160a060020a031633836142a9565b60055460405183815233907f4351c1b0eab3edfe3ae632c43d3c33b0ce389aa3bebe2586cd5a064b26b666f5906020015b60405180910390a35050600160005550565b600154600160a060020a03163314611f475760405160e560020a62461bcd02815260206004820181905260248201527f4f776e61626c653a2063616c6c6572206973206e6f7420746865206f776e657260448201526064016108f6565b600360055460009081526010602052604090205460ff166003811115611f6f57611f6f614ff6565b14611fbf5760405160e560020a62461bcd02815260206004820181905260248201527f63757272656e74206c6f7474657279206973206e6f7420636c61696d61626c6560448201526064016108f6565b80600160a060020a031663dbdff2c16040518163ffffffff167c0100000000000000000000000000000000000000000000000000000000028152600401600060405180830381600087803b15801561201657600080fd5b505af115801561202a573d6000803e3d6000fd5b5050505080600160a060020a031663a1c4f55a6040518163ffffffff167c010000000000000000000000000000000000000000000000000000000002815260040160206040518083038186803b15801561208357600080fd5b505afa158015612097573d6000803e3d6000fd5b505050506040513d601f19601f820116820180604052508101906120bb9190614a8c565b50600e805473ffffffffffffffffffffffffffffffffffffffff1916600160a060020a0383169081179091556040517f383f8cb39dfa7c3fb901a460dd449ea924868f0a92ff03da64740fffa5f1de6290600090a250565b600354600160a060020a031633146121705760405160e560020a62461bcd02815260206004820152600c60248201527f4e6f74206f70657261746f72000000000000000000000000000000000000000060448201526064016108f6565b600260005414156121c65760405160e560020a62461bcd02815260206004820152601f60248201527f5265656e7472616e637947756172643a207265656e7472616e742063616c6c0060448201526064016108f6565b6002600055600160008281526010602052604090205460ff1660038111156121f0576121f0614ff6565b146122665760405160e560020a62461bcd02815260206004820152602260248201527f74686973206c6f7474657279206973206e6f74206f70656e2063757272656e7460448201527f6c7900000000000000000000000000000000000000000000000000000000000060648201526084016108f6565b60008181526010602052604090206002015442116123155760405160e560020a62461bcd02815260206004820152605060248201527f74686973206c6f747465727920686173206e6f7420726561636865642074686560448201527f20656e642074696d652c206f6e6c792063616e20626520636c6f73656420616660648201527f7465722074686520656e642074696d6500000000000000000000000000000000608482015260a4016108f6565b600e60009054906101000a9004600160a060020a0316600160a060020a031663dbdff2c16040518163ffffffff167c0100000000000000000000000000000000000000000000000000000000028152600401600060405180830381600087803b15801561238157600080fd5b505af1158015612395573d6000803e3d6000fd5b505050600082815260106020526040808220805460ff19166002179055518392507f8bc84e5d97533c428862626ac41fe7bc09b1ea2ed5e9e330d84092db8df153669190a2506001600055565b600354600160a060020a0316331461243f5760405160e560020a62461bcd02815260206004820152600c60248201527f4e6f74206f70657261746f72000000000000000000000000000000000000000060448201526064016108f6565b60055415806124735750600360055460009081526010602052604090205460ff16600381111561247157612471614ff6565b145b6124c25760405160e560020a62461bcd02815260206004820152601960248201527f4e6f742074696d6520746f207374617274206c6f74746572790000000000000060448201526064016108f6565b610ce46124cf4286614eb7565b1180156124e857506301e134ac6124e64286614eb7565b105b61255d5760405160e560020a62461bcd02815260206004820152603960248201527f746865206c6f7474657279206c656e677468206973206f757473696465206f6660448201527f2072616e67652c203420686f75727320746f203720646179730000000000000060648201526084016108f6565b600a54831015801561257157506009548311155b6125c05760405160e560020a62461bcd02815260206004820152601160248201527f4f757473696465206f66206c696d69747300000000000000000000000000000060448201526064016108f6565b610bb88111156126155760405160e560020a62461bcd02815260206004820152601860248201527f74726561737572792066656520697320746f6f2068696768000000000000000060448201526064016108f6565b6060820135604083013561262e60208501358535614d14565b6126389190614d14565b6126429190614d14565b612710146126bb5760405160e560020a62461bcd02815260206004820152602e60248201527f746f74616c2072657761726473206f66206561636820627261636b6574206d7560448201527f737420657175616c20313030303000000000000000000000000000000000000060648201526084016108f6565b600580549060006126cb83614f36565b9091555050604080516101608101909152806001815260200142815260200185815260200184815260200183600480602002604051908101604052809291908260046020028082843760009201829052509284525050602080830185905260408051608080820183528482528184018590528183018590526060808301869052838701929092528251808201845285815280850186905280840186905280830186905291860191909152600b549085015260a0840183905260c09093018290526005548252601090522081518154829060ff191660018360038111156127b3576127b3614ff6565b021790555060208201516001820155604082015160028201556060820151600382015560808201516127eb9060048084019190614769565b5060a0820151600882015560c082015161280b9060098301906004614769565b5060e082015161282190600d8301906004614769565b5061010082015160118201556101208201516012820155610140909101516013909101805463ffffffff191663ffffffff909216919091179055600554600b54604080514281526020810188905290810186905260608101919091527fd334851c83074cc65278baf7a2f3222bb4e342f0160b194b132083767984ba659060800160405180910390a250506000600b555050565b600354600160a060020a031633146129125760405160e560020a62461bcd02815260206004820152600c60248201527f4e6f74206f70657261746f72000000000000000000000000000000000000000060448201526064016108f6565b600260005414156129685760405160e560020a62461bcd02815260206004820152601f60248201527f5265656e7472616e637947756172643a207265656e7472616e742063616c6c0060448201526064016108f6565b600260008181558381526010602052604090205460ff16600381111561299057612990614ff6565b14612a065760405160e560020a62461bcd02815260206004820152603660248201527f74686973206c6f747465727920686173206e6f7420636c6f7365642c20796f7560448201527f2073686f756c6420666972737420636c6f73652069740000000000000000000060648201526084016108f6565b600e60009054906101000a9004600160a060020a0316600160a060020a031663fbe5d9176040518163ffffffff167c010000000000000000000000000000000000000000000000000000000002815260040160206040518083038186803b158015612a7057600080fd5b505afa158015612a84573d6000803e3d6000fd5b505050506040513d601f19601f82011682018060405250810190612aa89190614973565b8214612b1f5760405160e560020a62461bcd02815260206004820152602b60248201527f7468652066696e616c206c75636b79206e756d626572732068617665206e6f7460448201527f206265656e20647261776e00000000000000000000000000000000000000000060648201526084016108f6565b600e54604080517fa1c4f55a0000000000000000000000000000000000000000000000000000000081529051600092600160a060020a03169163a1c4f55a916004808301926020929190829003018186803b158015612b7d57600080fd5b505afa158015612b91573d6000803e3d6000fd5b505050506040513d601f19601f82011682018060405250810190612bb59190614a8c565b60008481526010602052604081206008015491925090819061271090612bdb9082614eb7565b600087815260106020526040902060110154612bf79190614e98565b612c019190614d54565b90506000805b60048163ffffffff161015612e5b576000612c23826003614ece565b90506000612c32826001614d2c565b612c3d90600a614daf565b612c479088614f75565b63ffffffff808416600090815260126020526040902054612c69929116614d2c565b63ffffffff8116600090815260136020526040902054909150612c8d908790614eb7565b60008a8152601060205260409020600d0163ffffffff841660048110612cb557612cb5615025565b015563ffffffff8116600090815260136020526040902054612cd8908790614eb7565b15612dc957600089815260106020526040902060049081019063ffffffff8416908110612d0757612d07615025565b015415612dc45763ffffffff811660009081526013602052604090205461271090612d33908890614eb7565b86601060008d81526020019081526020016000206004018563ffffffff1660048110612d6157612d61615025565b0154612d6d9190614e98565b612d779190614d54565b612d819190614d54565b60008a815260106020526040902060090163ffffffff841660048110612da957612da9615025565b015563ffffffff811660009081526013602052604090205495505b612e46565b600089815260106020526040812060090163ffffffff841660048110612df157612df1615025565b0155600089815260106020526040902061271090869060049081019063ffffffff8616908110612e2357612e23615025565b0154612e2f9190614e98565b612e399190614d54565b612e439085614d14565b93505b50508080612e5390614f51565b915050612c07565b50600086815260106020526040902060138101805463ffffffff871663ffffffff19909116179055805460ff19166003179055612e988183614eb7565b6000878152601060205260409020601201558415612eb657600b5560005b600086815260106020526040902060110154612ed3908390614eb7565b612edd9082614d14565b90508015612f0257600454600d54612f0291600160a060020a039182169116836142a9565b600d546040517f70a08231000000000000000000000000000000000000000000000000000000008152306004820152600091600160a060020a0316906370a082319060240160206040518083038186803b158015612f5f57600080fd5b505afa158015612f73573d6000803e3d6000fd5b505050506040513d601f19601f82011682018060405250810190612f979190614973565b905080612fa26143ae565b14612ff25760405160e560020a62461bcd02815260206004820152601060248201527f55534443206e6f742062616c616e63650000000000000000000000000000000060448201526064016108f6565b6005546040805163ffffffff88168152602081018790527f98e31a6607b8b15b4d5b91de54f4c09ffe4c4cf162aa532c70b5213754e2e703910160405180910390a2505060016000555050505050565b600154600160a060020a0316331461309f5760405160e560020a62461bcd02815260206004820181905260248201527f4f776e61626c653a2063616c6c6572206973206e6f7420746865206f776e657260448201526064016108f6565b600160a060020a0383166130f85760405160e560020a62461bcd02815260206004820152601660248201527f43616e6e6f74206265207a65726f20616464726573730000000000000000000060448201526064016108f6565b600160a060020a0382166131515760405160e560020a62461bcd02815260206004820152601660248201527f43616e6e6f74206265207a65726f20616464726573730000000000000000000060448201526064016108f6565b600160a060020a0381166131aa5760405160e560020a62461bcd02815260206004820152601660248201527f43616e6e6f74206265207a65726f20616464726573730000000000000000000060448201526064016108f6565b60038054600160a060020a0385811673ffffffffffffffffffffffffffffffffffffffff19928316811790935560048054868316908416811790915560028054928616929093168217909255604080519384526020840192909252908201527f3e945b7660001d46cfd5e729545f7f0b6c65bdee54066a91c7acad703f1b731e9060600160405180910390a1505050565b600154600160a060020a031633146132985760405160e560020a62461bcd02815260206004820181905260248201527f4f776e61626c653a2063616c6c6572206973206e6f7420746865206f776e657260448201526064016108f6565b808211156132eb5760405160e560020a62461bcd02815260206004820152601b60248201527f6d696e5072696365206d757374206265203c206d61785072696365000000000060448201526064016108f6565b600a91909155600955565b333b156133485760405160e560020a62461bcd02815260206004820152601460248201527f436f6e7472616374206e6f7420616c6c6f77656400000000000000000000000060448201526064016108f6565b33321461339a5760405160e560020a62461bcd02815260206004820152601a60248201527f50726f787920636f6e7472616374206e6f7420616c6c6f77656400000000000060448201526064016108f6565b600260005414156133f05760405160e560020a62461bcd02815260206004820152601f60248201527f5265656e7472616e637947756172643a207265656e7472616e742063616c6c0060448201526064016108f6565b6002600055806134455760405160e560020a62461bcd02815260206004820152601b60248201527f6e6f207469636b65747320617265206265696e6720626f75676874000000000060448201526064016108f6565b6007548111156134c05760405160e560020a62461bcd02815260206004820152602d60248201527f746f6f206d616e79207469636b65747320617265206265696e6720626f75676860448201527f74206174206f6e652074696d650000000000000000000000000000000000000060648201526084016108f6565b600160055460009081526010602052604090205460ff1660038111156134e8576134e8614ff6565b1461355e5760405160e560020a62461bcd02815260206004820152602260248201527f736f7272792c2063757272656e74206c6f7474657279206973206e6f74206f7060448201527f656e00000000000000000000000000000000000000000000000000000000000060648201526084016108f6565b60055460009081526010602052604090206002015442106135c45760405160e560020a62461bcd02815260206004820152601e60248201527f736f7272792c2063757272656e74206c6f7474657279206973206f766572000060448201526064016108f6565b6005546000908152601060205260408120600301546135e39083614467565b600c549091506135fe90600160a060020a0316333084614357565b60005b8281101561390957600084848381811061361d5761361d615025565b90506020020160208101906136329190614a6f565b905061271063ffffffff8216108015906136545750614e1f63ffffffff821611155b6136c95760405160e560020a62461bcd02815260206004820152602260248201527f7469636b6574206e756d626572206973206f757473696465207468652072616e60448201527f676500000000000000000000000000000000000000000000000000000000000060648201526084016108f6565b601360006136d8600a84614f75565b6136e3906001614d2c565b63ffffffff1681526020810191909152604001600090812080549161370783614f36565b9091555060139050600061371c606484614f75565b61372790600b614d2c565b63ffffffff1681526020810191909152604001600090812080549161374b83614f36565b909155506013905060006137616103e884614f75565b61376c90606f614d2c565b63ffffffff1681526020810191909152604001600090812080549161379083614f36565b909155506013905060006137a661271084614f75565b6137b290610457614d2c565b63ffffffff168152602081019190915260400160009081208054916137d683614f36565b9091555050336000818152601460209081526040808320600680548254600181810185559387528587200155825160c08101845263ffffffff808916825281860197885260058054838701818152606085018a8152608086018b8152928b5260108a52888b2060039081015460a0880190815288548d5260118c528a8d20975188549e51600160a060020a0316640100000000027fffffffffffffffff000000000000000000000000000000000000000000000000909f169716969096179c909c178655905196850196909655945160028401805491151560ff199283161790559451988301989098555160049091015580548552600f84528285209554855294909252822080549091169055815491906138f083614f36565b919050555050808061390190614f36565b915050613601565b5060055460405183815233907fd7d247b583de1023852eef87b48f54354dbec771d01bc2cc49e96094efc322b990602001611ed8565b333b156139915760405160e560020a62461bcd02815260206004820152601460248201527f436f6e7472616374206e6f7420616c6c6f77656400000000000000000000000060448201526064016108f6565b3332146139e35760405160e560020a62461bcd02815260206004820152601a60248201527f50726f787920636f6e7472616374206e6f7420616c6c6f77656400000000000060448201526064016108f6565b60026000541415613a395760405160e560020a62461bcd02815260206004820152601f60248201527f5265656e7472616e637947756172643a207265656e7472616e742063616c6c0060448201526064016108f6565b6002600055600360008481526010602052604090205460ff166003811115613a6357613a63614ff6565b14613ad95760405160e560020a62461bcd02815260206004820152603060248201527f7468697320726f756e64206f66206c6f747465727920617265206e6f7420726560448201527f61647920666f7220636c61696d696e670000000000000000000000000000000060648201526084016108f6565b80613b295760405160e560020a62461bcd02815260206004820152601260248201527f6e6f207469636b657449647320676976656e000000000000000000000000000060448201526064016108f6565b600754811115613ba45760405160e560020a62461bcd02815260206004820152602560248201527f746f6f206d616e79207469636b65747320746f20636c61696d206174206f6e6560448201527f2074696d6500000000000000000000000000000000000000000000000000000060648201526084016108f6565b6000805b82811015613e5f576000848483818110613bc457613bc4615025565b6020908102929092013560008181526011909352604090922054919250506401000000009004600160a060020a03163314613c695760405160e560020a62461bcd028152602060048201526024808201527f796f7520617265206e6f7420746865206f776e6572206f66207468697320746960448201527f636b65740000000000000000000000000000000000000000000000000000000060648201526084016108f6565b600081815260116020526040902060010154861015613ccd5760405160e560020a62461bcd02815260206004820152601560248201527f7469636b6574496420697320746f6f206c61726765000000000000000000000060448201526064016108f6565b60008181526011602052604090206002015460ff16151560011415613d4f576000818152601160205260409020600301548610613d4f5760405160e560020a62461bcd02815260206004820152601560248201527f7469636b65744964207761732072656465656d6564000000000000000000000060448201526064016108f6565b6000818152600f6020908152604080832089845290915290205460ff1615613dbc5760405160e560020a62461bcd02815260206004820152600e60248201527f7072697a6520726563656976656400000000000000000000000000000000000060448201526064016108f6565b6000613dc88783614080565b905080613e1a5760405160e560020a62461bcd02815260206004820152601960248201527f6e6f207072697a6520666f72207468697320627261636b65740000000000000060448201526064016108f6565b6000828152600f602090815260408083208a84529091529020805460ff19166001179055613e488185614d14565b935050508080613e5790614f36565b915050613ba8565b50600d54613e7790600160a060020a031633836142a9565b60008481526010602052604081206012018054839290613e98908490614eb7565b9091555050604051818152849033907f0fdeb33b5931b477077383757e0ba077bd3d8eddfa2cc711c54ad2d3a0cfac659060200160405180910390a3505060016000555050565b600154600160a060020a03163314613f3c5760405160e560020a62461bcd02815260206004820181905260248201527f4f776e61626c653a2063616c6c6572206973206e6f7420746865206f776e657260448201526064016108f6565b600160a060020a038116613fbb5760405160e560020a62461bcd02815260206004820152602660248201527f4f776e61626c653a206e6577206f776e657220697320746865207a65726f206160448201527f646472657373000000000000000000000000000000000000000000000000000060648201526084016108f6565b600154604051600160a060020a038084169216907f8be0079c531659141344cd1fd0a4f28419497f9722a3daafe3b4186f6b6457e090600090a36001805473ffffffffffffffffffffffffffffffffffffffff1916600160a060020a0392909216919091179055565b6000816140765760405160e560020a62461bcd02815260206004820152601d60248201527f6e756d626572206f66207469636b657473206d757374206265203e203000000060448201526064016108f6565b610a7f8383614467565b6000818152601160205260408120600101548310156140a157506000610a82565b60008281526011602052604090206002015460ff161515600114156140e05760008281526011602052604090206003015483106140e057506000610a82565b6000828152600f6020908152604080832086845290915290205460ff1615156001141561410f57506000610a82565b60008281526011602090815260408083205486845260109092529091206013015463ffffffff9182169116600560015b60048163ffffffff16116141a95761415881600a614daf565b6141629085614f75565b63ffffffff1661417382600a614daf565b61417d9085614f75565b63ffffffff16141561419757614194600182614ece565b91505b806141a181614f51565b91505061413f565b508063ffffffff16600514156141c55760009350505050610a82565b60006141d2826001614d2c565b6141dd90600a614daf565b6141e79084614f75565b63ffffffff808416600090815260126020526040902054614209929116614d2c565b90506000614218836001614d2c565b61422390600a614daf565b61422d9086614f75565b63ffffffff80851660009081526012602052604090205461424f929116614d2c565b90508063ffffffff168263ffffffff16141561429b57600088815260106020526040902060090163ffffffff84166004811061428d5761428d615025565b015495505050505050610a82565b600095505050505050610a82565b604051600160a060020a0383166024820152604481018290526143529084907fa9059cbb00000000000000000000000000000000000000000000000000000000906064015b60408051601f198184030181529190526020810180517bffffffffffffffffffffffffffffffffffffffffffffffffffffffff167fffffffff0000000000000000000000000000000000000000000000000000000090931692909217909152614473565b505050565b604051600160a060020a03808516602483015283166044820152606481018290526143a89085907f23b872dd00000000000000000000000000000000000000000000000000000000906084016142ee565b50505050565b600080805b6005548110156143ed576000818152601060205260409020601201546143d99083614d14565b9150806143e581614f36565b9150506143b3565b50600360055460009081526010602052604090205460ff16600381111561441657614416614ff6565b141561444857600b5460055460009081526010602052604090206012015461443e9190614d14565b610a829082614d14565b600554600090815260106020526040902060110154610a829082614d14565b6000610a7f8284614e98565b60006144c8826040518060400160405280602081526020017f5361666545524332303a206c6f772d6c6576656c2063616c6c206661696c656481525085600160a060020a031661455b9092919063ffffffff16565b80519091501561435257808060200190518101906144e6919061493d565b6143525760405160e560020a62461bcd02815260206004820152602a60248201527f5361666545524332303a204552433230206f7065726174696f6e20646964206e60448201527f6f7420737563636565640000000000000000000000000000000000000000000060648201526084016108f6565b606061456a8484600085614574565b90505b9392505050565b606030318311156145f05760405160e560020a62461bcd02815260206004820152602660248201527f416464726573733a20696e73756666696369656e742062616c616e636520666f60448201527f722063616c6c000000000000000000000000000000000000000000000000000060648201526084016108f6565b843b6146415760405160e560020a62461bcd02815260206004820152601d60248201527f416464726573733a2063616c6c20746f206e6f6e2d636f6e747261637400000060448201526064016108f6565b60008086600160a060020a0316858760405161465d9190614b7a565b60006040518083038185875af1925050503d806000811461469a576040519150601f19603f3d011682016040523d82523d6000602084013e61469f565b606091505b50915091506146af8282866146ba565b979650505050505050565b606083156146c957508161456d565b8251156146d95782518084602001fd5b8160405160e560020a62461bcd0281526004016108f69190614c38565b60408051610160810190915280600081526020016000815260200160008152602001600081526020016147276147a7565b81526020016000815260200161473b6147a7565b81526020016147486147a7565b81526020016000815260200160008152602001600063ffffffff1681525090565b8260048101928215614797579160200282015b8281111561479757825182559160200191906001019061477c565b506147a39291506147c5565b5090565b60405180608001604052806004906020820280368337509192915050565b5b808211156147a357600081556001016147c6565b8035600160a060020a03811681146147f157600080fd5b919050565b60008083601f84011261480857600080fd5b50813567ffffffffffffffff81111561482057600080fd5b60208301915083602080830285010111156118ce57600080fd5b60006020828403121561484c57600080fd5b610a7f826147da565b60008060006060848603121561486a57600080fd5b614873846147da565b9250614881602085016147da565b915061488f604085016147da565b90509250925092565b600080604083850312156148ab57600080fd5b6148b4836147da565b946020939093013593505050565b600080600080608085870312156148d857600080fd5b6148e1856147da565b966020860135965060408601359560600135945092505050565b6000806020838503121561490e57600080fd5b823567ffffffffffffffff81111561492557600080fd5b614931858286016147f6565b90969095509350505050565b60006020828403121561494f57600080fd5b815161456d81615083565b60006020828403121561496c57600080fd5b5035919050565b60006020828403121561498557600080fd5b5051919050565b6000806000604084860312156149a157600080fd5b83359250602084013567ffffffffffffffff8111156149bf57600080fd5b6149cb868287016147f6565b9497909650939450505050565b600080604083850312156149eb57600080fd5b8235915060208301356149fd81615083565b809150509250929050565b60008060408385031215614a1b57600080fd5b50508035926020909101359150565b60008060008060e08587031215614a4057600080fd5b843593506020850135925060c0850186811115614a5c57600080fd5b9396929550505060409290920191903590565b600060208284031215614a8157600080fd5b813561456d81615094565b600060208284031215614a9e57600080fd5b815161456d81615094565b600081518084526020808501945080840160005b83811015614adb578151151587529582019590820190600101614abd565b509495945050505050565b8060005b60048110156143a8578151845260209384019390910190600101614aea565b600081518084526020808501945080840160005b83811015614adb57815163ffffffff1687529582019590820190600101614b1d565b60048110614b76577f4e487b7100000000000000000000000000000000000000000000000000000000600052602160045260246000fd5b9052565b60008251614b8c818460208701614ef3565b9190910192915050565b6080808252855190820181905260009060209060a0840190828901845b82811015614bcf57815184529284019290840190600101614bb3565b50505083810382850152614be38188614b09565b9150508281036040840152614bf88186614aa9565b91505082606083015295945050505050565b604081526000614c1d6040830185614b09565b8281036020840152614c2f8185614aa9565b95945050505050565b6020815260008251806020840152614c57816040850160208701614ef3565b601f01601f19169190910160400192915050565b600061028082019050614c7f828451614b3f565b6020830151602083015260408301516040830152606083015160608301526080830151614caf6080840182614ae6565b5060a0830151610100818185015260c08501519150610120614cd381860184614ae6565b60e08601519250614ce86101a0860184614ae6565b908501516102208501528401516102408401525061014083015163ffffffff8116610260840152611693565b60008219821115614d2757614d27614f98565b500190565b600063ffffffff808316818516808303821115614d4b57614d4b614f98565b01949350505050565b600082614d6357614d63614fc7565b500490565b600181815b80851115614da7578163ffffffff04821115614d8b57614d8b614f98565b80851615614d9857918102915b60029094049390800290614d6d565b509250929050565b600063ffffffff614dc4818516828516614dcc565b949350505050565b600082614ddb57506001610a82565b81614de857506000610a82565b8160018114614dfe5760028114614e0857614e39565b6001915050610a82565b60ff841115614e1957614e19614f98565b8360020a915063ffffffff821115614e3357614e33614f98565b50610a82565b5060208310610133831016604e8410600b8410161715614e70575081810a63ffffffff811115614e6b57614e6b614f98565b610a82565b614e7a8383614d68565b8063ffffffff04821115614e9057614e90614f98565b029392505050565b6000816000190483118215151615614eb257614eb2614f98565b500290565b600082821015614ec957614ec9614f98565b500390565b600063ffffffff83811690831681811015614eeb57614eeb614f98565b039392505050565b60005b83811015614f0e578181015183820152602001614ef6565b838111156143a85750506000910152565b600081614f2e57614f2e614f98565b506000190190565b6000600019821415614f4a57614f4a614f98565b5060010190565b600063ffffffff80831681811415614f6b57614f6b614f98565b6001019392505050565b600063ffffffff80841680614f8c57614f8c614fc7565b92169190910692915050565b7f4e487b7100000000000000000000000000000000000000000000000000000000600052601160045260246000fd5b7f4e487b7100000000000000000000000000000000000000000000000000000000600052601260045260246000fd5b7f4e487b7100000000000000000000000000000000000000000000000000000000600052602160045260246000fd5b7f4e487b7100000000000000000000000000000000000000000000000000000000600052603260045260246000fd5b7f4e487b7100000000000000000000000000000000000000000000000000000000600052604160045260246000fd5b801515811461509157600080fd5b50565b63ffffffff8116811461509157600080fdfea2646970667358221220fb76cf668d9f9a6e678212a4bdc045ccf27b49759763ce08d3d741049f86607864736f6c63430008050033",
  "immutableReferences": {},
  "source": "// SPDX-License-Identifier: MIT\r\npragma solidity ^0.8.0;\r\npragma abicoder v2;\r\n\r\nimport \"@openzeppelin/contracts/access/Ownable.sol\";\r\nimport \"@openzeppelin/contracts/security/ReentrancyGuard.sol\";\r\nimport \"@openzeppelin/contracts/token/ERC20/IERC20.sol\";\r\nimport \"@openzeppelin/contracts/utils/Address.sol\";\r\nimport \"@openzeppelin/contracts/token/ERC20/utils/SafeERC20.sol\";\r\nimport \"./interfaces/IDegisLottery.sol\";\r\nimport \"./interfaces/IRandomNumberGenerator.sol\";\r\n\r\ncontract DegisLottery is ReentrancyGuard, IDegisLottery, Ownable {\r\n    using SafeERC20 for IERC20;\r\n\r\n    address public injectorAddress;\r\n    address public operatorAddress;\r\n    address public treasuryAddress; // Currently no treasury fee\r\n\r\n    uint256 public currentLotteryId; // Total Rounds\r\n    uint256 public currentTicketId; // Total Tickets\r\n\r\n    uint256 public maxNumberTicketsPerBuyOrClaim = 10;\r\n    uint256 public maxNumberTicketsPerRedeem = 10;\r\n\r\n    uint256 public maxPriceTicketInDegis = 50 ether;\r\n    uint256 public minPriceTicketInDegis = 0.005 ether;\r\n\r\n    uint256 public pendingInjectionNextLottery;\r\n\r\n    uint256 public constant MIN_LENGTH_LOTTERY = 1 hours - 5 minutes; // 1 hours\r\n    uint256 public constant MAX_LENGTH_LOTTERY = 365 days + 5 minutes; // 365 days\r\n    uint256 public constant MAX_TREASURY_FEE = 3000; // 30%\r\n    uint32 public constant MIN_TICKET_NUMBER = 10000;\r\n    uint32 public constant MAX_TICKET_NUMBER = 19999;\r\n\r\n    IERC20 public DegisToken;\r\n    IERC20 public USDCToken;\r\n    IRandomNumberGenerator public randomGenerator;\r\n\r\n    enum Status {\r\n        Pending,\r\n        Open,\r\n        Close,\r\n        Claimable\r\n    }\r\n\r\n    struct Lottery {\r\n        Status status;\r\n        uint256 startTime;\r\n        uint256 endTime;\r\n        uint256 priceTicketInDegis; // 10\r\n        uint256[4] rewardsBreakdown; // 0: 1 matching number // 3: 4 matching numbers\r\n        uint256 treasuryFee; // 500: 5% // 200: 2% // 50: 0.5%\r\n        uint256[4] rewardPerTicketInBracket;\r\n        uint256[4] countWinnersPerBracket;\r\n        uint256 amountCollected;\r\n        uint256 pendingAwards;\r\n        uint32 finalNumber;\r\n    }\r\n\r\n    struct Ticket {\r\n        uint32 number;\r\n        address owner;\r\n        uint256 buyLotteryId;\r\n        bool isRedeemed;\r\n        uint256 redeemLotteryId;\r\n        uint256 priceTicket;\r\n    }\r\n\r\n    // ticketId => (LotteryId => Whether claimed)\r\n    mapping(uint256 => mapping(uint256 => bool)) private _ticketsClaimed;\r\n\r\n    // lotteryId => Lottery Info\r\n    mapping(uint256 => Lottery) private _lotteries;\r\n\r\n    // ticketId => Ticket Info\r\n    mapping(uint256 => Ticket) private _tickets;\r\n\r\n    // Bracket calculator is used for verifying claims for ticket prizes\r\n    mapping(uint32 => uint32) private _bracketCalculator;\r\n\r\n    // lotteryId => (Lucky Number => Total Amount of this number)\r\n    // e.g. in lottery round 3, 10 Tickets are sold with \"1234\": 3 => (1234 => 10)\r\n     mapping(uint32 => uint256)\r\n        private _numberTicketsPerLotteryId;\r\n\r\n    // Keep track of user ticket ids for a given lotteryId\r\n\r\n    // userAddress => all tickets he bought in this round\r\n    mapping(address => uint256[])\r\n        private _userTicketIds;\r\n\r\n\r\n    // only user address\r\n    modifier notContract() {\r\n        require(!_isContract(msg.sender), \"Contract not allowed\");\r\n        require(msg.sender == tx.origin, \"Proxy contract not allowed\");\r\n        _;\r\n    }\r\n\r\n    modifier onlyOperator() {\r\n        require(msg.sender == operatorAddress, \"Not operator\");\r\n        _;\r\n    }\r\n\r\n    modifier onlyOwnerOrInjector() {\r\n        require(\r\n            (msg.sender == owner()) || (msg.sender == injectorAddress),\r\n            \"Not owner or injector\"\r\n        );\r\n        _;\r\n    }\r\n\r\n    event AdminTokenRecovery(address token, uint256 amount);\r\n    event LotteryClose(\r\n        uint256 indexed lotteryId\r\n    );\r\n    event LotteryInjection(uint256 indexed lotteryId, uint256 injectedAmount);\r\n    event LotteryOpen(\r\n        uint256 indexed lotteryId,\r\n        uint256 startTime,\r\n        uint256 endTime,\r\n        uint256 priceTicketInDegis,\r\n        uint256 injectedAmount\r\n    );\r\n    event LotteryNumberDrawn(\r\n        uint256 indexed lotteryId,\r\n        uint256 finalNumber,\r\n        uint256 countWinningTickets\r\n    );\r\n    event NewOperatorAndTreasuryAndInjectorAddresses(\r\n        address operator,\r\n        address treasury,\r\n        address injector\r\n    );\r\n    event NewRandomGenerator(address indexed randomGenerator);\r\n    event TicketsPurchase(\r\n        address indexed buyer,\r\n        uint256 indexed lotteryId,\r\n        uint256 numberTickets\r\n    );\r\n    event TicketsRedeem(\r\n        address indexed redeemer,\r\n        uint256 indexed lotteryId,\r\n        uint256 numberTickets\r\n    );\r\n    event TicketsClaim(\r\n        address indexed claimer,\r\n        uint256 amount,\r\n        uint256 indexed lotteryId\r\n    );\r\n\r\n    /**\r\n     * @notice Constructor\r\n     * @dev RandomNumberGenerator must be deployed prior to this contract\r\n     * @param _degisTokenAddress: address of the DEGIS token (for buying tickets)\r\n     * @param _usdcTokenAddress: address of the USDC token (for prize distribution)\r\n     * @param _randomGeneratorAddress: address of the RandomGenerator contract used to work with ChainLink VRF\r\n     */\r\n    constructor(\r\n        address _degisTokenAddress,\r\n        address _usdcTokenAddress,\r\n        address _randomGeneratorAddress\r\n    ) {\r\n        DegisToken = IERC20(_degisTokenAddress);\r\n        USDCToken = IERC20(_usdcTokenAddress);\r\n        randomGenerator = IRandomNumberGenerator(_randomGeneratorAddress);\r\n\r\n        // Initializes the bracketCalculator, constant numbers\r\n        _bracketCalculator[0] = 1;\r\n        _bracketCalculator[1] = 11;\r\n        _bracketCalculator[2] = 111;\r\n        _bracketCalculator[3] = 1111;\r\n    }\r\n\r\n    /**\r\n     * @notice Buy tickets for the current lottery round\r\n     * @param _ticketNumbers: array of ticket numbers between 10,000 and 19,999\r\n     * @dev Callable by users\r\n     */\r\n    function buyTickets(uint32[] calldata _ticketNumbers)\r\n        external\r\n        override\r\n        notContract\r\n        nonReentrant\r\n    {\r\n        require(_ticketNumbers.length != 0, \"no tickets are being bought\");\r\n        require(\r\n            _ticketNumbers.length <= maxNumberTicketsPerBuyOrClaim,\r\n            \"too many tickets are being bought at one time\"\r\n        );\r\n        require(\r\n            _lotteries[currentLotteryId].status == Status.Open,\r\n            \"sorry, current lottery is not open\"\r\n        );\r\n        require(\r\n            block.timestamp < _lotteries[currentLotteryId].endTime,\r\n            \"sorry, current lottery is over\"\r\n        );\r\n\r\n        // Calculate number of Degis that the user need to pay\r\n        uint256 amountDegisToTransfer = _calculateTotalPriceForBulkTickets(\r\n            _lotteries[currentLotteryId].priceTicketInDegis,\r\n            _ticketNumbers.length\r\n        );\r\n\r\n        // Transfer degis tokens to this contract (need approval)\r\n        DegisToken.safeTransferFrom(\r\n            address(msg.sender),\r\n            address(this),\r\n            amountDegisToTransfer\r\n        );\r\n\r\n        for(uint256 i = 0; i < _ticketNumbers.length; i++) {\r\n            uint32 currentTicketNumber = _ticketNumbers[i];\r\n\r\n            require(\r\n                (currentTicketNumber >= MIN_TICKET_NUMBER) && (currentTicketNumber <= MAX_TICKET_NUMBER),\r\n                \"ticket number is outside the range\"\r\n            );\r\n\r\n            // used when drawing the prize \r\n            _numberTicketsPerLotteryId[\r\n                1 + (currentTicketNumber % 10)\r\n            ]++;\r\n            _numberTicketsPerLotteryId[\r\n                11 + (currentTicketNumber % 100)\r\n            ]++;\r\n            _numberTicketsPerLotteryId[\r\n                111 + (currentTicketNumber % 1000)\r\n            ]++;\r\n            _numberTicketsPerLotteryId[\r\n                1111 + (currentTicketNumber % 10000)\r\n            ]++;\r\n\r\n            // Store this ticket number to the user's record\r\n            _userTicketIds[msg.sender].push(\r\n                currentTicketId\r\n            );\r\n\r\n            // Store this ticket number to global ticket state\r\n            _tickets[currentTicketId] = Ticket({\r\n                number: currentTicketNumber,\r\n                owner: msg.sender,\r\n                buyLotteryId: currentLotteryId,\r\n                isRedeemed: false,\r\n                redeemLotteryId: 0,\r\n                priceTicket: _lotteries[currentLotteryId].priceTicketInDegis\r\n            });\r\n            _ticketsClaimed[currentTicketId][currentLotteryId] = false;\r\n\r\n            // Increase total lottery ticket number\r\n            currentTicketId++;\r\n        }\r\n\r\n        emit TicketsPurchase(msg.sender, currentLotteryId, _ticketNumbers.length);\r\n    }\r\n\r\n    /**\r\n     * @notice Redeem tickets for all lottery\r\n     * @param _ticketIds: array of ticket ids\r\n     * @dev Callable by users\r\n     */\r\n    function redeemTickets(uint256[] calldata _ticketIds)\r\n        external\r\n        override\r\n        notContract\r\n        nonReentrant\r\n    {\r\n        require(_ticketIds.length != 0, \"no tickets are being bought\");\r\n        require(\r\n            _ticketIds.length <= maxNumberTicketsPerRedeem,\r\n            \"too many tickets are being remeeded at one time\"\r\n        );\r\n        require(\r\n            _lotteries[currentLotteryId].status == Status.Open,\r\n            \"sorry, current lottery is not open\"\r\n        );\r\n        require(\r\n            block.timestamp < _lotteries[currentLotteryId].endTime,\r\n            \"sorry, current lottery is over\"\r\n        );\r\n\r\n        uint256 amountDegisToTransfer = 0;\r\n        for (uint256 i = 0; i < _ticketIds.length; i++)\r\n        {\r\n            uint256 thisTicketId = _ticketIds[i];\r\n            require(\r\n                currentTicketId > thisTicketId,\r\n                \"ticketId is too large\"\r\n            );\r\n            require(\r\n                msg.sender == _tickets[thisTicketId].owner,\r\n                \"you are not the owner of this ticket\"\r\n            );\r\n            require( \r\n                _tickets[thisTicketId].isRedeemed == false,\r\n                \"ticket has been redeemed\"\r\n            );\r\n\r\n            _tickets[thisTicketId].isRedeemed = true;\r\n            _tickets[thisTicketId].redeemLotteryId = currentLotteryId;\r\n            amountDegisToTransfer += _tickets[thisTicketId].priceTicket;\r\n\r\n            uint32 currentTicketNumber = _tickets[thisTicketId].number;\r\n            // used when drawing the prize \r\n            _numberTicketsPerLotteryId[\r\n                1 + (currentTicketNumber % 10)\r\n            ]--;\r\n            _numberTicketsPerLotteryId[\r\n                11 + (currentTicketNumber % 100)\r\n            ]--;\r\n            _numberTicketsPerLotteryId[\r\n                111 + (currentTicketNumber % 1000)\r\n            ]--;\r\n            _numberTicketsPerLotteryId[\r\n                1111 + (currentTicketNumber % 10000)\r\n            ]--;\r\n        }\r\n\r\n        DegisToken.safeTransfer(\r\n            address(msg.sender),\r\n            amountDegisToTransfer\r\n        );\r\n\r\n        emit TicketsRedeem(msg.sender, currentLotteryId, _ticketIds.length);\r\n    }\r\n\r\n    /**\r\n     * @notice Claim a set of winning tickets for a lottery\r\n     * @param _lotteryId: lottery id\r\n     * @dev Callable by users only, not contract!\r\n     */\r\n    function claimTickets(\r\n        uint256 _lotteryId,\r\n        uint256[] calldata _ticketIds\r\n    ) external override notContract nonReentrant {\r\n        require(\r\n            _lotteries[_lotteryId].status == Status.Claimable,\r\n            \"this round of lottery are not ready for claiming\"\r\n        );\r\n        require(_ticketIds.length != 0, \"no ticketIds given\");\r\n        require(\r\n            _ticketIds.length <= maxNumberTicketsPerBuyOrClaim,\r\n            \"too many tickets to claim at one time\"\r\n        );\r\n\r\n        uint256 rewardToTransfer;\r\n\r\n        for (uint256 i = 0; i < _ticketIds.length; i++) {\r\n            uint256 thisTicketId = _ticketIds[i];\r\n\r\n            require(\r\n                msg.sender == _tickets[thisTicketId].owner,\r\n                \"you are not the owner of this ticket\"\r\n            );\r\n            require(\r\n                _tickets[thisTicketId].buyLotteryId <= _lotteryId,\r\n                \"ticketId is too large\"\r\n            );\r\n\r\n            if(_tickets[thisTicketId].isRedeemed == true)\r\n            {\r\n                require(\r\n                    _tickets[thisTicketId].redeemLotteryId > _lotteryId,\r\n                    \"ticketId was redeemed\"\r\n                );\r\n            }\r\n\r\n            require(\r\n                _ticketsClaimed[thisTicketId][_lotteryId] == false,\r\n                \"prize received\"\r\n            );\r\n            \r\n            uint256 rewardForTicketId = _calculateRewardsForTicketId(\r\n                _lotteryId,\r\n                thisTicketId\r\n            );\r\n\r\n            require(rewardForTicketId != 0, \"no prize for this bracket\");\r\n\r\n            _ticketsClaimed[thisTicketId][_lotteryId] = true;\r\n\r\n            // Increase the reward to transfer\r\n            rewardToTransfer += rewardForTicketId;\r\n        }\r\n\r\n        // Transfer the prize to winner\r\n        USDCToken.safeTransfer(msg.sender, rewardToTransfer);\r\n        _lotteries[_lotteryId].pendingAwards -= rewardToTransfer;\r\n\r\n        emit TicketsClaim(\r\n            msg.sender,\r\n            rewardToTransfer,\r\n            _lotteryId\r\n        );\r\n    }\r\n\r\n    /**\r\n     * @notice Claim all winning tickets for a lottery\r\n     * @param _lotteryId: lottery id\r\n     * @dev Callable by users only, not contract!\r\n     */\r\n    function claimAllTickets(\r\n        uint256 _lotteryId\r\n    ) external override notContract nonReentrant {\r\n        require(\r\n            _lotteries[_lotteryId].status == Status.Claimable,\r\n            \"this round of lottery are not ready for claiming\"\r\n        );\r\n\r\n        uint256 rewardToTransfer;\r\n\r\n        for (uint256 i = 0; i < _userTicketIds[msg.sender].length; i++) {\r\n            uint256 thisTicketId = _userTicketIds[msg.sender][i];\r\n\r\n            require(\r\n                msg.sender == _tickets[thisTicketId].owner,\r\n                \"you are not the owner of this ticket\"\r\n            );\r\n\r\n            if(_tickets[thisTicketId].buyLotteryId > _lotteryId){\r\n                continue;\r\n            }\r\n            \r\n            if(_tickets[thisTicketId].isRedeemed == true)\r\n            {\r\n                if(_tickets[thisTicketId].redeemLotteryId <= _lotteryId){\r\n                    continue;\r\n                }\r\n            }\r\n\r\n            if(_ticketsClaimed[thisTicketId][_lotteryId] == true){\r\n                continue;\r\n            }\r\n            \r\n            uint256 rewardForTicketId = _calculateRewardsForTicketId(\r\n                _lotteryId,\r\n                thisTicketId\r\n            );\r\n\r\n            if(rewardForTicketId == 0){\r\n                continue;\r\n            }\r\n\r\n            _ticketsClaimed[thisTicketId][_lotteryId] = true;\r\n\r\n            // Increase the reward to transfer\r\n            rewardToTransfer += rewardForTicketId;\r\n        }\r\n\r\n        require(rewardToTransfer != 0, \"no prize\");\r\n\r\n        // Transfer the prize to winner\r\n        USDCToken.safeTransfer(msg.sender, rewardToTransfer);\r\n        _lotteries[_lotteryId].pendingAwards -= rewardToTransfer;\r\n\r\n        emit TicketsClaim(\r\n            msg.sender,\r\n            rewardToTransfer,\r\n            _lotteryId\r\n        );\r\n    }\r\n\r\n    /**\r\n     * @notice Close a lottery\r\n     * @param _lotteryId: lottery round\r\n     * @dev Callable only by the operator\r\n     */\r\n    function closeLottery(uint256 _lotteryId)\r\n        external\r\n        override\r\n        onlyOperator\r\n        nonReentrant\r\n    {\r\n        require(\r\n            _lotteries[_lotteryId].status == Status.Open,\r\n            \"this lottery is not open currently\"\r\n        );\r\n\r\n        require(\r\n            block.timestamp > _lotteries[_lotteryId].endTime,\r\n            \"this lottery has not reached the end time, only can be closed after the end time\"\r\n        );\r\n\r\n        // Request a random number from the generator\r\n        randomGenerator.getRandomNumber();\r\n\r\n        // Update the lottery status to \"Close\"\r\n        _lotteries[_lotteryId].status = Status.Close;\r\n\r\n        emit LotteryClose(_lotteryId);\r\n    }\r\n\r\n    /**\r\n     * @notice Draw the final number, calculate reward in Degis for each group, \r\n               and make this lottery claimable (need to wait for the random generator)\r\n     * @param _lotteryId: lottery round\r\n     * @param _autoInjection: reinjects funds into next lottery \r\n     * @dev Callable only by the operator\r\n     */\r\n    function drawFinalNumberAndMakeLotteryClaimable(\r\n        uint256 _lotteryId,\r\n        bool _autoInjection\r\n    ) external override onlyOperator nonReentrant {\r\n        require(\r\n            _lotteries[_lotteryId].status == Status.Close,\r\n            \"this lottery has not closed, you should first close it\"\r\n        );\r\n        require(\r\n            _lotteryId == randomGenerator.viewLatestLotteryId(),\r\n            \"the final lucky numbers have not been drawn\"\r\n        );\r\n\r\n        // Get the final lucky numbers from randomGenerator\r\n        uint32 finalNumber = randomGenerator.viewRandomResult();\r\n\r\n        // Initialize a number to count addresses in all the previous bracket\r\n        // Ensure that a ticket is not counted several times in different brackets\r\n        uint256 numberAddressesInPreviousBracket;\r\n\r\n        // Calculate the prize amount given to winners\r\n        // Currently treasuryFee = 0 => amountToWinners = amountCollected\r\n        uint256 amountToWinners = (\r\n            ((_lotteries[_lotteryId].amountCollected) *\r\n                (10000 - _lotteries[_lotteryId].treasuryFee))\r\n        ) / 10000;\r\n\r\n        // Initializes the amount to treasury (currently 0)\r\n        uint256 amountToTreasury;\r\n\r\n        // Calculate prizes for each bracket, starting from the highest one\r\n        for (uint32 i = 0; i < 4; i++) {\r\n            uint32 j = 3 - i;\r\n            uint32 transformedWinningNumber = _bracketCalculator[j] +\r\n                (finalNumber % (uint32(10)**(j + 1)));\r\n\r\n            _lotteries[_lotteryId].countWinnersPerBracket[j] =\r\n                _numberTicketsPerLotteryId[\r\n                    transformedWinningNumber\r\n                ] -\r\n                numberAddressesInPreviousBracket;\r\n\r\n            // If there are winners for this _bracket\r\n            if (\r\n                (_numberTicketsPerLotteryId[\r\n                    transformedWinningNumber\r\n                ] - numberAddressesInPreviousBracket) != 0\r\n            ) {\r\n                // B. If rewards at this bracket are > 0, calculate, else, report the numberAddresses from previous bracket\r\n                if (_lotteries[_lotteryId].rewardsBreakdown[j] != 0) {\r\n                    _lotteries[_lotteryId].rewardPerTicketInBracket[j] =\r\n                        ((_lotteries[_lotteryId].rewardsBreakdown[j] *\r\n                            amountToWinners) /\r\n                            (_numberTicketsPerLotteryId[\r\n                                transformedWinningNumber\r\n                            ] - numberAddressesInPreviousBracket)) /\r\n                        10000;\r\n\r\n                    // Update numberAddressesInPreviousBracket\r\n                    numberAddressesInPreviousBracket = _numberTicketsPerLotteryId[transformedWinningNumber];\r\n                }\r\n                // No winners, prize added to the amount to withdraw to treasury\r\n            } else {\r\n                _lotteries[_lotteryId].rewardPerTicketInBracket[j] = 0;\r\n\r\n                amountToTreasury +=\r\n                    (_lotteries[_lotteryId].rewardsBreakdown[j] *\r\n                        amountToWinners) /\r\n                    10000;\r\n            }\r\n        }\r\n\r\n        // Update internal statuses for this lottery round\r\n        _lotteries[_lotteryId].finalNumber = finalNumber;\r\n        _lotteries[_lotteryId].status = Status.Claimable;\r\n        _lotteries[_lotteryId].pendingAwards = amountToWinners - amountToTreasury;\r\n\r\n        // If autoInjection, all unused prize will be rolled to next round\r\n        if (_autoInjection) {\r\n            pendingInjectionNextLottery = amountToTreasury;\r\n            amountToTreasury = 0;\r\n        }\r\n\r\n        // Amount to treasury from the treasuryFee part\r\n        amountToTreasury += (_lotteries[_lotteryId].amountCollected -\r\n            amountToWinners);\r\n\r\n        // Transfer prize to treasury address\r\n        if (amountToTreasury > 0) {\r\n            USDCToken.safeTransfer(treasuryAddress, amountToTreasury);\r\n        }\r\n\r\n        uint256 USDC_Balance = USDCToken.balanceOf(address(this));\r\n        require(_calculateTotalAwards() == USDC_Balance, \"USDC not balance\");\r\n\r\n        emit LotteryNumberDrawn(\r\n            currentLotteryId,\r\n            finalNumber, // final result for this round\r\n            numberAddressesInPreviousBracket // total winners\r\n        );\r\n    }\r\n\r\n    /**\r\n     * @notice Change the random generator contract address\r\n     * @dev The calls to functions are used to verify the new generator implements them properly.\r\n     * It is necessary to wait for the VRF response before starting a round.\r\n     * Callable only by the contract owner\r\n     * @param _randomGeneratorAddress: address of the random generator\r\n     */\r\n    function changeRandomGenerator(address _randomGeneratorAddress)\r\n        external\r\n        onlyOwner\r\n    {\r\n        require(\r\n            _lotteries[currentLotteryId].status == Status.Claimable,\r\n            \"current lottery is not claimable\"\r\n        );\r\n\r\n        // Request a random number from the new generator\r\n        IRandomNumberGenerator(_randomGeneratorAddress).getRandomNumber();\r\n\r\n        // Get the finalNumber based on the randomResult\r\n        IRandomNumberGenerator(_randomGeneratorAddress).viewRandomResult();\r\n\r\n        // Set the new address\r\n        randomGenerator = IRandomNumberGenerator(_randomGeneratorAddress);\r\n\r\n        emit NewRandomGenerator(_randomGeneratorAddress);\r\n    }\r\n\r\n    /**\r\n     * @notice Inject funds\r\n     * @param _lotteryId: lottery round\r\n     * @param _amount: amount to inject \r\n     * @dev Callable by owner(incentive) or injector address(insurancePool income)\r\n            First transfer USDC and then call this function to record\r\n     */\r\n    function injectFunds(uint256 _lotteryId, uint256 _amount)\r\n        external\r\n        override\r\n        onlyOwnerOrInjector\r\n    {\r\n        require(\r\n            _lotteries[_lotteryId].status == Status.Open,\r\n            \"the lottery round is not open, choose the right round\"\r\n        );\r\n\r\n        // Transfer degis tokens to this contract (need approval)\r\n        USDCToken.safeTransferFrom(\r\n            address(msg.sender),\r\n            address(this),\r\n            _amount\r\n        );\r\n\r\n        uint256 USDC_Balance = USDCToken.balanceOf(address(this));\r\n        _lotteries[_lotteryId].amountCollected += _amount;\r\n        require(\r\n            _calculateTotalAwards() == USDC_Balance,\r\n            \"the amount is wrong\"\r\n        );         \r\n\r\n        emit LotteryInjection(_lotteryId, _amount);\r\n    }\r\n\r\n    /**\r\n     * @notice Start the lottery\r\n     * @dev Callable only by operator\r\n     * @param _endTime: endTime of the lottery (timestamp in s)\r\n     * @param _priceTicketInDegis: price of a ticket in DEGIS\r\n     * @param _rewardsBreakdown: breakdown of rewards per bracket (must sum to 10,000)(100 <=> 1)\r\n     * @param _treasuryFee: treasury fee (10,000 = 100%, 100 = 1%) (set as 0)\r\n     */\r\n    function startLottery(\r\n        uint256 _endTime,\r\n        uint256 _priceTicketInDegis,\r\n        uint256[4] calldata _rewardsBreakdown,\r\n        uint256 _treasuryFee\r\n    ) external override onlyOperator {\r\n        require(\r\n            (currentLotteryId == 0) ||\r\n                (_lotteries[currentLotteryId].status == Status.Claimable),\r\n            \"Not time to start lottery\"\r\n        );\r\n\r\n        require(\r\n            ((_endTime - block.timestamp) > MIN_LENGTH_LOTTERY) &&\r\n                ((_endTime - block.timestamp) < MAX_LENGTH_LOTTERY),\r\n            \"the lottery length is outside of range, 4 hours to 7 days\"\r\n        );\r\n\r\n        require(\r\n            (_priceTicketInDegis >= minPriceTicketInDegis) &&\r\n                (_priceTicketInDegis <= maxPriceTicketInDegis),\r\n            \"Outside of limits\"\r\n        );\r\n\r\n        require(_treasuryFee <= MAX_TREASURY_FEE, \"treasury fee is too high\");\r\n\r\n        require(\r\n            (_rewardsBreakdown[0] +\r\n                _rewardsBreakdown[1] +\r\n                _rewardsBreakdown[2] +\r\n                _rewardsBreakdown[3]) == 10000,\r\n            \"total rewards of each bracket must equal 10000\"\r\n        );\r\n\r\n        currentLotteryId++;\r\n\r\n        _lotteries[currentLotteryId] = Lottery({\r\n            status: Status.Open,\r\n            startTime: block.timestamp,\r\n            endTime: _endTime,\r\n            priceTicketInDegis: _priceTicketInDegis,\r\n            rewardsBreakdown: _rewardsBreakdown,\r\n            treasuryFee: _treasuryFee,\r\n            rewardPerTicketInBracket: [\r\n                uint256(0),\r\n                uint256(0),\r\n                uint256(0),\r\n                uint256(0)\r\n            ],\r\n            countWinnersPerBracket: [\r\n                uint256(0),\r\n                uint256(0),\r\n                uint256(0),\r\n                uint256(0)\r\n            ],\r\n            amountCollected: pendingInjectionNextLottery,\r\n            pendingAwards: 0,\r\n            finalNumber: 0\r\n        });\r\n\r\n        emit LotteryOpen(\r\n            currentLotteryId,\r\n            block.timestamp,\r\n            _endTime,\r\n            _priceTicketInDegis,\r\n            pendingInjectionNextLottery\r\n        );\r\n\r\n        pendingInjectionNextLottery = 0;\r\n    }\r\n\r\n    /**\r\n     * @notice Recover wrong tokens sent to the contract, only by the owner\r\n               All tokens except Degis and USDC are wrong tokens\r\n     * @param _tokenAddress: the address of the token to withdraw\r\n     * @param _tokenAmount: token amount to withdraw\r\n     */\r\n    function recoverWrongTokens(address _tokenAddress, uint256 _tokenAmount)\r\n        external\r\n        onlyOwner\r\n    {\r\n        require(_tokenAddress != address(DegisToken), \"Cannot be DEGIS token\");\r\n\r\n        IERC20(_tokenAddress).safeTransfer(address(msg.sender), _tokenAmount);\r\n\r\n        emit AdminTokenRecovery(_tokenAddress, _tokenAmount);\r\n    }\r\n\r\n    /**\r\n     * @notice Set the upper/lower limit of the ticket price\r\n     * @dev Only callable by the owner\r\n     * @param _minPriceTicketInDegis: minimum price of a ticket in Degis\r\n     * @param _maxPriceTicketInDegis: maximum price of a ticket in Degis\r\n     */\r\n    function setMinAndMaxTicketPrice(\r\n        uint256 _minPriceTicketInDegis,\r\n        uint256 _maxPriceTicketInDegis\r\n    ) external onlyOwner {\r\n        require(\r\n            _minPriceTicketInDegis <= _maxPriceTicketInDegis,\r\n            \"minPrice must be < maxPrice\"\r\n        );\r\n\r\n        minPriceTicketInDegis = _minPriceTicketInDegis;\r\n        maxPriceTicketInDegis = _maxPriceTicketInDegis;\r\n    }\r\n\r\n    /**\r\n     * @notice Set max number of tickets that a user can buy/claim at one time\r\n     * @dev Only callable by the owner\r\n     */\r\n    function setMaxNumberTicketsPeyBuyOrClaim(uint256 _maxNumber)\r\n        external\r\n        onlyOwner\r\n    {\r\n        require(_maxNumber != 0, \"Must be > 0\");\r\n        maxNumberTicketsPerBuyOrClaim = _maxNumber;\r\n    }\r\n\r\n    /**\r\n     * @notice Set operator, treasury, and injector addresses\r\n     * @dev Only callable by the owner\r\n     * @param _operatorAddress: address of the operator\r\n     * @param _treasuryAddress: address of the treasury\r\n     * @param _injectorAddress: address of the injector\r\n     */\r\n    function setOperatorAndTreasuryAndInjectorAddresses(\r\n        address _operatorAddress,\r\n        address _treasuryAddress,\r\n        address _injectorAddress\r\n    ) external onlyOwner {\r\n        require(_operatorAddress != address(0), \"Cannot be zero address\");\r\n        require(_treasuryAddress != address(0), \"Cannot be zero address\");\r\n        require(_injectorAddress != address(0), \"Cannot be zero address\");\r\n\r\n        operatorAddress = _operatorAddress;\r\n        treasuryAddress = _treasuryAddress;\r\n        injectorAddress = _injectorAddress;\r\n\r\n        emit NewOperatorAndTreasuryAndInjectorAddresses(\r\n            _operatorAddress,\r\n            _treasuryAddress,\r\n            _injectorAddress\r\n        );\r\n    }\r\n\r\n    /**\r\n     * @notice Calculate price of a set of tickets\r\n     * @param _priceTicket price of one ticket (in Degis)\r\n     * @param _numberTickets number of tickets to buy\r\n     */\r\n    function calculateTotalPriceForBulkTickets(\r\n        uint256 _priceTicket,\r\n        uint256 _numberTickets\r\n    ) external pure returns (uint256) {\r\n        require(_numberTickets != 0, \"number of tickets must be > 0\");\r\n\r\n        return _calculateTotalPriceForBulkTickets(_priceTicket, _numberTickets);\r\n    }\r\n\r\n    /**\r\n     * @notice View current lottery id\r\n     */\r\n    function viewCurrentLotteryId() external view override returns (uint256) {\r\n        return currentLotteryId;\r\n    }\r\n\r\n    /**\r\n     * @notice View lottery information\r\n     * @param _lotteryId: lottery id\r\n     */\r\n    function viewLottery(uint256 _lotteryId)\r\n        external\r\n        view\r\n        returns (Lottery memory)\r\n    {\r\n        return _lotteries[_lotteryId];\r\n    }\r\n\r\n    /**\r\n     * @notice View ticker statuses and numbers for an array of ticket ids\r\n     * @param _ticketIds: array of _ticketId\r\n     */\r\n    function viewNumbersAndStatusesForTicketIds(uint256[] calldata _ticketIds)\r\n        external\r\n        view\r\n        returns (uint32[] memory, bool[] memory)\r\n    {\r\n        uint256 length = _ticketIds.length;\r\n        uint32[] memory ticketNumbers = new uint32[](length);\r\n        bool[] memory ticketStatuses = new bool[](length);\r\n\r\n        for (uint256 i = 0; i < length; i++) {\r\n            ticketNumbers[i] = _tickets[_ticketIds[i]].number;\r\n            ticketStatuses[i] = _tickets[_ticketIds[i]].isRedeemed;\r\n        }\r\n\r\n        return (ticketNumbers, ticketStatuses);\r\n    }\r\n\r\n    /**\r\n     * @notice View rewards for a given ticket, providing a bracket, and lottery id\r\n     * @dev Computations are mostly offchain. This is used to verify a ticket!\r\n     * @param _lotteryId: lottery round\r\n     * @param _ticketId: ticket id\r\n     */\r\n    function viewRewardsForTicketId(\r\n        uint256 _lotteryId,\r\n        uint256 _ticketId\r\n    ) external view returns (uint256) {\r\n        // Check lottery is in claimable status\r\n        if (_lotteries[_lotteryId].status != Status.Claimable) {\r\n            return 0;\r\n        }\r\n\r\n        require(\r\n            _tickets[_ticketId].buyLotteryId <= _lotteryId,\r\n            \"ticketId is too large\"\r\n        );\r\n        if(_tickets[_ticketId].isRedeemed == true)\r\n        {\r\n            require(\r\n                _tickets[_ticketId].redeemLotteryId > _lotteryId,\r\n                \"ticketId was redeemed\"\r\n            );\r\n        }\r\n        require(\r\n            _ticketsClaimed[_ticketId][_lotteryId] == false,\r\n            \"prize received\"\r\n        );\r\n\r\n        // Check ticketId is within range\r\n        if (\r\n            (_tickets[_ticketId].buyLotteryId > _lotteryId) || \r\n            (_tickets[_ticketId].isRedeemed == true && (_tickets[_ticketId].redeemLotteryId <= _lotteryId)) || \r\n            (_ticketsClaimed[_ticketId][_lotteryId] == true)\r\n        ) {\r\n            return 0;\r\n        }\r\n\r\n        return _calculateRewardsForTicketId(_lotteryId, _ticketId);\r\n    }\r\n\r\n\r\n\r\n    /**\r\n     * @notice View user ticket ids, numbers, and statuses of user for a given lottery\r\n     * @param _user: user address\r\n     * @param _lotteryId: lottery round\r\n     * @param _cursor: cursor to start where to retrieve the tickets\r\n     * @param _size: the number of tickets to retrieve\r\n     */\r\n    // e.g. Alice, round 10, check her ticket-30 to ticket-35\r\n    function viewUserInfoForLotteryId(\r\n        address _user,\r\n        uint256 _lotteryId,\r\n        uint256 _cursor,\r\n        uint256 _size\r\n    )\r\n        external\r\n        view\r\n        returns (\r\n            uint256[] memory,\r\n            uint32[] memory,\r\n            bool[] memory,\r\n            uint256\r\n        )\r\n    {\r\n        uint256 length = _size;\r\n        uint256 numberTicketsBoughtAtLotteryId = _userTicketIds[\r\n            _user\r\n        ].length;\r\n\r\n        if (length > (numberTicketsBoughtAtLotteryId - _cursor)) {\r\n            length = numberTicketsBoughtAtLotteryId - _cursor;\r\n        }\r\n\r\n        uint256[] memory lotteryTicketIds = new uint256[](length);\r\n        uint32[] memory ticketNumbers = new uint32[](length);\r\n        bool[] memory ticketStatuses = new bool[](length);\r\n\r\n        for (uint256 i = 0; i < length; i++) {\r\n            lotteryTicketIds[i] = _userTicketIds[_user][\r\n                i + _cursor\r\n            ];\r\n            ticketNumbers[i] = _tickets[lotteryTicketIds[i]].number;\r\n            ticketStatuses[i] = _tickets[lotteryTicketIds[i]].isRedeemed;\r\n        }\r\n\r\n        return (\r\n            lotteryTicketIds,\r\n            ticketNumbers,\r\n            ticketStatuses,\r\n            _cursor + length\r\n        );\r\n    }\r\n\r\n\r\n    /**\r\n     * @notice Claim all winning tickets for a lottery\r\n     * @param _lotteryId: lottery id\r\n     * @dev Callable by users only, not contract!\r\n     */\r\n    function viewClaimAllTickets(uint256 _lotteryId) external view\r\n    returns (uint256)\r\n    {\r\n        require(\r\n            _lotteries[_lotteryId].status == Status.Claimable,\r\n            \"this round of lottery are not ready for claiming\"\r\n        );\r\n\r\n        uint256 rewardToTransfer = 0;\r\n\r\n        for (uint256 i = 0; i < _userTicketIds[msg.sender].length; i++) {\r\n            uint256 thisTicketId = _userTicketIds[msg.sender][i];\r\n\r\n            require(\r\n                msg.sender == _tickets[thisTicketId].owner,\r\n                \"you are not the owner of this ticket\"\r\n            );\r\n\r\n            if(_tickets[thisTicketId].buyLotteryId > _lotteryId){\r\n                continue;\r\n            }\r\n            \r\n            if(_tickets[thisTicketId].isRedeemed == true)\r\n            {\r\n                if(_tickets[thisTicketId].redeemLotteryId <= _lotteryId){\r\n                    continue;\r\n                }\r\n            }\r\n\r\n            if(_ticketsClaimed[thisTicketId][_lotteryId] == true){\r\n                continue;\r\n            }\r\n            \r\n            uint256 rewardForTicketId = _calculateRewardsForTicketId(\r\n                _lotteryId,\r\n                thisTicketId\r\n            );\r\n\r\n            if(rewardForTicketId == 0){\r\n                continue;\r\n            }\r\n\r\n            // Increase the reward to transfer\r\n            rewardToTransfer += rewardForTicketId;\r\n        }\r\n        return rewardToTransfer;\r\n    }\r\n\r\n    /**\r\n     * @notice Calculate rewards for a given ticket, in given round and given bracket\r\n     * @param _lotteryId: lottery round\r\n     * @param _ticketId: ticket id\r\n     */\r\n    function _calculateRewardsForTicketId(\r\n        uint256 _lotteryId,\r\n        uint256 _ticketId\r\n    ) internal view returns (uint256) {\r\n        \r\n        if(_tickets[_ticketId].buyLotteryId > _lotteryId) {\r\n            return 0;\r\n        }\r\n\r\n        if(_tickets[_ticketId].isRedeemed == true) {\r\n            if(_tickets[_ticketId].redeemLotteryId <= _lotteryId) {\r\n                return 0;\r\n            }\r\n        }\r\n\r\n        if(_ticketsClaimed[_ticketId][_lotteryId] == true) {\r\n            return 0;\r\n        }\r\n\r\n        // Retrieve the user number combination from the ticketId\r\n        uint32 userNumber = _tickets[_ticketId].number;\r\n\r\n        // Retrieve the winning number combination\r\n        uint32 winningTicketNumber = _lotteries[_lotteryId].finalNumber;\r\n\r\n        uint32 _bracket = 5;\r\n        for(uint32 i = 1; i <= 4; i++) {\r\n            if(winningTicketNumber % (uint32(10)**i) == userNumber % (uint32(10)**i)) {\r\n                _bracket = i - 1 ;\r\n            }\r\n        }\r\n\r\n        if(_bracket == 5)\r\n        {\r\n            return 0;\r\n        }\r\n\r\n        // Apply transformation to verify the claim provided by the user is true\r\n        uint32 transformedWinningNumber = _bracketCalculator[_bracket] +\r\n            (winningTicketNumber % (uint32(10)**(_bracket+1)));\r\n\r\n        uint32 transformedUserNumber = _bracketCalculator[_bracket] +\r\n            (userNumber % (uint32(10)**(_bracket+1)));\r\n\r\n        // Confirm that the two transformed numbers are the same\r\n        if (transformedWinningNumber == transformedUserNumber) {\r\n            return _lotteries[_lotteryId].rewardPerTicketInBracket[_bracket];\r\n        } else {\r\n            return 0;\r\n        }\r\n    }\r\n\r\n\r\n    /**\r\n     * @notice Calculate all awards\r\n     */\r\n    function _calculateTotalAwards() internal view returns(uint256)\r\n    {\r\n        uint256 amount = 0;\r\n\r\n        for(uint256 i = 0; i < currentLotteryId; i++)\r\n        {\r\n            amount += _lotteries[i].pendingAwards;\r\n        }\r\n\r\n        if(_lotteries[currentLotteryId].status == Status.Claimable)\r\n        {\r\n            amount += _lotteries[currentLotteryId].pendingAwards + pendingInjectionNextLottery;\r\n        }\r\n        else\r\n        {\r\n            amount += _lotteries[currentLotteryId].amountCollected;\r\n        }\r\n\r\n        return amount;\r\n    }\r\n\r\n    /**\r\n     * @notice Calculate final price for bulk of tickets\r\n     * @param _priceTicket: price of a ticket\r\n     * @param _numberTickets: number of tickets purchased\r\n     */\r\n    function _calculateTotalPriceForBulkTickets(\r\n        uint256 _priceTicket,\r\n        uint256 _numberTickets\r\n    ) internal pure returns (uint256) {\r\n        return _priceTicket * _numberTickets;\r\n    }\r\n\r\n    /**\r\n     * @notice Check if an address is a contract\r\n     */\r\n    function _isContract(address _addr) internal view returns (bool) {\r\n        uint256 size;\r\n        assembly {\r\n            size := extcodesize(_addr)\r\n        }\r\n        return size > 0;\r\n    }\r\n}\r\n",
  "sourcePath": "D:\\src\\Degis-Lucky\\contracts\\DegisLottery.sol",
  "compiler": {
    "name": "solc",
    "version": "0.8.5+commit.a4f2e591.Emscripten.clang"
  },
  "schemaVersion": "3.4.3",
  "updatedAt": "2021-10-13T07:01:27.872Z",
  "networkType": "ethereum",
  "devdoc": {
    "kind": "dev",
    "methods": {
      "buyTickets(uint32[])": {
        "details": "Callable by users",
        "params": {
          "_ticketNumbers": ": array of ticket numbers between 10,000 and 19,999"
        }
      },
      "calculateTotalPriceForBulkTickets(uint256,uint256)": {
        "params": {
          "_numberTickets": "number of tickets to buy",
          "_priceTicket": "price of one ticket (in Degis)"
        }
      },
      "changeRandomGenerator(address)": {
        "details": "The calls to functions are used to verify the new generator implements them properly. It is necessary to wait for the VRF response before starting a round. Callable only by the contract owner",
        "params": {
          "_randomGeneratorAddress": ": address of the random generator"
        }
      },
      "claimAllTickets(uint256)": {
        "details": "Callable by users only, not contract!",
        "params": {
          "_lotteryId": ": lottery id"
        }
      },
      "claimTickets(uint256,uint256[])": {
        "details": "Callable by users only, not contract!",
        "params": {
          "_lotteryId": ": lottery id"
        }
      },
      "closeLottery(uint256)": {
        "details": "Callable only by the operator",
        "params": {
          "_lotteryId": ": lottery round"
        }
      },
      "constructor": {
        "details": "RandomNumberGenerator must be deployed prior to this contract",
        "params": {
          "_degisTokenAddress": ": address of the DEGIS token (for buying tickets)",
          "_randomGeneratorAddress": ": address of the RandomGenerator contract used to work with ChainLink VRF",
          "_usdcTokenAddress": ": address of the USDC token (for prize distribution)"
        }
      },
      "drawFinalNumberAndMakeLotteryClaimable(uint256,bool)": {
        "details": "Callable only by the operator",
        "params": {
          "_autoInjection": ": reinjects funds into next lottery ",
          "_lotteryId": ": lottery round"
        }
      },
      "injectFunds(uint256,uint256)": {
        "details": "Callable by owner(incentive) or injector address(insurancePool income) First transfer USDC and then call this function to record",
        "params": {
          "_amount": ": amount to inject ",
          "_lotteryId": ": lottery round"
        }
      },
      "owner()": {
        "details": "Returns the address of the current owner."
      },
      "recoverWrongTokens(address,uint256)": {
        "params": {
          "_tokenAddress": ": the address of the token to withdraw",
          "_tokenAmount": ": token amount to withdraw"
        }
      },
      "redeemTickets(uint256[])": {
        "details": "Callable by users",
        "params": {
          "_ticketIds": ": array of ticket ids"
        }
      },
      "renounceOwnership()": {
        "details": "Leaves the contract without owner. It will not be possible to call `onlyOwner` functions anymore. Can only be called by the current owner. NOTE: Renouncing ownership will leave the contract without an owner, thereby removing any functionality that is only available to the owner."
      },
      "setMaxNumberTicketsPeyBuyOrClaim(uint256)": {
        "details": "Only callable by the owner"
      },
      "setMinAndMaxTicketPrice(uint256,uint256)": {
        "details": "Only callable by the owner",
        "params": {
          "_maxPriceTicketInDegis": ": maximum price of a ticket in Degis",
          "_minPriceTicketInDegis": ": minimum price of a ticket in Degis"
        }
      },
      "setOperatorAndTreasuryAndInjectorAddresses(address,address,address)": {
        "details": "Only callable by the owner",
        "params": {
          "_injectorAddress": ": address of the injector",
          "_operatorAddress": ": address of the operator",
          "_treasuryAddress": ": address of the treasury"
        }
      },
      "startLottery(uint256,uint256,uint256[4],uint256)": {
        "details": "Callable only by operator",
        "params": {
          "_endTime": ": endTime of the lottery (timestamp in s)",
          "_priceTicketInDegis": ": price of a ticket in DEGIS",
          "_rewardsBreakdown": ": breakdown of rewards per bracket (must sum to 10,000)(100 <=> 1)",
          "_treasuryFee": ": treasury fee (10,000 = 100%, 100 = 1%) (set as 0)"
        }
      },
      "transferOwnership(address)": {
        "details": "Transfers ownership of the contract to a new account (`newOwner`). Can only be called by the current owner."
      },
      "viewClaimAllTickets(uint256)": {
        "details": "Callable by users only, not contract!",
        "params": {
          "_lotteryId": ": lottery id"
        }
      },
      "viewLottery(uint256)": {
        "params": {
          "_lotteryId": ": lottery id"
        }
      },
      "viewNumbersAndStatusesForTicketIds(uint256[])": {
        "params": {
          "_ticketIds": ": array of _ticketId"
        }
      },
      "viewRewardsForTicketId(uint256,uint256)": {
        "details": "Computations are mostly offchain. This is used to verify a ticket!",
        "params": {
          "_lotteryId": ": lottery round",
          "_ticketId": ": ticket id"
        }
      },
      "viewUserInfoForLotteryId(address,uint256,uint256,uint256)": {
        "params": {
          "_cursor": ": cursor to start where to retrieve the tickets",
          "_lotteryId": ": lottery round",
          "_size": ": the number of tickets to retrieve",
          "_user": ": user address"
        }
      }
    },
    "version": 1
  },
  "userdoc": {
    "kind": "user",
    "methods": {
      "buyTickets(uint32[])": {
        "notice": "Buy tickets for the current lottery round"
      },
      "calculateTotalPriceForBulkTickets(uint256,uint256)": {
        "notice": "Calculate price of a set of tickets"
      },
      "changeRandomGenerator(address)": {
        "notice": "Change the random generator contract address"
      },
      "claimAllTickets(uint256)": {
        "notice": "Claim all winning tickets for a lottery"
      },
      "claimTickets(uint256,uint256[])": {
        "notice": "Claim a set of winning tickets for a lottery"
      },
      "closeLottery(uint256)": {
        "notice": "Close a lottery"
      },
      "constructor": {
        "notice": "Constructor"
      },
      "drawFinalNumberAndMakeLotteryClaimable(uint256,bool)": {
        "notice": "Draw the final number, calculate reward in Degis for each group,  and make this lottery claimable (need to wait for the random generator)"
      },
      "injectFunds(uint256,uint256)": {
        "notice": "Inject funds"
      },
      "recoverWrongTokens(address,uint256)": {
        "notice": "Recover wrong tokens sent to the contract, only by the owner All tokens except Degis and USDC are wrong tokens"
      },
      "redeemTickets(uint256[])": {
        "notice": "Redeem tickets for all lottery"
      },
      "setMaxNumberTicketsPeyBuyOrClaim(uint256)": {
        "notice": "Set max number of tickets that a user can buy/claim at one time"
      },
      "setMinAndMaxTicketPrice(uint256,uint256)": {
        "notice": "Set the upper/lower limit of the ticket price"
      },
      "setOperatorAndTreasuryAndInjectorAddresses(address,address,address)": {
        "notice": "Set operator, treasury, and injector addresses"
      },
      "startLottery(uint256,uint256,uint256[4],uint256)": {
        "notice": "Start the lottery"
      },
      "viewClaimAllTickets(uint256)": {
        "notice": "Claim all winning tickets for a lottery"
      },
      "viewCurrentLotteryId()": {
        "notice": "View current lottery id"
      },
      "viewLottery(uint256)": {
        "notice": "View lottery information"
      },
      "viewNumbersAndStatusesForTicketIds(uint256[])": {
        "notice": "View ticker statuses and numbers for an array of ticket ids"
      },
      "viewRewardsForTicketId(uint256,uint256)": {
        "notice": "View rewards for a given ticket, providing a bracket, and lottery id"
      },
      "viewUserInfoForLotteryId(address,uint256,uint256,uint256)": {
        "notice": "View user ticket ids, numbers, and statuses of user for a given lottery"
      }
    },
    "version": 1
  }
}