{
  "contractName": "DegisToken",
  "abi": [
    {
      "inputs": [],
      "stateMutability": "nonpayable",
      "type": "constructor"
    },
    {
      "anonymous": false,
      "inputs": [
        {
          "indexed": true,
          "internalType": "address",
          "name": "owner",
          "type": "address"
        },
        {
          "indexed": true,
          "internalType": "address",
          "name": "spender",
          "type": "address"
        },
        {
          "indexed": false,
          "internalType": "uint256",
          "name": "value",
          "type": "uint256"
        }
      ],
      "name": "Approval",
      "type": "event"
    },
    {
      "anonymous": false,
      "inputs": [
        {
          "indexed": true,
          "internalType": "address",
          "name": "from",
          "type": "address"
        },
        {
          "indexed": true,
          "internalType": "address",
          "name": "to",
          "type": "address"
        }
      ],
      "name": "MinterChanged",
      "type": "event"
    },
    {
      "anonymous": false,
      "inputs": [
        {
          "indexed": true,
          "internalType": "address",
          "name": "from",
          "type": "address"
        },
        {
          "indexed": true,
          "internalType": "address",
          "name": "to",
          "type": "address"
        },
        {
          "indexed": false,
          "internalType": "uint256",
          "name": "value",
          "type": "uint256"
        }
      ],
      "name": "Transfer",
      "type": "event"
    },
    {
      "inputs": [
        {
          "internalType": "address",
          "name": "owner",
          "type": "address"
        },
        {
          "internalType": "address",
          "name": "spender",
          "type": "address"
        }
      ],
      "name": "allowance",
      "outputs": [
        {
          "internalType": "uint256",
          "name": "",
          "type": "uint256"
        }
      ],
      "stateMutability": "view",
      "type": "function",
      "constant": true
    },
    {
      "inputs": [
        {
          "internalType": "address",
          "name": "spender",
          "type": "address"
        },
        {
          "internalType": "uint256",
          "name": "amount",
          "type": "uint256"
        }
      ],
      "name": "approve",
      "outputs": [
        {
          "internalType": "bool",
          "name": "",
          "type": "bool"
        }
      ],
      "stateMutability": "nonpayable",
      "type": "function"
    },
    {
      "inputs": [
        {
          "internalType": "address",
          "name": "account",
          "type": "address"
        }
      ],
      "name": "balanceOf",
      "outputs": [
        {
          "internalType": "uint256",
          "name": "",
          "type": "uint256"
        }
      ],
      "stateMutability": "view",
      "type": "function",
      "constant": true
    },
    {
      "inputs": [],
      "name": "burner",
      "outputs": [
        {
          "internalType": "address",
          "name": "",
          "type": "address"
        }
      ],
      "stateMutability": "view",
      "type": "function",
      "constant": true
    },
    {
      "inputs": [],
      "name": "decimals",
      "outputs": [
        {
          "internalType": "uint8",
          "name": "",
          "type": "uint8"
        }
      ],
      "stateMutability": "view",
      "type": "function",
      "constant": true
    },
    {
      "inputs": [
        {
          "internalType": "address",
          "name": "spender",
          "type": "address"
        },
        {
          "internalType": "uint256",
          "name": "subtractedValue",
          "type": "uint256"
        }
      ],
      "name": "decreaseAllowance",
      "outputs": [
        {
          "internalType": "bool",
          "name": "",
          "type": "bool"
        }
      ],
      "stateMutability": "nonpayable",
      "type": "function"
    },
    {
      "inputs": [
        {
          "internalType": "address",
          "name": "spender",
          "type": "address"
        },
        {
          "internalType": "uint256",
          "name": "addedValue",
          "type": "uint256"
        }
      ],
      "name": "increaseAllowance",
      "outputs": [
        {
          "internalType": "bool",
          "name": "",
          "type": "bool"
        }
      ],
      "stateMutability": "nonpayable",
      "type": "function"
    },
    {
      "inputs": [],
      "name": "minter",
      "outputs": [
        {
          "internalType": "address",
          "name": "",
          "type": "address"
        }
      ],
      "stateMutability": "view",
      "type": "function",
      "constant": true
    },
    {
      "inputs": [],
      "name": "name",
      "outputs": [
        {
          "internalType": "string",
          "name": "",
          "type": "string"
        }
      ],
      "stateMutability": "view",
      "type": "function",
      "constant": true
    },
    {
      "inputs": [],
      "name": "owner",
      "outputs": [
        {
          "internalType": "address",
          "name": "",
          "type": "address"
        }
      ],
      "stateMutability": "view",
      "type": "function",
      "constant": true
    },
    {
      "inputs": [],
      "name": "symbol",
      "outputs": [
        {
          "internalType": "string",
          "name": "",
          "type": "string"
        }
      ],
      "stateMutability": "view",
      "type": "function",
      "constant": true
    },
    {
      "inputs": [],
      "name": "totalSupply",
      "outputs": [
        {
          "internalType": "uint256",
          "name": "",
          "type": "uint256"
        }
      ],
      "stateMutability": "view",
      "type": "function",
      "constant": true
    },
    {
      "inputs": [
        {
          "internalType": "address",
          "name": "recipient",
          "type": "address"
        },
        {
          "internalType": "uint256",
          "name": "amount",
          "type": "uint256"
        }
      ],
      "name": "transfer",
      "outputs": [
        {
          "internalType": "bool",
          "name": "",
          "type": "bool"
        }
      ],
      "stateMutability": "nonpayable",
      "type": "function"
    },
    {
      "inputs": [
        {
          "internalType": "address",
          "name": "sender",
          "type": "address"
        },
        {
          "internalType": "address",
          "name": "recipient",
          "type": "address"
        },
        {
          "internalType": "uint256",
          "name": "amount",
          "type": "uint256"
        }
      ],
      "name": "transferFrom",
      "outputs": [
        {
          "internalType": "bool",
          "name": "",
          "type": "bool"
        }
      ],
      "stateMutability": "nonpayable",
      "type": "function"
    },
    {
      "inputs": [
        {
          "internalType": "address",
          "name": "_newMinter",
          "type": "address"
        }
      ],
      "name": "passMinterRole",
      "outputs": [
        {
          "internalType": "bool",
          "name": "",
          "type": "bool"
        }
      ],
      "stateMutability": "nonpayable",
      "type": "function"
    },
    {
      "inputs": [
        {
          "internalType": "address",
          "name": "_account",
          "type": "address"
        },
        {
          "internalType": "uint256",
          "name": "_amount",
          "type": "uint256"
        }
      ],
      "name": "mint",
      "outputs": [],
      "stateMutability": "nonpayable",
      "type": "function"
    },
    {
      "inputs": [
        {
          "internalType": "address",
          "name": "_account",
          "type": "address"
        },
        {
          "internalType": "uint256",
          "name": "_amount",
          "type": "uint256"
        }
      ],
      "name": "burn",
      "outputs": [],
      "stateMutability": "nonpayable",
      "type": "function"
    }
  ],
  "bytecode": "0x60806040523480156200001157600080fd5b506040518060400160405280600a81526020017f4465676973546f6b656e000000000000000000000000000000000000000000008152506040518060400160405280600581526020017f44454749530000000000000000000000000000000000000000000000000000008152508160039080519060200190620000969291906200013a565b508060049080519060200190620000af9291906200013a565b50505033600560006101000a81548173ffffffffffffffffffffffffffffffffffffffff021916908373ffffffffffffffffffffffffffffffffffffffff16021790555033600760006101000a81548173ffffffffffffffffffffffffffffffffffffffff021916908373ffffffffffffffffffffffffffffffffffffffff1602179055506200024f565b8280546200014890620001ea565b90600052602060002090601f0160209004810192826200016c5760008555620001b8565b82601f106200018757805160ff1916838001178555620001b8565b82800160010185558215620001b8579182015b82811115620001b75782518255916020019190600101906200019a565b5b509050620001c79190620001cb565b5090565b5b80821115620001e6576000816000905550600101620001cc565b5090565b600060028204905060018216806200020357607f821691505b602082108114156200021a576200021962000220565b5b50919050565b7f4e487b7100000000000000000000000000000000000000000000000000000000600052602260045260246000fd5b611e8d806200025f6000396000f3fe608060405234801561001057600080fd5b506004361061010b5760003560e01c806340c10f19116100a25780639dc29fac116100715780639dc29fac146102be578063a457c2d7146102da578063a9059cbb1461030a578063d7fc5b151461033a578063dd62ed3e1461036a5761010b565b806340c10f191461023657806370a08231146102525780638da5cb5b1461028257806395d89b41146102a05761010b565b806323b872dd116100de57806323b872dd1461019a57806327810b6e146101ca578063313ce567146101e857806339509351146102065761010b565b806306fdde0314610110578063075461721461012e578063095ea7b31461014c57806318160ddd1461017c575b600080fd5b61011861039a565b6040516101259190611680565b60405180910390f35b61013661042c565b604051610143919061164a565b60405180910390f35b610166600480360381019061016191906113ce565b610452565b6040516101739190611665565b60405180910390f35b610184610470565b6040516101919190611842565b60405180910390f35b6101b460048036038101906101af919061137b565b61047a565b6040516101c19190611665565b60405180910390f35b6101d2610572565b6040516101df919061164a565b60405180910390f35b6101f0610598565b6040516101fd919061185d565b60405180910390f35b610220600480360381019061021b91906113ce565b6105a1565b60405161022d9190611665565b60405180910390f35b610250600480360381019061024b91906113ce565b61064d565b005b61026c6004803603810190610267919061130e565b6106eb565b6040516102799190611842565b60405180910390f35b61028a610733565b604051610297919061164a565b60405180910390f35b6102a8610759565b6040516102b59190611680565b60405180910390f35b6102d860048036038101906102d391906113ce565b6107eb565b005b6102f460048036038101906102ef91906113ce565b610889565b6040516103019190611665565b60405180910390f35b610324600480360381019061031f91906113ce565b610974565b6040516103319190611665565b60405180910390f35b610354600480360381019061034f919061130e565b610992565b6040516103619190611665565b60405180910390f35b610384600480360381019061037f919061133b565b610ac8565b6040516103919190611842565b60405180910390f35b6060600380546103a9906119a6565b80601f01602080910402602001604051908101604052809291908181526020018280546103d5906119a6565b80156104225780601f106103f757610100808354040283529160200191610422565b820191906000526020600020905b81548152906001019060200180831161040557829003601f168201915b5050505050905090565b600560009054906101000a900473ffffffffffffffffffffffffffffffffffffffff1681565b600061046661045f610b4f565b8484610b57565b6001905092915050565b6000600254905090565b6000610487848484610d22565b6000600160008673ffffffffffffffffffffffffffffffffffffffff1673ffffffffffffffffffffffffffffffffffffffff16815260200190815260200160002060006104d2610b4f565b73ffffffffffffffffffffffffffffffffffffffff1673ffffffffffffffffffffffffffffffffffffffff16815260200190815260200160002054905082811015610552576040517f08c379a000000000000000000000000000000000000000000000000000000000815260040161054990611762565b60405180910390fd5b6105668561055e610b4f565b858403610b57565b60019150509392505050565b600660009054906101000a900473ffffffffffffffffffffffffffffffffffffffff1681565b60006012905090565b60006106436105ae610b4f565b8484600160006105bc610b4f565b73ffffffffffffffffffffffffffffffffffffffff1673ffffffffffffffffffffffffffffffffffffffff16815260200190815260200160002060008873ffffffffffffffffffffffffffffffffffffffff1673ffffffffffffffffffffffffffffffffffffffff1681526020019081526020016000205461063e9190611894565b610b57565b6001905092915050565b600560009054906101000a900473ffffffffffffffffffffffffffffffffffffffff1673ffffffffffffffffffffffffffffffffffffffff163373ffffffffffffffffffffffffffffffffffffffff16146106dd576040517f08c379a00000000000000000000000000000000000000000000000000000000081526004016106d490611702565b60405180910390fd5b6106e78282610fa3565b5050565b60008060008373ffffffffffffffffffffffffffffffffffffffff1673ffffffffffffffffffffffffffffffffffffffff168152602001908152602001600020549050919050565b600760009054906101000a900473ffffffffffffffffffffffffffffffffffffffff1681565b606060048054610768906119a6565b80601f0160208091040260200160405190810160405280929190818152602001828054610794906119a6565b80156107e15780601f106107b6576101008083540402835291602001916107e1565b820191906000526020600020905b8154815290600101906020018083116107c457829003601f168201915b5050505050905090565b600660009054906101000a900473ffffffffffffffffffffffffffffffffffffffff1673ffffffffffffffffffffffffffffffffffffffff163373ffffffffffffffffffffffffffffffffffffffff161461087b576040517f08c379a000000000000000000000000000000000000000000000000000000000815260040161087290611742565b60405180910390fd5b6108858282611103565b5050565b60008060016000610898610b4f565b73ffffffffffffffffffffffffffffffffffffffff1673ffffffffffffffffffffffffffffffffffffffff16815260200190815260200160002060008573ffffffffffffffffffffffffffffffffffffffff1673ffffffffffffffffffffffffffffffffffffffff16815260200190815260200160002054905082811015610955576040517f08c379a000000000000000000000000000000000000000000000000000000000815260040161094c90611802565b60405180910390fd5b610969610960610b4f565b85858403610b57565b600191505092915050565b6000610988610981610b4f565b8484610d22565b6001905092915050565b6000600760009054906101000a900473ffffffffffffffffffffffffffffffffffffffff1673ffffffffffffffffffffffffffffffffffffffff163373ffffffffffffffffffffffffffffffffffffffff1614610a24576040517f08c379a0000000000000000000000000000000000000000000000000000000008152600401610a1b906117e2565b60405180910390fd5b81600560006101000a81548173ffffffffffffffffffffffffffffffffffffffff021916908373ffffffffffffffffffffffffffffffffffffffff1602179055508173ffffffffffffffffffffffffffffffffffffffff163373ffffffffffffffffffffffffffffffffffffffff167f3b0007eb941cf645526cbb3a4fdaecda9d28ce4843167d9263b536a1f1edc0f660405160405180910390a360019050919050565b6000600160008473ffffffffffffffffffffffffffffffffffffffff1673ffffffffffffffffffffffffffffffffffffffff16815260200190815260200160002060008373ffffffffffffffffffffffffffffffffffffffff1673ffffffffffffffffffffffffffffffffffffffff16815260200190815260200160002054905092915050565b600033905090565b600073ffffffffffffffffffffffffffffffffffffffff168373ffffffffffffffffffffffffffffffffffffffff161415610bc7576040517f08c379a0000000000000000000000000000000000000000000000000000000008152600401610bbe906117c2565b60405180910390fd5b600073ffffffffffffffffffffffffffffffffffffffff168273ffffffffffffffffffffffffffffffffffffffff161415610c37576040517f08c379a0000000000000000000000000000000000000000000000000000000008152600401610c2e906116e2565b60405180910390fd5b80600160008573ffffffffffffffffffffffffffffffffffffffff1673ffffffffffffffffffffffffffffffffffffffff16815260200190815260200160002060008473ffffffffffffffffffffffffffffffffffffffff1673ffffffffffffffffffffffffffffffffffffffff168152602001908152602001600020819055508173ffffffffffffffffffffffffffffffffffffffff168373ffffffffffffffffffffffffffffffffffffffff167f8c5be1e5ebec7d5bd14f71427d1e84f3dd0314c0f7b2291e5b200ac8c7c3b92583604051610d159190611842565b60405180910390a3505050565b600073ffffffffffffffffffffffffffffffffffffffff168373ffffffffffffffffffffffffffffffffffffffff161415610d92576040517f08c379a0000000000000000000000000000000000000000000000000000000008152600401610d89906117a2565b60405180910390fd5b600073ffffffffffffffffffffffffffffffffffffffff168273ffffffffffffffffffffffffffffffffffffffff161415610e02576040517f08c379a0000000000000000000000000000000000000000000000000000000008152600401610df9906116a2565b60405180910390fd5b610e0d8383836112da565b60008060008573ffffffffffffffffffffffffffffffffffffffff1673ffffffffffffffffffffffffffffffffffffffff16815260200190815260200160002054905081811015610e93576040517f08c379a0000000000000000000000000000000000000000000000000000000008152600401610e8a90611722565b60405180910390fd5b8181036000808673ffffffffffffffffffffffffffffffffffffffff1673ffffffffffffffffffffffffffffffffffffffff16815260200190815260200160002081905550816000808573ffffffffffffffffffffffffffffffffffffffff1673ffffffffffffffffffffffffffffffffffffffff1681526020019081526020016000206000828254610f269190611894565b925050819055508273ffffffffffffffffffffffffffffffffffffffff168473ffffffffffffffffffffffffffffffffffffffff167fddf252ad1be2c89b69c2b068fc378daa952ba7f163c4a11628f55a4df523b3ef84604051610f8a9190611842565b60405180910390a3610f9d8484846112df565b50505050565b600073ffffffffffffffffffffffffffffffffffffffff168273ffffffffffffffffffffffffffffffffffffffff161415611013576040517f08c379a000000000000000000000000000000000000000000000000000000000815260040161100a90611822565b60405180910390fd5b61101f600083836112da565b80600260008282546110319190611894565b92505081905550806000808473ffffffffffffffffffffffffffffffffffffffff1673ffffffffffffffffffffffffffffffffffffffff16815260200190815260200160002060008282546110869190611894565b925050819055508173ffffffffffffffffffffffffffffffffffffffff16600073ffffffffffffffffffffffffffffffffffffffff167fddf252ad1be2c89b69c2b068fc378daa952ba7f163c4a11628f55a4df523b3ef836040516110eb9190611842565b60405180910390a36110ff600083836112df565b5050565b600073ffffffffffffffffffffffffffffffffffffffff168273ffffffffffffffffffffffffffffffffffffffff161415611173576040517f08c379a000000000000000000000000000000000000000000000000000000000815260040161116a90611782565b60405180910390fd5b61117f826000836112da565b60008060008473ffffffffffffffffffffffffffffffffffffffff1673ffffffffffffffffffffffffffffffffffffffff16815260200190815260200160002054905081811015611205576040517f08c379a00000000000000000000000000000000000000000000000000000000081526004016111fc906116c2565b60405180910390fd5b8181036000808573ffffffffffffffffffffffffffffffffffffffff1673ffffffffffffffffffffffffffffffffffffffff16815260200190815260200160002081905550816002600082825461125c91906118ea565b92505081905550600073ffffffffffffffffffffffffffffffffffffffff168373ffffffffffffffffffffffffffffffffffffffff167fddf252ad1be2c89b69c2b068fc378daa952ba7f163c4a11628f55a4df523b3ef846040516112c19190611842565b60405180910390a36112d5836000846112df565b505050565b505050565b505050565b6000813590506112f381611e29565b92915050565b60008135905061130881611e40565b92915050565b60006020828403121561132457611323611a36565b5b6000611332848285016112e4565b91505092915050565b6000806040838503121561135257611351611a36565b5b6000611360858286016112e4565b9250506020611371858286016112e4565b9150509250929050565b60008060006060848603121561139457611393611a36565b5b60006113a2868287016112e4565b93505060206113b3868287016112e4565b92505060406113c4868287016112f9565b9150509250925092565b600080604083850312156113e5576113e4611a36565b5b60006113f3858286016112e4565b9250506020611404858286016112f9565b9150509250929050565b6114178161191e565b82525050565b61142681611930565b82525050565b600061143782611878565b6114418185611883565b9350611451818560208601611973565b61145a81611a3b565b840191505092915050565b6000611472602383611883565b915061147d82611a4c565b604082019050919050565b6000611495602283611883565b91506114a082611a9b565b604082019050919050565b60006114b8602283611883565b91506114c382611aea565b604082019050919050565b60006114db602483611883565b91506114e682611b39565b604082019050919050565b60006114fe602683611883565b915061150982611b88565b604082019050919050565b6000611521602483611883565b915061152c82611bd7565b604082019050919050565b6000611544602883611883565b915061154f82611c26565b604082019050919050565b6000611567602183611883565b915061157282611c75565b604082019050919050565b600061158a602583611883565b915061159582611cc4565b604082019050919050565b60006115ad602483611883565b91506115b882611d13565b604082019050919050565b60006115d0603083611883565b91506115db82611d62565b604082019050919050565b60006115f3602583611883565b91506115fe82611db1565b604082019050919050565b6000611616601f83611883565b915061162182611e00565b602082019050919050565b6116358161195c565b82525050565b61164481611966565b82525050565b600060208201905061165f600083018461140e565b92915050565b600060208201905061167a600083018461141d565b92915050565b6000602082019050818103600083015261169a818461142c565b905092915050565b600060208201905081810360008301526116bb81611465565b9050919050565b600060208201905081810360008301526116db81611488565b9050919050565b600060208201905081810360008301526116fb816114ab565b9050919050565b6000602082019050818103600083015261171b816114ce565b9050919050565b6000602082019050818103600083015261173b816114f1565b9050919050565b6000602082019050818103600083015261175b81611514565b9050919050565b6000602082019050818103600083015261177b81611537565b9050919050565b6000602082019050818103600083015261179b8161155a565b9050919050565b600060208201905081810360008301526117bb8161157d565b9050919050565b600060208201905081810360008301526117db816115a0565b9050919050565b600060208201905081810360008301526117fb816115c3565b9050919050565b6000602082019050818103600083015261181b816115e6565b9050919050565b6000602082019050818103600083015261183b81611609565b9050919050565b6000602082019050611857600083018461162c565b92915050565b6000602082019050611872600083018461163b565b92915050565b600081519050919050565b600082825260208201905092915050565b600061189f8261195c565b91506118aa8361195c565b9250827fffffffffffffffffffffffffffffffffffffffffffffffffffffffffffffffff038211156118df576118de6119d8565b5b828201905092915050565b60006118f58261195c565b91506119008361195c565b925082821015611913576119126119d8565b5b828203905092915050565b60006119298261193c565b9050919050565b60008115159050919050565b600073ffffffffffffffffffffffffffffffffffffffff82169050919050565b6000819050919050565b600060ff82169050919050565b60005b83811015611991578082015181840152602081019050611976565b838111156119a0576000848401525b50505050565b600060028204905060018216806119be57607f821691505b602082108114156119d2576119d1611a07565b5b50919050565b7f4e487b7100000000000000000000000000000000000000000000000000000000600052601160045260246000fd5b7f4e487b7100000000000000000000000000000000000000000000000000000000600052602260045260246000fd5b600080fd5b6000601f19601f8301169050919050565b7f45524332303a207472616e7366657220746f20746865207a65726f206164647260008201527f6573730000000000000000000000000000000000000000000000000000000000602082015250565b7f45524332303a206275726e20616d6f756e7420657863656564732062616c616e60008201527f6365000000000000000000000000000000000000000000000000000000000000602082015250565b7f45524332303a20617070726f766520746f20746865207a65726f20616464726560008201527f7373000000000000000000000000000000000000000000000000000000000000602082015250565b7f4572726f7221204d73672e73656e646572206d75737420626520746865206d6960008201527f6e74657200000000000000000000000000000000000000000000000000000000602082015250565b7f45524332303a207472616e7366657220616d6f756e742065786365656473206260008201527f616c616e63650000000000000000000000000000000000000000000000000000602082015250565b7f4572726f7221204d73672e73656e646572206d7573742062652074686520627560008201527f726e657200000000000000000000000000000000000000000000000000000000602082015250565b7f45524332303a207472616e7366657220616d6f756e742065786365656473206160008201527f6c6c6f77616e6365000000000000000000000000000000000000000000000000602082015250565b7f45524332303a206275726e2066726f6d20746865207a65726f2061646472657360008201527f7300000000000000000000000000000000000000000000000000000000000000602082015250565b7f45524332303a207472616e736665722066726f6d20746865207a65726f20616460008201527f6472657373000000000000000000000000000000000000000000000000000000602082015250565b7f45524332303a20617070726f76652066726f6d20746865207a65726f2061646460008201527f7265737300000000000000000000000000000000000000000000000000000000602082015250565b7f4572726f7221206f6e6c7920746865206f776e65722063616e206368616e676560008201527f20746865206d696e74657220726f6c6500000000000000000000000000000000602082015250565b7f45524332303a2064656372656173656420616c6c6f77616e63652062656c6f7760008201527f207a65726f000000000000000000000000000000000000000000000000000000602082015250565b7f45524332303a206d696e7420746f20746865207a65726f206164647265737300600082015250565b611e328161191e565b8114611e3d57600080fd5b50565b611e498161195c565b8114611e5457600080fd5b5056fea2646970667358221220144a5440b51bbd7919c5784c553b53cbeed1313cf0ca3bb56b74e5e70a491d2d64736f6c63430008050033",
  "immutableReferences": {},
  "source": "// SPDX-License-Identifier: MIT\npragma solidity ^0.8.0;\n\nimport \"@openzeppelin/contracts/token/ERC20/ERC20.sol\";\n\n/**\n * @dev This contract / DegisToken has an owner and a minter.\n * When lauched on mainnet, the owner may be removed ?\n * By default, the owner & minter account will be the one that deploys the contract.\n * This can later be changed with {passMinterRole}.\n */\ncontract DegisToken is ERC20 {\n    // Owner can change the minter\n    // Typically the minter will be the \"InsurancePool\" contract\n    // Public addresses, can be checked on Etherscan\n    address public minter;\n    address public burner;\n    address public owner;\n\n    // Indicate that the minter Changed !!!\n    event MinterChanged(address indexed from, address indexed to);\n\n    /**\n     * @notice use ERC20 constructor and set the owner\n     */\n    constructor() ERC20(\"DegisToken\", \"DEGIS\") {\n        minter = msg.sender;\n        owner = msg.sender;\n    }\n\n    /**\n     * @notice Pass the minter role to a new address, only the owner can change the minter !!!\n     * @param _newMinter: new minter's address\n     * @return bool: whether the minter has been changed\n     */\n    function passMinterRole(address _newMinter) public returns (bool) {\n        require(\n            msg.sender == owner,\n            \"Error! only the owner can change the minter role\"\n        );\n        minter = _newMinter;\n\n        emit MinterChanged(msg.sender, _newMinter);\n        return true;\n    }\n\n    /**\n     * @notice Mint tokens !!!\n     * @param _account: receiver's address\n     * @param _amount: amount to be minted\n     */\n    function mint(address _account, uint256 _amount) public {\n        // Check if msg.sender is the minter\n        require(msg.sender == minter, \"Error! Msg.sender must be the minter\");\n\n        _mint(_account, _amount); // ERC20 method with an event\n    }\n\n    /**\n     * @notice Burn tokens !!!\n     * @param _account: address\n     * @param _amount: amount to be burned\n     */\n    function burn(address _account, uint256 _amount) public {\n        require(msg.sender == burner, \"Error! Msg.sender must be the burner\");\n        _burn(_account, _amount);\n    }\n}\n",
  "sourcePath": "/Users/liyang/src/Degis-Contracts-1/contracts/DegisToken.sol",
  "compiler": {
    "name": "solc",
    "version": "0.8.5+commit.a4f2e591.Emscripten.clang"
  },
  "schemaVersion": "3.4.3",
  "updatedAt": "2021-10-14T08:10:17.656Z",
  "networkType": "ethereum",
  "devdoc": {
    "details": "This contract / DegisToken has an owner and a minter. When lauched on mainnet, the owner may be removed ? By default, the owner & minter account will be the one that deploys the contract. This can later be changed with {passMinterRole}.",
    "kind": "dev",
    "methods": {
      "allowance(address,address)": {
        "details": "See {IERC20-allowance}."
      },
      "approve(address,uint256)": {
        "details": "See {IERC20-approve}. Requirements: - `spender` cannot be the zero address."
      },
      "balanceOf(address)": {
        "details": "See {IERC20-balanceOf}."
      },
      "burn(address,uint256)": {
        "params": {
          "_account": ": address",
          "_amount": ": amount to be burned"
        }
      },
      "decimals()": {
        "details": "Returns the number of decimals used to get its user representation. For example, if `decimals` equals `2`, a balance of `505` tokens should be displayed to a user as `5.05` (`505 / 10 ** 2`). Tokens usually opt for a value of 18, imitating the relationship between Ether and Wei. This is the value {ERC20} uses, unless this function is overridden; NOTE: This information is only used for _display_ purposes: it in no way affects any of the arithmetic of the contract, including {IERC20-balanceOf} and {IERC20-transfer}."
      },
      "decreaseAllowance(address,uint256)": {
        "details": "Atomically decreases the allowance granted to `spender` by the caller. This is an alternative to {approve} that can be used as a mitigation for problems described in {IERC20-approve}. Emits an {Approval} event indicating the updated allowance. Requirements: - `spender` cannot be the zero address. - `spender` must have allowance for the caller of at least `subtractedValue`."
      },
      "increaseAllowance(address,uint256)": {
        "details": "Atomically increases the allowance granted to `spender` by the caller. This is an alternative to {approve} that can be used as a mitigation for problems described in {IERC20-approve}. Emits an {Approval} event indicating the updated allowance. Requirements: - `spender` cannot be the zero address."
      },
      "mint(address,uint256)": {
        "params": {
          "_account": ": receiver's address",
          "_amount": ": amount to be minted"
        }
      },
      "name()": {
        "details": "Returns the name of the token."
      },
      "passMinterRole(address)": {
        "params": {
          "_newMinter": ": new minter's address"
        },
        "returns": {
          "_0": "bool: whether the minter has been changed"
        }
      },
      "symbol()": {
        "details": "Returns the symbol of the token, usually a shorter version of the name."
      },
      "totalSupply()": {
        "details": "See {IERC20-totalSupply}."
      },
      "transfer(address,uint256)": {
        "details": "See {IERC20-transfer}. Requirements: - `recipient` cannot be the zero address. - the caller must have a balance of at least `amount`."
      },
      "transferFrom(address,address,uint256)": {
        "details": "See {IERC20-transferFrom}. Emits an {Approval} event indicating the updated allowance. This is not required by the EIP. See the note at the beginning of {ERC20}. Requirements: - `sender` and `recipient` cannot be the zero address. - `sender` must have a balance of at least `amount`. - the caller must have allowance for ``sender``'s tokens of at least `amount`."
      }
    },
    "version": 1
  },
  "userdoc": {
    "kind": "user",
    "methods": {
      "burn(address,uint256)": {
        "notice": "Burn tokens !!!"
      },
      "constructor": {
        "notice": "use ERC20 constructor and set the owner"
      },
      "mint(address,uint256)": {
        "notice": "Mint tokens !!!"
      },
      "passMinterRole(address)": {
        "notice": "Pass the minter role to a new address, only the owner can change the minter !!!"
      }
    },
    "version": 1
  }
}