{
  "contractName": "EmergencyPool",
  "abi": [
    {
      "inputs": [
        {
          "internalType": "address",
          "name": "_usdcAddress",
          "type": "address"
        }
      ],
      "stateMutability": "nonpayable",
      "type": "constructor"
    },
    {
      "anonymous": false,
      "inputs": [
        {
          "indexed": true,
          "internalType": "address",
          "name": "userAddress",
          "type": "address"
        },
        {
          "indexed": false,
          "internalType": "uint256",
          "name": "amount",
          "type": "uint256"
        }
      ],
      "name": "Deposit",
      "type": "event"
    },
    {
      "anonymous": false,
      "inputs": [
        {
          "indexed": true,
          "internalType": "address",
          "name": "previousOwner",
          "type": "address"
        },
        {
          "indexed": true,
          "internalType": "address",
          "name": "newOwner",
          "type": "address"
        }
      ],
      "name": "OwnershipTransferred",
      "type": "event"
    },
    {
      "anonymous": false,
      "inputs": [
        {
          "indexed": true,
          "internalType": "address",
          "name": "userAddress",
          "type": "address"
        },
        {
          "indexed": false,
          "internalType": "uint256",
          "name": "amount",
          "type": "uint256"
        }
      ],
      "name": "Withdraw",
      "type": "event"
    },
    {
      "inputs": [],
      "name": "USDC_TOKEN",
      "outputs": [
        {
          "internalType": "contract IERC20",
          "name": "",
          "type": "address"
        }
      ],
      "stateMutability": "view",
      "type": "function",
      "constant": true
    },
    {
      "inputs": [],
      "name": "emergencyBalance",
      "outputs": [
        {
          "internalType": "uint256",
          "name": "",
          "type": "uint256"
        }
      ],
      "stateMutability": "view",
      "type": "function",
      "constant": true
    },
    {
      "inputs": [],
      "name": "owner",
      "outputs": [
        {
          "internalType": "address",
          "name": "",
          "type": "address"
        }
      ],
      "stateMutability": "view",
      "type": "function",
      "constant": true
    },
    {
      "inputs": [],
      "name": "renounceOwnership",
      "outputs": [],
      "stateMutability": "nonpayable",
      "type": "function"
    },
    {
      "inputs": [
        {
          "internalType": "address",
          "name": "newOwner",
          "type": "address"
        }
      ],
      "name": "transferOwnership",
      "outputs": [],
      "stateMutability": "nonpayable",
      "type": "function"
    },
    {
      "inputs": [],
      "name": "getPoolName",
      "outputs": [
        {
          "internalType": "string",
          "name": "",
          "type": "string"
        }
      ],
      "stateMutability": "view",
      "type": "function",
      "constant": true
    },
    {
      "inputs": [],
      "name": "getPoolId",
      "outputs": [
        {
          "internalType": "uint256",
          "name": "",
          "type": "uint256"
        }
      ],
      "stateMutability": "view",
      "type": "function",
      "constant": true
    },
    {
      "inputs": [
        {
          "internalType": "address",
          "name": "_userAddress",
          "type": "address"
        },
        {
          "internalType": "uint256",
          "name": "_amount",
          "type": "uint256"
        }
      ],
      "name": "deposit",
      "outputs": [],
      "stateMutability": "nonpayable",
      "type": "function"
    },
    {
      "inputs": [
        {
          "internalType": "address",
          "name": "_userAddress",
          "type": "address"
        },
        {
          "internalType": "uint256",
          "name": "_amount",
          "type": "uint256"
        }
      ],
      "name": "emergencyWithdraw",
      "outputs": [],
      "stateMutability": "nonpayable",
      "type": "function"
    }
  ],
  "bytecode": "0x60806040523480156200001157600080fd5b506040516200195938038062001959833981810160405281019062000037919062000404565b620000576200004b6200013260201b60201c565b6200013a60201b60201c565b6200006833620001fe60201b60201c565b80600160006101000a81548173ffffffffffffffffffffffffffffffffffffffff021916908373ffffffffffffffffffffffffffffffffffffffff160217905550600060028190555060405180604001604052806040518060400160405280601481526020017f446567697320456d657267656e637920506f6f6c000000000000000000000000815250815260200161029a815250600360008201518160000190805190602001906200011d9291906200033d565b50602082015181600101559050505062000609565b600033905090565b60008060009054906101000a900473ffffffffffffffffffffffffffffffffffffffff169050816000806101000a81548173ffffffffffffffffffffffffffffffffffffffff021916908373ffffffffffffffffffffffffffffffffffffffff1602179055508173ffffffffffffffffffffffffffffffffffffffff168173ffffffffffffffffffffffffffffffffffffffff167f8be0079c531659141344cd1fd0a4f28419497f9722a3daafe3b4186f6b6457e060405160405180910390a35050565b6200020e6200013260201b60201c565b73ffffffffffffffffffffffffffffffffffffffff16620002346200031460201b60201c565b73ffffffffffffffffffffffffffffffffffffffff16146200028d576040517f08c379a00000000000000000000000000000000000000000000000000000000081526004016200028490620004a6565b60405180910390fd5b600073ffffffffffffffffffffffffffffffffffffffff168173ffffffffffffffffffffffffffffffffffffffff16141562000300576040517f08c379a0000000000000000000000000000000000000000000000000000000008152600401620002f79062000484565b60405180910390fd5b62000311816200013a60201b60201c565b50565b60008060009054906101000a900473ffffffffffffffffffffffffffffffffffffffff16905090565b8280546200034b906200050d565b90600052602060002090601f0160209004810192826200036f5760008555620003bb565b82601f106200038a57805160ff1916838001178555620003bb565b82800160010185558215620003bb579182015b82811115620003ba5782518255916020019190600101906200039d565b5b509050620003ca9190620003ce565b5090565b5b80821115620003e9576000816000905550600101620003cf565b5090565b600081519050620003fe81620005ef565b92915050565b6000602082840312156200041d576200041c62000572565b5b60006200042d84828501620003ed565b91505092915050565b600062000445602683620004c8565b9150620004528262000577565b604082019050919050565b60006200046c602083620004c8565b91506200047982620005c6565b602082019050919050565b600060208201905081810360008301526200049f8162000436565b9050919050565b60006020820190508181036000830152620004c1816200045d565b9050919050565b600082825260208201905092915050565b6000620004e682620004ed565b9050919050565b600073ffffffffffffffffffffffffffffffffffffffff82169050919050565b600060028204905060018216806200052657607f821691505b602082108114156200053d576200053c62000543565b5b50919050565b7f4e487b7100000000000000000000000000000000000000000000000000000000600052602260045260246000fd5b600080fd5b7f4f776e61626c653a206e6577206f776e657220697320746865207a65726f206160008201527f6464726573730000000000000000000000000000000000000000000000000000602082015250565b7f4f776e61626c653a2063616c6c6572206973206e6f7420746865206f776e6572600082015250565b620005fa81620004d9565b81146200060657600080fd5b50565b61134080620006196000396000f3fe608060405234801561001057600080fd5b50600436106100935760003560e01c80638da5cb5b116100665780638da5cb5b146100fa57806395ccea6714610118578063d299398314610134578063f2fde38b14610152578063fa5692741461016e57610093565b80632741e9f21461009857806338fff2d0146100b657806347e7ef24146100d4578063715018a6146100f0575b600080fd5b6100a061018c565b6040516100ad9190610ef2565b60405180910390f35b6100be610192565b6040516100cb9190610ef2565b60405180910390f35b6100ee60048036038101906100e99190610b4a565b61019f565b005b6100f8610258565b005b6101026102e0565b60405161010f9190610d5a565b60405180910390f35b610132600480360381019061012d9190610b4a565b610309565b005b61013c61043f565b6040516101499190610df0565b60405180910390f35b61016c60048036038101906101679190610b1d565b6104d4565b005b6101766105cc565b6040516101839190610dd5565b60405180910390f35b60025481565b6000600360010154905090565b60008110156101e3576040517f08c379a00000000000000000000000000000000000000000000000000000000081526004016101da90610e32565b60405180910390fd5b80600260008282546101f59190610f3f565b9250508190555061020682826105f2565b8173ffffffffffffffffffffffffffffffffffffffff167fe1fffcc4923d04b559f4d29a8bfc6cda04eb5b0d3c460751c2402c5c5cc9109c8260405161024c9190610ef2565b60405180910390a25050565b610260610645565b73ffffffffffffffffffffffffffffffffffffffff1661027e6102e0565b73ffffffffffffffffffffffffffffffffffffffff16146102d4576040517f08c379a00000000000000000000000000000000000000000000000000000000081526004016102cb90610e72565b60405180910390fd5b6102de600061064d565b565b60008060009054906101000a900473ffffffffffffffffffffffffffffffffffffffff16905090565b610311610645565b73ffffffffffffffffffffffffffffffffffffffff1661032f6102e0565b73ffffffffffffffffffffffffffffffffffffffff1614610385576040517f08c379a000000000000000000000000000000000000000000000000000000000815260040161037c90610e72565b60405180910390fd5b6002548111156103ca576040517f08c379a00000000000000000000000000000000000000000000000000000000081526004016103c190610e92565b60405180910390fd5b80600260008282546103dc9190610f95565b925050819055506103ed8282610711565b8173ffffffffffffffffffffffffffffffffffffffff167f884edad9ce6fa2440d8a54cc123490eb96d2768479d49ff9c7366125a9424364826040516104339190610ef2565b60405180910390a25050565b60606003600001805461045190611068565b80601f016020809104026020016040519081016040528092919081815260200182805461047d90611068565b80156104ca5780601f1061049f576101008083540402835291602001916104ca565b820191906000526020600020905b8154815290600101906020018083116104ad57829003601f168201915b5050505050905090565b6104dc610645565b73ffffffffffffffffffffffffffffffffffffffff166104fa6102e0565b73ffffffffffffffffffffffffffffffffffffffff1614610550576040517f08c379a000000000000000000000000000000000000000000000000000000000815260040161054790610e72565b60405180910390fd5b600073ffffffffffffffffffffffffffffffffffffffff168173ffffffffffffffffffffffffffffffffffffffff1614156105c0576040517f08c379a00000000000000000000000000000000000000000000000000000000081526004016105b790610e12565b60405180910390fd5b6105c98161064d565b50565b600160009054906101000a900473ffffffffffffffffffffffffffffffffffffffff1681565b610641823083600160009054906101000a900473ffffffffffffffffffffffffffffffffffffffff1673ffffffffffffffffffffffffffffffffffffffff16610762909392919063ffffffff16565b5050565b600033905090565b60008060009054906101000a900473ffffffffffffffffffffffffffffffffffffffff169050816000806101000a81548173ffffffffffffffffffffffffffffffffffffffff021916908373ffffffffffffffffffffffffffffffffffffffff1602179055508173ffffffffffffffffffffffffffffffffffffffff168173ffffffffffffffffffffffffffffffffffffffff167f8be0079c531659141344cd1fd0a4f28419497f9722a3daafe3b4186f6b6457e060405160405180910390a35050565b61075e8282600160009054906101000a900473ffffffffffffffffffffffffffffffffffffffff1673ffffffffffffffffffffffffffffffffffffffff166107eb9092919063ffffffff16565b5050565b6107e5846323b872dd60e01b85858560405160240161078393929190610d75565b604051602081830303815290604052907bffffffffffffffffffffffffffffffffffffffffffffffffffffffff19166020820180517bffffffffffffffffffffffffffffffffffffffffffffffffffffffff8381831617835250505050610871565b50505050565b61086c8363a9059cbb60e01b848460405160240161080a929190610dac565b604051602081830303815290604052907bffffffffffffffffffffffffffffffffffffffffffffffffffffffff19166020820180517bffffffffffffffffffffffffffffffffffffffffffffffffffffffff8381831617835250505050610871565b505050565b60006108d3826040518060400160405280602081526020017f5361666545524332303a206c6f772d6c6576656c2063616c6c206661696c65648152508573ffffffffffffffffffffffffffffffffffffffff166109389092919063ffffffff16565b905060008151111561093357808060200190518101906108f39190610b8a565b610932576040517f08c379a000000000000000000000000000000000000000000000000000000000815260040161092990610ed2565b60405180910390fd5b5b505050565b60606109478484600085610950565b90509392505050565b606082471015610995576040517f08c379a000000000000000000000000000000000000000000000000000000000815260040161098c90610e52565b60405180910390fd5b61099e85610a64565b6109dd576040517f08c379a00000000000000000000000000000000000000000000000000000000081526004016109d490610eb2565b60405180910390fd5b6000808673ffffffffffffffffffffffffffffffffffffffff168587604051610a069190610d43565b60006040518083038185875af1925050503d8060008114610a43576040519150601f19603f3d011682016040523d82523d6000602084013e610a48565b606091505b5091509150610a58828286610a77565b92505050949350505050565b600080823b905060008111915050919050565b60608315610a8757829050610ad7565b600083511115610a9a5782518084602001fd5b816040517f08c379a0000000000000000000000000000000000000000000000000000000008152600401610ace9190610df0565b60405180910390fd5b9392505050565b600081359050610aed816112c5565b92915050565b600081519050610b02816112dc565b92915050565b600081359050610b17816112f3565b92915050565b600060208284031215610b3357610b326110f8565b5b6000610b4184828501610ade565b91505092915050565b60008060408385031215610b6157610b606110f8565b5b6000610b6f85828601610ade565b9250506020610b8085828601610b08565b9150509250929050565b600060208284031215610ba057610b9f6110f8565b5b6000610bae84828501610af3565b91505092915050565b610bc081610fc9565b82525050565b6000610bd182610f0d565b610bdb8185610f23565b9350610beb818560208601611035565b80840191505092915050565b610c0081611011565b82525050565b6000610c1182610f18565b610c1b8185610f2e565b9350610c2b818560208601611035565b610c34816110fd565b840191505092915050565b6000610c4c602683610f2e565b9150610c578261110e565b604082019050919050565b6000610c6f601983610f2e565b9150610c7a8261115d565b602082019050919050565b6000610c92602683610f2e565b9150610c9d82611186565b604082019050919050565b6000610cb5602083610f2e565b9150610cc0826111d5565b602082019050919050565b6000610cd8602183610f2e565b9150610ce3826111fe565b604082019050919050565b6000610cfb601d83610f2e565b9150610d068261124d565b602082019050919050565b6000610d1e602a83610f2e565b9150610d2982611276565b604082019050919050565b610d3d81611007565b82525050565b6000610d4f8284610bc6565b915081905092915050565b6000602082019050610d6f6000830184610bb7565b92915050565b6000606082019050610d8a6000830186610bb7565b610d976020830185610bb7565b610da46040830184610d34565b949350505050565b6000604082019050610dc16000830185610bb7565b610dce6020830184610d34565b9392505050565b6000602082019050610dea6000830184610bf7565b92915050565b60006020820190508181036000830152610e0a8184610c06565b905092915050565b60006020820190508181036000830152610e2b81610c3f565b9050919050565b60006020820190508181036000830152610e4b81610c62565b9050919050565b60006020820190508181036000830152610e6b81610c85565b9050919050565b60006020820190508181036000830152610e8b81610ca8565b9050919050565b60006020820190508181036000830152610eab81610ccb565b9050919050565b60006020820190508181036000830152610ecb81610cee565b9050919050565b60006020820190508181036000830152610eeb81610d11565b9050919050565b6000602082019050610f076000830184610d34565b92915050565b600081519050919050565b600081519050919050565b600081905092915050565b600082825260208201905092915050565b6000610f4a82611007565b9150610f5583611007565b9250827fffffffffffffffffffffffffffffffffffffffffffffffffffffffffffffffff03821115610f8a57610f8961109a565b5b828201905092915050565b6000610fa082611007565b9150610fab83611007565b925082821015610fbe57610fbd61109a565b5b828203905092915050565b6000610fd482610fe7565b9050919050565b60008115159050919050565b600073ffffffffffffffffffffffffffffffffffffffff82169050919050565b6000819050919050565b600061101c82611023565b9050919050565b600061102e82610fe7565b9050919050565b60005b83811015611053578082015181840152602081019050611038565b83811115611062576000848401525b50505050565b6000600282049050600182168061108057607f821691505b60208210811415611094576110936110c9565b5b50919050565b7f4e487b7100000000000000000000000000000000000000000000000000000000600052601160045260246000fd5b7f4e487b7100000000000000000000000000000000000000000000000000000000600052602260045260246000fd5b600080fd5b6000601f19601f8301169050919050565b7f4f776e61626c653a206e6577206f776e657220697320746865207a65726f206160008201527f6464726573730000000000000000000000000000000000000000000000000000602082015250565b7f506c65617365206465706f73697420736f6d652066756e647300000000000000600082015250565b7f416464726573733a20696e73756666696369656e742062616c616e636520666f60008201527f722063616c6c0000000000000000000000000000000000000000000000000000602082015250565b7f4f776e61626c653a2063616c6c6572206973206e6f7420746865206f776e6572600082015250565b7f6e6f7420656e6f7567682062616c616e636520746f20626520756e6c6f636b6560008201527f6400000000000000000000000000000000000000000000000000000000000000602082015250565b7f416464726573733a2063616c6c20746f206e6f6e2d636f6e7472616374000000600082015250565b7f5361666545524332303a204552433230206f7065726174696f6e20646964206e60008201527f6f74207375636365656400000000000000000000000000000000000000000000602082015250565b6112ce81610fc9565b81146112d957600080fd5b50565b6112e581610fdb565b81146112f057600080fd5b50565b6112fc81611007565b811461130757600080fd5b5056fea2646970667358221220a9ef67af0603d4bb77f7678063373d2a715570f8f9f0dc725b40038a9867bb3164736f6c63430008050033",
  "immutableReferences": {},
  "source": "// SPDX-License-Identifier: MIT\r\npragma solidity ^0.8.0;\r\n\r\nimport \"@openzeppelin/contracts/access/Ownable.sol\";\r\nimport \"@openzeppelin/contracts/token/ERC20/utils/SafeERC20.sol\";\r\n\r\ncontract EmergencyPool is Ownable {\r\n    using SafeERC20 for IERC20;\r\n\r\n    // This is the address of USDC (maybe usd-anything).\r\n    IERC20 public USDC_TOKEN;\r\n\r\n    // Token balance for emergency\r\n    uint256 public emergencyBalance;\r\n\r\n    // PoolInfo: the information about this pool\r\n    struct PoolInfo {\r\n        string poolName;\r\n        uint256 poolId;\r\n    }\r\n\r\n    PoolInfo poolInfo;\r\n\r\n    constructor(address _usdcAddress) {\r\n        transferOwnership(msg.sender);\r\n        USDC_TOKEN = IERC20(_usdcAddress);\r\n        emergencyBalance = 0; // You do not need to initialize an uint as 0\r\n        poolInfo = PoolInfo(\"Degis Emergency Pool\", 666);\r\n    }\r\n\r\n    event Deposit(address indexed userAddress, uint256 amount);\r\n    event Withdraw(address indexed userAddress, uint256 amount);\r\n\r\n    /**\r\n     * @notice view function, show the pool's name\r\n     */\r\n    function getPoolName() public view returns (string memory) {\r\n        return poolInfo.poolName;\r\n    }\r\n    /**\r\n     * @notice view function, show the pool's id\r\n     */\r\n    function getPoolId() public view returns (uint256) {\r\n        return poolInfo.poolId;\r\n    }\r\n\r\n    \r\n    /**\r\n     * @notice stake into the pool\r\n     * @param _userAddress: user's address\r\n     * @param _amount: the amount that the user want to stake\r\n     */\r\n    function deposit(address _userAddress, uint256 _amount) external {\r\n        require(_amount >= 0, \"Please deposit some funds\");\r\n        emergencyBalance += _amount;\r\n        _deposit(_userAddress, _amount);\r\n        emit Deposit(_userAddress, _amount);\r\n    }\r\n\r\n    /**\r\n     * @notice emergencyWithdraw: unstake the asset (only by the owner)\r\n     * @param _userAddress: user's address\r\n     * @param _amount: the amount that the user want to unstake\r\n     */\r\n    // the ownership need to be transferred to another contract in the future\r\n    function emergencyWithdraw(address _userAddress, uint256 _amount)\r\n        external\r\n        onlyOwner\r\n    {\r\n        require(\r\n            _amount <= emergencyBalance,\r\n            \"not enough balance to be unlocked\"\r\n        );\r\n        emergencyBalance -= _amount;\r\n        _withdraw(_userAddress, _amount);\r\n        emit Withdraw(_userAddress, _amount);\r\n    }\r\n\r\n    /**\r\n     * @notice finish the deposit process\r\n     * @param _userAddress: address of the user who deposits\r\n     * @param _amount: the amount he deposits\r\n     */\r\n    function _deposit(address _userAddress, uint256 _amount) internal {\r\n        USDC_TOKEN.safeTransferFrom(_userAddress, address(this), _amount);\r\n    }\r\n\r\n    /**\r\n     * @notice _withdraw: finish the withdraw action, only when meeting the conditions\r\n     * @param _userAddress: address of the user who withdraws\r\n     * @param _amount: the amount he withdraws\r\n     */\r\n    function _withdraw(address _userAddress, uint256 _amount) internal {\r\n        // \r\n        // ERC20  usdc/dai\r\n        USDC_TOKEN.safeTransfer(_userAddress, _amount);\r\n    }\r\n\r\n}\r\n",
  "sourcePath": "D:\\src\\Degis-Contracts-1\\contracts\\EmergencyPool.sol",
  "compiler": {
    "name": "solc",
    "version": "0.8.5+commit.a4f2e591.Emscripten.clang"
  },
  "schemaVersion": "3.4.3",
  "updatedAt": "2021-10-13T08:16:27.986Z",
  "networkType": "ethereum",
  "devdoc": {
    "kind": "dev",
    "methods": {
      "deposit(address,uint256)": {
        "params": {
          "_amount": ": the amount that the user want to stake",
          "_userAddress": ": user's address"
        }
      },
      "emergencyWithdraw(address,uint256)": {
        "params": {
          "_amount": ": the amount that the user want to unstake",
          "_userAddress": ": user's address"
        }
      },
      "owner()": {
        "details": "Returns the address of the current owner."
      },
      "renounceOwnership()": {
        "details": "Leaves the contract without owner. It will not be possible to call `onlyOwner` functions anymore. Can only be called by the current owner. NOTE: Renouncing ownership will leave the contract without an owner, thereby removing any functionality that is only available to the owner."
      },
      "transferOwnership(address)": {
        "details": "Transfers ownership of the contract to a new account (`newOwner`). Can only be called by the current owner."
      }
    },
    "version": 1
  },
  "userdoc": {
    "kind": "user",
    "methods": {
      "deposit(address,uint256)": {
        "notice": "stake into the pool"
      },
      "emergencyWithdraw(address,uint256)": {
        "notice": "emergencyWithdraw: unstake the asset (only by the owner)"
      },
      "getPoolId()": {
        "notice": "view function, show the pool's id"
      },
      "getPoolName()": {
        "notice": "view function, show the pool's name"
      }
    },
    "version": 1
  }
}