{
  "contractName": "GetRandomness",
  "abi": [
    {
      "inputs": [
        {
          "internalType": "address",
          "name": "_VRFConsumer",
          "type": "address"
        },
        {
          "internalType": "address",
          "name": "_LINKToken",
          "type": "address"
        },
        {
          "internalType": "bytes32",
          "name": "_keyHash",
          "type": "bytes32"
        }
      ],
      "stateMutability": "nonpayable",
      "type": "constructor"
    },
    {
      "anonymous": false,
      "inputs": [
        {
          "indexed": false,
          "internalType": "bytes32",
          "name": "",
          "type": "bytes32"
        },
        {
          "indexed": false,
          "internalType": "uint256",
          "name": "",
          "type": "uint256"
        }
      ],
      "name": "ReceiveRandomness",
      "type": "event"
    },
    {
      "anonymous": false,
      "inputs": [
        {
          "indexed": false,
          "internalType": "bytes32",
          "name": "",
          "type": "bytes32"
        }
      ],
      "name": "SendRequest",
      "type": "event"
    },
    {
      "inputs": [],
      "name": "LINKToken",
      "outputs": [
        {
          "internalType": "address",
          "name": "",
          "type": "address"
        }
      ],
      "stateMutability": "view",
      "type": "function",
      "constant": true
    },
    {
      "inputs": [],
      "name": "VRFCoordinator",
      "outputs": [
        {
          "internalType": "address",
          "name": "",
          "type": "address"
        }
      ],
      "stateMutability": "view",
      "type": "function",
      "constant": true
    },
    {
      "inputs": [],
      "name": "owner",
      "outputs": [
        {
          "internalType": "address",
          "name": "",
          "type": "address"
        }
      ],
      "stateMutability": "view",
      "type": "function",
      "constant": true
    },
    {
      "inputs": [],
      "name": "randomResult",
      "outputs": [
        {
          "internalType": "uint256",
          "name": "",
          "type": "uint256"
        }
      ],
      "stateMutability": "view",
      "type": "function",
      "constant": true
    },
    {
      "inputs": [
        {
          "internalType": "bytes32",
          "name": "requestId",
          "type": "bytes32"
        },
        {
          "internalType": "uint256",
          "name": "randomness",
          "type": "uint256"
        }
      ],
      "name": "rawFulfillRandomness",
      "outputs": [],
      "stateMutability": "nonpayable",
      "type": "function"
    },
    {
      "inputs": [],
      "name": "getRandomNumber",
      "outputs": [
        {
          "internalType": "bytes32",
          "name": "",
          "type": "bytes32"
        }
      ],
      "stateMutability": "nonpayable",
      "type": "function"
    }
  ],
  "bytecode": "0x60c06040523480156200001157600080fd5b5060405162000da338038062000da38339818101604052810190620000379190620001b9565b82828173ffffffffffffffffffffffffffffffffffffffff1660a08173ffffffffffffffffffffffffffffffffffffffff1660601b815250508073ffffffffffffffffffffffffffffffffffffffff1660808173ffffffffffffffffffffffffffffffffffffffff1660601b81525050505033600160006101000a81548173ffffffffffffffffffffffffffffffffffffffff021916908373ffffffffffffffffffffffffffffffffffffffff16021790555081600260006101000a81548173ffffffffffffffffffffffffffffffffffffffff021916908373ffffffffffffffffffffffffffffffffffffffff16021790555082600360006101000a81548173ffffffffffffffffffffffffffffffffffffffff021916908373ffffffffffffffffffffffffffffffffffffffff16021790555067016345785d8a0000600481905550806005819055505050506200028c565b6000815190506200019c8162000258565b92915050565b600081519050620001b38162000272565b92915050565b600080600060608486031215620001d557620001d462000253565b5b6000620001e5868287016200018b565b9350506020620001f8868287016200018b565b92505060406200020b86828701620001a2565b9150509250925092565b6000620002228262000233565b9050919050565b6000819050919050565b600073ffffffffffffffffffffffffffffffffffffffff82169050919050565b600080fd5b620002638162000215565b81146200026f57600080fd5b50565b6200027d8162000229565b81146200028957600080fd5b50565b60805160601c60a05160601c610add620002c66000396000818161016d01526103f001526000818161020e01526103b40152610add6000f3fe608060405234801561001057600080fd5b50600436106100625760003560e01c806333b608631461006757806342619f66146100855780638da5cb5b146100a357806394985ddd146100c1578063dbdff2c1146100dd578063f4e9775d146100fb575b600080fd5b61006f610119565b60405161007c9190610772565b60405180910390f35b61008d61013f565b60405161009a9190610894565b60405180910390f35b6100ab610145565b6040516100b89190610772565b60405180910390f35b6100db60048036038101906100d691906105ff565b61016b565b005b6100e5610207565b6040516100f291906107cb565b60405180910390f35b610103610346565b6040516101109190610772565b60405180910390f35b600360009054906101000a900473ffffffffffffffffffffffffffffffffffffffff1681565b60065481565b600160009054906101000a900473ffffffffffffffffffffffffffffffffffffffff1681565b7f000000000000000000000000000000000000000000000000000000000000000073ffffffffffffffffffffffffffffffffffffffff163373ffffffffffffffffffffffffffffffffffffffff16146101f9576040517f08c379a00000000000000000000000000000000000000000000000000000000081526004016101f090610854565b60405180910390fd5b610203828261036c565b5050565b60006004547f000000000000000000000000000000000000000000000000000000000000000073ffffffffffffffffffffffffffffffffffffffff166370a08231306040518263ffffffff1660e01b81526004016102659190610772565b60206040518083038186803b15801561027d57600080fd5b505afa158015610291573d6000803e3d6000fd5b505050506040513d601f19601f820116820180604052508101906102b5919061063f565b10156102f6576040517f08c379a00000000000000000000000000000000000000000000000000000000081526004016102ed90610874565b60405180910390fd5b60006103066005546004546103b0565b90507fd11ddc602b8d2d1f29cf2e7b2756c11c080240f5f9a60a0eb5216264a00971d48160405161033791906107cb565b60405180910390a18091505090565b600260009054906101000a900473ffffffffffffffffffffffffffffffffffffffff1681565b806006819055507f55ebf4d7500fc6be00b2164228c69aa12dc4c749361b78901eb3a1987c99341582826040516103a49291906107e6565b60405180910390a15050565b60007f000000000000000000000000000000000000000000000000000000000000000073ffffffffffffffffffffffffffffffffffffffff16634000aea07f0000000000000000000000000000000000000000000000000000000000000000848660006040516020016104249291906107e6565b6040516020818303038152906040526040518463ffffffff1660e01b81526004016104519392919061078d565b602060405180830381600087803b15801561046b57600080fd5b505af115801561047f573d6000803e3d6000fd5b505050506040513d601f19601f820116820180604052508101906104a391906105d2565b5060006104c5846000306000808981526020019081526020016000205461050f565b90506001600080868152602001908152602001600020546104e691906108dc565b60008086815260200190815260200160002081905550610506848261054b565b91505092915050565b600084848484604051602001610528949392919061080f565b6040516020818303038152906040528051906020012060001c9050949350505050565b60008282604051602001610560929190610746565b60405160208183030381529060405280519060200120905092915050565b60008151905061058d81610a62565b92915050565b6000813590506105a281610a79565b92915050565b6000813590506105b781610a90565b92915050565b6000815190506105cc81610a90565b92915050565b6000602082840312156105e8576105e76109fa565b5b60006105f68482850161057e565b91505092915050565b60008060408385031215610616576106156109fa565b5b600061062485828601610593565b9250506020610635858286016105a8565b9150509250929050565b600060208284031215610655576106546109fa565b5b6000610663848285016105bd565b91505092915050565b61067581610932565b82525050565b61068481610950565b82525050565b61069b61069682610950565b6109b7565b82525050565b60006106ac826108af565b6106b681856108ba565b93506106c6818560208601610984565b6106cf816109ff565b840191505092915050565b60006106e7601f836108cb565b91506106f282610a10565b602082019050919050565b600061070a600f836108cb565b915061071582610a39565b602082019050919050565b6107298161097a565b82525050565b61074061073b8261097a565b6109c1565b82525050565b6000610752828561068a565b602082019150610762828461072f565b6020820191508190509392505050565b6000602082019050610787600083018461066c565b92915050565b60006060820190506107a2600083018661066c565b6107af6020830185610720565b81810360408301526107c181846106a1565b9050949350505050565b60006020820190506107e0600083018461067b565b92915050565b60006040820190506107fb600083018561067b565b6108086020830184610720565b9392505050565b6000608082019050610824600083018761067b565b6108316020830186610720565b61083e604083018561066c565b61084b6060830184610720565b95945050505050565b6000602082019050818103600083015261086d816106da565b9050919050565b6000602082019050818103600083015261088d816106fd565b9050919050565b60006020820190506108a96000830184610720565b92915050565b600081519050919050565b600082825260208201905092915050565b600082825260208201905092915050565b60006108e78261097a565b91506108f28361097a565b9250827fffffffffffffffffffffffffffffffffffffffffffffffffffffffffffffffff03821115610927576109266109cb565b5b828201905092915050565b600061093d8261095a565b9050919050565b60008115159050919050565b6000819050919050565b600073ffffffffffffffffffffffffffffffffffffffff82169050919050565b6000819050919050565b60005b838110156109a2578082015181840152602081019050610987565b838111156109b1576000848401525b50505050565b6000819050919050565b6000819050919050565b7f4e487b7100000000000000000000000000000000000000000000000000000000600052601160045260246000fd5b600080fd5b6000601f19601f8301169050919050565b7f4f6e6c7920565246436f6f7264696e61746f722063616e2066756c66696c6c00600082015250565b7f6e6f7420656e6f756768204c494e4b0000000000000000000000000000000000600082015250565b610a6b81610944565b8114610a7657600080fd5b50565b610a8281610950565b8114610a8d57600080fd5b50565b610a998161097a565b8114610aa457600080fd5b5056fea264697066735822122050229d38be2bc859f0a20f3db4596fbc21d8126f80052e7c3ee69f0d7a9af8d964736f6c63430008050033",
  "immutableReferences": {
    "873": [
      {
        "length": 32,
        "start": 526
      },
      {
        "length": 32,
        "start": 948
      }
    ],
    "875": [
      {
        "length": 32,
        "start": 365
      },
      {
        "length": 32,
        "start": 1008
      }
    ]
  },
  "source": "// SPDX-License-Identifier: MIT\r\npragma solidity ^0.8.0;\r\n\r\nimport \"@chainlink/contracts/src/v0.8/VRFConsumerBase.sol\"; // test version. use random number for test\r\n\r\ncontract GetRandomness is VRFConsumerBase {\r\n    // The owner of this address\r\n    address public owner;\r\n\r\n    // LINK Token address on rinkeby: 0x01BE23585060835E02B77ef475b0Cc51aA1e0709\r\n    address public LINKToken;\r\n\r\n    // VRF Consumer on rinkeby: 0xb3dCcb4Cf7a26f6cf6B120Cf5A73875B7BBc655B\r\n    address public VRFCoordinator;\r\n\r\n    // Used for chainlink request\r\n    uint256 internal fee;\r\n    bytes32 internal keyHash;\r\n\r\n    // The random number result\r\n    uint256 public randomResult;\r\n\r\n    event ReceiveRandomness(bytes32, uint256);\r\n    event SendRequest(bytes32);\r\n\r\n    constructor(\r\n        address _VRFConsumer,\r\n        address _LINKToken,\r\n        bytes32 _keyHash\r\n    ) VRFConsumerBase(_VRFConsumer, _LINKToken) {\r\n        owner = msg.sender;\r\n        LINKToken = _LINKToken;\r\n        VRFCoordinator = _VRFConsumer;\r\n        fee = 0.1 * 10**18; // 0.1 LINK per request\r\n        keyHash = _keyHash;\r\n    }\r\n\r\n    function getRandomNumber() public returns (bytes32) {\r\n        require(LINK.balanceOf(address(this)) >= fee, \"not enough LINK\");\r\n        bytes32 requestId = requestRandomness(keyHash, fee);\r\n        emit SendRequest(requestId);\r\n        return requestId;\r\n    }\r\n\r\n    function fulfillRandomness(bytes32 _requestId, uint256 _randomness)\r\n        internal\r\n        override\r\n    {\r\n        randomResult = _randomness;\r\n        emit ReceiveRandomness(_requestId, _randomness);\r\n    }\r\n}\r\n",
  "sourcePath": "D:\\src\\Degis-Contracts-1\\contracts\\GetRandomness.sol",
  "compiler": {
    "name": "solc",
    "version": "0.8.5+commit.a4f2e591.Emscripten.clang"
  },
  "schemaVersion": "3.4.3",
  "updatedAt": "2021-10-13T08:16:27.931Z",
  "networkType": "ethereum",
  "devdoc": {
    "kind": "dev",
    "methods": {},
    "version": 1
  },
  "userdoc": {
    "kind": "user",
    "methods": {},
    "version": 1
  }
}