{
  "contractName": "InsurancePool",
  "abi": [
    {
      "inputs": [
        {
          "internalType": "uint256",
          "name": "_factor",
          "type": "uint256"
        },
        {
          "internalType": "contract IDegisToken",
          "name": "_degis",
          "type": "address"
        },
        {
          "internalType": "contract IEmergencyPool",
          "name": "_emergencyPool",
          "type": "address"
        },
        {
          "internalType": "contract ILPToken",
          "name": "_lptoken",
          "type": "address"
        },
        {
          "internalType": "address",
          "name": "_lotteryPool",
          "type": "address"
        },
        {
          "internalType": "address",
          "name": "_usdcAddress",
          "type": "address"
        },
        {
          "internalType": "uint256",
          "name": "_degisPerBlock",
          "type": "uint256"
        }
      ],
      "stateMutability": "nonpayable",
      "type": "constructor"
    },
    {
      "inputs": [
        {
          "internalType": "uint256",
          "name": "prod1",
          "type": "uint256"
        }
      ],
      "name": "PRBMath__MulDivFixedPointOverflow",
      "type": "error"
    },
    {
      "inputs": [
        {
          "internalType": "uint256",
          "name": "prod1",
          "type": "uint256"
        },
        {
          "internalType": "uint256",
          "name": "denominator",
          "type": "uint256"
        }
      ],
      "name": "PRBMath__MulDivOverflow",
      "type": "error"
    },
    {
      "anonymous": false,
      "inputs": [
        {
          "indexed": true,
          "internalType": "address",
          "name": "userAddress",
          "type": "address"
        },
        {
          "indexed": false,
          "internalType": "uint256",
          "name": "premium",
          "type": "uint256"
        },
        {
          "indexed": false,
          "internalType": "uint256",
          "name": "payout",
          "type": "uint256"
        }
      ],
      "name": "BuyNewPolicy",
      "type": "event"
    },
    {
      "anonymous": false,
      "inputs": [
        {
          "indexed": true,
          "internalType": "address",
          "name": "onwerAddress",
          "type": "address"
        },
        {
          "indexed": false,
          "internalType": "uint256",
          "name": "factor",
          "type": "uint256"
        }
      ],
      "name": "ChangeCollateralFactor",
      "type": "event"
    },
    {
      "anonymous": false,
      "inputs": [
        {
          "indexed": false,
          "internalType": "address",
          "name": "oldOwner",
          "type": "address"
        },
        {
          "indexed": false,
          "internalType": "address",
          "name": "newOwner",
          "type": "address"
        }
      ],
      "name": "OwnerChanged",
      "type": "event"
    },
    {
      "anonymous": false,
      "inputs": [
        {
          "indexed": false,
          "internalType": "address",
          "name": "_policyFlowAddress",
          "type": "address"
        }
      ],
      "name": "SetPolicyFlow",
      "type": "event"
    },
    {
      "anonymous": false,
      "inputs": [
        {
          "indexed": true,
          "internalType": "address",
          "name": "userAddress",
          "type": "address"
        },
        {
          "indexed": false,
          "internalType": "uint256",
          "name": "amount",
          "type": "uint256"
        }
      ],
      "name": "Stake",
      "type": "event"
    },
    {
      "anonymous": false,
      "inputs": [
        {
          "indexed": true,
          "internalType": "address",
          "name": "userAddress",
          "type": "address"
        },
        {
          "indexed": false,
          "internalType": "uint256",
          "name": "amount",
          "type": "uint256"
        }
      ],
      "name": "Unstake",
      "type": "event"
    },
    {
      "inputs": [],
      "name": "DEGIS",
      "outputs": [
        {
          "internalType": "contract IDegisToken",
          "name": "",
          "type": "address"
        }
      ],
      "stateMutability": "view",
      "type": "function",
      "constant": true
    },
    {
      "inputs": [],
      "name": "DLPToken",
      "outputs": [
        {
          "internalType": "contract ILPToken",
          "name": "",
          "type": "address"
        }
      ],
      "stateMutability": "view",
      "type": "function",
      "constant": true
    },
    {
      "inputs": [],
      "name": "LPValue",
      "outputs": [
        {
          "internalType": "uint256",
          "name": "",
          "type": "uint256"
        }
      ],
      "stateMutability": "view",
      "type": "function",
      "constant": true
    },
    {
      "inputs": [],
      "name": "PRB_lockedRatio",
      "outputs": [
        {
          "internalType": "uint256",
          "name": "",
          "type": "uint256"
        }
      ],
      "stateMutability": "view",
      "type": "function",
      "constant": true
    },
    {
      "inputs": [],
      "name": "USDC_TOKEN",
      "outputs": [
        {
          "internalType": "contract IERC20",
          "name": "",
          "type": "address"
        }
      ],
      "stateMutability": "view",
      "type": "function",
      "constant": true
    },
    {
      "inputs": [],
      "name": "activePremiums",
      "outputs": [
        {
          "internalType": "uint256",
          "name": "",
          "type": "uint256"
        }
      ],
      "stateMutability": "view",
      "type": "function",
      "constant": true
    },
    {
      "inputs": [],
      "name": "availableCapacity",
      "outputs": [
        {
          "internalType": "uint256",
          "name": "",
          "type": "uint256"
        }
      ],
      "stateMutability": "view",
      "type": "function",
      "constant": true
    },
    {
      "inputs": [],
      "name": "collateralFactor",
      "outputs": [
        {
          "internalType": "uint256",
          "name": "",
          "type": "uint256"
        }
      ],
      "stateMutability": "view",
      "type": "function",
      "constant": true
    },
    {
      "inputs": [],
      "name": "currentStakingBalance",
      "outputs": [
        {
          "internalType": "uint256",
          "name": "",
          "type": "uint256"
        }
      ],
      "stateMutability": "view",
      "type": "function",
      "constant": true
    },
    {
      "inputs": [],
      "name": "emergencyPool",
      "outputs": [
        {
          "internalType": "contract IEmergencyPool",
          "name": "",
          "type": "address"
        }
      ],
      "stateMutability": "view",
      "type": "function",
      "constant": true
    },
    {
      "inputs": [],
      "name": "lockedBalance",
      "outputs": [
        {
          "internalType": "uint256",
          "name": "",
          "type": "uint256"
        }
      ],
      "stateMutability": "view",
      "type": "function",
      "constant": true
    },
    {
      "inputs": [],
      "name": "lotteryPool",
      "outputs": [
        {
          "internalType": "address",
          "name": "",
          "type": "address"
        }
      ],
      "stateMutability": "view",
      "type": "function",
      "constant": true
    },
    {
      "inputs": [],
      "name": "owner",
      "outputs": [
        {
          "internalType": "address",
          "name": "",
          "type": "address"
        }
      ],
      "stateMutability": "view",
      "type": "function",
      "constant": true
    },
    {
      "inputs": [],
      "name": "policyFlow",
      "outputs": [
        {
          "internalType": "address",
          "name": "",
          "type": "address"
        }
      ],
      "stateMutability": "view",
      "type": "function",
      "constant": true
    },
    {
      "inputs": [],
      "name": "realStakingBalance",
      "outputs": [
        {
          "internalType": "uint256",
          "name": "",
          "type": "uint256"
        }
      ],
      "stateMutability": "view",
      "type": "function",
      "constant": true
    },
    {
      "inputs": [],
      "name": "rewardCollected",
      "outputs": [
        {
          "internalType": "uint256",
          "name": "",
          "type": "uint256"
        }
      ],
      "stateMutability": "view",
      "type": "function",
      "constant": true
    },
    {
      "inputs": [],
      "name": "getLockedRatio",
      "outputs": [
        {
          "internalType": "uint256",
          "name": "",
          "type": "uint256"
        }
      ],
      "stateMutability": "view",
      "type": "function",
      "constant": true
    },
    {
      "inputs": [],
      "name": "getAccDegisPerShare",
      "outputs": [
        {
          "internalType": "uint256",
          "name": "",
          "type": "uint256"
        }
      ],
      "stateMutability": "view",
      "type": "function",
      "constant": true
    },
    {
      "inputs": [],
      "name": "getRewardCollected",
      "outputs": [
        {
          "internalType": "uint256",
          "name": "",
          "type": "uint256"
        }
      ],
      "stateMutability": "view",
      "type": "function",
      "constant": true
    },
    {
      "inputs": [],
      "name": "getTotalLocked",
      "outputs": [
        {
          "internalType": "uint256",
          "name": "",
          "type": "uint256"
        }
      ],
      "stateMutability": "view",
      "type": "function",
      "constant": true
    },
    {
      "inputs": [],
      "name": "getCollateralFactor",
      "outputs": [
        {
          "internalType": "uint256",
          "name": "",
          "type": "uint256"
        }
      ],
      "stateMutability": "view",
      "type": "function",
      "constant": true
    },
    {
      "inputs": [
        {
          "internalType": "address",
          "name": "_userAddress",
          "type": "address"
        }
      ],
      "name": "pendingDegis",
      "outputs": [
        {
          "internalType": "uint256",
          "name": "",
          "type": "uint256"
        }
      ],
      "stateMutability": "view",
      "type": "function",
      "constant": true
    },
    {
      "inputs": [
        {
          "internalType": "address",
          "name": "_userAddress",
          "type": "address"
        }
      ],
      "name": "pendingPremium",
      "outputs": [
        {
          "internalType": "uint256",
          "name": "",
          "type": "uint256"
        }
      ],
      "stateMutability": "view",
      "type": "function",
      "constant": true
    },
    {
      "inputs": [],
      "name": "getPoolName",
      "outputs": [
        {
          "internalType": "string",
          "name": "",
          "type": "string"
        }
      ],
      "stateMutability": "view",
      "type": "function",
      "constant": true
    },
    {
      "inputs": [],
      "name": "getAvailableCapacity",
      "outputs": [
        {
          "internalType": "uint256",
          "name": "",
          "type": "uint256"
        }
      ],
      "stateMutability": "view",
      "type": "function",
      "constant": true
    },
    {
      "inputs": [],
      "name": "getCurrentStakingBalance",
      "outputs": [
        {
          "internalType": "uint256",
          "name": "",
          "type": "uint256"
        }
      ],
      "stateMutability": "view",
      "type": "function",
      "constant": true
    },
    {
      "inputs": [
        {
          "internalType": "address",
          "name": "_userAddress",
          "type": "address"
        }
      ],
      "name": "getRealBalance",
      "outputs": [
        {
          "internalType": "uint256",
          "name": "",
          "type": "uint256"
        }
      ],
      "stateMutability": "view",
      "type": "function",
      "constant": true
    },
    {
      "inputs": [
        {
          "internalType": "address",
          "name": "_userAddress",
          "type": "address"
        }
      ],
      "name": "getStakeAmount",
      "outputs": [
        {
          "internalType": "uint256",
          "name": "",
          "type": "uint256"
        }
      ],
      "stateMutability": "view",
      "type": "function",
      "constant": true
    },
    {
      "inputs": [],
      "name": "getPoolUnlocked",
      "outputs": [
        {
          "internalType": "uint256",
          "name": "",
          "type": "uint256"
        }
      ],
      "stateMutability": "view",
      "type": "function",
      "constant": true
    },
    {
      "inputs": [
        {
          "internalType": "address",
          "name": "_userAddress",
          "type": "address"
        }
      ],
      "name": "getUnlockedfor",
      "outputs": [
        {
          "internalType": "uint256",
          "name": "",
          "type": "uint256"
        }
      ],
      "stateMutability": "view",
      "type": "function",
      "constant": true
    },
    {
      "inputs": [
        {
          "internalType": "address",
          "name": "_userAddress",
          "type": "address"
        }
      ],
      "name": "getLockedfor",
      "outputs": [
        {
          "internalType": "uint256",
          "name": "",
          "type": "uint256"
        }
      ],
      "stateMutability": "view",
      "type": "function",
      "constant": true
    },
    {
      "inputs": [
        {
          "internalType": "address",
          "name": "_policyFlowAddress",
          "type": "address"
        }
      ],
      "name": "setPolicyFlow",
      "outputs": [],
      "stateMutability": "nonpayable",
      "type": "function"
    },
    {
      "inputs": [
        {
          "internalType": "address",
          "name": "_newOwner",
          "type": "address"
        }
      ],
      "name": "transferOwnerShip",
      "outputs": [],
      "stateMutability": "nonpayable",
      "type": "function"
    },
    {
      "inputs": [
        {
          "internalType": "uint256",
          "name": "_factor",
          "type": "uint256"
        }
      ],
      "name": "setCollateralFactor",
      "outputs": [],
      "stateMutability": "nonpayable",
      "type": "function"
    },
    {
      "inputs": [
        {
          "internalType": "uint256",
          "name": "_premium",
          "type": "uint256"
        },
        {
          "internalType": "uint256",
          "name": "_payoff",
          "type": "uint256"
        },
        {
          "internalType": "address",
          "name": "_userAddress",
          "type": "address"
        }
      ],
      "name": "updateWhenBuy",
      "outputs": [
        {
          "internalType": "bool",
          "name": "",
          "type": "bool"
        }
      ],
      "stateMutability": "nonpayable",
      "type": "function"
    },
    {
      "inputs": [
        {
          "internalType": "address",
          "name": "_userAddress",
          "type": "address"
        },
        {
          "internalType": "uint256",
          "name": "_amount",
          "type": "uint256"
        }
      ],
      "name": "stake",
      "outputs": [],
      "stateMutability": "nonpayable",
      "type": "function"
    },
    {
      "inputs": [
        {
          "internalType": "address",
          "name": "_userAddress",
          "type": "address"
        },
        {
          "internalType": "uint256",
          "name": "_amount",
          "type": "uint256"
        }
      ],
      "name": "unstake",
      "outputs": [],
      "stateMutability": "nonpayable",
      "type": "function"
    },
    {
      "inputs": [
        {
          "internalType": "uint256",
          "name": "_premium",
          "type": "uint256"
        },
        {
          "internalType": "uint256",
          "name": "_payoff",
          "type": "uint256"
        }
      ],
      "name": "updateWhenExpire",
      "outputs": [],
      "stateMutability": "nonpayable",
      "type": "function"
    },
    {
      "inputs": [
        {
          "internalType": "uint256",
          "name": "_premium",
          "type": "uint256"
        },
        {
          "internalType": "uint256",
          "name": "_payoff",
          "type": "uint256"
        },
        {
          "internalType": "address",
          "name": "_userAddress",
          "type": "address"
        }
      ],
      "name": "payClaim",
      "outputs": [],
      "stateMutability": "nonpayable",
      "type": "function"
    },
    {
      "inputs": [
        {
          "internalType": "address",
          "name": "_userAddress",
          "type": "address"
        }
      ],
      "name": "harvestDegisReward",
      "outputs": [],
      "stateMutability": "nonpayable",
      "type": "function"
    },
    {
      "inputs": [
        {
          "internalType": "address",
          "name": "_userAddress",
          "type": "address"
        }
      ],
      "name": "harvestPremium",
      "outputs": [],
      "stateMutability": "nonpayable",
      "type": "function"
    },
    {
      "inputs": [
        {
          "internalType": "address",
          "name": "_userAddress",
          "type": "address"
        }
      ],
      "name": "revertUnstakeRequest",
      "outputs": [],
      "stateMutability": "nonpayable",
      "type": "function"
    },
    {
      "inputs": [
        {
          "internalType": "address",
          "name": "_userAddress",
          "type": "address"
        }
      ],
      "name": "revertAllUnstakeRequest",
      "outputs": [],
      "stateMutability": "nonpayable",
      "type": "function"
    }
  ],
  "bytecode": "0x60806040523480156200001157600080fd5b5060405162004ff038038062004ff083398181016040528101906200003791906200056a565b336000806101000a81548173ffffffffffffffffffffffffffffffffffffffff021916908373ffffffffffffffffffffffffffffffffffffffff1602179055506200008a876064620002de60201b60201c565b600d81905550670de0b6b3a7640000600c8190555085600460006101000a81548173ffffffffffffffffffffffffffffffffffffffff021916908373ffffffffffffffffffffffffffffffffffffffff16021790555081600560006101000a81548173ffffffffffffffffffffffffffffffffffffffff021916908373ffffffffffffffffffffffffffffffffffffffff1602179055506040518061010001604052806040518060400160405280600d81526020017f696e737572616e6365706f6f6c00000000000000000000000000000000000000815250815260200160008152602001600081526020016000815260200143815260200182815260200160008152602001600081525060116000820151816000019080519060200190620001b592919062000447565b506020820151816001015560408201518160020155606082015181600301556080820151816004015560a0820151816005015560c0820151816006015560e0820151816007015590505083600760006101000a81548173ffffffffffffffffffffffffffffffffffffffff021916908373ffffffffffffffffffffffffffffffffffffffff160217905550670de0b6b3a764000060088190555084600660006101000a81548173ffffffffffffffffffffffffffffffffffffffff021916908373ffffffffffffffffffffffffffffffffffffffff16021790555082600260006101000a81548173ffffffffffffffffffffffffffffffffffffffff021916908373ffffffffffffffffffffffffffffffffffffffff16021790555050505050505050620007f0565b6000620002f78383620002ff60201b62002a0c1760201c565b905092915050565b60006200032183670de0b6b3a7640000846200032960201b62002a291760201c565b905092915050565b6000806000801985870985870292508281108382030391505060008114156200036a578382816200035f576200035e6200070b565b5b049250505062000440565b838110620003b35780846040517f773cc18c000000000000000000000000000000000000000000000000000000008152600401620003aa9291906200062e565b60405180910390fd5b60008486880990508281118203915080830392506000600186190186169050808604955080840493506001818260000304019050808302841793506000600287600302189050808702600203810290508087026002038102905080870260020381029050808702600203810290508087026002038102905080870260020381029050808502955050505050505b9392505050565b8280546200045590620006d5565b90600052602060002090601f016020900481019282620004795760008555620004c5565b82601f106200049457805160ff1916838001178555620004c5565b82800160010185558215620004c5579182015b82811115620004c4578251825591602001919060010190620004a7565b5b509050620004d49190620004d8565b5090565b5b80821115620004f3576000816000905550600101620004d9565b5090565b60008151905062000508816200076e565b92915050565b6000815190506200051f8162000788565b92915050565b6000815190506200053681620007a2565b92915050565b6000815190506200054d81620007bc565b92915050565b6000815190506200056481620007d6565b92915050565b600080600080600080600060e0888a0312156200058c576200058b62000769565b5b60006200059c8a828b0162000553565b9750506020620005af8a828b016200050e565b9650506040620005c28a828b0162000525565b9550506060620005d58a828b016200053c565b9450506080620005e88a828b01620004f7565b93505060a0620005fb8a828b01620004f7565b92505060c06200060e8a828b0162000553565b91505092959891949750929550565b6200062881620006cb565b82525050565b60006040820190506200064560008301856200061d565b6200065460208301846200061d565b9392505050565b60006200066882620006ab565b9050919050565b60006200067c826200065b565b9050919050565b600062000690826200065b565b9050919050565b6000620006a4826200065b565b9050919050565b600073ffffffffffffffffffffffffffffffffffffffff82169050919050565b6000819050919050565b60006002820490506001821680620006ee57607f821691505b602082108114156200070557620007046200073a565b5b50919050565b7f4e487b7100000000000000000000000000000000000000000000000000000000600052601260045260246000fd5b7f4e487b7100000000000000000000000000000000000000000000000000000000600052602260045260246000fd5b600080fd5b62000779816200065b565b81146200078557600080fd5b50565b62000793816200066f565b81146200079f57600080fd5b50565b620007ad8162000683565b8114620007b957600080fd5b50565b620007c78162000697565b8114620007d357600080fd5b50565b620007e181620006cb565b8114620007ed57600080fd5b50565b6147f080620008006000396000f3fe608060405234801561001057600080fd5b50600436106102695760003560e01c80637b80889b11610151578063c2a672e0116100c3578063df011c4111610087578063df011c4114610730578063e4d4b58c1461074e578063ea1a76791461076a578063f03816ea14610788578063f4732da6146107a4578063fa569274146107c257610269565b8063c2a672e01461068a578063cba9aa4f146106a6578063d2993983146106c4578063d8a9bdb7146106e2578063da38db411461070057610269565b8063a21bc3fb11610115578063a21bc3fb146105c8578063a59b3645146105e6578063adc9772e14610604578063b2ea78a814610620578063b5c221571461063e578063bf131f4b1461065a57610269565b80637b80889b146105365780638863dd1a14610554578063887866bf146105705780638da5cb5b1461058e5780638f6987a2146105ac57610269565b8063370dad80116101ea5780634409c2aa116101ae5780634409c2aa1461048657806347fea81e146104a457806357a972c1146104c05780635c326caf146104de57806360d5b1ab146104fa5780636b5588ef1461051857610269565b8063370dad80146103e25780633c2d2900146104005780633fd8e3e7146104305780634020a4ad1461044c57806343d387f81461046857610269565b8063173869151161023157806317386915146103285780631872f73c14610358578063293cbda3146103885780632c831633146103a657806335392b71146103c457610269565b806304dff2151461026e5780630bd35bbe1461028c5780630c2eb403146102aa5780630c80d691146102da5780630fb71df11461030a575b600080fd5b6102766107e0565b60405161028391906140e8565b60405180910390f35b6102946107ea565b6040516102a19190613f3a565b60405180910390f35b6102c460048036038101906102bf9190613acf565b610810565b6040516102d191906140e8565b60405180910390f35b6102f460048036038101906102ef9190613acf565b61085c565b60405161030191906140e8565b60405180910390f35b610312610926565b60405161031f91906140e8565b60405180910390f35b610342600480360381019061033d9190613acf565b61093d565b60405161034f91906140e8565b60405180910390f35b610372600480360381019061036d9190613acf565b61097a565b60405161037f91906140e8565b60405180910390f35b610390610a6d565b60405161039d91906140e8565b60405180910390f35b6103ae610a77565b6040516103bb9190613e7b565b60405180910390f35b6103cc610a9d565b6040516103d991906140e8565b60405180910390f35b6103ea610aa7565b6040516103f791906140e8565b60405180910390f35b61041a60048036038101906104159190613acf565b610ab1565b60405161042791906140e8565b60405180910390f35b61044a60048036038101906104459190613acf565b610add565b005b61046660048036038101906104619190613acf565b610c24565b005b610470610e70565b60405161047d9190613e7b565b60405180910390f35b61048e610e96565b60405161049b91906140e8565b60405180910390f35b6104be60048036038101906104b99190613c03565b610ea0565b005b6104c861115c565b6040516104d591906140e8565b60405180910390f35b6104f860048036038101906104f39190613acf565b611162565b005b61050261126b565b60405161050f91906140e8565b60405180910390f35b610520611271565b60405161052d91906140e8565b60405180910390f35b61053e61127e565b60405161054b91906140e8565b60405180910390f35b61056e60048036038101906105699190613acf565b611284565b005b610578611420565b6040516105859190613f8b565b60405180910390f35b610596611446565b6040516105a39190613e7b565b60405180910390f35b6105c660048036038101906105c19190613bc3565b61146a565b005b6105d0611b4b565b6040516105dd91906140e8565b60405180910390f35b6105ee611b51565b6040516105fb9190613f70565b60405180910390f35b61061e60048036038101906106199190613afc565b611b77565b005b610628611d9d565b60405161063591906140e8565b60405180910390f35b61065860048036038101906106539190613b69565b611da3565b005b610674600480360381019061066f9190613c03565b611eb3565b6040516106819190613f1f565b60405180910390f35b6106a4600480360381019061069f9190613afc565b612005565b005b6106ae612417565b6040516106bb91906140e8565b60405180910390f35b6106cc61241d565b6040516106d99190613fa6565b60405180910390f35b6106ea6124b8565b6040516106f791906140e8565b60405180910390f35b61071a60048036038101906107159190613acf565b6124be565b60405161072791906140e8565b60405180910390f35b610738612650565b60405161074591906140e8565b60405180910390f35b61076860048036038101906107639190613acf565b612656565b005b6107726127ec565b60405161077f91906140e8565b60405180910390f35b6107a2600480360381019061079d9190613acf565b6127f2565b005b6107ac6129dc565b6040516107b991906140e8565b60405180910390f35b6107ca6129e6565b6040516107d79190613f55565b60405180910390f35b6000600c54905090565b600460009054906101000a900473ffffffffffffffffffffffffffffffffffffffff1681565b6000600360008373ffffffffffffffffffffffffffffffffffffffff1673ffffffffffffffffffffffffffffffffffffffff168152602001908152602001600020600201549050919050565b600080600760009054906101000a900473ffffffffffffffffffffffffffffffffffffffff1673ffffffffffffffffffffffffffffffffffffffff166370a08231846040518263ffffffff1660e01b81526004016108ba9190613e7b565b60206040518083038186803b1580156108d257600080fd5b505afa1580156108e6573d6000803e3d6000fd5b505050506040513d601f19601f8201168201806040525081019061090a9190613b96565b9050600061091a82600854612b3f565b90508092505050919050565b6000600b54600954610938919061423f565b905090565b6000806109498361085c565b90506000670de0b6b3a764000082600c5461096491906141e5565b61096e91906141b4565b90508092505050919050565b600080600360008473ffffffffffffffffffffffffffffffffffffffff1673ffffffffffffffffffffffffffffffffffffffff168152602001908152602001600020905060006109c98461085c565b905060006011600601549050601160040154431115610a605760006011600701546010546109f7919061423f565b9050600954670de0b6b3a764000082610a1091906141e5565b610a1a91906141b4565b82610a25919061415e565b91508360010154670de0b6b3a76400008385610a4191906141e5565b610a4b91906141b4565b610a55919061423f565b945050505050610a68565b600093505050505b919050565b6000600954905090565b600260009054906101000a900473ffffffffffffffffffffffffffffffffffffffff1681565b6000600d54905090565b6000600e54905090565b600080610abd8361085c565b905080600e5410610ad15780915050610ad8565b600e549150505b919050565b80600073ffffffffffffffffffffffffffffffffffffffff168173ffffffffffffffffffffffffffffffffffffffff161415610b4e576040517f08c379a0000000000000000000000000000000000000000000000000000000008152600401610b4590614008565b60405180910390fd5b6000600360008473ffffffffffffffffffffffffffffffffffffffff1673ffffffffffffffffffffffffffffffffffffffff1681526020019081526020016000209050610b99612b53565b6000610ba48461085c565b90506000811115610bf25760008260000154670de0b6b3a764000060116003015484610bd091906141e5565b610bda91906141b4565b610be4919061423f565b9050610bf08582612cd7565b505b670de0b6b3a764000060116003015482610c0c91906141e5565b610c1691906141b4565b826000018190555050505050565b80600073ffffffffffffffffffffffffffffffffffffffff168173ffffffffffffffffffffffffffffffffffffffff161415610c95576040517f08c379a0000000000000000000000000000000000000000000000000000000008152600401610c8c90614008565b60405180910390fd5b6000601960008473ffffffffffffffffffffffffffffffffffffffff1673ffffffffffffffffffffffffffffffffffffffff16815260200190815260200160002090506000818054905011610d1f576040517f08c379a0000000000000000000000000000000000000000000000000000000008152600401610d1690614068565b60405180910390fd5b610d2883612ef9565b601960008473ffffffffffffffffffffffffffffffffffffffff1673ffffffffffffffffffffffffffffffffffffffff1681526020019081526020016000206000610d739190613a1c565b610d7c8361085c565b600360008573ffffffffffffffffffffffffffffffffffffffff1673ffffffffffffffffffffffffffffffffffffffff168152602001908152602001600020600201819055506000600360008573ffffffffffffffffffffffffffffffffffffffff1673ffffffffffffffffffffffffffffffffffffffff16815260200190815260200160002060030154905080600a6000828254610e1b919061415e565b925050819055506000600360008673ffffffffffffffffffffffffffffffffffffffff1673ffffffffffffffffffffffffffffffffffffffff1681526020019081526020016000206003018190555050505050565b600160009054906101000a900473ffffffffffffffffffffffffffffffffffffffff1681565b6000601054905090565b80600073ffffffffffffffffffffffffffffffffffffffff168173ffffffffffffffffffffffffffffffffffffffff161415610f11576040517f08c379a0000000000000000000000000000000000000000000000000000000008152600401610f0890614008565b60405180910390fd5b610f19612b53565b82600b6000828254610f2b919061423f565b925050819055508260096000828254610f44919061423f565b9250508190555082600a6000828254610f5d919061423f565b9250508190555083600f6000828254610f76919061423f565b925050819055506000670de0b6b3a7640000610f946008600a612f67565b86610f9f91906141e5565b610fa991906141b4565b90506000670de0b6b3a7640000610fc26001600a612f67565b87610fcd91906141e5565b610fd791906141b4565b90506000670de0b6b3a7640000610ff06001600a612f67565b88610ffb91906141e5565b61100591906141b4565b90508260106000828254611019919061415e565b9250508190555061108f600660009054906101000a900473ffffffffffffffffffffffffffffffffffffffff1682600560009054906101000a900473ffffffffffffffffffffffffffffffffffffffff1673ffffffffffffffffffffffffffffffffffffffff16612f7b9092919063ffffffff16565b6110fe600260009054906101000a900473ffffffffffffffffffffffffffffffffffffffff1682600560009054906101000a900473ffffffffffffffffffffffffffffffffffffffff1673ffffffffffffffffffffffffffffffffffffffff16612f7b9092919063ffffffff16565b611106613001565b6111538587600560009054906101000a900473ffffffffffffffffffffffffffffffffffffffff1673ffffffffffffffffffffffffffffffffffffffff16612f7b9092919063ffffffff16565b50505050505050565b60095481565b60008054906101000a900473ffffffffffffffffffffffffffffffffffffffff1673ffffffffffffffffffffffffffffffffffffffff163373ffffffffffffffffffffffffffffffffffffffff16146111f0576040517f08c379a00000000000000000000000000000000000000000000000000000000081526004016111e790614088565b60405180910390fd5b80600160006101000a81548173ffffffffffffffffffffffffffffffffffffffff021916908373ffffffffffffffffffffffffffffffffffffffff1602179055507fdf2f84a6be1c55031de30c910064a4d8ce6cf64f767b55c3e9647175a7885bb9816040516112609190613e7b565b60405180910390a150565b600c5481565b6000601160030154905090565b600b5481565b60008054906101000a900473ffffffffffffffffffffffffffffffffffffffff1673ffffffffffffffffffffffffffffffffffffffff163373ffffffffffffffffffffffffffffffffffffffff1614611312576040517f08c379a000000000000000000000000000000000000000000000000000000000815260040161130990614088565b60405180910390fd5b80600073ffffffffffffffffffffffffffffffffffffffff168173ffffffffffffffffffffffffffffffffffffffff161415611383576040517f08c379a000000000000000000000000000000000000000000000000000000000815260040161137a90614008565b60405180910390fd5b7fb532073b38c83145e3e5135377a08bf9aab55bc0fd7c1179cd4fb995d2a5159c60008054906101000a900473ffffffffffffffffffffffffffffffffffffffff16836040516113d4929190613e96565b60405180910390a1816000806101000a81548173ffffffffffffffffffffffffffffffffffffffff021916908373ffffffffffffffffffffffffffffffffffffffff1602179055505050565b600760009054906101000a900473ffffffffffffffffffffffffffffffffffffffff1681565b60008054906101000a900473ffffffffffffffffffffffffffffffffffffffff1681565b611472612b53565b81600f6000828254611484919061423f565b9250508190555080600b600082825461149d919061423f565b9250508190555080600e60008282546114b6919061415e565b925050819055506000670de0b6b3a76400006114d46008600a612f67565b846114df91906141e5565b6114e991906141b4565b90506000670de0b6b3a76400006115026001600a612f67565b8561150d91906141e5565b61151791906141b4565b9050816010600082825461152b919061415e565b925050819055506115ac600660009054906101000a900473ffffffffffffffffffffffffffffffffffffffff168386611564919061423f565b600560009054906101000a900473ffffffffffffffffffffffffffffffffffffffff1673ffffffffffffffffffffffffffffffffffffffff16612f7b9092919063ffffffff16565b611626600260009054906101000a900473ffffffffffffffffffffffffffffffffffffffff1683866115de919061423f565b600560009054906101000a900473ffffffffffffffffffffffffffffffffffffffff1673ffffffffffffffffffffffffffffffffffffffff16612f7b9092919063ffffffff16565b6000839050600080601a805490501115611b435760006001601a8054905061164e919061423f565b90505b60008110611b415760008310611b28576000601a8281548110611677576116766144b5565b5b9060005260206000200160009054906101000a900473ffffffffffffffffffffffffffffffffffffffff16905060005b601960008373ffffffffffffffffffffffffffffffffffffffff1673ffffffffffffffffffffffffffffffffffffffff16815260200190815260200160002080549050811015611b2157601960008373ffffffffffffffffffffffffffffffffffffffff1673ffffffffffffffffffffffffffffffffffffffff1681526020019081526020016000208181548110611742576117416144b5565b5b9060005260206000209060030201600001549350838511156119c657838561176a919061423f565b945060005b6001601960008573ffffffffffffffffffffffffffffffffffffffff1673ffffffffffffffffffffffffffffffffffffffff168152602001908152602001600020805490506117be919061423f565b8110156118e757601960008473ffffffffffffffffffffffffffffffffffffffff1673ffffffffffffffffffffffffffffffffffffffff168152602001908152602001600020600182611811919061415e565b81548110611822576118216144b5565b5b9060005260206000209060030201601960008573ffffffffffffffffffffffffffffffffffffffff1673ffffffffffffffffffffffffffffffffffffffff1681526020019081526020016000208281548110611881576118806144b5565b5b906000526020600020906003020160008201548160000155600182015481600101556002820160009054906101000a900460ff168160020160006101000a81548160ff0219169083151502179055509050506001816118e0919061415e565b905061176f565b50601960008373ffffffffffffffffffffffffffffffffffffffff1673ffffffffffffffffffffffffffffffffffffffff16815260200190815260200160002080548061193757611936614486565b5b600190038181906000526020600020906003020160008082016000905560018201600090556002820160006101000a81549060ff0219169055505090556119c18285600560009054906101000a900473ffffffffffffffffffffffffffffffffffffffff1673ffffffffffffffffffffffffffffffffffffffff16612f7b9092919063ffffffff16565b611b0e565b84601960008473ffffffffffffffffffffffffffffffffffffffff1673ffffffffffffffffffffffffffffffffffffffff1681526020019081526020016000208281548110611a1857611a176144b5565b5b90600052602060002090600302016000016000828254611a38919061423f565b9250508190555084601960008473ffffffffffffffffffffffffffffffffffffffff1673ffffffffffffffffffffffffffffffffffffffff1681526020019081526020016000208281548110611a9157611a906144b5565b5b90600052602060002090600302016001016000828254611ab1919061415e565b92505081905550611b058286600560009054906101000a900473ffffffffffffffffffffffffffffffffffffffff1673ffffffffffffffffffffffffffffffffffffffff16612f7b9092919063ffffffff16565b60009450611b21565b8080611b19906143b0565b9150506116a7565b5050611b2d565b611b41565b600181611b3a919061423f565b9050611651565b505b505050505050565b600e5481565b600660009054906101000a900473ffffffffffffffffffffffffffffffffffffffff1681565b81600073ffffffffffffffffffffffffffffffffffffffff168173ffffffffffffffffffffffffffffffffffffffff161415611be8576040517f08c379a0000000000000000000000000000000000000000000000000000000008152600401611bdf90614008565b60405180910390fd5b60008211611c2b576040517f08c379a0000000000000000000000000000000000000000000000000000000008152600401611c2290613fe8565b60405180910390fd5b6000600360008573ffffffffffffffffffffffffffffffffffffffff1673ffffffffffffffffffffffffffffffffffffffff1681526020019081526020016000209050611c76612b53565b6000611c818561085c565b90506000811115611ccf5760008260000154670de0b6b3a764000060116003015484611cad91906141e5565b611cb791906141b4565b611cc1919061423f565b9050611ccd8682612cd7565b505b611cd98585613020565b611ce28561085c565b9050670de0b6b3a764000060116003015482611cfe91906141e5565b611d0891906141b4565b8260000181905550670de0b6b3a764000060116006015482611d2a91906141e5565b611d3491906141b4565b82600101819055506010546011600701819055508473ffffffffffffffffffffffffffffffffffffffff167febedb8b3c678666e7f36970bc8f57abf6d8fa2e828c0da91ea5b75bf68ed101a85604051611d8e91906140e8565b60405180910390a25050505050565b60105481565b60008054906101000a900473ffffffffffffffffffffffffffffffffffffffff1673ffffffffffffffffffffffffffffffffffffffff163373ffffffffffffffffffffffffffffffffffffffff1614611e31576040517f08c379a0000000000000000000000000000000000000000000000000000000008152600401611e2890614088565b60405180910390fd5b611e3c816064612f67565b600d8190555060008054906101000a900473ffffffffffffffffffffffffffffffffffffffff1673ffffffffffffffffffffffffffffffffffffffff167fbec5c0c9ba59b8a8e6027f690946fd83fc4f7586213749371d827d228f1df96682604051611ea891906140e8565b60405180910390a250565b60008280600e541015611efb576040517f08c379a0000000000000000000000000000000000000000000000000000000008152600401611ef290614048565b60405180910390fd5b83600b6000828254611f0d919061415e565b9250508190555084600f6000828254611f26919061415e565b9250508190555083600e6000828254611f3f919061423f565b92505081905550611f54600b54600954612f67565b600c81905550611fa9833087600560009054906101000a900473ffffffffffffffffffffffffffffffffffffffff1673ffffffffffffffffffffffffffffffffffffffff16613233909392919063ffffffff16565b8273ffffffffffffffffffffffffffffffffffffffff167f48a70649351698478f15267ca75cb3da80814ac5087d87178c657801b662fa968686604051611ff1929190614103565b60405180910390a260019150509392505050565b81600073ffffffffffffffffffffffffffffffffffffffff168173ffffffffffffffffffffffffffffffffffffffff161415612076576040517f08c379a000000000000000000000000000000000000000000000000000000000815260040161206d90614008565b60405180910390fd5b60006120818461085c565b90508083111580156120935750600083115b6120d2576040517f08c379a00000000000000000000000000000000000000000000000000000000081526004016120c990613fc8565b60405180910390fd5b60006120dc610926565b905060008490508185111561227957600082866120f9919061423f565b9050601960008873ffffffffffffffffffffffffffffffffffffffff1673ffffffffffffffffffffffffffffffffffffffff168152602001908152602001600020604051806060016040528083815260200160008152602001600015158152509080600181540180825580915050600190039060005260206000209060030201600090919091909150600082015181600001556020820151816001015560408201518160020160006101000a81548160ff0219169083151502179055505050601a879080600181540180825580915050600190039060005260206000200160009091909190916101000a81548173ffffffffffffffffffffffffffffffffffffffff021916908373ffffffffffffffffffffffffffffffffffffffff16021790555082915080600360008973ffffffffffffffffffffffffffffffffffffffff1673ffffffffffffffffffffffffffffffffffffffff1681526020019081526020016000206003016000828254612270919061415e565b92505081905550505b612281612b53565b6000600360008873ffffffffffffffffffffffffffffffffffffffff1673ffffffffffffffffffffffffffffffffffffffff168152602001908152602001600020905060008411156123955760008160000154670de0b6b3a7640000601160030154876122ee91906141e5565b6122f891906141b4565b612302919061423f565b905061230e8882612cd7565b60008260010154670de0b6b3a76400006011600601548861232f91906141e5565b61233991906141b4565b612343919061423f565b90506123928982600560009054906101000a900473ffffffffffffffffffffffffffffffffffffffff1673ffffffffffffffffffffffffffffffffffffffff16612f7b9092919063ffffffff16565b50505b61239f87836132bc565b6123a88761085c565b9350670de0b6b3a7640000601160030154856123c491906141e5565b6123ce91906141b4565b8160000181905550670de0b6b3a7640000601160060154856123f091906141e5565b6123fa91906141b4565b816001018190555060105460116007018190555050505050505050565b60085481565b60606000601160000180546124319061437e565b80601f016020809104026020016040519081016040528092919081815260200182805461245d9061437e565b80156124aa5780601f1061247f576101008083540402835291602001916124aa565b820191906000526020600020905b81548152906001019060200180831161248d57829003601f168201915b505050505090508091505090565b600a5481565b600081600073ffffffffffffffffffffffffffffffffffffffff168173ffffffffffffffffffffffffffffffffffffffff161415612531576040517f08c379a000000000000000000000000000000000000000000000000000000000815260040161252890614008565b60405180910390fd5b601160040154431015612547576000915061264a565b6000600360008573ffffffffffffffffffffffffffffffffffffffff1673ffffffffffffffffffffffffffffffffffffffff168152602001908152602001600020905060006125958561085c565b9050600060116003015490506000821115612642576000601160040154436125bd919061423f565b90506000816011600501546125d291906141e5565b9050600954670de0b6b3a7640000826125eb91906141e5565b6125f591906141b4565b83612600919061415e565b925060008560000154670de0b6b3a7640000858761261e91906141e5565b61262891906141b4565b612632919061423f565b905080975050505050505061264a565b600094505050505b50919050565b600d5481565b80600073ffffffffffffffffffffffffffffffffffffffff168173ffffffffffffffffffffffffffffffffffffffff1614156126c7576040517f08c379a00000000000000000000000000000000000000000000000000000000081526004016126be90614008565b60405180910390fd5b6000600360008473ffffffffffffffffffffffffffffffffffffffff1673ffffffffffffffffffffffffffffffffffffffff1681526020019081526020016000209050612712612b53565b600061271d8461085c565b905060008111156127ae5760008260010154670de0b6b3a76400006011600601548461274991906141e5565b61275391906141b4565b61275d919061423f565b90506127ac8582600560009054906101000a900473ffffffffffffffffffffffffffffffffffffffff1673ffffffffffffffffffffffffffffffffffffffff16612f7b9092919063ffffffff16565b505b670de0b6b3a7640000601160060154826127c891906141e5565b6127d291906141b4565b826001018190555060105460116007018190555050505050565b600f5481565b80600073ffffffffffffffffffffffffffffffffffffffff168173ffffffffffffffffffffffffffffffffffffffff161415612863576040517f08c379a000000000000000000000000000000000000000000000000000000000815260040161285a90614008565b60405180910390fd5b6000601960008473ffffffffffffffffffffffffffffffffffffffff1673ffffffffffffffffffffffffffffffffffffffff168152602001908152602001600020905060008180549050116128ed576040517f08c379a00000000000000000000000000000000000000000000000000000000081526004016128e490614068565b60405180910390fd5b600060018280549050612900919061423f565b90506000828281548110612917576129166144b5565b5b90600052602060002090600302016001015483838154811061293c5761293b6144b5565b5b906000526020600020906003020160000154612958919061423f565b905080600a600082825461296c919061415e565b9250508190555080600360008773ffffffffffffffffffffffffffffffffffffffff1673ffffffffffffffffffffffffffffffffffffffff16815260200190815260200160002060030160008282546129c5919061423f565b925050819055506129d5856134cd565b5050505050565b6000600b54905090565b600560009054906101000a900473ffffffffffffffffffffffffffffffffffffffff1681565b6000612a2183670de0b6b3a764000084612a29565b905092915050565b600080600080198587098587029250828110838203039150506000811415612a6557838281612a5b57612a5a614428565b5b0492505050612b38565b838110612aab5780846040517f773cc18c000000000000000000000000000000000000000000000000000000008152600401612aa2929190614103565b60405180910390fd5b60008486880990508281118203915080830392506000600186190186169050808604955080840493506001818260000304019050808302841793506000600287600302189050808702600203810290508087026002038102905080870260020381029050808702600203810290508087026002038102905080870260020381029050808502955050505050505b9392505050565b6000612b4b838361369d565b905092915050565b601160040154431015612b6557612cd5565b60006009541415612b7f5743601160040181905550612cd5565b600060116004015443612b92919061423f565b9050600081601160050154612ba791906141e5565b9050600460009054906101000a900473ffffffffffffffffffffffffffffffffffffffff1673ffffffffffffffffffffffffffffffffffffffff166340c10f1930836040518363ffffffff1660e01b8152600401612c06929190613ef6565b600060405180830381600087803b158015612c2057600080fd5b505af1158015612c34573d6000803e3d6000fd5b50505050600954670de0b6b3a764000082612c4f91906141e5565b612c5991906141b4565b60116003016000828254612c6d919061415e565b925050819055506000601160070154601054612c89919061423f565b9050600954670de0b6b3a764000082612ca291906141e5565b612cac91906141b4565b60116006016000828254612cc0919061415e565b92505081905550436011600401819055505050505b565b6000600460009054906101000a900473ffffffffffffffffffffffffffffffffffffffff1673ffffffffffffffffffffffffffffffffffffffff166370a08231306040518263ffffffff1660e01b8152600401612d349190613e7b565b60206040518083038186803b158015612d4c57600080fd5b505afa158015612d60573d6000803e3d6000fd5b505050506040513d601f19601f82011682018060405250810190612d849190613b96565b905080821115612e4357600460009054906101000a900473ffffffffffffffffffffffffffffffffffffffff1673ffffffffffffffffffffffffffffffffffffffff1663a9059cbb84836040518363ffffffff1660e01b8152600401612deb929190613ef6565b602060405180830381600087803b158015612e0557600080fd5b505af1158015612e19573d6000803e3d6000fd5b505050506040513d601f19601f82011682018060405250810190612e3d9190613b3c565b50612ef4565b600460009054906101000a900473ffffffffffffffffffffffffffffffffffffffff1673ffffffffffffffffffffffffffffffffffffffff1663a9059cbb84846040518363ffffffff1660e01b8152600401612ea0929190613ef6565b602060405180830381600087803b158015612eba57600080fd5b505af1158015612ece573d6000803e3d6000fd5b505050506040513d601f19601f82011682018060405250810190612ef29190613b3c565b505b505050565b60005b601960008373ffffffffffffffffffffffffffffffffffffffff1673ffffffffffffffffffffffffffffffffffffffff16815260200190815260200160002080549050811015612f6357612f4f826134cd565b600181612f5c919061415e565b9050612efc565b5050565b6000612f738383612a0c565b905092915050565b612ffc8363a9059cbb60e01b8484604051602401612f9a929190613ef6565b604051602081830303815290604052907bffffffffffffffffffffffffffffffffffffffffffffffffffffffff19166020820180517bffffffffffffffffffffffffffffffffffffffffffffffffffffffff83818316178352505050506136b1565b505050565b6000601160020154905061301760095482612f67565b60088190555050565b8060096000828254613032919061415e565b9250508190555080600a600082825461304b919061415e565b9250508190555080600e6000828254613064919061415e565b92505081905550613079600b54600954612f67565b600c819055506130ce823083600560009054906101000a900473ffffffffffffffffffffffffffffffffffffffff1673ffffffffffffffffffffffffffffffffffffffff16613233909392919063ffffffff16565b60006130dc82600854612f67565b9050600760009054906101000a900473ffffffffffffffffffffffffffffffffffffffff1673ffffffffffffffffffffffffffffffffffffffff166340c10f1984836040518363ffffffff1660e01b815260040161313b929190613ef6565b600060405180830381600087803b15801561315557600080fd5b505af1158015613169573d6000803e3d6000fd5b505050508060116002016000828254613182919061415e565b92505081905550613191613001565b61319a8361085c565b600360008573ffffffffffffffffffffffffffffffffffffffff1673ffffffffffffffffffffffffffffffffffffffff168152602001908152602001600020600201819055508273ffffffffffffffffffffffffffffffffffffffff167febedb8b3c678666e7f36970bc8f57abf6d8fa2e828c0da91ea5b75bf68ed101a8360405161322691906140e8565b60405180910390a2505050565b6132b6846323b872dd60e01b85858560405160240161325493929190613ebf565b604051602081830303815290604052907bffffffffffffffffffffffffffffffffffffffffffffffffffffffff19166020820180517bffffffffffffffffffffffffffffffffffffffffffffffffffffffff83818316178352505050506136b1565b50505050565b80600960008282546132ce919061423f565b9250508190555080600a60008282546132e7919061423f565b9250508190555080600e6000828254613300919061423f565b92505081905550613315600b54600954612f67565b600c819055506133688282600560009054906101000a900473ffffffffffffffffffffffffffffffffffffffff1673ffffffffffffffffffffffffffffffffffffffff16612f7b9092919063ffffffff16565b600061337682600854612f67565b9050600760009054906101000a900473ffffffffffffffffffffffffffffffffffffffff1673ffffffffffffffffffffffffffffffffffffffff16639dc29fac84836040518363ffffffff1660e01b81526004016133d5929190613ef6565b600060405180830381600087803b1580156133ef57600080fd5b505af1158015613403573d6000803e3d6000fd5b50505050806011600201600082825461341c919061423f565b9250508190555061342b613001565b6134348361085c565b600360008573ffffffffffffffffffffffffffffffffffffffff1673ffffffffffffffffffffffffffffffffffffffff168152602001908152602001600020600201819055508273ffffffffffffffffffffffffffffffffffffffff167f85082129d87b2fe11527cb1b3b7a520aeb5aa6913f88a3d8757fe40d1db02fdd836040516134c091906140e8565b60405180910390a2505050565b60006001601a805490506134e1919061423f565b90505b60008110613577578173ffffffffffffffffffffffffffffffffffffffff16601a8281548110613517576135166144b5565b5b9060005260206000200160009054906101000a900473ffffffffffffffffffffffffffffffffffffffff1673ffffffffffffffffffffffffffffffffffffffff16141561356357613577565b600181613570919061423f565b90506134e4565b60008190505b6001601a8054905061358f919061423f565b81101561365157601a6001826135a5919061415e565b815481106135b6576135b56144b5565b5b9060005260206000200160009054906101000a900473ffffffffffffffffffffffffffffffffffffffff16601a82815481106135f5576135f46144b5565b5b9060005260206000200160006101000a81548173ffffffffffffffffffffffffffffffffffffffff021916908373ffffffffffffffffffffffffffffffffffffffff16021790555060018161364a919061415e565b905061357d565b50601a80548061366457613663614486565b5b6001900381819060005260206000200160006101000a81549073ffffffffffffffffffffffffffffffffffffffff021916905590555050565b60006136a98383613778565b905092915050565b6000613713826040518060400160405280602081526020017f5361666545524332303a206c6f772d6c6576656c2063616c6c206661696c65648152508573ffffffffffffffffffffffffffffffffffffffff166138769092919063ffffffff16565b905060008151111561377357808060200190518101906137339190613b3c565b613772576040517f08c379a0000000000000000000000000000000000000000000000000000000008152600401613769906140c8565b60405180910390fd5b5b505050565b60008060008019848609848602925082811083820303915050670de0b6b3a764000081106137dd57806040517fd31b34020000000000000000000000000000000000000000000000000000000081526004016137d491906140e8565b60405180910390fd5b600080670de0b6b3a764000086880991506706f05b59d3b1ffff82119050600083141561382a5780670de0b6b3a7640000858161381d5761381c614428565b5b0401945050505050613870565b807faccb18165bd6fe31ae1cf318dc5b51eee0e1ba569b88cd74c1773b91fac1066960016204000080600003040186851186030262040000858803041702019450505050505b92915050565b6060613885848460008561388e565b90509392505050565b6060824710156138d3576040517f08c379a00000000000000000000000000000000000000000000000000000000081526004016138ca90614028565b60405180910390fd5b6138dc856139a2565b61391b576040517f08c379a0000000000000000000000000000000000000000000000000000000008152600401613912906140a8565b60405180910390fd5b6000808673ffffffffffffffffffffffffffffffffffffffff1685876040516139449190613e64565b60006040518083038185875af1925050503d8060008114613981576040519150601f19603f3d011682016040523d82523d6000602084013e613986565b606091505b50915091506139968282866139b5565b92505050949350505050565b600080823b905060008111915050919050565b606083156139c557829050613a15565b6000835111156139d85782518084602001fd5b816040517f08c379a0000000000000000000000000000000000000000000000000000000008152600401613a0c9190613fa6565b60405180910390fd5b9392505050565b5080546000825560030290600052602060002090810190613a3d9190613a40565b50565b5b80821115613a775760008082016000905560018201600090556002820160006101000a81549060ff021916905550600301613a41565b5090565b600081359050613a8a81614775565b92915050565b600081519050613a9f8161478c565b92915050565b600081359050613ab4816147a3565b92915050565b600081519050613ac9816147a3565b92915050565b600060208284031215613ae557613ae46144e4565b5b6000613af384828501613a7b565b91505092915050565b60008060408385031215613b1357613b126144e4565b5b6000613b2185828601613a7b565b9250506020613b3285828601613aa5565b9150509250929050565b600060208284031215613b5257613b516144e4565b5b6000613b6084828501613a90565b91505092915050565b600060208284031215613b7f57613b7e6144e4565b5b6000613b8d84828501613aa5565b91505092915050565b600060208284031215613bac57613bab6144e4565b5b6000613bba84828501613aba565b91505092915050565b60008060408385031215613bda57613bd96144e4565b5b6000613be885828601613aa5565b9250506020613bf985828601613aa5565b9150509250929050565b600080600060608486031215613c1c57613c1b6144e4565b5b6000613c2a86828701613aa5565b9350506020613c3b86828701613aa5565b9250506040613c4c86828701613a7b565b9150509250925092565b613c5f81614273565b82525050565b613c6e81614285565b82525050565b6000613c7f8261412c565b613c898185614142565b9350613c9981856020860161434b565b80840191505092915050565b613cae816142bb565b82525050565b613cbd816142df565b82525050565b613ccc81614303565b82525050565b613cdb81614327565b82525050565b6000613cec82614137565b613cf6818561414d565b9350613d0681856020860161434b565b613d0f816144e9565b840191505092915050565b6000613d27603e8361414d565b9150613d32826144fa565b604082019050919050565b6000613d4a60118361414d565b9150613d5582614549565b602082019050919050565b6000613d6d60238361414d565b9150613d7882614572565b604082019050919050565b6000613d9060268361414d565b9150613d9b826145c1565b604082019050919050565b6000613db3602c8361414d565b9150613dbe82614610565b604082019050919050565b6000613dd660288361414d565b9150613de18261465f565b604082019050919050565b6000613df960258361414d565b9150613e04826146ae565b604082019050919050565b6000613e1c601d8361414d565b9150613e27826146fd565b602082019050919050565b6000613e3f602a8361414d565b9150613e4a82614726565b604082019050919050565b613e5e816142b1565b82525050565b6000613e708284613c74565b915081905092915050565b6000602082019050613e906000830184613c56565b92915050565b6000604082019050613eab6000830185613c56565b613eb86020830184613c56565b9392505050565b6000606082019050613ed46000830186613c56565b613ee16020830185613c56565b613eee6040830184613e55565b949350505050565b6000604082019050613f0b6000830185613c56565b613f186020830184613e55565b9392505050565b6000602082019050613f346000830184613c65565b92915050565b6000602082019050613f4f6000830184613ca5565b92915050565b6000602082019050613f6a6000830184613cb4565b92915050565b6000602082019050613f856000830184613cc3565b92915050565b6000602082019050613fa06000830184613cd2565b92915050565b60006020820190508181036000830152613fc08184613ce1565b905092915050565b60006020820190508181036000830152613fe181613d1a565b9050919050565b6000602082019050818103600083015261400181613d3d565b9050919050565b6000602082019050818103600083015261402181613d60565b9050919050565b6000602082019050818103600083015261404181613d83565b9050919050565b6000602082019050818103600083015261406181613da6565b9050919050565b6000602082019050818103600083015261408181613dc9565b9050919050565b600060208201905081810360008301526140a181613dec565b9050919050565b600060208201905081810360008301526140c181613e0f565b9050919050565b600060208201905081810360008301526140e181613e32565b9050919050565b60006020820190506140fd6000830184613e55565b92915050565b60006040820190506141186000830185613e55565b6141256020830184613e55565b9392505050565b600081519050919050565b600081519050919050565b600081905092915050565b600082825260208201905092915050565b6000614169826142b1565b9150614174836142b1565b9250827fffffffffffffffffffffffffffffffffffffffffffffffffffffffffffffffff038211156141a9576141a86143f9565b5b828201905092915050565b60006141bf826142b1565b91506141ca836142b1565b9250826141da576141d9614428565b5b828204905092915050565b60006141f0826142b1565b91506141fb836142b1565b9250817fffffffffffffffffffffffffffffffffffffffffffffffffffffffffffffffff0483118215151615614234576142336143f9565b5b828202905092915050565b600061424a826142b1565b9150614255836142b1565b925082821015614268576142676143f9565b5b828203905092915050565b600061427e82614291565b9050919050565b60008115159050919050565b600073ffffffffffffffffffffffffffffffffffffffff82169050919050565b6000819050919050565b60006142c6826142cd565b9050919050565b60006142d882614291565b9050919050565b60006142ea826142f1565b9050919050565b60006142fc82614291565b9050919050565b600061430e82614315565b9050919050565b600061432082614291565b9050919050565b600061433282614339565b9050919050565b600061434482614291565b9050919050565b60005b8381101561436957808201518184015260208101905061434e565b83811115614378576000848401525b50505050565b6000600282049050600182168061439657607f821691505b602082108114156143aa576143a9614457565b5b50919050565b60006143bb826142b1565b91507fffffffffffffffffffffffffffffffffffffffffffffffffffffffffffffffff8214156143ee576143ed6143f9565b5b600182019050919050565b7f4e487b7100000000000000000000000000000000000000000000000000000000600052601160045260246000fd5b7f4e487b7100000000000000000000000000000000000000000000000000000000600052601260045260246000fd5b7f4e487b7100000000000000000000000000000000000000000000000000000000600052602260045260246000fd5b7f4e487b7100000000000000000000000000000000000000000000000000000000600052603160045260246000fd5b7f4e487b7100000000000000000000000000000000000000000000000000000000600052603260045260246000fd5b600080fd5b6000601f19601f8301169050919050565b7f6e6f7420656e6f7567682062616c616e636520746f20626520756e6c6f636b6560008201527f64206f7220796f757220776974686472617720616d6f756e7420697320300000602082015250565b7f63616e206e6f74206465706f7369742030000000000000000000000000000000600082015250565b7f74686520616464726573732063616e206e6f74206265207a65726f206164647260008201527f6573730000000000000000000000000000000000000000000000000000000000602082015250565b7f416464726573733a20696e73756666696369656e742062616c616e636520666f60008201527f722063616c6c0000000000000000000000000000000000000000000000000000602082015250565b7f6e6f742073756666696369656e74207269736b20636170616369747920666f7260008201527f207468697320706f6c6963790000000000000000000000000000000000000000602082015250565b7f74686973207573657220686173206e6f2070656e64696e6720756e7374616b6560008201527f2072657175657374000000000000000000000000000000000000000000000000602082015250565b7f6f6e6c7920746865206f776e65722063616e2063616c6c20746869732066756e60008201527f6374696f6e000000000000000000000000000000000000000000000000000000602082015250565b7f416464726573733a2063616c6c20746f206e6f6e2d636f6e7472616374000000600082015250565b7f5361666545524332303a204552433230206f7065726174696f6e20646964206e60008201527f6f74207375636365656400000000000000000000000000000000000000000000602082015250565b61477e81614273565b811461478957600080fd5b50565b61479581614285565b81146147a057600080fd5b50565b6147ac816142b1565b81146147b757600080fd5b5056fea264697066735822122089fd72c43a18b7bb7b3a31177f9f9e26d673c551775602af205a90b3c72d771764736f6c63430008050033",
  "immutableReferences": {},
  "source": "// SPDX-License-Identifier: MIT\r\npragma solidity ^0.8.0;\r\n\r\nimport \"./interfaces/IDegisToken.sol\";\r\nimport \"./interfaces/ILPToken.sol\";\r\nimport \"@openzeppelin/contracts/token/ERC20/IERC20.sol\";\r\nimport \"@openzeppelin/contracts/token/ERC20/utils/SafeERC20.sol\";\r\nimport \"prb-math/contracts/PRBMathUD60x18.sol\";\r\nimport \"./interfaces/IEmergencyPool.sol\";\r\n\r\ncontract InsurancePool {\r\n    using PRBMathUD60x18 for uint256;\r\n    using SafeERC20 for IERC20;\r\n\r\n    // the onwer address of this contract\r\n    address public owner;\r\n\r\n    // the policyflow address, used for access control\r\n    address public policyFlow;\r\n\r\n    // the lotteryPool(DegisBar) address\r\n    address public lotteryPool;\r\n\r\n    // *********************************************************************//\r\n    // ****************** Information about each user ****************** //\r\n    struct UserInfo {\r\n        uint256 rewardDebt; // degis reward debt\r\n        uint256 premiumDebt; // premium reward debt\r\n        uint256 assetBalance; // the amount of a user's staking in the pool\r\n        uint256 pendingBalance; // the amount in the unstake queue\r\n    }\r\n    mapping(address => UserInfo) userInfo;\r\n\r\n    // ****************** Other contracts that need to interact with ****************** //\r\n\r\n    // Contract instances of Degis, USDC, emergencyPool, LPToken\r\n    IDegisToken public DEGIS;\r\n    IERC20 public USDC_TOKEN;\r\n    IEmergencyPool public emergencyPool;\r\n    ILPToken public DLPToken;\r\n\r\n    // ****************** State variables ****************** //\r\n\r\n    // 1 lp = LPValue * usd\r\n    uint256 public LPValue;\r\n\r\n    // current total staking balance of the pool\r\n    uint256 public currentStakingBalance;\r\n\r\n    // real staking balance = current staking balance - sum(unstake request in the queue)\r\n    uint256 public realStakingBalance;\r\n\r\n    // locked balance is for potiential payoff\r\n    uint256 public lockedBalance;\r\n\r\n    // locked relation = locked balance / currentStakingBalance\r\n    uint256 public PRB_lockedRatio; //  1e18 = 1  1e17 = 0.1  1e19 = 10\r\n    uint256 public collateralFactor; //  1e18 = 1  1e17 = 0.1  1e19 = 10\r\n\r\n    // available capacity is the current available asset balance\r\n    uint256 public availableCapacity;\r\n\r\n    // premiums have been paid but the policies haven't expired\r\n    uint256 public activePremiums;\r\n\r\n    // rewardCollected is total income from premium\r\n    uint256 public rewardCollected;\r\n\r\n    // the information about this pool\r\n    struct PoolInfo {\r\n        string poolName; // insurance pool\r\n        uint256 poolId; // 0\r\n        uint256 totalLP; // total lp amount\r\n        uint256 accDegisPerShare;\r\n        uint256 lastRewardBlock;\r\n        uint256 degisPerBlock;\r\n        uint256 accPremiumPerShare;\r\n        uint256 lastRewardCollected;\r\n    }\r\n    PoolInfo poolInfo;\r\n\r\n    //  of every unstake request in the queue\r\n    struct UnstakeRequest {\r\n        uint256 pendingAmount;\r\n        uint256 fulfilledAmount;\r\n        bool isPaidOut; // if this request has been fully paid out // maybe redundant\r\n    }\r\n\r\n    // a user's unstake requests\r\n    mapping(address => UnstakeRequest[]) private unstakeRequests;\r\n\r\n    // list of all unstake users\r\n    address[] private unstakeQueue;\r\n\r\n    // current pointer of the unstake request queue\r\n    // uint256 private unstakePointer;  // currently not used\r\n\r\n    event Stake(address indexed userAddress, uint256 amount);\r\n    event Unstake(address indexed userAddress, uint256 amount);\r\n    event ChangeCollateralFactor(address indexed onwerAddress, uint256 factor);\r\n    event SetPolicyFlow(address _policyFlowAddress);\r\n    event BuyNewPolicy(\r\n        address indexed userAddress,\r\n        uint256 premium,\r\n        uint256 payout\r\n    );\r\n    event OwnerChanged(address oldOwner, address newOwner);\r\n\r\n    /**\r\n     * @notice constructor function\r\n     * @param _factor: initial collateral factor\r\n     * @param _degis: address of the degis token\r\n     * @param _emergencyPool: address of the emergency pool\r\n     * @param _lptoken: address of LP token\r\n     * @param _usdcAddress: address of USDC\r\n     * @param _degisPerBlock: degis reward per block\r\n     */\r\n    constructor(\r\n        uint256 _factor,\r\n        IDegisToken _degis,\r\n        IEmergencyPool _emergencyPool,\r\n        ILPToken _lptoken,\r\n        address _lotteryPool,\r\n        address _usdcAddress,\r\n        uint256 _degisPerBlock\r\n    ) {\r\n        owner = msg.sender;\r\n\r\n        collateralFactor = doDiv(_factor, 100);\r\n\r\n        PRB_lockedRatio = 1e18; // 1e18 = 1\r\n        DEGIS = _degis;\r\n        USDC_TOKEN = IERC20(_usdcAddress);\r\n        poolInfo = PoolInfo(\r\n            \"insurancepool\", // pool name\r\n            0, // pool id\r\n            0, // TOTAL LP\r\n            0, // accDegisPerShare\r\n            block.number, // lastRewardBlock\r\n            _degisPerBlock,\r\n            0, // accPremiumPerShare\r\n            0 // lastRewardCollected\r\n        );\r\n\r\n        DLPToken = _lptoken;\r\n        LPValue = 1e18;\r\n        emergencyPool = _emergencyPool;\r\n        lotteryPool = _lotteryPool;\r\n    }\r\n\r\n    // ************************************ Modifiers ************************************ //\r\n\r\n    /**\r\n     * @notice only the owner can call some functions\r\n     */\r\n    modifier onlyOwner() {\r\n        require(msg.sender == owner, \"only the owner can call this function\");\r\n        _;\r\n    }\r\n\r\n    /**\r\n     * @notice only the policyFlow contract can call some functions\r\n     */\r\n    modifier onlyPolicyFlow() {\r\n        require(\r\n            msg.sender == policyFlow,\r\n            \"only called by the policy flow contract\"\r\n        );\r\n        _;\r\n    }\r\n\r\n    /**\r\n     * @notice the address can not be zero\r\n     */\r\n    modifier onlyValidAddress(address _address) {\r\n        require(_address != address(0), \"the address can not be zero address\");\r\n        _;\r\n    }\r\n\r\n    // ************************************ View Functions ************************************ //\r\n\r\n    /**\r\n     * @notice get PRB_lockedRatio of the pool\r\n     */\r\n    function getLockedRatio() public view returns (uint256) {\r\n        return PRB_lockedRatio;\r\n    }\r\n\r\n    /**\r\n     * @notice get accumulated degis per share\r\n     */\r\n    function getAccDegisPerShare() public view returns (uint256) {\r\n        return poolInfo.accDegisPerShare;\r\n    }\r\n\r\n    /**\r\n     * @notice get the premium reward collected now\r\n     */\r\n    function getRewardCollected() public view returns (uint256) {\r\n        return rewardCollected;\r\n    }\r\n\r\n    /**\r\n     * @notice view how many assets are locked in the pool currently\r\n     */\r\n    function getTotalLocked() public view returns (uint256) {\r\n        return lockedBalance;\r\n    }\r\n\r\n    /**\r\n     * @notice view the collateral factor\r\n     */\r\n    function getCollateralFactor() public view returns (uint256) {\r\n        return collateralFactor;\r\n    }\r\n\r\n    /**\r\n     * @notice view the pending degis amount in frontend\r\n     */\r\n    function pendingDegis(address _userAddress)\r\n        external\r\n        view\r\n        onlyValidAddress(_userAddress)\r\n        returns (uint256)\r\n    {\r\n        if (block.number < poolInfo.lastRewardBlock) return 0;\r\n\r\n        UserInfo storage user = userInfo[_userAddress];\r\n\r\n        uint256 real_balance = getRealBalance(_userAddress);\r\n\r\n        uint256 accDegisPerShare = poolInfo.accDegisPerShare;\r\n\r\n        if (real_balance > 0) {\r\n            uint256 blocks = block.number - poolInfo.lastRewardBlock;\r\n            uint256 degisReward = poolInfo.degisPerBlock * blocks;\r\n\r\n            accDegisPerShare += (degisReward * 1e18) / currentStakingBalance;\r\n            uint256 pending = ((real_balance * accDegisPerShare) / 1e18) -\r\n                user.rewardDebt;\r\n            return pending;\r\n        } else {\r\n            return 0;\r\n        }\r\n    }\r\n\r\n    /**\r\n     * @notice view the pending premium amount in frontend\r\n     */\r\n    function pendingPremium(address _userAddress)\r\n        external\r\n        view\r\n        returns (uint256)\r\n    {\r\n        UserInfo storage user = userInfo[_userAddress];\r\n\r\n        uint256 real_balance = getRealBalance(_userAddress);\r\n\r\n        uint256 accPremiumPerShare = poolInfo.accPremiumPerShare;\r\n\r\n        if (block.number > poolInfo.lastRewardBlock) {\r\n            uint256 premiumReward = rewardCollected -\r\n                poolInfo.lastRewardCollected;\r\n            accPremiumPerShare +=\r\n                (premiumReward * (1e18)) /\r\n                (currentStakingBalance);\r\n            return\r\n                ((real_balance * accPremiumPerShare) / (1e18)) -\r\n                (user.premiumDebt);\r\n        } else {\r\n            return 0;\r\n        }\r\n    }\r\n\r\n    /**\r\n     * @notice view the pool name (only for test, delete when mainnet)\r\n     */\r\n    function getPoolName() public view returns (string memory) {\r\n        string memory name = poolInfo.poolName;\r\n        return name;\r\n    }\r\n\r\n    /**\r\n     * @notice view the pool's total available capacity\r\n     */\r\n    function getAvailableCapacity() public view returns (uint256) {\r\n        return availableCapacity;\r\n    }\r\n\r\n    /**\r\n     * @notice view the pool's total available capacity\r\n     */\r\n    function getCurrentStakingBalance() public view returns (uint256) {\r\n        return currentStakingBalance;\r\n    }\r\n\r\n    function getRealBalance(address _userAddress)\r\n        public\r\n        view\r\n        returns (uint256)\r\n    {\r\n        uint256 lp_num = DLPToken.balanceOf(_userAddress);\r\n        uint256 real_balance = doMul(lp_num, LPValue);\r\n        return real_balance;\r\n    }\r\n\r\n    /**\r\n     * @notice get a user's stake amount in the pool\r\n     * @param _userAddress: the user's address\r\n     */\r\n    function getStakeAmount(address _userAddress)\r\n        public\r\n        view\r\n        returns (uint256)\r\n    {\r\n        return (userInfo[_userAddress].assetBalance);\r\n    }\r\n\r\n    /**\r\n     * @notice get the balance that the pool can unlock(maximum)\r\n     * @return the amount that the pool can unlock\r\n     */\r\n    function getPoolUnlocked() public view returns (uint256) {\r\n        return currentStakingBalance - lockedBalance;\r\n    }\r\n\r\n    /**\r\n     * @notice get the balance that one user(LP) can unlock(maximum)\r\n     * @param _userAddress: user's address\r\n     * @return the amount that the user can unlock\r\n     */\r\n    function getUnlockedfor(address _userAddress)\r\n        public\r\n        view\r\n        returns (uint256)\r\n    {\r\n        // uint256 user_balance = userInfo[_userAddress].assetBalance;\r\n        uint256 user_balance = getRealBalance(_userAddress);\r\n        if (availableCapacity >= user_balance) {\r\n            return user_balance;\r\n        } else {\r\n            return availableCapacity;\r\n        }\r\n    }\r\n\r\n    /**\r\n     * @notice get the user's locked balance\r\n     * @param _userAddress: user's address\r\n     * @return _amount: the user's locked amount\r\n     */\r\n    function getLockedfor(address _userAddress) public view returns (uint256) {\r\n        // uint256 user_balance = userInfo[_userAddress].assetBalance;\r\n        uint256 user_balance = getRealBalance(_userAddress);\r\n        uint256 locked = (PRB_lockedRatio * user_balance) / (1e18);\r\n        return locked;\r\n    }\r\n\r\n    // ************************************ Helper Functions ************************************ //\r\n\r\n    /**\r\n     * @notice set the address of policyFlow\r\n     */\r\n    function setPolicyFlow(address _policyFlowAddress) public onlyOwner {\r\n        policyFlow = _policyFlowAddress;\r\n        emit SetPolicyFlow(_policyFlowAddress);\r\n    }\r\n\r\n    /**\r\n     * @notice transfer the ownership to a new owner\r\n     */\r\n    function transferOwnerShip(address _newOwner)\r\n        public\r\n        onlyOwner\r\n        onlyValidAddress(_newOwner)\r\n    {\r\n        emit OwnerChanged(owner, _newOwner);\r\n        owner = _newOwner;\r\n    }\r\n\r\n    /**\r\n     * @notice do division via PRBMath\r\n     */\r\n    // 1e18 = 1, 1e17 = 0.1, 1e19 = 10\\\r\n    // E.g. doDiv(1, 1) = 1e18  doDiv(1, 10) = 1e17\r\n    function doDiv(uint256 x, uint256 y)\r\n        internal\r\n        pure\r\n        returns (uint256 result)\r\n    {\r\n        result = PRBMathUD60x18.div(x, y);\r\n    }\r\n\r\n    /**\r\n     * @notice do multiplication via PRBMath\r\n     */\r\n    // 1e18 = 1, 1e17 = 0.1, 1e19 = 10\r\n    // E.g. doMul(1, 1) = 1e18  doMul(2, 5) = 1e19\r\n    function doMul(uint256 x, uint256 y)\r\n        internal\r\n        pure\r\n        returns (uint256 result)\r\n    {\r\n        result = PRBMathUD60x18.mul(x, y);\r\n    }\r\n\r\n    /**\r\n     * @notice change the collateral factor(only by the owner)\r\n     * @param _factor: the new collateral factor\r\n     */\r\n    function setCollateralFactor(uint256 _factor) public onlyOwner {\r\n        collateralFactor = doDiv(_factor, 100);\r\n        emit ChangeCollateralFactor(owner, _factor);\r\n    }\r\n\r\n    // ************************************ Main Functions ************************************ //\r\n\r\n    /**\r\n     * @notice Update the pool's reward status for degis & premium\r\n     * Every time the asset changes with a call update it\r\n     */\r\n    function updatePoolReward() internal {\r\n        if (block.number < poolInfo.lastRewardBlock) {\r\n            return;\r\n        }\r\n        if (currentStakingBalance == 0) {\r\n            poolInfo.lastRewardBlock = block.number;\r\n            return;\r\n        }\r\n        uint256 blocks = block.number - poolInfo.lastRewardBlock;\r\n        uint256 degisReward = poolInfo.degisPerBlock * blocks;\r\n        DEGIS.mint(address(this), degisReward);\r\n\r\n        poolInfo.accDegisPerShare +=\r\n            (degisReward * (1e18)) /\r\n            (currentStakingBalance);\r\n\r\n        uint256 premiumReward = rewardCollected - poolInfo.lastRewardCollected;\r\n\r\n        poolInfo.accPremiumPerShare +=\r\n            (premiumReward * (1e18)) /\r\n            (currentStakingBalance);\r\n\r\n        poolInfo.lastRewardBlock = block.number;\r\n    }\r\n\r\n    /**\r\n     * @notice check the conditions when receive new buying request\r\n     * @param _payoff: the payoff of the policy to be bought\r\n     */\r\n    modifier checkWhenBuy(uint256 _payoff) {\r\n        require(\r\n            availableCapacity >= _payoff,\r\n            \"not sufficient risk capacity for this policy\"\r\n        );\r\n        _;\r\n    }\r\n\r\n    /**\r\n     * @notice update the pool variables when buying policies\r\n     * @param _premium: the premium of the policy just sold\r\n     * @param _payoff: the payoff of the policy just sold\r\n     * @param _userAddress: the address of the buyer\r\n     */\r\n    function updateWhenBuy(\r\n        uint256 _premium,\r\n        uint256 _payoff,\r\n        address _userAddress\r\n    ) external checkWhenBuy(_payoff) returns (bool) {\r\n        lockedBalance += _payoff;\r\n        activePremiums += _premium;\r\n        availableCapacity -= _payoff;\r\n\r\n        // 1e18 = 1\r\n        PRB_lockedRatio = doDiv(lockedBalance, currentStakingBalance);\r\n\r\n        // You need another transaction for approving this spending\r\n        // OR just approve for infinity at the first time\r\n        USDC_TOKEN.safeTransferFrom(_userAddress, address(this), _premium);\r\n\r\n        emit BuyNewPolicy(_userAddress, _premium, _payoff);\r\n        return true;\r\n    }\r\n\r\n    /**\r\n     * @notice stake: a user(LP) want to stake some amount of asset\r\n     * @param _userAddress: user's address\r\n     * @param _amount: the amount that the user want to stake\r\n     */\r\n    function stake(address _userAddress, uint256 _amount)\r\n        external\r\n        onlyValidAddress(_userAddress)\r\n    {\r\n        require(_amount > 0, \"can not deposit 0\");\r\n\r\n        UserInfo storage user = userInfo[_userAddress];\r\n        updatePoolReward();\r\n\r\n        uint256 real_balance = getRealBalance(_userAddress);\r\n\r\n        // If this is not the first deposit, give his reward\r\n        if (real_balance > 0) {\r\n            uint256 pending = ((real_balance * poolInfo.accDegisPerShare) /\r\n                (1e18)) - (user.rewardDebt);\r\n            safeDegisTransfer(_userAddress, pending);\r\n        }\r\n\r\n        _deposit(_userAddress, _amount);\r\n\r\n        real_balance = getRealBalance(_userAddress);\r\n        user.rewardDebt = (real_balance * (poolInfo.accDegisPerShare)) / (1e18);\r\n\r\n        user.premiumDebt =\r\n            (real_balance * (poolInfo.accPremiumPerShare)) /\r\n            (1e18);\r\n\r\n        poolInfo.lastRewardCollected = rewardCollected;\r\n\r\n        emit Stake(_userAddress, _amount);\r\n    }\r\n\r\n    /**\r\n     * @notice unstake: a user want to unstake some amount\r\n     * @param _userAddress: user's address\r\n     * @param _amount: the amount that the user want to unstake\r\n     */\r\n    function unstake(address _userAddress, uint256 _amount)\r\n        external\r\n        onlyValidAddress(_userAddress)\r\n    {\r\n        uint256 real_balance = getRealBalance(_userAddress);\r\n        require(\r\n            _amount <= real_balance && _amount > 0,\r\n            \"not enough balance to be unlocked or your withdraw amount is 0\"\r\n        );\r\n\r\n        uint256 unlocked = getPoolUnlocked();\r\n        uint256 unstakeAmount = _amount;\r\n\r\n        if (_amount > unlocked) {\r\n            uint256 remainingURequest = _amount - unlocked;\r\n            unstakeRequests[_userAddress].push(\r\n                UnstakeRequest(remainingURequest, 0, false)\r\n            );\r\n            unstakeQueue.push(_userAddress);\r\n            unstakeAmount = unlocked; // only withdraw the unlocked value\r\n            userInfo[_userAddress].pendingBalance += remainingURequest;\r\n        }\r\n\r\n        updatePoolReward();\r\n        UserInfo storage user = userInfo[_userAddress];\r\n\r\n        if (real_balance > 0) {\r\n            uint256 pending_degis = ((real_balance *\r\n                poolInfo.accDegisPerShare) / (1e18)) - (user.rewardDebt);\r\n            safeDegisTransfer(_userAddress, pending_degis);\r\n\r\n            uint256 pending_premium = ((real_balance *\r\n                poolInfo.accPremiumPerShare) / (1e18)) - (user.premiumDebt);\r\n            USDC_TOKEN.safeTransfer(_userAddress, pending_premium);\r\n        }\r\n\r\n        _withdraw(_userAddress, unstakeAmount);\r\n\r\n        real_balance = getRealBalance(_userAddress);\r\n\r\n        user.rewardDebt = (real_balance * (poolInfo.accDegisPerShare)) / (1e18);\r\n        user.premiumDebt =\r\n            (real_balance * (poolInfo.accPremiumPerShare)) /\r\n            (1e18);\r\n\r\n        poolInfo.lastRewardCollected = rewardCollected;\r\n    }\r\n\r\n    /**\r\n     * @notice finish the deposit process\r\n     * @param _userAddress: address of the user who deposits\r\n     * @param _amount: the amount he deposits\r\n     */\r\n    function _deposit(address _userAddress, uint256 _amount) internal {\r\n        // Update the pool's status\r\n        currentStakingBalance += _amount;\r\n        realStakingBalance += _amount;\r\n        availableCapacity += _amount;\r\n\r\n        //\r\n        PRB_lockedRatio = doDiv(lockedBalance, currentStakingBalance);\r\n\r\n        USDC_TOKEN.safeTransferFrom(_userAddress, address(this), _amount);\r\n\r\n        uint256 lp_num = doDiv(_amount, LPValue); // new LPToken number\r\n        DLPToken.mint(_userAddress, lp_num);\r\n        poolInfo.totalLP += lp_num;\r\n        updateLPValue();\r\n\r\n        userInfo[_userAddress].assetBalance = getRealBalance(_userAddress);\r\n\r\n        emit Stake(_userAddress, _amount);\r\n    }\r\n\r\n    /**\r\n     * @notice update the value of each lp token\r\n     */\r\n    function updateLPValue() internal {\r\n        uint256 totalLP = poolInfo.totalLP;\r\n        LPValue = doDiv(currentStakingBalance, totalLP);\r\n    }\r\n\r\n    /**\r\n     * @notice _withdraw: finish the withdraw action, only when meeting the conditions\r\n     * @param _userAddress: address of the user who withdraws\r\n     * @param _amount: the amount he withdraws\r\n     */\r\n    function _withdraw(address _userAddress, uint256 _amount) internal {\r\n        // Update the pool's status\r\n        currentStakingBalance -= _amount;\r\n        realStakingBalance -= _amount;\r\n        availableCapacity -= _amount;\r\n\r\n        PRB_lockedRatio = doDiv(lockedBalance, currentStakingBalance);\r\n        //\r\n        // ERC20  usdc/dai\r\n\r\n        USDC_TOKEN.safeTransfer(_userAddress, _amount);\r\n\r\n        uint256 lp_num = doDiv(_amount, LPValue);\r\n        DLPToken.burn(_userAddress, lp_num);\r\n        poolInfo.totalLP -= lp_num;\r\n        updateLPValue();\r\n\r\n        userInfo[_userAddress].assetBalance = getRealBalance(_userAddress);\r\n\r\n        emit Unstake(_userAddress, _amount);\r\n    }\r\n\r\n    /**\r\n     * @notice update the status when a policy expires\r\n     * @param _premium: the policy's premium\r\n     * @param _payoff: the policy's payoff\r\n     */\r\n    function updateWhenExpire(uint256 _premium, uint256 _payoff) public {\r\n        updatePoolReward();\r\n\r\n        activePremiums -= _premium;\r\n        lockedBalance -= _payoff;\r\n        availableCapacity += _payoff;\r\n\r\n        uint256 premiumToLP = (_premium * doDiv(8, 10)) / 1e18; // * 9e17\r\n        uint256 premiumToLottery = (_premium * doDiv(1, 10)) / 1e18;\r\n        rewardCollected += premiumToLP;\r\n\r\n        // transfer some reward to emergency pool and lottery pool\r\n        USDC_TOKEN.safeTransfer(address(emergencyPool), _premium - premiumToLP);\r\n        USDC_TOKEN.safeTransfer(address(lotteryPool), _premium - premiumToLP);\r\n\r\n        uint256 remainingPayoff = _payoff;\r\n        uint256 pendingAmount;\r\n        if (unstakeQueue.length > 0) {\r\n            for (uint256 i = unstakeQueue.length - 1; i >= 0; i -= 1) {\r\n                if (remainingPayoff >= 0) {\r\n                    address pendingUser = unstakeQueue[i];\r\n                    for (\r\n                        uint256 j = 0;\r\n                        j < unstakeRequests[pendingUser].length;\r\n                        j++\r\n                    ) {\r\n                        pendingAmount = unstakeRequests[pendingUser][j]\r\n                            .pendingAmount;\r\n                        if (remainingPayoff > pendingAmount) {\r\n                            remainingPayoff -= pendingAmount;\r\n\r\n                            for (\r\n                                uint256 k = 0;\r\n                                k < unstakeRequests[pendingUser].length - 1;\r\n                                k += 1\r\n                            ) {\r\n                                unstakeRequests[pendingUser][\r\n                                    k\r\n                                ] = unstakeRequests[pendingUser][k + 1];\r\n                            }\r\n                            unstakeRequests[pendingUser].pop();\r\n\r\n                            USDC_TOKEN.safeTransfer(pendingUser, pendingAmount);\r\n                        } else {\r\n                            unstakeRequests[pendingUser][j]\r\n                                .pendingAmount -= remainingPayoff;\r\n                            unstakeRequests[pendingUser][j]\r\n                                .fulfilledAmount += remainingPayoff;\r\n                            USDC_TOKEN.safeTransfer(\r\n                                pendingUser,\r\n                                remainingPayoff\r\n                            );\r\n\r\n                            remainingPayoff = 0;\r\n                            break;\r\n                        }\r\n                    }\r\n                } else break;\r\n            }\r\n        }\r\n    }\r\n\r\n    /**\r\n     * @notice pay a claim\r\n     * @param _premium: the policy's premium\r\n     * @param _payoff: the policy's payoff\r\n     * @param _userAddress: the address of the premium claimer\r\n     */\r\n    function payClaim(\r\n        uint256 _premium,\r\n        uint256 _payoff,\r\n        address _userAddress\r\n    ) public onlyValidAddress(_userAddress) {\r\n        updatePoolReward();\r\n\r\n        lockedBalance -= _payoff;\r\n        currentStakingBalance -= _payoff;\r\n        realStakingBalance -= _payoff;\r\n        activePremiums -= _premium;\r\n\r\n        uint256 premiumToLP = (_premium * doDiv(8, 10)) / 1e18; // * 9e17\r\n        uint256 premiumToLottery = (_premium * doDiv(1, 10)) / 1e18;\r\n        uint256 premiumToEmergency = (_premium * doDiv(1, 10)) / 1e18;\r\n        rewardCollected += premiumToLP;\r\n\r\n        // transfer some reward to emergency pool and lottery pool\r\n        USDC_TOKEN.safeTransfer(address(emergencyPool), premiumToEmergency);\r\n        USDC_TOKEN.safeTransfer(address(lotteryPool), premiumToEmergency);\r\n\r\n        updateLPValue();\r\n        USDC_TOKEN.safeTransfer(_userAddress, _payoff);\r\n    }\r\n\r\n    /**\r\n     * @notice harvest your degis reward\r\n     * @param _userAddress: the address of the degis claimer\r\n     */\r\n    function harvestDegisReward(address _userAddress)\r\n        public\r\n        onlyValidAddress(_userAddress)\r\n    {\r\n        UserInfo storage user = userInfo[_userAddress];\r\n        updatePoolReward();\r\n\r\n        uint256 real_balance = getRealBalance(_userAddress);\r\n\r\n        if (real_balance > 0) {\r\n            uint256 pending = ((real_balance * poolInfo.accDegisPerShare) /\r\n                (1e18)) - (user.rewardDebt);\r\n            safeDegisTransfer(_userAddress, pending);\r\n        }\r\n\r\n        user.rewardDebt = (real_balance * (poolInfo.accDegisPerShare)) / (1e18);\r\n    }\r\n\r\n    /**\r\n     * @notice harvest your premium reward\r\n     * @param _userAddress: the address of the premium claimer\r\n     */\r\n    function harvestPremium(address _userAddress)\r\n        public\r\n        onlyValidAddress(_userAddress)\r\n    {\r\n        UserInfo storage user = userInfo[_userAddress];\r\n        updatePoolReward();\r\n\r\n        uint256 real_balance = getRealBalance(_userAddress);\r\n\r\n        if (real_balance > 0) {\r\n            uint256 pending = ((real_balance * poolInfo.accPremiumPerShare) /\r\n                (1e18)) - (user.premiumDebt);\r\n            USDC_TOKEN.safeTransfer(_userAddress, pending);\r\n        }\r\n        user.premiumDebt =\r\n            (real_balance * (poolInfo.accPremiumPerShare)) /\r\n            (1e18);\r\n\r\n        poolInfo.lastRewardCollected = rewardCollected;\r\n    }\r\n\r\n    /**\r\n     * @notice revert the last unstake request for a user\r\n     * @param _userAddress: user's address\r\n     */\r\n    function revertUnstakeRequest(address _userAddress)\r\n        public\r\n        onlyValidAddress(_userAddress)\r\n    {\r\n        UnstakeRequest[] storage userRequests = unstakeRequests[_userAddress];\r\n        require(\r\n            userRequests.length > 0,\r\n            \"this user has no pending unstake request\"\r\n        );\r\n\r\n        uint256 index = userRequests.length - 1;\r\n        uint256 remainingRequest = userRequests[index].pendingAmount -\r\n            userRequests[index].fulfilledAmount;\r\n\r\n        realStakingBalance += remainingRequest;\r\n        userInfo[_userAddress].pendingBalance -= remainingRequest;\r\n\r\n        removeOneRequest(_userAddress);\r\n    }\r\n\r\n    /**\r\n     * @notice revert all unstake requests for a user\r\n     * @param _userAddress: user's address\r\n     */\r\n    function revertAllUnstakeRequest(address _userAddress)\r\n        public\r\n        onlyValidAddress(_userAddress)\r\n    {\r\n        UnstakeRequest[] storage userRequests = unstakeRequests[_userAddress];\r\n        require(\r\n            userRequests.length > 0,\r\n            \"this user has no pending unstake request\"\r\n        );\r\n        removeAllRequest(_userAddress);\r\n        delete unstakeRequests[_userAddress];\r\n\r\n        userInfo[_userAddress].assetBalance = getRealBalance(_userAddress);\r\n\r\n        uint256 remainingRequest = userInfo[_userAddress].pendingBalance;\r\n        realStakingBalance += remainingRequest;\r\n        userInfo[_userAddress].pendingBalance = 0;\r\n    }\r\n\r\n    /**\r\n     * @notice remove all unstake requests for a user\r\n     * @param _userAddress: user's address\r\n     */\r\n    function removeAllRequest(address _userAddress) internal {\r\n        for (uint256 i = 0; i < unstakeRequests[_userAddress].length; i += 1) {\r\n            removeOneRequest(_userAddress);\r\n        }\r\n    }\r\n\r\n    /**\r\n     * @notice remove one(the latest) unstake requests for a user\r\n     * @param _userAddress: user's address\r\n     */\r\n    function removeOneRequest(address _userAddress) internal {\r\n        uint256 index = unstakeQueue.length - 1;\r\n\r\n        while (index >= 0) {\r\n            if (unstakeQueue[index] == _userAddress) break;\r\n            index -= 1;\r\n        }\r\n\r\n        for (uint256 j = index; j < unstakeQueue.length - 1; j += 1) {\r\n            unstakeQueue[j] = unstakeQueue[j + 1];\r\n        }\r\n\r\n        unstakeQueue.pop();\r\n    }\r\n\r\n    /**\r\n     * @notice safe degis transfer (if the pool has enough DEGIS token)\r\n     * @param _to: user's address\r\n     * @param _amount: amount\r\n     */\r\n    function safeDegisTransfer(address _to, uint256 _amount) internal {\r\n        uint256 DegisBalance = DEGIS.balanceOf(address(this));\r\n        if (_amount > DegisBalance) {\r\n            DEGIS.transfer(_to, DegisBalance);\r\n        } else {\r\n            DEGIS.transfer(_to, _amount);\r\n        }\r\n    }\r\n}\r\n",
  "sourcePath": "D:\\src\\Degis-Contracts-1\\contracts\\InsurancePool.sol",
  "compiler": {
    "name": "solc",
    "version": "0.8.5+commit.a4f2e591.Emscripten.clang"
  },
  "schemaVersion": "3.4.3",
  "updatedAt": "2021-09-18T13:58:28.089Z",
  "networkType": "ethereum",
  "devdoc": {
    "kind": "dev",
    "methods": {
      "constructor": {
        "params": {
          "_degis": ": address of the degis token",
          "_degisPerBlock": ": degis reward per block",
          "_emergencyPool": ": address of the emergency pool",
          "_factor": ": initial collateral factor",
          "_lptoken": ": address of LP token",
          "_usdcAddress": ": address of USDC"
        }
      },
      "getLockedfor(address)": {
        "params": {
          "_userAddress": ": user's address"
        },
        "returns": {
          "_0": "_amount: the user's locked amount"
        }
      },
      "getPoolUnlocked()": {
        "returns": {
          "_0": "the amount that the pool can unlock"
        }
      },
      "getStakeAmount(address)": {
        "params": {
          "_userAddress": ": the user's address"
        }
      },
      "getUnlockedfor(address)": {
        "params": {
          "_userAddress": ": user's address"
        },
        "returns": {
          "_0": "the amount that the user can unlock"
        }
      },
      "harvestDegisReward(address)": {
        "params": {
          "_userAddress": ": the address of the degis claimer"
        }
      },
      "harvestPremium(address)": {
        "params": {
          "_userAddress": ": the address of the premium claimer"
        }
      },
      "payClaim(uint256,uint256,address)": {
        "params": {
          "_payoff": ": the policy's payoff",
          "_premium": ": the policy's premium",
          "_userAddress": ": the address of the premium claimer"
        }
      },
      "revertAllUnstakeRequest(address)": {
        "params": {
          "_userAddress": ": user's address"
        }
      },
      "revertUnstakeRequest(address)": {
        "params": {
          "_userAddress": ": user's address"
        }
      },
      "setCollateralFactor(uint256)": {
        "params": {
          "_factor": ": the new collateral factor"
        }
      },
      "stake(address,uint256)": {
        "params": {
          "_amount": ": the amount that the user want to stake",
          "_userAddress": ": user's address"
        }
      },
      "unstake(address,uint256)": {
        "params": {
          "_amount": ": the amount that the user want to unstake",
          "_userAddress": ": user's address"
        }
      },
      "updateWhenBuy(uint256,uint256,address)": {
        "params": {
          "_payoff": ": the payoff of the policy just sold",
          "_premium": ": the premium of the policy just sold",
          "_userAddress": ": the address of the buyer"
        }
      },
      "updateWhenExpire(uint256,uint256)": {
        "params": {
          "_payoff": ": the policy's payoff",
          "_premium": ": the policy's premium"
        }
      }
    },
    "version": 1
  },
  "userdoc": {
    "errors": {
      "PRBMath__MulDivFixedPointOverflow(uint256)": [
        {
          "notice": "Emitted when the result overflows uint256."
        }
      ],
      "PRBMath__MulDivOverflow(uint256,uint256)": [
        {
          "notice": "Emitted when the result overflows uint256."
        }
      ]
    },
    "kind": "user",
    "methods": {
      "constructor": {
        "notice": "constructor function"
      },
      "getAccDegisPerShare()": {
        "notice": "get accumulated degis per share"
      },
      "getAvailableCapacity()": {
        "notice": "view the pool's total available capacity"
      },
      "getCollateralFactor()": {
        "notice": "view the collateral factor"
      },
      "getCurrentStakingBalance()": {
        "notice": "view the pool's total available capacity"
      },
      "getLockedRatio()": {
        "notice": "get PRB_lockedRatio of the pool"
      },
      "getLockedfor(address)": {
        "notice": "get the user's locked balance"
      },
      "getPoolName()": {
        "notice": "view the pool name (only for test, delete when mainnet)"
      },
      "getPoolUnlocked()": {
        "notice": "get the balance that the pool can unlock(maximum)"
      },
      "getRewardCollected()": {
        "notice": "get the premium reward collected now"
      },
      "getStakeAmount(address)": {
        "notice": "get a user's stake amount in the pool"
      },
      "getTotalLocked()": {
        "notice": "view how many assets are locked in the pool currently"
      },
      "getUnlockedfor(address)": {
        "notice": "get the balance that one user(LP) can unlock(maximum)"
      },
      "harvestDegisReward(address)": {
        "notice": "harvest your degis reward"
      },
      "harvestPremium(address)": {
        "notice": "harvest your premium reward"
      },
      "payClaim(uint256,uint256,address)": {
        "notice": "pay a claim"
      },
      "pendingDegis(address)": {
        "notice": "view the pending degis amount in frontend"
      },
      "pendingPremium(address)": {
        "notice": "view the pending premium amount in frontend"
      },
      "revertAllUnstakeRequest(address)": {
        "notice": "revert all unstake requests for a user"
      },
      "revertUnstakeRequest(address)": {
        "notice": "revert the last unstake request for a user"
      },
      "setCollateralFactor(uint256)": {
        "notice": "change the collateral factor(only by the owner)"
      },
      "setPolicyFlow(address)": {
        "notice": "set the address of policyFlow"
      },
      "stake(address,uint256)": {
        "notice": "stake: a user(LP) want to stake some amount of asset"
      },
      "transferOwnerShip(address)": {
        "notice": "transfer the ownership to a new owner"
      },
      "unstake(address,uint256)": {
        "notice": "unstake: a user want to unstake some amount"
      },
      "updateWhenBuy(uint256,uint256,address)": {
        "notice": "update the pool variables when buying policies"
      },
      "updateWhenExpire(uint256,uint256)": {
        "notice": "update the status when a policy expires"
      }
    },
    "version": 1
  }
}