{
  "contractName": "InsurancePool",
  "abi": [
    {
      "inputs": [
        {
          "internalType": "uint256",
          "name": "_factor",
          "type": "uint256"
        },
        {
          "internalType": "contract IDegisToken",
          "name": "_degis",
          "type": "address"
        },
        {
          "internalType": "contract IEmergencyPool",
          "name": "_emergencyPool",
          "type": "address"
        },
        {
          "internalType": "contract ILPToken",
          "name": "_lptoken",
          "type": "address"
        },
        {
          "internalType": "contract IDegisLottery",
          "name": "_degisLottery",
          "type": "address"
        },
        {
          "internalType": "address",
          "name": "_usdcAddress",
          "type": "address"
        },
        {
          "internalType": "uint256",
          "name": "_degisPerBlock",
          "type": "uint256"
        }
      ],
      "stateMutability": "nonpayable",
      "type": "constructor"
    },
    {
      "inputs": [
        {
          "internalType": "uint256",
          "name": "prod1",
          "type": "uint256"
        }
      ],
      "name": "PRBMath__MulDivFixedPointOverflow",
      "type": "error"
    },
    {
      "inputs": [
        {
          "internalType": "uint256",
          "name": "prod1",
          "type": "uint256"
        },
        {
          "internalType": "uint256",
          "name": "denominator",
          "type": "uint256"
        }
      ],
      "name": "PRBMath__MulDivOverflow",
      "type": "error"
    },
    {
      "anonymous": false,
      "inputs": [
        {
          "indexed": true,
          "internalType": "address",
          "name": "userAddress",
          "type": "address"
        },
        {
          "indexed": false,
          "internalType": "uint256",
          "name": "premium",
          "type": "uint256"
        },
        {
          "indexed": false,
          "internalType": "uint256",
          "name": "payout",
          "type": "uint256"
        }
      ],
      "name": "BuyNewPolicy",
      "type": "event"
    },
    {
      "anonymous": false,
      "inputs": [
        {
          "indexed": true,
          "internalType": "address",
          "name": "onwerAddress",
          "type": "address"
        },
        {
          "indexed": false,
          "internalType": "uint256",
          "name": "factor",
          "type": "uint256"
        }
      ],
      "name": "ChangeCollateralFactor",
      "type": "event"
    },
    {
      "anonymous": false,
      "inputs": [
        {
          "indexed": false,
          "internalType": "address",
          "name": "oldOwner",
          "type": "address"
        },
        {
          "indexed": false,
          "internalType": "address",
          "name": "newOwner",
          "type": "address"
        }
      ],
      "name": "OwnerChanged",
      "type": "event"
    },
    {
      "anonymous": false,
      "inputs": [
        {
          "indexed": false,
          "internalType": "address",
          "name": "_policyFlowAddress",
          "type": "address"
        }
      ],
      "name": "SetPolicyFlow",
      "type": "event"
    },
    {
      "anonymous": false,
      "inputs": [
        {
          "indexed": true,
          "internalType": "address",
          "name": "userAddress",
          "type": "address"
        },
        {
          "indexed": false,
          "internalType": "uint256",
          "name": "amount",
          "type": "uint256"
        }
      ],
      "name": "Stake",
      "type": "event"
    },
    {
      "anonymous": false,
      "inputs": [
        {
          "indexed": true,
          "internalType": "address",
          "name": "userAddress",
          "type": "address"
        },
        {
          "indexed": false,
          "internalType": "uint256",
          "name": "amount",
          "type": "uint256"
        }
      ],
      "name": "Unstake",
      "type": "event"
    },
    {
      "inputs": [],
      "name": "DEGIS",
      "outputs": [
        {
          "internalType": "contract IDegisToken",
          "name": "",
          "type": "address"
        }
      ],
      "stateMutability": "view",
      "type": "function",
      "constant": true
    },
    {
      "inputs": [],
      "name": "DLPToken",
      "outputs": [
        {
          "internalType": "contract ILPToken",
          "name": "",
          "type": "address"
        }
      ],
      "stateMutability": "view",
      "type": "function",
      "constant": true
    },
    {
      "inputs": [],
      "name": "LPValue",
      "outputs": [
        {
          "internalType": "uint256",
          "name": "",
          "type": "uint256"
        }
      ],
      "stateMutability": "view",
      "type": "function",
      "constant": true
    },
    {
      "inputs": [],
      "name": "PRB_lockedRatio",
      "outputs": [
        {
          "internalType": "uint256",
          "name": "",
          "type": "uint256"
        }
      ],
      "stateMutability": "view",
      "type": "function",
      "constant": true
    },
    {
      "inputs": [],
      "name": "USDC_TOKEN",
      "outputs": [
        {
          "internalType": "contract IERC20",
          "name": "",
          "type": "address"
        }
      ],
      "stateMutability": "view",
      "type": "function",
      "constant": true
    },
    {
      "inputs": [],
      "name": "activePremiums",
      "outputs": [
        {
          "internalType": "uint256",
          "name": "",
          "type": "uint256"
        }
      ],
      "stateMutability": "view",
      "type": "function",
      "constant": true
    },
    {
      "inputs": [],
      "name": "availableCapacity",
      "outputs": [
        {
          "internalType": "uint256",
          "name": "",
          "type": "uint256"
        }
      ],
      "stateMutability": "view",
      "type": "function",
      "constant": true
    },
    {
      "inputs": [],
      "name": "collateralFactor",
      "outputs": [
        {
          "internalType": "uint256",
          "name": "",
          "type": "uint256"
        }
      ],
      "stateMutability": "view",
      "type": "function",
      "constant": true
    },
    {
      "inputs": [],
      "name": "currentStakingBalance",
      "outputs": [
        {
          "internalType": "uint256",
          "name": "",
          "type": "uint256"
        }
      ],
      "stateMutability": "view",
      "type": "function",
      "constant": true
    },
    {
      "inputs": [],
      "name": "degisLottery",
      "outputs": [
        {
          "internalType": "contract IDegisLottery",
          "name": "",
          "type": "address"
        }
      ],
      "stateMutability": "view",
      "type": "function",
      "constant": true
    },
    {
      "inputs": [],
      "name": "emergencyPool",
      "outputs": [
        {
          "internalType": "contract IEmergencyPool",
          "name": "",
          "type": "address"
        }
      ],
      "stateMutability": "view",
      "type": "function",
      "constant": true
    },
    {
      "inputs": [],
      "name": "lockedBalance",
      "outputs": [
        {
          "internalType": "uint256",
          "name": "",
          "type": "uint256"
        }
      ],
      "stateMutability": "view",
      "type": "function",
      "constant": true
    },
    {
      "inputs": [],
      "name": "owner",
      "outputs": [
        {
          "internalType": "address",
          "name": "",
          "type": "address"
        }
      ],
      "stateMutability": "view",
      "type": "function",
      "constant": true
    },
    {
      "inputs": [],
      "name": "policyFlow",
      "outputs": [
        {
          "internalType": "address",
          "name": "",
          "type": "address"
        }
      ],
      "stateMutability": "view",
      "type": "function",
      "constant": true
    },
    {
      "inputs": [],
      "name": "realStakingBalance",
      "outputs": [
        {
          "internalType": "uint256",
          "name": "",
          "type": "uint256"
        }
      ],
      "stateMutability": "view",
      "type": "function",
      "constant": true
    },
    {
      "inputs": [],
      "name": "rewardCollected",
      "outputs": [
        {
          "internalType": "uint256",
          "name": "",
          "type": "uint256"
        }
      ],
      "stateMutability": "view",
      "type": "function",
      "constant": true
    },
    {
      "inputs": [],
      "name": "getLockedRatio",
      "outputs": [
        {
          "internalType": "uint256",
          "name": "",
          "type": "uint256"
        }
      ],
      "stateMutability": "view",
      "type": "function",
      "constant": true
    },
    {
      "inputs": [],
      "name": "getAccDegisPerShare",
      "outputs": [
        {
          "internalType": "uint256",
          "name": "",
          "type": "uint256"
        }
      ],
      "stateMutability": "view",
      "type": "function",
      "constant": true
    },
    {
      "inputs": [],
      "name": "getRewardCollected",
      "outputs": [
        {
          "internalType": "uint256",
          "name": "",
          "type": "uint256"
        }
      ],
      "stateMutability": "view",
      "type": "function",
      "constant": true
    },
    {
      "inputs": [],
      "name": "getTotalLocked",
      "outputs": [
        {
          "internalType": "uint256",
          "name": "",
          "type": "uint256"
        }
      ],
      "stateMutability": "view",
      "type": "function",
      "constant": true
    },
    {
      "inputs": [],
      "name": "getCollateralFactor",
      "outputs": [
        {
          "internalType": "uint256",
          "name": "",
          "type": "uint256"
        }
      ],
      "stateMutability": "view",
      "type": "function",
      "constant": true
    },
    {
      "inputs": [
        {
          "internalType": "address",
          "name": "_userAddress",
          "type": "address"
        }
      ],
      "name": "pendingDegis",
      "outputs": [
        {
          "internalType": "uint256",
          "name": "",
          "type": "uint256"
        }
      ],
      "stateMutability": "view",
      "type": "function",
      "constant": true
    },
    {
      "inputs": [
        {
          "internalType": "address",
          "name": "_userAddress",
          "type": "address"
        }
      ],
      "name": "pendingPremium",
      "outputs": [
        {
          "internalType": "uint256",
          "name": "",
          "type": "uint256"
        }
      ],
      "stateMutability": "view",
      "type": "function",
      "constant": true
    },
    {
      "inputs": [],
      "name": "getPoolName",
      "outputs": [
        {
          "internalType": "string",
          "name": "",
          "type": "string"
        }
      ],
      "stateMutability": "view",
      "type": "function",
      "constant": true
    },
    {
      "inputs": [],
      "name": "getAvailableCapacity",
      "outputs": [
        {
          "internalType": "uint256",
          "name": "",
          "type": "uint256"
        }
      ],
      "stateMutability": "view",
      "type": "function",
      "constant": true
    },
    {
      "inputs": [],
      "name": "getCurrentStakingBalance",
      "outputs": [
        {
          "internalType": "uint256",
          "name": "",
          "type": "uint256"
        }
      ],
      "stateMutability": "view",
      "type": "function",
      "constant": true
    },
    {
      "inputs": [
        {
          "internalType": "address",
          "name": "_userAddress",
          "type": "address"
        }
      ],
      "name": "getRealBalance",
      "outputs": [
        {
          "internalType": "uint256",
          "name": "",
          "type": "uint256"
        }
      ],
      "stateMutability": "view",
      "type": "function",
      "constant": true
    },
    {
      "inputs": [
        {
          "internalType": "address",
          "name": "_userAddress",
          "type": "address"
        }
      ],
      "name": "getStakeAmount",
      "outputs": [
        {
          "internalType": "uint256",
          "name": "",
          "type": "uint256"
        }
      ],
      "stateMutability": "view",
      "type": "function",
      "constant": true
    },
    {
      "inputs": [],
      "name": "getPoolUnlocked",
      "outputs": [
        {
          "internalType": "uint256",
          "name": "",
          "type": "uint256"
        }
      ],
      "stateMutability": "view",
      "type": "function",
      "constant": true
    },
    {
      "inputs": [
        {
          "internalType": "address",
          "name": "_userAddress",
          "type": "address"
        }
      ],
      "name": "getUnlockedfor",
      "outputs": [
        {
          "internalType": "uint256",
          "name": "",
          "type": "uint256"
        }
      ],
      "stateMutability": "view",
      "type": "function",
      "constant": true
    },
    {
      "inputs": [
        {
          "internalType": "address",
          "name": "_userAddress",
          "type": "address"
        }
      ],
      "name": "getLockedfor",
      "outputs": [
        {
          "internalType": "uint256",
          "name": "",
          "type": "uint256"
        }
      ],
      "stateMutability": "view",
      "type": "function",
      "constant": true
    },
    {
      "inputs": [
        {
          "internalType": "address",
          "name": "_policyFlowAddress",
          "type": "address"
        }
      ],
      "name": "setPolicyFlow",
      "outputs": [],
      "stateMutability": "nonpayable",
      "type": "function"
    },
    {
      "inputs": [
        {
          "internalType": "address",
          "name": "_newOwner",
          "type": "address"
        }
      ],
      "name": "transferOwnerShip",
      "outputs": [],
      "stateMutability": "nonpayable",
      "type": "function"
    },
    {
      "inputs": [
        {
          "internalType": "uint256",
          "name": "_factor",
          "type": "uint256"
        }
      ],
      "name": "setCollateralFactor",
      "outputs": [],
      "stateMutability": "nonpayable",
      "type": "function"
    },
    {
      "inputs": [
        {
          "internalType": "uint256",
          "name": "_premium",
          "type": "uint256"
        },
        {
          "internalType": "uint256",
          "name": "_payoff",
          "type": "uint256"
        },
        {
          "internalType": "address",
          "name": "_userAddress",
          "type": "address"
        }
      ],
      "name": "updateWhenBuy",
      "outputs": [
        {
          "internalType": "bool",
          "name": "",
          "type": "bool"
        }
      ],
      "stateMutability": "nonpayable",
      "type": "function"
    },
    {
      "inputs": [
        {
          "internalType": "address",
          "name": "_userAddress",
          "type": "address"
        },
        {
          "internalType": "uint256",
          "name": "_amount",
          "type": "uint256"
        }
      ],
      "name": "stake",
      "outputs": [],
      "stateMutability": "nonpayable",
      "type": "function"
    },
    {
      "inputs": [
        {
          "internalType": "address",
          "name": "_userAddress",
          "type": "address"
        },
        {
          "internalType": "uint256",
          "name": "_amount",
          "type": "uint256"
        }
      ],
      "name": "unstake",
      "outputs": [],
      "stateMutability": "nonpayable",
      "type": "function"
    },
    {
      "inputs": [
        {
          "internalType": "uint256",
          "name": "_premium",
          "type": "uint256"
        },
        {
          "internalType": "uint256",
          "name": "_payoff",
          "type": "uint256"
        }
      ],
      "name": "updateWhenExpire",
      "outputs": [],
      "stateMutability": "nonpayable",
      "type": "function"
    },
    {
      "inputs": [
        {
          "internalType": "uint256",
          "name": "_premium",
          "type": "uint256"
        },
        {
          "internalType": "uint256",
          "name": "_payoff",
          "type": "uint256"
        },
        {
          "internalType": "address",
          "name": "_userAddress",
          "type": "address"
        }
      ],
      "name": "payClaim",
      "outputs": [],
      "stateMutability": "nonpayable",
      "type": "function"
    },
    {
      "inputs": [
        {
          "internalType": "address",
          "name": "_userAddress",
          "type": "address"
        }
      ],
      "name": "harvestDegisReward",
      "outputs": [],
      "stateMutability": "nonpayable",
      "type": "function"
    },
    {
      "inputs": [
        {
          "internalType": "address",
          "name": "_userAddress",
          "type": "address"
        }
      ],
      "name": "harvestPremium",
      "outputs": [],
      "stateMutability": "nonpayable",
      "type": "function"
    },
    {
      "inputs": [
        {
          "internalType": "address",
          "name": "_userAddress",
          "type": "address"
        }
      ],
      "name": "revertUnstakeRequest",
      "outputs": [],
      "stateMutability": "nonpayable",
      "type": "function"
    },
    {
      "inputs": [
        {
          "internalType": "address",
          "name": "_userAddress",
          "type": "address"
        }
      ],
      "name": "revertAllUnstakeRequest",
      "outputs": [],
      "stateMutability": "nonpayable",
      "type": "function"
    }
  ],
  "bytecode": "0x60806040523480156200001157600080fd5b50604051620051b9380380620051b9833981810160405281019062000037919062000581565b336000806101000a81548173ffffffffffffffffffffffffffffffffffffffff021916908373ffffffffffffffffffffffffffffffffffffffff1602179055506200008a876064620002de60201b60201c565b600d81905550670de0b6b3a7640000600c8190555085600360006101000a81548173ffffffffffffffffffffffffffffffffffffffff021916908373ffffffffffffffffffffffffffffffffffffffff16021790555081600460006101000a81548173ffffffffffffffffffffffffffffffffffffffff021916908373ffffffffffffffffffffffffffffffffffffffff1602179055506040518061010001604052806040518060400160405280600d81526020017f696e737572616e6365706f6f6c00000000000000000000000000000000000000815250815260200160008152602001600081526020016000815260200143815260200182815260200160008152602001600081525060116000820151816000019080519060200190620001b592919062000447565b506020820151816001015560408201518160020155606082015181600301556080820151816004015560a0820151816005015560c0820151816006015560e0820151816007015590505083600660006101000a81548173ffffffffffffffffffffffffffffffffffffffff021916908373ffffffffffffffffffffffffffffffffffffffff160217905550670de0b6b3a764000060088190555084600560006101000a81548173ffffffffffffffffffffffffffffffffffffffff021916908373ffffffffffffffffffffffffffffffffffffffff16021790555082600760006101000a81548173ffffffffffffffffffffffffffffffffffffffff021916908373ffffffffffffffffffffffffffffffffffffffff1602179055505050505050505062000835565b6000620002f78383620002ff60201b62002b421760201c565b905092915050565b60006200032183670de0b6b3a7640000846200032960201b62002b5f1760201c565b905092915050565b6000806000801985870985870292508281108382030391505060008114156200036a578382816200035f576200035e62000736565b5b049250505062000440565b838110620003b35780846040517f773cc18c000000000000000000000000000000000000000000000000000000008152600401620003aa92919062000645565b60405180910390fd5b60008486880990508281118203915080830392506000600186190186169050808604955080840493506001818260000304019050808302841793506000600287600302189050808702600203810290508087026002038102905080870260020381029050808702600203810290508087026002038102905080870260020381029050808502955050505050505b9392505050565b828054620004559062000700565b90600052602060002090601f016020900481019282620004795760008555620004c5565b82601f106200049457805160ff1916838001178555620004c5565b82800160010185558215620004c5579182015b82811115620004c4578251825591602001919060010190620004a7565b5b509050620004d49190620004d8565b5090565b5b80821115620004f3576000816000905550600101620004d9565b5090565b600081519050620005088162000799565b92915050565b6000815190506200051f81620007b3565b92915050565b6000815190506200053681620007cd565b92915050565b6000815190506200054d81620007e7565b92915050565b600081519050620005648162000801565b92915050565b6000815190506200057b816200081b565b92915050565b600080600080600080600060e0888a031215620005a357620005a262000794565b5b6000620005b38a828b016200056a565b9750506020620005c68a828b0162000525565b9650506040620005d98a828b016200053c565b9550506060620005ec8a828b0162000553565b9450506080620005ff8a828b016200050e565b93505060a0620006128a828b01620004f7565b92505060c0620006258a828b016200056a565b91505092959891949750929550565b6200063f81620006f6565b82525050565b60006040820190506200065c600083018562000634565b6200066b602083018462000634565b9392505050565b60006200067f82620006d6565b9050919050565b6000620006938262000672565b9050919050565b6000620006a78262000672565b9050919050565b6000620006bb8262000672565b9050919050565b6000620006cf8262000672565b9050919050565b600073ffffffffffffffffffffffffffffffffffffffff82169050919050565b6000819050919050565b600060028204905060018216806200071957607f821691505b6020821081141562000730576200072f62000765565b5b50919050565b7f4e487b7100000000000000000000000000000000000000000000000000000000600052601260045260246000fd5b7f4e487b7100000000000000000000000000000000000000000000000000000000600052602260045260246000fd5b600080fd5b620007a48162000672565b8114620007b057600080fd5b50565b620007be8162000686565b8114620007ca57600080fd5b50565b620007d8816200069a565b8114620007e457600080fd5b50565b620007f281620006ae565b8114620007fe57600080fd5b50565b6200080c81620006c2565b81146200081857600080fd5b50565b6200082681620006f6565b81146200083257600080fd5b50565b61497480620008456000396000f3fe608060405234801561001057600080fd5b50600436106102695760003560e01c80638863dd1a11610151578063c2a672e0116100c3578063df011c4111610087578063df011c4114610730578063e4d4b58c1461074e578063ea1a76791461076a578063f03816ea14610788578063f4732da6146107a4578063fa569274146107c257610269565b8063c2a672e01461068a578063cba9aa4f146106a6578063d2993983146106c4578063d8a9bdb7146106e2578063da38db411461070057610269565b8063a59b364511610115578063a59b3645146105c8578063adc9772e146105e6578063b2ea78a814610602578063b5c2215714610620578063bf131f4b1461063c578063bff9e65f1461066c57610269565b80638863dd1a14610536578063887866bf146105525780638da5cb5b146105705780638f6987a21461058e578063a21bc3fb146105aa57610269565b80633c2d2900116101ea57806347fea81e116101ae57806347fea81e1461048657806357a972c1146104a25780635c326caf146104c057806360d5b1ab146104dc5780636b5588ef146104fa5780637b80889b1461051857610269565b80633c2d2900146103e25780633fd8e3e7146104125780634020a4ad1461042e57806343d387f81461044a5780634409c2aa1461046857610269565b8063173869151161023157806317386915146103285780631872f73c14610358578063293cbda31461038857806335392b71146103a6578063370dad80146103c457610269565b806304dff2151461026e5780630bd35bbe1461028c5780630c2eb403146102aa5780630c80d691146102da5780630fb71df11461030a575b600080fd5b6102766107e0565b6040516102839190614248565b60405180910390f35b6102946107ea565b6040516102a1919061409a565b60405180910390f35b6102c460048036038101906102bf9190613c05565b610810565b6040516102d19190614248565b60405180910390f35b6102f460048036038101906102ef9190613c05565b61085c565b6040516103019190614248565b60405180910390f35b610312610926565b60405161031f9190614248565b60405180910390f35b610342600480360381019061033d9190613c05565b61093d565b60405161034f9190614248565b60405180910390f35b610372600480360381019061036d9190613c05565b61097a565b60405161037f9190614248565b60405180910390f35b610390610a6d565b60405161039d9190614248565b60405180910390f35b6103ae610a77565b6040516103bb9190614248565b60405180910390f35b6103cc610a81565b6040516103d99190614248565b60405180910390f35b6103fc60048036038101906103f79190613c05565b610a8b565b6040516104099190614248565b60405180910390f35b61042c60048036038101906104279190613c05565b610ab7565b005b61044860048036038101906104439190613c05565b610bfe565b005b610452610e4a565b60405161045f9190613fc0565b60405180910390f35b610470610e70565b60405161047d9190614248565b60405180910390f35b6104a0600480360381019061049b9190613d39565b610e7a565b005b6104aa61126c565b6040516104b79190614248565b60405180910390f35b6104da60048036038101906104d59190613c05565b611272565b005b6104e461137b565b6040516104f19190614248565b60405180910390f35b610502611381565b60405161050f9190614248565b60405180910390f35b61052061138e565b60405161052d9190614248565b60405180910390f35b610550600480360381019061054b9190613c05565b611394565b005b61055a611530565b60405161056791906140eb565b60405180910390f35b610578611556565b6040516105859190613fc0565b60405180910390f35b6105a860048036038101906105a39190613cf9565b61157a565b005b6105b2611c5b565b6040516105bf9190614248565b60405180910390f35b6105d0611c61565b6040516105dd91906140d0565b60405180910390f35b61060060048036038101906105fb9190613c32565b611c87565b005b61060a611ead565b6040516106179190614248565b60405180910390f35b61063a60048036038101906106359190613c9f565b611eb3565b005b61065660048036038101906106519190613d39565b611fc3565b6040516106639190614064565b60405180910390f35b610674612115565b604051610681919061407f565b60405180910390f35b6106a4600480360381019061069f9190613c32565b61213b565b005b6106ae61254d565b6040516106bb9190614248565b60405180910390f35b6106cc612553565b6040516106d99190614106565b60405180910390f35b6106ea6125ee565b6040516106f79190614248565b60405180910390f35b61071a60048036038101906107159190613c05565b6125f4565b6040516107279190614248565b60405180910390f35b610738612786565b6040516107459190614248565b60405180910390f35b61076860048036038101906107639190613c05565b61278c565b005b610772612922565b60405161077f9190614248565b60405180910390f35b6107a2600480360381019061079d9190613c05565b612928565b005b6107ac612b12565b6040516107b99190614248565b60405180910390f35b6107ca612b1c565b6040516107d791906140b5565b60405180910390f35b6000600c54905090565b600360009054906101000a900473ffffffffffffffffffffffffffffffffffffffff1681565b6000600260008373ffffffffffffffffffffffffffffffffffffffff1673ffffffffffffffffffffffffffffffffffffffff168152602001908152602001600020600201549050919050565b600080600660009054906101000a900473ffffffffffffffffffffffffffffffffffffffff1673ffffffffffffffffffffffffffffffffffffffff166370a08231846040518263ffffffff1660e01b81526004016108ba9190613fc0565b60206040518083038186803b1580156108d257600080fd5b505afa1580156108e6573d6000803e3d6000fd5b505050506040513d601f19601f8201168201806040525081019061090a9190613ccc565b9050600061091a82600854612c75565b90508092505050919050565b6000600b54600954610938919061439f565b905090565b6000806109498361085c565b90506000670de0b6b3a764000082600c546109649190614345565b61096e9190614314565b90508092505050919050565b600080600260008473ffffffffffffffffffffffffffffffffffffffff1673ffffffffffffffffffffffffffffffffffffffff168152602001908152602001600020905060006109c98461085c565b905060006011600601549050601160040154431115610a605760006011600701546010546109f7919061439f565b9050600954670de0b6b3a764000082610a109190614345565b610a1a9190614314565b82610a2591906142be565b91508360010154670de0b6b3a76400008385610a419190614345565b610a4b9190614314565b610a55919061439f565b945050505050610a68565b600093505050505b919050565b6000600954905090565b6000600d54905090565b6000600e54905090565b600080610a978361085c565b905080600e5410610aab5780915050610ab2565b600e549150505b919050565b80600073ffffffffffffffffffffffffffffffffffffffff168173ffffffffffffffffffffffffffffffffffffffff161415610b28576040517f08c379a0000000000000000000000000000000000000000000000000000000008152600401610b1f90614168565b60405180910390fd5b6000600260008473ffffffffffffffffffffffffffffffffffffffff1673ffffffffffffffffffffffffffffffffffffffff1681526020019081526020016000209050610b73612c89565b6000610b7e8461085c565b90506000811115610bcc5760008260000154670de0b6b3a764000060116003015484610baa9190614345565b610bb49190614314565b610bbe919061439f565b9050610bca8582612e0d565b505b670de0b6b3a764000060116003015482610be69190614345565b610bf09190614314565b826000018190555050505050565b80600073ffffffffffffffffffffffffffffffffffffffff168173ffffffffffffffffffffffffffffffffffffffff161415610c6f576040517f08c379a0000000000000000000000000000000000000000000000000000000008152600401610c6690614168565b60405180910390fd5b6000601960008473ffffffffffffffffffffffffffffffffffffffff1673ffffffffffffffffffffffffffffffffffffffff16815260200190815260200160002090506000818054905011610cf9576040517f08c379a0000000000000000000000000000000000000000000000000000000008152600401610cf0906141c8565b60405180910390fd5b610d028361302f565b601960008473ffffffffffffffffffffffffffffffffffffffff1673ffffffffffffffffffffffffffffffffffffffff1681526020019081526020016000206000610d4d9190613b52565b610d568361085c565b600260008573ffffffffffffffffffffffffffffffffffffffff1673ffffffffffffffffffffffffffffffffffffffff168152602001908152602001600020600201819055506000600260008573ffffffffffffffffffffffffffffffffffffffff1673ffffffffffffffffffffffffffffffffffffffff16815260200190815260200160002060030154905080600a6000828254610df591906142be565b925050819055506000600260008673ffffffffffffffffffffffffffffffffffffffff1673ffffffffffffffffffffffffffffffffffffffff1681526020019081526020016000206003018190555050505050565b600160009054906101000a900473ffffffffffffffffffffffffffffffffffffffff1681565b6000601054905090565b80600073ffffffffffffffffffffffffffffffffffffffff168173ffffffffffffffffffffffffffffffffffffffff161415610eeb576040517f08c379a0000000000000000000000000000000000000000000000000000000008152600401610ee290614168565b60405180910390fd5b610ef3612c89565b82600b6000828254610f05919061439f565b925050819055508260096000828254610f1e919061439f565b9250508190555082600a6000828254610f37919061439f565b9250508190555083600f6000828254610f50919061439f565b925050819055506000670de0b6b3a7640000610f6e6008600a61309d565b86610f799190614345565b610f839190614314565b90506000670de0b6b3a7640000610f9c6001600a61309d565b87610fa79190614345565b610fb19190614314565b90506000670de0b6b3a7640000610fca6001600a61309d565b88610fd59190614345565b610fdf9190614314565b90508260106000828254610ff391906142be565b92505081905550611069600560009054906101000a900473ffffffffffffffffffffffffffffffffffffffff1682600460009054906101000a900473ffffffffffffffffffffffffffffffffffffffff1673ffffffffffffffffffffffffffffffffffffffff166130b19092919063ffffffff16565b6110d8600760009054906101000a900473ffffffffffffffffffffffffffffffffffffffff1683600460009054906101000a900473ffffffffffffffffffffffffffffffffffffffff1673ffffffffffffffffffffffffffffffffffffffff166130b19092919063ffffffff16565b6000600760009054906101000a900473ffffffffffffffffffffffffffffffffffffffff1673ffffffffffffffffffffffffffffffffffffffff166380a061606040518163ffffffff1660e01b8152600401602060405180830381600087803b15801561114457600080fd5b505af1158015611158573d6000803e3d6000fd5b505050506040513d601f19601f8201168201806040525081019061117c9190613ccc565b9050600760009054906101000a900473ffffffffffffffffffffffffffffffffffffffff1673ffffffffffffffffffffffffffffffffffffffff1663471aeab482856040518363ffffffff1660e01b81526004016111db929190614263565b600060405180830381600087803b1580156111f557600080fd5b505af1158015611209573d6000803e3d6000fd5b50505050611215613137565b6112628688600460009054906101000a900473ffffffffffffffffffffffffffffffffffffffff1673ffffffffffffffffffffffffffffffffffffffff166130b19092919063ffffffff16565b5050505050505050565b60095481565b60008054906101000a900473ffffffffffffffffffffffffffffffffffffffff1673ffffffffffffffffffffffffffffffffffffffff163373ffffffffffffffffffffffffffffffffffffffff1614611300576040517f08c379a00000000000000000000000000000000000000000000000000000000081526004016112f7906141e8565b60405180910390fd5b80600160006101000a81548173ffffffffffffffffffffffffffffffffffffffff021916908373ffffffffffffffffffffffffffffffffffffffff1602179055507fdf2f84a6be1c55031de30c910064a4d8ce6cf64f767b55c3e9647175a7885bb9816040516113709190613fc0565b60405180910390a150565b600c5481565b6000601160030154905090565b600b5481565b60008054906101000a900473ffffffffffffffffffffffffffffffffffffffff1673ffffffffffffffffffffffffffffffffffffffff163373ffffffffffffffffffffffffffffffffffffffff1614611422576040517f08c379a0000000000000000000000000000000000000000000000000000000008152600401611419906141e8565b60405180910390fd5b80600073ffffffffffffffffffffffffffffffffffffffff168173ffffffffffffffffffffffffffffffffffffffff161415611493576040517f08c379a000000000000000000000000000000000000000000000000000000000815260040161148a90614168565b60405180910390fd5b7fb532073b38c83145e3e5135377a08bf9aab55bc0fd7c1179cd4fb995d2a5159c60008054906101000a900473ffffffffffffffffffffffffffffffffffffffff16836040516114e4929190613fdb565b60405180910390a1816000806101000a81548173ffffffffffffffffffffffffffffffffffffffff021916908373ffffffffffffffffffffffffffffffffffffffff1602179055505050565b600660009054906101000a900473ffffffffffffffffffffffffffffffffffffffff1681565b60008054906101000a900473ffffffffffffffffffffffffffffffffffffffff1681565b611582612c89565b81600f6000828254611594919061439f565b9250508190555080600b60008282546115ad919061439f565b9250508190555080600e60008282546115c691906142be565b925050819055506000670de0b6b3a76400006115e46008600a61309d565b846115ef9190614345565b6115f99190614314565b90506000670de0b6b3a76400006116126001600a61309d565b8561161d9190614345565b6116279190614314565b9050816010600082825461163b91906142be565b925050819055506116bc600560009054906101000a900473ffffffffffffffffffffffffffffffffffffffff168386611674919061439f565b600460009054906101000a900473ffffffffffffffffffffffffffffffffffffffff1673ffffffffffffffffffffffffffffffffffffffff166130b19092919063ffffffff16565b611736600760009054906101000a900473ffffffffffffffffffffffffffffffffffffffff1683866116ee919061439f565b600460009054906101000a900473ffffffffffffffffffffffffffffffffffffffff1673ffffffffffffffffffffffffffffffffffffffff166130b19092919063ffffffff16565b6000839050600080601a805490501115611c535760006001601a8054905061175e919061439f565b90505b60008110611c515760008310611c38576000601a828154811061178757611786614639565b5b9060005260206000200160009054906101000a900473ffffffffffffffffffffffffffffffffffffffff16905060005b601960008373ffffffffffffffffffffffffffffffffffffffff1673ffffffffffffffffffffffffffffffffffffffff16815260200190815260200160002080549050811015611c3157601960008373ffffffffffffffffffffffffffffffffffffffff1673ffffffffffffffffffffffffffffffffffffffff168152602001908152602001600020818154811061185257611851614639565b5b906000526020600020906003020160000154935083851115611ad657838561187a919061439f565b945060005b6001601960008573ffffffffffffffffffffffffffffffffffffffff1673ffffffffffffffffffffffffffffffffffffffff168152602001908152602001600020805490506118ce919061439f565b8110156119f757601960008473ffffffffffffffffffffffffffffffffffffffff1673ffffffffffffffffffffffffffffffffffffffff16815260200190815260200160002060018261192191906142be565b8154811061193257611931614639565b5b9060005260206000209060030201601960008573ffffffffffffffffffffffffffffffffffffffff1673ffffffffffffffffffffffffffffffffffffffff168152602001908152602001600020828154811061199157611990614639565b5b906000526020600020906003020160008201548160000155600182015481600101556002820160009054906101000a900460ff168160020160006101000a81548160ff0219169083151502179055509050506001816119f091906142be565b905061187f565b50601960008373ffffffffffffffffffffffffffffffffffffffff1673ffffffffffffffffffffffffffffffffffffffff168152602001908152602001600020805480611a4757611a4661460a565b5b600190038181906000526020600020906003020160008082016000905560018201600090556002820160006101000a81549060ff021916905550509055611ad18285600460009054906101000a900473ffffffffffffffffffffffffffffffffffffffff1673ffffffffffffffffffffffffffffffffffffffff166130b19092919063ffffffff16565b611c1e565b84601960008473ffffffffffffffffffffffffffffffffffffffff1673ffffffffffffffffffffffffffffffffffffffff1681526020019081526020016000208281548110611b2857611b27614639565b5b90600052602060002090600302016000016000828254611b48919061439f565b9250508190555084601960008473ffffffffffffffffffffffffffffffffffffffff1673ffffffffffffffffffffffffffffffffffffffff1681526020019081526020016000208281548110611ba157611ba0614639565b5b90600052602060002090600302016001016000828254611bc191906142be565b92505081905550611c158286600460009054906101000a900473ffffffffffffffffffffffffffffffffffffffff1673ffffffffffffffffffffffffffffffffffffffff166130b19092919063ffffffff16565b60009450611c31565b8080611c2990614534565b9150506117b7565b5050611c3d565b611c51565b600181611c4a919061439f565b9050611761565b505b505050505050565b600e5481565b600560009054906101000a900473ffffffffffffffffffffffffffffffffffffffff1681565b81600073ffffffffffffffffffffffffffffffffffffffff168173ffffffffffffffffffffffffffffffffffffffff161415611cf8576040517f08c379a0000000000000000000000000000000000000000000000000000000008152600401611cef90614168565b60405180910390fd5b60008211611d3b576040517f08c379a0000000000000000000000000000000000000000000000000000000008152600401611d3290614148565b60405180910390fd5b6000600260008573ffffffffffffffffffffffffffffffffffffffff1673ffffffffffffffffffffffffffffffffffffffff1681526020019081526020016000209050611d86612c89565b6000611d918561085c565b90506000811115611ddf5760008260000154670de0b6b3a764000060116003015484611dbd9190614345565b611dc79190614314565b611dd1919061439f565b9050611ddd8682612e0d565b505b611de98585613156565b611df28561085c565b9050670de0b6b3a764000060116003015482611e0e9190614345565b611e189190614314565b8260000181905550670de0b6b3a764000060116006015482611e3a9190614345565b611e449190614314565b82600101819055506010546011600701819055508473ffffffffffffffffffffffffffffffffffffffff167febedb8b3c678666e7f36970bc8f57abf6d8fa2e828c0da91ea5b75bf68ed101a85604051611e9e9190614248565b60405180910390a25050505050565b60105481565b60008054906101000a900473ffffffffffffffffffffffffffffffffffffffff1673ffffffffffffffffffffffffffffffffffffffff163373ffffffffffffffffffffffffffffffffffffffff1614611f41576040517f08c379a0000000000000000000000000000000000000000000000000000000008152600401611f38906141e8565b60405180910390fd5b611f4c81606461309d565b600d8190555060008054906101000a900473ffffffffffffffffffffffffffffffffffffffff1673ffffffffffffffffffffffffffffffffffffffff167fbec5c0c9ba59b8a8e6027f690946fd83fc4f7586213749371d827d228f1df96682604051611fb89190614248565b60405180910390a250565b60008280600e54101561200b576040517f08c379a0000000000000000000000000000000000000000000000000000000008152600401612002906141a8565b60405180910390fd5b83600b600082825461201d91906142be565b9250508190555084600f600082825461203691906142be565b9250508190555083600e600082825461204f919061439f565b92505081905550612064600b5460095461309d565b600c819055506120b9833087600460009054906101000a900473ffffffffffffffffffffffffffffffffffffffff1673ffffffffffffffffffffffffffffffffffffffff16613369909392919063ffffffff16565b8273ffffffffffffffffffffffffffffffffffffffff167f48a70649351698478f15267ca75cb3da80814ac5087d87178c657801b662fa968686604051612101929190614263565b60405180910390a260019150509392505050565b600760009054906101000a900473ffffffffffffffffffffffffffffffffffffffff1681565b81600073ffffffffffffffffffffffffffffffffffffffff168173ffffffffffffffffffffffffffffffffffffffff1614156121ac576040517f08c379a00000000000000000000000000000000000000000000000000000000081526004016121a390614168565b60405180910390fd5b60006121b78461085c565b90508083111580156121c95750600083115b612208576040517f08c379a00000000000000000000000000000000000000000000000000000000081526004016121ff90614128565b60405180910390fd5b6000612212610926565b90506000849050818511156123af576000828661222f919061439f565b9050601960008873ffffffffffffffffffffffffffffffffffffffff1673ffffffffffffffffffffffffffffffffffffffff168152602001908152602001600020604051806060016040528083815260200160008152602001600015158152509080600181540180825580915050600190039060005260206000209060030201600090919091909150600082015181600001556020820151816001015560408201518160020160006101000a81548160ff0219169083151502179055505050601a879080600181540180825580915050600190039060005260206000200160009091909190916101000a81548173ffffffffffffffffffffffffffffffffffffffff021916908373ffffffffffffffffffffffffffffffffffffffff16021790555082915080600260008973ffffffffffffffffffffffffffffffffffffffff1673ffffffffffffffffffffffffffffffffffffffff16815260200190815260200160002060030160008282546123a691906142be565b92505081905550505b6123b7612c89565b6000600260008873ffffffffffffffffffffffffffffffffffffffff1673ffffffffffffffffffffffffffffffffffffffff168152602001908152602001600020905060008411156124cb5760008160000154670de0b6b3a7640000601160030154876124249190614345565b61242e9190614314565b612438919061439f565b90506124448882612e0d565b60008260010154670de0b6b3a7640000601160060154886124659190614345565b61246f9190614314565b612479919061439f565b90506124c88982600460009054906101000a900473ffffffffffffffffffffffffffffffffffffffff1673ffffffffffffffffffffffffffffffffffffffff166130b19092919063ffffffff16565b50505b6124d587836133f2565b6124de8761085c565b9350670de0b6b3a7640000601160030154856124fa9190614345565b6125049190614314565b8160000181905550670de0b6b3a7640000601160060154856125269190614345565b6125309190614314565b816001018190555060105460116007018190555050505050505050565b60085481565b606060006011600001805461256790614502565b80601f016020809104026020016040519081016040528092919081815260200182805461259390614502565b80156125e05780601f106125b5576101008083540402835291602001916125e0565b820191906000526020600020905b8154815290600101906020018083116125c357829003601f168201915b505050505090508091505090565b600a5481565b600081600073ffffffffffffffffffffffffffffffffffffffff168173ffffffffffffffffffffffffffffffffffffffff161415612667576040517f08c379a000000000000000000000000000000000000000000000000000000000815260040161265e90614168565b60405180910390fd5b60116004015443101561267d5760009150612780565b6000600260008573ffffffffffffffffffffffffffffffffffffffff1673ffffffffffffffffffffffffffffffffffffffff168152602001908152602001600020905060006126cb8561085c565b9050600060116003015490506000821115612778576000601160040154436126f3919061439f565b90506000816011600501546127089190614345565b9050600954670de0b6b3a7640000826127219190614345565b61272b9190614314565b8361273691906142be565b925060008560000154670de0b6b3a764000085876127549190614345565b61275e9190614314565b612768919061439f565b9050809750505050505050612780565b600094505050505b50919050565b600d5481565b80600073ffffffffffffffffffffffffffffffffffffffff168173ffffffffffffffffffffffffffffffffffffffff1614156127fd576040517f08c379a00000000000000000000000000000000000000000000000000000000081526004016127f490614168565b60405180910390fd5b6000600260008473ffffffffffffffffffffffffffffffffffffffff1673ffffffffffffffffffffffffffffffffffffffff1681526020019081526020016000209050612848612c89565b60006128538461085c565b905060008111156128e45760008260010154670de0b6b3a76400006011600601548461287f9190614345565b6128899190614314565b612893919061439f565b90506128e28582600460009054906101000a900473ffffffffffffffffffffffffffffffffffffffff1673ffffffffffffffffffffffffffffffffffffffff166130b19092919063ffffffff16565b505b670de0b6b3a7640000601160060154826128fe9190614345565b6129089190614314565b826001018190555060105460116007018190555050505050565b600f5481565b80600073ffffffffffffffffffffffffffffffffffffffff168173ffffffffffffffffffffffffffffffffffffffff161415612999576040517f08c379a000000000000000000000000000000000000000000000000000000000815260040161299090614168565b60405180910390fd5b6000601960008473ffffffffffffffffffffffffffffffffffffffff1673ffffffffffffffffffffffffffffffffffffffff16815260200190815260200160002090506000818054905011612a23576040517f08c379a0000000000000000000000000000000000000000000000000000000008152600401612a1a906141c8565b60405180910390fd5b600060018280549050612a36919061439f565b90506000828281548110612a4d57612a4c614639565b5b906000526020600020906003020160010154838381548110612a7257612a71614639565b5b906000526020600020906003020160000154612a8e919061439f565b905080600a6000828254612aa291906142be565b9250508190555080600260008773ffffffffffffffffffffffffffffffffffffffff1673ffffffffffffffffffffffffffffffffffffffff1681526020019081526020016000206003016000828254612afb919061439f565b92505081905550612b0b85613603565b5050505050565b6000600b54905090565b600460009054906101000a900473ffffffffffffffffffffffffffffffffffffffff1681565b6000612b5783670de0b6b3a764000084612b5f565b905092915050565b600080600080198587098587029250828110838203039150506000811415612b9b57838281612b9157612b906145ac565b5b0492505050612c6e565b838110612be15780846040517f773cc18c000000000000000000000000000000000000000000000000000000008152600401612bd8929190614263565b60405180910390fd5b60008486880990508281118203915080830392506000600186190186169050808604955080840493506001818260000304019050808302841793506000600287600302189050808702600203810290508087026002038102905080870260020381029050808702600203810290508087026002038102905080870260020381029050808502955050505050505b9392505050565b6000612c8183836137d3565b905092915050565b601160040154431015612c9b57612e0b565b60006009541415612cb55743601160040181905550612e0b565b600060116004015443612cc8919061439f565b9050600081601160050154612cdd9190614345565b9050600360009054906101000a900473ffffffffffffffffffffffffffffffffffffffff1673ffffffffffffffffffffffffffffffffffffffff166340c10f1930836040518363ffffffff1660e01b8152600401612d3c92919061403b565b600060405180830381600087803b158015612d5657600080fd5b505af1158015612d6a573d6000803e3d6000fd5b50505050600954670de0b6b3a764000082612d859190614345565b612d8f9190614314565b60116003016000828254612da391906142be565b925050819055506000601160070154601054612dbf919061439f565b9050600954670de0b6b3a764000082612dd89190614345565b612de29190614314565b60116006016000828254612df691906142be565b92505081905550436011600401819055505050505b565b6000600360009054906101000a900473ffffffffffffffffffffffffffffffffffffffff1673ffffffffffffffffffffffffffffffffffffffff166370a08231306040518263ffffffff1660e01b8152600401612e6a9190613fc0565b60206040518083038186803b158015612e8257600080fd5b505afa158015612e96573d6000803e3d6000fd5b505050506040513d601f19601f82011682018060405250810190612eba9190613ccc565b905080821115612f7957600360009054906101000a900473ffffffffffffffffffffffffffffffffffffffff1673ffffffffffffffffffffffffffffffffffffffff1663a9059cbb84836040518363ffffffff1660e01b8152600401612f2192919061403b565b602060405180830381600087803b158015612f3b57600080fd5b505af1158015612f4f573d6000803e3d6000fd5b505050506040513d601f19601f82011682018060405250810190612f739190613c72565b5061302a565b600360009054906101000a900473ffffffffffffffffffffffffffffffffffffffff1673ffffffffffffffffffffffffffffffffffffffff1663a9059cbb84846040518363ffffffff1660e01b8152600401612fd692919061403b565b602060405180830381600087803b158015612ff057600080fd5b505af1158015613004573d6000803e3d6000fd5b505050506040513d601f19601f820116820180604052508101906130289190613c72565b505b505050565b60005b601960008373ffffffffffffffffffffffffffffffffffffffff1673ffffffffffffffffffffffffffffffffffffffff168152602001908152602001600020805490508110156130995761308582613603565b60018161309291906142be565b9050613032565b5050565b60006130a98383612b42565b905092915050565b6131328363a9059cbb60e01b84846040516024016130d092919061403b565b604051602081830303815290604052907bffffffffffffffffffffffffffffffffffffffffffffffffffffffff19166020820180517bffffffffffffffffffffffffffffffffffffffffffffffffffffffff83818316178352505050506137e7565b505050565b6000601160020154905061314d6009548261309d565b60088190555050565b806009600082825461316891906142be565b9250508190555080600a600082825461318191906142be565b9250508190555080600e600082825461319a91906142be565b925050819055506131af600b5460095461309d565b600c81905550613204823083600460009054906101000a900473ffffffffffffffffffffffffffffffffffffffff1673ffffffffffffffffffffffffffffffffffffffff16613369909392919063ffffffff16565b60006132128260085461309d565b9050600660009054906101000a900473ffffffffffffffffffffffffffffffffffffffff1673ffffffffffffffffffffffffffffffffffffffff166340c10f1984836040518363ffffffff1660e01b815260040161327192919061403b565b600060405180830381600087803b15801561328b57600080fd5b505af115801561329f573d6000803e3d6000fd5b5050505080601160020160008282546132b891906142be565b925050819055506132c7613137565b6132d08361085c565b600260008573ffffffffffffffffffffffffffffffffffffffff1673ffffffffffffffffffffffffffffffffffffffff168152602001908152602001600020600201819055508273ffffffffffffffffffffffffffffffffffffffff167febedb8b3c678666e7f36970bc8f57abf6d8fa2e828c0da91ea5b75bf68ed101a8360405161335c9190614248565b60405180910390a2505050565b6133ec846323b872dd60e01b85858560405160240161338a93929190614004565b604051602081830303815290604052907bffffffffffffffffffffffffffffffffffffffffffffffffffffffff19166020820180517bffffffffffffffffffffffffffffffffffffffffffffffffffffffff83818316178352505050506137e7565b50505050565b8060096000828254613404919061439f565b9250508190555080600a600082825461341d919061439f565b9250508190555080600e6000828254613436919061439f565b9250508190555061344b600b5460095461309d565b600c8190555061349e8282600460009054906101000a900473ffffffffffffffffffffffffffffffffffffffff1673ffffffffffffffffffffffffffffffffffffffff166130b19092919063ffffffff16565b60006134ac8260085461309d565b9050600660009054906101000a900473ffffffffffffffffffffffffffffffffffffffff1673ffffffffffffffffffffffffffffffffffffffff16639dc29fac84836040518363ffffffff1660e01b815260040161350b92919061403b565b600060405180830381600087803b15801561352557600080fd5b505af1158015613539573d6000803e3d6000fd5b505050508060116002016000828254613552919061439f565b92505081905550613561613137565b61356a8361085c565b600260008573ffffffffffffffffffffffffffffffffffffffff1673ffffffffffffffffffffffffffffffffffffffff168152602001908152602001600020600201819055508273ffffffffffffffffffffffffffffffffffffffff167f85082129d87b2fe11527cb1b3b7a520aeb5aa6913f88a3d8757fe40d1db02fdd836040516135f69190614248565b60405180910390a2505050565b60006001601a80549050613617919061439f565b90505b600081106136ad578173ffffffffffffffffffffffffffffffffffffffff16601a828154811061364d5761364c614639565b5b9060005260206000200160009054906101000a900473ffffffffffffffffffffffffffffffffffffffff1673ffffffffffffffffffffffffffffffffffffffff161415613699576136ad565b6001816136a6919061439f565b905061361a565b60008190505b6001601a805490506136c5919061439f565b81101561378757601a6001826136db91906142be565b815481106136ec576136eb614639565b5b9060005260206000200160009054906101000a900473ffffffffffffffffffffffffffffffffffffffff16601a828154811061372b5761372a614639565b5b9060005260206000200160006101000a81548173ffffffffffffffffffffffffffffffffffffffff021916908373ffffffffffffffffffffffffffffffffffffffff16021790555060018161378091906142be565b90506136b3565b50601a80548061379a5761379961460a565b5b6001900381819060005260206000200160006101000a81549073ffffffffffffffffffffffffffffffffffffffff021916905590555050565b60006137df83836138ae565b905092915050565b6000613849826040518060400160405280602081526020017f5361666545524332303a206c6f772d6c6576656c2063616c6c206661696c65648152508573ffffffffffffffffffffffffffffffffffffffff166139ac9092919063ffffffff16565b90506000815111156138a957808060200190518101906138699190613c72565b6138a8576040517f08c379a000000000000000000000000000000000000000000000000000000000815260040161389f90614228565b60405180910390fd5b5b505050565b60008060008019848609848602925082811083820303915050670de0b6b3a7640000811061391357806040517fd31b340200000000000000000000000000000000000000000000000000000000815260040161390a9190614248565b60405180910390fd5b600080670de0b6b3a764000086880991506706f05b59d3b1ffff8211905060008314156139605780670de0b6b3a76400008581613953576139526145ac565b5b04019450505050506139a6565b807faccb18165bd6fe31ae1cf318dc5b51eee0e1ba569b88cd74c1773b91fac1066960016204000080600003040186851186030262040000858803041702019450505050505b92915050565b60606139bb84846000856139c4565b90509392505050565b606082471015613a09576040517f08c379a0000000000000000000000000000000000000000000000000000000008152600401613a0090614188565b60405180910390fd5b613a1285613ad8565b613a51576040517f08c379a0000000000000000000000000000000000000000000000000000000008152600401613a4890614208565b60405180910390fd5b6000808673ffffffffffffffffffffffffffffffffffffffff168587604051613a7a9190613fa9565b60006040518083038185875af1925050503d8060008114613ab7576040519150601f19603f3d011682016040523d82523d6000602084013e613abc565b606091505b5091509150613acc828286613aeb565b92505050949350505050565b600080823b905060008111915050919050565b60608315613afb57829050613b4b565b600083511115613b0e5782518084602001fd5b816040517f08c379a0000000000000000000000000000000000000000000000000000000008152600401613b429190614106565b60405180910390fd5b9392505050565b5080546000825560030290600052602060002090810190613b739190613b76565b50565b5b80821115613bad5760008082016000905560018201600090556002820160006101000a81549060ff021916905550600301613b77565b5090565b600081359050613bc0816148f9565b92915050565b600081519050613bd581614910565b92915050565b600081359050613bea81614927565b92915050565b600081519050613bff81614927565b92915050565b600060208284031215613c1b57613c1a614668565b5b6000613c2984828501613bb1565b91505092915050565b60008060408385031215613c4957613c48614668565b5b6000613c5785828601613bb1565b9250506020613c6885828601613bdb565b9150509250929050565b600060208284031215613c8857613c87614668565b5b6000613c9684828501613bc6565b91505092915050565b600060208284031215613cb557613cb4614668565b5b6000613cc384828501613bdb565b91505092915050565b600060208284031215613ce257613ce1614668565b5b6000613cf084828501613bf0565b91505092915050565b60008060408385031215613d1057613d0f614668565b5b6000613d1e85828601613bdb565b9250506020613d2f85828601613bdb565b9150509250929050565b600080600060608486031215613d5257613d51614668565b5b6000613d6086828701613bdb565b9350506020613d7186828701613bdb565b9250506040613d8286828701613bb1565b9150509250925092565b613d95816143d3565b82525050565b613da4816143e5565b82525050565b6000613db58261428c565b613dbf81856142a2565b9350613dcf8185602086016144cf565b80840191505092915050565b613de48161441b565b82525050565b613df38161443f565b82525050565b613e0281614463565b82525050565b613e1181614487565b82525050565b613e20816144ab565b82525050565b6000613e3182614297565b613e3b81856142ad565b9350613e4b8185602086016144cf565b613e548161466d565b840191505092915050565b6000613e6c603e836142ad565b9150613e778261467e565b604082019050919050565b6000613e8f6011836142ad565b9150613e9a826146cd565b602082019050919050565b6000613eb26023836142ad565b9150613ebd826146f6565b604082019050919050565b6000613ed56026836142ad565b9150613ee082614745565b604082019050919050565b6000613ef8602c836142ad565b9150613f0382614794565b604082019050919050565b6000613f1b6028836142ad565b9150613f26826147e3565b604082019050919050565b6000613f3e6025836142ad565b9150613f4982614832565b604082019050919050565b6000613f61601d836142ad565b9150613f6c82614881565b602082019050919050565b6000613f84602a836142ad565b9150613f8f826148aa565b604082019050919050565b613fa381614411565b82525050565b6000613fb58284613daa565b915081905092915050565b6000602082019050613fd56000830184613d8c565b92915050565b6000604082019050613ff06000830185613d8c565b613ffd6020830184613d8c565b9392505050565b60006060820190506140196000830186613d8c565b6140266020830185613d8c565b6140336040830184613f9a565b949350505050565b60006040820190506140506000830185613d8c565b61405d6020830184613f9a565b9392505050565b60006020820190506140796000830184613d9b565b92915050565b60006020820190506140946000830184613ddb565b92915050565b60006020820190506140af6000830184613dea565b92915050565b60006020820190506140ca6000830184613df9565b92915050565b60006020820190506140e56000830184613e08565b92915050565b60006020820190506141006000830184613e17565b92915050565b600060208201905081810360008301526141208184613e26565b905092915050565b6000602082019050818103600083015261414181613e5f565b9050919050565b6000602082019050818103600083015261416181613e82565b9050919050565b6000602082019050818103600083015261418181613ea5565b9050919050565b600060208201905081810360008301526141a181613ec8565b9050919050565b600060208201905081810360008301526141c181613eeb565b9050919050565b600060208201905081810360008301526141e181613f0e565b9050919050565b6000602082019050818103600083015261420181613f31565b9050919050565b6000602082019050818103600083015261422181613f54565b9050919050565b6000602082019050818103600083015261424181613f77565b9050919050565b600060208201905061425d6000830184613f9a565b92915050565b60006040820190506142786000830185613f9a565b6142856020830184613f9a565b9392505050565b600081519050919050565b600081519050919050565b600081905092915050565b600082825260208201905092915050565b60006142c982614411565b91506142d483614411565b9250827fffffffffffffffffffffffffffffffffffffffffffffffffffffffffffffffff038211156143095761430861457d565b5b828201905092915050565b600061431f82614411565b915061432a83614411565b92508261433a576143396145ac565b5b828204905092915050565b600061435082614411565b915061435b83614411565b9250817fffffffffffffffffffffffffffffffffffffffffffffffffffffffffffffffff04831182151516156143945761439361457d565b5b828202905092915050565b60006143aa82614411565b91506143b583614411565b9250828210156143c8576143c761457d565b5b828203905092915050565b60006143de826143f1565b9050919050565b60008115159050919050565b600073ffffffffffffffffffffffffffffffffffffffff82169050919050565b6000819050919050565b60006144268261442d565b9050919050565b6000614438826143f1565b9050919050565b600061444a82614451565b9050919050565b600061445c826143f1565b9050919050565b600061446e82614475565b9050919050565b6000614480826143f1565b9050919050565b600061449282614499565b9050919050565b60006144a4826143f1565b9050919050565b60006144b6826144bd565b9050919050565b60006144c8826143f1565b9050919050565b60005b838110156144ed5780820151818401526020810190506144d2565b838111156144fc576000848401525b50505050565b6000600282049050600182168061451a57607f821691505b6020821081141561452e5761452d6145db565b5b50919050565b600061453f82614411565b91507fffffffffffffffffffffffffffffffffffffffffffffffffffffffffffffffff8214156145725761457161457d565b5b600182019050919050565b7f4e487b7100000000000000000000000000000000000000000000000000000000600052601160045260246000fd5b7f4e487b7100000000000000000000000000000000000000000000000000000000600052601260045260246000fd5b7f4e487b7100000000000000000000000000000000000000000000000000000000600052602260045260246000fd5b7f4e487b7100000000000000000000000000000000000000000000000000000000600052603160045260246000fd5b7f4e487b7100000000000000000000000000000000000000000000000000000000600052603260045260246000fd5b600080fd5b6000601f19601f8301169050919050565b7f6e6f7420656e6f7567682062616c616e636520746f20626520756e6c6f636b6560008201527f64206f7220796f757220776974686472617720616d6f756e7420697320300000602082015250565b7f63616e206e6f74206465706f7369742030000000000000000000000000000000600082015250565b7f74686520616464726573732063616e206e6f74206265207a65726f206164647260008201527f6573730000000000000000000000000000000000000000000000000000000000602082015250565b7f416464726573733a20696e73756666696369656e742062616c616e636520666f60008201527f722063616c6c0000000000000000000000000000000000000000000000000000602082015250565b7f6e6f742073756666696369656e74207269736b20636170616369747920666f7260008201527f207468697320706f6c6963790000000000000000000000000000000000000000602082015250565b7f74686973207573657220686173206e6f2070656e64696e6720756e7374616b6560008201527f2072657175657374000000000000000000000000000000000000000000000000602082015250565b7f6f6e6c7920746865206f776e65722063616e2063616c6c20746869732066756e60008201527f6374696f6e000000000000000000000000000000000000000000000000000000602082015250565b7f416464726573733a2063616c6c20746f206e6f6e2d636f6e7472616374000000600082015250565b7f5361666545524332303a204552433230206f7065726174696f6e20646964206e60008201527f6f74207375636365656400000000000000000000000000000000000000000000602082015250565b614902816143d3565b811461490d57600080fd5b50565b614919816143e5565b811461492457600080fd5b50565b61493081614411565b811461493b57600080fd5b5056fea264697066735822122038fe5741e34fa7bf39f959f1fda21dbc32e0594ba61b70cf95452db4c744a80764736f6c63430008050033",
  "immutableReferences": {},
  "source": "// SPDX-License-Identifier: MIT\r\npragma solidity ^0.8.0;\r\n\r\nimport \"./interfaces/IDegisToken.sol\";\r\nimport \"./interfaces/ILPToken.sol\";\r\nimport \"@openzeppelin/contracts/token/ERC20/IERC20.sol\";\r\nimport \"@openzeppelin/contracts/token/ERC20/utils/SafeERC20.sol\";\r\nimport \"prb-math/contracts/PRBMathUD60x18.sol\";\r\nimport \"./interfaces/IEmergencyPool.sol\";\r\nimport \"./interfaces/IDegisLottery.sol\";\r\n\r\ncontract InsurancePool {\r\n    using PRBMathUD60x18 for uint256;\r\n    using SafeERC20 for IERC20;\r\n\r\n    // the onwer address of this contract\r\n    address public owner;\r\n\r\n    // the policyflow address, used for access control\r\n    address public policyFlow;\r\n\r\n    // *********************************************************************//\r\n    // ****************** Information about each user ****************** //\r\n    struct UserInfo {\r\n        uint256 rewardDebt; // degis reward debt\r\n        uint256 premiumDebt; // premium reward debt\r\n        uint256 assetBalance; // the amount of a user's staking in the pool\r\n        uint256 pendingBalance; // the amount in the unstake queue\r\n    }\r\n    mapping(address => UserInfo) userInfo;\r\n\r\n    // ****************** Other contracts that need to interact with ****************** //\r\n\r\n    // Contract instances of Degis, USDC, emergencyPool, LPToken\r\n    IDegisToken public DEGIS;\r\n    IERC20 public USDC_TOKEN;\r\n    IEmergencyPool public emergencyPool;\r\n    ILPToken public DLPToken;\r\n    IDegisLottery public degisLottery;\r\n\r\n    // ****************** State variables ****************** //\r\n\r\n    // 1 lp = LPValue * usd\r\n    uint256 public LPValue;\r\n\r\n    // current total staking balance of the pool\r\n    uint256 public currentStakingBalance;\r\n\r\n    // real staking balance = current staking balance - sum(unstake request in the queue)\r\n    uint256 public realStakingBalance;\r\n\r\n    // locked balance is for potiential payoff\r\n    uint256 public lockedBalance;\r\n\r\n    // locked relation = locked balance / currentStakingBalance\r\n    uint256 public PRB_lockedRatio; //  1e18 = 1  1e17 = 0.1  1e19 = 10\r\n    uint256 public collateralFactor; //  1e18 = 1  1e17 = 0.1  1e19 = 10\r\n\r\n    // available capacity is the current available asset balance\r\n    uint256 public availableCapacity;\r\n\r\n    // premiums have been paid but the policies haven't expired\r\n    uint256 public activePremiums;\r\n\r\n    // rewardCollected is total income from premium\r\n    uint256 public rewardCollected;\r\n\r\n    // the information about this pool\r\n    struct PoolInfo {\r\n        string poolName; // insurance pool\r\n        uint256 poolId; // 0\r\n        uint256 totalLP; // total lp amount\r\n        uint256 accDegisPerShare;\r\n        uint256 lastRewardBlock;\r\n        uint256 degisPerBlock;\r\n        uint256 accPremiumPerShare;\r\n        uint256 lastRewardCollected;\r\n    }\r\n    PoolInfo poolInfo;\r\n\r\n    //  of every unstake request in the queue\r\n    struct UnstakeRequest {\r\n        uint256 pendingAmount;\r\n        uint256 fulfilledAmount;\r\n        bool isPaidOut; // if this request has been fully paid out // maybe redundant\r\n    }\r\n\r\n    // a user's unstake requests\r\n    mapping(address => UnstakeRequest[]) private unstakeRequests;\r\n\r\n    // list of all unstake users\r\n    address[] private unstakeQueue;\r\n\r\n    // current pointer of the unstake request queue\r\n    // uint256 private unstakePointer;  // currently not used\r\n\r\n    event Stake(address indexed userAddress, uint256 amount);\r\n    event Unstake(address indexed userAddress, uint256 amount);\r\n    event ChangeCollateralFactor(address indexed onwerAddress, uint256 factor);\r\n    event SetPolicyFlow(address _policyFlowAddress);\r\n    event BuyNewPolicy(\r\n        address indexed userAddress,\r\n        uint256 premium,\r\n        uint256 payout\r\n    );\r\n    event OwnerChanged(address oldOwner, address newOwner);\r\n\r\n    /**\r\n     * @notice constructor function\r\n     * @param _factor: initial collateral factor\r\n     * @param _degis: address of the degis token\r\n     * @param _emergencyPool: address of the emergency pool\r\n     * @param _lptoken: address of LP token\r\n     * @param _usdcAddress: address of USDC\r\n     * @param _degisPerBlock: degis reward per block\r\n     */\r\n    constructor(\r\n        uint256 _factor,\r\n        IDegisToken _degis,\r\n        IEmergencyPool _emergencyPool,\r\n        ILPToken _lptoken,\r\n        IDegisLottery _degisLottery,\r\n        address _usdcAddress,\r\n        uint256 _degisPerBlock\r\n    ) {\r\n        owner = msg.sender;\r\n\r\n        collateralFactor = doDiv(_factor, 100);\r\n\r\n        PRB_lockedRatio = 1e18; // 1e18 = 1\r\n        DEGIS = _degis;\r\n        USDC_TOKEN = IERC20(_usdcAddress);\r\n        poolInfo = PoolInfo(\r\n            \"insurancepool\", // pool name\r\n            0, // pool id\r\n            0, // TOTAL LP\r\n            0, // accDegisPerShare\r\n            block.number, // lastRewardBlock\r\n            _degisPerBlock,\r\n            0, // accPremiumPerShare\r\n            0 // lastRewardCollected\r\n        );\r\n\r\n        DLPToken = _lptoken;\r\n        LPValue = 1e18;\r\n        emergencyPool = _emergencyPool;\r\n        degisLottery = _degisLottery;\r\n    }\r\n\r\n    // ************************************ Modifiers ************************************ //\r\n\r\n    /**\r\n     * @notice only the owner can call some functions\r\n     */\r\n    modifier onlyOwner() {\r\n        require(msg.sender == owner, \"only the owner can call this function\");\r\n        _;\r\n    }\r\n\r\n    /**\r\n     * @notice only the policyFlow contract can call some functions\r\n     */\r\n    modifier onlyPolicyFlow() {\r\n        require(\r\n            msg.sender == policyFlow,\r\n            \"only called by the policy flow contract\"\r\n        );\r\n        _;\r\n    }\r\n\r\n    /**\r\n     * @notice the address can not be zero\r\n     */\r\n    modifier onlyValidAddress(address _address) {\r\n        require(_address != address(0), \"the address can not be zero address\");\r\n        _;\r\n    }\r\n\r\n    // ************************************ View Functions ************************************ //\r\n\r\n    /**\r\n     * @notice get PRB_lockedRatio of the pool\r\n     */\r\n    function getLockedRatio() public view returns (uint256) {\r\n        return PRB_lockedRatio;\r\n    }\r\n\r\n    /**\r\n     * @notice get accumulated degis per share\r\n     */\r\n    function getAccDegisPerShare() public view returns (uint256) {\r\n        return poolInfo.accDegisPerShare;\r\n    }\r\n\r\n    /**\r\n     * @notice get the premium reward collected now\r\n     */\r\n    function getRewardCollected() public view returns (uint256) {\r\n        return rewardCollected;\r\n    }\r\n\r\n    /**\r\n     * @notice view how many assets are locked in the pool currently\r\n     */\r\n    function getTotalLocked() public view returns (uint256) {\r\n        return lockedBalance;\r\n    }\r\n\r\n    /**\r\n     * @notice view the collateral factor\r\n     */\r\n    function getCollateralFactor() public view returns (uint256) {\r\n        return collateralFactor;\r\n    }\r\n\r\n    /**\r\n     * @notice view the pending degis amount in frontend\r\n     */\r\n    function pendingDegis(address _userAddress)\r\n        external\r\n        view\r\n        onlyValidAddress(_userAddress)\r\n        returns (uint256)\r\n    {\r\n        if (block.number < poolInfo.lastRewardBlock) return 0;\r\n\r\n        UserInfo storage user = userInfo[_userAddress];\r\n\r\n        uint256 real_balance = getRealBalance(_userAddress);\r\n\r\n        uint256 accDegisPerShare = poolInfo.accDegisPerShare;\r\n\r\n        if (real_balance > 0) {\r\n            uint256 blocks = block.number - poolInfo.lastRewardBlock;\r\n            uint256 degisReward = poolInfo.degisPerBlock * blocks;\r\n\r\n            accDegisPerShare += (degisReward * 1e18) / currentStakingBalance;\r\n            uint256 pending = ((real_balance * accDegisPerShare) / 1e18) -\r\n                user.rewardDebt;\r\n            return pending;\r\n        } else {\r\n            return 0;\r\n        }\r\n    }\r\n\r\n    /**\r\n     * @notice view the pending premium amount in frontend\r\n     */\r\n    function pendingPremium(address _userAddress)\r\n        external\r\n        view\r\n        returns (uint256)\r\n    {\r\n        UserInfo storage user = userInfo[_userAddress];\r\n\r\n        uint256 real_balance = getRealBalance(_userAddress);\r\n\r\n        uint256 accPremiumPerShare = poolInfo.accPremiumPerShare;\r\n\r\n        if (block.number > poolInfo.lastRewardBlock) {\r\n            uint256 premiumReward = rewardCollected -\r\n                poolInfo.lastRewardCollected;\r\n            accPremiumPerShare +=\r\n                (premiumReward * (1e18)) /\r\n                (currentStakingBalance);\r\n            return\r\n                ((real_balance * accPremiumPerShare) / (1e18)) -\r\n                (user.premiumDebt);\r\n        } else {\r\n            return 0;\r\n        }\r\n    }\r\n\r\n    /**\r\n     * @notice view the pool name (only for test, delete when mainnet)\r\n     */\r\n    function getPoolName() public view returns (string memory) {\r\n        string memory name = poolInfo.poolName;\r\n        return name;\r\n    }\r\n\r\n    /**\r\n     * @notice view the pool's total available capacity\r\n     */\r\n    function getAvailableCapacity() public view returns (uint256) {\r\n        return availableCapacity;\r\n    }\r\n\r\n    /**\r\n     * @notice view the pool's total available capacity\r\n     */\r\n    function getCurrentStakingBalance() public view returns (uint256) {\r\n        return currentStakingBalance;\r\n    }\r\n\r\n    function getRealBalance(address _userAddress)\r\n        public\r\n        view\r\n        returns (uint256)\r\n    {\r\n        uint256 lp_num = DLPToken.balanceOf(_userAddress);\r\n        uint256 real_balance = doMul(lp_num, LPValue);\r\n        return real_balance;\r\n    }\r\n\r\n    /**\r\n     * @notice get a user's stake amount in the pool\r\n     * @param _userAddress: the user's address\r\n     */\r\n    function getStakeAmount(address _userAddress)\r\n        public\r\n        view\r\n        returns (uint256)\r\n    {\r\n        return (userInfo[_userAddress].assetBalance);\r\n    }\r\n\r\n    /**\r\n     * @notice get the balance that the pool can unlock(maximum)\r\n     * @return the amount that the pool can unlock\r\n     */\r\n    function getPoolUnlocked() public view returns (uint256) {\r\n        return currentStakingBalance - lockedBalance;\r\n    }\r\n\r\n    /**\r\n     * @notice get the balance that one user(LP) can unlock(maximum)\r\n     * @param _userAddress: user's address\r\n     * @return the amount that the user can unlock\r\n     */\r\n    function getUnlockedfor(address _userAddress)\r\n        public\r\n        view\r\n        returns (uint256)\r\n    {\r\n        // uint256 user_balance = userInfo[_userAddress].assetBalance;\r\n        uint256 user_balance = getRealBalance(_userAddress);\r\n        if (availableCapacity >= user_balance) {\r\n            return user_balance;\r\n        } else {\r\n            return availableCapacity;\r\n        }\r\n    }\r\n\r\n    /**\r\n     * @notice get the user's locked balance\r\n     * @param _userAddress: user's address\r\n     * @return _amount: the user's locked amount\r\n     */\r\n    function getLockedfor(address _userAddress) public view returns (uint256) {\r\n        // uint256 user_balance = userInfo[_userAddress].assetBalance;\r\n        uint256 user_balance = getRealBalance(_userAddress);\r\n        uint256 locked = (PRB_lockedRatio * user_balance) / (1e18);\r\n        return locked;\r\n    }\r\n\r\n    // ************************************ Helper Functions ************************************ //\r\n\r\n    /**\r\n     * @notice set the address of policyFlow\r\n     */\r\n    function setPolicyFlow(address _policyFlowAddress) public onlyOwner {\r\n        policyFlow = _policyFlowAddress;\r\n        emit SetPolicyFlow(_policyFlowAddress);\r\n    }\r\n\r\n    /**\r\n     * @notice transfer the ownership to a new owner\r\n     */\r\n    function transferOwnerShip(address _newOwner)\r\n        public\r\n        onlyOwner\r\n        onlyValidAddress(_newOwner)\r\n    {\r\n        emit OwnerChanged(owner, _newOwner);\r\n        owner = _newOwner;\r\n    }\r\n\r\n    /**\r\n     * @notice do division via PRBMath\r\n     */\r\n    // 1e18 = 1, 1e17 = 0.1, 1e19 = 10\\\r\n    // E.g. doDiv(1, 1) = 1e18  doDiv(1, 10) = 1e17\r\n    function doDiv(uint256 x, uint256 y)\r\n        internal\r\n        pure\r\n        returns (uint256 result)\r\n    {\r\n        result = PRBMathUD60x18.div(x, y);\r\n    }\r\n\r\n    /**\r\n     * @notice do multiplication via PRBMath\r\n     */\r\n    // 1e18 = 1, 1e17 = 0.1, 1e19 = 10\r\n    // E.g. doMul(1, 1) = 1e18  doMul(2, 5) = 1e19\r\n    function doMul(uint256 x, uint256 y)\r\n        internal\r\n        pure\r\n        returns (uint256 result)\r\n    {\r\n        result = PRBMathUD60x18.mul(x, y);\r\n    }\r\n\r\n    /**\r\n     * @notice change the collateral factor(only by the owner)\r\n     * @param _factor: the new collateral factor\r\n     */\r\n    function setCollateralFactor(uint256 _factor) public onlyOwner {\r\n        collateralFactor = doDiv(_factor, 100);\r\n        emit ChangeCollateralFactor(owner, _factor);\r\n    }\r\n\r\n    // ************************************ Main Functions ************************************ //\r\n\r\n    /**\r\n     * @notice Update the pool's reward status for degis & premium\r\n     * Every time the asset changes with a call update it\r\n     */\r\n    function updatePoolReward() internal {\r\n        if (block.number < poolInfo.lastRewardBlock) {\r\n            return;\r\n        }\r\n        if (currentStakingBalance == 0) {\r\n            poolInfo.lastRewardBlock = block.number;\r\n            return;\r\n        }\r\n        uint256 blocks = block.number - poolInfo.lastRewardBlock;\r\n        uint256 degisReward = poolInfo.degisPerBlock * blocks;\r\n        DEGIS.mint(address(this), degisReward);\r\n\r\n        poolInfo.accDegisPerShare +=\r\n            (degisReward * (1e18)) /\r\n            (currentStakingBalance);\r\n\r\n        uint256 premiumReward = rewardCollected - poolInfo.lastRewardCollected;\r\n\r\n        poolInfo.accPremiumPerShare +=\r\n            (premiumReward * (1e18)) /\r\n            (currentStakingBalance);\r\n\r\n        poolInfo.lastRewardBlock = block.number;\r\n    }\r\n\r\n    /**\r\n     * @notice check the conditions when receive new buying request\r\n     * @param _payoff: the payoff of the policy to be bought\r\n     */\r\n    modifier checkWhenBuy(uint256 _payoff) {\r\n        require(\r\n            availableCapacity >= _payoff,\r\n            \"not sufficient risk capacity for this policy\"\r\n        );\r\n        _;\r\n    }\r\n\r\n    /**\r\n     * @notice update the pool variables when buying policies\r\n     * @param _premium: the premium of the policy just sold\r\n     * @param _payoff: the payoff of the policy just sold\r\n     * @param _userAddress: the address of the buyer\r\n     */\r\n    function updateWhenBuy(\r\n        uint256 _premium,\r\n        uint256 _payoff,\r\n        address _userAddress\r\n    ) external checkWhenBuy(_payoff) returns (bool) {\r\n        lockedBalance += _payoff;\r\n        activePremiums += _premium;\r\n        availableCapacity -= _payoff;\r\n\r\n        // 1e18 = 1\r\n        PRB_lockedRatio = doDiv(lockedBalance, currentStakingBalance);\r\n\r\n        // You need another transaction for approving this spending\r\n        // OR just approve for infinity at the first time\r\n        USDC_TOKEN.safeTransferFrom(_userAddress, address(this), _premium);\r\n\r\n        emit BuyNewPolicy(_userAddress, _premium, _payoff);\r\n        return true;\r\n    }\r\n\r\n    /**\r\n     * @notice stake: a user(LP) want to stake some amount of asset\r\n     * @param _userAddress: user's address\r\n     * @param _amount: the amount that the user want to stake\r\n     */\r\n    function stake(address _userAddress, uint256 _amount)\r\n        external\r\n        onlyValidAddress(_userAddress)\r\n    {\r\n        require(_amount > 0, \"can not deposit 0\");\r\n\r\n        UserInfo storage user = userInfo[_userAddress];\r\n        updatePoolReward();\r\n\r\n        uint256 real_balance = getRealBalance(_userAddress);\r\n\r\n        // If this is not the first deposit, give his reward\r\n        if (real_balance > 0) {\r\n            uint256 pending = ((real_balance * poolInfo.accDegisPerShare) /\r\n                (1e18)) - (user.rewardDebt);\r\n            safeDegisTransfer(_userAddress, pending);\r\n        }\r\n\r\n        _deposit(_userAddress, _amount);\r\n\r\n        real_balance = getRealBalance(_userAddress);\r\n        user.rewardDebt = (real_balance * (poolInfo.accDegisPerShare)) / (1e18);\r\n\r\n        user.premiumDebt =\r\n            (real_balance * (poolInfo.accPremiumPerShare)) /\r\n            (1e18);\r\n\r\n        poolInfo.lastRewardCollected = rewardCollected;\r\n\r\n        emit Stake(_userAddress, _amount);\r\n    }\r\n\r\n    /**\r\n     * @notice unstake: a user want to unstake some amount\r\n     * @param _userAddress: user's address\r\n     * @param _amount: the amount that the user want to unstake\r\n     */\r\n    function unstake(address _userAddress, uint256 _amount)\r\n        external\r\n        onlyValidAddress(_userAddress)\r\n    {\r\n        uint256 real_balance = getRealBalance(_userAddress);\r\n        require(\r\n            _amount <= real_balance && _amount > 0,\r\n            \"not enough balance to be unlocked or your withdraw amount is 0\"\r\n        );\r\n\r\n        uint256 unlocked = getPoolUnlocked();\r\n        uint256 unstakeAmount = _amount;\r\n\r\n        if (_amount > unlocked) {\r\n            uint256 remainingURequest = _amount - unlocked;\r\n            unstakeRequests[_userAddress].push(\r\n                UnstakeRequest(remainingURequest, 0, false)\r\n            );\r\n            unstakeQueue.push(_userAddress);\r\n            unstakeAmount = unlocked; // only withdraw the unlocked value\r\n            userInfo[_userAddress].pendingBalance += remainingURequest;\r\n        }\r\n\r\n        updatePoolReward();\r\n        UserInfo storage user = userInfo[_userAddress];\r\n\r\n        if (real_balance > 0) {\r\n            uint256 pending_degis = ((real_balance *\r\n                poolInfo.accDegisPerShare) / (1e18)) - (user.rewardDebt);\r\n            safeDegisTransfer(_userAddress, pending_degis);\r\n\r\n            uint256 pending_premium = ((real_balance *\r\n                poolInfo.accPremiumPerShare) / (1e18)) - (user.premiumDebt);\r\n            USDC_TOKEN.safeTransfer(_userAddress, pending_premium);\r\n        }\r\n\r\n        _withdraw(_userAddress, unstakeAmount);\r\n\r\n        real_balance = getRealBalance(_userAddress);\r\n\r\n        user.rewardDebt = (real_balance * (poolInfo.accDegisPerShare)) / (1e18);\r\n        user.premiumDebt =\r\n            (real_balance * (poolInfo.accPremiumPerShare)) /\r\n            (1e18);\r\n\r\n        poolInfo.lastRewardCollected = rewardCollected;\r\n    }\r\n\r\n    /**\r\n     * @notice finish the deposit process\r\n     * @param _userAddress: address of the user who deposits\r\n     * @param _amount: the amount he deposits\r\n     */\r\n    function _deposit(address _userAddress, uint256 _amount) internal {\r\n        // Update the pool's status\r\n        currentStakingBalance += _amount;\r\n        realStakingBalance += _amount;\r\n        availableCapacity += _amount;\r\n\r\n        //\r\n        PRB_lockedRatio = doDiv(lockedBalance, currentStakingBalance);\r\n\r\n        USDC_TOKEN.safeTransferFrom(_userAddress, address(this), _amount);\r\n\r\n        uint256 lp_num = doDiv(_amount, LPValue); // new LPToken number\r\n        DLPToken.mint(_userAddress, lp_num);\r\n        poolInfo.totalLP += lp_num;\r\n        updateLPValue();\r\n\r\n        userInfo[_userAddress].assetBalance = getRealBalance(_userAddress);\r\n\r\n        emit Stake(_userAddress, _amount);\r\n    }\r\n\r\n    /**\r\n     * @notice update the value of each lp token\r\n     */\r\n    function updateLPValue() internal {\r\n        uint256 totalLP = poolInfo.totalLP;\r\n        LPValue = doDiv(currentStakingBalance, totalLP);\r\n    }\r\n\r\n    /**\r\n     * @notice _withdraw: finish the withdraw action, only when meeting the conditions\r\n     * @param _userAddress: address of the user who withdraws\r\n     * @param _amount: the amount he withdraws\r\n     */\r\n    function _withdraw(address _userAddress, uint256 _amount) internal {\r\n        // Update the pool's status\r\n        currentStakingBalance -= _amount;\r\n        realStakingBalance -= _amount;\r\n        availableCapacity -= _amount;\r\n\r\n        PRB_lockedRatio = doDiv(lockedBalance, currentStakingBalance);\r\n        //\r\n        // ERC20  usdc/dai\r\n\r\n        USDC_TOKEN.safeTransfer(_userAddress, _amount);\r\n\r\n        uint256 lp_num = doDiv(_amount, LPValue);\r\n        DLPToken.burn(_userAddress, lp_num);\r\n        poolInfo.totalLP -= lp_num;\r\n        updateLPValue();\r\n\r\n        userInfo[_userAddress].assetBalance = getRealBalance(_userAddress);\r\n\r\n        emit Unstake(_userAddress, _amount);\r\n    }\r\n\r\n    /**\r\n     * @notice update the status when a policy expires\r\n     * @param _premium: the policy's premium\r\n     * @param _payoff: the policy's payoff\r\n     */\r\n    function updateWhenExpire(uint256 _premium, uint256 _payoff) public {\r\n        updatePoolReward();\r\n\r\n        activePremiums -= _premium;\r\n        lockedBalance -= _payoff;\r\n        availableCapacity += _payoff;\r\n\r\n        uint256 premiumToLP = (_premium * doDiv(8, 10)) / 1e18; // * 9e17\r\n        uint256 premiumToLottery = (_premium * doDiv(1, 10)) / 1e18;\r\n        rewardCollected += premiumToLP;\r\n\r\n        // transfer some reward to emergency pool and lottery pool\r\n        USDC_TOKEN.safeTransfer(address(emergencyPool), _premium - premiumToLP);\r\n        USDC_TOKEN.safeTransfer(address(degisLottery), _premium - premiumToLP);\r\n\r\n        uint256 remainingPayoff = _payoff;\r\n        uint256 pendingAmount;\r\n        if (unstakeQueue.length > 0) {\r\n            for (uint256 i = unstakeQueue.length - 1; i >= 0; i -= 1) {\r\n                if (remainingPayoff >= 0) {\r\n                    address pendingUser = unstakeQueue[i];\r\n                    for (\r\n                        uint256 j = 0;\r\n                        j < unstakeRequests[pendingUser].length;\r\n                        j++\r\n                    ) {\r\n                        pendingAmount = unstakeRequests[pendingUser][j]\r\n                            .pendingAmount;\r\n                        if (remainingPayoff > pendingAmount) {\r\n                            remainingPayoff -= pendingAmount;\r\n\r\n                            for (\r\n                                uint256 k = 0;\r\n                                k < unstakeRequests[pendingUser].length - 1;\r\n                                k += 1\r\n                            ) {\r\n                                unstakeRequests[pendingUser][\r\n                                    k\r\n                                ] = unstakeRequests[pendingUser][k + 1];\r\n                            }\r\n                            unstakeRequests[pendingUser].pop();\r\n\r\n                            USDC_TOKEN.safeTransfer(pendingUser, pendingAmount);\r\n                        } else {\r\n                            unstakeRequests[pendingUser][j]\r\n                                .pendingAmount -= remainingPayoff;\r\n                            unstakeRequests[pendingUser][j]\r\n                                .fulfilledAmount += remainingPayoff;\r\n                            USDC_TOKEN.safeTransfer(\r\n                                pendingUser,\r\n                                remainingPayoff\r\n                            );\r\n\r\n                            remainingPayoff = 0;\r\n                            break;\r\n                        }\r\n                    }\r\n                } else break;\r\n            }\r\n        }\r\n    }\r\n\r\n    /**\r\n     * @notice pay a claim\r\n     * @param _premium: the policy's premium\r\n     * @param _payoff: the policy's payoff\r\n     * @param _userAddress: the address of the premium claimer\r\n     */\r\n    function payClaim(\r\n        uint256 _premium,\r\n        uint256 _payoff,\r\n        address _userAddress\r\n    ) public onlyValidAddress(_userAddress) {\r\n        updatePoolReward();\r\n\r\n        lockedBalance -= _payoff;\r\n        currentStakingBalance -= _payoff;\r\n        realStakingBalance -= _payoff;\r\n        activePremiums -= _premium;\r\n\r\n        uint256 premiumToLP = (_premium * doDiv(8, 10)) / 1e18; // * 9e17\r\n        uint256 premiumToLottery = (_premium * doDiv(1, 10)) / 1e18;\r\n        uint256 premiumToEmergency = (_premium * doDiv(1, 10)) / 1e18;\r\n        rewardCollected += premiumToLP;\r\n\r\n        // transfer some reward to emergency pool and lottery pool\r\n        USDC_TOKEN.safeTransfer(address(emergencyPool), premiumToEmergency);\r\n\r\n        USDC_TOKEN.safeTransfer(address(degisLottery), premiumToLottery);\r\n        uint256 currentLotteryId = degisLottery.viewCurrentLotteryId();\r\n        degisLottery.injectFunds(currentLotteryId, premiumToLottery);\r\n\r\n        updateLPValue();\r\n        USDC_TOKEN.safeTransfer(_userAddress, _payoff);\r\n    }\r\n\r\n    /**\r\n     * @notice harvest your degis reward\r\n     * @param _userAddress: the address of the degis claimer\r\n     */\r\n    function harvestDegisReward(address _userAddress)\r\n        public\r\n        onlyValidAddress(_userAddress)\r\n    {\r\n        UserInfo storage user = userInfo[_userAddress];\r\n        updatePoolReward();\r\n\r\n        uint256 real_balance = getRealBalance(_userAddress);\r\n\r\n        if (real_balance > 0) {\r\n            uint256 pending = ((real_balance * poolInfo.accDegisPerShare) /\r\n                (1e18)) - (user.rewardDebt);\r\n            safeDegisTransfer(_userAddress, pending);\r\n        }\r\n\r\n        user.rewardDebt = (real_balance * (poolInfo.accDegisPerShare)) / (1e18);\r\n    }\r\n\r\n    /**\r\n     * @notice harvest your premium reward\r\n     * @param _userAddress: the address of the premium claimer\r\n     */\r\n    function harvestPremium(address _userAddress)\r\n        public\r\n        onlyValidAddress(_userAddress)\r\n    {\r\n        UserInfo storage user = userInfo[_userAddress];\r\n        updatePoolReward();\r\n\r\n        uint256 real_balance = getRealBalance(_userAddress);\r\n\r\n        if (real_balance > 0) {\r\n            uint256 pending = ((real_balance * poolInfo.accPremiumPerShare) /\r\n                (1e18)) - (user.premiumDebt);\r\n            USDC_TOKEN.safeTransfer(_userAddress, pending);\r\n        }\r\n        user.premiumDebt =\r\n            (real_balance * (poolInfo.accPremiumPerShare)) /\r\n            (1e18);\r\n\r\n        poolInfo.lastRewardCollected = rewardCollected;\r\n    }\r\n\r\n    /**\r\n     * @notice revert the last unstake request for a user\r\n     * @param _userAddress: user's address\r\n     */\r\n    function revertUnstakeRequest(address _userAddress)\r\n        public\r\n        onlyValidAddress(_userAddress)\r\n    {\r\n        UnstakeRequest[] storage userRequests = unstakeRequests[_userAddress];\r\n        require(\r\n            userRequests.length > 0,\r\n            \"this user has no pending unstake request\"\r\n        );\r\n\r\n        uint256 index = userRequests.length - 1;\r\n        uint256 remainingRequest = userRequests[index].pendingAmount -\r\n            userRequests[index].fulfilledAmount;\r\n\r\n        realStakingBalance += remainingRequest;\r\n        userInfo[_userAddress].pendingBalance -= remainingRequest;\r\n\r\n        removeOneRequest(_userAddress);\r\n    }\r\n\r\n    /**\r\n     * @notice revert all unstake requests for a user\r\n     * @param _userAddress: user's address\r\n     */\r\n    function revertAllUnstakeRequest(address _userAddress)\r\n        public\r\n        onlyValidAddress(_userAddress)\r\n    {\r\n        UnstakeRequest[] storage userRequests = unstakeRequests[_userAddress];\r\n        require(\r\n            userRequests.length > 0,\r\n            \"this user has no pending unstake request\"\r\n        );\r\n        removeAllRequest(_userAddress);\r\n        delete unstakeRequests[_userAddress];\r\n\r\n        userInfo[_userAddress].assetBalance = getRealBalance(_userAddress);\r\n\r\n        uint256 remainingRequest = userInfo[_userAddress].pendingBalance;\r\n        realStakingBalance += remainingRequest;\r\n        userInfo[_userAddress].pendingBalance = 0;\r\n    }\r\n\r\n    /**\r\n     * @notice remove all unstake requests for a user\r\n     * @param _userAddress: user's address\r\n     */\r\n    function removeAllRequest(address _userAddress) internal {\r\n        for (uint256 i = 0; i < unstakeRequests[_userAddress].length; i += 1) {\r\n            removeOneRequest(_userAddress);\r\n        }\r\n    }\r\n\r\n    /**\r\n     * @notice remove one(the latest) unstake requests for a user\r\n     * @param _userAddress: user's address\r\n     */\r\n    function removeOneRequest(address _userAddress) internal {\r\n        uint256 index = unstakeQueue.length - 1;\r\n\r\n        while (index >= 0) {\r\n            if (unstakeQueue[index] == _userAddress) break;\r\n            index -= 1;\r\n        }\r\n\r\n        for (uint256 j = index; j < unstakeQueue.length - 1; j += 1) {\r\n            unstakeQueue[j] = unstakeQueue[j + 1];\r\n        }\r\n\r\n        unstakeQueue.pop();\r\n    }\r\n\r\n    /**\r\n     * @notice safe degis transfer (if the pool has enough DEGIS token)\r\n     * @param _to: user's address\r\n     * @param _amount: amount\r\n     */\r\n    function safeDegisTransfer(address _to, uint256 _amount) internal {\r\n        uint256 DegisBalance = DEGIS.balanceOf(address(this));\r\n        if (_amount > DegisBalance) {\r\n            DEGIS.transfer(_to, DegisBalance);\r\n        } else {\r\n            DEGIS.transfer(_to, _amount);\r\n        }\r\n    }\r\n}\r\n",
  "sourcePath": "D:\\src\\Degis-Contracts-1\\contracts\\InsurancePool.sol",
  "compiler": {
    "name": "solc",
    "version": "0.8.5+commit.a4f2e591.Emscripten.clang"
  },
  "schemaVersion": "3.4.3",
  "updatedAt": "2021-10-07T16:23:49.062Z",
  "networkType": "ethereum",
  "devdoc": {
    "kind": "dev",
    "methods": {
      "constructor": {
        "params": {
          "_degis": ": address of the degis token",
          "_degisPerBlock": ": degis reward per block",
          "_emergencyPool": ": address of the emergency pool",
          "_factor": ": initial collateral factor",
          "_lptoken": ": address of LP token",
          "_usdcAddress": ": address of USDC"
        }
      },
      "getLockedfor(address)": {
        "params": {
          "_userAddress": ": user's address"
        },
        "returns": {
          "_0": "_amount: the user's locked amount"
        }
      },
      "getPoolUnlocked()": {
        "returns": {
          "_0": "the amount that the pool can unlock"
        }
      },
      "getStakeAmount(address)": {
        "params": {
          "_userAddress": ": the user's address"
        }
      },
      "getUnlockedfor(address)": {
        "params": {
          "_userAddress": ": user's address"
        },
        "returns": {
          "_0": "the amount that the user can unlock"
        }
      },
      "harvestDegisReward(address)": {
        "params": {
          "_userAddress": ": the address of the degis claimer"
        }
      },
      "harvestPremium(address)": {
        "params": {
          "_userAddress": ": the address of the premium claimer"
        }
      },
      "payClaim(uint256,uint256,address)": {
        "params": {
          "_payoff": ": the policy's payoff",
          "_premium": ": the policy's premium",
          "_userAddress": ": the address of the premium claimer"
        }
      },
      "revertAllUnstakeRequest(address)": {
        "params": {
          "_userAddress": ": user's address"
        }
      },
      "revertUnstakeRequest(address)": {
        "params": {
          "_userAddress": ": user's address"
        }
      },
      "setCollateralFactor(uint256)": {
        "params": {
          "_factor": ": the new collateral factor"
        }
      },
      "stake(address,uint256)": {
        "params": {
          "_amount": ": the amount that the user want to stake",
          "_userAddress": ": user's address"
        }
      },
      "unstake(address,uint256)": {
        "params": {
          "_amount": ": the amount that the user want to unstake",
          "_userAddress": ": user's address"
        }
      },
      "updateWhenBuy(uint256,uint256,address)": {
        "params": {
          "_payoff": ": the payoff of the policy just sold",
          "_premium": ": the premium of the policy just sold",
          "_userAddress": ": the address of the buyer"
        }
      },
      "updateWhenExpire(uint256,uint256)": {
        "params": {
          "_payoff": ": the policy's payoff",
          "_premium": ": the policy's premium"
        }
      }
    },
    "version": 1
  },
  "userdoc": {
    "errors": {
      "PRBMath__MulDivFixedPointOverflow(uint256)": [
        {
          "notice": "Emitted when the result overflows uint256."
        }
      ],
      "PRBMath__MulDivOverflow(uint256,uint256)": [
        {
          "notice": "Emitted when the result overflows uint256."
        }
      ]
    },
    "kind": "user",
    "methods": {
      "constructor": {
        "notice": "constructor function"
      },
      "getAccDegisPerShare()": {
        "notice": "get accumulated degis per share"
      },
      "getAvailableCapacity()": {
        "notice": "view the pool's total available capacity"
      },
      "getCollateralFactor()": {
        "notice": "view the collateral factor"
      },
      "getCurrentStakingBalance()": {
        "notice": "view the pool's total available capacity"
      },
      "getLockedRatio()": {
        "notice": "get PRB_lockedRatio of the pool"
      },
      "getLockedfor(address)": {
        "notice": "get the user's locked balance"
      },
      "getPoolName()": {
        "notice": "view the pool name (only for test, delete when mainnet)"
      },
      "getPoolUnlocked()": {
        "notice": "get the balance that the pool can unlock(maximum)"
      },
      "getRewardCollected()": {
        "notice": "get the premium reward collected now"
      },
      "getStakeAmount(address)": {
        "notice": "get a user's stake amount in the pool"
      },
      "getTotalLocked()": {
        "notice": "view how many assets are locked in the pool currently"
      },
      "getUnlockedfor(address)": {
        "notice": "get the balance that one user(LP) can unlock(maximum)"
      },
      "harvestDegisReward(address)": {
        "notice": "harvest your degis reward"
      },
      "harvestPremium(address)": {
        "notice": "harvest your premium reward"
      },
      "payClaim(uint256,uint256,address)": {
        "notice": "pay a claim"
      },
      "pendingDegis(address)": {
        "notice": "view the pending degis amount in frontend"
      },
      "pendingPremium(address)": {
        "notice": "view the pending premium amount in frontend"
      },
      "revertAllUnstakeRequest(address)": {
        "notice": "revert all unstake requests for a user"
      },
      "revertUnstakeRequest(address)": {
        "notice": "revert the last unstake request for a user"
      },
      "setCollateralFactor(uint256)": {
        "notice": "change the collateral factor(only by the owner)"
      },
      "setPolicyFlow(address)": {
        "notice": "set the address of policyFlow"
      },
      "stake(address,uint256)": {
        "notice": "stake: a user(LP) want to stake some amount of asset"
      },
      "transferOwnerShip(address)": {
        "notice": "transfer the ownership to a new owner"
      },
      "unstake(address,uint256)": {
        "notice": "unstake: a user want to unstake some amount"
      },
      "updateWhenBuy(uint256,uint256,address)": {
        "notice": "update the pool variables when buying policies"
      },
      "updateWhenExpire(uint256,uint256)": {
        "notice": "update the status when a policy expires"
      }
    },
    "version": 1
  }
}