{
  "contractName": "InsurancePool",
  "abi": [
    {
      "inputs": [
        {
          "internalType": "uint256",
          "name": "_factor",
          "type": "uint256"
        },
        {
          "internalType": "contract IDegisToken",
          "name": "_degis",
          "type": "address"
        },
        {
          "internalType": "contract IEmergencyPool",
          "name": "_emergencyPool",
          "type": "address"
        },
        {
          "internalType": "contract ILPToken",
          "name": "_lptoken",
          "type": "address"
        },
        {
          "internalType": "contract IDegisLottery",
          "name": "_degisLottery",
          "type": "address"
        },
        {
          "internalType": "address",
          "name": "_usdcAddress",
          "type": "address"
        },
        {
          "internalType": "uint256",
          "name": "_degisPerBlock",
          "type": "uint256"
        }
      ],
      "stateMutability": "nonpayable",
      "type": "constructor"
    },
    {
      "inputs": [
        {
          "internalType": "uint256",
          "name": "prod1",
          "type": "uint256"
        }
      ],
      "name": "PRBMath__MulDivFixedPointOverflow",
      "type": "error"
    },
    {
      "inputs": [
        {
          "internalType": "uint256",
          "name": "prod1",
          "type": "uint256"
        },
        {
          "internalType": "uint256",
          "name": "denominator",
          "type": "uint256"
        }
      ],
      "name": "PRBMath__MulDivOverflow",
      "type": "error"
    },
    {
      "anonymous": false,
      "inputs": [
        {
          "indexed": true,
          "internalType": "address",
          "name": "userAddress",
          "type": "address"
        },
        {
          "indexed": false,
          "internalType": "uint256",
          "name": "premium",
          "type": "uint256"
        },
        {
          "indexed": false,
          "internalType": "uint256",
          "name": "payout",
          "type": "uint256"
        }
      ],
      "name": "BuyNewPolicy",
      "type": "event"
    },
    {
      "anonymous": false,
      "inputs": [
        {
          "indexed": true,
          "internalType": "address",
          "name": "onwerAddress",
          "type": "address"
        },
        {
          "indexed": false,
          "internalType": "uint256",
          "name": "factor",
          "type": "uint256"
        }
      ],
      "name": "ChangeCollateralFactor",
      "type": "event"
    },
    {
      "anonymous": false,
      "inputs": [
        {
          "indexed": false,
          "internalType": "address",
          "name": "oldOwner",
          "type": "address"
        },
        {
          "indexed": false,
          "internalType": "address",
          "name": "newOwner",
          "type": "address"
        }
      ],
      "name": "OwnerChanged",
      "type": "event"
    },
    {
      "anonymous": false,
      "inputs": [
        {
          "indexed": false,
          "internalType": "address",
          "name": "_policyFlowAddress",
          "type": "address"
        }
      ],
      "name": "SetPolicyFlow",
      "type": "event"
    },
    {
      "anonymous": false,
      "inputs": [
        {
          "indexed": true,
          "internalType": "address",
          "name": "userAddress",
          "type": "address"
        },
        {
          "indexed": false,
          "internalType": "uint256",
          "name": "amount",
          "type": "uint256"
        }
      ],
      "name": "Stake",
      "type": "event"
    },
    {
      "anonymous": false,
      "inputs": [
        {
          "indexed": true,
          "internalType": "address",
          "name": "userAddress",
          "type": "address"
        },
        {
          "indexed": false,
          "internalType": "uint256",
          "name": "amount",
          "type": "uint256"
        }
      ],
      "name": "Unstake",
      "type": "event"
    },
    {
      "inputs": [],
      "name": "DEGIS",
      "outputs": [
        {
          "internalType": "contract IDegisToken",
          "name": "",
          "type": "address"
        }
      ],
      "stateMutability": "view",
      "type": "function",
      "constant": true
    },
    {
      "inputs": [],
      "name": "DLPToken",
      "outputs": [
        {
          "internalType": "contract ILPToken",
          "name": "",
          "type": "address"
        }
      ],
      "stateMutability": "view",
      "type": "function",
      "constant": true
    },
    {
      "inputs": [],
      "name": "LPValue",
      "outputs": [
        {
          "internalType": "uint256",
          "name": "",
          "type": "uint256"
        }
      ],
      "stateMutability": "view",
      "type": "function",
      "constant": true
    },
    {
      "inputs": [],
      "name": "PRB_lockedRatio",
      "outputs": [
        {
          "internalType": "uint256",
          "name": "",
          "type": "uint256"
        }
      ],
      "stateMutability": "view",
      "type": "function",
      "constant": true
    },
    {
      "inputs": [],
      "name": "USDC_TOKEN",
      "outputs": [
        {
          "internalType": "contract IERC20",
          "name": "",
          "type": "address"
        }
      ],
      "stateMutability": "view",
      "type": "function",
      "constant": true
    },
    {
      "inputs": [],
      "name": "activePremiums",
      "outputs": [
        {
          "internalType": "uint256",
          "name": "",
          "type": "uint256"
        }
      ],
      "stateMutability": "view",
      "type": "function",
      "constant": true
    },
    {
      "inputs": [],
      "name": "availableCapacity",
      "outputs": [
        {
          "internalType": "uint256",
          "name": "",
          "type": "uint256"
        }
      ],
      "stateMutability": "view",
      "type": "function",
      "constant": true
    },
    {
      "inputs": [],
      "name": "collateralFactor",
      "outputs": [
        {
          "internalType": "uint256",
          "name": "",
          "type": "uint256"
        }
      ],
      "stateMutability": "view",
      "type": "function",
      "constant": true
    },
    {
      "inputs": [],
      "name": "currentStakingBalance",
      "outputs": [
        {
          "internalType": "uint256",
          "name": "",
          "type": "uint256"
        }
      ],
      "stateMutability": "view",
      "type": "function",
      "constant": true
    },
    {
      "inputs": [],
      "name": "degisLottery",
      "outputs": [
        {
          "internalType": "contract IDegisLottery",
          "name": "",
          "type": "address"
        }
      ],
      "stateMutability": "view",
      "type": "function",
      "constant": true
    },
    {
      "inputs": [],
      "name": "emergencyPool",
      "outputs": [
        {
          "internalType": "contract IEmergencyPool",
          "name": "",
          "type": "address"
        }
      ],
      "stateMutability": "view",
      "type": "function",
      "constant": true
    },
    {
      "inputs": [],
      "name": "lockedBalance",
      "outputs": [
        {
          "internalType": "uint256",
          "name": "",
          "type": "uint256"
        }
      ],
      "stateMutability": "view",
      "type": "function",
      "constant": true
    },
    {
      "inputs": [],
      "name": "owner",
      "outputs": [
        {
          "internalType": "address",
          "name": "",
          "type": "address"
        }
      ],
      "stateMutability": "view",
      "type": "function",
      "constant": true
    },
    {
      "inputs": [],
      "name": "policyFlow",
      "outputs": [
        {
          "internalType": "address",
          "name": "",
          "type": "address"
        }
      ],
      "stateMutability": "view",
      "type": "function",
      "constant": true
    },
    {
      "inputs": [],
      "name": "realStakingBalance",
      "outputs": [
        {
          "internalType": "uint256",
          "name": "",
          "type": "uint256"
        }
      ],
      "stateMutability": "view",
      "type": "function",
      "constant": true
    },
    {
      "inputs": [],
      "name": "rewardCollected",
      "outputs": [
        {
          "internalType": "uint256",
          "name": "",
          "type": "uint256"
        }
      ],
      "stateMutability": "view",
      "type": "function",
      "constant": true
    },
    {
      "inputs": [
        {
          "internalType": "uint256",
          "name": "",
          "type": "uint256"
        }
      ],
      "name": "rewardDistribution",
      "outputs": [
        {
          "internalType": "uint256",
          "name": "",
          "type": "uint256"
        }
      ],
      "stateMutability": "view",
      "type": "function",
      "constant": true
    },
    {
      "inputs": [],
      "name": "getLockedRatio",
      "outputs": [
        {
          "internalType": "uint256",
          "name": "",
          "type": "uint256"
        }
      ],
      "stateMutability": "view",
      "type": "function",
      "constant": true
    },
    {
      "inputs": [],
      "name": "getAccDegisPerShare",
      "outputs": [
        {
          "internalType": "uint256",
          "name": "",
          "type": "uint256"
        }
      ],
      "stateMutability": "view",
      "type": "function",
      "constant": true
    },
    {
      "inputs": [],
      "name": "getRewardCollected",
      "outputs": [
        {
          "internalType": "uint256",
          "name": "",
          "type": "uint256"
        }
      ],
      "stateMutability": "view",
      "type": "function",
      "constant": true
    },
    {
      "inputs": [],
      "name": "getTotalLocked",
      "outputs": [
        {
          "internalType": "uint256",
          "name": "",
          "type": "uint256"
        }
      ],
      "stateMutability": "view",
      "type": "function",
      "constant": true
    },
    {
      "inputs": [],
      "name": "getCollateralFactor",
      "outputs": [
        {
          "internalType": "uint256",
          "name": "",
          "type": "uint256"
        }
      ],
      "stateMutability": "view",
      "type": "function",
      "constant": true
    },
    {
      "inputs": [
        {
          "internalType": "address",
          "name": "_userAddress",
          "type": "address"
        }
      ],
      "name": "pendingDegis",
      "outputs": [
        {
          "internalType": "uint256",
          "name": "",
          "type": "uint256"
        }
      ],
      "stateMutability": "view",
      "type": "function",
      "constant": true
    },
    {
      "inputs": [
        {
          "internalType": "address",
          "name": "_userAddress",
          "type": "address"
        }
      ],
      "name": "pendingPremium",
      "outputs": [
        {
          "internalType": "uint256",
          "name": "",
          "type": "uint256"
        }
      ],
      "stateMutability": "view",
      "type": "function",
      "constant": true
    },
    {
      "inputs": [],
      "name": "getPoolName",
      "outputs": [
        {
          "internalType": "string",
          "name": "",
          "type": "string"
        }
      ],
      "stateMutability": "view",
      "type": "function",
      "constant": true
    },
    {
      "inputs": [],
      "name": "getAvailableCapacity",
      "outputs": [
        {
          "internalType": "uint256",
          "name": "",
          "type": "uint256"
        }
      ],
      "stateMutability": "view",
      "type": "function",
      "constant": true
    },
    {
      "inputs": [],
      "name": "getCurrentStakingBalance",
      "outputs": [
        {
          "internalType": "uint256",
          "name": "",
          "type": "uint256"
        }
      ],
      "stateMutability": "view",
      "type": "function",
      "constant": true
    },
    {
      "inputs": [
        {
          "internalType": "address",
          "name": "_userAddress",
          "type": "address"
        }
      ],
      "name": "getRealBalance",
      "outputs": [
        {
          "internalType": "uint256",
          "name": "",
          "type": "uint256"
        }
      ],
      "stateMutability": "view",
      "type": "function",
      "constant": true
    },
    {
      "inputs": [
        {
          "internalType": "address",
          "name": "_userAddress",
          "type": "address"
        }
      ],
      "name": "getStakeAmount",
      "outputs": [
        {
          "internalType": "uint256",
          "name": "",
          "type": "uint256"
        }
      ],
      "stateMutability": "view",
      "type": "function",
      "constant": true
    },
    {
      "inputs": [],
      "name": "getPoolUnlocked",
      "outputs": [
        {
          "internalType": "uint256",
          "name": "",
          "type": "uint256"
        }
      ],
      "stateMutability": "view",
      "type": "function",
      "constant": true
    },
    {
      "inputs": [
        {
          "internalType": "address",
          "name": "_userAddress",
          "type": "address"
        }
      ],
      "name": "getUnlockedfor",
      "outputs": [
        {
          "internalType": "uint256",
          "name": "",
          "type": "uint256"
        }
      ],
      "stateMutability": "view",
      "type": "function",
      "constant": true
    },
    {
      "inputs": [
        {
          "internalType": "address",
          "name": "_userAddress",
          "type": "address"
        }
      ],
      "name": "getLockedfor",
      "outputs": [
        {
          "internalType": "uint256",
          "name": "",
          "type": "uint256"
        }
      ],
      "stateMutability": "view",
      "type": "function",
      "constant": true
    },
    {
      "inputs": [
        {
          "internalType": "address",
          "name": "_policyFlowAddress",
          "type": "address"
        }
      ],
      "name": "setPolicyFlow",
      "outputs": [],
      "stateMutability": "nonpayable",
      "type": "function"
    },
    {
      "inputs": [
        {
          "internalType": "uint256[3]",
          "name": "_newDistribution",
          "type": "uint256[3]"
        }
      ],
      "name": "setRewardDistribution",
      "outputs": [],
      "stateMutability": "nonpayable",
      "type": "function"
    },
    {
      "inputs": [
        {
          "internalType": "address",
          "name": "_newOwner",
          "type": "address"
        }
      ],
      "name": "transferOwnerShip",
      "outputs": [],
      "stateMutability": "nonpayable",
      "type": "function"
    },
    {
      "inputs": [
        {
          "internalType": "uint256",
          "name": "_factor",
          "type": "uint256"
        }
      ],
      "name": "setCollateralFactor",
      "outputs": [],
      "stateMutability": "nonpayable",
      "type": "function"
    },
    {
      "inputs": [
        {
          "internalType": "uint256",
          "name": "_payoff",
          "type": "uint256"
        }
      ],
      "name": "checkCapacity",
      "outputs": [
        {
          "internalType": "bool",
          "name": "",
          "type": "bool"
        }
      ],
      "stateMutability": "view",
      "type": "function",
      "constant": true
    },
    {
      "inputs": [
        {
          "internalType": "uint256",
          "name": "_premium",
          "type": "uint256"
        },
        {
          "internalType": "uint256",
          "name": "_payoff",
          "type": "uint256"
        },
        {
          "internalType": "address",
          "name": "_userAddress",
          "type": "address"
        }
      ],
      "name": "updateWhenBuy",
      "outputs": [
        {
          "internalType": "bool",
          "name": "",
          "type": "bool"
        }
      ],
      "stateMutability": "nonpayable",
      "type": "function"
    },
    {
      "inputs": [
        {
          "internalType": "address",
          "name": "_userAddress",
          "type": "address"
        },
        {
          "internalType": "uint256",
          "name": "_amount",
          "type": "uint256"
        }
      ],
      "name": "stake",
      "outputs": [],
      "stateMutability": "nonpayable",
      "type": "function"
    },
    {
      "inputs": [
        {
          "internalType": "address",
          "name": "_userAddress",
          "type": "address"
        },
        {
          "internalType": "uint256",
          "name": "_amount",
          "type": "uint256"
        }
      ],
      "name": "unstake",
      "outputs": [],
      "stateMutability": "nonpayable",
      "type": "function"
    },
    {
      "inputs": [
        {
          "internalType": "uint256",
          "name": "_premium",
          "type": "uint256"
        },
        {
          "internalType": "uint256",
          "name": "_payoff",
          "type": "uint256"
        }
      ],
      "name": "updateWhenExpire",
      "outputs": [],
      "stateMutability": "nonpayable",
      "type": "function"
    },
    {
      "inputs": [
        {
          "internalType": "uint256",
          "name": "_premium",
          "type": "uint256"
        },
        {
          "internalType": "uint256",
          "name": "_payoff",
          "type": "uint256"
        },
        {
          "internalType": "address",
          "name": "_userAddress",
          "type": "address"
        }
      ],
      "name": "payClaim",
      "outputs": [],
      "stateMutability": "nonpayable",
      "type": "function"
    },
    {
      "inputs": [
        {
          "internalType": "address",
          "name": "_userAddress",
          "type": "address"
        }
      ],
      "name": "harvestDegisReward",
      "outputs": [],
      "stateMutability": "nonpayable",
      "type": "function"
    },
    {
      "inputs": [
        {
          "internalType": "address",
          "name": "_userAddress",
          "type": "address"
        }
      ],
      "name": "harvestPremium",
      "outputs": [],
      "stateMutability": "nonpayable",
      "type": "function"
    },
    {
      "inputs": [
        {
          "internalType": "address",
          "name": "_userAddress",
          "type": "address"
        }
      ],
      "name": "revertUnstakeRequest",
      "outputs": [],
      "stateMutability": "nonpayable",
      "type": "function"
    },
    {
      "inputs": [
        {
          "internalType": "address",
          "name": "_userAddress",
          "type": "address"
        }
      ],
      "name": "revertAllUnstakeRequest",
      "outputs": [],
      "stateMutability": "nonpayable",
      "type": "function"
    }
  ],
  "bytecode": "0x60806040523480156200001157600080fd5b5060405162005628380380620056288339818101604052810190620000379190620005de565b336000806101000a81548173ffffffffffffffffffffffffffffffffffffffff021916908373ffffffffffffffffffffffffffffffffffffffff1602179055506200008a8760646200033b60201b60201c565b600d81905550670de0b6b3a7640000600c8190555085600360006101000a81548173ffffffffffffffffffffffffffffffffffffffff021916908373ffffffffffffffffffffffffffffffffffffffff16021790555081600460006101000a81548173ffffffffffffffffffffffffffffffffffffffff021916908373ffffffffffffffffffffffffffffffffffffffff1602179055506040518061010001604052806040518060400160405280600d81526020017f696e737572616e6365706f6f6c00000000000000000000000000000000000000815250815260200160008152602001600081526020016000815260200143815260200182815260200160008152602001600081525060146000820151816000019080519060200190620001b5929190620004a4565b506020820151816001015560408201518160020155606082015181600301556080820151816004015560a0820151816005015560c0820151816006015560e0820151816007015590505083600660006101000a81548173ffffffffffffffffffffffffffffffffffffffff021916908373ffffffffffffffffffffffffffffffffffffffff160217905550670de0b6b3a764000060088190555084600560006101000a81548173ffffffffffffffffffffffffffffffffffffffff021916908373ffffffffffffffffffffffffffffffffffffffff16021790555082600760006101000a81548173ffffffffffffffffffffffffffffffffffffffff021916908373ffffffffffffffffffffffffffffffffffffffff16021790555060506011600060038110620002eb57620002ea620007f1565b5b0181905550600a60116001600381106200030a5762000309620007f1565b5b0181905550600a6011600260038110620003295762000328620007f1565b5b018190555050505050505050620008c1565b60006200035483836200035c60201b62002db11760201c565b905092915050565b60006200037e83670de0b6b3a7640000846200038660201b62002dce1760201c565b905092915050565b600080600080198587098587029250828110838203039150506000811415620003c757838281620003bc57620003bb62000793565b5b04925050506200049d565b838110620004105780846040517f773cc18c00000000000000000000000000000000000000000000000000000000815260040162000407929190620006a2565b60405180910390fd5b60008486880990508281118203915080830392506000600186190186169050808604955080840493506001818260000304019050808302841793506000600287600302189050808702600203810290508087026002038102905080870260020381029050808702600203810290508087026002038102905080870260020381029050808502955050505050505b9392505050565b828054620004b2906200075d565b90600052602060002090601f016020900481019282620004d6576000855562000522565b82601f10620004f157805160ff191683800117855562000522565b8280016001018555821562000522579182015b828111156200052157825182559160200191906001019062000504565b5b50905062000531919062000535565b5090565b5b808211156200055057600081600090555060010162000536565b5090565b600081519050620005658162000825565b92915050565b6000815190506200057c816200083f565b92915050565b600081519050620005938162000859565b92915050565b600081519050620005aa8162000873565b92915050565b600081519050620005c1816200088d565b92915050565b600081519050620005d881620008a7565b92915050565b600080600080600080600060e0888a0312156200060057620005ff62000820565b5b6000620006108a828b01620005c7565b9750506020620006238a828b0162000582565b9650506040620006368a828b0162000599565b9550506060620006498a828b01620005b0565b94505060806200065c8a828b016200056b565b93505060a06200066f8a828b0162000554565b92505060c0620006828a828b01620005c7565b91505092959891949750929550565b6200069c8162000753565b82525050565b6000604082019050620006b9600083018562000691565b620006c8602083018462000691565b9392505050565b6000620006dc8262000733565b9050919050565b6000620006f082620006cf565b9050919050565b60006200070482620006cf565b9050919050565b60006200071882620006cf565b9050919050565b60006200072c82620006cf565b9050919050565b600073ffffffffffffffffffffffffffffffffffffffff82169050919050565b6000819050919050565b600060028204905060018216806200077657607f821691505b602082108114156200078d576200078c620007c2565b5b50919050565b7f4e487b7100000000000000000000000000000000000000000000000000000000600052601260045260246000fd5b7f4e487b7100000000000000000000000000000000000000000000000000000000600052602260045260246000fd5b7f4e487b7100000000000000000000000000000000000000000000000000000000600052603260045260246000fd5b600080fd5b6200083081620006cf565b81146200083c57600080fd5b50565b6200084a81620006e3565b81146200085657600080fd5b50565b6200086481620006f7565b81146200087057600080fd5b50565b6200087e816200070b565b81146200088a57600080fd5b50565b62000898816200071f565b8114620008a457600080fd5b50565b620008b28162000753565b8114620008be57600080fd5b50565b614d5780620008d16000396000f3fe608060405234801561001057600080fd5b50600436106102895760003560e01c80638863dd1a1161015c578063bff9e65f116100ce578063df011c4111610087578063df011c41146107cc578063e4d4b58c146107ea578063ea1a767914610806578063f03816ea14610824578063f4732da614610840578063fa5692741461085e57610289565b8063bff9e65f14610708578063c2a672e014610726578063cba9aa4f14610742578063d299398314610760578063d8a9bdb71461077e578063da38db411461079c57610289565b8063a59b364511610120578063a59b364514610648578063a5f7719814610666578063adc9772e14610682578063b2ea78a81461069e578063b5c22157146106bc578063bf131f4b146106d857610289565b80638863dd1a146105b6578063887866bf146105d25780638da5cb5b146105f05780638f6987a21461060e578063a21bc3fb1461062a57610289565b80633c2d29001161020057806357a972c1116101b957806357a972c1146104f25780635c326caf1461051057806360d5b1ab1461052c5780636b5588ef1461054a5780637b80889b146105685780637d36f7661461058657610289565b80633c2d2900146104325780633fd8e3e7146104625780634020a4ad1461047e57806343d387f81461049a5780634409c2aa146104b857806347fea81e146104d657610289565b80630fb71df1116102525780630fb71df11461035a57806317386915146103785780631872f73c146103a8578063293cbda3146103d857806335392b71146103f6578063370dad801461041457610289565b806216bd781461028e57806304dff215146102be5780630bd35bbe146102dc5780630c2eb403146102fa5780630c80d6911461032a575b600080fd5b6102a860048036038101906102a39190613fcd565b61087c565b6040516102b59190614392565b60405180910390f35b6102c661089a565b6040516102d39190614576565b60405180910390f35b6102e46108a4565b6040516102f191906143c8565b60405180910390f35b610314600480360381019061030f9190613f06565b6108ca565b6040516103219190614576565b60405180910390f35b610344600480360381019061033f9190613f06565b610916565b6040516103519190614576565b60405180910390f35b6103626109e0565b60405161036f9190614576565b60405180910390f35b610392600480360381019061038d9190613f06565b6109f7565b60405161039f9190614576565b60405180910390f35b6103c260048036038101906103bd9190613f06565b610a34565b6040516103cf9190614576565b60405180910390f35b6103e0610b27565b6040516103ed9190614576565b60405180910390f35b6103fe610b31565b60405161040b9190614576565b60405180910390f35b61041c610b3b565b6040516104299190614576565b60405180910390f35b61044c60048036038101906104479190613f06565b610b45565b6040516104599190614576565b60405180910390f35b61047c60048036038101906104779190613f06565b610b71565b005b61049860048036038101906104939190613f06565b610cb8565b005b6104a2610f04565b6040516104af91906142ee565b60405180910390f35b6104c0610f2a565b6040516104cd9190614576565b60405180910390f35b6104f060048036038101906104eb9190614067565b610f34565b005b6104fa611326565b6040516105079190614576565b60405180910390f35b61052a60048036038101906105259190613f06565b61132c565b005b610534611435565b6040516105419190614576565b60405180910390f35b61055261143b565b60405161055f9190614576565b60405180910390f35b610570611448565b60405161057d9190614576565b60405180910390f35b6105a0600480360381019061059b9190613fcd565b61144e565b6040516105ad9190614576565b60405180910390f35b6105d060048036038101906105cb9190613f06565b611469565b005b6105da611605565b6040516105e79190614419565b60405180910390f35b6105f861162b565b60405161060591906142ee565b60405180910390f35b61062860048036038101906106239190614027565b61164f565b005b610632611d88565b60405161063f9190614576565b60405180910390f35b610650611d8e565b60405161065d91906143fe565b60405180910390f35b610680600480360381019061067b9190613f73565b611db4565b005b61069c60048036038101906106979190613f33565b611f3d565b005b6106a6612163565b6040516106b39190614576565b60405180910390f35b6106d660048036038101906106d19190613fcd565b612169565b005b6106f260048036038101906106ed9190614067565b612279565b6040516106ff9190614392565b60405180910390f35b610710612384565b60405161071d91906143ad565b60405180910390f35b610740600480360381019061073b9190613f33565b6123aa565b005b61074a6127bc565b6040516107579190614576565b60405180910390f35b6107686127c2565b6040516107759190614434565b60405180910390f35b61078661285d565b6040516107939190614576565b60405180910390f35b6107b660048036038101906107b19190613f06565b612863565b6040516107c39190614576565b60405180910390f35b6107d46129f5565b6040516107e19190614576565b60405180910390f35b61080460048036038101906107ff9190613f06565b6129fb565b005b61080e612b91565b60405161081b9190614576565b60405180910390f35b61083e60048036038101906108399190613f06565b612b97565b005b610848612d81565b6040516108559190614576565b60405180910390f35b610866612d8b565b60405161087391906143e3565b60405180910390f35b600081600e54106108905760019050610895565b600090505b919050565b6000600c54905090565b600360009054906101000a900473ffffffffffffffffffffffffffffffffffffffff1681565b6000600260008373ffffffffffffffffffffffffffffffffffffffff1673ffffffffffffffffffffffffffffffffffffffff168152602001908152602001600020600201549050919050565b600080600660009054906101000a900473ffffffffffffffffffffffffffffffffffffffff1673ffffffffffffffffffffffffffffffffffffffff166370a08231846040518263ffffffff1660e01b815260040161097491906142ee565b60206040518083038186803b15801561098c57600080fd5b505afa1580156109a0573d6000803e3d6000fd5b505050506040513d601f19601f820116820180604052508101906109c49190613ffa565b905060006109d482600854612ee4565b90508092505050919050565b6000600b546009546109f29190614718565b905090565b600080610a0383610916565b90506000670de0b6b3a764000082600c54610a1e91906146be565b610a28919061468d565b90508092505050919050565b600080600260008473ffffffffffffffffffffffffffffffffffffffff1673ffffffffffffffffffffffffffffffffffffffff16815260200190815260200160002090506000610a8384610916565b905060006014600601549050601460040154431115610b1a576000601460070154601054610ab19190614718565b9050600954670de0b6b3a764000082610aca91906146be565b610ad4919061468d565b82610adf9190614637565b91508360010154670de0b6b3a76400008385610afb91906146be565b610b05919061468d565b610b0f9190614718565b945050505050610b22565b600093505050505b919050565b6000600954905090565b6000600d54905090565b6000600e54905090565b600080610b5183610916565b905080600e5410610b655780915050610b6c565b600e549150505b919050565b80600073ffffffffffffffffffffffffffffffffffffffff168173ffffffffffffffffffffffffffffffffffffffff161415610be2576040517f08c379a0000000000000000000000000000000000000000000000000000000008152600401610bd990614496565b60405180910390fd5b6000600260008473ffffffffffffffffffffffffffffffffffffffff1673ffffffffffffffffffffffffffffffffffffffff1681526020019081526020016000209050610c2d612ef8565b6000610c3884610916565b90506000811115610c865760008260000154670de0b6b3a764000060146003015484610c6491906146be565b610c6e919061468d565b610c789190614718565b9050610c84858261307c565b505b670de0b6b3a764000060146003015482610ca091906146be565b610caa919061468d565b826000018190555050505050565b80600073ffffffffffffffffffffffffffffffffffffffff168173ffffffffffffffffffffffffffffffffffffffff161415610d29576040517f08c379a0000000000000000000000000000000000000000000000000000000008152600401610d2090614496565b60405180910390fd5b6000601c60008473ffffffffffffffffffffffffffffffffffffffff1673ffffffffffffffffffffffffffffffffffffffff16815260200190815260200160002090506000818054905011610db3576040517f08c379a0000000000000000000000000000000000000000000000000000000008152600401610daa906144d6565b60405180910390fd5b610dbc8361329e565b601c60008473ffffffffffffffffffffffffffffffffffffffff1673ffffffffffffffffffffffffffffffffffffffff1681526020019081526020016000206000610e079190613dc1565b610e1083610916565b600260008573ffffffffffffffffffffffffffffffffffffffff1673ffffffffffffffffffffffffffffffffffffffff168152602001908152602001600020600201819055506000600260008573ffffffffffffffffffffffffffffffffffffffff1673ffffffffffffffffffffffffffffffffffffffff16815260200190815260200160002060030154905080600a6000828254610eaf9190614637565b925050819055506000600260008673ffffffffffffffffffffffffffffffffffffffff1673ffffffffffffffffffffffffffffffffffffffff1681526020019081526020016000206003018190555050505050565b600160009054906101000a900473ffffffffffffffffffffffffffffffffffffffff1681565b6000601054905090565b80600073ffffffffffffffffffffffffffffffffffffffff168173ffffffffffffffffffffffffffffffffffffffff161415610fa5576040517f08c379a0000000000000000000000000000000000000000000000000000000008152600401610f9c90614496565b60405180910390fd5b610fad612ef8565b82600b6000828254610fbf9190614718565b925050819055508260096000828254610fd89190614718565b9250508190555082600a6000828254610ff19190614718565b9250508190555083600f600082825461100a9190614718565b925050819055506000670de0b6b3a76400006110286008600a61330c565b8661103391906146be565b61103d919061468d565b90506000670de0b6b3a76400006110566001600a61330c565b8761106191906146be565b61106b919061468d565b90506000670de0b6b3a76400006110846001600a61330c565b8861108f91906146be565b611099919061468d565b905082601060008282546110ad9190614637565b92505081905550611123600560009054906101000a900473ffffffffffffffffffffffffffffffffffffffff1682600460009054906101000a900473ffffffffffffffffffffffffffffffffffffffff1673ffffffffffffffffffffffffffffffffffffffff166133209092919063ffffffff16565b611192600760009054906101000a900473ffffffffffffffffffffffffffffffffffffffff1683600460009054906101000a900473ffffffffffffffffffffffffffffffffffffffff1673ffffffffffffffffffffffffffffffffffffffff166133209092919063ffffffff16565b6000600760009054906101000a900473ffffffffffffffffffffffffffffffffffffffff1673ffffffffffffffffffffffffffffffffffffffff166380a061606040518163ffffffff1660e01b8152600401602060405180830381600087803b1580156111fe57600080fd5b505af1158015611212573d6000803e3d6000fd5b505050506040513d601f19601f820116820180604052508101906112369190613ffa565b9050600760009054906101000a900473ffffffffffffffffffffffffffffffffffffffff1673ffffffffffffffffffffffffffffffffffffffff1663471aeab482856040518363ffffffff1660e01b8152600401611295929190614591565b600060405180830381600087803b1580156112af57600080fd5b505af11580156112c3573d6000803e3d6000fd5b505050506112cf6133a6565b61131c8688600460009054906101000a900473ffffffffffffffffffffffffffffffffffffffff1673ffffffffffffffffffffffffffffffffffffffff166133209092919063ffffffff16565b5050505050505050565b60095481565b60008054906101000a900473ffffffffffffffffffffffffffffffffffffffff1673ffffffffffffffffffffffffffffffffffffffff163373ffffffffffffffffffffffffffffffffffffffff16146113ba576040517f08c379a00000000000000000000000000000000000000000000000000000000081526004016113b1906144f6565b60405180910390fd5b80600160006101000a81548173ffffffffffffffffffffffffffffffffffffffff021916908373ffffffffffffffffffffffffffffffffffffffff1602179055507fdf2f84a6be1c55031de30c910064a4d8ce6cf64f767b55c3e9647175a7885bb98160405161142a91906142ee565b60405180910390a150565b600c5481565b6000601460030154905090565b600b5481565b6011816003811061145e57600080fd5b016000915090505481565b60008054906101000a900473ffffffffffffffffffffffffffffffffffffffff1673ffffffffffffffffffffffffffffffffffffffff163373ffffffffffffffffffffffffffffffffffffffff16146114f7576040517f08c379a00000000000000000000000000000000000000000000000000000000081526004016114ee906144f6565b60405180910390fd5b80600073ffffffffffffffffffffffffffffffffffffffff168173ffffffffffffffffffffffffffffffffffffffff161415611568576040517f08c379a000000000000000000000000000000000000000000000000000000000815260040161155f90614496565b60405180910390fd5b7fb532073b38c83145e3e5135377a08bf9aab55bc0fd7c1179cd4fb995d2a5159c60008054906101000a900473ffffffffffffffffffffffffffffffffffffffff16836040516115b9929190614309565b60405180910390a1816000806101000a81548173ffffffffffffffffffffffffffffffffffffffff021916908373ffffffffffffffffffffffffffffffffffffffff1602179055505050565b600660009054906101000a900473ffffffffffffffffffffffffffffffffffffffff1681565b60008054906101000a900473ffffffffffffffffffffffffffffffffffffffff1681565b611657612ef8565b81600f60008282546116699190614718565b9250508190555080600b60008282546116829190614718565b9250508190555080600e600082825461169b9190614637565b925050819055506000670de0b6b3a76400006116ce60116000600381106116c5576116c46149e3565b5b0154606461330c565b846116d991906146be565b6116e3919061468d565b90506000670de0b6b3a76400006117116011600160038110611708576117076149e3565b5b0154606461330c565b8561171c91906146be565b611726919061468d565b90506000670de0b6b3a7640000611754601160026003811061174b5761174a6149e3565b5b0154606461330c565b8661175f91906146be565b611769919061468d565b9050826010600082825461177d9190614637565b925050819055506117f3600560009054906101000a900473ffffffffffffffffffffffffffffffffffffffff1682600460009054906101000a900473ffffffffffffffffffffffffffffffffffffffff1673ffffffffffffffffffffffffffffffffffffffff166133209092919063ffffffff16565b611862600760009054906101000a900473ffffffffffffffffffffffffffffffffffffffff1683600460009054906101000a900473ffffffffffffffffffffffffffffffffffffffff1673ffffffffffffffffffffffffffffffffffffffff166133209092919063ffffffff16565b6000849050600080601d805490501115611d7f5760006001601d8054905061188a9190614718565b90505b60008110611d7d5760008310611d64576000601d82815481106118b3576118b26149e3565b5b9060005260206000200160009054906101000a900473ffffffffffffffffffffffffffffffffffffffff16905060005b601c60008373ffffffffffffffffffffffffffffffffffffffff1673ffffffffffffffffffffffffffffffffffffffff16815260200190815260200160002080549050811015611d5d57601c60008373ffffffffffffffffffffffffffffffffffffffff1673ffffffffffffffffffffffffffffffffffffffff168152602001908152602001600020818154811061197e5761197d6149e3565b5b906000526020600020906003020160000154935083851115611c025783856119a69190614718565b945060005b6001601c60008573ffffffffffffffffffffffffffffffffffffffff1673ffffffffffffffffffffffffffffffffffffffff168152602001908152602001600020805490506119fa9190614718565b811015611b2357601c60008473ffffffffffffffffffffffffffffffffffffffff1673ffffffffffffffffffffffffffffffffffffffff168152602001908152602001600020600182611a4d9190614637565b81548110611a5e57611a5d6149e3565b5b9060005260206000209060030201601c60008573ffffffffffffffffffffffffffffffffffffffff1673ffffffffffffffffffffffffffffffffffffffff1681526020019081526020016000208281548110611abd57611abc6149e3565b5b906000526020600020906003020160008201548160000155600182015481600101556002820160009054906101000a900460ff168160020160006101000a81548160ff021916908315150217905550905050600181611b1c9190614637565b90506119ab565b50601c60008373ffffffffffffffffffffffffffffffffffffffff1673ffffffffffffffffffffffffffffffffffffffff168152602001908152602001600020805480611b7357611b726149b4565b5b600190038181906000526020600020906003020160008082016000905560018201600090556002820160006101000a81549060ff021916905550509055611bfd8285600460009054906101000a900473ffffffffffffffffffffffffffffffffffffffff1673ffffffffffffffffffffffffffffffffffffffff166133209092919063ffffffff16565b611d4a565b84601c60008473ffffffffffffffffffffffffffffffffffffffff1673ffffffffffffffffffffffffffffffffffffffff1681526020019081526020016000208281548110611c5457611c536149e3565b5b90600052602060002090600302016000016000828254611c749190614718565b9250508190555084601c60008473ffffffffffffffffffffffffffffffffffffffff1673ffffffffffffffffffffffffffffffffffffffff1681526020019081526020016000208281548110611ccd57611ccc6149e3565b5b90600052602060002090600302016001016000828254611ced9190614637565b92505081905550611d418286600460009054906101000a900473ffffffffffffffffffffffffffffffffffffffff1673ffffffffffffffffffffffffffffffffffffffff166133209092919063ffffffff16565b60009450611d5d565b8080611d55906148de565b9150506118e3565b5050611d69565b611d7d565b600181611d769190614718565b905061188d565b505b50505050505050565b600e5481565b600560009054906101000a900473ffffffffffffffffffffffffffffffffffffffff1681565b60008054906101000a900473ffffffffffffffffffffffffffffffffffffffff1673ffffffffffffffffffffffffffffffffffffffff163373ffffffffffffffffffffffffffffffffffffffff1614611e42576040517f08c379a0000000000000000000000000000000000000000000000000000000008152600401611e39906144f6565b60405180910390fd5b600081600260038110611e5857611e576149e3565b5b602002015182600160038110611e7157611e706149e3565b5b602002015183600060038110611e8a57611e896149e3565b5b6020020151611e999190614637565b611ea39190614637565b905060648114611ee8576040517f08c379a0000000000000000000000000000000000000000000000000000000008152600401611edf90614536565b60405180910390fd5b60005b6003811015611f3857828160038110611f0757611f066149e3565b5b602002015160118260038110611f2057611f1f6149e3565b5b01819055508080611f30906148de565b915050611eeb565b505050565b81600073ffffffffffffffffffffffffffffffffffffffff168173ffffffffffffffffffffffffffffffffffffffff161415611fae576040517f08c379a0000000000000000000000000000000000000000000000000000000008152600401611fa590614496565b60405180910390fd5b60008211611ff1576040517f08c379a0000000000000000000000000000000000000000000000000000000008152600401611fe890614476565b60405180910390fd5b6000600260008573ffffffffffffffffffffffffffffffffffffffff1673ffffffffffffffffffffffffffffffffffffffff168152602001908152602001600020905061203c612ef8565b600061204785610916565b905060008111156120955760008260000154670de0b6b3a76400006014600301548461207391906146be565b61207d919061468d565b6120879190614718565b9050612093868261307c565b505b61209f85856133c5565b6120a885610916565b9050670de0b6b3a7640000601460030154826120c491906146be565b6120ce919061468d565b8260000181905550670de0b6b3a7640000601460060154826120f091906146be565b6120fa919061468d565b82600101819055506010546014600701819055508473ffffffffffffffffffffffffffffffffffffffff167febedb8b3c678666e7f36970bc8f57abf6d8fa2e828c0da91ea5b75bf68ed101a856040516121549190614576565b60405180910390a25050505050565b60105481565b60008054906101000a900473ffffffffffffffffffffffffffffffffffffffff1673ffffffffffffffffffffffffffffffffffffffff163373ffffffffffffffffffffffffffffffffffffffff16146121f7576040517f08c379a00000000000000000000000000000000000000000000000000000000081526004016121ee906144f6565b60405180910390fd5b61220281606461330c565b600d8190555060008054906101000a900473ffffffffffffffffffffffffffffffffffffffff1673ffffffffffffffffffffffffffffffffffffffff167fbec5c0c9ba59b8a8e6027f690946fd83fc4f7586213749371d827d228f1df9668260405161226e9190614576565b60405180910390a250565b600082600b600082825461228d9190614637565b9250508190555083600f60008282546122a69190614637565b9250508190555082600e60008282546122bf9190614718565b925050819055506122d4600b5460095461330c565b600c81905550612329823086600460009054906101000a900473ffffffffffffffffffffffffffffffffffffffff1673ffffffffffffffffffffffffffffffffffffffff166135d8909392919063ffffffff16565b8173ffffffffffffffffffffffffffffffffffffffff167f48a70649351698478f15267ca75cb3da80814ac5087d87178c657801b662fa968585604051612371929190614591565b60405180910390a2600190509392505050565b600760009054906101000a900473ffffffffffffffffffffffffffffffffffffffff1681565b81600073ffffffffffffffffffffffffffffffffffffffff168173ffffffffffffffffffffffffffffffffffffffff16141561241b576040517f08c379a000000000000000000000000000000000000000000000000000000000815260040161241290614496565b60405180910390fd5b600061242684610916565b90508083111580156124385750600083115b612477576040517f08c379a000000000000000000000000000000000000000000000000000000000815260040161246e90614456565b60405180910390fd5b60006124816109e0565b905060008490508185111561261e576000828661249e9190614718565b9050601c60008873ffffffffffffffffffffffffffffffffffffffff1673ffffffffffffffffffffffffffffffffffffffff168152602001908152602001600020604051806060016040528083815260200160008152602001600015158152509080600181540180825580915050600190039060005260206000209060030201600090919091909150600082015181600001556020820151816001015560408201518160020160006101000a81548160ff0219169083151502179055505050601d879080600181540180825580915050600190039060005260206000200160009091909190916101000a81548173ffffffffffffffffffffffffffffffffffffffff021916908373ffffffffffffffffffffffffffffffffffffffff16021790555082915080600260008973ffffffffffffffffffffffffffffffffffffffff1673ffffffffffffffffffffffffffffffffffffffff16815260200190815260200160002060030160008282546126159190614637565b92505081905550505b612626612ef8565b6000600260008873ffffffffffffffffffffffffffffffffffffffff1673ffffffffffffffffffffffffffffffffffffffff1681526020019081526020016000209050600084111561273a5760008160000154670de0b6b3a76400006014600301548761269391906146be565b61269d919061468d565b6126a79190614718565b90506126b3888261307c565b60008260010154670de0b6b3a7640000601460060154886126d491906146be565b6126de919061468d565b6126e89190614718565b90506127378982600460009054906101000a900473ffffffffffffffffffffffffffffffffffffffff1673ffffffffffffffffffffffffffffffffffffffff166133209092919063ffffffff16565b50505b6127448783613661565b61274d87610916565b9350670de0b6b3a76400006014600301548561276991906146be565b612773919061468d565b8160000181905550670de0b6b3a76400006014600601548561279591906146be565b61279f919061468d565b816001018190555060105460146007018190555050505050505050565b60085481565b60606000601460000180546127d69061487b565b80601f01602080910402602001604051908101604052809291908181526020018280546128029061487b565b801561284f5780601f106128245761010080835404028352916020019161284f565b820191906000526020600020905b81548152906001019060200180831161283257829003601f168201915b505050505090508091505090565b600a5481565b600081600073ffffffffffffffffffffffffffffffffffffffff168173ffffffffffffffffffffffffffffffffffffffff1614156128d6576040517f08c379a00000000000000000000000000000000000000000000000000000000081526004016128cd90614496565b60405180910390fd5b6014600401544310156128ec57600091506129ef565b6000600260008573ffffffffffffffffffffffffffffffffffffffff1673ffffffffffffffffffffffffffffffffffffffff1681526020019081526020016000209050600061293a85610916565b90506000601460030154905060008211156129e7576000601460040154436129629190614718565b905060008160146005015461297791906146be565b9050600954670de0b6b3a76400008261299091906146be565b61299a919061468d565b836129a59190614637565b925060008560000154670de0b6b3a764000085876129c391906146be565b6129cd919061468d565b6129d79190614718565b90508097505050505050506129ef565b600094505050505b50919050565b600d5481565b80600073ffffffffffffffffffffffffffffffffffffffff168173ffffffffffffffffffffffffffffffffffffffff161415612a6c576040517f08c379a0000000000000000000000000000000000000000000000000000000008152600401612a6390614496565b60405180910390fd5b6000600260008473ffffffffffffffffffffffffffffffffffffffff1673ffffffffffffffffffffffffffffffffffffffff1681526020019081526020016000209050612ab7612ef8565b6000612ac284610916565b90506000811115612b535760008260010154670de0b6b3a764000060146006015484612aee91906146be565b612af8919061468d565b612b029190614718565b9050612b518582600460009054906101000a900473ffffffffffffffffffffffffffffffffffffffff1673ffffffffffffffffffffffffffffffffffffffff166133209092919063ffffffff16565b505b670de0b6b3a764000060146006015482612b6d91906146be565b612b77919061468d565b826001018190555060105460146007018190555050505050565b600f5481565b80600073ffffffffffffffffffffffffffffffffffffffff168173ffffffffffffffffffffffffffffffffffffffff161415612c08576040517f08c379a0000000000000000000000000000000000000000000000000000000008152600401612bff90614496565b60405180910390fd5b6000601c60008473ffffffffffffffffffffffffffffffffffffffff1673ffffffffffffffffffffffffffffffffffffffff16815260200190815260200160002090506000818054905011612c92576040517f08c379a0000000000000000000000000000000000000000000000000000000008152600401612c89906144d6565b60405180910390fd5b600060018280549050612ca59190614718565b90506000828281548110612cbc57612cbb6149e3565b5b906000526020600020906003020160010154838381548110612ce157612ce06149e3565b5b906000526020600020906003020160000154612cfd9190614718565b905080600a6000828254612d119190614637565b9250508190555080600260008773ffffffffffffffffffffffffffffffffffffffff1673ffffffffffffffffffffffffffffffffffffffff1681526020019081526020016000206003016000828254612d6a9190614718565b92505081905550612d7a85613872565b5050505050565b6000600b54905090565b600460009054906101000a900473ffffffffffffffffffffffffffffffffffffffff1681565b6000612dc683670de0b6b3a764000084612dce565b905092915050565b600080600080198587098587029250828110838203039150506000811415612e0a57838281612e0057612dff614956565b5b0492505050612edd565b838110612e505780846040517f773cc18c000000000000000000000000000000000000000000000000000000008152600401612e47929190614591565b60405180910390fd5b60008486880990508281118203915080830392506000600186190186169050808604955080840493506001818260000304019050808302841793506000600287600302189050808702600203810290508087026002038102905080870260020381029050808702600203810290508087026002038102905080870260020381029050808502955050505050505b9392505050565b6000612ef08383613a42565b905092915050565b601460040154431015612f0a5761307a565b60006009541415612f24574360146004018190555061307a565b600060146004015443612f379190614718565b9050600081601460050154612f4c91906146be565b9050600360009054906101000a900473ffffffffffffffffffffffffffffffffffffffff1673ffffffffffffffffffffffffffffffffffffffff166340c10f1930836040518363ffffffff1660e01b8152600401612fab929190614369565b600060405180830381600087803b158015612fc557600080fd5b505af1158015612fd9573d6000803e3d6000fd5b50505050600954670de0b6b3a764000082612ff491906146be565b612ffe919061468d565b601460030160008282546130129190614637565b92505081905550600060146007015460105461302e9190614718565b9050600954670de0b6b3a76400008261304791906146be565b613051919061468d565b601460060160008282546130659190614637565b92505081905550436014600401819055505050505b565b6000600360009054906101000a900473ffffffffffffffffffffffffffffffffffffffff1673ffffffffffffffffffffffffffffffffffffffff166370a08231306040518263ffffffff1660e01b81526004016130d991906142ee565b60206040518083038186803b1580156130f157600080fd5b505afa158015613105573d6000803e3d6000fd5b505050506040513d601f19601f820116820180604052508101906131299190613ffa565b9050808211156131e857600360009054906101000a900473ffffffffffffffffffffffffffffffffffffffff1673ffffffffffffffffffffffffffffffffffffffff1663a9059cbb84836040518363ffffffff1660e01b8152600401613190929190614369565b602060405180830381600087803b1580156131aa57600080fd5b505af11580156131be573d6000803e3d6000fd5b505050506040513d601f19601f820116820180604052508101906131e29190613fa0565b50613299565b600360009054906101000a900473ffffffffffffffffffffffffffffffffffffffff1673ffffffffffffffffffffffffffffffffffffffff1663a9059cbb84846040518363ffffffff1660e01b8152600401613245929190614369565b602060405180830381600087803b15801561325f57600080fd5b505af1158015613273573d6000803e3d6000fd5b505050506040513d601f19601f820116820180604052508101906132979190613fa0565b505b505050565b60005b601c60008373ffffffffffffffffffffffffffffffffffffffff1673ffffffffffffffffffffffffffffffffffffffff16815260200190815260200160002080549050811015613308576132f482613872565b6001816133019190614637565b90506132a1565b5050565b60006133188383612db1565b905092915050565b6133a18363a9059cbb60e01b848460405160240161333f929190614369565b604051602081830303815290604052907bffffffffffffffffffffffffffffffffffffffffffffffffffffffff19166020820180517bffffffffffffffffffffffffffffffffffffffffffffffffffffffff8381831617835250505050613a56565b505050565b600060146002015490506133bc6009548261330c565b60088190555050565b80600960008282546133d79190614637565b9250508190555080600a60008282546133f09190614637565b9250508190555080600e60008282546134099190614637565b9250508190555061341e600b5460095461330c565b600c81905550613473823083600460009054906101000a900473ffffffffffffffffffffffffffffffffffffffff1673ffffffffffffffffffffffffffffffffffffffff166135d8909392919063ffffffff16565b60006134818260085461330c565b9050600660009054906101000a900473ffffffffffffffffffffffffffffffffffffffff1673ffffffffffffffffffffffffffffffffffffffff166340c10f1984836040518363ffffffff1660e01b81526004016134e0929190614369565b600060405180830381600087803b1580156134fa57600080fd5b505af115801561350e573d6000803e3d6000fd5b5050505080601460020160008282546135279190614637565b925050819055506135366133a6565b61353f83610916565b600260008573ffffffffffffffffffffffffffffffffffffffff1673ffffffffffffffffffffffffffffffffffffffff168152602001908152602001600020600201819055508273ffffffffffffffffffffffffffffffffffffffff167febedb8b3c678666e7f36970bc8f57abf6d8fa2e828c0da91ea5b75bf68ed101a836040516135cb9190614576565b60405180910390a2505050565b61365b846323b872dd60e01b8585856040516024016135f993929190614332565b604051602081830303815290604052907bffffffffffffffffffffffffffffffffffffffffffffffffffffffff19166020820180517bffffffffffffffffffffffffffffffffffffffffffffffffffffffff8381831617835250505050613a56565b50505050565b80600960008282546136739190614718565b9250508190555080600a600082825461368c9190614718565b9250508190555080600e60008282546136a59190614718565b925050819055506136ba600b5460095461330c565b600c8190555061370d8282600460009054906101000a900473ffffffffffffffffffffffffffffffffffffffff1673ffffffffffffffffffffffffffffffffffffffff166133209092919063ffffffff16565b600061371b8260085461330c565b9050600660009054906101000a900473ffffffffffffffffffffffffffffffffffffffff1673ffffffffffffffffffffffffffffffffffffffff16639dc29fac84836040518363ffffffff1660e01b815260040161377a929190614369565b600060405180830381600087803b15801561379457600080fd5b505af11580156137a8573d6000803e3d6000fd5b5050505080601460020160008282546137c19190614718565b925050819055506137d06133a6565b6137d983610916565b600260008573ffffffffffffffffffffffffffffffffffffffff1673ffffffffffffffffffffffffffffffffffffffff168152602001908152602001600020600201819055508273ffffffffffffffffffffffffffffffffffffffff167f85082129d87b2fe11527cb1b3b7a520aeb5aa6913f88a3d8757fe40d1db02fdd836040516138659190614576565b60405180910390a2505050565b60006001601d805490506138869190614718565b90505b6000811061391c578173ffffffffffffffffffffffffffffffffffffffff16601d82815481106138bc576138bb6149e3565b5b9060005260206000200160009054906101000a900473ffffffffffffffffffffffffffffffffffffffff1673ffffffffffffffffffffffffffffffffffffffff1614156139085761391c565b6001816139159190614718565b9050613889565b60008190505b6001601d805490506139349190614718565b8110156139f657601d60018261394a9190614637565b8154811061395b5761395a6149e3565b5b9060005260206000200160009054906101000a900473ffffffffffffffffffffffffffffffffffffffff16601d828154811061399a576139996149e3565b5b9060005260206000200160006101000a81548173ffffffffffffffffffffffffffffffffffffffff021916908373ffffffffffffffffffffffffffffffffffffffff1602179055506001816139ef9190614637565b9050613922565b50601d805480613a0957613a086149b4565b5b6001900381819060005260206000200160006101000a81549073ffffffffffffffffffffffffffffffffffffffff021916905590555050565b6000613a4e8383613b1d565b905092915050565b6000613ab8826040518060400160405280602081526020017f5361666545524332303a206c6f772d6c6576656c2063616c6c206661696c65648152508573ffffffffffffffffffffffffffffffffffffffff16613c1b9092919063ffffffff16565b9050600081511115613b185780806020019051810190613ad89190613fa0565b613b17576040517f08c379a0000000000000000000000000000000000000000000000000000000008152600401613b0e90614556565b60405180910390fd5b5b505050565b60008060008019848609848602925082811083820303915050670de0b6b3a76400008110613b8257806040517fd31b3402000000000000000000000000000000000000000000000000000000008152600401613b799190614576565b60405180910390fd5b600080670de0b6b3a764000086880991506706f05b59d3b1ffff821190506000831415613bcf5780670de0b6b3a76400008581613bc257613bc1614956565b5b0401945050505050613c15565b807faccb18165bd6fe31ae1cf318dc5b51eee0e1ba569b88cd74c1773b91fac1066960016204000080600003040186851186030262040000858803041702019450505050505b92915050565b6060613c2a8484600085613c33565b90509392505050565b606082471015613c78576040517f08c379a0000000000000000000000000000000000000000000000000000000008152600401613c6f906144b6565b60405180910390fd5b613c8185613d47565b613cc0576040517f08c379a0000000000000000000000000000000000000000000000000000000008152600401613cb790614516565b60405180910390fd5b6000808673ffffffffffffffffffffffffffffffffffffffff168587604051613ce991906142d7565b60006040518083038185875af1925050503d8060008114613d26576040519150601f19603f3d011682016040523d82523d6000602084013e613d2b565b606091505b5091509150613d3b828286613d5a565b92505050949350505050565b600080823b905060008111915050919050565b60608315613d6a57829050613dba565b600083511115613d7d5782518084602001fd5b816040517f08c379a0000000000000000000000000000000000000000000000000000000008152600401613db19190614434565b60405180910390fd5b9392505050565b5080546000825560030290600052602060002090810190613de29190613de5565b50565b5b80821115613e1c5760008082016000905560018201600090556002820160006101000a81549060ff021916905550600301613de6565b5090565b6000613e33613e2e846145df565b6145ba565b90508082856020860282011115613e4d57613e4c614a46565b5b60005b85811015613e7d5781613e638882613edc565b845260208401935060208301925050600181019050613e50565b5050509392505050565b600081359050613e9681614cdc565b92915050565b600082601f830112613eb157613eb0614a41565b5b6003613ebe848285613e20565b91505092915050565b600081519050613ed681614cf3565b92915050565b600081359050613eeb81614d0a565b92915050565b600081519050613f0081614d0a565b92915050565b600060208284031215613f1c57613f1b614a4b565b5b6000613f2a84828501613e87565b91505092915050565b60008060408385031215613f4a57613f49614a4b565b5b6000613f5885828601613e87565b9250506020613f6985828601613edc565b9150509250929050565b600060608284031215613f8957613f88614a4b565b5b6000613f9784828501613e9c565b91505092915050565b600060208284031215613fb657613fb5614a4b565b5b6000613fc484828501613ec7565b91505092915050565b600060208284031215613fe357613fe2614a4b565b5b6000613ff184828501613edc565b91505092915050565b6000602082840312156140105761400f614a4b565b5b600061401e84828501613ef1565b91505092915050565b6000806040838503121561403e5761403d614a4b565b5b600061404c85828601613edc565b925050602061405d85828601613edc565b9150509250929050565b6000806000606084860312156140805761407f614a4b565b5b600061408e86828701613edc565b935050602061409f86828701613edc565b92505060406140b086828701613e87565b9150509250925092565b6140c38161474c565b82525050565b6140d28161475e565b82525050565b60006140e382614605565b6140ed818561461b565b93506140fd818560208601614848565b80840191505092915050565b61411281614794565b82525050565b614121816147b8565b82525050565b614130816147dc565b82525050565b61413f81614800565b82525050565b61414e81614824565b82525050565b600061415f82614610565b6141698185614626565b9350614179818560208601614848565b61418281614a50565b840191505092915050565b600061419a603e83614626565b91506141a582614a61565b604082019050919050565b60006141bd601183614626565b91506141c882614ab0565b602082019050919050565b60006141e0602383614626565b91506141eb82614ad9565b604082019050919050565b6000614203602683614626565b915061420e82614b28565b604082019050919050565b6000614226602883614626565b915061423182614b77565b604082019050919050565b6000614249602583614626565b915061425482614bc6565b604082019050919050565b600061426c601d83614626565b915061427782614c15565b602082019050919050565b600061428f602383614626565b915061429a82614c3e565b604082019050919050565b60006142b2602a83614626565b91506142bd82614c8d565b604082019050919050565b6142d18161478a565b82525050565b60006142e382846140d8565b915081905092915050565b600060208201905061430360008301846140ba565b92915050565b600060408201905061431e60008301856140ba565b61432b60208301846140ba565b9392505050565b600060608201905061434760008301866140ba565b61435460208301856140ba565b61436160408301846142c8565b949350505050565b600060408201905061437e60008301856140ba565b61438b60208301846142c8565b9392505050565b60006020820190506143a760008301846140c9565b92915050565b60006020820190506143c26000830184614109565b92915050565b60006020820190506143dd6000830184614118565b92915050565b60006020820190506143f86000830184614127565b92915050565b60006020820190506144136000830184614136565b92915050565b600060208201905061442e6000830184614145565b92915050565b6000602082019050818103600083015261444e8184614154565b905092915050565b6000602082019050818103600083015261446f8161418d565b9050919050565b6000602082019050818103600083015261448f816141b0565b9050919050565b600060208201905081810360008301526144af816141d3565b9050919050565b600060208201905081810360008301526144cf816141f6565b9050919050565b600060208201905081810360008301526144ef81614219565b9050919050565b6000602082019050818103600083015261450f8161423c565b9050919050565b6000602082019050818103600083015261452f8161425f565b9050919050565b6000602082019050818103600083015261454f81614282565b9050919050565b6000602082019050818103600083015261456f816142a5565b9050919050565b600060208201905061458b60008301846142c8565b92915050565b60006040820190506145a660008301856142c8565b6145b360208301846142c8565b9392505050565b60006145c46145d5565b90506145d082826148ad565b919050565b6000604051905090565b600067ffffffffffffffff8211156145fa576145f9614a12565b5b602082029050919050565b600081519050919050565b600081519050919050565b600081905092915050565b600082825260208201905092915050565b60006146428261478a565b915061464d8361478a565b9250827fffffffffffffffffffffffffffffffffffffffffffffffffffffffffffffffff0382111561468257614681614927565b5b828201905092915050565b60006146988261478a565b91506146a38361478a565b9250826146b3576146b2614956565b5b828204905092915050565b60006146c98261478a565b91506146d48361478a565b9250817fffffffffffffffffffffffffffffffffffffffffffffffffffffffffffffffff048311821515161561470d5761470c614927565b5b828202905092915050565b60006147238261478a565b915061472e8361478a565b92508282101561474157614740614927565b5b828203905092915050565b60006147578261476a565b9050919050565b60008115159050919050565b600073ffffffffffffffffffffffffffffffffffffffff82169050919050565b6000819050919050565b600061479f826147a6565b9050919050565b60006147b18261476a565b9050919050565b60006147c3826147ca565b9050919050565b60006147d58261476a565b9050919050565b60006147e7826147ee565b9050919050565b60006147f98261476a565b9050919050565b600061480b82614812565b9050919050565b600061481d8261476a565b9050919050565b600061482f82614836565b9050919050565b60006148418261476a565b9050919050565b60005b8381101561486657808201518184015260208101905061484b565b83811115614875576000848401525b50505050565b6000600282049050600182168061489357607f821691505b602082108114156148a7576148a6614985565b5b50919050565b6148b682614a50565b810181811067ffffffffffffffff821117156148d5576148d4614a12565b5b80604052505050565b60006148e98261478a565b91507fffffffffffffffffffffffffffffffffffffffffffffffffffffffffffffffff82141561491c5761491b614927565b5b600182019050919050565b7f4e487b7100000000000000000000000000000000000000000000000000000000600052601160045260246000fd5b7f4e487b7100000000000000000000000000000000000000000000000000000000600052601260045260246000fd5b7f4e487b7100000000000000000000000000000000000000000000000000000000600052602260045260246000fd5b7f4e487b7100000000000000000000000000000000000000000000000000000000600052603160045260246000fd5b7f4e487b7100000000000000000000000000000000000000000000000000000000600052603260045260246000fd5b7f4e487b7100000000000000000000000000000000000000000000000000000000600052604160045260246000fd5b600080fd5b600080fd5b600080fd5b6000601f19601f8301169050919050565b7f6e6f7420656e6f7567682062616c616e636520746f20626520756e6c6f636b6560008201527f64206f7220796f757220776974686472617720616d6f756e7420697320300000602082015250565b7f63616e206e6f74206465706f7369742030000000000000000000000000000000600082015250565b7f74686520616464726573732063616e206e6f74206265207a65726f206164647260008201527f6573730000000000000000000000000000000000000000000000000000000000602082015250565b7f416464726573733a20696e73756666696369656e742062616c616e636520666f60008201527f722063616c6c0000000000000000000000000000000000000000000000000000602082015250565b7f74686973207573657220686173206e6f2070656e64696e6720756e7374616b6560008201527f2072657175657374000000000000000000000000000000000000000000000000602082015250565b7f6f6e6c7920746865206f776e65722063616e2063616c6c20746869732066756e60008201527f6374696f6e000000000000000000000000000000000000000000000000000000602082015250565b7f416464726573733a2063616c6c20746f206e6f6e2d636f6e7472616374000000600082015250565b7f72657761726420646973747269627574696f6e206d7573742073756d20746f2060008201527f3130300000000000000000000000000000000000000000000000000000000000602082015250565b7f5361666545524332303a204552433230206f7065726174696f6e20646964206e60008201527f6f74207375636365656400000000000000000000000000000000000000000000602082015250565b614ce58161474c565b8114614cf057600080fd5b50565b614cfc8161475e565b8114614d0757600080fd5b50565b614d138161478a565b8114614d1e57600080fd5b5056fea2646970667358221220c96693358f28f476083d26a00b8b3b2e9fc94330c4c9329e5baf6ca7fd858c2b64736f6c63430008050033",
  "immutableReferences": {},
  "source": "// SPDX-License-Identifier: MIT\r\npragma solidity ^0.8.0;\r\n\r\nimport \"./interfaces/IDegisToken.sol\";\r\nimport \"./interfaces/ILPToken.sol\";\r\nimport \"@openzeppelin/contracts/token/ERC20/IERC20.sol\";\r\nimport \"@openzeppelin/contracts/token/ERC20/utils/SafeERC20.sol\";\r\nimport \"prb-math/contracts/PRBMathUD60x18.sol\";\r\nimport \"./interfaces/IEmergencyPool.sol\";\r\nimport \"./interfaces/IDegisLottery.sol\";\r\n\r\ncontract InsurancePool {\r\n    using PRBMathUD60x18 for uint256;\r\n    using SafeERC20 for IERC20;\r\n\r\n    // the onwer address of this contract\r\n    address public owner;\r\n\r\n    // the policyflow address, used for access control\r\n    address public policyFlow;\r\n\r\n    // *********************************************************************//\r\n    // ****************** Information about each user ****************** //\r\n    struct UserInfo {\r\n        uint256 rewardDebt; // degis reward debt\r\n        uint256 premiumDebt; // premium reward debt\r\n        uint256 assetBalance; // the amount of a user's staking in the pool\r\n        uint256 pendingBalance; // the amount in the unstake queue\r\n    }\r\n    mapping(address => UserInfo) userInfo;\r\n\r\n    // ****************** Other contracts that need to interact with ****************** //\r\n\r\n    // Contract instances of Degis, USDC, emergencyPool, LPToken\r\n    IDegisToken public DEGIS;\r\n    IERC20 public USDC_TOKEN;\r\n    IEmergencyPool public emergencyPool;\r\n    ILPToken public DLPToken;\r\n    IDegisLottery public degisLottery;\r\n\r\n    // ****************** State variables ****************** //\r\n\r\n    // 1 lp = LPValue * usd\r\n    uint256 public LPValue;\r\n\r\n    // current total staking balance of the pool\r\n    uint256 public currentStakingBalance;\r\n\r\n    // real staking balance = current staking balance - sum(unstake request in the queue)\r\n    uint256 public realStakingBalance;\r\n\r\n    // locked balance is for potiential payoff\r\n    uint256 public lockedBalance;\r\n\r\n    // locked relation = locked balance / currentStakingBalance\r\n    uint256 public PRB_lockedRatio; //  1e18 = 1  1e17 = 0.1  1e19 = 10\r\n    uint256 public collateralFactor; //  1e18 = 1  1e17 = 0.1  1e19 = 10\r\n\r\n    // Available capacity for taking new\r\n    uint256 public availableCapacity;\r\n\r\n    // Premiums have been paid but the policies haven't expired\r\n    uint256 public activePremiums;\r\n\r\n    // Total income from premium\r\n    uint256 public rewardCollected;\r\n\r\n    // [0]: LP, [1]: Lottery, [2]: Emergency\r\n    uint256[3] public rewardDistribution;\r\n\r\n    // Basic information about the pool\r\n    struct PoolInfo {\r\n        string poolName; // insurance pool\r\n        uint256 poolId; // 0\r\n        uint256 totalLP; // total lp amount\r\n        uint256 accDegisPerShare;\r\n        uint256 lastRewardBlock;\r\n        uint256 degisPerBlock;\r\n        uint256 accPremiumPerShare;\r\n        uint256 lastRewardCollected;\r\n    }\r\n    PoolInfo poolInfo;\r\n\r\n    //  of every unstake request in the queue\r\n    struct UnstakeRequest {\r\n        uint256 pendingAmount;\r\n        uint256 fulfilledAmount;\r\n        bool isPaidOut; // if this request has been fully paid out // maybe redundant\r\n    }\r\n\r\n    // a user's unstake requests\r\n    mapping(address => UnstakeRequest[]) private unstakeRequests;\r\n\r\n    // list of all unstake users\r\n    address[] private unstakeQueue;\r\n\r\n    // current pointer of the unstake request queue\r\n    // uint256 private unstakePointer;  // currently not used\r\n\r\n    event Stake(address indexed userAddress, uint256 amount);\r\n    event Unstake(address indexed userAddress, uint256 amount);\r\n    event ChangeCollateralFactor(address indexed onwerAddress, uint256 factor);\r\n    event SetPolicyFlow(address _policyFlowAddress);\r\n    event BuyNewPolicy(\r\n        address indexed userAddress,\r\n        uint256 premium,\r\n        uint256 payout\r\n    );\r\n    event OwnerChanged(address oldOwner, address newOwner);\r\n\r\n    /**\r\n     * @notice constructor function\r\n     * @param _factor: initial collateral factor\r\n     * @param _degis: address of the degis token\r\n     * @param _emergencyPool: address of the emergency pool\r\n     * @param _lptoken: address of LP token\r\n     * @param _usdcAddress: address of USDC\r\n     * @param _degisPerBlock: degis reward per block\r\n     */\r\n    constructor(\r\n        uint256 _factor,\r\n        IDegisToken _degis,\r\n        IEmergencyPool _emergencyPool,\r\n        ILPToken _lptoken,\r\n        IDegisLottery _degisLottery,\r\n        address _usdcAddress,\r\n        uint256 _degisPerBlock\r\n    ) {\r\n        owner = msg.sender;\r\n\r\n        collateralFactor = doDiv(_factor, 100);\r\n\r\n        PRB_lockedRatio = 1e18; // 1e18 = 1\r\n        DEGIS = _degis;\r\n        USDC_TOKEN = IERC20(_usdcAddress);\r\n        poolInfo = PoolInfo(\r\n            \"insurancepool\", // pool name\r\n            0, // pool id\r\n            0, // TOTAL LP\r\n            0, // accDegisPerShare\r\n            block.number, // lastRewardBlock\r\n            _degisPerBlock,\r\n            0, // accPremiumPerShare\r\n            0 // lastRewardCollected\r\n        );\r\n\r\n        DLPToken = _lptoken;\r\n        LPValue = 1e18;\r\n        emergencyPool = _emergencyPool;\r\n        degisLottery = _degisLottery;\r\n\r\n        // initial distribution\r\n        rewardDistribution[0] = 80;\r\n        rewardDistribution[1] = 10;\r\n        rewardDistribution[2] = 10;\r\n    }\r\n\r\n    // ************************************ Modifiers ************************************ //\r\n\r\n    /**\r\n     * @notice only the owner can call some functions\r\n     */\r\n    modifier onlyOwner() {\r\n        require(msg.sender == owner, \"only the owner can call this function\");\r\n        _;\r\n    }\r\n\r\n    /**\r\n     * @notice only the policyFlow contract can call some functions\r\n     */\r\n    modifier onlyPolicyFlow() {\r\n        require(\r\n            msg.sender == policyFlow,\r\n            \"only called by the policy flow contract\"\r\n        );\r\n        _;\r\n    }\r\n\r\n    /**\r\n     * @notice the address can not be zero\r\n     */\r\n    modifier onlyValidAddress(address _address) {\r\n        require(_address != address(0), \"the address can not be zero address\");\r\n        _;\r\n    }\r\n\r\n    // ************************************ View Functions ************************************ //\r\n\r\n    /**\r\n     * @notice get PRB_lockedRatio of the pool\r\n     */\r\n    function getLockedRatio() public view returns (uint256) {\r\n        return PRB_lockedRatio;\r\n    }\r\n\r\n    /**\r\n     * @notice get accumulated degis per share\r\n     */\r\n    function getAccDegisPerShare() public view returns (uint256) {\r\n        return poolInfo.accDegisPerShare;\r\n    }\r\n\r\n    /**\r\n     * @notice get the premium reward collected now\r\n     */\r\n    function getRewardCollected() public view returns (uint256) {\r\n        return rewardCollected;\r\n    }\r\n\r\n    /**\r\n     * @notice view how many assets are locked in the pool currently\r\n     */\r\n    function getTotalLocked() public view returns (uint256) {\r\n        return lockedBalance;\r\n    }\r\n\r\n    /**\r\n     * @notice view the collateral factor\r\n     */\r\n    function getCollateralFactor() public view returns (uint256) {\r\n        return collateralFactor;\r\n    }\r\n\r\n    /**\r\n     * @notice view the pending degis amount in frontend\r\n     */\r\n    function pendingDegis(address _userAddress)\r\n        external\r\n        view\r\n        onlyValidAddress(_userAddress)\r\n        returns (uint256)\r\n    {\r\n        if (block.number < poolInfo.lastRewardBlock) return 0;\r\n\r\n        UserInfo storage user = userInfo[_userAddress];\r\n\r\n        uint256 real_balance = getRealBalance(_userAddress);\r\n\r\n        uint256 accDegisPerShare = poolInfo.accDegisPerShare;\r\n\r\n        if (real_balance > 0) {\r\n            uint256 blocks = block.number - poolInfo.lastRewardBlock;\r\n            uint256 degisReward = poolInfo.degisPerBlock * blocks;\r\n\r\n            accDegisPerShare += (degisReward * 1e18) / currentStakingBalance;\r\n            uint256 pending = ((real_balance * accDegisPerShare) / 1e18) -\r\n                user.rewardDebt;\r\n            return pending;\r\n        } else {\r\n            return 0;\r\n        }\r\n    }\r\n\r\n    /**\r\n     * @notice view the pending premium amount in frontend\r\n     */\r\n    function pendingPremium(address _userAddress)\r\n        external\r\n        view\r\n        returns (uint256)\r\n    {\r\n        UserInfo storage user = userInfo[_userAddress];\r\n\r\n        uint256 real_balance = getRealBalance(_userAddress);\r\n\r\n        uint256 accPremiumPerShare = poolInfo.accPremiumPerShare;\r\n\r\n        if (block.number > poolInfo.lastRewardBlock) {\r\n            uint256 premiumReward = rewardCollected -\r\n                poolInfo.lastRewardCollected;\r\n            accPremiumPerShare +=\r\n                (premiumReward * (1e18)) /\r\n                (currentStakingBalance);\r\n            return\r\n                ((real_balance * accPremiumPerShare) / (1e18)) -\r\n                (user.premiumDebt);\r\n        } else {\r\n            return 0;\r\n        }\r\n    }\r\n\r\n    /**\r\n     * @notice view the pool name (only for test, delete when mainnet)\r\n     */\r\n    function getPoolName() public view returns (string memory) {\r\n        string memory name = poolInfo.poolName;\r\n        return name;\r\n    }\r\n\r\n    /**\r\n     * @notice view the pool's total available capacity\r\n     */\r\n    function getAvailableCapacity() public view returns (uint256) {\r\n        return availableCapacity;\r\n    }\r\n\r\n    /**\r\n     * @notice view the pool's total available capacity\r\n     */\r\n    function getCurrentStakingBalance() public view returns (uint256) {\r\n        return currentStakingBalance;\r\n    }\r\n\r\n    function getRealBalance(address _userAddress)\r\n        public\r\n        view\r\n        returns (uint256)\r\n    {\r\n        uint256 lp_num = DLPToken.balanceOf(_userAddress);\r\n        uint256 real_balance = doMul(lp_num, LPValue);\r\n        return real_balance;\r\n    }\r\n\r\n    /**\r\n     * @notice get a user's stake amount in the pool\r\n     * @param _userAddress: the user's address\r\n     */\r\n    function getStakeAmount(address _userAddress)\r\n        public\r\n        view\r\n        returns (uint256)\r\n    {\r\n        return (userInfo[_userAddress].assetBalance);\r\n    }\r\n\r\n    /**\r\n     * @notice get the balance that the pool can unlock(maximum)\r\n     * @return the amount that the pool can unlock\r\n     */\r\n    function getPoolUnlocked() public view returns (uint256) {\r\n        return currentStakingBalance - lockedBalance;\r\n    }\r\n\r\n    /**\r\n     * @notice get the balance that one user(LP) can unlock(maximum)\r\n     * @param _userAddress: user's address\r\n     * @return the amount that the user can unlock\r\n     */\r\n    function getUnlockedfor(address _userAddress)\r\n        public\r\n        view\r\n        returns (uint256)\r\n    {\r\n        // uint256 user_balance = userInfo[_userAddress].assetBalance;\r\n        uint256 user_balance = getRealBalance(_userAddress);\r\n        if (availableCapacity >= user_balance) {\r\n            return user_balance;\r\n        } else {\r\n            return availableCapacity;\r\n        }\r\n    }\r\n\r\n    /**\r\n     * @notice get the user's locked balance\r\n     * @param _userAddress: user's address\r\n     * @return _amount: the user's locked amount\r\n     */\r\n    function getLockedfor(address _userAddress) public view returns (uint256) {\r\n        // uint256 user_balance = userInfo[_userAddress].assetBalance;\r\n        uint256 user_balance = getRealBalance(_userAddress);\r\n        uint256 locked = (PRB_lockedRatio * user_balance) / (1e18);\r\n        return locked;\r\n    }\r\n\r\n    // ************************************ Helper Functions ************************************ //\r\n\r\n    /**\r\n     * @notice set the address of policyFlow\r\n     */\r\n    function setPolicyFlow(address _policyFlowAddress) public onlyOwner {\r\n        policyFlow = _policyFlowAddress;\r\n        emit SetPolicyFlow(_policyFlowAddress);\r\n    }\r\n\r\n    function setRewardDistribution(uint256[3] memory _newDistribution)\r\n        public\r\n        onlyOwner\r\n    {\r\n        uint256 sum = _newDistribution[0] +\r\n            _newDistribution[1] +\r\n            _newDistribution[2];\r\n        require(sum == 100, \"reward distribution must sum to 100\");\r\n        for (uint256 i = 0; i < 3; i++) {\r\n            rewardDistribution[i] = _newDistribution[i];\r\n        }\r\n    }\r\n\r\n    /**\r\n     * @notice transfer the ownership to a new owner\r\n     */\r\n    function transferOwnerShip(address _newOwner)\r\n        public\r\n        onlyOwner\r\n        onlyValidAddress(_newOwner)\r\n    {\r\n        emit OwnerChanged(owner, _newOwner);\r\n        owner = _newOwner;\r\n    }\r\n\r\n    /**\r\n     * @notice do division via PRBMath\r\n     */\r\n    // 1e18 = 1, 1e17 = 0.1, 1e19 = 10\\\r\n    // E.g. doDiv(1, 1) = 1e18  doDiv(1, 10) = 1e17\r\n    function doDiv(uint256 x, uint256 y)\r\n        internal\r\n        pure\r\n        returns (uint256 result)\r\n    {\r\n        result = PRBMathUD60x18.div(x, y);\r\n    }\r\n\r\n    /**\r\n     * @notice do multiplication via PRBMath\r\n     */\r\n    // 1e18 = 1, 1e17 = 0.1, 1e19 = 10\r\n    // E.g. doMul(1, 1) = 1e18  doMul(2, 5) = 1e19\r\n    function doMul(uint256 x, uint256 y)\r\n        internal\r\n        pure\r\n        returns (uint256 result)\r\n    {\r\n        result = PRBMathUD60x18.mul(x, y);\r\n    }\r\n\r\n    /**\r\n     * @notice change the collateral factor(only by the owner)\r\n     * @param _factor: the new collateral factor\r\n     */\r\n    function setCollateralFactor(uint256 _factor) public onlyOwner {\r\n        collateralFactor = doDiv(_factor, 100);\r\n        emit ChangeCollateralFactor(owner, _factor);\r\n    }\r\n\r\n    // ************************************ Main Functions ************************************ //\r\n\r\n    /**\r\n     * @notice Update the pool's reward status for degis & premium\r\n     * Every time the asset changes with a call update it\r\n     */\r\n    function updatePoolReward() internal {\r\n        if (block.number < poolInfo.lastRewardBlock) {\r\n            return;\r\n        }\r\n        if (currentStakingBalance == 0) {\r\n            poolInfo.lastRewardBlock = block.number;\r\n            return;\r\n        }\r\n        uint256 blocks = block.number - poolInfo.lastRewardBlock;\r\n        uint256 degisReward = poolInfo.degisPerBlock * blocks;\r\n        DEGIS.mint(address(this), degisReward);\r\n\r\n        poolInfo.accDegisPerShare +=\r\n            (degisReward * (1e18)) /\r\n            (currentStakingBalance);\r\n\r\n        uint256 premiumReward = rewardCollected - poolInfo.lastRewardCollected;\r\n\r\n        poolInfo.accPremiumPerShare +=\r\n            (premiumReward * (1e18)) /\r\n            (currentStakingBalance);\r\n\r\n        poolInfo.lastRewardBlock = block.number;\r\n    }\r\n\r\n    /**\r\n     * @notice check the conditions when receive new buying request\r\n     * @param _payoff: the payoff of the policy to be bought\r\n     */\r\n    function checkCapacity(uint256 _payoff) public view returns (bool) {\r\n        if (availableCapacity >= _payoff) {\r\n            return true;\r\n        } else {\r\n            return false;\r\n        }\r\n    }\r\n\r\n    /**\r\n     * @notice update the pool variables when buying policies\r\n     * @param _premium: the premium of the policy just sold\r\n     * @param _payoff: the payoff of the policy just sold\r\n     * @param _userAddress: the address of the buyer\r\n     */\r\n    function updateWhenBuy(\r\n        uint256 _premium,\r\n        uint256 _payoff,\r\n        address _userAddress\r\n    ) external returns (bool) {\r\n        lockedBalance += _payoff;\r\n        activePremiums += _premium;\r\n        availableCapacity -= _payoff;\r\n\r\n        // 1e18 = 1\r\n        PRB_lockedRatio = doDiv(lockedBalance, currentStakingBalance);\r\n\r\n        // You need another transaction for approving this spending\r\n        // OR just approve for infinity at the first time\r\n        USDC_TOKEN.safeTransferFrom(_userAddress, address(this), _premium);\r\n\r\n        emit BuyNewPolicy(_userAddress, _premium, _payoff);\r\n        return true;\r\n    }\r\n\r\n    /**\r\n     * @notice stake: a user(LP) want to stake some amount of asset\r\n     * @param _userAddress: user's address\r\n     * @param _amount: the amount that the user want to stake\r\n     */\r\n    function stake(address _userAddress, uint256 _amount)\r\n        external\r\n        onlyValidAddress(_userAddress)\r\n    {\r\n        require(_amount > 0, \"can not deposit 0\");\r\n\r\n        UserInfo storage user = userInfo[_userAddress];\r\n        updatePoolReward();\r\n\r\n        uint256 real_balance = getRealBalance(_userAddress);\r\n\r\n        // If this is not the first deposit, give his reward\r\n        if (real_balance > 0) {\r\n            uint256 pending = ((real_balance * poolInfo.accDegisPerShare) /\r\n                (1e18)) - (user.rewardDebt);\r\n            safeDegisTransfer(_userAddress, pending);\r\n        }\r\n\r\n        _deposit(_userAddress, _amount);\r\n\r\n        real_balance = getRealBalance(_userAddress);\r\n        user.rewardDebt = (real_balance * (poolInfo.accDegisPerShare)) / (1e18);\r\n\r\n        user.premiumDebt =\r\n            (real_balance * (poolInfo.accPremiumPerShare)) /\r\n            (1e18);\r\n\r\n        poolInfo.lastRewardCollected = rewardCollected;\r\n\r\n        emit Stake(_userAddress, _amount);\r\n    }\r\n\r\n    /**\r\n     * @notice unstake: a user want to unstake some amount\r\n     * @param _userAddress: user's address\r\n     * @param _amount: the amount that the user want to unstake\r\n     */\r\n    function unstake(address _userAddress, uint256 _amount)\r\n        external\r\n        onlyValidAddress(_userAddress)\r\n    {\r\n        uint256 real_balance = getRealBalance(_userAddress);\r\n        require(\r\n            _amount <= real_balance && _amount > 0,\r\n            \"not enough balance to be unlocked or your withdraw amount is 0\"\r\n        );\r\n\r\n        uint256 unlocked = getPoolUnlocked();\r\n        uint256 unstakeAmount = _amount;\r\n\r\n        if (_amount > unlocked) {\r\n            uint256 remainingURequest = _amount - unlocked;\r\n            unstakeRequests[_userAddress].push(\r\n                UnstakeRequest(remainingURequest, 0, false)\r\n            );\r\n            unstakeQueue.push(_userAddress);\r\n            unstakeAmount = unlocked; // only withdraw the unlocked value\r\n            userInfo[_userAddress].pendingBalance += remainingURequest;\r\n        }\r\n\r\n        updatePoolReward();\r\n        UserInfo storage user = userInfo[_userAddress];\r\n\r\n        if (real_balance > 0) {\r\n            uint256 pending_degis = ((real_balance *\r\n                poolInfo.accDegisPerShare) / (1e18)) - (user.rewardDebt);\r\n            safeDegisTransfer(_userAddress, pending_degis);\r\n\r\n            uint256 pending_premium = ((real_balance *\r\n                poolInfo.accPremiumPerShare) / (1e18)) - (user.premiumDebt);\r\n            USDC_TOKEN.safeTransfer(_userAddress, pending_premium);\r\n        }\r\n\r\n        _withdraw(_userAddress, unstakeAmount);\r\n\r\n        real_balance = getRealBalance(_userAddress);\r\n\r\n        user.rewardDebt = (real_balance * (poolInfo.accDegisPerShare)) / (1e18);\r\n        user.premiumDebt =\r\n            (real_balance * (poolInfo.accPremiumPerShare)) /\r\n            (1e18);\r\n\r\n        poolInfo.lastRewardCollected = rewardCollected;\r\n    }\r\n\r\n    /**\r\n     * @notice finish the deposit process\r\n     * @param _userAddress: address of the user who deposits\r\n     * @param _amount: the amount he deposits\r\n     */\r\n    function _deposit(address _userAddress, uint256 _amount) internal {\r\n        // Update the pool's status\r\n        currentStakingBalance += _amount;\r\n        realStakingBalance += _amount;\r\n        availableCapacity += _amount;\r\n\r\n        //\r\n        PRB_lockedRatio = doDiv(lockedBalance, currentStakingBalance);\r\n\r\n        USDC_TOKEN.safeTransferFrom(_userAddress, address(this), _amount);\r\n\r\n        uint256 lp_num = doDiv(_amount, LPValue); // new LPToken number\r\n        DLPToken.mint(_userAddress, lp_num);\r\n        poolInfo.totalLP += lp_num;\r\n        updateLPValue();\r\n\r\n        userInfo[_userAddress].assetBalance = getRealBalance(_userAddress);\r\n\r\n        emit Stake(_userAddress, _amount);\r\n    }\r\n\r\n    /**\r\n     * @notice update the value of each lp token\r\n     */\r\n    function updateLPValue() internal {\r\n        uint256 totalLP = poolInfo.totalLP;\r\n        LPValue = doDiv(currentStakingBalance, totalLP);\r\n    }\r\n\r\n    /**\r\n     * @notice _withdraw: finish the withdraw action, only when meeting the conditions\r\n     * @param _userAddress: address of the user who withdraws\r\n     * @param _amount: the amount he withdraws\r\n     */\r\n    function _withdraw(address _userAddress, uint256 _amount) internal {\r\n        // Update the pool's status\r\n        currentStakingBalance -= _amount;\r\n        realStakingBalance -= _amount;\r\n        availableCapacity -= _amount;\r\n\r\n        PRB_lockedRatio = doDiv(lockedBalance, currentStakingBalance);\r\n        //\r\n        // ERC20  usdc/dai\r\n\r\n        USDC_TOKEN.safeTransfer(_userAddress, _amount);\r\n\r\n        uint256 lp_num = doDiv(_amount, LPValue);\r\n        DLPToken.burn(_userAddress, lp_num);\r\n        poolInfo.totalLP -= lp_num;\r\n        updateLPValue();\r\n\r\n        userInfo[_userAddress].assetBalance = getRealBalance(_userAddress);\r\n\r\n        emit Unstake(_userAddress, _amount);\r\n    }\r\n\r\n    /**\r\n     * @notice update the status when a policy expires\r\n     * @param _premium: the policy's premium\r\n     * @param _payoff: the policy's payoff\r\n     */\r\n    function updateWhenExpire(uint256 _premium, uint256 _payoff) public {\r\n        updatePoolReward();\r\n\r\n        activePremiums -= _premium;\r\n        lockedBalance -= _payoff;\r\n        availableCapacity += _payoff;\r\n\r\n        uint256 premiumToLP = (_premium * doDiv(rewardDistribution[0], 100)) /\r\n            1e18; // * 9e17\r\n        uint256 premiumToLottery = (_premium *\r\n            doDiv(rewardDistribution[1], 100)) / 1e18;\r\n        uint256 premiumToEmergency = (_premium *\r\n            doDiv(rewardDistribution[2], 100)) / 1e18;\r\n\r\n        rewardCollected += premiumToLP;\r\n\r\n        // transfer some reward to emergency pool and lottery pool\r\n        USDC_TOKEN.safeTransfer(address(emergencyPool), premiumToEmergency);\r\n        USDC_TOKEN.safeTransfer(address(degisLottery), premiumToLottery);\r\n\r\n        uint256 remainingPayoff = _payoff;\r\n        uint256 pendingAmount;\r\n        if (unstakeQueue.length > 0) {\r\n            for (uint256 i = unstakeQueue.length - 1; i >= 0; i -= 1) {\r\n                if (remainingPayoff >= 0) {\r\n                    address pendingUser = unstakeQueue[i];\r\n                    for (\r\n                        uint256 j = 0;\r\n                        j < unstakeRequests[pendingUser].length;\r\n                        j++\r\n                    ) {\r\n                        pendingAmount = unstakeRequests[pendingUser][j]\r\n                            .pendingAmount;\r\n                        if (remainingPayoff > pendingAmount) {\r\n                            remainingPayoff -= pendingAmount;\r\n\r\n                            for (\r\n                                uint256 k = 0;\r\n                                k < unstakeRequests[pendingUser].length - 1;\r\n                                k += 1\r\n                            ) {\r\n                                unstakeRequests[pendingUser][\r\n                                    k\r\n                                ] = unstakeRequests[pendingUser][k + 1];\r\n                            }\r\n                            unstakeRequests[pendingUser].pop();\r\n\r\n                            USDC_TOKEN.safeTransfer(pendingUser, pendingAmount);\r\n                        } else {\r\n                            unstakeRequests[pendingUser][j]\r\n                                .pendingAmount -= remainingPayoff;\r\n                            unstakeRequests[pendingUser][j]\r\n                                .fulfilledAmount += remainingPayoff;\r\n                            USDC_TOKEN.safeTransfer(\r\n                                pendingUser,\r\n                                remainingPayoff\r\n                            );\r\n\r\n                            remainingPayoff = 0;\r\n                            break;\r\n                        }\r\n                    }\r\n                } else break;\r\n            }\r\n        }\r\n    }\r\n\r\n    /**\r\n     * @notice pay a claim\r\n     * @param _premium: the policy's premium\r\n     * @param _payoff: the policy's payoff\r\n     * @param _userAddress: the address of the premium claimer\r\n     */\r\n    function payClaim(\r\n        uint256 _premium,\r\n        uint256 _payoff,\r\n        address _userAddress\r\n    ) public onlyValidAddress(_userAddress) {\r\n        updatePoolReward();\r\n\r\n        lockedBalance -= _payoff;\r\n        currentStakingBalance -= _payoff;\r\n        realStakingBalance -= _payoff;\r\n        activePremiums -= _premium;\r\n\r\n        uint256 premiumToLP = (_premium * doDiv(8, 10)) / 1e18; // * 9e17\r\n        uint256 premiumToLottery = (_premium * doDiv(1, 10)) / 1e18;\r\n        uint256 premiumToEmergency = (_premium * doDiv(1, 10)) / 1e18;\r\n        rewardCollected += premiumToLP;\r\n\r\n        // transfer some reward to emergency pool and lottery pool\r\n        USDC_TOKEN.safeTransfer(address(emergencyPool), premiumToEmergency);\r\n\r\n        USDC_TOKEN.safeTransfer(address(degisLottery), premiumToLottery);\r\n        uint256 currentLotteryId = degisLottery.viewCurrentLotteryId();\r\n        degisLottery.injectFunds(currentLotteryId, premiumToLottery);\r\n\r\n        updateLPValue();\r\n        USDC_TOKEN.safeTransfer(_userAddress, _payoff);\r\n    }\r\n\r\n    /**\r\n     * @notice harvest your degis reward\r\n     * @param _userAddress: the address of the degis claimer\r\n     */\r\n    function harvestDegisReward(address _userAddress)\r\n        public\r\n        onlyValidAddress(_userAddress)\r\n    {\r\n        UserInfo storage user = userInfo[_userAddress];\r\n        updatePoolReward();\r\n\r\n        uint256 real_balance = getRealBalance(_userAddress);\r\n\r\n        if (real_balance > 0) {\r\n            uint256 pending = ((real_balance * poolInfo.accDegisPerShare) /\r\n                (1e18)) - (user.rewardDebt);\r\n            safeDegisTransfer(_userAddress, pending);\r\n        }\r\n\r\n        user.rewardDebt = (real_balance * (poolInfo.accDegisPerShare)) / (1e18);\r\n    }\r\n\r\n    /**\r\n     * @notice harvest your premium reward\r\n     * @param _userAddress: the address of the premium claimer\r\n     */\r\n    function harvestPremium(address _userAddress)\r\n        public\r\n        onlyValidAddress(_userAddress)\r\n    {\r\n        UserInfo storage user = userInfo[_userAddress];\r\n        updatePoolReward();\r\n\r\n        uint256 real_balance = getRealBalance(_userAddress);\r\n\r\n        if (real_balance > 0) {\r\n            uint256 pending = ((real_balance * poolInfo.accPremiumPerShare) /\r\n                (1e18)) - (user.premiumDebt);\r\n            USDC_TOKEN.safeTransfer(_userAddress, pending);\r\n        }\r\n        user.premiumDebt =\r\n            (real_balance * (poolInfo.accPremiumPerShare)) /\r\n            (1e18);\r\n\r\n        poolInfo.lastRewardCollected = rewardCollected;\r\n    }\r\n\r\n    /**\r\n     * @notice revert the last unstake request for a user\r\n     * @param _userAddress: user's address\r\n     */\r\n    function revertUnstakeRequest(address _userAddress)\r\n        public\r\n        onlyValidAddress(_userAddress)\r\n    {\r\n        UnstakeRequest[] storage userRequests = unstakeRequests[_userAddress];\r\n        require(\r\n            userRequests.length > 0,\r\n            \"this user has no pending unstake request\"\r\n        );\r\n\r\n        uint256 index = userRequests.length - 1;\r\n        uint256 remainingRequest = userRequests[index].pendingAmount -\r\n            userRequests[index].fulfilledAmount;\r\n\r\n        realStakingBalance += remainingRequest;\r\n        userInfo[_userAddress].pendingBalance -= remainingRequest;\r\n\r\n        removeOneRequest(_userAddress);\r\n    }\r\n\r\n    /**\r\n     * @notice revert all unstake requests for a user\r\n     * @param _userAddress: user's address\r\n     */\r\n    function revertAllUnstakeRequest(address _userAddress)\r\n        public\r\n        onlyValidAddress(_userAddress)\r\n    {\r\n        UnstakeRequest[] storage userRequests = unstakeRequests[_userAddress];\r\n        require(\r\n            userRequests.length > 0,\r\n            \"this user has no pending unstake request\"\r\n        );\r\n        removeAllRequest(_userAddress);\r\n        delete unstakeRequests[_userAddress];\r\n\r\n        userInfo[_userAddress].assetBalance = getRealBalance(_userAddress);\r\n\r\n        uint256 remainingRequest = userInfo[_userAddress].pendingBalance;\r\n        realStakingBalance += remainingRequest;\r\n        userInfo[_userAddress].pendingBalance = 0;\r\n    }\r\n\r\n    /**\r\n     * @notice remove all unstake requests for a user\r\n     * @param _userAddress: user's address\r\n     */\r\n    function removeAllRequest(address _userAddress) internal {\r\n        for (uint256 i = 0; i < unstakeRequests[_userAddress].length; i += 1) {\r\n            removeOneRequest(_userAddress);\r\n        }\r\n    }\r\n\r\n    /**\r\n     * @notice remove one(the latest) unstake requests for a user\r\n     * @param _userAddress: user's address\r\n     */\r\n    function removeOneRequest(address _userAddress) internal {\r\n        uint256 index = unstakeQueue.length - 1;\r\n\r\n        while (index >= 0) {\r\n            if (unstakeQueue[index] == _userAddress) break;\r\n            index -= 1;\r\n        }\r\n\r\n        for (uint256 j = index; j < unstakeQueue.length - 1; j += 1) {\r\n            unstakeQueue[j] = unstakeQueue[j + 1];\r\n        }\r\n\r\n        unstakeQueue.pop();\r\n    }\r\n\r\n    /**\r\n     * @notice safe degis transfer (if the pool has enough DEGIS token)\r\n     * @param _to: user's address\r\n     * @param _amount: amount\r\n     */\r\n    function safeDegisTransfer(address _to, uint256 _amount) internal {\r\n        uint256 DegisBalance = DEGIS.balanceOf(address(this));\r\n        if (_amount > DegisBalance) {\r\n            DEGIS.transfer(_to, DegisBalance);\r\n        } else {\r\n            DEGIS.transfer(_to, _amount);\r\n        }\r\n    }\r\n}\r\n",
  "sourcePath": "D:\\src\\Degis-Contracts-1\\contracts\\InsurancePool.sol",
  "compiler": {
    "name": "solc",
    "version": "0.8.5+commit.a4f2e591.Emscripten.clang"
  },
  "schemaVersion": "3.4.3",
  "updatedAt": "2021-10-13T08:16:27.901Z",
  "networkType": "ethereum",
  "devdoc": {
    "kind": "dev",
    "methods": {
      "checkCapacity(uint256)": {
        "params": {
          "_payoff": ": the payoff of the policy to be bought"
        }
      },
      "constructor": {
        "params": {
          "_degis": ": address of the degis token",
          "_degisPerBlock": ": degis reward per block",
          "_emergencyPool": ": address of the emergency pool",
          "_factor": ": initial collateral factor",
          "_lptoken": ": address of LP token",
          "_usdcAddress": ": address of USDC"
        }
      },
      "getLockedfor(address)": {
        "params": {
          "_userAddress": ": user's address"
        },
        "returns": {
          "_0": "_amount: the user's locked amount"
        }
      },
      "getPoolUnlocked()": {
        "returns": {
          "_0": "the amount that the pool can unlock"
        }
      },
      "getStakeAmount(address)": {
        "params": {
          "_userAddress": ": the user's address"
        }
      },
      "getUnlockedfor(address)": {
        "params": {
          "_userAddress": ": user's address"
        },
        "returns": {
          "_0": "the amount that the user can unlock"
        }
      },
      "harvestDegisReward(address)": {
        "params": {
          "_userAddress": ": the address of the degis claimer"
        }
      },
      "harvestPremium(address)": {
        "params": {
          "_userAddress": ": the address of the premium claimer"
        }
      },
      "payClaim(uint256,uint256,address)": {
        "params": {
          "_payoff": ": the policy's payoff",
          "_premium": ": the policy's premium",
          "_userAddress": ": the address of the premium claimer"
        }
      },
      "revertAllUnstakeRequest(address)": {
        "params": {
          "_userAddress": ": user's address"
        }
      },
      "revertUnstakeRequest(address)": {
        "params": {
          "_userAddress": ": user's address"
        }
      },
      "setCollateralFactor(uint256)": {
        "params": {
          "_factor": ": the new collateral factor"
        }
      },
      "stake(address,uint256)": {
        "params": {
          "_amount": ": the amount that the user want to stake",
          "_userAddress": ": user's address"
        }
      },
      "unstake(address,uint256)": {
        "params": {
          "_amount": ": the amount that the user want to unstake",
          "_userAddress": ": user's address"
        }
      },
      "updateWhenBuy(uint256,uint256,address)": {
        "params": {
          "_payoff": ": the payoff of the policy just sold",
          "_premium": ": the premium of the policy just sold",
          "_userAddress": ": the address of the buyer"
        }
      },
      "updateWhenExpire(uint256,uint256)": {
        "params": {
          "_payoff": ": the policy's payoff",
          "_premium": ": the policy's premium"
        }
      }
    },
    "version": 1
  },
  "userdoc": {
    "errors": {
      "PRBMath__MulDivFixedPointOverflow(uint256)": [
        {
          "notice": "Emitted when the result overflows uint256."
        }
      ],
      "PRBMath__MulDivOverflow(uint256,uint256)": [
        {
          "notice": "Emitted when the result overflows uint256."
        }
      ]
    },
    "kind": "user",
    "methods": {
      "checkCapacity(uint256)": {
        "notice": "check the conditions when receive new buying request"
      },
      "constructor": {
        "notice": "constructor function"
      },
      "getAccDegisPerShare()": {
        "notice": "get accumulated degis per share"
      },
      "getAvailableCapacity()": {
        "notice": "view the pool's total available capacity"
      },
      "getCollateralFactor()": {
        "notice": "view the collateral factor"
      },
      "getCurrentStakingBalance()": {
        "notice": "view the pool's total available capacity"
      },
      "getLockedRatio()": {
        "notice": "get PRB_lockedRatio of the pool"
      },
      "getLockedfor(address)": {
        "notice": "get the user's locked balance"
      },
      "getPoolName()": {
        "notice": "view the pool name (only for test, delete when mainnet)"
      },
      "getPoolUnlocked()": {
        "notice": "get the balance that the pool can unlock(maximum)"
      },
      "getRewardCollected()": {
        "notice": "get the premium reward collected now"
      },
      "getStakeAmount(address)": {
        "notice": "get a user's stake amount in the pool"
      },
      "getTotalLocked()": {
        "notice": "view how many assets are locked in the pool currently"
      },
      "getUnlockedfor(address)": {
        "notice": "get the balance that one user(LP) can unlock(maximum)"
      },
      "harvestDegisReward(address)": {
        "notice": "harvest your degis reward"
      },
      "harvestPremium(address)": {
        "notice": "harvest your premium reward"
      },
      "payClaim(uint256,uint256,address)": {
        "notice": "pay a claim"
      },
      "pendingDegis(address)": {
        "notice": "view the pending degis amount in frontend"
      },
      "pendingPremium(address)": {
        "notice": "view the pending premium amount in frontend"
      },
      "revertAllUnstakeRequest(address)": {
        "notice": "revert all unstake requests for a user"
      },
      "revertUnstakeRequest(address)": {
        "notice": "revert the last unstake request for a user"
      },
      "setCollateralFactor(uint256)": {
        "notice": "change the collateral factor(only by the owner)"
      },
      "setPolicyFlow(address)": {
        "notice": "set the address of policyFlow"
      },
      "stake(address,uint256)": {
        "notice": "stake: a user(LP) want to stake some amount of asset"
      },
      "transferOwnerShip(address)": {
        "notice": "transfer the ownership to a new owner"
      },
      "unstake(address,uint256)": {
        "notice": "unstake: a user want to unstake some amount"
      },
      "updateWhenBuy(uint256,uint256,address)": {
        "notice": "update the pool variables when buying policies"
      },
      "updateWhenExpire(uint256,uint256)": {
        "notice": "update the status when a policy expires"
      }
    },
    "version": 1
  }
}