{
  "contractName": "LPToken",
  "abi": [
    {
      "inputs": [],
      "stateMutability": "nonpayable",
      "type": "constructor"
    },
    {
      "anonymous": false,
      "inputs": [
        {
          "indexed": true,
          "internalType": "address",
          "name": "owner",
          "type": "address"
        },
        {
          "indexed": true,
          "internalType": "address",
          "name": "spender",
          "type": "address"
        },
        {
          "indexed": false,
          "internalType": "uint256",
          "name": "value",
          "type": "uint256"
        }
      ],
      "name": "Approval",
      "type": "event"
    },
    {
      "anonymous": false,
      "inputs": [
        {
          "indexed": true,
          "internalType": "address",
          "name": "from",
          "type": "address"
        },
        {
          "indexed": false,
          "internalType": "address",
          "name": "to",
          "type": "address"
        }
      ],
      "name": "MinterChanged",
      "type": "event"
    },
    {
      "anonymous": false,
      "inputs": [
        {
          "indexed": true,
          "internalType": "address",
          "name": "from",
          "type": "address"
        },
        {
          "indexed": true,
          "internalType": "address",
          "name": "to",
          "type": "address"
        },
        {
          "indexed": false,
          "internalType": "uint256",
          "name": "value",
          "type": "uint256"
        }
      ],
      "name": "Transfer",
      "type": "event"
    },
    {
      "inputs": [
        {
          "internalType": "address",
          "name": "owner",
          "type": "address"
        },
        {
          "internalType": "address",
          "name": "spender",
          "type": "address"
        }
      ],
      "name": "allowance",
      "outputs": [
        {
          "internalType": "uint256",
          "name": "",
          "type": "uint256"
        }
      ],
      "stateMutability": "view",
      "type": "function",
      "constant": true
    },
    {
      "inputs": [
        {
          "internalType": "address",
          "name": "spender",
          "type": "address"
        },
        {
          "internalType": "uint256",
          "name": "amount",
          "type": "uint256"
        }
      ],
      "name": "approve",
      "outputs": [
        {
          "internalType": "bool",
          "name": "",
          "type": "bool"
        }
      ],
      "stateMutability": "nonpayable",
      "type": "function"
    },
    {
      "inputs": [
        {
          "internalType": "address",
          "name": "account",
          "type": "address"
        }
      ],
      "name": "balanceOf",
      "outputs": [
        {
          "internalType": "uint256",
          "name": "",
          "type": "uint256"
        }
      ],
      "stateMutability": "view",
      "type": "function",
      "constant": true
    },
    {
      "inputs": [],
      "name": "decimals",
      "outputs": [
        {
          "internalType": "uint8",
          "name": "",
          "type": "uint8"
        }
      ],
      "stateMutability": "view",
      "type": "function",
      "constant": true
    },
    {
      "inputs": [
        {
          "internalType": "address",
          "name": "spender",
          "type": "address"
        },
        {
          "internalType": "uint256",
          "name": "subtractedValue",
          "type": "uint256"
        }
      ],
      "name": "decreaseAllowance",
      "outputs": [
        {
          "internalType": "bool",
          "name": "",
          "type": "bool"
        }
      ],
      "stateMutability": "nonpayable",
      "type": "function"
    },
    {
      "inputs": [
        {
          "internalType": "address",
          "name": "spender",
          "type": "address"
        },
        {
          "internalType": "uint256",
          "name": "addedValue",
          "type": "uint256"
        }
      ],
      "name": "increaseAllowance",
      "outputs": [
        {
          "internalType": "bool",
          "name": "",
          "type": "bool"
        }
      ],
      "stateMutability": "nonpayable",
      "type": "function"
    },
    {
      "inputs": [],
      "name": "minter",
      "outputs": [
        {
          "internalType": "address",
          "name": "",
          "type": "address"
        }
      ],
      "stateMutability": "view",
      "type": "function",
      "constant": true
    },
    {
      "inputs": [],
      "name": "name",
      "outputs": [
        {
          "internalType": "string",
          "name": "",
          "type": "string"
        }
      ],
      "stateMutability": "view",
      "type": "function",
      "constant": true
    },
    {
      "inputs": [],
      "name": "owner",
      "outputs": [
        {
          "internalType": "address",
          "name": "",
          "type": "address"
        }
      ],
      "stateMutability": "view",
      "type": "function",
      "constant": true
    },
    {
      "inputs": [],
      "name": "symbol",
      "outputs": [
        {
          "internalType": "string",
          "name": "",
          "type": "string"
        }
      ],
      "stateMutability": "view",
      "type": "function",
      "constant": true
    },
    {
      "inputs": [],
      "name": "totalSupply",
      "outputs": [
        {
          "internalType": "uint256",
          "name": "",
          "type": "uint256"
        }
      ],
      "stateMutability": "view",
      "type": "function",
      "constant": true
    },
    {
      "inputs": [
        {
          "internalType": "address",
          "name": "recipient",
          "type": "address"
        },
        {
          "internalType": "uint256",
          "name": "amount",
          "type": "uint256"
        }
      ],
      "name": "transfer",
      "outputs": [
        {
          "internalType": "bool",
          "name": "",
          "type": "bool"
        }
      ],
      "stateMutability": "nonpayable",
      "type": "function"
    },
    {
      "inputs": [
        {
          "internalType": "address",
          "name": "sender",
          "type": "address"
        },
        {
          "internalType": "address",
          "name": "recipient",
          "type": "address"
        },
        {
          "internalType": "uint256",
          "name": "amount",
          "type": "uint256"
        }
      ],
      "name": "transferFrom",
      "outputs": [
        {
          "internalType": "bool",
          "name": "",
          "type": "bool"
        }
      ],
      "stateMutability": "nonpayable",
      "type": "function"
    },
    {
      "inputs": [
        {
          "internalType": "address",
          "name": "account",
          "type": "address"
        },
        {
          "internalType": "uint256",
          "name": "value",
          "type": "uint256"
        }
      ],
      "name": "mint",
      "outputs": [],
      "stateMutability": "nonpayable",
      "type": "function"
    },
    {
      "inputs": [
        {
          "internalType": "address",
          "name": "account",
          "type": "address"
        },
        {
          "internalType": "uint256",
          "name": "value",
          "type": "uint256"
        }
      ],
      "name": "burn",
      "outputs": [],
      "stateMutability": "nonpayable",
      "type": "function"
    },
    {
      "inputs": [
        {
          "internalType": "address",
          "name": "_minter",
          "type": "address"
        }
      ],
      "name": "passMinterRole",
      "outputs": [
        {
          "internalType": "bool",
          "name": "",
          "type": "bool"
        }
      ],
      "stateMutability": "nonpayable",
      "type": "function"
    }
  ],
  "bytecode": "0x60806040523480156200001157600080fd5b506040518060400160405280600d81526020017f44656769732d4c50546f6b656e000000000000000000000000000000000000008152506040518060400160405280600381526020017f444c5000000000000000000000000000000000000000000000000000000000008152508160039080519060200190620000969291906200013a565b508060049080519060200190620000af9291906200013a565b50505033600660006101000a81548173ffffffffffffffffffffffffffffffffffffffff021916908373ffffffffffffffffffffffffffffffffffffffff16021790555033600560006101000a81548173ffffffffffffffffffffffffffffffffffffffff021916908373ffffffffffffffffffffffffffffffffffffffff1602179055506200024f565b8280546200014890620001ea565b90600052602060002090601f0160209004810192826200016c5760008555620001b8565b82601f106200018757805160ff1916838001178555620001b8565b82800160010185558215620001b8579182015b82811115620001b75782518255916020019190600101906200019a565b5b509050620001c79190620001cb565b5090565b5b80821115620001e6576000816000905550600101620001cc565b5090565b600060028204905060018216806200020357607f821691505b602082108114156200021a576200021962000220565b5b50919050565b7f4e487b7100000000000000000000000000000000000000000000000000000000600052602260045260246000fd5b611da0806200025f6000396000f3fe608060405234801561001057600080fd5b50600436106101005760003560e01c806370a0823111610097578063a457c2d711610066578063a457c2d7146102b1578063a9059cbb146102e1578063d7fc5b1514610311578063dd62ed3e1461034157610100565b806370a08231146102295780638da5cb5b1461025957806395d89b41146102775780639dc29fac1461029557610100565b806323b872dd116100d357806323b872dd1461018f578063313ce567146101bf57806339509351146101dd57806340c10f191461020d57610100565b806306fdde03146101055780630754617214610123578063095ea7b31461014157806318160ddd14610171575b600080fd5b61010d610371565b60405161011a9190611602565b60405180910390f35b61012b610403565b60405161013891906115cc565b60405180910390f35b61015b60048036038101906101569190611373565b610429565b60405161016891906115e7565b60405180910390f35b610179610447565b60405161018691906117a4565b60405180910390f35b6101a960048036038101906101a49190611320565b610451565b6040516101b691906115e7565b60405180910390f35b6101c7610549565b6040516101d491906117bf565b60405180910390f35b6101f760048036038101906101f29190611373565b610552565b60405161020491906115e7565b60405180910390f35b61022760048036038101906102229190611373565b6105fe565b005b610243600480360381019061023e91906112b3565b61069c565b60405161025091906117a4565b60405180910390f35b6102616106e4565b60405161026e91906115cc565b60405180910390f35b61027f61070a565b60405161028c9190611602565b60405180910390f35b6102af60048036038101906102aa9190611373565b61079c565b005b6102cb60048036038101906102c69190611373565b61083a565b6040516102d891906115e7565b60405180910390f35b6102fb60048036038101906102f69190611373565b610925565b60405161030891906115e7565b60405180910390f35b61032b600480360381019061032691906112b3565b610943565b60405161033891906115e7565b60405180910390f35b61035b600480360381019061035691906112e0565b610a6d565b60405161036891906117a4565b60405180910390f35b60606003805461038090611908565b80601f01602080910402602001604051908101604052809291908181526020018280546103ac90611908565b80156103f95780601f106103ce576101008083540402835291602001916103f9565b820191906000526020600020905b8154815290600101906020018083116103dc57829003601f168201915b5050505050905090565b600560009054906101000a900473ffffffffffffffffffffffffffffffffffffffff1681565b600061043d610436610af4565b8484610afc565b6001905092915050565b6000600254905090565b600061045e848484610cc7565b6000600160008673ffffffffffffffffffffffffffffffffffffffff1673ffffffffffffffffffffffffffffffffffffffff16815260200190815260200160002060006104a9610af4565b73ffffffffffffffffffffffffffffffffffffffff1673ffffffffffffffffffffffffffffffffffffffff16815260200190815260200160002054905082811015610529576040517f08c379a0000000000000000000000000000000000000000000000000000000008152600401610520906116c4565b60405180910390fd5b61053d85610535610af4565b858403610afc565b60019150509392505050565b60006012905090565b60006105f461055f610af4565b84846001600061056d610af4565b73ffffffffffffffffffffffffffffffffffffffff1673ffffffffffffffffffffffffffffffffffffffff16815260200190815260200160002060008873ffffffffffffffffffffffffffffffffffffffff1673ffffffffffffffffffffffffffffffffffffffff168152602001908152602001600020546105ef91906117f6565b610afc565b6001905092915050565b600560009054906101000a900473ffffffffffffffffffffffffffffffffffffffff1673ffffffffffffffffffffffffffffffffffffffff163373ffffffffffffffffffffffffffffffffffffffff161461068e576040517f08c379a000000000000000000000000000000000000000000000000000000000815260040161068590611684565b60405180910390fd5b6106988282610f48565b5050565b60008060008373ffffffffffffffffffffffffffffffffffffffff1673ffffffffffffffffffffffffffffffffffffffff168152602001908152602001600020549050919050565b600660009054906101000a900473ffffffffffffffffffffffffffffffffffffffff1681565b60606004805461071990611908565b80601f016020809104026020016040519081016040528092919081815260200182805461074590611908565b80156107925780601f1061076757610100808354040283529160200191610792565b820191906000526020600020905b81548152906001019060200180831161077557829003601f168201915b5050505050905090565b600560009054906101000a900473ffffffffffffffffffffffffffffffffffffffff1673ffffffffffffffffffffffffffffffffffffffff163373ffffffffffffffffffffffffffffffffffffffff161461082c576040517f08c379a000000000000000000000000000000000000000000000000000000000815260040161082390611684565b60405180910390fd5b61083682826110a8565b5050565b60008060016000610849610af4565b73ffffffffffffffffffffffffffffffffffffffff1673ffffffffffffffffffffffffffffffffffffffff16815260200190815260200160002060008573ffffffffffffffffffffffffffffffffffffffff1673ffffffffffffffffffffffffffffffffffffffff16815260200190815260200160002054905082811015610906576040517f08c379a00000000000000000000000000000000000000000000000000000000081526004016108fd90611764565b60405180910390fd5b61091a610911610af4565b85858403610afc565b600191505092915050565b6000610939610932610af4565b8484610cc7565b6001905092915050565b6000600660009054906101000a900473ffffffffffffffffffffffffffffffffffffffff1673ffffffffffffffffffffffffffffffffffffffff163373ffffffffffffffffffffffffffffffffffffffff16146109d5576040517f08c379a00000000000000000000000000000000000000000000000000000000081526004016109cc90611744565b60405180910390fd5b81600560006101000a81548173ffffffffffffffffffffffffffffffffffffffff021916908373ffffffffffffffffffffffffffffffffffffffff1602179055503373ffffffffffffffffffffffffffffffffffffffff167f3b0007eb941cf645526cbb3a4fdaecda9d28ce4843167d9263b536a1f1edc0f683604051610a5c91906115cc565b60405180910390a260019050919050565b6000600160008473ffffffffffffffffffffffffffffffffffffffff1673ffffffffffffffffffffffffffffffffffffffff16815260200190815260200160002060008373ffffffffffffffffffffffffffffffffffffffff1673ffffffffffffffffffffffffffffffffffffffff16815260200190815260200160002054905092915050565b600033905090565b600073ffffffffffffffffffffffffffffffffffffffff168373ffffffffffffffffffffffffffffffffffffffff161415610b6c576040517f08c379a0000000000000000000000000000000000000000000000000000000008152600401610b6390611724565b60405180910390fd5b600073ffffffffffffffffffffffffffffffffffffffff168273ffffffffffffffffffffffffffffffffffffffff161415610bdc576040517f08c379a0000000000000000000000000000000000000000000000000000000008152600401610bd390611664565b60405180910390fd5b80600160008573ffffffffffffffffffffffffffffffffffffffff1673ffffffffffffffffffffffffffffffffffffffff16815260200190815260200160002060008473ffffffffffffffffffffffffffffffffffffffff1673ffffffffffffffffffffffffffffffffffffffff168152602001908152602001600020819055508173ffffffffffffffffffffffffffffffffffffffff168373ffffffffffffffffffffffffffffffffffffffff167f8c5be1e5ebec7d5bd14f71427d1e84f3dd0314c0f7b2291e5b200ac8c7c3b92583604051610cba91906117a4565b60405180910390a3505050565b600073ffffffffffffffffffffffffffffffffffffffff168373ffffffffffffffffffffffffffffffffffffffff161415610d37576040517f08c379a0000000000000000000000000000000000000000000000000000000008152600401610d2e90611704565b60405180910390fd5b600073ffffffffffffffffffffffffffffffffffffffff168273ffffffffffffffffffffffffffffffffffffffff161415610da7576040517f08c379a0000000000000000000000000000000000000000000000000000000008152600401610d9e90611624565b60405180910390fd5b610db283838361127f565b60008060008573ffffffffffffffffffffffffffffffffffffffff1673ffffffffffffffffffffffffffffffffffffffff16815260200190815260200160002054905081811015610e38576040517f08c379a0000000000000000000000000000000000000000000000000000000008152600401610e2f906116a4565b60405180910390fd5b8181036000808673ffffffffffffffffffffffffffffffffffffffff1673ffffffffffffffffffffffffffffffffffffffff16815260200190815260200160002081905550816000808573ffffffffffffffffffffffffffffffffffffffff1673ffffffffffffffffffffffffffffffffffffffff1681526020019081526020016000206000828254610ecb91906117f6565b925050819055508273ffffffffffffffffffffffffffffffffffffffff168473ffffffffffffffffffffffffffffffffffffffff167fddf252ad1be2c89b69c2b068fc378daa952ba7f163c4a11628f55a4df523b3ef84604051610f2f91906117a4565b60405180910390a3610f42848484611284565b50505050565b600073ffffffffffffffffffffffffffffffffffffffff168273ffffffffffffffffffffffffffffffffffffffff161415610fb8576040517f08c379a0000000000000000000000000000000000000000000000000000000008152600401610faf90611784565b60405180910390fd5b610fc46000838361127f565b8060026000828254610fd691906117f6565b92505081905550806000808473ffffffffffffffffffffffffffffffffffffffff1673ffffffffffffffffffffffffffffffffffffffff168152602001908152602001600020600082825461102b91906117f6565b925050819055508173ffffffffffffffffffffffffffffffffffffffff16600073ffffffffffffffffffffffffffffffffffffffff167fddf252ad1be2c89b69c2b068fc378daa952ba7f163c4a11628f55a4df523b3ef8360405161109091906117a4565b60405180910390a36110a460008383611284565b5050565b600073ffffffffffffffffffffffffffffffffffffffff168273ffffffffffffffffffffffffffffffffffffffff161415611118576040517f08c379a000000000000000000000000000000000000000000000000000000000815260040161110f906116e4565b60405180910390fd5b6111248260008361127f565b60008060008473ffffffffffffffffffffffffffffffffffffffff1673ffffffffffffffffffffffffffffffffffffffff168152602001908152602001600020549050818110156111aa576040517f08c379a00000000000000000000000000000000000000000000000000000000081526004016111a190611644565b60405180910390fd5b8181036000808573ffffffffffffffffffffffffffffffffffffffff1673ffffffffffffffffffffffffffffffffffffffff168152602001908152602001600020819055508160026000828254611201919061184c565b92505081905550600073ffffffffffffffffffffffffffffffffffffffff168373ffffffffffffffffffffffffffffffffffffffff167fddf252ad1be2c89b69c2b068fc378daa952ba7f163c4a11628f55a4df523b3ef8460405161126691906117a4565b60405180910390a361127a83600084611284565b505050565b505050565b505050565b60008135905061129881611d3c565b92915050565b6000813590506112ad81611d53565b92915050565b6000602082840312156112c9576112c8611998565b5b60006112d784828501611289565b91505092915050565b600080604083850312156112f7576112f6611998565b5b600061130585828601611289565b925050602061131685828601611289565b9150509250929050565b60008060006060848603121561133957611338611998565b5b600061134786828701611289565b935050602061135886828701611289565b92505060406113698682870161129e565b9150509250925092565b6000806040838503121561138a57611389611998565b5b600061139885828601611289565b92505060206113a98582860161129e565b9150509250929050565b6113bc81611880565b82525050565b6113cb81611892565b82525050565b60006113dc826117da565b6113e681856117e5565b93506113f68185602086016118d5565b6113ff8161199d565b840191505092915050565b60006114176023836117e5565b9150611422826119ae565b604082019050919050565b600061143a6022836117e5565b9150611445826119fd565b604082019050919050565b600061145d6022836117e5565b915061146882611a4c565b604082019050919050565b60006114806024836117e5565b915061148b82611a9b565b604082019050919050565b60006114a36026836117e5565b91506114ae82611aea565b604082019050919050565b60006114c66028836117e5565b91506114d182611b39565b604082019050919050565b60006114e96021836117e5565b91506114f482611b88565b604082019050919050565b600061150c6025836117e5565b915061151782611bd7565b604082019050919050565b600061152f6024836117e5565b915061153a82611c26565b604082019050919050565b60006115526030836117e5565b915061155d82611c75565b604082019050919050565b60006115756025836117e5565b915061158082611cc4565b604082019050919050565b6000611598601f836117e5565b91506115a382611d13565b602082019050919050565b6115b7816118be565b82525050565b6115c6816118c8565b82525050565b60006020820190506115e160008301846113b3565b92915050565b60006020820190506115fc60008301846113c2565b92915050565b6000602082019050818103600083015261161c81846113d1565b905092915050565b6000602082019050818103600083015261163d8161140a565b9050919050565b6000602082019050818103600083015261165d8161142d565b9050919050565b6000602082019050818103600083015261167d81611450565b9050919050565b6000602082019050818103600083015261169d81611473565b9050919050565b600060208201905081810360008301526116bd81611496565b9050919050565b600060208201905081810360008301526116dd816114b9565b9050919050565b600060208201905081810360008301526116fd816114dc565b9050919050565b6000602082019050818103600083015261171d816114ff565b9050919050565b6000602082019050818103600083015261173d81611522565b9050919050565b6000602082019050818103600083015261175d81611545565b9050919050565b6000602082019050818103600083015261177d81611568565b9050919050565b6000602082019050818103600083015261179d8161158b565b9050919050565b60006020820190506117b960008301846115ae565b92915050565b60006020820190506117d460008301846115bd565b92915050565b600081519050919050565b600082825260208201905092915050565b6000611801826118be565b915061180c836118be565b9250827fffffffffffffffffffffffffffffffffffffffffffffffffffffffffffffffff038211156118415761184061193a565b5b828201905092915050565b6000611857826118be565b9150611862836118be565b9250828210156118755761187461193a565b5b828203905092915050565b600061188b8261189e565b9050919050565b60008115159050919050565b600073ffffffffffffffffffffffffffffffffffffffff82169050919050565b6000819050919050565b600060ff82169050919050565b60005b838110156118f35780820151818401526020810190506118d8565b83811115611902576000848401525b50505050565b6000600282049050600182168061192057607f821691505b6020821081141561193457611933611969565b5b50919050565b7f4e487b7100000000000000000000000000000000000000000000000000000000600052601160045260246000fd5b7f4e487b7100000000000000000000000000000000000000000000000000000000600052602260045260246000fd5b600080fd5b6000601f19601f8301169050919050565b7f45524332303a207472616e7366657220746f20746865207a65726f206164647260008201527f6573730000000000000000000000000000000000000000000000000000000000602082015250565b7f45524332303a206275726e20616d6f756e7420657863656564732062616c616e60008201527f6365000000000000000000000000000000000000000000000000000000000000602082015250565b7f45524332303a20617070726f766520746f20746865207a65726f20616464726560008201527f7373000000000000000000000000000000000000000000000000000000000000602082015250565b7f4572726f7221204d73672e73656e646572206d75737420626520746865206d6960008201527f6e74657200000000000000000000000000000000000000000000000000000000602082015250565b7f45524332303a207472616e7366657220616d6f756e742065786365656473206260008201527f616c616e63650000000000000000000000000000000000000000000000000000602082015250565b7f45524332303a207472616e7366657220616d6f756e742065786365656473206160008201527f6c6c6f77616e6365000000000000000000000000000000000000000000000000602082015250565b7f45524332303a206275726e2066726f6d20746865207a65726f2061646472657360008201527f7300000000000000000000000000000000000000000000000000000000000000602082015250565b7f45524332303a207472616e736665722066726f6d20746865207a65726f20616460008201527f6472657373000000000000000000000000000000000000000000000000000000602082015250565b7f45524332303a20617070726f76652066726f6d20746865207a65726f2061646460008201527f7265737300000000000000000000000000000000000000000000000000000000602082015250565b7f4572726f7221206f6e6c7920746865206f776e65722063616e206368616e676560008201527f20746865206d696e74657220726f6c6500000000000000000000000000000000602082015250565b7f45524332303a2064656372656173656420616c6c6f77616e63652062656c6f7760008201527f207a65726f000000000000000000000000000000000000000000000000000000602082015250565b7f45524332303a206d696e7420746f20746865207a65726f206164647265737300600082015250565b611d4581611880565b8114611d5057600080fd5b50565b611d5c816118be565b8114611d6757600080fd5b5056fea2646970667358221220eff3a1fc2b5f79297cba93136d7eb4dc882ca4f76492bf6499651596cd804b5964736f6c63430008050033",
  "immutableReferences": {},
  "source": "// SPDX-License-Identifier: MIT\r\npragma solidity ^0.8.0;\r\n\r\nimport \"@openzeppelin/contracts/token/ERC20/ERC20.sol\";\r\n\r\ncontract LPToken is ERC20 {\r\n    address public minter;\r\n    address public owner;\r\n\r\n    event MinterChanged(address indexed from, address to);\r\n\r\n    constructor() ERC20(\"Degis-LPToken\", \"DLP\") {\r\n        owner = msg.sender;\r\n        minter = msg.sender;\r\n    }\r\n\r\n    function mint(address account, uint256 value) public {\r\n        require(msg.sender == minter, \"Error! Msg.sender must be the minter\");\r\n        _mint(account, value);\r\n    }\r\n\r\n    function burn(address account, uint256 value) public {\r\n        require(msg.sender == minter, \"Error! Msg.sender must be the minter\");\r\n        _burn(account, value);\r\n    }\r\n\r\n    function passMinterRole(address _minter) public returns (bool) {\r\n        require(\r\n            msg.sender == owner,\r\n            \"Error! only the owner can change the minter role\"\r\n        );\r\n\r\n        minter = _minter;\r\n        emit MinterChanged(msg.sender, _minter);\r\n        return true;\r\n    }\r\n}\r\n",
  "sourcePath": "D:\\src\\Degis-Contracts-1\\contracts\\LPToken.sol",
  "compiler": {
    "name": "solc",
    "version": "0.8.5+commit.a4f2e591.Emscripten.clang"
  },
  "schemaVersion": "3.4.3",
  "updatedAt": "2021-09-18T13:58:28.066Z",
  "networkType": "ethereum",
  "devdoc": {
    "kind": "dev",
    "methods": {
      "allowance(address,address)": {
        "details": "See {IERC20-allowance}."
      },
      "approve(address,uint256)": {
        "details": "See {IERC20-approve}. Requirements: - `spender` cannot be the zero address."
      },
      "balanceOf(address)": {
        "details": "See {IERC20-balanceOf}."
      },
      "decimals()": {
        "details": "Returns the number of decimals used to get its user representation. For example, if `decimals` equals `2`, a balance of `505` tokens should be displayed to a user as `5.05` (`505 / 10 ** 2`). Tokens usually opt for a value of 18, imitating the relationship between Ether and Wei. This is the value {ERC20} uses, unless this function is overridden; NOTE: This information is only used for _display_ purposes: it in no way affects any of the arithmetic of the contract, including {IERC20-balanceOf} and {IERC20-transfer}."
      },
      "decreaseAllowance(address,uint256)": {
        "details": "Atomically decreases the allowance granted to `spender` by the caller. This is an alternative to {approve} that can be used as a mitigation for problems described in {IERC20-approve}. Emits an {Approval} event indicating the updated allowance. Requirements: - `spender` cannot be the zero address. - `spender` must have allowance for the caller of at least `subtractedValue`."
      },
      "increaseAllowance(address,uint256)": {
        "details": "Atomically increases the allowance granted to `spender` by the caller. This is an alternative to {approve} that can be used as a mitigation for problems described in {IERC20-approve}. Emits an {Approval} event indicating the updated allowance. Requirements: - `spender` cannot be the zero address."
      },
      "name()": {
        "details": "Returns the name of the token."
      },
      "symbol()": {
        "details": "Returns the symbol of the token, usually a shorter version of the name."
      },
      "totalSupply()": {
        "details": "See {IERC20-totalSupply}."
      },
      "transfer(address,uint256)": {
        "details": "See {IERC20-transfer}. Requirements: - `recipient` cannot be the zero address. - the caller must have a balance of at least `amount`."
      },
      "transferFrom(address,address,uint256)": {
        "details": "See {IERC20-transferFrom}. Emits an {Approval} event indicating the updated allowance. This is not required by the EIP. See the note at the beginning of {ERC20}. Requirements: - `sender` and `recipient` cannot be the zero address. - `sender` must have a balance of at least `amount`. - the caller must have allowance for ``sender``'s tokens of at least `amount`."
      }
    },
    "version": 1
  },
  "userdoc": {
    "kind": "user",
    "methods": {},
    "version": 1
  }
}