{
  "contractName": "PolicyFlow",
  "abi": [
    {
      "inputs": [
        {
          "internalType": "contract IInsurancePool",
          "name": "_insurancePool",
          "type": "address"
        },
        {
          "internalType": "contract IPolicyToken",
          "name": "_policyToken",
          "type": "address"
        },
        {
          "internalType": "address",
          "name": "_oracleAddress",
          "type": "address"
        }
      ],
      "stateMutability": "nonpayable",
      "type": "constructor"
    },
    {
      "anonymous": false,
      "inputs": [
        {
          "indexed": true,
          "internalType": "bytes32",
          "name": "id",
          "type": "bytes32"
        }
      ],
      "name": "ChainlinkCancelled",
      "type": "event"
    },
    {
      "anonymous": false,
      "inputs": [
        {
          "indexed": true,
          "internalType": "bytes32",
          "name": "id",
          "type": "bytes32"
        }
      ],
      "name": "ChainlinkFulfilled",
      "type": "event"
    },
    {
      "anonymous": false,
      "inputs": [
        {
          "indexed": true,
          "internalType": "bytes32",
          "name": "id",
          "type": "bytes32"
        }
      ],
      "name": "ChainlinkRequested",
      "type": "event"
    },
    {
      "anonymous": false,
      "inputs": [
        {
          "indexed": false,
          "internalType": "bytes32",
          "name": "_policyId",
          "type": "bytes32"
        },
        {
          "indexed": false,
          "internalType": "bytes32",
          "name": "_requestId",
          "type": "bytes32"
        }
      ],
      "name": "FulfilledOracleRequest",
      "type": "event"
    },
    {
      "anonymous": false,
      "inputs": [
        {
          "indexed": false,
          "internalType": "bytes32",
          "name": "_policyID",
          "type": "bytes32"
        },
        {
          "indexed": true,
          "internalType": "address",
          "name": "_userAddress",
          "type": "address"
        }
      ],
      "name": "PolicyClaimed",
      "type": "event"
    },
    {
      "anonymous": false,
      "inputs": [
        {
          "indexed": false,
          "internalType": "bytes32",
          "name": "_policyID",
          "type": "bytes32"
        },
        {
          "indexed": true,
          "internalType": "address",
          "name": "_userAddress",
          "type": "address"
        }
      ],
      "name": "PolicyDeclined",
      "type": "event"
    },
    {
      "anonymous": false,
      "inputs": [
        {
          "indexed": false,
          "internalType": "bytes32",
          "name": "_policyID",
          "type": "bytes32"
        },
        {
          "indexed": true,
          "internalType": "address",
          "name": "_userAddress",
          "type": "address"
        }
      ],
      "name": "PolicyExpired",
      "type": "event"
    },
    {
      "anonymous": false,
      "inputs": [
        {
          "indexed": false,
          "internalType": "bytes32",
          "name": "_policyID",
          "type": "bytes32"
        },
        {
          "indexed": true,
          "internalType": "address",
          "name": "_userAddress",
          "type": "address"
        }
      ],
      "name": "PolicySold",
      "type": "event"
    },
    {
      "anonymous": false,
      "inputs": [
        {
          "indexed": false,
          "internalType": "bytes32",
          "name": "_policyID",
          "type": "bytes32"
        },
        {
          "indexed": true,
          "internalType": "address",
          "name": "_userAddress",
          "type": "address"
        }
      ],
      "name": "newPolicyApplication",
      "type": "event"
    },
    {
      "inputs": [],
      "name": "DELAY_THRESHOLD",
      "outputs": [
        {
          "internalType": "uint256",
          "name": "",
          "type": "uint256"
        }
      ],
      "stateMutability": "view",
      "type": "function",
      "constant": true
    },
    {
      "inputs": [],
      "name": "MIN_TIME_BEFORE_DEPARTURE",
      "outputs": [
        {
          "internalType": "uint256",
          "name": "",
          "type": "uint256"
        }
      ],
      "stateMutability": "view",
      "type": "function",
      "constant": true
    },
    {
      "inputs": [],
      "name": "Total_Policies",
      "outputs": [
        {
          "internalType": "uint256",
          "name": "",
          "type": "uint256"
        }
      ],
      "stateMutability": "view",
      "type": "function",
      "constant": true
    },
    {
      "inputs": [
        {
          "internalType": "address",
          "name": "_addr",
          "type": "address"
        }
      ],
      "name": "addressToString",
      "outputs": [
        {
          "internalType": "string",
          "name": "",
          "type": "string"
        }
      ],
      "stateMutability": "pure",
      "type": "function",
      "constant": true
    },
    {
      "inputs": [
        {
          "internalType": "bytes32",
          "name": "_bytes",
          "type": "bytes32"
        }
      ],
      "name": "bytes32ToHumanString",
      "outputs": [
        {
          "internalType": "string",
          "name": "",
          "type": "string"
        }
      ],
      "stateMutability": "pure",
      "type": "function",
      "constant": true
    },
    {
      "inputs": [
        {
          "internalType": "bytes32",
          "name": "_bytes",
          "type": "bytes32"
        }
      ],
      "name": "bytes32ToString",
      "outputs": [
        {
          "internalType": "string",
          "name": "",
          "type": "string"
        }
      ],
      "stateMutability": "pure",
      "type": "function",
      "constant": true
    },
    {
      "inputs": [
        {
          "internalType": "bytes32",
          "name": "s",
          "type": "bytes32"
        }
      ],
      "name": "bytesToUint",
      "outputs": [
        {
          "internalType": "uint256",
          "name": "",
          "type": "uint256"
        }
      ],
      "stateMutability": "pure",
      "type": "function",
      "constant": true
    },
    {
      "inputs": [],
      "name": "oracleResponse",
      "outputs": [
        {
          "internalType": "uint256",
          "name": "",
          "type": "uint256"
        }
      ],
      "stateMutability": "view",
      "type": "function",
      "constant": true
    },
    {
      "inputs": [],
      "name": "owner",
      "outputs": [
        {
          "internalType": "address",
          "name": "",
          "type": "address"
        }
      ],
      "stateMutability": "view",
      "type": "function",
      "constant": true
    },
    {
      "inputs": [],
      "name": "getChainlinkToken",
      "outputs": [
        {
          "internalType": "address",
          "name": "",
          "type": "address"
        }
      ],
      "stateMutability": "view",
      "type": "function",
      "constant": true
    },
    {
      "inputs": [
        {
          "internalType": "address",
          "name": "_userAddress",
          "type": "address"
        }
      ],
      "name": "viewPolicy",
      "outputs": [
        {
          "internalType": "string",
          "name": "",
          "type": "string"
        }
      ],
      "stateMutability": "view",
      "type": "function",
      "constant": true
    },
    {
      "inputs": [
        {
          "internalType": "uint256",
          "name": "_count",
          "type": "uint256"
        }
      ],
      "name": "getPolicyIdByCount",
      "outputs": [
        {
          "internalType": "bytes32",
          "name": "",
          "type": "bytes32"
        }
      ],
      "stateMutability": "view",
      "type": "function",
      "constant": true
    },
    {
      "inputs": [
        {
          "internalType": "uint256",
          "name": "_count",
          "type": "uint256"
        }
      ],
      "name": "getPolicyInfoByCount",
      "outputs": [
        {
          "internalType": "bytes32",
          "name": "_policyId",
          "type": "bytes32"
        },
        {
          "internalType": "uint256",
          "name": "_productId",
          "type": "uint256"
        },
        {
          "internalType": "address",
          "name": "_owner",
          "type": "address"
        },
        {
          "internalType": "uint256",
          "name": "_premium",
          "type": "uint256"
        },
        {
          "internalType": "uint256",
          "name": "_payoff",
          "type": "uint256"
        },
        {
          "internalType": "uint256",
          "name": "_purchaseDate",
          "type": "uint256"
        },
        {
          "internalType": "uint256",
          "name": "_departureDate",
          "type": "uint256"
        },
        {
          "internalType": "uint256",
          "name": "_landingDate",
          "type": "uint256"
        },
        {
          "internalType": "uint256",
          "name": "_policyStatus",
          "type": "uint256"
        }
      ],
      "stateMutability": "view",
      "type": "function",
      "constant": true
    },
    {
      "inputs": [
        {
          "internalType": "address",
          "name": "_userAddress",
          "type": "address"
        }
      ],
      "name": "getUserPolicyCount",
      "outputs": [
        {
          "internalType": "uint256",
          "name": "",
          "type": "uint256"
        }
      ],
      "stateMutability": "view",
      "type": "function",
      "constant": true
    },
    {
      "inputs": [
        {
          "internalType": "bytes32",
          "name": "_policyId",
          "type": "bytes32"
        }
      ],
      "name": "findPolicyBuyerById",
      "outputs": [
        {
          "internalType": "address",
          "name": "",
          "type": "address"
        }
      ],
      "stateMutability": "view",
      "type": "function",
      "constant": true
    },
    {
      "inputs": [
        {
          "internalType": "bytes32",
          "name": "_jobId",
          "type": "bytes32"
        }
      ],
      "name": "changeJobId",
      "outputs": [],
      "stateMutability": "nonpayable",
      "type": "function"
    },
    {
      "inputs": [
        {
          "internalType": "uint256",
          "name": "_fee",
          "type": "uint256"
        }
      ],
      "name": "changeFee",
      "outputs": [],
      "stateMutability": "nonpayable",
      "type": "function"
    },
    {
      "inputs": [
        {
          "internalType": "address",
          "name": "_oracleAddress",
          "type": "address"
        }
      ],
      "name": "changeOrcaleAddress",
      "outputs": [],
      "stateMutability": "nonpayable",
      "type": "function"
    },
    {
      "inputs": [
        {
          "internalType": "uint256",
          "name": "_threshold",
          "type": "uint256"
        }
      ],
      "name": "setDelayThreshold",
      "outputs": [],
      "stateMutability": "nonpayable",
      "type": "function"
    },
    {
      "inputs": [
        {
          "internalType": "address",
          "name": "_userAddress",
          "type": "address"
        },
        {
          "internalType": "uint256",
          "name": "_productId",
          "type": "uint256"
        },
        {
          "internalType": "uint256",
          "name": "_premium",
          "type": "uint256"
        },
        {
          "internalType": "uint256",
          "name": "_payoff",
          "type": "uint256"
        },
        {
          "internalType": "uint256",
          "name": "_departureDate",
          "type": "uint256"
        },
        {
          "internalType": "uint256",
          "name": "_landingDate",
          "type": "uint256"
        }
      ],
      "name": "newApplication",
      "outputs": [
        {
          "internalType": "bytes32",
          "name": "_policyId",
          "type": "bytes32"
        }
      ],
      "stateMutability": "nonpayable",
      "type": "function"
    },
    {
      "inputs": [
        {
          "internalType": "uint256",
          "name": "_premium",
          "type": "uint256"
        },
        {
          "internalType": "uint256",
          "name": "_payoff",
          "type": "uint256"
        },
        {
          "internalType": "address",
          "name": "_userAddress",
          "type": "address"
        },
        {
          "internalType": "bytes32",
          "name": "_policyId",
          "type": "bytes32"
        }
      ],
      "name": "policyCheck",
      "outputs": [],
      "stateMutability": "nonpayable",
      "type": "function"
    },
    {
      "inputs": [
        {
          "internalType": "uint256",
          "name": "_premium",
          "type": "uint256"
        },
        {
          "internalType": "uint256",
          "name": "_payoff",
          "type": "uint256"
        },
        {
          "internalType": "address",
          "name": "_userAddress",
          "type": "address"
        },
        {
          "internalType": "bytes32",
          "name": "_policyId",
          "type": "bytes32"
        }
      ],
      "name": "policyExpired",
      "outputs": [],
      "stateMutability": "nonpayable",
      "type": "function"
    },
    {
      "inputs": [
        {
          "internalType": "uint256",
          "name": "_premium",
          "type": "uint256"
        },
        {
          "internalType": "uint256",
          "name": "_payoff",
          "type": "uint256"
        },
        {
          "internalType": "address",
          "name": "_userAddress",
          "type": "address"
        },
        {
          "internalType": "bytes32",
          "name": "_policyId",
          "type": "bytes32"
        }
      ],
      "name": "policyClaimed",
      "outputs": [],
      "stateMutability": "nonpayable",
      "type": "function"
    },
    {
      "inputs": [
        {
          "internalType": "uint256",
          "name": "_policyOrder",
          "type": "uint256"
        },
        {
          "internalType": "string",
          "name": "_flightNumber",
          "type": "string"
        },
        {
          "internalType": "string",
          "name": "_date",
          "type": "string"
        },
        {
          "internalType": "string",
          "name": "_path",
          "type": "string"
        },
        {
          "internalType": "bool",
          "name": "_forceUpdate",
          "type": "bool"
        }
      ],
      "name": "calculateFlightStatus",
      "outputs": [],
      "stateMutability": "nonpayable",
      "type": "function"
    },
    {
      "inputs": [
        {
          "internalType": "bytes32",
          "name": "_requestId",
          "type": "bytes32"
        },
        {
          "internalType": "uint256",
          "name": "_data",
          "type": "uint256"
        }
      ],
      "name": "fulfill",
      "outputs": [],
      "stateMutability": "nonpayable",
      "type": "function"
    }
  ],
  "bytecode": "0x608060405260016004556040518060400160405280602081526020017f687474703a2f2f33392e3130312e3133322e3232383a383030302f6c6976652f8152506008908051906020019062000056929190620002d6565b5060f06010553480156200006957600080fd5b5060405162004f2238038062004f2283398181016040528101906200008f9190620003fd565b33600d60006101000a81548173ffffffffffffffffffffffffffffffffffffffff021916908373ffffffffffffffffffffffffffffffffffffffff16021790555082600e60006101000a81548173ffffffffffffffffffffffffffffffffffffffff021916908373ffffffffffffffffffffffffffffffffffffffff16021790555081600f60006101000a81548173ffffffffffffffffffffffffffffffffffffffff021916908373ffffffffffffffffffffffffffffffffffffffff16021790555080600960006101000a81548173ffffffffffffffffffffffffffffffffffffffff021916908373ffffffffffffffffffffffffffffffffffffffff1602179055507f6365663734613766663765613431393461623937663030633839616265663662600a81905550620001ca620001ea60201b60201c565b670de0b6b3a764000060078190555060006011819055505050506200056d565b6200029073c89bd4e1632d3a43cb03aaad5262cbe4038bc57173ffffffffffffffffffffffffffffffffffffffff166338cc48316040518163ffffffff1660e01b815260040160206040518083038186803b1580156200024957600080fd5b505afa1580156200025e573d6000803e3d6000fd5b505050506040513d601f19601f82011682018060405250810190620002849190620003cb565b6200029260201b60201c565b565b80600260006101000a81548173ffffffffffffffffffffffffffffffffffffffff021916908373ffffffffffffffffffffffffffffffffffffffff16021790555050565b828054620002e490620004b5565b90600052602060002090601f01602090048101928262000308576000855562000354565b82601f106200032357805160ff191683800117855562000354565b8280016001018555821562000354579182015b828111156200035357825182559160200191906001019062000336565b5b50905062000363919062000367565b5090565b5b808211156200038257600081600090555060010162000368565b5090565b60008151905062000397816200051f565b92915050565b600081519050620003ae8162000539565b92915050565b600081519050620003c58162000553565b92915050565b600060208284031215620003e457620003e36200051a565b5b6000620003f48482850162000386565b91505092915050565b6000806000606084860312156200041957620004186200051a565b5b600062000429868287016200039d565b93505060206200043c86828701620003b4565b92505060406200044f8682870162000386565b9150509250925092565b6000620004668262000495565b9050919050565b60006200047a8262000459565b9050919050565b60006200048e8262000459565b9050919050565b600073ffffffffffffffffffffffffffffffffffffffff82169050919050565b60006002820490506001821680620004ce57607f821691505b60208210811415620004e557620004e4620004eb565b5b50919050565b7f4e487b7100000000000000000000000000000000000000000000000000000000600052602260045260246000fd5b600080fd5b6200052a8162000459565b81146200053657600080fd5b50565b62000544816200046d565b81146200055057600080fd5b50565b6200055e8162000481565b81146200056a57600080fd5b50565b6149a5806200057d6000396000f3fe608060405234801561001057600080fd5b50600436106101735760003560e01c80636a1db1bf116100de578063aed0acee11610097578063c834c49811610071578063c834c49814610464578063cfc5a96914610480578063ddf9d617146104b0578063e25f3fc8146104e057610173565b8063aed0acee1461040a578063b7b357ac14610428578063be6b82481461044657610173565b80636a1db1bf146103385780636d0be997146103545780638d8ccfce146103705780638da5cb5b146103a05780639201de55146103be578063a678eb12146103ee57610173565b80633da21def116101305780633da21def1461026857806342c71a63146102845780634357855e146102a05780635aab0234146102bc5780635e57966d146102ec57806369099ee71461031c57610173565b8063081c29a814610178578063165d35e1146101a8578063214a64a9146101c657806326a16c7a146101e457806330dbc6c4146102005780633d21a7d114610238575b600080fd5b610192600480360381019061018d91906131aa565b610510565b60405161019f9190613ab6565b60405180910390f35b6101b061052d565b6040516101bd91906139d8565b60405180910390f35b6101ce61053c565b6040516101db9190613ca9565b60405180910390f35b6101fe60048036038101906101f991906132a6565b610542565b005b61021a600480360381019061021591906131aa565b6106bd565b60405161022f99989796959493929190613afa565b60405180910390f35b610252600480360381019061024d9190613056565b6107fa565b60405161025f9190613ca9565b60405180910390f35b610282600480360381019061027d919061313d565b610843565b005b61029e600480360381019061029991906132a6565b6108dd565b005b6102ba60048036038101906102b5919061316a565b610b4c565b005b6102d660048036038101906102d19190613083565b610f53565b6040516102e39190613ab6565b60405180910390f35b61030660048036038101906103019190613056565b6112c7565b6040516103139190613b87565b60405180910390f35b61033660048036038101906103319190613056565b6112fa565b005b610352600480360381019061034d91906131aa565b6113ce565b005b61036e600480360381019061036991906131aa565b611468565b005b61038a6004803603810190610385919061313d565b611502565b60405161039791906139d8565b60405180910390f35b6103a8611542565b6040516103b591906139d8565b60405180910390f35b6103d860048036038101906103d3919061313d565b611568565b6040516103e59190613b87565b60405180910390f35b610408600480360381019061040391906132a6565b611588565b005b610412611705565b60405161041f9190613ca9565b60405180910390f35b61043061170b565b60405161043d9190613ca9565b60405180910390f35b61044e611712565b60405161045b9190613ca9565b60405180910390f35b61047e600480360381019061047991906131d7565b611718565b005b61049a6004803603810190610495919061313d565b6118a8565b6040516104a79190613ca9565b60405180910390f35b6104ca60048036038101906104c59190613056565b611a46565b6040516104d79190613b87565b60405180910390f35b6104fa60048036038101906104f5919061313d565b611ddb565b6040516105079190613b87565b60405180910390f35b600060136000838152602001908152602001600020549050919050565b6000610537611eb1565b905090565b60065481565b601260008281526020019081526020016000206008015442101561059b576040517f08c379a000000000000000000000000000000000000000000000000000000000815260040161059290613c29565b60405180910390fd5b600e60009054906101000a900473ffffffffffffffffffffffffffffffffffffffff1673ffffffffffffffffffffffffffffffffffffffff16638f6987a285856040518363ffffffff1660e01b81526004016105f8929190613cc4565b600060405180830381600087803b15801561061257600080fd5b505af1158015610626573d6000803e3d6000fd5b5050505060036012600083815260200190815260200160002060090160006101000a81548160ff02191690836004811115610664576106636143ae565b5b02179055508173ffffffffffffffffffffffffffffffffffffffff167f8629ba1a018e1397c942e8dcf53afb2cfd0f250c02bc785e041010dfe6bbe002826040516106af9190613ab6565b60405180910390a250505050565b600080600080600080600080600080601360008c81526020019081526020016000205490508060126000838152602001908152602001600020600001546012600084815260200190815260200160002060010160009054906101000a900473ffffffffffffffffffffffffffffffffffffffff1660126000858152602001908152602001600020600401546012600086815260200190815260200160002060050154601260008781526020019081526020016000206006015460126000888152602001908152602001600020600701546012600089815260200190815260200160002060080154601260008a815260200190815260200160002060090160009054906101000a900460ff1660048111156107da576107d96143ae565b5b995099509950995099509950995099509950509193959799909294969850565b6000601560008373ffffffffffffffffffffffffffffffffffffffff1673ffffffffffffffffffffffffffffffffffffffff168152602001908152602001600020549050919050565b600d60009054906101000a900473ffffffffffffffffffffffffffffffffffffffff1673ffffffffffffffffffffffffffffffffffffffff163373ffffffffffffffffffffffffffffffffffffffff16146108d3576040517f08c379a00000000000000000000000000000000000000000000000000000000081526004016108ca90613c49565b60405180910390fd5b80600a8190555050565b6000600e60009054906101000a900473ffffffffffffffffffffffffffffffffffffffff1673ffffffffffffffffffffffffffffffffffffffff1663bf131f4b8686866040518463ffffffff1660e01b815260040161093e93929190613ced565b602060405180830381600087803b15801561095857600080fd5b505af115801561096c573d6000803e3d6000fd5b505050506040513d601f19601f820116820180604052508101906109909190613110565b90508015610ab75760016012600084815260200190815260200160002060090160006101000a81548160ff021916908360048111156109d2576109d16143ae565b5b02179055508273ffffffffffffffffffffffffffffffffffffffff167fe2b215a9cb677e3aed3f981858d4991d0fa674cac07f691ae9e55285cd21e65083604051610a1d9190613ab6565b60405180910390a2600f60009054906101000a900473ffffffffffffffffffffffffffffffffffffffff1673ffffffffffffffffffffffffffffffffffffffff1663b918e5e2846040518263ffffffff1660e01b8152600401610a8091906139d8565b600060405180830381600087803b158015610a9a57600080fd5b505af1158015610aae573d6000803e3d6000fd5b50505050610b45565b60026012600084815260200190815260200160002060090160006101000a81548160ff02191690836004811115610af157610af06143ae565b5b02179055508273ffffffffffffffffffffffffffffffffffffffff167fdf516e73760083066a1382f39eddf56faec71fab4e9b20387809572f4928573083604051610b3c9190613ab6565b60405180910390a25b5050505050565b816005600082815260200190815260200160002060009054906101000a900473ffffffffffffffffffffffffffffffffffffffff1673ffffffffffffffffffffffffffffffffffffffff163373ffffffffffffffffffffffffffffffffffffffff1614610bee576040517f08c379a0000000000000000000000000000000000000000000000000000000008152600401610be590613c89565b60405180910390fd5b6005600082815260200190815260200160002060006101000a81549073ffffffffffffffffffffffffffffffffffffffff0219169055807f7cc135e0cebb02c3480ae5d74d377283180a2601f8f644edf7987b009316c63a60405160405180910390a2816006819055506000600b60008581526020019081526020016000205490506000601360008381526020019081526020016000205490508360126000838152602001908152602001600020600a01819055506000841415610d1f57610d1a601260008381526020019081526020016000206004015460126000848152602001908152602001600020600501546012600085815260200190815260200160002060010160009054906101000a900473ffffffffffffffffffffffffffffffffffffffff1684610542565b610f13565b6010548411610e25576000610d3385611edb565b90506012600083815260200190815260200160002060050154811015610db057610dab6012600084815260200190815260200160002060040154826012600086815260200190815260200160002060010160009054906101000a900473ffffffffffffffffffffffffffffffffffffffff1685611588565b610e1f565b610e1e601260008481526020019081526020016000206004015460126000858152602001908152602001600020600501546012600086815260200190815260200160002060010160009054906101000a900473ffffffffffffffffffffffffffffffffffffffff1685611588565b5b50610f12565b610190841415610ea257610e9d601260008381526020019081526020016000206004015460126000848152602001908152602001600020600501546012600085815260200190815260200160002060010160009054906101000a900473ffffffffffffffffffffffffffffffffffffffff1684611588565b610f11565b610f10601260008381526020019081526020016000206004015460126000848152602001908152602001600020600501546012600085815260200190815260200160002060010160009054906101000a900473ffffffffffffffffffffffffffffffffffffffff1684610542565b5b5b5b7fa9ddea9ab39eadd77698a6649216466253039b513895fe0e268e695809f28f3d8186604051610f44929190613ad1565b60405180910390a15050505050565b60006201518042610f649190613dd2565b831015610fa6576040517f08c379a0000000000000000000000000000000000000000000000000000000008152600401610f9d90613be9565b60405180910390fd5b6000878785601154604051602001610fc194939291906137b2565b60405160208183030381529060405280519060200120905060004290506040518061018001604052808981526020018a73ffffffffffffffffffffffffffffffffffffffff16815260200160115481526020018381526020018881526020018781526020018281526020018681526020018581526020016000600481111561104c5761104b6143ae565b5b8152602001600015158152602001610194815250601260008481526020019081526020016000206000820151816000015560208201518160010160006101000a81548173ffffffffffffffffffffffffffffffffffffffff021916908373ffffffffffffffffffffffffffffffffffffffff16021790555060408201518160020155606082015181600301556080820151816004015560a0820151816005015560c0820151816006015560e0820151816007015561010082015181600801556101208201518160090160006101000a81548160ff02191690836004811115611137576111366143ae565b5b02179055506101408201518160090160016101000a81548160ff02191690831515021790555061016082015181600a0155905050601460008a73ffffffffffffffffffffffffffffffffffffffff1673ffffffffffffffffffffffffffffffffffffffff16815260200190815260200160002060115490806001815401808255809150506001900390600052602060002001600090919091909150556001601560008b73ffffffffffffffffffffffffffffffffffffffff1673ffffffffffffffffffffffffffffffffffffffff16815260200190815260200160002060008282546112239190613dd2565b9250508190555081601360006011548152602001908152602001600020819055506001601160008282546112579190613dd2565b925050819055508873ffffffffffffffffffffffffffffffffffffffff167fea7d153d9403b2cbdaa11045591904450ef979d8225ec92d7f2bd664b4a7d79b836040516112a49190613ab6565b60405180910390a26112b887878b856108dd565b81925050509695505050505050565b60606112f360148373ffffffffffffffffffffffffffffffffffffffff16611f9390919063ffffffff16565b9050919050565b600d60009054906101000a900473ffffffffffffffffffffffffffffffffffffffff1673ffffffffffffffffffffffffffffffffffffffff163373ffffffffffffffffffffffffffffffffffffffff161461138a576040517f08c379a000000000000000000000000000000000000000000000000000000000815260040161138190613c49565b60405180910390fd5b80600960006101000a81548173ffffffffffffffffffffffffffffffffffffffff021916908373ffffffffffffffffffffffffffffffffffffffff16021790555050565b600d60009054906101000a900473ffffffffffffffffffffffffffffffffffffffff1673ffffffffffffffffffffffffffffffffffffffff163373ffffffffffffffffffffffffffffffffffffffff161461145e576040517f08c379a000000000000000000000000000000000000000000000000000000000815260040161145590613c49565b60405180910390fd5b8060078190555050565b600d60009054906101000a900473ffffffffffffffffffffffffffffffffffffffff1673ffffffffffffffffffffffffffffffffffffffff163373ffffffffffffffffffffffffffffffffffffffff16146114f8576040517f08c379a00000000000000000000000000000000000000000000000000000000081526004016114ef90613c49565b60405180910390fd5b8060108190555050565b60006012600083815260200190815260200160002060010160009054906101000a900473ffffffffffffffffffffffffffffffffffffffff169050919050565b600d60009054906101000a900473ffffffffffffffffffffffffffffffffffffffff1681565b606061158160208360001c611f9390919063ffffffff16565b9050919050565b60126000828152602001908152602001600020600801544210156115e1576040517f08c379a00000000000000000000000000000000000000000000000000000000081526004016115d890613c29565b60405180910390fd5b600e60009054906101000a900473ffffffffffffffffffffffffffffffffffffffff1673ffffffffffffffffffffffffffffffffffffffff166347fea81e8585856040518463ffffffff1660e01b815260040161164093929190613ced565b600060405180830381600087803b15801561165a57600080fd5b505af115801561166e573d6000803e3d6000fd5b5050505060046012600083815260200190815260200160002060090160006101000a81548160ff021916908360048111156116ac576116ab6143ae565b5b02179055508173ffffffffffffffffffffffffffffffffffffffff167f5f9c763688279c7782f685a70462a053a838f3453a1b3a1bdc3c782d12670d61826040516116f79190613ab6565b60405180910390a250505050565b60105481565b6201518081565b60115481565b6000601360008781526020019081526020016000205490506012600082815260200190815260200160002060090160019054906101000a900460ff1615806117b657508180156117b55750600d60009054906101000a900473ffffffffffffffffffffffffffffffffffffffff1673ffffffffffffffffffffffffffffffffffffffff163373ffffffffffffffffffffffffffffffffffffffff16145b5b6117f5576040517f08c379a00000000000000000000000000000000000000000000000000000000081526004016117ec90613c69565b60405180910390fd5b60006008868660405160200161180d9392919061385d565b60405160208183030381529060405290506000611855600960009054906101000a900473ffffffffffffffffffffffffffffffffffffffff16600a54600754858960016121cf565b905087600b60008381526020019081526020016000208190555060016012600085815260200190815260200160002060090160016101000a81548160ff0219169083151502179055505050505050505050565b600080602067ffffffffffffffff8111156118c6576118c561443b565b5b6040519080825280601f01601f1916602001820160405280156118f85781602001600182028036833780820191505090505b50905060005b60208110156119735783816020811061191a5761191961440c565b5b1a60f81b8282815181106119315761193061440c565b5b60200101907effffffffffffffffffffffffffffffffffffffffffffffffffffffffffffff1916908160001a905350808061196b906142a8565b9150506118fe565b506000805b8251811015611a3b5760308382815181106119965761199561440c565b5b602001015160f81c60f81b60f81c60ff16101580156119d9575060398382815181106119c5576119c461440c565b5b602001015160f81c60f81b60f81c60ff1611155b15611a285760308382815181106119f3576119f261440c565b5b602001015160f81c60f81b60f81c611a0b91906140ec565b60ff16600a83611a1b9190613fca565b611a259190613dd2565b91505b8080611a33906142a8565b915050611978565b508092505050919050565b60606000601560008473ffffffffffffffffffffffffffffffffffffffff1673ffffffffffffffffffffffffffffffffffffffff1681526020019081526020016000205411611aca576040517f08c379a0000000000000000000000000000000000000000000000000000000008152600401611ac190613c09565b60405180910390fd5b6000601560008473ffffffffffffffffffffffffffffffffffffffff1673ffffffffffffffffffffffffffffffffffffffff16815260200190815260200160002054905060006040518060400160405280600181526020017f2000000000000000000000000000000000000000000000000000000000000000815250905060005b82811015611dd0576000601460008773ffffffffffffffffffffffffffffffffffffffff1673ffffffffffffffffffffffffffffffffffffffff1681526020019081526020016000208281548110611ba657611ba561440c565b5b9060005260206000200154905060006013600083815260200190815260200160002054905060006012600083815260200190815260200160002060090160019054906101000a900460ff16611c30576040518060400160405280600881526020017f6e6f742075736564000000000000000000000000000000000000000000000000815250611c67565b6040518060400160405280600481526020017f75736564000000000000000000000000000000000000000000000000000000008152505b90506000611cc3858460126000878152602001908152602001600020600001546012600088815260200190815260200160002060010160009054906101000a900473ffffffffffffffffffffffffffffffffffffffff166122dc565b90506000611d906012600086815260200190815260200160002060040154601260008781526020019081526020016000206005015460126000888152602001908152602001600020600601546012600089815260200190815260200160002060070154601260008a815260200190815260200160002060080154601260008b815260200190815260200160002060090160009054906101000a900460ff166004811115611d7357611d726143ae565b5b89601260008d8152602001908152602001600020600a015461232e565b9050868282604051602001611da79392919061382c565b604051602081830303815290604052965050505050508080611dc8906142a8565b915050611b4b565b508092505050919050565b60606000602067ffffffffffffffff811115611dfa57611df961443b565b5b6040519080825280601f01601f191660200182016040528015611e2c5781602001600182028036833780820191505090505b50905060005b6020811015611ea757838160208110611e4e57611e4d61440c565b5b1a60f81b828281518110611e6557611e6461440c565b5b60200101907effffffffffffffffffffffffffffffffffffffffffffffffffffffffffffff1916908160001a9053508080611e9f906142a8565b915050611e32565b5080915050919050565b6000600260009054906101000a900473ffffffffffffffffffffffffffffffffffffffff16905090565b60008060009050603c8311611ef257829050611f74565b603c83118015611f03575060788311155b15611f34576002603c84611f1791906140b8565b611f219190613fca565b603c611f2d9190613dd2565b9050611f73565b607883118015611f45575060f08311155b15611f72576003607884611f5991906140b8565b611f639190613fca565b60b4611f6f9190613dd2565b90505b5b5b670de0b6b3a764000081611f889190613fca565b905080915050919050565b606060006002836002611fa69190613fca565b611fb09190613dd2565b67ffffffffffffffff811115611fc957611fc861443b565b5b6040519080825280601f01601f191660200182016040528015611ffb5781602001600182028036833780820191505090505b5090507f3000000000000000000000000000000000000000000000000000000000000000816000815181106120335761203261440c565b5b60200101907effffffffffffffffffffffffffffffffffffffffffffffffffffffffffffff1916908160001a9053507f7800000000000000000000000000000000000000000000000000000000000000816001815181106120975761209661440c565b5b60200101907effffffffffffffffffffffffffffffffffffffffffffffffffffffffffffff1916908160001a905350600060018460026120d79190613fca565b6120e19190613dd2565b90505b6001811115612181577f3031323334353637383961626364656600000000000000000000000000000000600f8616601081106121235761212261440c565b5b1a60f81b82828151811061213a5761213961440c565b5b60200101907effffffffffffffffffffffffffffffffffffffffffffffffffffffffffffff1916908160001a905350600485901c94508061217a9061421b565b90506120e4565b50600084146121c5576040517f08c379a00000000000000000000000000000000000000000000000000000000081526004016121bc90613ba9565b60405180910390fd5b8091505092915050565b6000806121e48730634357855e60e01b6123ca565b90506122306040518060400160405280600381526020017f75726c000000000000000000000000000000000000000000000000000000000081525086836123fb9092919063ffffffff16565b61227a6040518060400160405280600481526020017f706174680000000000000000000000000000000000000000000000000000000081525085836123fb9092919063ffffffff16565b6122c46040518060400160405280600581526020017f74696d6573000000000000000000000000000000000000000000000000000000815250848361242e9092919063ffffffff16565b6122cf888288612461565b9150509695505050505050565b60606122e785612481565b6122f085611568565b6122f985612481565b612302856112c7565b6040516020016123159493929190613899565b6040516020818303038152906040529050949350505050565b606061234c670de0b6b3a76400008a6123479190613e28565b612481565b612368670de0b6b3a76400008a6123639190613e28565b612481565b61237189612481565b61237a89612481565b61238389612481565b61238c89612481565b8861239689612481565b6040516020016123ad989796959493929190613903565b604051602081830303815290604052905098975050505050505050565b6123d2612ef6565b6123da612ef6565b6123f1858585846125e2909392919063ffffffff16565b9150509392505050565b61241282846080015161269290919063ffffffff16565b61242981846080015161269290919063ffffffff16565b505050565b61244582846080015161269290919063ffffffff16565b61245c8184608001516126b790919063ffffffff16565b505050565b60006124788484846001634042994660e01b612764565b90509392505050565b606060008214156124c9576040518060400160405280600181526020017f300000000000000000000000000000000000000000000000000000000000000081525090506125dd565b600082905060005b600082146124fb5780806124e4906142a8565b915050600a826124f49190613e28565b91506124d1565b60008167ffffffffffffffff8111156125175761251661443b565b5b6040519080825280601f01601f1916602001820160405280156125495781602001600182028036833780820191505090505b5090505b600085146125d65760018261256291906140b8565b9150600a85612571919061431f565b603061257d9190613dd2565b60f81b8183815181106125935761259261440c565b5b60200101907effffffffffffffffffffffffffffffffffffffffffffffffffffffffffffff1916908160001a905350600a856125cf9190613e28565b945061254d565b8093505050505b919050565b6125ea612ef6565b6125fa85608001516101006129cc565b508385600001818152505082856020019073ffffffffffffffffffffffffffffffffffffffff16908173ffffffffffffffffffffffffffffffffffffffff16815250508185604001907bffffffffffffffffffffffffffffffffffffffffffffffffffffffff191690817bffffffffffffffffffffffffffffffffffffffffffffffffffffffff191681525050849050949350505050565b61269f8260038351612a36565b6126b28183612b7b90919063ffffffff16565b505050565b7fffffffffffffffffffffffffffffffffffffffffffffffff00000000000000008112156126ee576126e98282612b9d565b612760565b67ffffffffffffffff81131561270d576127088282612c14565b61275f565b600081126127265761272182600083612a36565b61275e565b61275d826001837fffffffffffffffffffffffffffffffffffffffffffffffffffffffffffffffff6127589190614024565b612a36565b5b5b5b5050565b60003060045460405160200161277b929190613800565b604051602081830303815290604052805190602001209050600454856060018181525050856005600083815260200190815260200160002060006101000a81548173ffffffffffffffffffffffffffffffffffffffff021916908373ffffffffffffffffffffffffffffffffffffffff160217905550807fb5e6e01e79f91267dc17b4e6314d5d4d03593d2ceee0fbb452b750bd70ea5af960405160405180910390a2600082600080886000015189602001518a604001518b606001518a8d60800151600001516040516024016128599897969594939291906139f3565b604051602081830303815290604052907bffffffffffffffffffffffffffffffffffffffffffffffffffffffff19166020820180517bffffffffffffffffffffffffffffffffffffffffffffffffffffffff83818316178352505050509050600260009054906101000a900473ffffffffffffffffffffffffffffffffffffffff1673ffffffffffffffffffffffffffffffffffffffff16634000aea08887846040518463ffffffff1660e01b815260040161291793929190613a78565b602060405180830381600087803b15801561293157600080fd5b505af1158015612945573d6000803e3d6000fd5b505050506040513d601f19601f820116820180604052508101906129699190613110565b6129a8576040517f08c379a000000000000000000000000000000000000000000000000000000000815260040161299f90613bc9565b60405180910390fd5b6001600460008282546129bb9190613dd2565b925050819055505095945050505050565b6129d4612f63565b60006020836129e3919061431f565b14612a0f576020826129f5919061431f565b6020612a0191906140b8565b82612a0c9190613dd2565b91505b81836020018181525050604051808452600081528281016020016040525082905092915050565b60178111612a6357612a5d8160058460ff16901b60ff161784612c6090919063ffffffff16565b50612b76565b60ff8111612aa557612a88601860058460ff16901b1784612c6090919063ffffffff16565b50612a9f81600185612c809092919063ffffffff16565b50612b75565b61ffff8111612ae857612acb601960058460ff16901b1784612c6090919063ffffffff16565b50612ae281600285612c809092919063ffffffff16565b50612b74565b63ffffffff8111612b2d57612b10601a60058460ff16901b1784612c6090919063ffffffff16565b50612b2781600485612c809092919063ffffffff16565b50612b73565b67ffffffffffffffff8111612b7257612b59601b60058460ff16901b1784612c6090919063ffffffff16565b50612b7081600885612c809092919063ffffffff16565b505b5b5b5b5b505050565b612b83612f63565b612b9583846000015151848551612ca2565b905092915050565b612bbb60036005600660ff16901b1783612c6090919063ffffffff16565b50612c1082827fffffffffffffffffffffffffffffffffffffffffffffffffffffffffffffffff612bec9190614024565b604051602001612bfc9190613ca9565b604051602081830303815290604052612dac565b5050565b612c3260026005600660ff16901b1783612c6090919063ffffffff16565b50612c5c8282604051602001612c489190613ca9565b604051602081830303815290604052612dac565b5050565b612c68612f63565b612c788384600001515184612dd1565b905092915050565b612c88612f63565b612c99848560000151518585612e28565b90509392505050565b612caa612f63565b8251821115612cb857600080fd5b84602001518285612cc99190613dd2565b1115612cfe57612cfd856002612cee88602001518887612ce99190613dd2565b612eb6565b612cf89190613fca565b612ed2565b5b600080865180518760208301019350808887011115612d1d5787860182525b60208701925050505b60208410612d645780518252602082612d3f9190613dd2565b9150602081612d4e9190613dd2565b9050602084612d5d91906140b8565b9350612d26565b60006001856020612d7591906140b8565b610100612d829190613eac565b612d8c91906140b8565b905080198251168184511681811785525050879350505050949350505050565b612db98260028351612a36565b612dcc8183612b7b90919063ffffffff16565b505050565b612dd9612f63565b83602001518310612dff57612dfe8460028660200151612df99190613fca565b612ed2565b5b8351805160208583010184815381861415612e1b576001820183525b5050508390509392505050565b612e30612f63565b84602001518483612e419190613dd2565b1115612e6957612e688560028685612e599190613dd2565b612e639190613fca565b612ed2565b5b6000600183610100612e7b9190613eac565b612e8591906140b8565b90508551838682010185831982511617815281518588011115612ea85784870182525b505085915050949350505050565b600081831115612ec857829050612ecc565b8190505b92915050565b600082600001519050612ee583836129cc565b50612ef08382612b7b565b50505050565b6040518060a0016040528060008019168152602001600073ffffffffffffffffffffffffffffffffffffffff16815260200160007bffffffffffffffffffffffffffffffffffffffffffffffffffffffff1916815260200160008152602001612f5d612f63565b81525090565b604051806040016040528060608152602001600081525090565b6000612f90612f8b84613d49565b613d24565b905082815260208101848484011115612fac57612fab61446f565b5b612fb78482856141d9565b509392505050565b600081359050612fce81614913565b92915050565b600081359050612fe38161492a565b92915050565b600081519050612ff88161492a565b92915050565b60008135905061300d81614941565b92915050565b600082601f8301126130285761302761446a565b5b8135613038848260208601612f7d565b91505092915050565b60008135905061305081614958565b92915050565b60006020828403121561306c5761306b614479565b5b600061307a84828501612fbf565b91505092915050565b60008060008060008060c087890312156130a05761309f614479565b5b60006130ae89828a01612fbf565b96505060206130bf89828a01613041565b95505060406130d089828a01613041565b94505060606130e189828a01613041565b93505060806130f289828a01613041565b92505060a061310389828a01613041565b9150509295509295509295565b60006020828403121561312657613125614479565b5b600061313484828501612fe9565b91505092915050565b60006020828403121561315357613152614479565b5b600061316184828501612ffe565b91505092915050565b6000806040838503121561318157613180614479565b5b600061318f85828601612ffe565b92505060206131a085828601613041565b9150509250929050565b6000602082840312156131c0576131bf614479565b5b60006131ce84828501613041565b91505092915050565b600080600080600060a086880312156131f3576131f2614479565b5b600061320188828901613041565b955050602086013567ffffffffffffffff81111561322257613221614474565b5b61322e88828901613013565b945050604086013567ffffffffffffffff81111561324f5761324e614474565b5b61325b88828901613013565b935050606086013567ffffffffffffffff81111561327c5761327b614474565b5b61328888828901613013565b925050608061329988828901612fd4565b9150509295509295909350565b600080600080608085870312156132c0576132bf614479565b5b60006132ce87828801613041565b94505060206132df87828801613041565b93505060406132f087828801612fbf565b925050606061330187828801612ffe565b91505092959194509250565b61331681614120565b82525050565b61332d61332882614120565b6142f1565b82525050565b61333c8161413e565b82525050565b61334b81614148565b82525050565b600061335c82613d8f565b6133668185613da5565b93506133768185602086016141e8565b61337f8161447e565b840191505092915050565b61339b613396826141b5565b6142f1565b82525050565b60006133ac82613d9a565b6133b68185613db6565b93506133c68185602086016141e8565b6133cf8161447e565b840191505092915050565b60006133e582613d9a565b6133ef8185613dc7565b93506133ff8185602086016141e8565b80840191505092915050565b6000815461341881614245565b6134228186613dc7565b9450600182166000811461343d576001811461344e57613481565b60ff19831686528186019350613481565b61345785613d7a565b60005b838110156134795781548189015260018201915060208101905061345a565b838801955050505b50505092915050565b6000613497602083613db6565b91506134a2826144a9565b602082019050919050565b60006134ba600e83613dc7565b91506134c5826144d2565b600e82019050919050565b60006134dd600b83613dc7565b91506134e8826144fb565b600b82019050919050565b6000613500601183613dc7565b915061350b82614524565b601182019050919050565b6000613523600783613dc7565b915061352e8261454d565b600782019050919050565b6000613546602383613db6565b915061355182614576565b604082019050919050565b6000613569600e83613dc7565b9150613574826145c5565b600e82019050919050565b600061358c601283613dc7565b9150613597826145ee565b601282019050919050565b60006135af602283613db6565b91506135ba82614617565b604082019050919050565b60006135d2600b83613dc7565b91506135dd82614666565b600b82019050919050565b60006135f5600b83613dc7565b91506136008261468f565b600b82019050919050565b6000613618601783613db6565b9150613623826146b8565b602082019050919050565b600061363b600183613dc7565b9150613646826146e1565b600182019050919050565b600061365e600b83613dc7565b91506136698261470a565b600b82019050919050565b6000613681601283613dc7565b915061368c82614733565b601282019050919050565b60006136a4601183613dc7565b91506136af8261475c565b601182019050919050565b60006136c7602983613db6565b91506136d282614785565b604082019050919050565b60006136ea600c83613dc7565b91506136f5826147d4565b600c82019050919050565b600061370d602583613db6565b9150613718826147fd565b604082019050919050565b6000613730601083613dc7565b915061373b8261484c565b601082019050919050565b6000613753603e83613db6565b915061375e82614875565b604082019050919050565b6000613776602883613db6565b9150613781826148c4565b604082019050919050565b6137958161419e565b82525050565b6137ac6137a78261419e565b614315565b82525050565b60006137be828761331c565b6014820191506137ce828661379b565b6020820191506137de828561379b565b6020820191506137ee828461379b565b60208201915081905095945050505050565b600061380c828561338a565b60148201915061381c828461379b565b6020820191508190509392505050565b600061383882866133da565b915061384482856133da565b915061385082846133da565b9150819050949350505050565b6000613869828661340b565b915061387582856133da565b915061388082613651565b915061388c82846133da565b9150819050949350505050565b60006138a482613516565b91506138b082876133da565b91506138bb826134ad565b91506138c782866133da565b91506138d28261355c565b91506138de82856133da565b91506138e9826134f3565b91506138f582846133da565b915081905095945050505050565b600061390e826136dd565b915061391a828b6133da565b9150613925826134d0565b9150613931828a6133da565b915061393c82613697565b915061394882896133da565b915061395382613674565b915061395f82886133da565b915061396a82613723565b915061397682876133da565b9150613981826135e8565b915061398d82866133da565b9150613998826135c5565b91506139a482856133da565b91506139af8261357f565b91506139bb82846133da565b91506139c68261362e565b91508190509998505050505050505050565b60006020820190506139ed600083018461330d565b92915050565b600061010082019050613a09600083018b61330d565b613a16602083018a61378c565b613a236040830189613333565b613a30606083018861330d565b613a3d6080830187613342565b613a4a60a083018661378c565b613a5760c083018561378c565b81810360e0830152613a698184613351565b90509998505050505050505050565b6000606082019050613a8d600083018661330d565b613a9a602083018561378c565b8181036040830152613aac8184613351565b9050949350505050565b6000602082019050613acb6000830184613333565b92915050565b6000604082019050613ae66000830185613333565b613af36020830184613333565b9392505050565b600061012082019050613b10600083018c613333565b613b1d602083018b61378c565b613b2a604083018a61330d565b613b37606083018961378c565b613b44608083018861378c565b613b5160a083018761378c565b613b5e60c083018661378c565b613b6b60e083018561378c565b613b7961010083018461378c565b9a9950505050505050505050565b60006020820190508181036000830152613ba181846133a1565b905092915050565b60006020820190508181036000830152613bc28161348a565b9050919050565b60006020820190508181036000830152613be281613539565b9050919050565b60006020820190508181036000830152613c02816135a2565b9050919050565b60006020820190508181036000830152613c228161360b565b9050919050565b60006020820190508181036000830152613c42816136ba565b9050919050565b60006020820190508181036000830152613c6281613700565b9050919050565b60006020820190508181036000830152613c8281613746565b9050919050565b60006020820190508181036000830152613ca281613769565b9050919050565b6000602082019050613cbe600083018461378c565b92915050565b6000604082019050613cd9600083018561378c565b613ce6602083018461378c565b9392505050565b6000606082019050613d02600083018661378c565b613d0f602083018561378c565b613d1c604083018461330d565b949350505050565b6000613d2e613d3f565b9050613d3a8282614277565b919050565b6000604051905090565b600067ffffffffffffffff821115613d6457613d6361443b565b5b613d6d8261447e565b9050602081019050919050565b60008190508160005260206000209050919050565b600081519050919050565b600081519050919050565b600082825260208201905092915050565b600082825260208201905092915050565b600081905092915050565b6000613ddd8261419e565b9150613de88361419e565b9250827fffffffffffffffffffffffffffffffffffffffffffffffffffffffffffffffff03821115613e1d57613e1c614350565b5b828201905092915050565b6000613e338261419e565b9150613e3e8361419e565b925082613e4e57613e4d61437f565b5b828204905092915050565b6000808291508390505b6001851115613ea357808604811115613e7f57613e7e614350565b5b6001851615613e8e5780820291505b8081029050613e9c8561449c565b9450613e63565b94509492505050565b6000613eb78261419e565b9150613ec28361419e565b9250613eef7fffffffffffffffffffffffffffffffffffffffffffffffffffffffffffffffff8484613ef7565b905092915050565b600082613f075760019050613fc3565b81613f155760009050613fc3565b8160018114613f2b5760028114613f3557613f64565b6001915050613fc3565b60ff841115613f4757613f46614350565b5b8360020a915084821115613f5e57613f5d614350565b5b50613fc3565b5060208310610133831016604e8410600b8410161715613f995782820a905083811115613f9457613f93614350565b5b613fc3565b613fa68484846001613e59565b92509050818404811115613fbd57613fbc614350565b5b81810290505b9392505050565b6000613fd58261419e565b9150613fe08361419e565b9250817fffffffffffffffffffffffffffffffffffffffffffffffffffffffffffffffff048311821515161561401957614018614350565b5b828202905092915050565b600061402f82614174565b915061403a83614174565b9250827f80000000000000000000000000000000000000000000000000000000000000000182126000841215161561407557614074614350565b5b827f7fffffffffffffffffffffffffffffffffffffffffffffffffffffffffffffff0182136000841216156140ad576140ac614350565b5b828203905092915050565b60006140c38261419e565b91506140ce8361419e565b9250828210156140e1576140e0614350565b5b828203905092915050565b60006140f7826141a8565b9150614102836141a8565b92508282101561411557614114614350565b5b828203905092915050565b600061412b8261417e565b9050919050565b60008115159050919050565b6000819050919050565b60007fffffffff0000000000000000000000000000000000000000000000000000000082169050919050565b6000819050919050565b600073ffffffffffffffffffffffffffffffffffffffff82169050919050565b6000819050919050565b600060ff82169050919050565b60006141c0826141c7565b9050919050565b60006141d28261417e565b9050919050565b82818337600083830152505050565b60005b838110156142065780820151818401526020810190506141eb565b83811115614215576000848401525b50505050565b60006142268261419e565b9150600082141561423a57614239614350565b5b600182039050919050565b6000600282049050600182168061425d57607f821691505b60208210811415614271576142706143dd565b5b50919050565b6142808261447e565b810181811067ffffffffffffffff8211171561429f5761429e61443b565b5b80604052505050565b60006142b38261419e565b91507fffffffffffffffffffffffffffffffffffffffffffffffffffffffffffffffff8214156142e6576142e5614350565b5b600182019050919050565b60006142fc82614303565b9050919050565b600061430e8261448f565b9050919050565b6000819050919050565b600061432a8261419e565b91506143358361419e565b9250826143455761434461437f565b5b828206905092915050565b7f4e487b7100000000000000000000000000000000000000000000000000000000600052601160045260246000fd5b7f4e487b7100000000000000000000000000000000000000000000000000000000600052601260045260246000fd5b7f4e487b7100000000000000000000000000000000000000000000000000000000600052602160045260246000fd5b7f4e487b7100000000000000000000000000000000000000000000000000000000600052602260045260246000fd5b7f4e487b7100000000000000000000000000000000000000000000000000000000600052603260045260246000fd5b7f4e487b7100000000000000000000000000000000000000000000000000000000600052604160045260246000fd5b600080fd5b600080fd5b600080fd5b600080fd5b6000601f19601f8301169050919050565b60008160601b9050919050565b60008160011c9050919050565b7f537472696e67733a20686578206c656e67746820696e73756666696369656e74600082015250565b7f3a200a7b506f6c69637949643a20000000000000000000000000000000000000600082015250565b7f2c200a5061796f66663a20000000000000000000000000000000000000000000600082015250565b7f2c200a4275796572416464726573733a20000000000000000000000000000000600082015250565b7f0a506f6c69637900000000000000000000000000000000000000000000000000600082015250565b7f756e61626c6520746f207472616e73666572416e6443616c6c20746f206f726160008201527f636c650000000000000000000000000000000000000000000000000000000000602082015250565b7f2c200a50726f6475637449643a20000000000000000000000000000000000000600082015250565b7f2c200a44656c617920526573756c74733a200000000000000000000000000000600082015250565b7f4552524f523a3a54494d455f544f5f4445504152545552455f544f4f5f534d4160008201527f4c4c000000000000000000000000000000000000000000000000000000000000602082015250565b7f2c200a4973557365643a20000000000000000000000000000000000000000000600082015250565b7f2c200a5374617475733a20000000000000000000000000000000000000000000600082015250565b7f6e6f20706f6c69637920666f7220746869732075736572000000000000000000600082015250565b7f7d00000000000000000000000000000000000000000000000000000000000000600082015250565b7f2f74696d657374616d703d000000000000000000000000000000000000000000600082015250565b7f2c200a446570617274757265446174653a200000000000000000000000000000600082015250565b7f2c200a5075726368617365446174653a20000000000000000000000000000000600082015250565b7f63616e206f6e6c7920636c61696d206120706f6c69637920616674657220697460008201527f73206c616e64696e670000000000000000000000000000000000000000000000602082015250565b7f2c200a5072656d69756d3a200000000000000000000000000000000000000000600082015250565b7f6f6e6c7920746865206f776e65722063616e2063616c6c20746869732066756e60008201527f6374696f6e000000000000000000000000000000000000000000000000000000602082015250565b7f2c200a4c616e64696e67446174653a2000000000000000000000000000000000600082015250565b7f54686520706f6c69637920686173206265656e2066696e616c20636865636b6560008201527f642c206f7220796f75206e65656420746f20666f726365207570646174650000602082015250565b7f536f75726365206d75737420626520746865206f7261636c65206f662074686560008201527f2072657175657374000000000000000000000000000000000000000000000000602082015250565b61491c81614120565b811461492757600080fd5b50565b61493381614132565b811461493e57600080fd5b50565b61494a8161413e565b811461495557600080fd5b50565b6149618161419e565b811461496c57600080fd5b5056fea2646970667358221220d9e9e5f68a4331c49d9311cd0d9575f6278945640a3fe633f1b63979fc977bfa64736f6c63430008050033",
  "immutableReferences": {},
  "source": "// SPDX-License-Identifier: MIT\r\npragma solidity ^0.8.0;\r\n\r\nimport \"./libraries/PolicyTypes.sol\";\r\nimport \"./libraries/ToStrings.sol\";\r\nimport \"./interfaces/IInsurancePool.sol\";\r\nimport \"@chainlink/contracts/src/v0.8/ChainlinkClient.sol\";\r\nimport \"@openzeppelin/contracts/utils/Strings.sol\";\r\nimport \"./interfaces/IPolicyToken.sol\";\r\n\r\ncontract PolicyFlow is ChainlinkClient, PolicyTypes, ToStrings {\r\n    using Chainlink for Chainlink.Request;\r\n    using Strings for uint256;\r\n\r\n    uint256 public oracleResponse; // A test variable to store the oracle address\r\n    uint256 fee;\r\n    string private FLIGHT_STATUS_URL = \"http://39.101.132.228:8000/live/\";\r\n    address private oracleAddress;\r\n    bytes32 private jobId;\r\n\r\n    mapping(bytes32 => uint256) requestList; // requestId => total order\r\n    mapping(uint256 => uint256) resultList; // total order => delay result\r\n\r\n    address public owner;\r\n    IInsurancePool insurancePool;\r\n    IPolicyToken policyToken;\r\n\r\n    // Minimum time before departure for applying\r\n    uint256 public constant MIN_TIME_BEFORE_DEPARTURE = 24 hours;\r\n    uint256 public DELAY_THRESHOLD = 240;\r\n    uint256 public Total_Policies;\r\n\r\n    // Mappings\r\n    mapping(bytes32 => PolicyInfo) policyList; // policyId => policyInfo\r\n    mapping(uint256 => bytes32) policyOrderList; // total order => policyId\r\n\r\n    mapping(address => uint256[]) userPolicy; // uint256[]: those totalOrders of a user\r\n    mapping(address => uint256) userPolicyCount; // userAddress => user policy amount\r\n\r\n    // Constructor Function\r\n    constructor(\r\n        IInsurancePool _insurancePool,\r\n        IPolicyToken _policyToken,\r\n        address _oracleAddress\r\n    ) {\r\n        // set owner address\r\n        owner = msg.sender;\r\n\r\n        // set two interfaces' addresses\r\n        insurancePool = _insurancePool;\r\n        policyToken = _policyToken;\r\n\r\n        // set oracle\r\n        oracleAddress = _oracleAddress;\r\n        jobId = \"cef74a7ff7ea4194ab97f00c89abef6b\";\r\n\r\n        setPublicChainlinkToken();\r\n        fee = 1 * 10**18; // 1 LINK\r\n\r\n        // Initialized the count (do not need to initialize)\r\n        Total_Policies = 0;\r\n    }\r\n\r\n    // ************************************ Modifiers ************************************ //\r\n\r\n    modifier onlyOracle() {\r\n        require(\r\n            msg.sender == oracleAddress,\r\n            \"only the oracle can call this function\"\r\n        );\r\n        _;\r\n    }\r\n    modifier onlyOwner() {\r\n        require(msg.sender == owner, \"only the owner can call this function\");\r\n        _;\r\n    }\r\n\r\n    // ************************************ View Functions ************************************ //\r\n\r\n    /**\r\n     * @notice Returns the address of the LINK token\r\n     * @dev This is the public implementation for chainlinkTokenAddress, which is\r\n     * an internal method of the ChainlinkClient contract\r\n     */\r\n    function getChainlinkToken() public view returns (address) {\r\n        return chainlinkTokenAddress();\r\n    }\r\n\r\n    /**\r\n     * @notice show a user's policies (all)\r\n     * @param _userAddress: user's address (buyer)\r\n     * @return user's policy details\r\n     */\r\n    function viewPolicy(address _userAddress)\r\n        public\r\n        view\r\n        returns (string memory)\r\n    {\r\n        require(userPolicyCount[_userAddress] > 0, \"no policy for this user\");\r\n\r\n        uint256 policyCount = userPolicyCount[_userAddress];\r\n        string memory result = \" \";\r\n        for (uint256 i = 0; i < policyCount; i++) {\r\n            uint256 policyOrder = userPolicy[_userAddress][i];\r\n\r\n            bytes32 policyid = policyOrderList[policyOrder];\r\n\r\n            string memory isUsed = policyList[policyid].isUsed\r\n                ? \"used\"\r\n                : \"not used\";\r\n\r\n            string memory result1 = encodePack1(\r\n                i,\r\n                policyid,\r\n                policyList[policyid].productId,\r\n                policyList[policyid].buyerAddress\r\n            );\r\n            string memory result2 = encodePack2(\r\n                policyList[policyid].premium,\r\n                policyList[policyid].payoff,\r\n                policyList[policyid].purchaseDate,\r\n                policyList[policyid].departureDate,\r\n                policyList[policyid].landingDate,\r\n                uint256(policyList[policyid].status),\r\n                isUsed,\r\n                policyList[policyid].delayResult\r\n            );\r\n\r\n            result = string(abi.encodePacked(result, result1, result2));\r\n\r\n            // result = string(\r\n            //     abi.encodePacked(\r\n            //         result,\r\n            //         string(\r\n            //             abi.encodePacked(\r\n            //                 \"\\nPolicy\",\r\n            //                 i.toString(),\r\n            //                 \": \\n{PolicyId: \",\r\n            //                 bytes32ToString(policyid),\r\n            //                 \", \\nProductId: \",\r\n            //                 policyList[policyid].productId.toString(),\r\n            //                 \", \\nBuyerAddress: \",\r\n            //                 addressToString(policyList[policyid].buyerAddress),\r\n            //                 \", \\nPremium: \",\r\n            //                 (policyList[policyid].premium / 10**18).toString(),\r\n            //                 \", \\nPayoff: \",\r\n            //                 (policyList[policyid].payoff / 10**18).toString(),\r\n            //                 \", \\nPurchaseDate: \",\r\n            //                 (policyList[policyid].purchaseDate).toString(),\r\n            //                 \", \\nDepartureDate: \",\r\n            //                 (policyList[policyid].departureDate).toString(),\r\n            //                 \", \\nLandingDate: \",\r\n            //                 (policyList[policyid].landingDate).toString(),\r\n            //                 \", \\nStatus: \",\r\n            //                 uint256(policyList[policyid].status).toString(),\r\n            //                 \", \\nIsUsed: \",\r\n            //                 isUsed,\r\n            //                 \", \\nDelay Results: \",\r\n            //                 policyList[policyid].delayResult.toString(),\r\n            //                 \"}\"\r\n            //             )\r\n            //         )\r\n            //     )\r\n            // );\r\n        }\r\n        return result;\r\n    }\r\n\r\n    /**\r\n     * @notice get the policyId (bytes32) from its count/order\r\n     * @param _count: total count\r\n     * @return policyId (bytes32)\r\n     */\r\n    function getPolicyIdByCount(uint256 _count) public view returns (bytes32) {\r\n        return policyOrderList[_count];\r\n    }\r\n\r\n    /**\r\n     * @notice get the policyInfo from its count/order\r\n     * @param _count: total count\r\n     */\r\n    function getPolicyInfoByCount(uint256 _count)\r\n        public\r\n        view\r\n        returns (\r\n            bytes32 _policyId,\r\n            uint256 _productId,\r\n            address _owner,\r\n            uint256 _premium,\r\n            uint256 _payoff,\r\n            uint256 _purchaseDate,\r\n            uint256 _departureDate,\r\n            uint256 _landingDate,\r\n            uint256 _policyStatus\r\n        )\r\n    {\r\n        bytes32 policyId = policyOrderList[_count];\r\n        return (\r\n            policyId,\r\n            policyList[policyId].productId,\r\n            policyList[policyId].buyerAddress,\r\n            policyList[policyId].premium,\r\n            policyList[policyId].payoff,\r\n            policyList[policyId].purchaseDate,\r\n            policyList[policyId].departureDate,\r\n            policyList[policyId].landingDate,\r\n            uint256(policyList[policyId].status)\r\n        );\r\n    }\r\n\r\n    /**\r\n     * @notice get a user's policy amount\r\n     * @param _userAddress: user's address\r\n     */\r\n    function getUserPolicyCount(address _userAddress)\r\n        public\r\n        view\r\n        returns (uint256)\r\n    {\r\n        return userPolicyCount[_userAddress];\r\n    }\r\n\r\n    /**\r\n     * @notice get the policy buyer by policyId\r\n     */\r\n    function findPolicyBuyerById(bytes32 _policyId)\r\n        public\r\n        view\r\n        returns (address)\r\n    {\r\n        return policyList[_policyId].buyerAddress;\r\n    }\r\n\r\n    // ************************************ Helper Functions ************************************ //\r\n\r\n    /**\r\n     * @notice change the job id\r\n     * @param _jobId: new job Id\r\n     */\r\n    function changeJobId(bytes32 _jobId) public onlyOwner {\r\n        jobId = _jobId;\r\n    }\r\n\r\n    /**\r\n     * @notice change the oracle fee\r\n     * @param _fee: new fee\r\n     */\r\n    function changeFee(uint256 _fee) public onlyOwner {\r\n        fee = _fee;\r\n    }\r\n\r\n    /**\r\n     * @notice change the oracle address\r\n     * @param _oracleAddress: new oracle address\r\n     */\r\n    function changeOrcaleAddress(address _oracleAddress) public onlyOwner {\r\n        oracleAddress = _oracleAddress;\r\n    }\r\n\r\n    /**\r\n     * @notice set the new delay threshold\r\n     */\r\n    function setDelayThreshold(uint256 _threshold) public onlyOwner {\r\n        DELAY_THRESHOLD = _threshold;\r\n    }\r\n\r\n    // ************************************ Main Functions ************************************ //\r\n\r\n    /**\r\n     * @notice start a new policy application\r\n     * @param _userAddress: user's address (buyer)\r\n     * @param _productId: ID of the purchased product (0: flightdelay; 1,2,3...: others) (different products)\r\n     * @param _premium: premium of this policy (decimal 18)\r\n     * @param _payoff: payoff of this policy (decimal 18)\r\n     * @param _departureDate: expiry date of this policy (unix timestamp)\r\n     */\r\n    function newApplication(\r\n        address _userAddress,\r\n        uint256 _productId,\r\n        uint256 _premium,\r\n        uint256 _payoff,\r\n        uint256 _departureDate,\r\n        uint256 _landingDate\r\n    ) public returns (bytes32 _policyId) {\r\n        // Check the buying time not too close to the departure time\r\n        require(\r\n            _departureDate >= block.timestamp + MIN_TIME_BEFORE_DEPARTURE,\r\n            \"ERROR::TIME_TO_DEPARTURE_TOO_SMALL\"\r\n        );\r\n        // Generate the unique policyId\r\n        bytes32 TEMP_policyId = keccak256(\r\n            abi.encodePacked(\r\n                _userAddress,\r\n                _productId,\r\n                _departureDate,\r\n                Total_Policies\r\n            )\r\n        );\r\n        uint256 TEMP_purchaseDate = block.timestamp;\r\n\r\n        // Generate the policy\r\n        policyList[TEMP_policyId] = PolicyInfo(\r\n            _productId,\r\n            _userAddress,\r\n            Total_Policies,\r\n            TEMP_policyId,\r\n            _premium,\r\n            _payoff,\r\n            TEMP_purchaseDate,\r\n            _departureDate,\r\n            _landingDate,\r\n            PolicyStatus.INI,\r\n            false,\r\n            404\r\n        );\r\n\r\n        // Store the policy's total order with userAddress\r\n        userPolicy[_userAddress].push(Total_Policies);\r\n        // Update the user's policy amount\r\n        userPolicyCount[_userAddress] += 1;\r\n        // Update the policyOrderList\r\n        policyOrderList[Total_Policies] = TEMP_policyId;\r\n        // Update total policies\r\n        Total_Policies += 1;\r\n\r\n        emit newPolicyApplication(TEMP_policyId, _userAddress);\r\n\r\n        // Check the policy with the insurance pool status\r\n        // May be accepted or rejected\r\n        policyCheck(_premium, _payoff, _userAddress, TEMP_policyId);\r\n\r\n        return TEMP_policyId;\r\n    }\r\n\r\n    /**\r\n     * @notice check the policy and then determine whether we can afford it\r\n     * @param _premium: the premium of the policy sold\r\n     * @param _payoff: the payoff of the policy sold\r\n     * @param _userAddress: user's address\r\n     * @param _policyId: the unique policy ID\r\n     */\r\n    function policyCheck(\r\n        uint256 _premium,\r\n        uint256 _payoff,\r\n        address _userAddress,\r\n        bytes32 _policyId\r\n    ) public {\r\n        // Whether there are enough capacity in the pool\r\n        bool _isAccepted = insurancePool.updateWhenBuy(\r\n            _premium,\r\n            _payoff,\r\n            _userAddress\r\n        );\r\n        if (_isAccepted) {\r\n            policyList[_policyId].status = PolicyStatus.SOLD;\r\n            emit PolicySold(_policyId, _userAddress);\r\n\r\n            policyToken.mintPolicyToken(_userAddress);\r\n        } else {\r\n            policyList[_policyId].status = PolicyStatus.DECLINED;\r\n            emit PolicyDeclined(_policyId, _userAddress);\r\n        }\r\n    }\r\n\r\n    /**\r\n     * @notice update the policy when it is expired\r\n     * @param _premium: the premium of the policy sold\r\n     * @param _payoff: the payoff of the policy sold\r\n     * @param _userAddress: user's address\r\n     * @param _policyId: the unique policy ID\r\n     */\r\n    function policyExpired(\r\n        uint256 _premium,\r\n        uint256 _payoff,\r\n        address _userAddress,\r\n        bytes32 _policyId\r\n    ) public {\r\n        require(\r\n            block.timestamp >= policyList[_policyId].landingDate,\r\n            \"can only claim a policy after its landing\"\r\n        );\r\n        insurancePool.updateWhenExpire(_premium, _payoff);\r\n        policyList[_policyId].status = PolicyStatus.EXPIRED;\r\n        emit PolicyExpired(_policyId, _userAddress);\r\n    }\r\n\r\n    /**\r\n     * @notice update the policy when it is claimed\r\n     * @param _payoff: the payoff of the policy sold\r\n     * @param _userAddress: user's address\r\n     * @param _policyId: the unique policy ID\r\n     */\r\n    function policyClaimed(\r\n        uint256 _premium,\r\n        uint256 _payoff,\r\n        address _userAddress,\r\n        bytes32 _policyId\r\n    ) public {\r\n        require(\r\n            block.timestamp >= policyList[_policyId].landingDate,\r\n            \"can only claim a policy after its landing\"\r\n        );\r\n        insurancePool.payClaim(_premium, _payoff, _userAddress);\r\n        policyList[_policyId].status = PolicyStatus.CLAIMED;\r\n        emit PolicyClaimed(_policyId, _userAddress);\r\n    }\r\n\r\n    /** @notice calculate the flight status\r\n     *  @param _policyOrder The total order of the policy\r\n     *  @param _flightNumber The flight number\r\n     *  @param _date The flight date\r\n     *  @param _path Which data in json needs to get\r\n     *  @param _forceUpdate Owner can force to update\r\n     */\r\n    function calculateFlightStatus(\r\n        uint256 _policyOrder,\r\n        string memory _flightNumber,\r\n        string memory _date,\r\n        string memory _path,\r\n        bool _forceUpdate\r\n    ) public {\r\n        bytes32 _policyId = policyOrderList[_policyOrder];\r\n        require(\r\n            (!policyList[_policyId].isUsed) ||\r\n                (_forceUpdate && (msg.sender == owner)),\r\n            \"The policy has been final checked, or you need to force update\"\r\n        );\r\n\r\n        string memory _url = string(\r\n            abi.encodePacked(\r\n                FLIGHT_STATUS_URL,\r\n                _flightNumber,\r\n                \"/timestamp=\",\r\n                _date\r\n            )\r\n        );\r\n        bytes32 requestId = createRequestTo(\r\n            oracleAddress,\r\n            jobId,\r\n            fee,\r\n            _url,\r\n            _path,\r\n            1\r\n        );\r\n        requestList[requestId] = _policyOrder;\r\n        policyList[_policyId].isUsed = true;\r\n    }\r\n\r\n    /**\r\n     * @notice Creates a request to the specified Oracle contract address\r\n     * @dev This function ignores the stored Oracle contract address and\r\n     * will instead send the request to the address specified\r\n     * @param _oracle The Oracle contract address to send the request to\r\n     * @param _jobId The bytes32 JobID to be executed\r\n     * @param _url The URL to fetch data from\r\n     * @param _path The dot-delimited path to parse of the response\r\n     * @param _times The number to multiply the result by\r\n     */\r\n    function createRequestTo(\r\n        address _oracle,\r\n        bytes32 _jobId,\r\n        uint256 _payment,\r\n        string memory _url,\r\n        string memory _path,\r\n        int256 _times\r\n    ) private returns (bytes32) {\r\n        Chainlink.Request memory req = buildChainlinkRequest(\r\n            _jobId,\r\n            address(this),\r\n            this.fulfill.selector\r\n        );\r\n        req.add(\"url\", _url);\r\n        req.add(\"path\", _path);\r\n        req.addInt(\"times\", _times);\r\n        return sendChainlinkRequestTo(_oracle, req, _payment);\r\n    }\r\n\r\n    /**\r\n     * @notice The fulfill method from requests created by this contract\r\n     * @dev The recordChainlinkFulfillment protects this function from being called\r\n     * by anyone other than the oracle address that the request was sent to\r\n     * @param _requestId The ID that was generated for the request\r\n     * @param _data The answer provided by the oracle\r\n     */\r\n    function fulfill(bytes32 _requestId, uint256 _data)\r\n        public\r\n        recordChainlinkFulfillment(_requestId)\r\n    {\r\n        oracleResponse = _data;\r\n\r\n        uint256 order = requestList[_requestId];\r\n        bytes32 policyId = policyOrderList[order];\r\n        policyList[policyId].delayResult = _data;\r\n\r\n        if (_data == 0) {\r\n            // 0: on time\r\n            policyExpired(\r\n                policyList[policyId].premium,\r\n                policyList[policyId].payoff,\r\n                policyList[policyId].buyerAddress,\r\n                policyId\r\n            );\r\n        } else if (_data <= DELAY_THRESHOLD) {\r\n            uint256 payoff = calcPayoff(_data);\r\n            if (payoff < policyList[policyId].payoff) {\r\n                policyClaimed(\r\n                    policyList[policyId].premium,\r\n                    payoff,\r\n                    policyList[policyId].buyerAddress,\r\n                    policyId\r\n                );\r\n            } else {\r\n                policyClaimed(\r\n                    policyList[policyId].premium,\r\n                    policyList[policyId].payoff,\r\n                    policyList[policyId].buyerAddress,\r\n                    policyId\r\n                );\r\n            }\r\n        } else if (_data == 400) {\r\n            // 400: cancelled\r\n            policyClaimed(\r\n                policyList[policyId].premium,\r\n                policyList[policyId].payoff,\r\n                policyList[policyId].buyerAddress,\r\n                policyId\r\n            );\r\n        } else {\r\n            policyExpired(\r\n                policyList[policyId].premium,\r\n                policyList[policyId].payoff,\r\n                policyList[policyId].buyerAddress,\r\n                policyId\r\n            );\r\n        }\r\n\r\n        emit FulfilledOracleRequest(policyId, _requestId);\r\n    }\r\n\r\n    /**\r\n     * @notice The payoff formula\r\n     * @param _delay Delay in minutes\r\n     * @return the final payoff volume\r\n     */\r\n    function calcPayoff(uint256 _delay) internal pure returns (uint256) {\r\n        uint256 payoff = 0;\r\n\r\n        // payoff model 1 - linear\r\n        if (_delay <= 60) {\r\n            payoff = _delay;\r\n        } else if (_delay > 60 && _delay <= 120) {\r\n            payoff = 60 + (_delay - 60) * 2;\r\n        } else if (_delay > 120 && _delay <= 240) {\r\n            payoff = 180 + (_delay - 120) * 3;\r\n        }\r\n\r\n        payoff = payoff * 1e18;\r\n        return payoff;\r\n    }\r\n\r\n    function encodePack1(\r\n        uint256 _order,\r\n        bytes32 _policyId,\r\n        uint256 _productId,\r\n        address _userAddress\r\n    ) internal pure returns (string memory _result1) {\r\n        _result1 = string(\r\n            abi.encodePacked(\r\n                \"\\nPolicy\",\r\n                _order.toString(),\r\n                \": \\n{PolicyId: \",\r\n                bytes32ToString(_policyId),\r\n                \", \\nProductId: \",\r\n                _productId.toString(),\r\n                \", \\nBuyerAddress: \",\r\n                addressToString(_userAddress)\r\n            )\r\n        );\r\n    }\r\n\r\n    function encodePack2(\r\n        uint256 _premium,\r\n        uint256 _payoff,\r\n        uint256 _purchaseDate,\r\n        uint256 _departureDate,\r\n        uint256 _landingDate,\r\n        uint256 _status,\r\n        string memory _isUsed,\r\n        uint256 _delayResult\r\n    ) internal pure returns (string memory _result2) {\r\n        _result2 = string(\r\n            abi.encodePacked(\r\n                \", \\nPremium: \",\r\n                (_premium / 10**18).toString(),\r\n                \", \\nPayoff: \",\r\n                (_payoff / 10**18).toString(),\r\n                \", \\nPurchaseDate: \",\r\n                (_purchaseDate).toString(),\r\n                \", \\nDepartureDate: \",\r\n                (_departureDate).toString(),\r\n                \", \\nLandingDate: \",\r\n                (_landingDate).toString(),\r\n                \", \\nStatus: \",\r\n                uint256(_status).toString(),\r\n                \", \\nIsUsed: \",\r\n                _isUsed,\r\n                \", \\nDelay Results: \",\r\n                _delayResult.toString(),\r\n                \"}\"\r\n            )\r\n        );\r\n    }\r\n}\r\n",
  "sourcePath": "D:\\src\\Degis-Contracts-1\\contracts\\PolicyFlow.sol",
  "compiler": {
    "name": "solc",
    "version": "0.8.5+commit.a4f2e591.Emscripten.clang"
  },
  "schemaVersion": "3.4.3",
  "updatedAt": "2021-09-18T13:58:28.134Z",
  "networkType": "ethereum",
  "devdoc": {
    "kind": "dev",
    "methods": {
      "addressToString(address)": {
        "params": {
          "_addr": ": input address"
        },
        "returns": {
          "_0": "string form of _addr"
        }
      },
      "bytes32ToHumanString(bytes32)": {
        "params": {
          "_bytes": ": input bytes32"
        },
        "returns": {
          "_0": "string form of _bytes"
        }
      },
      "bytes32ToString(bytes32)": {
        "params": {
          "_bytes": ": input bytes32"
        },
        "returns": {
          "_0": "string form of _bytes"
        }
      },
      "bytesToUint(bytes32)": {
        "params": {
          "s": "input bytes"
        },
        "returns": {
          "_0": "the number"
        }
      },
      "calculateFlightStatus(uint256,string,string,string,bool)": {
        "params": {
          "_date": "The flight date",
          "_flightNumber": "The flight number",
          "_forceUpdate": "Owner can force to update",
          "_path": "Which data in json needs to get",
          "_policyOrder": "The total order of the policy"
        }
      },
      "changeFee(uint256)": {
        "params": {
          "_fee": ": new fee"
        }
      },
      "changeJobId(bytes32)": {
        "params": {
          "_jobId": ": new job Id"
        }
      },
      "changeOrcaleAddress(address)": {
        "params": {
          "_oracleAddress": ": new oracle address"
        }
      },
      "fulfill(bytes32,uint256)": {
        "details": "The recordChainlinkFulfillment protects this function from being called by anyone other than the oracle address that the request was sent to",
        "params": {
          "_data": "The answer provided by the oracle",
          "_requestId": "The ID that was generated for the request"
        }
      },
      "getChainlinkToken()": {
        "details": "This is the public implementation for chainlinkTokenAddress, which is an internal method of the ChainlinkClient contract"
      },
      "getPolicyIdByCount(uint256)": {
        "params": {
          "_count": ": total count"
        },
        "returns": {
          "_0": "policyId (bytes32)"
        }
      },
      "getPolicyInfoByCount(uint256)": {
        "params": {
          "_count": ": total count"
        }
      },
      "getUserPolicyCount(address)": {
        "params": {
          "_userAddress": ": user's address"
        }
      },
      "newApplication(address,uint256,uint256,uint256,uint256,uint256)": {
        "params": {
          "_departureDate": ": expiry date of this policy (unix timestamp)",
          "_payoff": ": payoff of this policy (decimal 18)",
          "_premium": ": premium of this policy (decimal 18)",
          "_productId": ": ID of the purchased product (0: flightdelay; 1,2,3...: others) (different products)",
          "_userAddress": ": user's address (buyer)"
        }
      },
      "policyCheck(uint256,uint256,address,bytes32)": {
        "params": {
          "_payoff": ": the payoff of the policy sold",
          "_policyId": ": the unique policy ID",
          "_premium": ": the premium of the policy sold",
          "_userAddress": ": user's address"
        }
      },
      "policyClaimed(uint256,uint256,address,bytes32)": {
        "params": {
          "_payoff": ": the payoff of the policy sold",
          "_policyId": ": the unique policy ID",
          "_userAddress": ": user's address"
        }
      },
      "policyExpired(uint256,uint256,address,bytes32)": {
        "params": {
          "_payoff": ": the payoff of the policy sold",
          "_policyId": ": the unique policy ID",
          "_premium": ": the premium of the policy sold",
          "_userAddress": ": user's address"
        }
      },
      "viewPolicy(address)": {
        "params": {
          "_userAddress": ": user's address (buyer)"
        },
        "returns": {
          "_0": "user's policy details"
        }
      }
    },
    "version": 1
  },
  "userdoc": {
    "kind": "user",
    "methods": {
      "addressToString(address)": {
        "notice": "transfer an address to a string"
      },
      "bytes32ToHumanString(bytes32)": {
        "notice": "transfer bytes32 to string (human-readable form)"
      },
      "bytes32ToString(bytes32)": {
        "notice": "transfer bytes32 to string (not change the content)"
      },
      "bytesToUint(bytes32)": {
        "notice": "Transfer a bytes(ascii) to uint"
      },
      "calculateFlightStatus(uint256,string,string,string,bool)": {
        "notice": "calculate the flight status"
      },
      "changeFee(uint256)": {
        "notice": "change the oracle fee"
      },
      "changeJobId(bytes32)": {
        "notice": "change the job id"
      },
      "changeOrcaleAddress(address)": {
        "notice": "change the oracle address"
      },
      "findPolicyBuyerById(bytes32)": {
        "notice": "get the policy buyer by policyId"
      },
      "fulfill(bytes32,uint256)": {
        "notice": "The fulfill method from requests created by this contract"
      },
      "getChainlinkToken()": {
        "notice": "Returns the address of the LINK token"
      },
      "getPolicyIdByCount(uint256)": {
        "notice": "get the policyId (bytes32) from its count/order"
      },
      "getPolicyInfoByCount(uint256)": {
        "notice": "get the policyInfo from its count/order"
      },
      "getUserPolicyCount(address)": {
        "notice": "get a user's policy amount"
      },
      "newApplication(address,uint256,uint256,uint256,uint256,uint256)": {
        "notice": "start a new policy application"
      },
      "policyCheck(uint256,uint256,address,bytes32)": {
        "notice": "check the policy and then determine whether we can afford it"
      },
      "policyClaimed(uint256,uint256,address,bytes32)": {
        "notice": "update the policy when it is claimed"
      },
      "policyExpired(uint256,uint256,address,bytes32)": {
        "notice": "update the policy when it is expired"
      },
      "setDelayThreshold(uint256)": {
        "notice": "set the new delay threshold"
      },
      "viewPolicy(address)": {
        "notice": "show a user's policies (all)"
      }
    },
    "version": 1
  }
}