{
  "contractName": "PolicyToken",
  "abi": [
    {
      "inputs": [
        {
          "internalType": "contract IPolicyFlow",
          "name": "_policyFlow",
          "type": "address"
        }
      ],
      "stateMutability": "nonpayable",
      "type": "constructor"
    },
    {
      "anonymous": false,
      "inputs": [
        {
          "indexed": true,
          "internalType": "address",
          "name": "owner",
          "type": "address"
        },
        {
          "indexed": true,
          "internalType": "address",
          "name": "approved",
          "type": "address"
        },
        {
          "indexed": true,
          "internalType": "uint256",
          "name": "tokenId",
          "type": "uint256"
        }
      ],
      "name": "Approval",
      "type": "event"
    },
    {
      "anonymous": false,
      "inputs": [
        {
          "indexed": true,
          "internalType": "address",
          "name": "owner",
          "type": "address"
        },
        {
          "indexed": true,
          "internalType": "address",
          "name": "operator",
          "type": "address"
        },
        {
          "indexed": false,
          "internalType": "bool",
          "name": "approved",
          "type": "bool"
        }
      ],
      "name": "ApprovalForAll",
      "type": "event"
    },
    {
      "anonymous": false,
      "inputs": [
        {
          "indexed": true,
          "internalType": "address",
          "name": "from",
          "type": "address"
        },
        {
          "indexed": true,
          "internalType": "address",
          "name": "to",
          "type": "address"
        },
        {
          "indexed": true,
          "internalType": "uint256",
          "name": "tokenId",
          "type": "uint256"
        }
      ],
      "name": "Transfer",
      "type": "event"
    },
    {
      "inputs": [],
      "name": "_nextId",
      "outputs": [
        {
          "internalType": "uint256",
          "name": "",
          "type": "uint256"
        }
      ],
      "stateMutability": "view",
      "type": "function"
    },
    {
      "inputs": [
        {
          "internalType": "address",
          "name": "to",
          "type": "address"
        },
        {
          "internalType": "uint256",
          "name": "tokenId",
          "type": "uint256"
        }
      ],
      "name": "approve",
      "outputs": [],
      "stateMutability": "nonpayable",
      "type": "function"
    },
    {
      "inputs": [
        {
          "internalType": "address",
          "name": "owner",
          "type": "address"
        }
      ],
      "name": "balanceOf",
      "outputs": [
        {
          "internalType": "uint256",
          "name": "",
          "type": "uint256"
        }
      ],
      "stateMutability": "view",
      "type": "function"
    },
    {
      "inputs": [
        {
          "internalType": "uint256",
          "name": "tokenId",
          "type": "uint256"
        }
      ],
      "name": "getApproved",
      "outputs": [
        {
          "internalType": "address",
          "name": "",
          "type": "address"
        }
      ],
      "stateMutability": "view",
      "type": "function"
    },
    {
      "inputs": [
        {
          "internalType": "address",
          "name": "owner",
          "type": "address"
        },
        {
          "internalType": "address",
          "name": "operator",
          "type": "address"
        }
      ],
      "name": "isApprovedForAll",
      "outputs": [
        {
          "internalType": "bool",
          "name": "",
          "type": "bool"
        }
      ],
      "stateMutability": "view",
      "type": "function"
    },
    {
      "inputs": [],
      "name": "name",
      "outputs": [
        {
          "internalType": "string",
          "name": "",
          "type": "string"
        }
      ],
      "stateMutability": "view",
      "type": "function"
    },
    {
      "inputs": [],
      "name": "owner",
      "outputs": [
        {
          "internalType": "address",
          "name": "",
          "type": "address"
        }
      ],
      "stateMutability": "view",
      "type": "function"
    },
    {
      "inputs": [
        {
          "internalType": "uint256",
          "name": "tokenId",
          "type": "uint256"
        }
      ],
      "name": "ownerOf",
      "outputs": [
        {
          "internalType": "address",
          "name": "",
          "type": "address"
        }
      ],
      "stateMutability": "view",
      "type": "function"
    },
    {
      "inputs": [
        {
          "internalType": "address",
          "name": "from",
          "type": "address"
        },
        {
          "internalType": "address",
          "name": "to",
          "type": "address"
        },
        {
          "internalType": "uint256",
          "name": "tokenId",
          "type": "uint256"
        }
      ],
      "name": "safeTransferFrom",
      "outputs": [],
      "stateMutability": "nonpayable",
      "type": "function"
    },
    {
      "inputs": [
        {
          "internalType": "address",
          "name": "from",
          "type": "address"
        },
        {
          "internalType": "address",
          "name": "to",
          "type": "address"
        },
        {
          "internalType": "uint256",
          "name": "tokenId",
          "type": "uint256"
        },
        {
          "internalType": "bytes",
          "name": "_data",
          "type": "bytes"
        }
      ],
      "name": "safeTransferFrom",
      "outputs": [],
      "stateMutability": "nonpayable",
      "type": "function"
    },
    {
      "inputs": [
        {
          "internalType": "address",
          "name": "operator",
          "type": "address"
        },
        {
          "internalType": "bool",
          "name": "approved",
          "type": "bool"
        }
      ],
      "name": "setApprovalForAll",
      "outputs": [],
      "stateMutability": "nonpayable",
      "type": "function"
    },
    {
      "inputs": [
        {
          "internalType": "bytes4",
          "name": "interfaceId",
          "type": "bytes4"
        }
      ],
      "name": "supportsInterface",
      "outputs": [
        {
          "internalType": "bool",
          "name": "",
          "type": "bool"
        }
      ],
      "stateMutability": "view",
      "type": "function"
    },
    {
      "inputs": [],
      "name": "symbol",
      "outputs": [
        {
          "internalType": "string",
          "name": "",
          "type": "string"
        }
      ],
      "stateMutability": "view",
      "type": "function"
    },
    {
      "inputs": [
        {
          "internalType": "address",
          "name": "from",
          "type": "address"
        },
        {
          "internalType": "address",
          "name": "to",
          "type": "address"
        },
        {
          "internalType": "uint256",
          "name": "tokenId",
          "type": "uint256"
        }
      ],
      "name": "transferFrom",
      "outputs": [],
      "stateMutability": "nonpayable",
      "type": "function"
    },
    {
      "inputs": [
        {
          "internalType": "contract IPolicyFlow",
          "name": "_policyFlow",
          "type": "address"
        }
      ],
      "name": "updatePolicyFlow",
      "outputs": [],
      "stateMutability": "nonpayable",
      "type": "function"
    },
    {
      "inputs": [],
      "name": "getNextId",
      "outputs": [
        {
          "internalType": "uint256",
          "name": "",
          "type": "uint256"
        }
      ],
      "stateMutability": "view",
      "type": "function"
    },
    {
      "inputs": [
        {
          "internalType": "address",
          "name": "_to",
          "type": "address"
        }
      ],
      "name": "mintPolicyToken",
      "outputs": [],
      "stateMutability": "nonpayable",
      "type": "function"
    },
    {
      "inputs": [
        {
          "internalType": "uint256",
          "name": "tokenId",
          "type": "uint256"
        }
      ],
      "name": "tokenURI",
      "outputs": [
        {
          "internalType": "string",
          "name": "",
          "type": "string"
        }
      ],
      "stateMutability": "view",
      "type": "function"
    },
    {
      "inputs": [
        {
          "components": [
            {
              "internalType": "uint256",
              "name": "productId",
              "type": "uint256"
            },
            {
              "internalType": "bytes32",
              "name": "policyId",
              "type": "bytes32"
            },
            {
              "internalType": "uint256",
              "name": "totalOrder",
              "type": "uint256"
            },
            {
              "internalType": "address",
              "name": "owner",
              "type": "address"
            },
            {
              "internalType": "uint256",
              "name": "premium",
              "type": "uint256"
            },
            {
              "internalType": "uint256",
              "name": "payoff",
              "type": "uint256"
            },
            {
              "internalType": "uint256",
              "name": "purchaseDate",
              "type": "uint256"
            },
            {
              "internalType": "uint256",
              "name": "departureDate",
              "type": "uint256"
            },
            {
              "internalType": "uint256",
              "name": "landingDate",
              "type": "uint256"
            },
            {
              "internalType": "uint256",
              "name": "status",
              "type": "uint256"
            }
          ],
          "internalType": "struct PolicyToken.PolicyTokenURIParam",
          "name": "_params",
          "type": "tuple"
        }
      ],
      "name": "constructTokenURI",
      "outputs": [
        {
          "internalType": "string",
          "name": "",
          "type": "string"
        }
      ],
      "stateMutability": "pure",
      "type": "function"
    }
  ],
  "bytecode": "0x60806040523480156200001157600080fd5b50604051620037d5380380620037d58339818101604052810190620000379190620001ee565b6040518060400160405280601181526020017f4465676973506f6c696379546f6b656e320000000000000000000000000000008152506040518060400160405280600781526020017f44454749535054000000000000000000000000000000000000000000000000008152508160009080519060200190620000bb92919062000127565b508060019080519060200190620000d492919062000127565b505050600160088190555080600760006101000a81548173ffffffffffffffffffffffffffffffffffffffff021916908373ffffffffffffffffffffffffffffffffffffffff16021790555050620002ec565b828054620001359062000268565b90600052602060002090601f016020900481019282620001595760008555620001a5565b82601f106200017457805160ff1916838001178555620001a5565b82800160010185558215620001a5579182015b82811115620001a457825182559160200191906001019062000187565b5b509050620001b49190620001b8565b5090565b5b80821115620001d3576000816000905550600101620001b9565b5090565b600081519050620001e881620002d2565b92915050565b600060208284031215620002075762000206620002cd565b5b60006200021784828501620001d7565b91505092915050565b60006200022d8262000248565b9050919050565b6000620002418262000220565b9050919050565b600073ffffffffffffffffffffffffffffffffffffffff82169050919050565b600060028204905060018216806200028157607f821691505b602082108114156200029857620002976200029e565b5b50919050565b7f4e487b7100000000000000000000000000000000000000000000000000000000600052602260045260246000fd5b600080fd5b620002dd8162000234565b8114620002e957600080fd5b50565b6134d980620002fc6000396000f3fe608060405234801561001057600080fd5b50600436106101215760003560e01c806395d89b41116100ad578063bc96832611610071578063bc96832614610304578063c58cd39414610322578063c87b56dd14610352578063e985e9c514610382578063f2f2fff5146103b257610121565b806395d89b41146102765780639b16b41714610294578063a22cb465146102b0578063b88d4fde146102cc578063b918e5e2146102e857610121565b806323b872dd116100f457806323b872dd146101c057806342842e0e146101dc5780636352211e146101f857806370a08231146102285780638da5cb5b1461025857610121565b806301ffc9a71461012657806306fdde0314610156578063081812fc14610174578063095ea7b3146101a4575b600080fd5b610140600480360381019061013b919061204f565b6103d0565b60405161014d9190612776565b60405180910390f35b61015e6104b2565b60405161016b9190612791565b60405180910390f35b61018e60048036038101906101899190612104565b610544565b60405161019b919061270f565b60405180910390f35b6101be60048036038101906101b99190611f45565b6105c9565b005b6101da60048036038101906101d59190611e2f565b6106e1565b005b6101f660048036038101906101f19190611e2f565b610741565b005b610212600480360381019061020d9190612104565b610761565b60405161021f919061270f565b60405180910390f35b610242600480360381019061023d9190611dc2565b610813565b60405161024f9190612993565b60405180910390f35b6102606108cb565b60405161026d919061270f565b60405180910390f35b61027e6108f1565b60405161028b9190612791565b60405180910390f35b6102ae60048036038101906102a991906120a9565b610983565b005b6102ca60048036038101906102c59190611f05565b6109c7565b005b6102e660048036038101906102e19190611e82565b610b48565b005b61030260048036038101906102fd9190611dc2565b610baa565b005b61030c610bd3565b6040516103199190612993565b60405180910390f35b61033c600480360381019061033791906120d6565b610bdd565b6040516103499190612791565b60405180910390f35b61036c60048036038101906103679190612104565b610cbe565b6040516103799190612791565b60405180910390f35b61039c60048036038101906103979190611def565b610d14565b6040516103a99190612776565b60405180910390f35b6103ba610da8565b6040516103c79190612993565b60405180910390f35b60007f80ac58cd000000000000000000000000000000000000000000000000000000007bffffffffffffffffffffffffffffffffffffffffffffffffffffffff1916827bffffffffffffffffffffffffffffffffffffffffffffffffffffffff1916148061049b57507f5b5e139f000000000000000000000000000000000000000000000000000000007bffffffffffffffffffffffffffffffffffffffffffffffffffffffff1916827bffffffffffffffffffffffffffffffffffffffffffffffffffffffff1916145b806104ab57506104aa82610dae565b5b9050919050565b6060600080546104c190612c58565b80601f01602080910402602001604051908101604052809291908181526020018280546104ed90612c58565b801561053a5780601f1061050f5761010080835404028352916020019161053a565b820191906000526020600020905b81548152906001019060200180831161051d57829003601f168201915b5050505050905090565b600061054f82610e18565b61058e576040517f08c379a000000000000000000000000000000000000000000000000000000000815260040161058590612913565b60405180910390fd5b6004600083815260200190815260200160002060009054906101000a900473ffffffffffffffffffffffffffffffffffffffff169050919050565b60006105d482610761565b90508073ffffffffffffffffffffffffffffffffffffffff168373ffffffffffffffffffffffffffffffffffffffff161415610645576040517f08c379a000000000000000000000000000000000000000000000000000000000815260040161063c90612953565b60405180910390fd5b8073ffffffffffffffffffffffffffffffffffffffff16610664610e84565b73ffffffffffffffffffffffffffffffffffffffff16148061069357506106928161068d610e84565b610d14565b5b6106d2576040517f08c379a00000000000000000000000000000000000000000000000000000000081526004016106c990612893565b60405180910390fd5b6106dc8383610e8c565b505050565b6106f26106ec610e84565b82610f45565b610731576040517f08c379a000000000000000000000000000000000000000000000000000000000815260040161072890612973565b60405180910390fd5b61073c838383611023565b505050565b61075c83838360405180602001604052806000815250610b48565b505050565b6000806002600084815260200190815260200160002060009054906101000a900473ffffffffffffffffffffffffffffffffffffffff169050600073ffffffffffffffffffffffffffffffffffffffff168173ffffffffffffffffffffffffffffffffffffffff16141561080a576040517f08c379a0000000000000000000000000000000000000000000000000000000008152600401610801906128d3565b60405180910390fd5b80915050919050565b60008073ffffffffffffffffffffffffffffffffffffffff168273ffffffffffffffffffffffffffffffffffffffff161415610884576040517f08c379a000000000000000000000000000000000000000000000000000000000815260040161087b906128b3565b60405180910390fd5b600360008373ffffffffffffffffffffffffffffffffffffffff1673ffffffffffffffffffffffffffffffffffffffff168152602001908152602001600020549050919050565b600660009054906101000a900473ffffffffffffffffffffffffffffffffffffffff1681565b60606001805461090090612c58565b80601f016020809104026020016040519081016040528092919081815260200182805461092c90612c58565b80156109795780601f1061094e57610100808354040283529160200191610979565b820191906000526020600020905b81548152906001019060200180831161095c57829003601f168201915b5050505050905090565b80600760006101000a81548173ffffffffffffffffffffffffffffffffffffffff021916908373ffffffffffffffffffffffffffffffffffffffff16021790555050565b6109cf610e84565b73ffffffffffffffffffffffffffffffffffffffff168273ffffffffffffffffffffffffffffffffffffffff161415610a3d576040517f08c379a0000000000000000000000000000000000000000000000000000000008152600401610a3490612853565b60405180910390fd5b8060056000610a4a610e84565b73ffffffffffffffffffffffffffffffffffffffff1673ffffffffffffffffffffffffffffffffffffffff16815260200190815260200160002060008473ffffffffffffffffffffffffffffffffffffffff1673ffffffffffffffffffffffffffffffffffffffff16815260200190815260200160002060006101000a81548160ff0219169083151502179055508173ffffffffffffffffffffffffffffffffffffffff16610af7610e84565b73ffffffffffffffffffffffffffffffffffffffff167f17307eab39ab6107e8899845ad3d59bd9653f200f220920489ca2b5937696c3183604051610b3c9190612776565b60405180910390a35050565b610b59610b53610e84565b83610f45565b610b98576040517f08c379a0000000000000000000000000000000000000000000000000000000008152600401610b8f90612973565b60405180910390fd5b610ba48484848461127f565b50505050565b600060086000815480929190610bbf90612cbb565b919050559050610bcf82826112db565b5050565b6000600854905090565b606060008261012001519050610bf683600001516114a9565b610c03846020015161160a565b610c1085604001516114a9565b610c1d866060015161162a565b610c3d670de0b6b3a76400008860800151610c389190612a9d565b6114a9565b610c5d670de0b6b3a76400008960a00151610c589190612a9d565b6114a9565b610c6a8960c001516114a9565b610c778a60e001516114a9565b610c858b61010001516114a9565b610c8e8a6114a9565b604051602001610ca79a999897969594939291906125b2565b604051602081830303815290604052915050919050565b60606008548210610d04576040517f08c379a0000000000000000000000000000000000000000000000000000000008152600401610cfb90612813565b60405180910390fd5b610d0d8261165d565b9050919050565b6000600560008473ffffffffffffffffffffffffffffffffffffffff1673ffffffffffffffffffffffffffffffffffffffff16815260200190815260200160002060008373ffffffffffffffffffffffffffffffffffffffff1673ffffffffffffffffffffffffffffffffffffffff16815260200190815260200160002060009054906101000a900460ff16905092915050565b60085481565b60007f01ffc9a7000000000000000000000000000000000000000000000000000000007bffffffffffffffffffffffffffffffffffffffffffffffffffffffff1916827bffffffffffffffffffffffffffffffffffffffffffffffffffffffff1916149050919050565b60008073ffffffffffffffffffffffffffffffffffffffff166002600084815260200190815260200160002060009054906101000a900473ffffffffffffffffffffffffffffffffffffffff1673ffffffffffffffffffffffffffffffffffffffff1614159050919050565b600033905090565b816004600083815260200190815260200160002060006101000a81548173ffffffffffffffffffffffffffffffffffffffff021916908373ffffffffffffffffffffffffffffffffffffffff160217905550808273ffffffffffffffffffffffffffffffffffffffff16610eff83610761565b73ffffffffffffffffffffffffffffffffffffffff167f8c5be1e5ebec7d5bd14f71427d1e84f3dd0314c0f7b2291e5b200ac8c7c3b92560405160405180910390a45050565b6000610f5082610e18565b610f8f576040517f08c379a0000000000000000000000000000000000000000000000000000000008152600401610f8690612873565b60405180910390fd5b6000610f9a83610761565b90508073ffffffffffffffffffffffffffffffffffffffff168473ffffffffffffffffffffffffffffffffffffffff16148061100957508373ffffffffffffffffffffffffffffffffffffffff16610ff184610544565b73ffffffffffffffffffffffffffffffffffffffff16145b8061101a57506110198185610d14565b5b91505092915050565b8273ffffffffffffffffffffffffffffffffffffffff1661104382610761565b73ffffffffffffffffffffffffffffffffffffffff1614611099576040517f08c379a000000000000000000000000000000000000000000000000000000000815260040161109090612933565b60405180910390fd5b600073ffffffffffffffffffffffffffffffffffffffff168273ffffffffffffffffffffffffffffffffffffffff161415611109576040517f08c379a000000000000000000000000000000000000000000000000000000000815260040161110090612833565b60405180910390fd5b61111483838361179f565b61111f600082610e8c565b6001600360008573ffffffffffffffffffffffffffffffffffffffff1673ffffffffffffffffffffffffffffffffffffffff168152602001908152602001600020600082825461116f9190612b28565b925050819055506001600360008473ffffffffffffffffffffffffffffffffffffffff1673ffffffffffffffffffffffffffffffffffffffff16815260200190815260200160002060008282546111c69190612a47565b92505081905550816002600083815260200190815260200160002060006101000a81548173ffffffffffffffffffffffffffffffffffffffff021916908373ffffffffffffffffffffffffffffffffffffffff160217905550808273ffffffffffffffffffffffffffffffffffffffff168473ffffffffffffffffffffffffffffffffffffffff167fddf252ad1be2c89b69c2b068fc378daa952ba7f163c4a11628f55a4df523b3ef60405160405180910390a4505050565b61128a848484611023565b611296848484846117a4565b6112d5576040517f08c379a00000000000000000000000000000000000000000000000000000000081526004016112cc906127d3565b60405180910390fd5b50505050565b600073ffffffffffffffffffffffffffffffffffffffff168273ffffffffffffffffffffffffffffffffffffffff16141561134b576040517f08c379a0000000000000000000000000000000000000000000000000000000008152600401611342906128f3565b60405180910390fd5b61135481610e18565b15611394576040517f08c379a000000000000000000000000000000000000000000000000000000000815260040161138b906127f3565b60405180910390fd5b6113a06000838361179f565b6001600360008473ffffffffffffffffffffffffffffffffffffffff1673ffffffffffffffffffffffffffffffffffffffff16815260200190815260200160002060008282546113f09190612a47565b92505081905550816002600083815260200190815260200160002060006101000a81548173ffffffffffffffffffffffffffffffffffffffff021916908373ffffffffffffffffffffffffffffffffffffffff160217905550808273ffffffffffffffffffffffffffffffffffffffff16600073ffffffffffffffffffffffffffffffffffffffff167fddf252ad1be2c89b69c2b068fc378daa952ba7f163c4a11628f55a4df523b3ef60405160405180910390a45050565b606060008214156114f1576040518060400160405280600181526020017f30000000000000000000000000000000000000000000000000000000000000008152509050611605565b600082905060005b6000821461152357808061150c90612cbb565b915050600a8261151c9190612a9d565b91506114f9565b60008167ffffffffffffffff81111561153f5761153e612df1565b5b6040519080825280601f01601f1916602001820160405280156115715781602001600182028036833780820191505090505b5090505b600085146115fe5760018261158a9190612b28565b9150600a856115999190612d04565b60306115a59190612a47565b60f81b8183815181106115bb576115ba612dc2565b5b60200101907effffffffffffffffffffffffffffffffffffffffffffffffffffffffffffff1916908160001a905350600a856115f79190612a9d565b9450611575565b8093505050505b919050565b606061162360208360001c61193b90919063ffffffff16565b9050919050565b606061165660148373ffffffffffffffffffffffffffffffffffffffff1661193b90919063ffffffff16565b9050919050565b60606000806000806000806000806000600760009054906101000a900473ffffffffffffffffffffffffffffffffffffffff1673ffffffffffffffffffffffffffffffffffffffff166330dbc6c48c6040518263ffffffff1660e01b81526004016116c89190612993565b6101206040518083038186803b1580156116e157600080fd5b505afa1580156116f5573d6000803e3d6000fd5b505050506040513d601f19601f820116820180604052508101906117199190611f85565b98509850985098509850985098509850985061178f6040518061014001604052808a81526020018b81526020018d81526020018973ffffffffffffffffffffffffffffffffffffffff16815260200188815260200187815260200186815260200185815260200184815260200183815250610bdd565b9950505050505050505050919050565b505050565b60006117c58473ffffffffffffffffffffffffffffffffffffffff16611b77565b1561192e578373ffffffffffffffffffffffffffffffffffffffff1663150b7a026117ee610e84565b8786866040518563ffffffff1660e01b8152600401611810949392919061272a565b602060405180830381600087803b15801561182a57600080fd5b505af192505050801561185b57506040513d601f19601f82011682018060405250810190611858919061207c565b60015b6118de573d806000811461188b576040519150601f19603f3d011682016040523d82523d6000602084013e611890565b606091505b506000815114156118d6576040517f08c379a00000000000000000000000000000000000000000000000000000000081526004016118cd906127d3565b60405180910390fd5b805181602001fd5b63150b7a0260e01b7bffffffffffffffffffffffffffffffffffffffffffffffffffffffff1916817bffffffffffffffffffffffffffffffffffffffffffffffffffffffff191614915050611933565b600190505b949350505050565b60606000600283600261194e9190612ace565b6119589190612a47565b67ffffffffffffffff81111561197157611970612df1565b5b6040519080825280601f01601f1916602001820160405280156119a35781602001600182028036833780820191505090505b5090507f3000000000000000000000000000000000000000000000000000000000000000816000815181106119db576119da612dc2565b5b60200101907effffffffffffffffffffffffffffffffffffffffffffffffffffffffffffff1916908160001a9053507f780000000000000000000000000000000000000000000000000000000000000081600181518110611a3f57611a3e612dc2565b5b60200101907effffffffffffffffffffffffffffffffffffffffffffffffffffffffffffff1916908160001a90535060006001846002611a7f9190612ace565b611a899190612a47565b90505b6001811115611b29577f3031323334353637383961626364656600000000000000000000000000000000600f861660108110611acb57611aca612dc2565b5b1a60f81b828281518110611ae257611ae1612dc2565b5b60200101907effffffffffffffffffffffffffffffffffffffffffffffffffffffffffffff1916908160001a905350600485901c945080611b2290612c2e565b9050611a8c565b5060008414611b6d576040517f08c379a0000000000000000000000000000000000000000000000000000000008152600401611b64906127b3565b60405180910390fd5b8091505092915050565b600080823b905060008111915050919050565b6000611b9d611b98846129d3565b6129ae565b905082815260208101848484011115611bb957611bb8612e2a565b5b611bc4848285612bec565b509392505050565b600081359050611bdb81613419565b92915050565b600081519050611bf081613419565b92915050565b600081359050611c0581613430565b92915050565b600081359050611c1a81613447565b92915050565b600081519050611c2f81613447565b92915050565b600081359050611c448161345e565b92915050565b600081519050611c598161345e565b92915050565b600082601f830112611c7457611c73612e20565b5b8135611c84848260208601611b8a565b91505092915050565b600081359050611c9c81613475565b92915050565b60006101408284031215611cb957611cb8612e25565b5b611cc46101406129ae565b90506000611cd484828501611d98565b6000830152506020611ce884828501611c0b565b6020830152506040611cfc84828501611d98565b6040830152506060611d1084828501611bcc565b6060830152506080611d2484828501611d98565b60808301525060a0611d3884828501611d98565b60a08301525060c0611d4c84828501611d98565b60c08301525060e0611d6084828501611d98565b60e083015250610100611d7584828501611d98565b61010083015250610120611d8b84828501611d98565b6101208301525092915050565b600081359050611da78161348c565b92915050565b600081519050611dbc8161348c565b92915050565b600060208284031215611dd857611dd7612e34565b5b6000611de684828501611bcc565b91505092915050565b60008060408385031215611e0657611e05612e34565b5b6000611e1485828601611bcc565b9250506020611e2585828601611bcc565b9150509250929050565b600080600060608486031215611e4857611e47612e34565b5b6000611e5686828701611bcc565b9350506020611e6786828701611bcc565b9250506040611e7886828701611d98565b9150509250925092565b60008060008060808587031215611e9c57611e9b612e34565b5b6000611eaa87828801611bcc565b9450506020611ebb87828801611bcc565b9350506040611ecc87828801611d98565b925050606085013567ffffffffffffffff811115611eed57611eec612e2f565b5b611ef987828801611c5f565b91505092959194509250565b60008060408385031215611f1c57611f1b612e34565b5b6000611f2a85828601611bcc565b9250506020611f3b85828601611bf6565b9150509250929050565b60008060408385031215611f5c57611f5b612e34565b5b6000611f6a85828601611bcc565b9250506020611f7b85828601611d98565b9150509250929050565b60008060008060008060008060006101208a8c031215611fa857611fa7612e34565b5b6000611fb68c828d01611c20565b9950506020611fc78c828d01611dad565b9850506040611fd88c828d01611be1565b9750506060611fe98c828d01611dad565b9650506080611ffa8c828d01611dad565b95505060a061200b8c828d01611dad565b94505060c061201c8c828d01611dad565b93505060e061202d8c828d01611dad565b92505061010061203f8c828d01611dad565b9150509295985092959850929598565b60006020828403121561206557612064612e34565b5b600061207384828501611c35565b91505092915050565b60006020828403121561209257612091612e34565b5b60006120a084828501611c4a565b91505092915050565b6000602082840312156120bf576120be612e34565b5b60006120cd84828501611c8d565b91505092915050565b600061014082840312156120ed576120ec612e34565b5b60006120fb84828501611ca2565b91505092915050565b60006020828403121561211a57612119612e34565b5b600061212884828501611d98565b91505092915050565b61213a81612b5c565b82525050565b61214981612b6e565b82525050565b600061215a82612a04565b6121648185612a1a565b9350612174818560208601612bfb565b61217d81612e39565b840191505092915050565b600061219382612a0f565b61219d8185612a2b565b93506121ad818560208601612bfb565b6121b681612e39565b840191505092915050565b60006121cc82612a0f565b6121d68185612a3c565b93506121e6818560208601612bfb565b80840191505092915050565b60006121ff600783612a3c565b915061220a82612e4a565b600782019050919050565b6000612222602083612a2b565b915061222d82612e73565b602082019050919050565b6000612245600d83612a3c565b915061225082612e9c565b600d82019050919050565b6000612268600c83612a3c565b915061227382612ec5565b600c82019050919050565b600061228b603283612a2b565b915061229682612eee565b604082019050919050565b60006122ae600d83612a3c565b91506122b982612f3d565b600d82019050919050565b60006122d1601c83612a2b565b91506122dc82612f66565b602082019050919050565b60006122f4601983612a2b565b91506122ff82612f8f565b602082019050919050565b6000612317600183612a3c565b915061232282612fb8565b600182019050919050565b600061233a602483612a2b565b915061234582612fe1565b604082019050919050565b600061235d601983612a2b565b915061236882613030565b602082019050919050565b6000612380600e83612a3c565b915061238b82613059565b600e82019050919050565b60006123a3602c83612a2b565b91506123ae82613082565b604082019050919050565b60006123c6600883612a3c565b91506123d1826130d1565b600882019050919050565b60006123e9603883612a2b565b91506123f4826130fa565b604082019050919050565b600061240c600183612a3c565b915061241782613149565b600182019050919050565b600061242f602a83612a2b565b915061243a82613172565b604082019050919050565b6000612452602983612a2b565b915061245d826131c1565b604082019050919050565b6000612475600b83612a3c565b915061248082613210565b600b82019050919050565b6000612498602083612a2b565b91506124a382613239565b602082019050919050565b60006124bb600c83612a3c565b91506124c682613262565b600c82019050919050565b60006124de602c83612a2b565b91506124e98261328b565b604082019050919050565b6000612501602983612a2b565b915061250c826132da565b604082019050919050565b6000612524602183612a2b565b915061252f82613329565b604082019050919050565b6000612547603183612a2b565b915061255282613378565b604082019050919050565b600061256a600d83612a3c565b9150612575826133c7565b600d82019050919050565b600061258d600e83612a3c565b9150612598826133f0565b600e82019050919050565b6125ac81612be2565b82525050565b60006125bd826124ae565b91506125c9828d6121c1565b91506125d48261230a565b91506125df82612468565b91506125eb828c6121c1565b91506125f68261230a565b9150612601826122a1565b915061260d828b6121c1565b91506126188261230a565b915061262382612373565b915061262f828a6121c1565b915061263a826123b9565b915061264682896121c1565b91506126518261230a565b915061265c826121f2565b915061266882886121c1565b91506126738261230a565b915061267e82612238565b915061268a82876121c1565b91506126958261230a565b91506126a082612580565b91506126ac82866121c1565b91506126b78261230a565b91506126c28261225b565b91506126ce82856121c1565b91506126d98261230a565b91506126e48261255d565b91506126f082846121c1565b91506126fb826123ff565b91508190509b9a5050505050505050505050565b60006020820190506127246000830184612131565b92915050565b600060808201905061273f6000830187612131565b61274c6020830186612131565b61275960408301856125a3565b818103606083015261276b818461214f565b905095945050505050565b600060208201905061278b6000830184612140565b92915050565b600060208201905081810360008301526127ab8184612188565b905092915050565b600060208201905081810360008301526127cc81612215565b9050919050565b600060208201905081810360008301526127ec8161227e565b9050919050565b6000602082019050818103600083015261280c816122c4565b9050919050565b6000602082019050818103600083015261282c816122e7565b9050919050565b6000602082019050818103600083015261284c8161232d565b9050919050565b6000602082019050818103600083015261286c81612350565b9050919050565b6000602082019050818103600083015261288c81612396565b9050919050565b600060208201905081810360008301526128ac816123dc565b9050919050565b600060208201905081810360008301526128cc81612422565b9050919050565b600060208201905081810360008301526128ec81612445565b9050919050565b6000602082019050818103600083015261290c8161248b565b9050919050565b6000602082019050818103600083015261292c816124d1565b9050919050565b6000602082019050818103600083015261294c816124f4565b9050919050565b6000602082019050818103600083015261296c81612517565b9050919050565b6000602082019050818103600083015261298c8161253a565b9050919050565b60006020820190506129a860008301846125a3565b92915050565b60006129b86129c9565b90506129c48282612c8a565b919050565b6000604051905090565b600067ffffffffffffffff8211156129ee576129ed612df1565b5b6129f782612e39565b9050602081019050919050565b600081519050919050565b600081519050919050565b600082825260208201905092915050565b600082825260208201905092915050565b600081905092915050565b6000612a5282612be2565b9150612a5d83612be2565b9250827fffffffffffffffffffffffffffffffffffffffffffffffffffffffffffffffff03821115612a9257612a91612d35565b5b828201905092915050565b6000612aa882612be2565b9150612ab383612be2565b925082612ac357612ac2612d64565b5b828204905092915050565b6000612ad982612be2565b9150612ae483612be2565b9250817fffffffffffffffffffffffffffffffffffffffffffffffffffffffffffffffff0483118215151615612b1d57612b1c612d35565b5b828202905092915050565b6000612b3382612be2565b9150612b3e83612be2565b925082821015612b5157612b50612d35565b5b828203905092915050565b6000612b6782612bc2565b9050919050565b60008115159050919050565b6000819050919050565b60007fffffffff0000000000000000000000000000000000000000000000000000000082169050919050565b6000612bbb82612b5c565b9050919050565b600073ffffffffffffffffffffffffffffffffffffffff82169050919050565b6000819050919050565b82818337600083830152505050565b60005b83811015612c19578082015181840152602081019050612bfe565b83811115612c28576000848401525b50505050565b6000612c3982612be2565b91506000821415612c4d57612c4c612d35565b5b600182039050919050565b60006002820490506001821680612c7057607f821691505b60208210811415612c8457612c83612d93565b5b50919050565b612c9382612e39565b810181811067ffffffffffffffff82111715612cb257612cb1612df1565b5b80604052505050565b6000612cc682612be2565b91507fffffffffffffffffffffffffffffffffffffffffffffffffffffffffffffffff821415612cf957612cf8612d35565b5b600182019050919050565b6000612d0f82612be2565b9150612d1a83612be2565b925082612d2a57612d29612d64565b5b828206905092915050565b7f4e487b7100000000000000000000000000000000000000000000000000000000600052601160045260246000fd5b7f4e487b7100000000000000000000000000000000000000000000000000000000600052601260045260246000fd5b7f4e487b7100000000000000000000000000000000000000000000000000000000600052602260045260246000fd5b7f4e487b7100000000000000000000000000000000000000000000000000000000600052603260045260246000fd5b7f4e487b7100000000000000000000000000000000000000000000000000000000600052604160045260246000fd5b600080fd5b600080fd5b600080fd5b600080fd5b600080fd5b6000601f19601f8301169050919050565b7f5061796f66663a00000000000000000000000000000000000000000000000000600082015250565b7f537472696e67733a20686578206c656e67746820696e73756666696369656e74600082015250565b7f5075726368617365446174653a00000000000000000000000000000000000000600082015250565b7f4c616e64696e67446174653a0000000000000000000000000000000000000000600082015250565b7f4552433732313a207472616e7366657220746f206e6f6e20455243373231526560008201527f63656976657220696d706c656d656e7465720000000000000000000000000000602082015250565b7f546f74616c204f726465723a2000000000000000000000000000000000000000600082015250565b7f4552433732313a20746f6b656e20616c7265616479206d696e74656400000000600082015250565b7f6572726f722c20746f6b656e496420746f6f206c617267652100000000000000600082015250565b7f2c00000000000000000000000000000000000000000000000000000000000000600082015250565b7f4552433732313a207472616e7366657220746f20746865207a65726f2061646460008201527f7265737300000000000000000000000000000000000000000000000000000000602082015250565b7f4552433732313a20617070726f766520746f2063616c6c657200000000000000600082015250565b7f4275796572416464726573733a20000000000000000000000000000000000000600082015250565b7f4552433732313a206f70657261746f7220717565727920666f72206e6f6e657860008201527f697374656e7420746f6b656e0000000000000000000000000000000000000000602082015250565b7f5072656d69756d3a000000000000000000000000000000000000000000000000600082015250565b7f4552433732313a20617070726f76652063616c6c6572206973206e6f74206f7760008201527f6e6572206e6f7220617070726f76656420666f7220616c6c0000000000000000602082015250565b7f2e00000000000000000000000000000000000000000000000000000000000000600082015250565b7f4552433732313a2062616c616e636520717565727920666f7220746865207a6560008201527f726f206164647265737300000000000000000000000000000000000000000000602082015250565b7f4552433732313a206f776e657220717565727920666f72206e6f6e657869737460008201527f656e7420746f6b656e0000000000000000000000000000000000000000000000602082015250565b7f506f6c6963792069643a20000000000000000000000000000000000000000000600082015250565b7f4552433732313a206d696e7420746f20746865207a65726f2061646472657373600082015250565b7f50726f647563742069643a200000000000000000000000000000000000000000600082015250565b7f4552433732313a20617070726f76656420717565727920666f72206e6f6e657860008201527f697374656e7420746f6b656e0000000000000000000000000000000000000000602082015250565b7f4552433732313a207472616e73666572206f6620746f6b656e2074686174206960008201527f73206e6f74206f776e0000000000000000000000000000000000000000000000602082015250565b7f4552433732313a20617070726f76616c20746f2063757272656e74206f776e6560008201527f7200000000000000000000000000000000000000000000000000000000000000602082015250565b7f4552433732313a207472616e736665722063616c6c6572206973206e6f74206f60008201527f776e6572206e6f7220617070726f766564000000000000000000000000000000602082015250565b7f506f6c6963795374617475733a00000000000000000000000000000000000000600082015250565b7f446570617274757265446174653a000000000000000000000000000000000000600082015250565b61342281612b5c565b811461342d57600080fd5b50565b61343981612b6e565b811461344457600080fd5b50565b61345081612b7a565b811461345b57600080fd5b50565b61346781612b84565b811461347257600080fd5b50565b61347e81612bb0565b811461348957600080fd5b50565b61349581612be2565b81146134a057600080fd5b5056fea2646970667358221220581affd805ae08d1565993978101473e82f141e246da2548150820e2203df00d64736f6c63430008050033",
  "immutableReferences": {},
  "source": "// SPDX-License-Identifier: MIT\r\npragma solidity ^0.8.0;\r\n\r\nimport \"@openzeppelin/contracts/token/ERC721/ERC721.sol\";\r\nimport \"./interfaces/IPolicyFlow.sol\";\r\nimport \"@openzeppelin/contracts/utils/Strings.sol\";\r\nimport \"./libraries/ToStrings.sol\";\r\n\r\ncontract PolicyToken is ERC721 {\r\n    address public owner;\r\n    using Strings for uint256;\r\n\r\n    struct PolicyTokenURIParam {\r\n        uint256 productId;\r\n        bytes32 policyId;\r\n        uint256 totalOrder;\r\n        address owner;\r\n        uint256 premium;\r\n        uint256 payoff;\r\n        uint256 purchaseDate;\r\n        uint256 departureDate;\r\n        uint256 landingDate;\r\n        uint256 status;\r\n    }\r\n\r\n    IPolicyFlow policyFlow;\r\n\r\n    uint256 public _nextId;\r\n\r\n    constructor(IPolicyFlow _policyFlow)\r\n        ERC721(\"DegisPolicyToken2\", \"DEGISPT\")\r\n    {\r\n        _nextId = 1;\r\n        policyFlow = _policyFlow;\r\n    }\r\n\r\n    function updatePolicyFlow(IPolicyFlow _policyFlow) public {\r\n        policyFlow = _policyFlow;\r\n    }\r\n\r\n    function getNextId() public view returns (uint256) {\r\n        return _nextId;\r\n    }\r\n\r\n    function mintPolicyToken(address _to) public {\r\n        uint256 tokenId = _nextId++;\r\n        _mint(_to, tokenId);\r\n    }\r\n\r\n    function tokenURI(uint256 tokenId)\r\n        public\r\n        view\r\n        override(ERC721)\r\n        returns (string memory)\r\n    {\r\n        require(tokenId < _nextId, \"error, tokenId too large!\");\r\n        return getTokenURI(tokenId);\r\n        // \"This is a test message. product Id: 0, policy Id: 1, premium: 1, payoff: 10\";\r\n    }\r\n\r\n    function getTokenURI(uint256 tokenId)\r\n        internal\r\n        view\r\n        returns (string memory)\r\n    {\r\n        (\r\n            bytes32 _policyId,\r\n            uint256 _productId,\r\n            address _owner,\r\n            uint256 _premium,\r\n            uint256 _payoff,\r\n            uint256 _purchaseDate,\r\n            uint256 _departureDate,\r\n            uint256 _landingDate,\r\n            uint256 _status\r\n        ) = policyFlow.getPolicyInfoByCount(tokenId);\r\n\r\n        // uint256 _productId = policyFlow.policyList[_policyId].productId;\r\n        // address _owner = policyFlow.policyList[_policyId].userAddress;\r\n        // uint256 _premium = policyFlow.policyList[_policyId].premium;\r\n        // uint256 _payoff = policyFlow.policyList[_policyId].payoff;\r\n        // uint256 _expiryDate = policyFlow.policyList[_policyId].expiryDate;\r\n        return\r\n            constructTokenURI(\r\n                PolicyTokenURIParam(\r\n                    _productId,\r\n                    _policyId,\r\n                    tokenId,\r\n                    _owner,\r\n                    _premium,\r\n                    _payoff,\r\n                    _purchaseDate,\r\n                    _departureDate,\r\n                    _landingDate,\r\n                    _status\r\n                )\r\n            );\r\n    }\r\n\r\n    function constructTokenURI(PolicyTokenURIParam memory _params)\r\n        public\r\n        pure\r\n        returns (string memory)\r\n    {\r\n        uint256 status = uint256(_params.status);\r\n        return\r\n            string(\r\n                abi.encodePacked(\r\n                    \"Product id: \",\r\n                    _params.productId.toString(),\r\n                    \",\",\r\n                    \"Policy id: \",\r\n                    byToString(_params.policyId),\r\n                    \",\",\r\n                    \"Total Order: \",\r\n                    _params.totalOrder.toString(),\r\n                    \",\",\r\n                    \"BuyerAddress: \",\r\n                    addressToString(_params.owner),\r\n                    \"Premium:\",\r\n                    (_params.premium / 10**18).toString(),\r\n                    \",\",\r\n                    \"Payoff:\",\r\n                    (_params.payoff / 10**18).toString(),\r\n                    \",\",\r\n                    \"PurchaseDate:\",\r\n                    _params.purchaseDate.toString(),\r\n                    \",\",\r\n                    \"DepartureDate:\",\r\n                    _params.departureDate.toString(),\r\n                    \",\",\r\n                    \"LandingDate:\",\r\n                    _params.landingDate.toString(),\r\n                    \",\",\r\n                    \"PolicyStatus:\",\r\n                    status.toString(),\r\n                    \".\"\r\n                )\r\n            );\r\n    }\r\n\r\n    function byToString(bytes32 _bytes) internal pure returns (string memory) {\r\n        return (uint256(_bytes)).toHexString(32);\r\n    }\r\n\r\n    function addressToString(address _addr)\r\n        internal\r\n        pure\r\n        returns (string memory)\r\n    {\r\n        return (uint256(uint160(_addr))).toHexString(20);\r\n    }\r\n}\r\n",
  "sourcePath": "D:\\src\\Degis-Contracts-1\\contracts\\PolicyToken.sol",
  "compiler": {
    "name": "solc",
    "version": "0.8.5+commit.a4f2e591.Emscripten.clang"
  },
  "schemaVersion": "3.4.3",
  "updatedAt": "2021-09-18T13:58:28.162Z",
  "networkType": "ethereum",
  "devdoc": {
    "kind": "dev",
    "methods": {
      "approve(address,uint256)": {
        "details": "See {IERC721-approve}."
      },
      "balanceOf(address)": {
        "details": "See {IERC721-balanceOf}."
      },
      "getApproved(uint256)": {
        "details": "See {IERC721-getApproved}."
      },
      "isApprovedForAll(address,address)": {
        "details": "See {IERC721-isApprovedForAll}."
      },
      "name()": {
        "details": "See {IERC721Metadata-name}."
      },
      "ownerOf(uint256)": {
        "details": "See {IERC721-ownerOf}."
      },
      "safeTransferFrom(address,address,uint256)": {
        "details": "See {IERC721-safeTransferFrom}."
      },
      "safeTransferFrom(address,address,uint256,bytes)": {
        "details": "See {IERC721-safeTransferFrom}."
      },
      "setApprovalForAll(address,bool)": {
        "details": "See {IERC721-setApprovalForAll}."
      },
      "supportsInterface(bytes4)": {
        "details": "See {IERC165-supportsInterface}."
      },
      "symbol()": {
        "details": "See {IERC721Metadata-symbol}."
      },
      "tokenURI(uint256)": {
        "details": "See {IERC721Metadata-tokenURI}."
      },
      "transferFrom(address,address,uint256)": {
        "details": "See {IERC721-transferFrom}."
      }
    },
    "version": 1
  },
  "userdoc": {
    "kind": "user",
    "methods": {},
    "version": 1
  }
}