{
  "contractName": "PolicyToken",
  "abi": [
    {
      "inputs": [
        {
          "internalType": "contract IPolicyFlow",
          "name": "_policyFlow",
          "type": "address"
        }
      ],
      "stateMutability": "nonpayable",
      "type": "constructor"
    },
    {
      "anonymous": false,
      "inputs": [
        {
          "indexed": true,
          "internalType": "address",
          "name": "owner",
          "type": "address"
        },
        {
          "indexed": true,
          "internalType": "address",
          "name": "approved",
          "type": "address"
        },
        {
          "indexed": true,
          "internalType": "uint256",
          "name": "tokenId",
          "type": "uint256"
        }
      ],
      "name": "Approval",
      "type": "event"
    },
    {
      "anonymous": false,
      "inputs": [
        {
          "indexed": true,
          "internalType": "address",
          "name": "owner",
          "type": "address"
        },
        {
          "indexed": true,
          "internalType": "address",
          "name": "operator",
          "type": "address"
        },
        {
          "indexed": false,
          "internalType": "bool",
          "name": "approved",
          "type": "bool"
        }
      ],
      "name": "ApprovalForAll",
      "type": "event"
    },
    {
      "anonymous": false,
      "inputs": [
        {
          "indexed": true,
          "internalType": "address",
          "name": "previousOwner",
          "type": "address"
        },
        {
          "indexed": true,
          "internalType": "address",
          "name": "newOwner",
          "type": "address"
        }
      ],
      "name": "OwnershipTransferred",
      "type": "event"
    },
    {
      "anonymous": false,
      "inputs": [
        {
          "indexed": true,
          "internalType": "address",
          "name": "from",
          "type": "address"
        },
        {
          "indexed": true,
          "internalType": "address",
          "name": "to",
          "type": "address"
        },
        {
          "indexed": true,
          "internalType": "uint256",
          "name": "tokenId",
          "type": "uint256"
        }
      ],
      "name": "Transfer",
      "type": "event"
    },
    {
      "inputs": [],
      "name": "_nextId",
      "outputs": [
        {
          "internalType": "uint256",
          "name": "",
          "type": "uint256"
        }
      ],
      "stateMutability": "view",
      "type": "function"
    },
    {
      "inputs": [
        {
          "internalType": "address",
          "name": "to",
          "type": "address"
        },
        {
          "internalType": "uint256",
          "name": "tokenId",
          "type": "uint256"
        }
      ],
      "name": "approve",
      "outputs": [],
      "stateMutability": "nonpayable",
      "type": "function"
    },
    {
      "inputs": [
        {
          "internalType": "address",
          "name": "owner",
          "type": "address"
        }
      ],
      "name": "balanceOf",
      "outputs": [
        {
          "internalType": "uint256",
          "name": "",
          "type": "uint256"
        }
      ],
      "stateMutability": "view",
      "type": "function"
    },
    {
      "inputs": [
        {
          "internalType": "uint256",
          "name": "tokenId",
          "type": "uint256"
        }
      ],
      "name": "getApproved",
      "outputs": [
        {
          "internalType": "address",
          "name": "",
          "type": "address"
        }
      ],
      "stateMutability": "view",
      "type": "function"
    },
    {
      "inputs": [
        {
          "internalType": "address",
          "name": "owner",
          "type": "address"
        },
        {
          "internalType": "address",
          "name": "operator",
          "type": "address"
        }
      ],
      "name": "isApprovedForAll",
      "outputs": [
        {
          "internalType": "bool",
          "name": "",
          "type": "bool"
        }
      ],
      "stateMutability": "view",
      "type": "function"
    },
    {
      "inputs": [],
      "name": "name",
      "outputs": [
        {
          "internalType": "string",
          "name": "",
          "type": "string"
        }
      ],
      "stateMutability": "view",
      "type": "function"
    },
    {
      "inputs": [],
      "name": "owner",
      "outputs": [
        {
          "internalType": "address",
          "name": "",
          "type": "address"
        }
      ],
      "stateMutability": "view",
      "type": "function"
    },
    {
      "inputs": [
        {
          "internalType": "uint256",
          "name": "tokenId",
          "type": "uint256"
        }
      ],
      "name": "ownerOf",
      "outputs": [
        {
          "internalType": "address",
          "name": "",
          "type": "address"
        }
      ],
      "stateMutability": "view",
      "type": "function"
    },
    {
      "inputs": [],
      "name": "renounceOwnership",
      "outputs": [],
      "stateMutability": "nonpayable",
      "type": "function"
    },
    {
      "inputs": [
        {
          "internalType": "address",
          "name": "from",
          "type": "address"
        },
        {
          "internalType": "address",
          "name": "to",
          "type": "address"
        },
        {
          "internalType": "uint256",
          "name": "tokenId",
          "type": "uint256"
        }
      ],
      "name": "safeTransferFrom",
      "outputs": [],
      "stateMutability": "nonpayable",
      "type": "function"
    },
    {
      "inputs": [
        {
          "internalType": "address",
          "name": "from",
          "type": "address"
        },
        {
          "internalType": "address",
          "name": "to",
          "type": "address"
        },
        {
          "internalType": "uint256",
          "name": "tokenId",
          "type": "uint256"
        },
        {
          "internalType": "bytes",
          "name": "_data",
          "type": "bytes"
        }
      ],
      "name": "safeTransferFrom",
      "outputs": [],
      "stateMutability": "nonpayable",
      "type": "function"
    },
    {
      "inputs": [
        {
          "internalType": "address",
          "name": "operator",
          "type": "address"
        },
        {
          "internalType": "bool",
          "name": "approved",
          "type": "bool"
        }
      ],
      "name": "setApprovalForAll",
      "outputs": [],
      "stateMutability": "nonpayable",
      "type": "function"
    },
    {
      "inputs": [
        {
          "internalType": "bytes4",
          "name": "interfaceId",
          "type": "bytes4"
        }
      ],
      "name": "supportsInterface",
      "outputs": [
        {
          "internalType": "bool",
          "name": "",
          "type": "bool"
        }
      ],
      "stateMutability": "view",
      "type": "function"
    },
    {
      "inputs": [],
      "name": "symbol",
      "outputs": [
        {
          "internalType": "string",
          "name": "",
          "type": "string"
        }
      ],
      "stateMutability": "view",
      "type": "function"
    },
    {
      "inputs": [
        {
          "internalType": "address",
          "name": "from",
          "type": "address"
        },
        {
          "internalType": "address",
          "name": "to",
          "type": "address"
        },
        {
          "internalType": "uint256",
          "name": "tokenId",
          "type": "uint256"
        }
      ],
      "name": "transferFrom",
      "outputs": [],
      "stateMutability": "nonpayable",
      "type": "function"
    },
    {
      "inputs": [
        {
          "internalType": "address",
          "name": "newOwner",
          "type": "address"
        }
      ],
      "name": "transferOwnership",
      "outputs": [],
      "stateMutability": "nonpayable",
      "type": "function"
    },
    {
      "inputs": [
        {
          "internalType": "contract IPolicyFlow",
          "name": "_policyFlow",
          "type": "address"
        }
      ],
      "name": "updatePolicyFlow",
      "outputs": [],
      "stateMutability": "nonpayable",
      "type": "function"
    },
    {
      "inputs": [],
      "name": "getNextId",
      "outputs": [
        {
          "internalType": "uint256",
          "name": "",
          "type": "uint256"
        }
      ],
      "stateMutability": "view",
      "type": "function"
    },
    {
      "inputs": [
        {
          "internalType": "address",
          "name": "_to",
          "type": "address"
        }
      ],
      "name": "mintPolicyToken",
      "outputs": [],
      "stateMutability": "nonpayable",
      "type": "function"
    },
    {
      "inputs": [
        {
          "internalType": "uint256",
          "name": "tokenId",
          "type": "uint256"
        }
      ],
      "name": "tokenURI",
      "outputs": [
        {
          "internalType": "string",
          "name": "",
          "type": "string"
        }
      ],
      "stateMutability": "view",
      "type": "function"
    },
    {
      "inputs": [
        {
          "components": [
            {
              "internalType": "uint256",
              "name": "productId",
              "type": "uint256"
            },
            {
              "internalType": "bytes32",
              "name": "policyId",
              "type": "bytes32"
            },
            {
              "internalType": "uint256",
              "name": "totalOrder",
              "type": "uint256"
            },
            {
              "internalType": "address",
              "name": "owner",
              "type": "address"
            },
            {
              "internalType": "uint256",
              "name": "premium",
              "type": "uint256"
            },
            {
              "internalType": "uint256",
              "name": "payoff",
              "type": "uint256"
            },
            {
              "internalType": "uint256",
              "name": "purchaseDate",
              "type": "uint256"
            },
            {
              "internalType": "uint256",
              "name": "departureDate",
              "type": "uint256"
            },
            {
              "internalType": "uint256",
              "name": "landingDate",
              "type": "uint256"
            },
            {
              "internalType": "uint256",
              "name": "status",
              "type": "uint256"
            }
          ],
          "internalType": "struct PolicyToken.PolicyTokenURIParam",
          "name": "_params",
          "type": "tuple"
        }
      ],
      "name": "constructTokenURI",
      "outputs": [
        {
          "internalType": "string",
          "name": "",
          "type": "string"
        }
      ],
      "stateMutability": "pure",
      "type": "function"
    }
  ],
  "bytecode": "0x60806040523480156200001157600080fd5b5060405162003cc338038062003cc38339818101604052810190620000379190620002dc565b6040518060400160405280601181526020017f4465676973506f6c696379546f6b656e320000000000000000000000000000008152506040518060400160405280600781526020017f44454749535054000000000000000000000000000000000000000000000000008152508160009080519060200190620000bb92919062000215565b508060019080519060200190620000d492919062000215565b505050620000f7620000eb6200014760201b60201c565b6200014f60201b60201c565b600160088190555080600760006101000a81548173ffffffffffffffffffffffffffffffffffffffff021916908373ffffffffffffffffffffffffffffffffffffffff16021790555050620003da565b600033905090565b6000600660009054906101000a900473ffffffffffffffffffffffffffffffffffffffff16905081600660006101000a81548173ffffffffffffffffffffffffffffffffffffffff021916908373ffffffffffffffffffffffffffffffffffffffff1602179055508173ffffffffffffffffffffffffffffffffffffffff168173ffffffffffffffffffffffffffffffffffffffff167f8be0079c531659141344cd1fd0a4f28419497f9722a3daafe3b4186f6b6457e060405160405180910390a35050565b828054620002239062000356565b90600052602060002090601f01602090048101928262000247576000855562000293565b82601f106200026257805160ff191683800117855562000293565b8280016001018555821562000293579182015b828111156200029257825182559160200191906001019062000275565b5b509050620002a29190620002a6565b5090565b5b80821115620002c1576000816000905550600101620002a7565b5090565b600081519050620002d681620003c0565b92915050565b600060208284031215620002f557620002f4620003bb565b5b60006200030584828501620002c5565b91505092915050565b60006200031b8262000336565b9050919050565b60006200032f826200030e565b9050919050565b600073ffffffffffffffffffffffffffffffffffffffff82169050919050565b600060028204905060018216806200036f57607f821691505b602082108114156200038657620003856200038c565b5b50919050565b7f4e487b7100000000000000000000000000000000000000000000000000000000600052602260045260246000fd5b600080fd5b620003cb8162000322565b8114620003d757600080fd5b50565b6138d980620003ea6000396000f3fe608060405234801561001057600080fd5b50600436106101375760003560e01c806395d89b41116100b8578063bc9683261161007c578063bc96832614610324578063c58cd39414610342578063c87b56dd14610372578063e985e9c5146103a2578063f2f2fff5146103d2578063f2fde38b146103f057610137565b806395d89b41146102965780639b16b417146102b4578063a22cb465146102d0578063b88d4fde146102ec578063b918e5e21461030857610137565b806342842e0e116100ff57806342842e0e146101f25780636352211e1461020e57806370a082311461023e578063715018a61461026e5780638da5cb5b1461027857610137565b806301ffc9a71461013c57806306fdde031461016c578063081812fc1461018a578063095ea7b3146101ba57806323b872dd146101d6575b600080fd5b61015660048036038101906101519190612351565b61040c565b6040516101639190612abe565b60405180910390f35b6101746104ee565b6040516101819190612ad9565b60405180910390f35b6101a4600480360381019061019f9190612406565b610580565b6040516101b19190612a57565b60405180910390f35b6101d460048036038101906101cf9190612247565b610605565b005b6101f060048036038101906101eb9190612131565b61071d565b005b61020c60048036038101906102079190612131565b61077d565b005b61022860048036038101906102239190612406565b61079d565b6040516102359190612a57565b60405180910390f35b610258600480360381019061025391906120c4565b61084f565b6040516102659190612d1b565b60405180910390f35b610276610907565b005b61028061098f565b60405161028d9190612a57565b60405180910390f35b61029e6109b9565b6040516102ab9190612ad9565b60405180910390f35b6102ce60048036038101906102c991906123ab565b610a4b565b005b6102ea60048036038101906102e59190612207565b610a8f565b005b61030660048036038101906103019190612184565b610c10565b005b610322600480360381019061031d91906120c4565b610c72565b005b61032c610d17565b6040516103399190612d1b565b60405180910390f35b61035c600480360381019061035791906123d8565b610d21565b6040516103699190612ad9565b60405180910390f35b61038c60048036038101906103879190612406565b610e02565b6040516103999190612ad9565b60405180910390f35b6103bc60048036038101906103b791906120f1565b610e58565b6040516103c99190612abe565b60405180910390f35b6103da610eec565b6040516103e79190612d1b565b60405180910390f35b61040a600480360381019061040591906120c4565b610ef2565b005b60007f80ac58cd000000000000000000000000000000000000000000000000000000007bffffffffffffffffffffffffffffffffffffffffffffffffffffffff1916827bffffffffffffffffffffffffffffffffffffffffffffffffffffffff191614806104d757507f5b5e139f000000000000000000000000000000000000000000000000000000007bffffffffffffffffffffffffffffffffffffffffffffffffffffffff1916827bffffffffffffffffffffffffffffffffffffffffffffffffffffffff1916145b806104e757506104e682610fea565b5b9050919050565b6060600080546104fd90612fe0565b80601f016020809104026020016040519081016040528092919081815260200182805461052990612fe0565b80156105765780601f1061054b57610100808354040283529160200191610576565b820191906000526020600020905b81548152906001019060200180831161055957829003601f168201915b5050505050905090565b600061058b82611054565b6105ca576040517f08c379a00000000000000000000000000000000000000000000000000000000081526004016105c190612c7b565b60405180910390fd5b6004600083815260200190815260200160002060009054906101000a900473ffffffffffffffffffffffffffffffffffffffff169050919050565b60006106108261079d565b90508073ffffffffffffffffffffffffffffffffffffffff168373ffffffffffffffffffffffffffffffffffffffff161415610681576040517f08c379a000000000000000000000000000000000000000000000000000000000815260040161067890612cdb565b60405180910390fd5b8073ffffffffffffffffffffffffffffffffffffffff166106a06110c0565b73ffffffffffffffffffffffffffffffffffffffff1614806106cf57506106ce816106c96110c0565b610e58565b5b61070e576040517f08c379a000000000000000000000000000000000000000000000000000000000815260040161070590612bfb565b60405180910390fd5b61071883836110c8565b505050565b61072e6107286110c0565b82611181565b61076d576040517f08c379a000000000000000000000000000000000000000000000000000000000815260040161076490612cfb565b60405180910390fd5b61077883838361125f565b505050565b61079883838360405180602001604052806000815250610c10565b505050565b6000806002600084815260200190815260200160002060009054906101000a900473ffffffffffffffffffffffffffffffffffffffff169050600073ffffffffffffffffffffffffffffffffffffffff168173ffffffffffffffffffffffffffffffffffffffff161415610846576040517f08c379a000000000000000000000000000000000000000000000000000000000815260040161083d90612c3b565b60405180910390fd5b80915050919050565b60008073ffffffffffffffffffffffffffffffffffffffff168273ffffffffffffffffffffffffffffffffffffffff1614156108c0576040517f08c379a00000000000000000000000000000000000000000000000000000000081526004016108b790612c1b565b60405180910390fd5b600360008373ffffffffffffffffffffffffffffffffffffffff1673ffffffffffffffffffffffffffffffffffffffff168152602001908152602001600020549050919050565b61090f6110c0565b73ffffffffffffffffffffffffffffffffffffffff1661092d61098f565b73ffffffffffffffffffffffffffffffffffffffff1614610983576040517f08c379a000000000000000000000000000000000000000000000000000000000815260040161097a90612c9b565b60405180910390fd5b61098d60006114bb565b565b6000600660009054906101000a900473ffffffffffffffffffffffffffffffffffffffff16905090565b6060600180546109c890612fe0565b80601f01602080910402602001604051908101604052809291908181526020018280546109f490612fe0565b8015610a415780601f10610a1657610100808354040283529160200191610a41565b820191906000526020600020905b815481529060010190602001808311610a2457829003601f168201915b5050505050905090565b80600760006101000a81548173ffffffffffffffffffffffffffffffffffffffff021916908373ffffffffffffffffffffffffffffffffffffffff16021790555050565b610a976110c0565b73ffffffffffffffffffffffffffffffffffffffff168273ffffffffffffffffffffffffffffffffffffffff161415610b05576040517f08c379a0000000000000000000000000000000000000000000000000000000008152600401610afc90612bbb565b60405180910390fd5b8060056000610b126110c0565b73ffffffffffffffffffffffffffffffffffffffff1673ffffffffffffffffffffffffffffffffffffffff16815260200190815260200160002060008473ffffffffffffffffffffffffffffffffffffffff1673ffffffffffffffffffffffffffffffffffffffff16815260200190815260200160002060006101000a81548160ff0219169083151502179055508173ffffffffffffffffffffffffffffffffffffffff16610bbf6110c0565b73ffffffffffffffffffffffffffffffffffffffff167f17307eab39ab6107e8899845ad3d59bd9653f200f220920489ca2b5937696c3183604051610c049190612abe565b60405180910390a35050565b610c21610c1b6110c0565b83611181565b610c60576040517f08c379a0000000000000000000000000000000000000000000000000000000008152600401610c5790612cfb565b60405180910390fd5b610c6c84848484611581565b50505050565b610c7a6110c0565b73ffffffffffffffffffffffffffffffffffffffff16610c9861098f565b73ffffffffffffffffffffffffffffffffffffffff1614610cee576040517f08c379a0000000000000000000000000000000000000000000000000000000008152600401610ce590612c9b565b60405180910390fd5b600060086000815480929190610d0390613043565b919050559050610d1382826115dd565b5050565b6000600854905090565b606060008261012001519050610d3a83600001516117ab565b610d47846020015161190c565b610d5485604001516117ab565b610d61866060015161192c565b610d81670de0b6b3a76400008860800151610d7c9190612e25565b6117ab565b610da1670de0b6b3a76400008960a00151610d9c9190612e25565b6117ab565b610dae8960c001516117ab565b610dbb8a60e001516117ab565b610dc98b61010001516117ab565b610dd28a6117ab565b604051602001610deb9a999897969594939291906128fa565b604051602081830303815290604052915050919050565b60606008548210610e48576040517f08c379a0000000000000000000000000000000000000000000000000000000008152600401610e3f90612b7b565b60405180910390fd5b610e518261195f565b9050919050565b6000600560008473ffffffffffffffffffffffffffffffffffffffff1673ffffffffffffffffffffffffffffffffffffffff16815260200190815260200160002060008373ffffffffffffffffffffffffffffffffffffffff1673ffffffffffffffffffffffffffffffffffffffff16815260200190815260200160002060009054906101000a900460ff16905092915050565b60085481565b610efa6110c0565b73ffffffffffffffffffffffffffffffffffffffff16610f1861098f565b73ffffffffffffffffffffffffffffffffffffffff1614610f6e576040517f08c379a0000000000000000000000000000000000000000000000000000000008152600401610f6590612c9b565b60405180910390fd5b600073ffffffffffffffffffffffffffffffffffffffff168173ffffffffffffffffffffffffffffffffffffffff161415610fde576040517f08c379a0000000000000000000000000000000000000000000000000000000008152600401610fd590612b3b565b60405180910390fd5b610fe7816114bb565b50565b60007f01ffc9a7000000000000000000000000000000000000000000000000000000007bffffffffffffffffffffffffffffffffffffffffffffffffffffffff1916827bffffffffffffffffffffffffffffffffffffffffffffffffffffffff1916149050919050565b60008073ffffffffffffffffffffffffffffffffffffffff166002600084815260200190815260200160002060009054906101000a900473ffffffffffffffffffffffffffffffffffffffff1673ffffffffffffffffffffffffffffffffffffffff1614159050919050565b600033905090565b816004600083815260200190815260200160002060006101000a81548173ffffffffffffffffffffffffffffffffffffffff021916908373ffffffffffffffffffffffffffffffffffffffff160217905550808273ffffffffffffffffffffffffffffffffffffffff1661113b8361079d565b73ffffffffffffffffffffffffffffffffffffffff167f8c5be1e5ebec7d5bd14f71427d1e84f3dd0314c0f7b2291e5b200ac8c7c3b92560405160405180910390a45050565b600061118c82611054565b6111cb576040517f08c379a00000000000000000000000000000000000000000000000000000000081526004016111c290612bdb565b60405180910390fd5b60006111d68361079d565b90508073ffffffffffffffffffffffffffffffffffffffff168473ffffffffffffffffffffffffffffffffffffffff16148061124557508373ffffffffffffffffffffffffffffffffffffffff1661122d84610580565b73ffffffffffffffffffffffffffffffffffffffff16145b8061125657506112558185610e58565b5b91505092915050565b8273ffffffffffffffffffffffffffffffffffffffff1661127f8261079d565b73ffffffffffffffffffffffffffffffffffffffff16146112d5576040517f08c379a00000000000000000000000000000000000000000000000000000000081526004016112cc90612cbb565b60405180910390fd5b600073ffffffffffffffffffffffffffffffffffffffff168273ffffffffffffffffffffffffffffffffffffffff161415611345576040517f08c379a000000000000000000000000000000000000000000000000000000000815260040161133c90612b9b565b60405180910390fd5b611350838383611aa1565b61135b6000826110c8565b6001600360008573ffffffffffffffffffffffffffffffffffffffff1673ffffffffffffffffffffffffffffffffffffffff16815260200190815260200160002060008282546113ab9190612eb0565b925050819055506001600360008473ffffffffffffffffffffffffffffffffffffffff1673ffffffffffffffffffffffffffffffffffffffff16815260200190815260200160002060008282546114029190612dcf565b92505081905550816002600083815260200190815260200160002060006101000a81548173ffffffffffffffffffffffffffffffffffffffff021916908373ffffffffffffffffffffffffffffffffffffffff160217905550808273ffffffffffffffffffffffffffffffffffffffff168473ffffffffffffffffffffffffffffffffffffffff167fddf252ad1be2c89b69c2b068fc378daa952ba7f163c4a11628f55a4df523b3ef60405160405180910390a4505050565b6000600660009054906101000a900473ffffffffffffffffffffffffffffffffffffffff16905081600660006101000a81548173ffffffffffffffffffffffffffffffffffffffff021916908373ffffffffffffffffffffffffffffffffffffffff1602179055508173ffffffffffffffffffffffffffffffffffffffff168173ffffffffffffffffffffffffffffffffffffffff167f8be0079c531659141344cd1fd0a4f28419497f9722a3daafe3b4186f6b6457e060405160405180910390a35050565b61158c84848461125f565b61159884848484611aa6565b6115d7576040517f08c379a00000000000000000000000000000000000000000000000000000000081526004016115ce90612b1b565b60405180910390fd5b50505050565b600073ffffffffffffffffffffffffffffffffffffffff168273ffffffffffffffffffffffffffffffffffffffff16141561164d576040517f08c379a000000000000000000000000000000000000000000000000000000000815260040161164490612c5b565b60405180910390fd5b61165681611054565b15611696576040517f08c379a000000000000000000000000000000000000000000000000000000000815260040161168d90612b5b565b60405180910390fd5b6116a260008383611aa1565b6001600360008473ffffffffffffffffffffffffffffffffffffffff1673ffffffffffffffffffffffffffffffffffffffff16815260200190815260200160002060008282546116f29190612dcf565b92505081905550816002600083815260200190815260200160002060006101000a81548173ffffffffffffffffffffffffffffffffffffffff021916908373ffffffffffffffffffffffffffffffffffffffff160217905550808273ffffffffffffffffffffffffffffffffffffffff16600073ffffffffffffffffffffffffffffffffffffffff167fddf252ad1be2c89b69c2b068fc378daa952ba7f163c4a11628f55a4df523b3ef60405160405180910390a45050565b606060008214156117f3576040518060400160405280600181526020017f30000000000000000000000000000000000000000000000000000000000000008152509050611907565b600082905060005b6000821461182557808061180e90613043565b915050600a8261181e9190612e25565b91506117fb565b60008167ffffffffffffffff81111561184157611840613179565b5b6040519080825280601f01601f1916602001820160405280156118735781602001600182028036833780820191505090505b5090505b600085146119005760018261188c9190612eb0565b9150600a8561189b919061308c565b60306118a79190612dcf565b60f81b8183815181106118bd576118bc61314a565b5b60200101907effffffffffffffffffffffffffffffffffffffffffffffffffffffffffffff1916908160001a905350600a856118f99190612e25565b9450611877565b8093505050505b919050565b606061192560208360001c611c3d90919063ffffffff16565b9050919050565b606061195860148373ffffffffffffffffffffffffffffffffffffffff16611c3d90919063ffffffff16565b9050919050565b60606000806000806000806000806000600760009054906101000a900473ffffffffffffffffffffffffffffffffffffffff1673ffffffffffffffffffffffffffffffffffffffff166330dbc6c48c6040518263ffffffff1660e01b81526004016119ca9190612d1b565b6101206040518083038186803b1580156119e357600080fd5b505afa1580156119f7573d6000803e3d6000fd5b505050506040513d601f19601f82011682018060405250810190611a1b9190612287565b985098509850985098509850985098509850611a916040518061014001604052808a81526020018b81526020018d81526020018973ffffffffffffffffffffffffffffffffffffffff16815260200188815260200187815260200186815260200185815260200184815260200183815250610d21565b9950505050505050505050919050565b505050565b6000611ac78473ffffffffffffffffffffffffffffffffffffffff16611e79565b15611c30578373ffffffffffffffffffffffffffffffffffffffff1663150b7a02611af06110c0565b8786866040518563ffffffff1660e01b8152600401611b129493929190612a72565b602060405180830381600087803b158015611b2c57600080fd5b505af1925050508015611b5d57506040513d601f19601f82011682018060405250810190611b5a919061237e565b60015b611be0573d8060008114611b8d576040519150601f19603f3d011682016040523d82523d6000602084013e611b92565b606091505b50600081511415611bd8576040517f08c379a0000000000000000000000000000000000000000000000000000000008152600401611bcf90612b1b565b60405180910390fd5b805181602001fd5b63150b7a0260e01b7bffffffffffffffffffffffffffffffffffffffffffffffffffffffff1916817bffffffffffffffffffffffffffffffffffffffffffffffffffffffff191614915050611c35565b600190505b949350505050565b606060006002836002611c509190612e56565b611c5a9190612dcf565b67ffffffffffffffff811115611c7357611c72613179565b5b6040519080825280601f01601f191660200182016040528015611ca55781602001600182028036833780820191505090505b5090507f300000000000000000000000000000000000000000000000000000000000000081600081518110611cdd57611cdc61314a565b5b60200101907effffffffffffffffffffffffffffffffffffffffffffffffffffffffffffff1916908160001a9053507f780000000000000000000000000000000000000000000000000000000000000081600181518110611d4157611d4061314a565b5b60200101907effffffffffffffffffffffffffffffffffffffffffffffffffffffffffffff1916908160001a90535060006001846002611d819190612e56565b611d8b9190612dcf565b90505b6001811115611e2b577f3031323334353637383961626364656600000000000000000000000000000000600f861660108110611dcd57611dcc61314a565b5b1a60f81b828281518110611de457611de361314a565b5b60200101907effffffffffffffffffffffffffffffffffffffffffffffffffffffffffffff1916908160001a905350600485901c945080611e2490612fb6565b9050611d8e565b5060008414611e6f576040517f08c379a0000000000000000000000000000000000000000000000000000000008152600401611e6690612afb565b60405180910390fd5b8091505092915050565b600080823b905060008111915050919050565b6000611e9f611e9a84612d5b565b612d36565b905082815260208101848484011115611ebb57611eba6131b2565b5b611ec6848285612f74565b509392505050565b600081359050611edd81613819565b92915050565b600081519050611ef281613819565b92915050565b600081359050611f0781613830565b92915050565b600081359050611f1c81613847565b92915050565b600081519050611f3181613847565b92915050565b600081359050611f468161385e565b92915050565b600081519050611f5b8161385e565b92915050565b600082601f830112611f7657611f756131a8565b5b8135611f86848260208601611e8c565b91505092915050565b600081359050611f9e81613875565b92915050565b60006101408284031215611fbb57611fba6131ad565b5b611fc6610140612d36565b90506000611fd68482850161209a565b6000830152506020611fea84828501611f0d565b6020830152506040611ffe8482850161209a565b604083015250606061201284828501611ece565b60608301525060806120268482850161209a565b60808301525060a061203a8482850161209a565b60a08301525060c061204e8482850161209a565b60c08301525060e06120628482850161209a565b60e0830152506101006120778482850161209a565b6101008301525061012061208d8482850161209a565b6101208301525092915050565b6000813590506120a98161388c565b92915050565b6000815190506120be8161388c565b92915050565b6000602082840312156120da576120d96131bc565b5b60006120e884828501611ece565b91505092915050565b60008060408385031215612108576121076131bc565b5b600061211685828601611ece565b925050602061212785828601611ece565b9150509250929050565b60008060006060848603121561214a576121496131bc565b5b600061215886828701611ece565b935050602061216986828701611ece565b925050604061217a8682870161209a565b9150509250925092565b6000806000806080858703121561219e5761219d6131bc565b5b60006121ac87828801611ece565b94505060206121bd87828801611ece565b93505060406121ce8782880161209a565b925050606085013567ffffffffffffffff8111156121ef576121ee6131b7565b5b6121fb87828801611f61565b91505092959194509250565b6000806040838503121561221e5761221d6131bc565b5b600061222c85828601611ece565b925050602061223d85828601611ef8565b9150509250929050565b6000806040838503121561225e5761225d6131bc565b5b600061226c85828601611ece565b925050602061227d8582860161209a565b9150509250929050565b60008060008060008060008060006101208a8c0312156122aa576122a96131bc565b5b60006122b88c828d01611f22565b99505060206122c98c828d016120af565b98505060406122da8c828d01611ee3565b97505060606122eb8c828d016120af565b96505060806122fc8c828d016120af565b95505060a061230d8c828d016120af565b94505060c061231e8c828d016120af565b93505060e061232f8c828d016120af565b9250506101006123418c828d016120af565b9150509295985092959850929598565b600060208284031215612367576123666131bc565b5b600061237584828501611f37565b91505092915050565b600060208284031215612394576123936131bc565b5b60006123a284828501611f4c565b91505092915050565b6000602082840312156123c1576123c06131bc565b5b60006123cf84828501611f8f565b91505092915050565b600061014082840312156123ef576123ee6131bc565b5b60006123fd84828501611fa4565b91505092915050565b60006020828403121561241c5761241b6131bc565b5b600061242a8482850161209a565b91505092915050565b61243c81612ee4565b82525050565b61244b81612ef6565b82525050565b600061245c82612d8c565b6124668185612da2565b9350612476818560208601612f83565b61247f816131c1565b840191505092915050565b600061249582612d97565b61249f8185612db3565b93506124af818560208601612f83565b6124b8816131c1565b840191505092915050565b60006124ce82612d97565b6124d88185612dc4565b93506124e8818560208601612f83565b80840191505092915050565b6000612501600783612dc4565b915061250c826131d2565b600782019050919050565b6000612524602083612db3565b915061252f826131fb565b602082019050919050565b6000612547600d83612dc4565b915061255282613224565b600d82019050919050565b600061256a600c83612dc4565b91506125758261324d565b600c82019050919050565b600061258d603283612db3565b915061259882613276565b604082019050919050565b60006125b0602683612db3565b91506125bb826132c5565b604082019050919050565b60006125d3600d83612dc4565b91506125de82613314565b600d82019050919050565b60006125f6601c83612db3565b91506126018261333d565b602082019050919050565b6000612619601983612db3565b915061262482613366565b602082019050919050565b600061263c600183612dc4565b91506126478261338f565b600182019050919050565b600061265f602483612db3565b915061266a826133b8565b604082019050919050565b6000612682601983612db3565b915061268d82613407565b602082019050919050565b60006126a5600e83612dc4565b91506126b082613430565b600e82019050919050565b60006126c8602c83612db3565b91506126d382613459565b604082019050919050565b60006126eb600883612dc4565b91506126f6826134a8565b600882019050919050565b600061270e603883612db3565b9150612719826134d1565b604082019050919050565b6000612731600183612dc4565b915061273c82613520565b600182019050919050565b6000612754602a83612db3565b915061275f82613549565b604082019050919050565b6000612777602983612db3565b915061278282613598565b604082019050919050565b600061279a600b83612dc4565b91506127a5826135e7565b600b82019050919050565b60006127bd602083612db3565b91506127c882613610565b602082019050919050565b60006127e0600c83612dc4565b91506127eb82613639565b600c82019050919050565b6000612803602c83612db3565b915061280e82613662565b604082019050919050565b6000612826602083612db3565b9150612831826136b1565b602082019050919050565b6000612849602983612db3565b9150612854826136da565b604082019050919050565b600061286c602183612db3565b915061287782613729565b604082019050919050565b600061288f603183612db3565b915061289a82613778565b604082019050919050565b60006128b2600d83612dc4565b91506128bd826137c7565b600d82019050919050565b60006128d5600e83612dc4565b91506128e0826137f0565b600e82019050919050565b6128f481612f6a565b82525050565b6000612905826127d3565b9150612911828d6124c3565b915061291c8261262f565b91506129278261278d565b9150612933828c6124c3565b915061293e8261262f565b9150612949826125c6565b9150612955828b6124c3565b91506129608261262f565b915061296b82612698565b9150612977828a6124c3565b9150612982826126de565b915061298e82896124c3565b91506129998261262f565b91506129a4826124f4565b91506129b082886124c3565b91506129bb8261262f565b91506129c68261253a565b91506129d282876124c3565b91506129dd8261262f565b91506129e8826128c8565b91506129f482866124c3565b91506129ff8261262f565b9150612a0a8261255d565b9150612a1682856124c3565b9150612a218261262f565b9150612a2c826128a5565b9150612a3882846124c3565b9150612a4382612724565b91508190509b9a5050505050505050505050565b6000602082019050612a6c6000830184612433565b92915050565b6000608082019050612a876000830187612433565b612a946020830186612433565b612aa160408301856128eb565b8181036060830152612ab38184612451565b905095945050505050565b6000602082019050612ad36000830184612442565b92915050565b60006020820190508181036000830152612af3818461248a565b905092915050565b60006020820190508181036000830152612b1481612517565b9050919050565b60006020820190508181036000830152612b3481612580565b9050919050565b60006020820190508181036000830152612b54816125a3565b9050919050565b60006020820190508181036000830152612b74816125e9565b9050919050565b60006020820190508181036000830152612b948161260c565b9050919050565b60006020820190508181036000830152612bb481612652565b9050919050565b60006020820190508181036000830152612bd481612675565b9050919050565b60006020820190508181036000830152612bf4816126bb565b9050919050565b60006020820190508181036000830152612c1481612701565b9050919050565b60006020820190508181036000830152612c3481612747565b9050919050565b60006020820190508181036000830152612c548161276a565b9050919050565b60006020820190508181036000830152612c74816127b0565b9050919050565b60006020820190508181036000830152612c94816127f6565b9050919050565b60006020820190508181036000830152612cb481612819565b9050919050565b60006020820190508181036000830152612cd48161283c565b9050919050565b60006020820190508181036000830152612cf48161285f565b9050919050565b60006020820190508181036000830152612d1481612882565b9050919050565b6000602082019050612d3060008301846128eb565b92915050565b6000612d40612d51565b9050612d4c8282613012565b919050565b6000604051905090565b600067ffffffffffffffff821115612d7657612d75613179565b5b612d7f826131c1565b9050602081019050919050565b600081519050919050565b600081519050919050565b600082825260208201905092915050565b600082825260208201905092915050565b600081905092915050565b6000612dda82612f6a565b9150612de583612f6a565b9250827fffffffffffffffffffffffffffffffffffffffffffffffffffffffffffffffff03821115612e1a57612e196130bd565b5b828201905092915050565b6000612e3082612f6a565b9150612e3b83612f6a565b925082612e4b57612e4a6130ec565b5b828204905092915050565b6000612e6182612f6a565b9150612e6c83612f6a565b9250817fffffffffffffffffffffffffffffffffffffffffffffffffffffffffffffffff0483118215151615612ea557612ea46130bd565b5b828202905092915050565b6000612ebb82612f6a565b9150612ec683612f6a565b925082821015612ed957612ed86130bd565b5b828203905092915050565b6000612eef82612f4a565b9050919050565b60008115159050919050565b6000819050919050565b60007fffffffff0000000000000000000000000000000000000000000000000000000082169050919050565b6000612f4382612ee4565b9050919050565b600073ffffffffffffffffffffffffffffffffffffffff82169050919050565b6000819050919050565b82818337600083830152505050565b60005b83811015612fa1578082015181840152602081019050612f86565b83811115612fb0576000848401525b50505050565b6000612fc182612f6a565b91506000821415612fd557612fd46130bd565b5b600182039050919050565b60006002820490506001821680612ff857607f821691505b6020821081141561300c5761300b61311b565b5b50919050565b61301b826131c1565b810181811067ffffffffffffffff8211171561303a57613039613179565b5b80604052505050565b600061304e82612f6a565b91507fffffffffffffffffffffffffffffffffffffffffffffffffffffffffffffffff821415613081576130806130bd565b5b600182019050919050565b600061309782612f6a565b91506130a283612f6a565b9250826130b2576130b16130ec565b5b828206905092915050565b7f4e487b7100000000000000000000000000000000000000000000000000000000600052601160045260246000fd5b7f4e487b7100000000000000000000000000000000000000000000000000000000600052601260045260246000fd5b7f4e487b7100000000000000000000000000000000000000000000000000000000600052602260045260246000fd5b7f4e487b7100000000000000000000000000000000000000000000000000000000600052603260045260246000fd5b7f4e487b7100000000000000000000000000000000000000000000000000000000600052604160045260246000fd5b600080fd5b600080fd5b600080fd5b600080fd5b600080fd5b6000601f19601f8301169050919050565b7f5061796f66663a00000000000000000000000000000000000000000000000000600082015250565b7f537472696e67733a20686578206c656e67746820696e73756666696369656e74600082015250565b7f5075726368617365446174653a00000000000000000000000000000000000000600082015250565b7f4c616e64696e67446174653a0000000000000000000000000000000000000000600082015250565b7f4552433732313a207472616e7366657220746f206e6f6e20455243373231526560008201527f63656976657220696d706c656d656e7465720000000000000000000000000000602082015250565b7f4f776e61626c653a206e6577206f776e657220697320746865207a65726f206160008201527f6464726573730000000000000000000000000000000000000000000000000000602082015250565b7f546f74616c204f726465723a2000000000000000000000000000000000000000600082015250565b7f4552433732313a20746f6b656e20616c7265616479206d696e74656400000000600082015250565b7f6572726f722c20746f6b656e496420746f6f206c617267652100000000000000600082015250565b7f2c00000000000000000000000000000000000000000000000000000000000000600082015250565b7f4552433732313a207472616e7366657220746f20746865207a65726f2061646460008201527f7265737300000000000000000000000000000000000000000000000000000000602082015250565b7f4552433732313a20617070726f766520746f2063616c6c657200000000000000600082015250565b7f4275796572416464726573733a20000000000000000000000000000000000000600082015250565b7f4552433732313a206f70657261746f7220717565727920666f72206e6f6e657860008201527f697374656e7420746f6b656e0000000000000000000000000000000000000000602082015250565b7f5072656d69756d3a000000000000000000000000000000000000000000000000600082015250565b7f4552433732313a20617070726f76652063616c6c6572206973206e6f74206f7760008201527f6e6572206e6f7220617070726f76656420666f7220616c6c0000000000000000602082015250565b7f2e00000000000000000000000000000000000000000000000000000000000000600082015250565b7f4552433732313a2062616c616e636520717565727920666f7220746865207a6560008201527f726f206164647265737300000000000000000000000000000000000000000000602082015250565b7f4552433732313a206f776e657220717565727920666f72206e6f6e657869737460008201527f656e7420746f6b656e0000000000000000000000000000000000000000000000602082015250565b7f506f6c6963792069643a20000000000000000000000000000000000000000000600082015250565b7f4552433732313a206d696e7420746f20746865207a65726f2061646472657373600082015250565b7f50726f647563742069643a200000000000000000000000000000000000000000600082015250565b7f4552433732313a20617070726f76656420717565727920666f72206e6f6e657860008201527f697374656e7420746f6b656e0000000000000000000000000000000000000000602082015250565b7f4f776e61626c653a2063616c6c6572206973206e6f7420746865206f776e6572600082015250565b7f4552433732313a207472616e73666572206f6620746f6b656e2074686174206960008201527f73206e6f74206f776e0000000000000000000000000000000000000000000000602082015250565b7f4552433732313a20617070726f76616c20746f2063757272656e74206f776e6560008201527f7200000000000000000000000000000000000000000000000000000000000000602082015250565b7f4552433732313a207472616e736665722063616c6c6572206973206e6f74206f60008201527f776e6572206e6f7220617070726f766564000000000000000000000000000000602082015250565b7f506f6c6963795374617475733a00000000000000000000000000000000000000600082015250565b7f446570617274757265446174653a000000000000000000000000000000000000600082015250565b61382281612ee4565b811461382d57600080fd5b50565b61383981612ef6565b811461384457600080fd5b50565b61385081612f02565b811461385b57600080fd5b50565b61386781612f0c565b811461387257600080fd5b50565b61387e81612f38565b811461388957600080fd5b50565b61389581612f6a565b81146138a057600080fd5b5056fea2646970667358221220d4c06a431c99270d3ffce11f53d29ad914ecb19029cae67a312751f2a76dc08e64736f6c63430008050033",
  "immutableReferences": {},
  "source": "// SPDX-License-Identifier: MIT\r\npragma solidity ^0.8.0;\r\n\r\nimport \"@openzeppelin/contracts/token/ERC721/ERC721.sol\";\r\nimport \"./interfaces/IPolicyFlow.sol\";\r\nimport \"@openzeppelin/contracts/utils/Strings.sol\";\r\nimport \"./libraries/ToStrings.sol\";\r\nimport \"@openzeppelin/contracts/access/Ownable.sol\";\r\n\r\ncontract PolicyToken is ERC721, Ownable {\r\n    using Strings for uint256;\r\n\r\n    struct PolicyTokenURIParam {\r\n        uint256 productId;\r\n        bytes32 policyId;\r\n        uint256 totalOrder;\r\n        address owner;\r\n        uint256 premium;\r\n        uint256 payoff;\r\n        uint256 purchaseDate;\r\n        uint256 departureDate;\r\n        uint256 landingDate;\r\n        uint256 status;\r\n    }\r\n\r\n    IPolicyFlow policyFlow;\r\n\r\n    uint256 public _nextId;\r\n\r\n    constructor(IPolicyFlow _policyFlow)\r\n        ERC721(\"DegisPolicyToken2\", \"DEGISPT\")\r\n    {\r\n        _nextId = 1;\r\n        policyFlow = _policyFlow;\r\n    }\r\n\r\n    function updatePolicyFlow(IPolicyFlow _policyFlow) public {\r\n        policyFlow = _policyFlow;\r\n    }\r\n\r\n    function getNextId() public view returns (uint256) {\r\n        return _nextId;\r\n    }\r\n\r\n    function mintPolicyToken(address _to) public onlyOwner {\r\n        uint256 tokenId = _nextId++;\r\n        _mint(_to, tokenId);\r\n    }\r\n\r\n    function tokenURI(uint256 tokenId)\r\n        public\r\n        view\r\n        override(ERC721)\r\n        returns (string memory)\r\n    {\r\n        require(tokenId < _nextId, \"error, tokenId too large!\");\r\n        return getTokenURI(tokenId);\r\n        // \"This is a test message. product Id: 0, policy Id: 1, premium: 1, payoff: 10\";\r\n    }\r\n\r\n    function getTokenURI(uint256 tokenId)\r\n        internal\r\n        view\r\n        returns (string memory)\r\n    {\r\n        (\r\n            bytes32 _policyId,\r\n            uint256 _productId,\r\n            address _owner,\r\n            uint256 _premium,\r\n            uint256 _payoff,\r\n            uint256 _purchaseDate,\r\n            uint256 _departureDate,\r\n            uint256 _landingDate,\r\n            uint256 _status\r\n        ) = policyFlow.getPolicyInfoByCount(tokenId);\r\n\r\n        return\r\n            constructTokenURI(\r\n                PolicyTokenURIParam(\r\n                    _productId,\r\n                    _policyId,\r\n                    tokenId,\r\n                    _owner,\r\n                    _premium,\r\n                    _payoff,\r\n                    _purchaseDate,\r\n                    _departureDate,\r\n                    _landingDate,\r\n                    _status\r\n                )\r\n            );\r\n    }\r\n\r\n    function constructTokenURI(PolicyTokenURIParam memory _params)\r\n        public\r\n        pure\r\n        returns (string memory)\r\n    {\r\n        uint256 status = uint256(_params.status);\r\n        return\r\n            string(\r\n                abi.encodePacked(\r\n                    \"Product id: \",\r\n                    _params.productId.toString(),\r\n                    \",\",\r\n                    \"Policy id: \",\r\n                    byToString(_params.policyId),\r\n                    \",\",\r\n                    \"Total Order: \",\r\n                    _params.totalOrder.toString(),\r\n                    \",\",\r\n                    \"BuyerAddress: \",\r\n                    addressToString(_params.owner),\r\n                    \"Premium:\",\r\n                    (_params.premium / 10**18).toString(),\r\n                    \",\",\r\n                    \"Payoff:\",\r\n                    (_params.payoff / 10**18).toString(),\r\n                    \",\",\r\n                    \"PurchaseDate:\",\r\n                    _params.purchaseDate.toString(),\r\n                    \",\",\r\n                    \"DepartureDate:\",\r\n                    _params.departureDate.toString(),\r\n                    \",\",\r\n                    \"LandingDate:\",\r\n                    _params.landingDate.toString(),\r\n                    \",\",\r\n                    \"PolicyStatus:\",\r\n                    status.toString(),\r\n                    \".\"\r\n                )\r\n            );\r\n    }\r\n\r\n    function byToString(bytes32 _bytes) internal pure returns (string memory) {\r\n        return (uint256(_bytes)).toHexString(32);\r\n    }\r\n\r\n    function addressToString(address _addr)\r\n        internal\r\n        pure\r\n        returns (string memory)\r\n    {\r\n        return (uint256(uint160(_addr))).toHexString(20);\r\n    }\r\n}\r\n",
  "sourcePath": "D:\\src\\Degis-Contracts-1\\contracts\\PolicyToken.sol",
  "compiler": {
    "name": "solc",
    "version": "0.8.5+commit.a4f2e591.Emscripten.clang"
  },
  "schemaVersion": "3.4.3",
  "updatedAt": "2021-10-07T16:23:49.139Z",
  "networkType": "ethereum",
  "devdoc": {
    "kind": "dev",
    "methods": {
      "approve(address,uint256)": {
        "details": "See {IERC721-approve}."
      },
      "balanceOf(address)": {
        "details": "See {IERC721-balanceOf}."
      },
      "getApproved(uint256)": {
        "details": "See {IERC721-getApproved}."
      },
      "isApprovedForAll(address,address)": {
        "details": "See {IERC721-isApprovedForAll}."
      },
      "name()": {
        "details": "See {IERC721Metadata-name}."
      },
      "owner()": {
        "details": "Returns the address of the current owner."
      },
      "ownerOf(uint256)": {
        "details": "See {IERC721-ownerOf}."
      },
      "renounceOwnership()": {
        "details": "Leaves the contract without owner. It will not be possible to call `onlyOwner` functions anymore. Can only be called by the current owner. NOTE: Renouncing ownership will leave the contract without an owner, thereby removing any functionality that is only available to the owner."
      },
      "safeTransferFrom(address,address,uint256)": {
        "details": "See {IERC721-safeTransferFrom}."
      },
      "safeTransferFrom(address,address,uint256,bytes)": {
        "details": "See {IERC721-safeTransferFrom}."
      },
      "setApprovalForAll(address,bool)": {
        "details": "See {IERC721-setApprovalForAll}."
      },
      "supportsInterface(bytes4)": {
        "details": "See {IERC165-supportsInterface}."
      },
      "symbol()": {
        "details": "See {IERC721Metadata-symbol}."
      },
      "tokenURI(uint256)": {
        "details": "See {IERC721Metadata-tokenURI}."
      },
      "transferFrom(address,address,uint256)": {
        "details": "See {IERC721-transferFrom}."
      },
      "transferOwnership(address)": {
        "details": "Transfers ownership of the contract to a new account (`newOwner`). Can only be called by the current owner."
      }
    },
    "version": 1
  },
  "userdoc": {
    "kind": "user",
    "methods": {},
    "version": 1
  }
}