{
  "contractName": "PolicyFlow",
  "abi": [
    {
      "inputs": [
        {
          "internalType": "contract IInsurancePool",
          "name": "_insurancePool",
          "type": "address"
        },
        {
          "internalType": "contract IPolicyToken",
          "name": "_policyToken",
          "type": "address"
        },
        {
          "internalType": "address",
          "name": "_oracleAddress",
          "type": "address"
        }
      ],
      "stateMutability": "nonpayable",
      "type": "constructor"
    },
    {
      "anonymous": false,
      "inputs": [
        {
          "indexed": true,
          "internalType": "bytes32",
          "name": "id",
          "type": "bytes32"
        }
      ],
      "name": "ChainlinkCancelled",
      "type": "event"
    },
    {
      "anonymous": false,
      "inputs": [
        {
          "indexed": true,
          "internalType": "bytes32",
          "name": "id",
          "type": "bytes32"
        }
      ],
      "name": "ChainlinkFulfilled",
      "type": "event"
    },
    {
      "anonymous": false,
      "inputs": [
        {
          "indexed": true,
          "internalType": "bytes32",
          "name": "id",
          "type": "bytes32"
        }
      ],
      "name": "ChainlinkRequested",
      "type": "event"
    },
    {
      "anonymous": false,
      "inputs": [
        {
          "indexed": false,
          "internalType": "bytes32",
          "name": "_policyId",
          "type": "bytes32"
        },
        {
          "indexed": false,
          "internalType": "bytes32",
          "name": "_requestId",
          "type": "bytes32"
        }
      ],
      "name": "FulfilledOracleRequest",
      "type": "event"
    },
    {
      "anonymous": false,
      "inputs": [
        {
          "indexed": false,
          "internalType": "bytes32",
          "name": "_policyID",
          "type": "bytes32"
        },
        {
          "indexed": true,
          "internalType": "address",
          "name": "_userAddress",
          "type": "address"
        }
      ],
      "name": "PolicyClaimed",
      "type": "event"
    },
    {
      "anonymous": false,
      "inputs": [
        {
          "indexed": false,
          "internalType": "bytes32",
          "name": "_policyID",
          "type": "bytes32"
        },
        {
          "indexed": true,
          "internalType": "address",
          "name": "_userAddress",
          "type": "address"
        }
      ],
      "name": "PolicyDeclined",
      "type": "event"
    },
    {
      "anonymous": false,
      "inputs": [
        {
          "indexed": false,
          "internalType": "bytes32",
          "name": "_policyID",
          "type": "bytes32"
        },
        {
          "indexed": true,
          "internalType": "address",
          "name": "_userAddress",
          "type": "address"
        }
      ],
      "name": "PolicyExpired",
      "type": "event"
    },
    {
      "anonymous": false,
      "inputs": [
        {
          "indexed": false,
          "internalType": "bytes32",
          "name": "_policyID",
          "type": "bytes32"
        },
        {
          "indexed": true,
          "internalType": "address",
          "name": "_userAddress",
          "type": "address"
        }
      ],
      "name": "PolicySold",
      "type": "event"
    },
    {
      "anonymous": false,
      "inputs": [
        {
          "indexed": false,
          "internalType": "bytes32",
          "name": "_policyID",
          "type": "bytes32"
        },
        {
          "indexed": true,
          "internalType": "address",
          "name": "_userAddress",
          "type": "address"
        }
      ],
      "name": "newPolicyApplication",
      "type": "event"
    },
    {
      "inputs": [],
      "name": "DELAY_THRESHOLD",
      "outputs": [
        {
          "internalType": "uint256",
          "name": "",
          "type": "uint256"
        }
      ],
      "stateMutability": "view",
      "type": "function",
      "constant": true
    },
    {
      "inputs": [],
      "name": "MIN_TIME_BEFORE_DEPARTURE",
      "outputs": [
        {
          "internalType": "uint256",
          "name": "",
          "type": "uint256"
        }
      ],
      "stateMutability": "view",
      "type": "function",
      "constant": true
    },
    {
      "inputs": [],
      "name": "Total_Policies",
      "outputs": [
        {
          "internalType": "uint256",
          "name": "",
          "type": "uint256"
        }
      ],
      "stateMutability": "view",
      "type": "function",
      "constant": true
    },
    {
      "inputs": [
        {
          "internalType": "address",
          "name": "_addr",
          "type": "address"
        }
      ],
      "name": "addressToString",
      "outputs": [
        {
          "internalType": "string",
          "name": "",
          "type": "string"
        }
      ],
      "stateMutability": "pure",
      "type": "function",
      "constant": true
    },
    {
      "inputs": [
        {
          "internalType": "bytes32",
          "name": "_bytes",
          "type": "bytes32"
        }
      ],
      "name": "bytes32ToHumanString",
      "outputs": [
        {
          "internalType": "string",
          "name": "",
          "type": "string"
        }
      ],
      "stateMutability": "pure",
      "type": "function",
      "constant": true
    },
    {
      "inputs": [
        {
          "internalType": "bytes32",
          "name": "_bytes",
          "type": "bytes32"
        }
      ],
      "name": "bytes32ToString",
      "outputs": [
        {
          "internalType": "string",
          "name": "",
          "type": "string"
        }
      ],
      "stateMutability": "pure",
      "type": "function",
      "constant": true
    },
    {
      "inputs": [
        {
          "internalType": "bytes32",
          "name": "s",
          "type": "bytes32"
        }
      ],
      "name": "bytesToUint",
      "outputs": [
        {
          "internalType": "uint256",
          "name": "",
          "type": "uint256"
        }
      ],
      "stateMutability": "pure",
      "type": "function",
      "constant": true
    },
    {
      "inputs": [],
      "name": "oracleResponse",
      "outputs": [
        {
          "internalType": "uint256",
          "name": "",
          "type": "uint256"
        }
      ],
      "stateMutability": "view",
      "type": "function",
      "constant": true
    },
    {
      "inputs": [],
      "name": "owner",
      "outputs": [
        {
          "internalType": "address",
          "name": "",
          "type": "address"
        }
      ],
      "stateMutability": "view",
      "type": "function",
      "constant": true
    },
    {
      "inputs": [],
      "name": "getChainlinkToken",
      "outputs": [
        {
          "internalType": "address",
          "name": "",
          "type": "address"
        }
      ],
      "stateMutability": "view",
      "type": "function",
      "constant": true
    },
    {
      "inputs": [
        {
          "internalType": "address",
          "name": "_userAddress",
          "type": "address"
        }
      ],
      "name": "viewPolicy",
      "outputs": [
        {
          "internalType": "string",
          "name": "",
          "type": "string"
        }
      ],
      "stateMutability": "view",
      "type": "function",
      "constant": true
    },
    {
      "inputs": [
        {
          "internalType": "uint256",
          "name": "_count",
          "type": "uint256"
        }
      ],
      "name": "getPolicyIdByCount",
      "outputs": [
        {
          "internalType": "bytes32",
          "name": "",
          "type": "bytes32"
        }
      ],
      "stateMutability": "view",
      "type": "function",
      "constant": true
    },
    {
      "inputs": [
        {
          "internalType": "uint256",
          "name": "_count",
          "type": "uint256"
        }
      ],
      "name": "getPolicyInfoByCount",
      "outputs": [
        {
          "internalType": "bytes32",
          "name": "_policyId",
          "type": "bytes32"
        },
        {
          "internalType": "uint256",
          "name": "_productId",
          "type": "uint256"
        },
        {
          "internalType": "address",
          "name": "_owner",
          "type": "address"
        },
        {
          "internalType": "uint256",
          "name": "_premium",
          "type": "uint256"
        },
        {
          "internalType": "uint256",
          "name": "_payoff",
          "type": "uint256"
        },
        {
          "internalType": "uint256",
          "name": "_purchaseDate",
          "type": "uint256"
        },
        {
          "internalType": "uint256",
          "name": "_departureDate",
          "type": "uint256"
        },
        {
          "internalType": "uint256",
          "name": "_landingDate",
          "type": "uint256"
        },
        {
          "internalType": "uint256",
          "name": "_policyStatus",
          "type": "uint256"
        }
      ],
      "stateMutability": "view",
      "type": "function",
      "constant": true
    },
    {
      "inputs": [
        {
          "internalType": "address",
          "name": "_userAddress",
          "type": "address"
        }
      ],
      "name": "getUserPolicyCount",
      "outputs": [
        {
          "internalType": "uint256",
          "name": "",
          "type": "uint256"
        }
      ],
      "stateMutability": "view",
      "type": "function",
      "constant": true
    },
    {
      "inputs": [
        {
          "internalType": "bytes32",
          "name": "_policyId",
          "type": "bytes32"
        }
      ],
      "name": "findPolicyBuyerById",
      "outputs": [
        {
          "internalType": "address",
          "name": "",
          "type": "address"
        }
      ],
      "stateMutability": "view",
      "type": "function",
      "constant": true
    },
    {
      "inputs": [
        {
          "internalType": "bytes32",
          "name": "_jobId",
          "type": "bytes32"
        }
      ],
      "name": "changeJobId",
      "outputs": [],
      "stateMutability": "nonpayable",
      "type": "function"
    },
    {
      "inputs": [
        {
          "internalType": "uint256",
          "name": "_fee",
          "type": "uint256"
        }
      ],
      "name": "changeFee",
      "outputs": [],
      "stateMutability": "nonpayable",
      "type": "function"
    },
    {
      "inputs": [
        {
          "internalType": "address",
          "name": "_oracleAddress",
          "type": "address"
        }
      ],
      "name": "changeOrcaleAddress",
      "outputs": [],
      "stateMutability": "nonpayable",
      "type": "function"
    },
    {
      "inputs": [
        {
          "internalType": "uint256",
          "name": "_threshold",
          "type": "uint256"
        }
      ],
      "name": "setDelayThreshold",
      "outputs": [],
      "stateMutability": "nonpayable",
      "type": "function"
    },
    {
      "inputs": [
        {
          "internalType": "address",
          "name": "_userAddress",
          "type": "address"
        },
        {
          "internalType": "uint256",
          "name": "_productId",
          "type": "uint256"
        },
        {
          "internalType": "uint256",
          "name": "_premium",
          "type": "uint256"
        },
        {
          "internalType": "uint256",
          "name": "_payoff",
          "type": "uint256"
        },
        {
          "internalType": "uint256",
          "name": "_departureDate",
          "type": "uint256"
        },
        {
          "internalType": "uint256",
          "name": "_landingDate",
          "type": "uint256"
        }
      ],
      "name": "newApplication",
      "outputs": [
        {
          "internalType": "bytes32",
          "name": "_policyId",
          "type": "bytes32"
        }
      ],
      "stateMutability": "nonpayable",
      "type": "function"
    },
    {
      "inputs": [
        {
          "internalType": "uint256",
          "name": "_policyOrder",
          "type": "uint256"
        },
        {
          "internalType": "string",
          "name": "_flightNumber",
          "type": "string"
        },
        {
          "internalType": "string",
          "name": "_date",
          "type": "string"
        },
        {
          "internalType": "string",
          "name": "_path",
          "type": "string"
        },
        {
          "internalType": "bool",
          "name": "_forceUpdate",
          "type": "bool"
        }
      ],
      "name": "newClaimRequest",
      "outputs": [],
      "stateMutability": "nonpayable",
      "type": "function"
    },
    {
      "inputs": [
        {
          "internalType": "bytes32",
          "name": "_requestId",
          "type": "bytes32"
        },
        {
          "internalType": "uint256",
          "name": "_data",
          "type": "uint256"
        }
      ],
      "name": "fulfill",
      "outputs": [],
      "stateMutability": "nonpayable",
      "type": "function"
    }
  ],
  "bytecode": "0x608060405260016004556040518060400160405280602081526020017f687474703a2f2f33392e3130312e3133322e3232383a383030302f6c6976652f8152506008908051906020019062000056929190620002d6565b5060f06010553480156200006957600080fd5b5060405162004e6d38038062004e6d83398181016040528101906200008f9190620003fd565b33600d60006101000a81548173ffffffffffffffffffffffffffffffffffffffff021916908373ffffffffffffffffffffffffffffffffffffffff16021790555082600e60006101000a81548173ffffffffffffffffffffffffffffffffffffffff021916908373ffffffffffffffffffffffffffffffffffffffff16021790555081600f60006101000a81548173ffffffffffffffffffffffffffffffffffffffff021916908373ffffffffffffffffffffffffffffffffffffffff16021790555080600960006101000a81548173ffffffffffffffffffffffffffffffffffffffff021916908373ffffffffffffffffffffffffffffffffffffffff1602179055507f6365663734613766663765613431393461623937663030633839616265663662600a81905550620001ca620001ea60201b60201c565b670de0b6b3a764000060078190555060006011819055505050506200056d565b6200029073c89bd4e1632d3a43cb03aaad5262cbe4038bc57173ffffffffffffffffffffffffffffffffffffffff166338cc48316040518163ffffffff1660e01b815260040160206040518083038186803b1580156200024957600080fd5b505afa1580156200025e573d6000803e3d6000fd5b505050506040513d601f19601f82011682018060405250810190620002849190620003cb565b6200029260201b60201c565b565b80600260006101000a81548173ffffffffffffffffffffffffffffffffffffffff021916908373ffffffffffffffffffffffffffffffffffffffff16021790555050565b828054620002e490620004b5565b90600052602060002090601f01602090048101928262000308576000855562000354565b82601f106200032357805160ff191683800117855562000354565b8280016001018555821562000354579182015b828111156200035357825182559160200191906001019062000336565b5b50905062000363919062000367565b5090565b5b808211156200038257600081600090555060010162000368565b5090565b60008151905062000397816200051f565b92915050565b600081519050620003ae8162000539565b92915050565b600081519050620003c58162000553565b92915050565b600060208284031215620003e457620003e36200051a565b5b6000620003f48482850162000386565b91505092915050565b6000806000606084860312156200041957620004186200051a565b5b600062000429868287016200039d565b93505060206200043c86828701620003b4565b92505060406200044f8682870162000386565b9150509250925092565b6000620004668262000495565b9050919050565b60006200047a8262000459565b9050919050565b60006200048e8262000459565b9050919050565b600073ffffffffffffffffffffffffffffffffffffffff82169050919050565b60006002820490506001821680620004ce57607f821691505b60208210811415620004e557620004e4620004eb565b5b50919050565b7f4e487b7100000000000000000000000000000000000000000000000000000000600052602260045260246000fd5b600080fd5b6200052a8162000459565b81146200053657600080fd5b50565b62000544816200046d565b81146200055057600080fd5b50565b6200055e8162000481565b81146200056a57600080fd5b50565b6148f0806200057d6000396000f3fe608060405234801561001057600080fd5b50600436106101425760003560e01c80636a1db1bf116100b8578063aed0acee1161007c578063aed0acee146103a1578063b7b357ac146103bf578063be6b8248146103dd578063cfc5a969146103fb578063ddf9d6171461042b578063e25f3fc81461045b57610142565b80636a1db1bf146102eb5780636d0be997146103075780638d8ccfce146103235780638da5cb5b146103535780639201de551461037157610142565b80633d21a7d11161010a5780633d21a7d1146102075780633da21def146102375780634357855e146102535780635aab02341461026f5780635e57966d1461029f57806369099ee7146102cf57610142565b8063081c29a8146101475780630f42fd0b14610177578063165d35e114610193578063214a64a9146101b157806330dbc6c4146101cf575b600080fd5b610161600480360381019061015c919061315c565b61048b565b60405161016e9190613a01565b60405180910390f35b610191600480360381019061018c9190613189565b6104a8565b005b61019b610721565b6040516101a89190613923565b60405180910390f35b6101b9610730565b6040516101c69190613bf4565b60405180910390f35b6101e960048036038101906101e4919061315c565b610736565b6040516101fe99989796959493929190613a45565b60405180910390f35b610221600480360381019061021c9190613008565b610873565b60405161022e9190613bf4565b60405180910390f35b610251600480360381019061024c91906130ef565b6108bc565b005b61026d6004803603810190610268919061311c565b610956565b005b61028960048036038101906102849190613035565b610d5d565b6040516102969190613a01565b60405180910390f35b6102b960048036038101906102b49190613008565b6110d1565b6040516102c69190613ad2565b60405180910390f35b6102e960048036038101906102e49190613008565b611104565b005b6103056004803603810190610300919061315c565b6111d8565b005b610321600480360381019061031c919061315c565b611272565b005b61033d600480360381019061033891906130ef565b61130c565b60405161034a9190613923565b60405180910390f35b61035b61134c565b6040516103689190613923565b60405180910390f35b61038b600480360381019061038691906130ef565b611372565b6040516103989190613ad2565b60405180910390f35b6103a9611392565b6040516103b69190613bf4565b60405180910390f35b6103c7611398565b6040516103d49190613bf4565b60405180910390f35b6103e561139f565b6040516103f29190613bf4565b60405180910390f35b610415600480360381019061041091906130ef565b6113a5565b6040516104229190613bf4565b60405180910390f35b61044560048036038101906104409190613008565b611543565b6040516104529190613ad2565b60405180910390f35b610475600480360381019061047091906130ef565b6118d8565b6040516104829190613ad2565b60405180910390f35b600060136000838152602001908152602001600020549050919050565b600d60009054906101000a900473ffffffffffffffffffffffffffffffffffffffff1673ffffffffffffffffffffffffffffffffffffffff163373ffffffffffffffffffffffffffffffffffffffff1614610538576040517f08c379a000000000000000000000000000000000000000000000000000000000815260040161052f90613b94565b60405180910390fd5b60006013600087815260200190815260200160002054905060126000828152602001908152602001600020600801544210156105a9576040517f08c379a00000000000000000000000000000000000000000000000000000000081526004016105a090613b74565b60405180910390fd5b6012600082815260200190815260200160002060090160019054906101000a900460ff16158061062f575081801561062e5750600d60009054906101000a900473ffffffffffffffffffffffffffffffffffffffff1673ffffffffffffffffffffffffffffffffffffffff163373ffffffffffffffffffffffffffffffffffffffff16145b5b61066e576040517f08c379a000000000000000000000000000000000000000000000000000000000815260040161066590613bb4565b60405180910390fd5b600060088686604051602001610686939291906137a8565b604051602081830303815290604052905060006106ce600960009054906101000a900473ffffffffffffffffffffffffffffffffffffffff16600a54600754858960016119ae565b905087600b60008381526020019081526020016000208190555060016012600085815260200190815260200160002060090160016101000a81548160ff0219169083151502179055505050505050505050565b600061072b611abb565b905090565b60065481565b600080600080600080600080600080601360008c81526020019081526020016000205490508060126000838152602001908152602001600020600001546012600084815260200190815260200160002060010160009054906101000a900473ffffffffffffffffffffffffffffffffffffffff1660126000858152602001908152602001600020600401546012600086815260200190815260200160002060050154601260008781526020019081526020016000206006015460126000888152602001908152602001600020600701546012600089815260200190815260200160002060080154601260008a815260200190815260200160002060090160009054906101000a900460ff166004811115610853576108526142f9565b5b995099509950995099509950995099509950509193959799909294969850565b6000601560008373ffffffffffffffffffffffffffffffffffffffff1673ffffffffffffffffffffffffffffffffffffffff168152602001908152602001600020549050919050565b600d60009054906101000a900473ffffffffffffffffffffffffffffffffffffffff1673ffffffffffffffffffffffffffffffffffffffff163373ffffffffffffffffffffffffffffffffffffffff161461094c576040517f08c379a000000000000000000000000000000000000000000000000000000000815260040161094390613b94565b60405180910390fd5b80600a8190555050565b816005600082815260200190815260200160002060009054906101000a900473ffffffffffffffffffffffffffffffffffffffff1673ffffffffffffffffffffffffffffffffffffffff163373ffffffffffffffffffffffffffffffffffffffff16146109f8576040517f08c379a00000000000000000000000000000000000000000000000000000000081526004016109ef90613bd4565b60405180910390fd5b6005600082815260200190815260200160002060006101000a81549073ffffffffffffffffffffffffffffffffffffffff0219169055807f7cc135e0cebb02c3480ae5d74d377283180a2601f8f644edf7987b009316c63a60405160405180910390a2816006819055506000600b60008581526020019081526020016000205490506000601360008381526020019081526020016000205490508360126000838152602001908152602001600020600a01819055506000841415610b2957610b24601260008381526020019081526020016000206004015460126000848152602001908152602001600020600501546012600085815260200190815260200160002060010160009054906101000a900473ffffffffffffffffffffffffffffffffffffffff1684611ae5565b610d1d565b6010548411610c2f576000610b3d85611c07565b90506012600083815260200190815260200160002060050154811015610bba57610bb56012600084815260200190815260200160002060040154826012600086815260200190815260200160002060010160009054906101000a900473ffffffffffffffffffffffffffffffffffffffff1685611cbf565b610c29565b610c28601260008481526020019081526020016000206004015460126000858152602001908152602001600020600501546012600086815260200190815260200160002060010160009054906101000a900473ffffffffffffffffffffffffffffffffffffffff1685611cbf565b5b50610d1c565b610190841415610cac57610ca7601260008381526020019081526020016000206004015460126000848152602001908152602001600020600501546012600085815260200190815260200160002060010160009054906101000a900473ffffffffffffffffffffffffffffffffffffffff1684611cbf565b610d1b565b610d1a601260008381526020019081526020016000206004015460126000848152602001908152602001600020600501546012600085815260200190815260200160002060010160009054906101000a900473ffffffffffffffffffffffffffffffffffffffff1684611ae5565b5b5b5b7fa9ddea9ab39eadd77698a6649216466253039b513895fe0e268e695809f28f3d8186604051610d4e929190613a1c565b60405180910390a15050505050565b60006201518042610d6e9190613d1d565b831015610db0576040517f08c379a0000000000000000000000000000000000000000000000000000000008152600401610da790613b34565b60405180910390fd5b6000878785601154604051602001610dcb94939291906136fd565b60405160208183030381529060405280519060200120905060004290506040518061018001604052808981526020018a73ffffffffffffffffffffffffffffffffffffffff168152602001601154815260200183815260200188815260200187815260200182815260200186815260200185815260200160006004811115610e5657610e556142f9565b5b8152602001600015158152602001610194815250601260008481526020019081526020016000206000820151816000015560208201518160010160006101000a81548173ffffffffffffffffffffffffffffffffffffffff021916908373ffffffffffffffffffffffffffffffffffffffff16021790555060408201518160020155606082015181600301556080820151816004015560a0820151816005015560c0820151816006015560e0820151816007015561010082015181600801556101208201518160090160006101000a81548160ff02191690836004811115610f4157610f406142f9565b5b02179055506101408201518160090160016101000a81548160ff02191690831515021790555061016082015181600a0155905050601460008a73ffffffffffffffffffffffffffffffffffffffff1673ffffffffffffffffffffffffffffffffffffffff16815260200190815260200160002060115490806001815401808255809150506001900390600052602060002001600090919091909150556001601560008b73ffffffffffffffffffffffffffffffffffffffff1673ffffffffffffffffffffffffffffffffffffffff168152602001908152602001600020600082825461102d9190613d1d565b9250508190555081601360006011548152602001908152602001600020819055506001601160008282546110619190613d1d565b925050819055508873ffffffffffffffffffffffffffffffffffffffff167fea7d153d9403b2cbdaa11045591904450ef979d8225ec92d7f2bd664b4a7d79b836040516110ae9190613a01565b60405180910390a26110c287878b85611de3565b81925050509695505050505050565b60606110fd60148373ffffffffffffffffffffffffffffffffffffffff1661205290919063ffffffff16565b9050919050565b600d60009054906101000a900473ffffffffffffffffffffffffffffffffffffffff1673ffffffffffffffffffffffffffffffffffffffff163373ffffffffffffffffffffffffffffffffffffffff1614611194576040517f08c379a000000000000000000000000000000000000000000000000000000000815260040161118b90613b94565b60405180910390fd5b80600960006101000a81548173ffffffffffffffffffffffffffffffffffffffff021916908373ffffffffffffffffffffffffffffffffffffffff16021790555050565b600d60009054906101000a900473ffffffffffffffffffffffffffffffffffffffff1673ffffffffffffffffffffffffffffffffffffffff163373ffffffffffffffffffffffffffffffffffffffff1614611268576040517f08c379a000000000000000000000000000000000000000000000000000000000815260040161125f90613b94565b60405180910390fd5b8060078190555050565b600d60009054906101000a900473ffffffffffffffffffffffffffffffffffffffff1673ffffffffffffffffffffffffffffffffffffffff163373ffffffffffffffffffffffffffffffffffffffff1614611302576040517f08c379a00000000000000000000000000000000000000000000000000000000081526004016112f990613b94565b60405180910390fd5b8060108190555050565b60006012600083815260200190815260200160002060010160009054906101000a900473ffffffffffffffffffffffffffffffffffffffff169050919050565b600d60009054906101000a900473ffffffffffffffffffffffffffffffffffffffff1681565b606061138b60208360001c61205290919063ffffffff16565b9050919050565b60105481565b6201518081565b60115481565b600080602067ffffffffffffffff8111156113c3576113c2614386565b5b6040519080825280601f01601f1916602001820160405280156113f55781602001600182028036833780820191505090505b50905060005b60208110156114705783816020811061141757611416614357565b5b1a60f81b82828151811061142e5761142d614357565b5b60200101907effffffffffffffffffffffffffffffffffffffffffffffffffffffffffffff1916908160001a9053508080611468906141f3565b9150506113fb565b506000805b825181101561153857603083828151811061149357611492614357565b5b602001015160f81c60f81b60f81c60ff16101580156114d6575060398382815181106114c2576114c1614357565b5b602001015160f81c60f81b60f81c60ff1611155b156115255760308382815181106114f0576114ef614357565b5b602001015160f81c60f81b60f81c6115089190614037565b60ff16600a836115189190613f15565b6115229190613d1d565b91505b8080611530906141f3565b915050611475565b508092505050919050565b60606000601560008473ffffffffffffffffffffffffffffffffffffffff1673ffffffffffffffffffffffffffffffffffffffff16815260200190815260200160002054116115c7576040517f08c379a00000000000000000000000000000000000000000000000000000000081526004016115be90613b54565b60405180910390fd5b6000601560008473ffffffffffffffffffffffffffffffffffffffff1673ffffffffffffffffffffffffffffffffffffffff16815260200190815260200160002054905060006040518060400160405280600181526020017f2000000000000000000000000000000000000000000000000000000000000000815250905060005b828110156118cd576000601460008773ffffffffffffffffffffffffffffffffffffffff1673ffffffffffffffffffffffffffffffffffffffff16815260200190815260200160002082815481106116a3576116a2614357565b5b9060005260206000200154905060006013600083815260200190815260200160002054905060006012600083815260200190815260200160002060090160019054906101000a900460ff1661172d576040518060400160405280600881526020017f6e6f742075736564000000000000000000000000000000000000000000000000815250611764565b6040518060400160405280600481526020017f75736564000000000000000000000000000000000000000000000000000000008152505b905060006117c0858460126000878152602001908152602001600020600001546012600088815260200190815260200160002060010160009054906101000a900473ffffffffffffffffffffffffffffffffffffffff1661228e565b9050600061188d6012600086815260200190815260200160002060040154601260008781526020019081526020016000206005015460126000888152602001908152602001600020600601546012600089815260200190815260200160002060070154601260008a815260200190815260200160002060080154601260008b815260200190815260200160002060090160009054906101000a900460ff1660048111156118705761186f6142f9565b5b89601260008d8152602001908152602001600020600a01546122e0565b90508682826040516020016118a493929190613777565b6040516020818303038152906040529650505050505080806118c5906141f3565b915050611648565b508092505050919050565b60606000602067ffffffffffffffff8111156118f7576118f6614386565b5b6040519080825280601f01601f1916602001820160405280156119295781602001600182028036833780820191505090505b50905060005b60208110156119a45783816020811061194b5761194a614357565b5b1a60f81b82828151811061196257611961614357565b5b60200101907effffffffffffffffffffffffffffffffffffffffffffffffffffffffffffff1916908160001a905350808061199c906141f3565b91505061192f565b5080915050919050565b6000806119c38730634357855e60e01b61237c565b9050611a0f6040518060400160405280600381526020017f75726c000000000000000000000000000000000000000000000000000000000081525086836123ad9092919063ffffffff16565b611a596040518060400160405280600481526020017f706174680000000000000000000000000000000000000000000000000000000081525085836123ad9092919063ffffffff16565b611aa36040518060400160405280600581526020017f74696d657300000000000000000000000000000000000000000000000000000081525084836123e09092919063ffffffff16565b611aae888288612413565b9150509695505050505050565b6000600260009054906101000a900473ffffffffffffffffffffffffffffffffffffffff16905090565b600e60009054906101000a900473ffffffffffffffffffffffffffffffffffffffff1673ffffffffffffffffffffffffffffffffffffffff16638f6987a285856040518363ffffffff1660e01b8152600401611b42929190613c0f565b600060405180830381600087803b158015611b5c57600080fd5b505af1158015611b70573d6000803e3d6000fd5b5050505060036012600083815260200190815260200160002060090160006101000a81548160ff02191690836004811115611bae57611bad6142f9565b5b02179055508173ffffffffffffffffffffffffffffffffffffffff167f8629ba1a018e1397c942e8dcf53afb2cfd0f250c02bc785e041010dfe6bbe00282604051611bf99190613a01565b60405180910390a250505050565b60008060009050603c8311611c1e57829050611ca0565b603c83118015611c2f575060788311155b15611c60576002603c84611c439190614003565b611c4d9190613f15565b603c611c599190613d1d565b9050611c9f565b607883118015611c71575060f08311155b15611c9e576003607884611c859190614003565b611c8f9190613f15565b60b4611c9b9190613d1d565b90505b5b5b670de0b6b3a764000081611cb49190613f15565b905080915050919050565b600e60009054906101000a900473ffffffffffffffffffffffffffffffffffffffff1673ffffffffffffffffffffffffffffffffffffffff166347fea81e8585856040518463ffffffff1660e01b8152600401611d1e93929190613c38565b600060405180830381600087803b158015611d3857600080fd5b505af1158015611d4c573d6000803e3d6000fd5b5050505060046012600083815260200190815260200160002060090160006101000a81548160ff02191690836004811115611d8a57611d896142f9565b5b02179055508173ffffffffffffffffffffffffffffffffffffffff167f5f9c763688279c7782f685a70462a053a838f3453a1b3a1bdc3c782d12670d6182604051611dd59190613a01565b60405180910390a250505050565b6000600e60009054906101000a900473ffffffffffffffffffffffffffffffffffffffff1673ffffffffffffffffffffffffffffffffffffffff1663bf131f4b8686866040518463ffffffff1660e01b8152600401611e4493929190613c38565b602060405180830381600087803b158015611e5e57600080fd5b505af1158015611e72573d6000803e3d6000fd5b505050506040513d601f19601f82011682018060405250810190611e9691906130c2565b90508015611fbd5760016012600084815260200190815260200160002060090160006101000a81548160ff02191690836004811115611ed857611ed76142f9565b5b02179055508273ffffffffffffffffffffffffffffffffffffffff167fe2b215a9cb677e3aed3f981858d4991d0fa674cac07f691ae9e55285cd21e65083604051611f239190613a01565b60405180910390a2600f60009054906101000a900473ffffffffffffffffffffffffffffffffffffffff1673ffffffffffffffffffffffffffffffffffffffff1663b918e5e2846040518263ffffffff1660e01b8152600401611f869190613923565b600060405180830381600087803b158015611fa057600080fd5b505af1158015611fb4573d6000803e3d6000fd5b5050505061204b565b60026012600084815260200190815260200160002060090160006101000a81548160ff02191690836004811115611ff757611ff66142f9565b5b02179055508273ffffffffffffffffffffffffffffffffffffffff167fdf516e73760083066a1382f39eddf56faec71fab4e9b20387809572f49285730836040516120429190613a01565b60405180910390a25b5050505050565b6060600060028360026120659190613f15565b61206f9190613d1d565b67ffffffffffffffff81111561208857612087614386565b5b6040519080825280601f01601f1916602001820160405280156120ba5781602001600182028036833780820191505090505b5090507f3000000000000000000000000000000000000000000000000000000000000000816000815181106120f2576120f1614357565b5b60200101907effffffffffffffffffffffffffffffffffffffffffffffffffffffffffffff1916908160001a9053507f78000000000000000000000000000000000000000000000000000000000000008160018151811061215657612155614357565b5b60200101907effffffffffffffffffffffffffffffffffffffffffffffffffffffffffffff1916908160001a905350600060018460026121969190613f15565b6121a09190613d1d565b90505b6001811115612240577f3031323334353637383961626364656600000000000000000000000000000000600f8616601081106121e2576121e1614357565b5b1a60f81b8282815181106121f9576121f8614357565b5b60200101907effffffffffffffffffffffffffffffffffffffffffffffffffffffffffffff1916908160001a905350600485901c94508061223990614166565b90506121a3565b5060008414612284576040517f08c379a000000000000000000000000000000000000000000000000000000000815260040161227b90613af4565b60405180910390fd5b8091505092915050565b606061229985612433565b6122a285611372565b6122ab85612433565b6122b4856110d1565b6040516020016122c794939291906137e4565b6040516020818303038152906040529050949350505050565b60606122fe670de0b6b3a76400008a6122f99190613d73565b612433565b61231a670de0b6b3a76400008a6123159190613d73565b612433565b61232389612433565b61232c89612433565b61233589612433565b61233e89612433565b8861234889612433565b60405160200161235f98979695949392919061384e565b604051602081830303815290604052905098975050505050505050565b612384612ea8565b61238c612ea8565b6123a385858584612594909392919063ffffffff16565b9150509392505050565b6123c482846080015161264490919063ffffffff16565b6123db81846080015161264490919063ffffffff16565b505050565b6123f782846080015161264490919063ffffffff16565b61240e81846080015161266990919063ffffffff16565b505050565b600061242a8484846001634042994660e01b612716565b90509392505050565b6060600082141561247b576040518060400160405280600181526020017f3000000000000000000000000000000000000000000000000000000000000000815250905061258f565b600082905060005b600082146124ad578080612496906141f3565b915050600a826124a69190613d73565b9150612483565b60008167ffffffffffffffff8111156124c9576124c8614386565b5b6040519080825280601f01601f1916602001820160405280156124fb5781602001600182028036833780820191505090505b5090505b60008514612588576001826125149190614003565b9150600a85612523919061426a565b603061252f9190613d1d565b60f81b81838151811061254557612544614357565b5b60200101907effffffffffffffffffffffffffffffffffffffffffffffffffffffffffffff1916908160001a905350600a856125819190613d73565b94506124ff565b8093505050505b919050565b61259c612ea8565b6125ac856080015161010061297e565b508385600001818152505082856020019073ffffffffffffffffffffffffffffffffffffffff16908173ffffffffffffffffffffffffffffffffffffffff16815250508185604001907bffffffffffffffffffffffffffffffffffffffffffffffffffffffff191690817bffffffffffffffffffffffffffffffffffffffffffffffffffffffff191681525050849050949350505050565b61265182600383516129e8565b6126648183612b2d90919063ffffffff16565b505050565b7fffffffffffffffffffffffffffffffffffffffffffffffff00000000000000008112156126a05761269b8282612b4f565b612712565b67ffffffffffffffff8113156126bf576126ba8282612bc6565b612711565b600081126126d8576126d3826000836129e8565b612710565b61270f826001837fffffffffffffffffffffffffffffffffffffffffffffffffffffffffffffffff61270a9190613f6f565b6129e8565b5b5b5b5050565b60003060045460405160200161272d92919061374b565b604051602081830303815290604052805190602001209050600454856060018181525050856005600083815260200190815260200160002060006101000a81548173ffffffffffffffffffffffffffffffffffffffff021916908373ffffffffffffffffffffffffffffffffffffffff160217905550807fb5e6e01e79f91267dc17b4e6314d5d4d03593d2ceee0fbb452b750bd70ea5af960405160405180910390a2600082600080886000015189602001518a604001518b606001518a8d608001516000015160405160240161280b98979695949392919061393e565b604051602081830303815290604052907bffffffffffffffffffffffffffffffffffffffffffffffffffffffff19166020820180517bffffffffffffffffffffffffffffffffffffffffffffffffffffffff83818316178352505050509050600260009054906101000a900473ffffffffffffffffffffffffffffffffffffffff1673ffffffffffffffffffffffffffffffffffffffff16634000aea08887846040518463ffffffff1660e01b81526004016128c9939291906139c3565b602060405180830381600087803b1580156128e357600080fd5b505af11580156128f7573d6000803e3d6000fd5b505050506040513d601f19601f8201168201806040525081019061291b91906130c2565b61295a576040517f08c379a000000000000000000000000000000000000000000000000000000000815260040161295190613b14565b60405180910390fd5b60016004600082825461296d9190613d1d565b925050819055505095945050505050565b612986612f15565b6000602083612995919061426a565b146129c1576020826129a7919061426a565b60206129b39190614003565b826129be9190613d1d565b91505b81836020018181525050604051808452600081528281016020016040525082905092915050565b60178111612a1557612a0f8160058460ff16901b60ff161784612c1290919063ffffffff16565b50612b28565b60ff8111612a5757612a3a601860058460ff16901b1784612c1290919063ffffffff16565b50612a5181600185612c329092919063ffffffff16565b50612b27565b61ffff8111612a9a57612a7d601960058460ff16901b1784612c1290919063ffffffff16565b50612a9481600285612c329092919063ffffffff16565b50612b26565b63ffffffff8111612adf57612ac2601a60058460ff16901b1784612c1290919063ffffffff16565b50612ad981600485612c329092919063ffffffff16565b50612b25565b67ffffffffffffffff8111612b2457612b0b601b60058460ff16901b1784612c1290919063ffffffff16565b50612b2281600885612c329092919063ffffffff16565b505b5b5b5b5b505050565b612b35612f15565b612b4783846000015151848551612c54565b905092915050565b612b6d60036005600660ff16901b1783612c1290919063ffffffff16565b50612bc282827fffffffffffffffffffffffffffffffffffffffffffffffffffffffffffffffff612b9e9190613f6f565b604051602001612bae9190613bf4565b604051602081830303815290604052612d5e565b5050565b612be460026005600660ff16901b1783612c1290919063ffffffff16565b50612c0e8282604051602001612bfa9190613bf4565b604051602081830303815290604052612d5e565b5050565b612c1a612f15565b612c2a8384600001515184612d83565b905092915050565b612c3a612f15565b612c4b848560000151518585612dda565b90509392505050565b612c5c612f15565b8251821115612c6a57600080fd5b84602001518285612c7b9190613d1d565b1115612cb057612caf856002612ca088602001518887612c9b9190613d1d565b612e68565b612caa9190613f15565b612e84565b5b600080865180518760208301019350808887011115612ccf5787860182525b60208701925050505b60208410612d165780518252602082612cf19190613d1d565b9150602081612d009190613d1d565b9050602084612d0f9190614003565b9350612cd8565b60006001856020612d279190614003565b610100612d349190613df7565b612d3e9190614003565b905080198251168184511681811785525050879350505050949350505050565b612d6b82600283516129e8565b612d7e8183612b2d90919063ffffffff16565b505050565b612d8b612f15565b83602001518310612db157612db08460028660200151612dab9190613f15565b612e84565b5b8351805160208583010184815381861415612dcd576001820183525b5050508390509392505050565b612de2612f15565b84602001518483612df39190613d1d565b1115612e1b57612e1a8560028685612e0b9190613d1d565b612e159190613f15565b612e84565b5b6000600183610100612e2d9190613df7565b612e379190614003565b90508551838682010185831982511617815281518588011115612e5a5784870182525b505085915050949350505050565b600081831115612e7a57829050612e7e565b8190505b92915050565b600082600001519050612e97838361297e565b50612ea28382612b2d565b50505050565b6040518060a0016040528060008019168152602001600073ffffffffffffffffffffffffffffffffffffffff16815260200160007bffffffffffffffffffffffffffffffffffffffffffffffffffffffff1916815260200160008152602001612f0f612f15565b81525090565b604051806040016040528060608152602001600081525090565b6000612f42612f3d84613c94565b613c6f565b905082815260208101848484011115612f5e57612f5d6143ba565b5b612f69848285614124565b509392505050565b600081359050612f808161485e565b92915050565b600081359050612f9581614875565b92915050565b600081519050612faa81614875565b92915050565b600081359050612fbf8161488c565b92915050565b600082601f830112612fda57612fd96143b5565b5b8135612fea848260208601612f2f565b91505092915050565b600081359050613002816148a3565b92915050565b60006020828403121561301e5761301d6143c4565b5b600061302c84828501612f71565b91505092915050565b60008060008060008060c08789031215613052576130516143c4565b5b600061306089828a01612f71565b965050602061307189828a01612ff3565b955050604061308289828a01612ff3565b945050606061309389828a01612ff3565b93505060806130a489828a01612ff3565b92505060a06130b589828a01612ff3565b9150509295509295509295565b6000602082840312156130d8576130d76143c4565b5b60006130e684828501612f9b565b91505092915050565b600060208284031215613105576131046143c4565b5b600061311384828501612fb0565b91505092915050565b60008060408385031215613133576131326143c4565b5b600061314185828601612fb0565b925050602061315285828601612ff3565b9150509250929050565b600060208284031215613172576131716143c4565b5b600061318084828501612ff3565b91505092915050565b600080600080600060a086880312156131a5576131a46143c4565b5b60006131b388828901612ff3565b955050602086013567ffffffffffffffff8111156131d4576131d36143bf565b5b6131e088828901612fc5565b945050604086013567ffffffffffffffff811115613201576132006143bf565b5b61320d88828901612fc5565b935050606086013567ffffffffffffffff81111561322e5761322d6143bf565b5b61323a88828901612fc5565b925050608061324b88828901612f86565b9150509295509295909350565b6132618161406b565b82525050565b6132786132738261406b565b61423c565b82525050565b61328781614089565b82525050565b61329681614093565b82525050565b60006132a782613cda565b6132b18185613cf0565b93506132c1818560208601614133565b6132ca816143c9565b840191505092915050565b6132e66132e182614100565b61423c565b82525050565b60006132f782613ce5565b6133018185613d01565b9350613311818560208601614133565b61331a816143c9565b840191505092915050565b600061333082613ce5565b61333a8185613d12565b935061334a818560208601614133565b80840191505092915050565b6000815461336381614190565b61336d8186613d12565b945060018216600081146133885760018114613399576133cc565b60ff198316865281860193506133cc565b6133a285613cc5565b60005b838110156133c4578154818901526001820191506020810190506133a5565b838801955050505b50505092915050565b60006133e2602083613d01565b91506133ed826143f4565b602082019050919050565b6000613405600e83613d12565b91506134108261441d565b600e82019050919050565b6000613428600b83613d12565b915061343382614446565b600b82019050919050565b600061344b601183613d12565b91506134568261446f565b601182019050919050565b600061346e600783613d12565b915061347982614498565b600782019050919050565b6000613491602383613d01565b915061349c826144c1565b604082019050919050565b60006134b4600e83613d12565b91506134bf82614510565b600e82019050919050565b60006134d7601283613d12565b91506134e282614539565b601282019050919050565b60006134fa602283613d01565b915061350582614562565b604082019050919050565b600061351d600b83613d12565b9150613528826145b1565b600b82019050919050565b6000613540600b83613d12565b915061354b826145da565b600b82019050919050565b6000613563601783613d01565b915061356e82614603565b602082019050919050565b6000613586600183613d12565b91506135918261462c565b600182019050919050565b60006135a9600b83613d12565b91506135b482614655565b600b82019050919050565b60006135cc601283613d12565b91506135d78261467e565b601282019050919050565b60006135ef601183613d12565b91506135fa826146a7565b601182019050919050565b6000613612602983613d01565b915061361d826146d0565b604082019050919050565b6000613635600c83613d12565b91506136408261471f565b600c82019050919050565b6000613658602583613d01565b915061366382614748565b604082019050919050565b600061367b601083613d12565b915061368682614797565b601082019050919050565b600061369e603e83613d01565b91506136a9826147c0565b604082019050919050565b60006136c1602883613d01565b91506136cc8261480f565b604082019050919050565b6136e0816140e9565b82525050565b6136f76136f2826140e9565b614260565b82525050565b60006137098287613267565b60148201915061371982866136e6565b60208201915061372982856136e6565b60208201915061373982846136e6565b60208201915081905095945050505050565b600061375782856132d5565b60148201915061376782846136e6565b6020820191508190509392505050565b60006137838286613325565b915061378f8285613325565b915061379b8284613325565b9150819050949350505050565b60006137b48286613356565b91506137c08285613325565b91506137cb8261359c565b91506137d78284613325565b9150819050949350505050565b60006137ef82613461565b91506137fb8287613325565b9150613806826133f8565b91506138128286613325565b915061381d826134a7565b91506138298285613325565b91506138348261343e565b91506138408284613325565b915081905095945050505050565b600061385982613628565b9150613865828b613325565b91506138708261341b565b915061387c828a613325565b9150613887826135e2565b91506138938289613325565b915061389e826135bf565b91506138aa8288613325565b91506138b58261366e565b91506138c18287613325565b91506138cc82613533565b91506138d88286613325565b91506138e382613510565b91506138ef8285613325565b91506138fa826134ca565b91506139068284613325565b915061391182613579565b91508190509998505050505050505050565b60006020820190506139386000830184613258565b92915050565b600061010082019050613954600083018b613258565b613961602083018a6136d7565b61396e604083018961327e565b61397b6060830188613258565b613988608083018761328d565b61399560a08301866136d7565b6139a260c08301856136d7565b81810360e08301526139b4818461329c565b90509998505050505050505050565b60006060820190506139d86000830186613258565b6139e560208301856136d7565b81810360408301526139f7818461329c565b9050949350505050565b6000602082019050613a16600083018461327e565b92915050565b6000604082019050613a31600083018561327e565b613a3e602083018461327e565b9392505050565b600061012082019050613a5b600083018c61327e565b613a68602083018b6136d7565b613a75604083018a613258565b613a8260608301896136d7565b613a8f60808301886136d7565b613a9c60a08301876136d7565b613aa960c08301866136d7565b613ab660e08301856136d7565b613ac46101008301846136d7565b9a9950505050505050505050565b60006020820190508181036000830152613aec81846132ec565b905092915050565b60006020820190508181036000830152613b0d816133d5565b9050919050565b60006020820190508181036000830152613b2d81613484565b9050919050565b60006020820190508181036000830152613b4d816134ed565b9050919050565b60006020820190508181036000830152613b6d81613556565b9050919050565b60006020820190508181036000830152613b8d81613605565b9050919050565b60006020820190508181036000830152613bad8161364b565b9050919050565b60006020820190508181036000830152613bcd81613691565b9050919050565b60006020820190508181036000830152613bed816136b4565b9050919050565b6000602082019050613c0960008301846136d7565b92915050565b6000604082019050613c2460008301856136d7565b613c3160208301846136d7565b9392505050565b6000606082019050613c4d60008301866136d7565b613c5a60208301856136d7565b613c676040830184613258565b949350505050565b6000613c79613c8a565b9050613c8582826141c2565b919050565b6000604051905090565b600067ffffffffffffffff821115613caf57613cae614386565b5b613cb8826143c9565b9050602081019050919050565b60008190508160005260206000209050919050565b600081519050919050565b600081519050919050565b600082825260208201905092915050565b600082825260208201905092915050565b600081905092915050565b6000613d28826140e9565b9150613d33836140e9565b9250827fffffffffffffffffffffffffffffffffffffffffffffffffffffffffffffffff03821115613d6857613d6761429b565b5b828201905092915050565b6000613d7e826140e9565b9150613d89836140e9565b925082613d9957613d986142ca565b5b828204905092915050565b6000808291508390505b6001851115613dee57808604811115613dca57613dc961429b565b5b6001851615613dd95780820291505b8081029050613de7856143e7565b9450613dae565b94509492505050565b6000613e02826140e9565b9150613e0d836140e9565b9250613e3a7fffffffffffffffffffffffffffffffffffffffffffffffffffffffffffffffff8484613e42565b905092915050565b600082613e525760019050613f0e565b81613e605760009050613f0e565b8160018114613e765760028114613e8057613eaf565b6001915050613f0e565b60ff841115613e9257613e9161429b565b5b8360020a915084821115613ea957613ea861429b565b5b50613f0e565b5060208310610133831016604e8410600b8410161715613ee45782820a905083811115613edf57613ede61429b565b5b613f0e565b613ef18484846001613da4565b92509050818404811115613f0857613f0761429b565b5b81810290505b9392505050565b6000613f20826140e9565b9150613f2b836140e9565b9250817fffffffffffffffffffffffffffffffffffffffffffffffffffffffffffffffff0483118215151615613f6457613f6361429b565b5b828202905092915050565b6000613f7a826140bf565b9150613f85836140bf565b9250827f800000000000000000000000000000000000000000000000000000000000000001821260008412151615613fc057613fbf61429b565b5b827f7fffffffffffffffffffffffffffffffffffffffffffffffffffffffffffffff018213600084121615613ff857613ff761429b565b5b828203905092915050565b600061400e826140e9565b9150614019836140e9565b92508282101561402c5761402b61429b565b5b828203905092915050565b6000614042826140f3565b915061404d836140f3565b9250828210156140605761405f61429b565b5b828203905092915050565b6000614076826140c9565b9050919050565b60008115159050919050565b6000819050919050565b60007fffffffff0000000000000000000000000000000000000000000000000000000082169050919050565b6000819050919050565b600073ffffffffffffffffffffffffffffffffffffffff82169050919050565b6000819050919050565b600060ff82169050919050565b600061410b82614112565b9050919050565b600061411d826140c9565b9050919050565b82818337600083830152505050565b60005b83811015614151578082015181840152602081019050614136565b83811115614160576000848401525b50505050565b6000614171826140e9565b915060008214156141855761418461429b565b5b600182039050919050565b600060028204905060018216806141a857607f821691505b602082108114156141bc576141bb614328565b5b50919050565b6141cb826143c9565b810181811067ffffffffffffffff821117156141ea576141e9614386565b5b80604052505050565b60006141fe826140e9565b91507fffffffffffffffffffffffffffffffffffffffffffffffffffffffffffffffff8214156142315761423061429b565b5b600182019050919050565b60006142478261424e565b9050919050565b6000614259826143da565b9050919050565b6000819050919050565b6000614275826140e9565b9150614280836140e9565b9250826142905761428f6142ca565b5b828206905092915050565b7f4e487b7100000000000000000000000000000000000000000000000000000000600052601160045260246000fd5b7f4e487b7100000000000000000000000000000000000000000000000000000000600052601260045260246000fd5b7f4e487b7100000000000000000000000000000000000000000000000000000000600052602160045260246000fd5b7f4e487b7100000000000000000000000000000000000000000000000000000000600052602260045260246000fd5b7f4e487b7100000000000000000000000000000000000000000000000000000000600052603260045260246000fd5b7f4e487b7100000000000000000000000000000000000000000000000000000000600052604160045260246000fd5b600080fd5b600080fd5b600080fd5b600080fd5b6000601f19601f8301169050919050565b60008160601b9050919050565b60008160011c9050919050565b7f537472696e67733a20686578206c656e67746820696e73756666696369656e74600082015250565b7f3a200a7b506f6c69637949643a20000000000000000000000000000000000000600082015250565b7f2c200a5061796f66663a20000000000000000000000000000000000000000000600082015250565b7f2c200a4275796572416464726573733a20000000000000000000000000000000600082015250565b7f0a506f6c69637900000000000000000000000000000000000000000000000000600082015250565b7f756e61626c6520746f207472616e73666572416e6443616c6c20746f206f726160008201527f636c650000000000000000000000000000000000000000000000000000000000602082015250565b7f2c200a50726f6475637449643a20000000000000000000000000000000000000600082015250565b7f2c200a44656c617920526573756c74733a200000000000000000000000000000600082015250565b7f4552524f523a3a54494d455f544f5f4445504152545552455f544f4f5f534d4160008201527f4c4c000000000000000000000000000000000000000000000000000000000000602082015250565b7f2c200a4973557365643a20000000000000000000000000000000000000000000600082015250565b7f2c200a5374617475733a20000000000000000000000000000000000000000000600082015250565b7f6e6f20706f6c69637920666f7220746869732075736572000000000000000000600082015250565b7f7d00000000000000000000000000000000000000000000000000000000000000600082015250565b7f2f74696d657374616d703d000000000000000000000000000000000000000000600082015250565b7f2c200a446570617274757265446174653a200000000000000000000000000000600082015250565b7f2c200a5075726368617365446174653a20000000000000000000000000000000600082015250565b7f63616e206f6e6c7920636c61696d206120706f6c69637920616674657220697460008201527f73206c616e64696e670000000000000000000000000000000000000000000000602082015250565b7f2c200a5072656d69756d3a200000000000000000000000000000000000000000600082015250565b7f6f6e6c7920746865206f776e65722063616e2063616c6c20746869732066756e60008201527f6374696f6e000000000000000000000000000000000000000000000000000000602082015250565b7f2c200a4c616e64696e67446174653a2000000000000000000000000000000000600082015250565b7f54686520706f6c69637920686173206265656e2066696e616c20636865636b6560008201527f642c206f7220796f75206e65656420746f20666f726365207570646174650000602082015250565b7f536f75726365206d75737420626520746865206f7261636c65206f662074686560008201527f2072657175657374000000000000000000000000000000000000000000000000602082015250565b6148678161406b565b811461487257600080fd5b50565b61487e8161407d565b811461488957600080fd5b50565b61489581614089565b81146148a057600080fd5b50565b6148ac816140e9565b81146148b757600080fd5b5056fea2646970667358221220ef3edb0d3bbe7e28522dd351808393669b3d4d9aaa3dbda5f456bea399e5958b64736f6c63430008050033",
  "immutableReferences": {},
  "source": "// SPDX-License-Identifier: MIT\r\npragma solidity ^0.8.0;\r\n\r\nimport \"./libraries/PolicyTypes.sol\";\r\nimport \"./libraries/ToStrings.sol\";\r\nimport \"./interfaces/IInsurancePool.sol\";\r\nimport \"@chainlink/contracts/src/v0.8/ChainlinkClient.sol\";\r\nimport \"@openzeppelin/contracts/utils/Strings.sol\";\r\nimport \"./interfaces/IPolicyToken.sol\";\r\n\r\ncontract PolicyFlow is ChainlinkClient, PolicyTypes, ToStrings {\r\n    using Chainlink for Chainlink.Request;\r\n    using Strings for uint256;\r\n\r\n    uint256 public oracleResponse; // A test variable to store the oracle address\r\n    uint256 fee;\r\n    string private FLIGHT_STATUS_URL = \"http://39.101.132.228:8000/live/\";\r\n    address private oracleAddress;\r\n    bytes32 private jobId;\r\n\r\n    mapping(bytes32 => uint256) requestList; // requestId => total order\r\n    mapping(uint256 => uint256) resultList; // total order => delay result\r\n\r\n    address public owner;\r\n    IInsurancePool insurancePool;\r\n    IPolicyToken policyToken;\r\n\r\n    // Minimum time before departure for applying\r\n    uint256 public constant MIN_TIME_BEFORE_DEPARTURE = 24 hours;\r\n    uint256 public DELAY_THRESHOLD = 240;\r\n    uint256 public Total_Policies;\r\n\r\n    // Mappings\r\n    mapping(bytes32 => PolicyInfo) policyList; // policyId => policyInfo\r\n    mapping(uint256 => bytes32) policyOrderList; // total order => policyId\r\n\r\n    mapping(address => uint256[]) userPolicy; // uint256[]: those totalOrders of a user\r\n    mapping(address => uint256) userPolicyCount; // userAddress => user policy amount\r\n\r\n    // Constructor Function\r\n    constructor(\r\n        IInsurancePool _insurancePool,\r\n        IPolicyToken _policyToken,\r\n        address _oracleAddress\r\n    ) {\r\n        // Set owner address\r\n        owner = msg.sender;\r\n\r\n        // Set two interfaces' addresses\r\n        insurancePool = _insurancePool;\r\n        policyToken = _policyToken;\r\n\r\n        // Set oracle address\r\n        oracleAddress = _oracleAddress;\r\n        jobId = \"cef74a7ff7ea4194ab97f00c89abef6b\";\r\n\r\n        setPublicChainlinkToken();\r\n        fee = 1 * 10**18; // 1 LINK\r\n\r\n        // Initialize the count (actually do not need to initialize)\r\n        Total_Policies = 0;\r\n    }\r\n\r\n    // ************************************ Modifiers ************************************ //\r\n\r\n    modifier onlyOracle() {\r\n        require(\r\n            msg.sender == oracleAddress,\r\n            \"only the oracle can call this function\"\r\n        );\r\n        _;\r\n    }\r\n    modifier onlyOwner() {\r\n        require(msg.sender == owner, \"only the owner can call this function\");\r\n        _;\r\n    }\r\n\r\n    // ************************************ View Functions ************************************ //\r\n\r\n    /**\r\n     * @notice Returns the address of the LINK token\r\n     * @dev This is the public implementation for chainlinkTokenAddress, which is\r\n     * an internal method of the ChainlinkClient contract\r\n     */\r\n    function getChainlinkToken() public view returns (address) {\r\n        return chainlinkTokenAddress();\r\n    }\r\n\r\n    /**\r\n     * @notice show a user's policies (all)\r\n     * @param _userAddress: user's address (buyer)\r\n     * @return user's policy details\r\n     */\r\n    function viewPolicy(address _userAddress)\r\n        public\r\n        view\r\n        returns (string memory)\r\n    {\r\n        require(userPolicyCount[_userAddress] > 0, \"no policy for this user\");\r\n\r\n        uint256 policyCount = userPolicyCount[_userAddress];\r\n        string memory result = \" \";\r\n        for (uint256 i = 0; i < policyCount; i++) {\r\n            uint256 policyOrder = userPolicy[_userAddress][i];\r\n\r\n            bytes32 policyid = policyOrderList[policyOrder];\r\n\r\n            string memory isUsed = policyList[policyid].isUsed\r\n                ? \"used\"\r\n                : \"not used\";\r\n\r\n            string memory result1 = encodePack1(\r\n                i,\r\n                policyid,\r\n                policyList[policyid].productId,\r\n                policyList[policyid].buyerAddress\r\n            );\r\n            string memory result2 = encodePack2(\r\n                policyList[policyid].premium,\r\n                policyList[policyid].payoff,\r\n                policyList[policyid].purchaseDate,\r\n                policyList[policyid].departureDate,\r\n                policyList[policyid].landingDate,\r\n                uint256(policyList[policyid].status),\r\n                isUsed,\r\n                policyList[policyid].delayResult\r\n            );\r\n\r\n            result = string(abi.encodePacked(result, result1, result2));\r\n\r\n            // result = string(\r\n            //     abi.encodePacked(\r\n            //         result,\r\n            //         string(\r\n            //             abi.encodePacked(\r\n            //                 \"\\nPolicy\",\r\n            //                 i.toString(),\r\n            //                 \": \\n{PolicyId: \",\r\n            //                 bytes32ToString(policyid),\r\n            //                 \", \\nProductId: \",\r\n            //                 policyList[policyid].productId.toString(),\r\n            //                 \", \\nBuyerAddress: \",\r\n            //                 addressToString(policyList[policyid].buyerAddress),\r\n            //                 \", \\nPremium: \",\r\n            //                 (policyList[policyid].premium / 10**18).toString(),\r\n            //                 \", \\nPayoff: \",\r\n            //                 (policyList[policyid].payoff / 10**18).toString(),\r\n            //                 \", \\nPurchaseDate: \",\r\n            //                 (policyList[policyid].purchaseDate).toString(),\r\n            //                 \", \\nDepartureDate: \",\r\n            //                 (policyList[policyid].departureDate).toString(),\r\n            //                 \", \\nLandingDate: \",\r\n            //                 (policyList[policyid].landingDate).toString(),\r\n            //                 \", \\nStatus: \",\r\n            //                 uint256(policyList[policyid].status).toString(),\r\n            //                 \", \\nIsUsed: \",\r\n            //                 isUsed,\r\n            //                 \", \\nDelay Results: \",\r\n            //                 policyList[policyid].delayResult.toString(),\r\n            //                 \"}\"\r\n            //             )\r\n            //         )\r\n            //     )\r\n            // );\r\n        }\r\n        return result;\r\n    }\r\n\r\n    /**\r\n     * @notice get the policyId (bytes32) from its count/order\r\n     * @param _count: total count\r\n     * @return policyId (bytes32)\r\n     */\r\n    function getPolicyIdByCount(uint256 _count) public view returns (bytes32) {\r\n        return policyOrderList[_count];\r\n    }\r\n\r\n    /**\r\n     * @notice get the policyInfo from its count/order\r\n     * @param _count: total count\r\n     */\r\n    function getPolicyInfoByCount(uint256 _count)\r\n        public\r\n        view\r\n        returns (\r\n            bytes32 _policyId,\r\n            uint256 _productId,\r\n            address _owner,\r\n            uint256 _premium,\r\n            uint256 _payoff,\r\n            uint256 _purchaseDate,\r\n            uint256 _departureDate,\r\n            uint256 _landingDate,\r\n            uint256 _policyStatus\r\n        )\r\n    {\r\n        bytes32 policyId = policyOrderList[_count];\r\n        return (\r\n            policyId,\r\n            policyList[policyId].productId,\r\n            policyList[policyId].buyerAddress,\r\n            policyList[policyId].premium,\r\n            policyList[policyId].payoff,\r\n            policyList[policyId].purchaseDate,\r\n            policyList[policyId].departureDate,\r\n            policyList[policyId].landingDate,\r\n            uint256(policyList[policyId].status)\r\n        );\r\n    }\r\n\r\n    /**\r\n     * @notice get a user's policy amount\r\n     * @param _userAddress: user's address\r\n     */\r\n    function getUserPolicyCount(address _userAddress)\r\n        public\r\n        view\r\n        returns (uint256)\r\n    {\r\n        return userPolicyCount[_userAddress];\r\n    }\r\n\r\n    /**\r\n     * @notice get the policy buyer by policyId\r\n     */\r\n    function findPolicyBuyerById(bytes32 _policyId)\r\n        public\r\n        view\r\n        returns (address)\r\n    {\r\n        return policyList[_policyId].buyerAddress;\r\n    }\r\n\r\n    // ************************************ Helper Functions ************************************ //\r\n\r\n    /**\r\n     * @notice change the job id\r\n     * @param _jobId: new job Id\r\n     */\r\n    function changeJobId(bytes32 _jobId) public onlyOwner {\r\n        jobId = _jobId;\r\n    }\r\n\r\n    /**\r\n     * @notice change the oracle fee\r\n     * @param _fee: new fee\r\n     */\r\n    function changeFee(uint256 _fee) public onlyOwner {\r\n        fee = _fee;\r\n    }\r\n\r\n    /**\r\n     * @notice change the oracle address\r\n     * @param _oracleAddress: new oracle address\r\n     */\r\n    function changeOrcaleAddress(address _oracleAddress) public onlyOwner {\r\n        oracleAddress = _oracleAddress;\r\n    }\r\n\r\n    /**\r\n     * @notice set the new delay threshold\r\n     */\r\n    function setDelayThreshold(uint256 _threshold) public onlyOwner {\r\n        DELAY_THRESHOLD = _threshold;\r\n    }\r\n\r\n    // ************************************ Main Functions ************************************ //\r\n\r\n    /**\r\n     * @notice start a new policy application\r\n     * @param _userAddress: user's address (buyer)\r\n     * @param _productId: ID of the purchased product (0: flightdelay; 1,2,3...: others) (different products)\r\n     * @param _premium: premium of this policy (decimal 18)\r\n     * @param _payoff: payoff of this policy (decimal 18)\r\n     * @param _departureDate: expiry date of this policy (unix timestamp)\r\n     */\r\n    function newApplication(\r\n        address _userAddress,\r\n        uint256 _productId,\r\n        uint256 _premium,\r\n        uint256 _payoff,\r\n        uint256 _departureDate,\r\n        uint256 _landingDate\r\n    ) public returns (bytes32 _policyId) {\r\n        // Check the buying time not too close to the departure time\r\n        require(\r\n            _departureDate >= block.timestamp + MIN_TIME_BEFORE_DEPARTURE,\r\n            \"ERROR::TIME_TO_DEPARTURE_TOO_SMALL\"\r\n        );\r\n        // Generate the unique policyId\r\n        bytes32 TEMP_policyId = keccak256(\r\n            abi.encodePacked(\r\n                _userAddress,\r\n                _productId,\r\n                _departureDate,\r\n                Total_Policies\r\n            )\r\n        );\r\n        uint256 TEMP_purchaseDate = block.timestamp;\r\n\r\n        // Generate the policy\r\n        policyList[TEMP_policyId] = PolicyInfo(\r\n            _productId,\r\n            _userAddress,\r\n            Total_Policies,\r\n            TEMP_policyId,\r\n            _premium,\r\n            _payoff,\r\n            TEMP_purchaseDate,\r\n            _departureDate,\r\n            _landingDate,\r\n            PolicyStatus.INI,\r\n            false,\r\n            404\r\n        );\r\n\r\n        // Store the policy's total order with userAddress\r\n        userPolicy[_userAddress].push(Total_Policies);\r\n        // Update the user's policy amount\r\n        userPolicyCount[_userAddress] += 1;\r\n        // Update the policyOrderList\r\n        policyOrderList[Total_Policies] = TEMP_policyId;\r\n        // Update total policies\r\n        Total_Policies += 1;\r\n\r\n        emit newPolicyApplication(TEMP_policyId, _userAddress);\r\n\r\n        // Check the policy with the insurance pool status\r\n        // May be accepted or rejected\r\n        policyCheck(_premium, _payoff, _userAddress, TEMP_policyId);\r\n\r\n        return TEMP_policyId;\r\n    }\r\n\r\n    /** @notice calculate the flight status\r\n     *  @param _policyOrder The total order of the policy\r\n     *  @param _flightNumber The flight number\r\n     *  @param _date The flight date\r\n     *  @param _path Which data in json needs to get\r\n     *  @param _forceUpdate Owner can force to update\r\n     */\r\n    function newClaimRequest(\r\n        uint256 _policyOrder,\r\n        string memory _flightNumber,\r\n        string memory _date,\r\n        string memory _path,\r\n        bool _forceUpdate\r\n    ) public onlyOwner {\r\n        bytes32 _policyId = policyOrderList[_policyOrder];\r\n        require(\r\n            block.timestamp >= policyList[_policyId].landingDate,\r\n            \"can only claim a policy after its landing\"\r\n        );\r\n        require(\r\n            (!policyList[_policyId].isUsed) ||\r\n                (_forceUpdate && (msg.sender == owner)),\r\n            \"The policy has been final checked, or you need to force update\"\r\n        );\r\n\r\n        string memory _url = string(\r\n            abi.encodePacked(\r\n                FLIGHT_STATUS_URL,\r\n                _flightNumber,\r\n                \"/timestamp=\",\r\n                _date\r\n            )\r\n        );\r\n        bytes32 requestId = createRequestTo(\r\n            oracleAddress,\r\n            jobId,\r\n            fee,\r\n            _url,\r\n            _path,\r\n            1\r\n        );\r\n        requestList[requestId] = _policyOrder;\r\n        policyList[_policyId].isUsed = true;\r\n    }\r\n\r\n    /**\r\n     * @notice check the policy and then determine whether we can afford it\r\n     * @param _premium: the premium of the policy sold\r\n     * @param _payoff: the payoff of the policy sold\r\n     * @param _userAddress: user's address\r\n     * @param _policyId: the unique policy ID\r\n     */\r\n    function policyCheck(\r\n        uint256 _premium,\r\n        uint256 _payoff,\r\n        address _userAddress,\r\n        bytes32 _policyId\r\n    ) internal {\r\n        // Whether there are enough capacity in the pool\r\n        bool _isAccepted = insurancePool.updateWhenBuy(\r\n            _premium,\r\n            _payoff,\r\n            _userAddress\r\n        );\r\n        if (_isAccepted) {\r\n            policyList[_policyId].status = PolicyStatus.SOLD;\r\n            emit PolicySold(_policyId, _userAddress);\r\n\r\n            policyToken.mintPolicyToken(_userAddress);\r\n        } else {\r\n            policyList[_policyId].status = PolicyStatus.DECLINED;\r\n            emit PolicyDeclined(_policyId, _userAddress);\r\n        }\r\n    }\r\n\r\n    /**\r\n     * @notice Creates a request to the specified Oracle contract address\r\n     * @dev This function ignores the stored Oracle contract address and\r\n     * will instead send the request to the address specified\r\n     * @param _oracle The Oracle contract address to send the request to\r\n     * @param _jobId The bytes32 JobID to be executed\r\n     * @param _url The URL to fetch data from\r\n     * @param _path The dot-delimited path to parse of the response\r\n     * @param _times The number to multiply the result by\r\n     */\r\n    function createRequestTo(\r\n        address _oracle,\r\n        bytes32 _jobId,\r\n        uint256 _payment,\r\n        string memory _url,\r\n        string memory _path,\r\n        int256 _times\r\n    ) private returns (bytes32) {\r\n        Chainlink.Request memory req = buildChainlinkRequest(\r\n            _jobId,\r\n            address(this),\r\n            this.fulfill.selector\r\n        );\r\n        req.add(\"url\", _url);\r\n        req.add(\"path\", _path);\r\n        req.addInt(\"times\", _times);\r\n        return sendChainlinkRequestTo(_oracle, req, _payment);\r\n    }\r\n\r\n    /**\r\n     * @notice The fulfill method from requests created by this contract\r\n     * @dev The recordChainlinkFulfillment protects this function from being called\r\n     * by anyone other than the oracle address that the request was sent to\r\n     * @param _requestId The ID that was generated for the request\r\n     * @param _data The answer provided by the oracle\r\n     */\r\n    function fulfill(bytes32 _requestId, uint256 _data)\r\n        public\r\n        recordChainlinkFulfillment(_requestId)\r\n    {\r\n        oracleResponse = _data;\r\n\r\n        uint256 order = requestList[_requestId];\r\n        bytes32 policyId = policyOrderList[order];\r\n        policyList[policyId].delayResult = _data;\r\n\r\n        if (_data == 0) {\r\n            // 0: on time\r\n            policyExpired(\r\n                policyList[policyId].premium,\r\n                policyList[policyId].payoff,\r\n                policyList[policyId].buyerAddress,\r\n                policyId\r\n            );\r\n        } else if (_data <= DELAY_THRESHOLD) {\r\n            uint256 payoff = calcPayoff(_data);\r\n            if (payoff < policyList[policyId].payoff) {\r\n                policyClaimed(\r\n                    policyList[policyId].premium,\r\n                    payoff,\r\n                    policyList[policyId].buyerAddress,\r\n                    policyId\r\n                );\r\n            } else {\r\n                policyClaimed(\r\n                    policyList[policyId].premium,\r\n                    policyList[policyId].payoff,\r\n                    policyList[policyId].buyerAddress,\r\n                    policyId\r\n                );\r\n            }\r\n        } else if (_data == 400) {\r\n            // 400: cancelled\r\n            policyClaimed(\r\n                policyList[policyId].premium,\r\n                policyList[policyId].payoff,\r\n                policyList[policyId].buyerAddress,\r\n                policyId\r\n            );\r\n        } else {\r\n            policyExpired(\r\n                policyList[policyId].premium,\r\n                policyList[policyId].payoff,\r\n                policyList[policyId].buyerAddress,\r\n                policyId\r\n            );\r\n        }\r\n\r\n        emit FulfilledOracleRequest(policyId, _requestId);\r\n    }\r\n\r\n    /**\r\n     * @notice update the policy when it is expired\r\n     * @param _premium: the premium of the policy sold\r\n     * @param _payoff: the payoff of the policy sold\r\n     * @param _userAddress: user's address\r\n     * @param _policyId: the unique policy ID\r\n     */\r\n    function policyExpired(\r\n        uint256 _premium,\r\n        uint256 _payoff,\r\n        address _userAddress,\r\n        bytes32 _policyId\r\n    ) internal {\r\n        insurancePool.updateWhenExpire(_premium, _payoff);\r\n        policyList[_policyId].status = PolicyStatus.EXPIRED;\r\n        emit PolicyExpired(_policyId, _userAddress);\r\n    }\r\n\r\n    /**\r\n     * @notice update the policy when it is claimed\r\n     * @param _premium: the premium of the policy sold\r\n     * @param _payoff: the payoff of the policy sold\r\n     * @param _userAddress: user's address\r\n     * @param _policyId: the unique policy ID\r\n     */\r\n    function policyClaimed(\r\n        uint256 _premium,\r\n        uint256 _payoff,\r\n        address _userAddress,\r\n        bytes32 _policyId\r\n    ) internal {\r\n        insurancePool.payClaim(_premium, _payoff, _userAddress);\r\n        policyList[_policyId].status = PolicyStatus.CLAIMED;\r\n        emit PolicyClaimed(_policyId, _userAddress);\r\n    }\r\n\r\n    /**\r\n     * @notice The payoff formula\r\n     * @param _delay Delay in minutes\r\n     * @return the final payoff volume\r\n     */\r\n    function calcPayoff(uint256 _delay) internal pure returns (uint256) {\r\n        uint256 payoff = 0;\r\n\r\n        // payoff model 1 - linear\r\n        if (_delay <= 60) {\r\n            payoff = _delay;\r\n        } else if (_delay > 60 && _delay <= 120) {\r\n            payoff = 60 + (_delay - 60) * 2;\r\n        } else if (_delay > 120 && _delay <= 240) {\r\n            payoff = 180 + (_delay - 120) * 3;\r\n        }\r\n\r\n        payoff = payoff * 1e18;\r\n        return payoff;\r\n    }\r\n\r\n    function encodePack1(\r\n        uint256 _order,\r\n        bytes32 _policyId,\r\n        uint256 _productId,\r\n        address _userAddress\r\n    ) internal pure returns (string memory _result1) {\r\n        _result1 = string(\r\n            abi.encodePacked(\r\n                \"\\nPolicy\",\r\n                _order.toString(),\r\n                \": \\n{PolicyId: \",\r\n                bytes32ToString(_policyId),\r\n                \", \\nProductId: \",\r\n                _productId.toString(),\r\n                \", \\nBuyerAddress: \",\r\n                addressToString(_userAddress)\r\n            )\r\n        );\r\n    }\r\n\r\n    function encodePack2(\r\n        uint256 _premium,\r\n        uint256 _payoff,\r\n        uint256 _purchaseDate,\r\n        uint256 _departureDate,\r\n        uint256 _landingDate,\r\n        uint256 _status,\r\n        string memory _isUsed,\r\n        uint256 _delayResult\r\n    ) internal pure returns (string memory _result2) {\r\n        _result2 = string(\r\n            abi.encodePacked(\r\n                \", \\nPremium: \",\r\n                (_premium / 10**18).toString(),\r\n                \", \\nPayoff: \",\r\n                (_payoff / 10**18).toString(),\r\n                \", \\nPurchaseDate: \",\r\n                (_purchaseDate).toString(),\r\n                \", \\nDepartureDate: \",\r\n                (_departureDate).toString(),\r\n                \", \\nLandingDate: \",\r\n                (_landingDate).toString(),\r\n                \", \\nStatus: \",\r\n                uint256(_status).toString(),\r\n                \", \\nIsUsed: \",\r\n                _isUsed,\r\n                \", \\nDelay Results: \",\r\n                _delayResult.toString(),\r\n                \"}\"\r\n            )\r\n        );\r\n    }\r\n}\r\n",
  "sourcePath": "D:\\src\\Degis-Contracts-1\\contracts\\PolicyFlow.sol",
  "compiler": {
    "name": "solc",
    "version": "0.8.5+commit.a4f2e591.Emscripten.clang"
  },
  "schemaVersion": "3.4.3",
  "updatedAt": "2021-10-07T16:23:49.110Z",
  "networkType": "ethereum",
  "devdoc": {
    "kind": "dev",
    "methods": {
      "addressToString(address)": {
        "params": {
          "_addr": ": input address"
        },
        "returns": {
          "_0": "string form of _addr"
        }
      },
      "bytes32ToHumanString(bytes32)": {
        "params": {
          "_bytes": ": input bytes32"
        },
        "returns": {
          "_0": "string form of _bytes"
        }
      },
      "bytes32ToString(bytes32)": {
        "params": {
          "_bytes": ": input bytes32"
        },
        "returns": {
          "_0": "string form of _bytes"
        }
      },
      "bytesToUint(bytes32)": {
        "params": {
          "s": "input bytes"
        },
        "returns": {
          "_0": "the number"
        }
      },
      "changeFee(uint256)": {
        "params": {
          "_fee": ": new fee"
        }
      },
      "changeJobId(bytes32)": {
        "params": {
          "_jobId": ": new job Id"
        }
      },
      "changeOrcaleAddress(address)": {
        "params": {
          "_oracleAddress": ": new oracle address"
        }
      },
      "fulfill(bytes32,uint256)": {
        "details": "The recordChainlinkFulfillment protects this function from being called by anyone other than the oracle address that the request was sent to",
        "params": {
          "_data": "The answer provided by the oracle",
          "_requestId": "The ID that was generated for the request"
        }
      },
      "getChainlinkToken()": {
        "details": "This is the public implementation for chainlinkTokenAddress, which is an internal method of the ChainlinkClient contract"
      },
      "getPolicyIdByCount(uint256)": {
        "params": {
          "_count": ": total count"
        },
        "returns": {
          "_0": "policyId (bytes32)"
        }
      },
      "getPolicyInfoByCount(uint256)": {
        "params": {
          "_count": ": total count"
        }
      },
      "getUserPolicyCount(address)": {
        "params": {
          "_userAddress": ": user's address"
        }
      },
      "newApplication(address,uint256,uint256,uint256,uint256,uint256)": {
        "params": {
          "_departureDate": ": expiry date of this policy (unix timestamp)",
          "_payoff": ": payoff of this policy (decimal 18)",
          "_premium": ": premium of this policy (decimal 18)",
          "_productId": ": ID of the purchased product (0: flightdelay; 1,2,3...: others) (different products)",
          "_userAddress": ": user's address (buyer)"
        }
      },
      "newClaimRequest(uint256,string,string,string,bool)": {
        "params": {
          "_date": "The flight date",
          "_flightNumber": "The flight number",
          "_forceUpdate": "Owner can force to update",
          "_path": "Which data in json needs to get",
          "_policyOrder": "The total order of the policy"
        }
      },
      "viewPolicy(address)": {
        "params": {
          "_userAddress": ": user's address (buyer)"
        },
        "returns": {
          "_0": "user's policy details"
        }
      }
    },
    "version": 1
  },
  "userdoc": {
    "kind": "user",
    "methods": {
      "addressToString(address)": {
        "notice": "transfer an address to a string"
      },
      "bytes32ToHumanString(bytes32)": {
        "notice": "transfer bytes32 to string (human-readable form)"
      },
      "bytes32ToString(bytes32)": {
        "notice": "transfer bytes32 to string (not change the content)"
      },
      "bytesToUint(bytes32)": {
        "notice": "Transfer a bytes(ascii) to uint"
      },
      "changeFee(uint256)": {
        "notice": "change the oracle fee"
      },
      "changeJobId(bytes32)": {
        "notice": "change the job id"
      },
      "changeOrcaleAddress(address)": {
        "notice": "change the oracle address"
      },
      "findPolicyBuyerById(bytes32)": {
        "notice": "get the policy buyer by policyId"
      },
      "fulfill(bytes32,uint256)": {
        "notice": "The fulfill method from requests created by this contract"
      },
      "getChainlinkToken()": {
        "notice": "Returns the address of the LINK token"
      },
      "getPolicyIdByCount(uint256)": {
        "notice": "get the policyId (bytes32) from its count/order"
      },
      "getPolicyInfoByCount(uint256)": {
        "notice": "get the policyInfo from its count/order"
      },
      "getUserPolicyCount(address)": {
        "notice": "get a user's policy amount"
      },
      "newApplication(address,uint256,uint256,uint256,uint256,uint256)": {
        "notice": "start a new policy application"
      },
      "newClaimRequest(uint256,string,string,string,bool)": {
        "notice": "calculate the flight status"
      },
      "setDelayThreshold(uint256)": {
        "notice": "set the new delay threshold"
      },
      "viewPolicy(address)": {
        "notice": "show a user's policies (all)"
      }
    },
    "version": 1
  }
}