{
  "contractName": "PolicyFlow",
  "abi": [
    {
      "inputs": [
        {
          "internalType": "contract IInsurancePool",
          "name": "_insurancePool",
          "type": "address"
        },
        {
          "internalType": "contract IPolicyToken",
          "name": "_policyToken",
          "type": "address"
        },
        {
          "internalType": "address",
          "name": "_oracleAddress",
          "type": "address"
        }
      ],
      "stateMutability": "nonpayable",
      "type": "constructor"
    },
    {
      "anonymous": false,
      "inputs": [
        {
          "indexed": true,
          "internalType": "bytes32",
          "name": "id",
          "type": "bytes32"
        }
      ],
      "name": "ChainlinkCancelled",
      "type": "event"
    },
    {
      "anonymous": false,
      "inputs": [
        {
          "indexed": true,
          "internalType": "bytes32",
          "name": "id",
          "type": "bytes32"
        }
      ],
      "name": "ChainlinkFulfilled",
      "type": "event"
    },
    {
      "anonymous": false,
      "inputs": [
        {
          "indexed": true,
          "internalType": "bytes32",
          "name": "id",
          "type": "bytes32"
        }
      ],
      "name": "ChainlinkRequested",
      "type": "event"
    },
    {
      "anonymous": false,
      "inputs": [
        {
          "indexed": false,
          "internalType": "bytes32",
          "name": "_policyId",
          "type": "bytes32"
        },
        {
          "indexed": false,
          "internalType": "bytes32",
          "name": "_requestId",
          "type": "bytes32"
        }
      ],
      "name": "FulfilledOracleRequest",
      "type": "event"
    },
    {
      "anonymous": false,
      "inputs": [
        {
          "indexed": false,
          "internalType": "bytes32",
          "name": "_policyID",
          "type": "bytes32"
        },
        {
          "indexed": true,
          "internalType": "address",
          "name": "_userAddress",
          "type": "address"
        }
      ],
      "name": "PolicyClaimed",
      "type": "event"
    },
    {
      "anonymous": false,
      "inputs": [
        {
          "indexed": false,
          "internalType": "bytes32",
          "name": "_policyID",
          "type": "bytes32"
        },
        {
          "indexed": true,
          "internalType": "address",
          "name": "_userAddress",
          "type": "address"
        }
      ],
      "name": "PolicyDeclined",
      "type": "event"
    },
    {
      "anonymous": false,
      "inputs": [
        {
          "indexed": false,
          "internalType": "bytes32",
          "name": "_policyID",
          "type": "bytes32"
        },
        {
          "indexed": true,
          "internalType": "address",
          "name": "_userAddress",
          "type": "address"
        }
      ],
      "name": "PolicyExpired",
      "type": "event"
    },
    {
      "anonymous": false,
      "inputs": [
        {
          "indexed": true,
          "internalType": "uint256",
          "name": "_tokenId",
          "type": "uint256"
        },
        {
          "indexed": false,
          "internalType": "address",
          "name": "_newOwner",
          "type": "address"
        }
      ],
      "name": "PolicyOwnerTransfer",
      "type": "event"
    },
    {
      "anonymous": false,
      "inputs": [
        {
          "indexed": false,
          "internalType": "bytes32",
          "name": "_policyID",
          "type": "bytes32"
        },
        {
          "indexed": true,
          "internalType": "address",
          "name": "_userAddress",
          "type": "address"
        }
      ],
      "name": "PolicySold",
      "type": "event"
    },
    {
      "anonymous": false,
      "inputs": [
        {
          "indexed": false,
          "internalType": "bytes32",
          "name": "_policyID",
          "type": "bytes32"
        },
        {
          "indexed": true,
          "internalType": "address",
          "name": "_userAddress",
          "type": "address"
        }
      ],
      "name": "newPolicyApplication",
      "type": "event"
    },
    {
      "inputs": [],
      "name": "DELAY_THRESHOLD",
      "outputs": [
        {
          "internalType": "uint256",
          "name": "",
          "type": "uint256"
        }
      ],
      "stateMutability": "view",
      "type": "function",
      "constant": true
    },
    {
      "inputs": [],
      "name": "MIN_TIME_BEFORE_DEPARTURE",
      "outputs": [
        {
          "internalType": "uint256",
          "name": "",
          "type": "uint256"
        }
      ],
      "stateMutability": "view",
      "type": "function",
      "constant": true
    },
    {
      "inputs": [],
      "name": "Total_Policies",
      "outputs": [
        {
          "internalType": "uint256",
          "name": "",
          "type": "uint256"
        }
      ],
      "stateMutability": "view",
      "type": "function",
      "constant": true
    },
    {
      "inputs": [
        {
          "internalType": "address",
          "name": "_addr",
          "type": "address"
        }
      ],
      "name": "addressToString",
      "outputs": [
        {
          "internalType": "string",
          "name": "",
          "type": "string"
        }
      ],
      "stateMutability": "pure",
      "type": "function",
      "constant": true
    },
    {
      "inputs": [
        {
          "internalType": "bytes32",
          "name": "_bytes",
          "type": "bytes32"
        }
      ],
      "name": "bytes32ToHumanString",
      "outputs": [
        {
          "internalType": "string",
          "name": "",
          "type": "string"
        }
      ],
      "stateMutability": "pure",
      "type": "function",
      "constant": true
    },
    {
      "inputs": [
        {
          "internalType": "bytes32",
          "name": "_bytes",
          "type": "bytes32"
        }
      ],
      "name": "bytes32ToString",
      "outputs": [
        {
          "internalType": "string",
          "name": "",
          "type": "string"
        }
      ],
      "stateMutability": "pure",
      "type": "function",
      "constant": true
    },
    {
      "inputs": [
        {
          "internalType": "bytes32",
          "name": "s",
          "type": "bytes32"
        }
      ],
      "name": "bytesToUint",
      "outputs": [
        {
          "internalType": "uint256",
          "name": "",
          "type": "uint256"
        }
      ],
      "stateMutability": "pure",
      "type": "function",
      "constant": true
    },
    {
      "inputs": [],
      "name": "oracleResponse",
      "outputs": [
        {
          "internalType": "uint256",
          "name": "",
          "type": "uint256"
        }
      ],
      "stateMutability": "view",
      "type": "function",
      "constant": true
    },
    {
      "inputs": [],
      "name": "owner",
      "outputs": [
        {
          "internalType": "address",
          "name": "",
          "type": "address"
        }
      ],
      "stateMutability": "view",
      "type": "function",
      "constant": true
    },
    {
      "inputs": [],
      "name": "getChainlinkToken",
      "outputs": [
        {
          "internalType": "address",
          "name": "",
          "type": "address"
        }
      ],
      "stateMutability": "view",
      "type": "function",
      "constant": true
    },
    {
      "inputs": [
        {
          "internalType": "address",
          "name": "_userAddress",
          "type": "address"
        }
      ],
      "name": "viewPolicy",
      "outputs": [
        {
          "internalType": "string",
          "name": "",
          "type": "string"
        }
      ],
      "stateMutability": "view",
      "type": "function",
      "constant": true
    },
    {
      "inputs": [
        {
          "internalType": "uint256",
          "name": "_count",
          "type": "uint256"
        }
      ],
      "name": "getPolicyIdByCount",
      "outputs": [
        {
          "internalType": "bytes32",
          "name": "",
          "type": "bytes32"
        }
      ],
      "stateMutability": "view",
      "type": "function",
      "constant": true
    },
    {
      "inputs": [
        {
          "internalType": "uint256",
          "name": "_count",
          "type": "uint256"
        }
      ],
      "name": "getPolicyInfoByCount",
      "outputs": [
        {
          "internalType": "string",
          "name": "_flightNumber",
          "type": "string"
        },
        {
          "internalType": "bytes32",
          "name": "_policyId",
          "type": "bytes32"
        },
        {
          "internalType": "uint256",
          "name": "_productId",
          "type": "uint256"
        },
        {
          "internalType": "address",
          "name": "_owner",
          "type": "address"
        },
        {
          "internalType": "uint256",
          "name": "_premium",
          "type": "uint256"
        },
        {
          "internalType": "uint256",
          "name": "_payoff",
          "type": "uint256"
        },
        {
          "internalType": "uint256",
          "name": "_purchaseDate",
          "type": "uint256"
        },
        {
          "internalType": "uint256",
          "name": "_departureDate",
          "type": "uint256"
        },
        {
          "internalType": "uint256",
          "name": "_landingDate",
          "type": "uint256"
        },
        {
          "internalType": "uint256",
          "name": "_policyStatus",
          "type": "uint256"
        }
      ],
      "stateMutability": "view",
      "type": "function",
      "constant": true
    },
    {
      "inputs": [
        {
          "internalType": "address",
          "name": "_userAddress",
          "type": "address"
        }
      ],
      "name": "getUserPolicyCount",
      "outputs": [
        {
          "internalType": "uint256",
          "name": "",
          "type": "uint256"
        }
      ],
      "stateMutability": "view",
      "type": "function",
      "constant": true
    },
    {
      "inputs": [
        {
          "internalType": "bytes32",
          "name": "_policyId",
          "type": "bytes32"
        }
      ],
      "name": "findPolicyBuyerById",
      "outputs": [
        {
          "internalType": "address",
          "name": "",
          "type": "address"
        }
      ],
      "stateMutability": "view",
      "type": "function",
      "constant": true
    },
    {
      "inputs": [
        {
          "internalType": "bytes32",
          "name": "_jobId",
          "type": "bytes32"
        }
      ],
      "name": "changeJobId",
      "outputs": [],
      "stateMutability": "nonpayable",
      "type": "function"
    },
    {
      "inputs": [
        {
          "internalType": "uint256",
          "name": "_fee",
          "type": "uint256"
        }
      ],
      "name": "changeFee",
      "outputs": [],
      "stateMutability": "nonpayable",
      "type": "function"
    },
    {
      "inputs": [
        {
          "internalType": "address",
          "name": "_oracleAddress",
          "type": "address"
        }
      ],
      "name": "changeOrcaleAddress",
      "outputs": [],
      "stateMutability": "nonpayable",
      "type": "function"
    },
    {
      "inputs": [
        {
          "internalType": "uint256",
          "name": "_threshold",
          "type": "uint256"
        }
      ],
      "name": "setDelayThreshold",
      "outputs": [],
      "stateMutability": "nonpayable",
      "type": "function"
    },
    {
      "inputs": [
        {
          "internalType": "address",
          "name": "_userAddress",
          "type": "address"
        },
        {
          "internalType": "uint256",
          "name": "_productId",
          "type": "uint256"
        },
        {
          "internalType": "string",
          "name": "_flightNumber",
          "type": "string"
        },
        {
          "internalType": "uint256",
          "name": "_premium",
          "type": "uint256"
        },
        {
          "internalType": "uint256",
          "name": "_payoff",
          "type": "uint256"
        },
        {
          "internalType": "uint256",
          "name": "_departureDate",
          "type": "uint256"
        },
        {
          "internalType": "uint256",
          "name": "_landingDate",
          "type": "uint256"
        }
      ],
      "name": "newApplication",
      "outputs": [
        {
          "internalType": "bytes32",
          "name": "_policyId",
          "type": "bytes32"
        }
      ],
      "stateMutability": "nonpayable",
      "type": "function"
    },
    {
      "inputs": [
        {
          "internalType": "uint256",
          "name": "_policyOrder",
          "type": "uint256"
        },
        {
          "internalType": "string",
          "name": "_flightNumber",
          "type": "string"
        },
        {
          "internalType": "string",
          "name": "_date",
          "type": "string"
        },
        {
          "internalType": "string",
          "name": "_path",
          "type": "string"
        },
        {
          "internalType": "bool",
          "name": "_forceUpdate",
          "type": "bool"
        }
      ],
      "name": "newClaimRequest",
      "outputs": [],
      "stateMutability": "nonpayable",
      "type": "function"
    },
    {
      "inputs": [
        {
          "internalType": "bytes32",
          "name": "_requestId",
          "type": "bytes32"
        },
        {
          "internalType": "uint256",
          "name": "_data",
          "type": "uint256"
        }
      ],
      "name": "fulfill",
      "outputs": [],
      "stateMutability": "nonpayable",
      "type": "function"
    },
    {
      "inputs": [
        {
          "internalType": "uint256",
          "name": "_tokenId",
          "type": "uint256"
        },
        {
          "internalType": "address",
          "name": "_oldOwner",
          "type": "address"
        },
        {
          "internalType": "address",
          "name": "_newOwner",
          "type": "address"
        }
      ],
      "name": "policyOwnerTransfer",
      "outputs": [],
      "stateMutability": "nonpayable",
      "type": "function"
    }
  ],
  "bytecode": "0x608060405260016004556040518060400160405280602081526020017f687474703a2f2f33392e3130312e3133322e3232383a383030302f6c6976652f8152506008908051906020019062000056929190620002d6565b5060f06010553480156200006957600080fd5b50604051620056803803806200568083398181016040528101906200008f9190620003fd565b33600d60006101000a81548173ffffffffffffffffffffffffffffffffffffffff021916908373ffffffffffffffffffffffffffffffffffffffff16021790555082600e60006101000a81548173ffffffffffffffffffffffffffffffffffffffff021916908373ffffffffffffffffffffffffffffffffffffffff16021790555081600f60006101000a81548173ffffffffffffffffffffffffffffffffffffffff021916908373ffffffffffffffffffffffffffffffffffffffff16021790555080600960006101000a81548173ffffffffffffffffffffffffffffffffffffffff021916908373ffffffffffffffffffffffffffffffffffffffff1602179055507f6365663734613766663765613431393461623937663030633839616265663662600a81905550620001ca620001ea60201b60201c565b670de0b6b3a764000060078190555060006011819055505050506200056d565b6200029073c89bd4e1632d3a43cb03aaad5262cbe4038bc57173ffffffffffffffffffffffffffffffffffffffff166338cc48316040518163ffffffff1660e01b815260040160206040518083038186803b1580156200024957600080fd5b505afa1580156200025e573d6000803e3d6000fd5b505050506040513d601f19601f82011682018060405250810190620002849190620003cb565b6200029260201b60201c565b565b80600260006101000a81548173ffffffffffffffffffffffffffffffffffffffff021916908373ffffffffffffffffffffffffffffffffffffffff16021790555050565b828054620002e490620004b5565b90600052602060002090601f01602090048101928262000308576000855562000354565b82601f106200032357805160ff191683800117855562000354565b8280016001018555821562000354579182015b828111156200035357825182559160200191906001019062000336565b5b50905062000363919062000367565b5090565b5b808211156200038257600081600090555060010162000368565b5090565b60008151905062000397816200051f565b92915050565b600081519050620003ae8162000539565b92915050565b600081519050620003c58162000553565b92915050565b600060208284031215620003e457620003e36200051a565b5b6000620003f48482850162000386565b91505092915050565b6000806000606084860312156200041957620004186200051a565b5b600062000429868287016200039d565b93505060206200043c86828701620003b4565b92505060406200044f8682870162000386565b9150509250925092565b6000620004668262000495565b9050919050565b60006200047a8262000459565b9050919050565b60006200048e8262000459565b9050919050565b600073ffffffffffffffffffffffffffffffffffffffff82169050919050565b60006002820490506001821680620004ce57607f821691505b60208210811415620004e557620004e4620004eb565b5b50919050565b7f4e487b7100000000000000000000000000000000000000000000000000000000600052602260045260246000fd5b600080fd5b6200052a8162000459565b81146200053657600080fd5b50565b62000544816200046d565b81146200055057600080fd5b50565b6200055e8162000481565b81146200056a57600080fd5b50565b615103806200057d6000396000f3fe608060405234801561001057600080fd5b506004361061014d5760003560e01c80636a1db1bf116100c3578063aed0acee1161007c578063aed0acee146103c9578063b7b357ac146103e7578063be6b824814610405578063cfc5a96914610423578063ddf9d61714610453578063e25f3fc8146104835761014d565b80636a1db1bf146102f75780636d0be997146103135780638d8ccfce1461032f5780638da5cb5b1461035f5780638e34ce351461037d5780639201de55146103995761014d565b80633d21a7d1116101155780633d21a7d1146102135780633da21def146102435780634357855e1461025f5780635e57966d1461027b578063624c5223146102ab57806369099ee7146102db5761014d565b8063081c29a8146101525780630f42fd0b14610182578063165d35e11461019e578063214a64a9146101bc57806330dbc6c4146101da575b600080fd5b61016c60048036038101906101679190613678565b6104b3565b6040516101799190614065565b60405180910390f35b61019c600480360381019061019791906136f8565b6104d0565b005b6101a66107ec565b6040516101b39190613f87565b60405180910390f35b6101c46107fb565b6040516101d191906142ee565b60405180910390f35b6101f460048036038101906101ef9190613678565b610801565b60405161020a9a999897969594939291906140cb565b60405180910390f35b61022d600480360381019061022891906134f3565b6109e4565b60405161023a91906142ee565b60405180910390f35b61025d6004803603810190610258919061360b565b610a2d565b005b61027960048036038101906102749190613638565b610ac7565b005b610295600480360381019061029091906134f3565b610ece565b6040516102a291906140a9565b60405180910390f35b6102c560048036038101906102c09190613520565b610f01565b6040516102d29190614065565b60405180910390f35b6102f560048036038101906102f091906134f3565b611299565b005b610311600480360381019061030c9190613678565b61136d565b005b61032d60048036038101906103289190613678565b611407565b005b6103496004803603810190610344919061360b565b6114a1565b6040516103569190613f87565b60405180910390f35b6103676114e1565b6040516103749190613f87565b60405180910390f35b610397600480360381019061039291906136a5565b611507565b005b6103b360048036038101906103ae919061360b565b6116e6565b6040516103c091906140a9565b60405180910390f35b6103d1611706565b6040516103de91906142ee565b60405180910390f35b6103ef61170c565b6040516103fc91906142ee565b60405180910390f35b61040d611713565b60405161041a91906142ee565b60405180910390f35b61043d6004803603810190610438919061360b565b611719565b60405161044a91906142ee565b60405180910390f35b61046d600480360381019061046891906134f3565b6118b7565b60405161047a91906140a9565b60405180910390f35b61049d6004803603810190610498919061360b565b611ceb565b6040516104aa91906140a9565b60405180910390f35b600060136000838152602001908152602001600020549050919050565b600d60009054906101000a900473ffffffffffffffffffffffffffffffffffffffff1673ffffffffffffffffffffffffffffffffffffffff163373ffffffffffffffffffffffffffffffffffffffff1614610560576040517f08c379a00000000000000000000000000000000000000000000000000000000081526004016105579061426e565b60405180910390fd5b60006013600087815260200190815260200160002054905060126000828152602001908152602001600020600901544210156105d1576040517f08c379a00000000000000000000000000000000000000000000000000000000081526004016105c89061424e565b60405180910390fd5b60126000828152602001908152602001600020600a0160019054906101000a900460ff16158061065757508180156106565750600d60009054906101000a900473ffffffffffffffffffffffffffffffffffffffff1673ffffffffffffffffffffffffffffffffffffffff163373ffffffffffffffffffffffffffffffffffffffff16145b5b610696576040517f08c379a000000000000000000000000000000000000000000000000000000000815260040161068d9061428e565b60405180910390fd5b601260008281526020019081526020016000206003016040516020016106bc9190613ddd565b60405160208183030381529060405280519060200120856040516020016106e39190613d95565b6040516020818303038152906040528051906020012014610739576040517f08c379a0000000000000000000000000000000000000000000000000000000008152600401610730906141ae565b60405180910390fd5b60006008868660405160200161075193929190613df4565b60405160208183030381529060405290506000610799600960009054906101000a900473ffffffffffffffffffffffffffffffffffffffff16600a5460075485896001611dc1565b905087600b600083815260200190815260200160002081905550600160126000858152602001908152602001600020600a0160016101000a81548160ff0219169083151502179055505050505050505050565b60006107f6611ece565b905090565b60065481565b6060600080600080600080600080600080601360008d8152602001908152602001600020549050601260008281526020019081526020016000206003018160126000848152602001908152602001600020600001546012600085815260200190815260200160002060010160009054906101000a900473ffffffffffffffffffffffffffffffffffffffff166012600086815260200190815260200160002060050154601260008781526020019081526020016000206006015460126000888152602001908152602001600020600701546012600089815260200190815260200160002060080154601260008a815260200190815260200160002060090154601260008b8152602001908152602001600020600a0160009054906101000a900460ff166004811115610936576109356149f3565b5b8980546109429061488a565b80601f016020809104026020016040519081016040528092919081815260200182805461096e9061488a565b80156109bb5780601f10610990576101008083540402835291602001916109bb565b820191906000526020600020905b81548152906001019060200180831161099e57829003601f168201915b505050505099509a509a509a509a509a509a509a509a509a509a50509193959799509193959799565b6000601560008373ffffffffffffffffffffffffffffffffffffffff1673ffffffffffffffffffffffffffffffffffffffff168152602001908152602001600020549050919050565b600d60009054906101000a900473ffffffffffffffffffffffffffffffffffffffff1673ffffffffffffffffffffffffffffffffffffffff163373ffffffffffffffffffffffffffffffffffffffff1614610abd576040517f08c379a0000000000000000000000000000000000000000000000000000000008152600401610ab49061426e565b60405180910390fd5b80600a8190555050565b816005600082815260200190815260200160002060009054906101000a900473ffffffffffffffffffffffffffffffffffffffff1673ffffffffffffffffffffffffffffffffffffffff163373ffffffffffffffffffffffffffffffffffffffff1614610b69576040517f08c379a0000000000000000000000000000000000000000000000000000000008152600401610b60906142ae565b60405180910390fd5b6005600082815260200190815260200160002060006101000a81549073ffffffffffffffffffffffffffffffffffffffff0219169055807f7cc135e0cebb02c3480ae5d74d377283180a2601f8f644edf7987b009316c63a60405160405180910390a2816006819055506000600b60008581526020019081526020016000205490506000601360008381526020019081526020016000205490508360126000838152602001908152602001600020600b01819055506000841415610c9a57610c95601260008381526020019081526020016000206005015460126000848152602001908152602001600020600601546012600085815260200190815260200160002060010160009054906101000a900473ffffffffffffffffffffffffffffffffffffffff1684611ef8565b610e8e565b6010548411610da0576000610cae8561201a565b90506012600083815260200190815260200160002060060154811015610d2b57610d266012600084815260200190815260200160002060050154826012600086815260200190815260200160002060010160009054906101000a900473ffffffffffffffffffffffffffffffffffffffff16856120d2565b610d9a565b610d99601260008481526020019081526020016000206005015460126000858152602001908152602001600020600601546012600086815260200190815260200160002060010160009054906101000a900473ffffffffffffffffffffffffffffffffffffffff16856120d2565b5b50610e8d565b610190841415610e1d57610e18601260008381526020019081526020016000206005015460126000848152602001908152602001600020600601546012600085815260200190815260200160002060010160009054906101000a900473ffffffffffffffffffffffffffffffffffffffff16846120d2565b610e8c565b610e8b601260008381526020019081526020016000206005015460126000848152602001908152602001600020600601546012600085815260200190815260200160002060010160009054906101000a900473ffffffffffffffffffffffffffffffffffffffff1684611ef8565b5b5b5b7fa9ddea9ab39eadd77698a6649216466253039b513895fe0e268e695809f28f3d8186604051610ebf929190614080565b60405180910390a15050505050565b6060610efa60148373ffffffffffffffffffffffffffffffffffffffff166121f690919063ffffffff16565b9050919050565b60006201518042610f129190614417565b831015610f54576040517f08c379a0000000000000000000000000000000000000000000000000000000008152600401610f4b9061420e565b60405180910390fd5b6000888885601154604051602001610f6f9493929190613d1b565b604051602081830303815290604052805190602001209050610f92858a83612432565b6000429050604051806101a001604052808a81526020018b73ffffffffffffffffffffffffffffffffffffffff16815260200160115481526020018981526020018381526020018881526020018781526020018281526020018681526020018581526020016000600481111561100b5761100a6149f3565b5b8152602001600015158152602001610194815250601260008481526020019081526020016000206000820151816000015560208201518160010160006101000a81548173ffffffffffffffffffffffffffffffffffffffff021916908373ffffffffffffffffffffffffffffffffffffffff1602179055506040820151816002015560608201518160030190805190602001906110a99291906132f0565b506080820151816004015560a0820151816005015560c0820151816006015560e082015181600701556101008201518160080155610120820151816009015561014082015181600a0160006101000a81548160ff02191690836004811115611114576111136149f3565b5b021790555061016082015181600a0160016101000a81548160ff02191690831515021790555061018082015181600b0155905050601460008b73ffffffffffffffffffffffffffffffffffffffff1673ffffffffffffffffffffffffffffffffffffffff16815260200190815260200160002060115490806001815401808255809150506001900390600052602060002001600090919091909150556001601560008c73ffffffffffffffffffffffffffffffffffffffff1673ffffffffffffffffffffffffffffffffffffffff16815260200190815260200160002060008282546112009190614417565b9250508190555081601360006011548152602001908152602001600020819055506001601160008282546112349190614417565b925050819055508973ffffffffffffffffffffffffffffffffffffffff167fea7d153d9403b2cbdaa11045591904450ef979d8225ec92d7f2bd664b4a7d79b836040516112819190614065565b60405180910390a28192505050979650505050505050565b600d60009054906101000a900473ffffffffffffffffffffffffffffffffffffffff1673ffffffffffffffffffffffffffffffffffffffff163373ffffffffffffffffffffffffffffffffffffffff1614611329576040517f08c379a00000000000000000000000000000000000000000000000000000000081526004016113209061426e565b60405180910390fd5b80600960006101000a81548173ffffffffffffffffffffffffffffffffffffffff021916908373ffffffffffffffffffffffffffffffffffffffff16021790555050565b600d60009054906101000a900473ffffffffffffffffffffffffffffffffffffffff1673ffffffffffffffffffffffffffffffffffffffff163373ffffffffffffffffffffffffffffffffffffffff16146113fd576040517f08c379a00000000000000000000000000000000000000000000000000000000081526004016113f49061426e565b60405180910390fd5b8060078190555050565b600d60009054906101000a900473ffffffffffffffffffffffffffffffffffffffff1673ffffffffffffffffffffffffffffffffffffffff163373ffffffffffffffffffffffffffffffffffffffff1614611497576040517f08c379a000000000000000000000000000000000000000000000000000000000815260040161148e9061426e565b60405180910390fd5b8060108190555050565b60006012600083815260200190815260200160002060010160009054906101000a900473ffffffffffffffffffffffffffffffffffffffff169050919050565b600d60009054906101000a900473ffffffffffffffffffffffffffffffffffffffff1681565b600f60009054906101000a900473ffffffffffffffffffffffffffffffffffffffff1673ffffffffffffffffffffffffffffffffffffffff163373ffffffffffffffffffffffffffffffffffffffff1614611597576040517f08c379a000000000000000000000000000000000000000000000000000000000815260040161158e906141ee565b60405180910390fd5b6000601360008581526020019081526020016000205490506012600082815260200190815260200160002060010160009054906101000a900473ffffffffffffffffffffffffffffffffffffffff1673ffffffffffffffffffffffffffffffffffffffff168373ffffffffffffffffffffffffffffffffffffffff1614611653576040517f08c379a000000000000000000000000000000000000000000000000000000000815260040161164a9061418e565b60405180910390fd5b816012600083815260200190815260200160002060010160006101000a81548173ffffffffffffffffffffffffffffffffffffffff021916908373ffffffffffffffffffffffffffffffffffffffff160217905550837f131013c706ffe7a58a15c6576c2affbfee4aa57a8fc2c179fff9da687da631e6836040516116d89190613f87565b60405180910390a250505050565b60606116ff60208360001c6121f690919063ffffffff16565b9050919050565b60105481565b6201518081565b60115481565b600080602067ffffffffffffffff81111561173757611736614a80565b5b6040519080825280601f01601f1916602001820160405280156117695781602001600182028036833780820191505090505b50905060005b60208110156117e45783816020811061178b5761178a614a51565b5b1a60f81b8282815181106117a2576117a1614a51565b5b60200101907effffffffffffffffffffffffffffffffffffffffffffffffffffffffffffff1916908160001a90535080806117dc906148ed565b91505061176f565b506000805b82518110156118ac57603083828151811061180757611806614a51565b5b602001015160f81c60f81b60f81c60ff161015801561184a5750603983828151811061183657611835614a51565b5b602001015160f81c60f81b60f81c60ff1611155b1561189957603083828151811061186457611863614a51565b5b602001015160f81c60f81b60f81c61187c9190614731565b60ff16600a8361188c919061460f565b6118969190614417565b91505b80806118a4906148ed565b9150506117e9565b508092505050919050565b60606000601560008473ffffffffffffffffffffffffffffffffffffffff1673ffffffffffffffffffffffffffffffffffffffff168152602001908152602001600020541161193b576040517f08c379a00000000000000000000000000000000000000000000000000000000081526004016119329061422e565b60405180910390fd5b6000601560008473ffffffffffffffffffffffffffffffffffffffff1673ffffffffffffffffffffffffffffffffffffffff16815260200190815260200160002054905060006040518060400160405280600181526020017f2000000000000000000000000000000000000000000000000000000000000000815250905060005b82811015611ce0576000601460008773ffffffffffffffffffffffffffffffffffffffff1673ffffffffffffffffffffffffffffffffffffffff1681526020019081526020016000208281548110611a1757611a16614a51565b5b90600052602060002001549050600060136000838152602001908152602001600020549050600060126000838152602001908152602001600020600a0160019054906101000a900460ff16611aa1576040518060400160405280600881526020017f6e6f742075736564000000000000000000000000000000000000000000000000815250611ad8565b6040518060400160405280600481526020017f75736564000000000000000000000000000000000000000000000000000000008152505b90506000611bd385601260008681526020019081526020016000206003018054611b019061488a565b80601f0160208091040260200160405190810160405280929190818152602001828054611b2d9061488a565b8015611b7a5780601f10611b4f57610100808354040283529160200191611b7a565b820191906000526020600020905b815481529060010190602001808311611b5d57829003601f168201915b50505050508560126000888152602001908152602001600020600001546012600089815260200190815260200160002060010160009054906101000a900473ffffffffffffffffffffffffffffffffffffffff166126d3565b90506000611ca06012600086815260200190815260200160002060050154601260008781526020019081526020016000206006015460126000888152602001908152602001600020600701546012600089815260200190815260200160002060080154601260008a815260200190815260200160002060090154601260008b8152602001908152602001600020600a0160009054906101000a900460ff166004811115611c8357611c826149f3565b5b89601260008d8152602001908152602001600020600b0154612728565b9050868282604051602001611cb793929190613dac565b604051602081830303815290604052965050505050508080611cd8906148ed565b9150506119bc565b508092505050919050565b60606000602067ffffffffffffffff811115611d0a57611d09614a80565b5b6040519080825280601f01601f191660200182016040528015611d3c5781602001600182028036833780820191505090505b50905060005b6020811015611db757838160208110611d5e57611d5d614a51565b5b1a60f81b828281518110611d7557611d74614a51565b5b60200101907effffffffffffffffffffffffffffffffffffffffffffffffffffffffffffff1916908160001a9053508080611daf906148ed565b915050611d42565b5080915050919050565b600080611dd68730634357855e60e01b6127c4565b9050611e226040518060400160405280600381526020017f75726c000000000000000000000000000000000000000000000000000000000081525086836127f59092919063ffffffff16565b611e6c6040518060400160405280600481526020017f706174680000000000000000000000000000000000000000000000000000000081525085836127f59092919063ffffffff16565b611eb66040518060400160405280600581526020017f74696d657300000000000000000000000000000000000000000000000000000081525084836128289092919063ffffffff16565b611ec188828861285b565b9150509695505050505050565b6000600260009054906101000a900473ffffffffffffffffffffffffffffffffffffffff16905090565b600e60009054906101000a900473ffffffffffffffffffffffffffffffffffffffff1673ffffffffffffffffffffffffffffffffffffffff16638f6987a285856040518363ffffffff1660e01b8152600401611f55929190614309565b600060405180830381600087803b158015611f6f57600080fd5b505af1158015611f83573d6000803e3d6000fd5b50505050600360126000838152602001908152602001600020600a0160006101000a81548160ff02191690836004811115611fc157611fc06149f3565b5b02179055508173ffffffffffffffffffffffffffffffffffffffff167f8629ba1a018e1397c942e8dcf53afb2cfd0f250c02bc785e041010dfe6bbe0028260405161200c9190614065565b60405180910390a250505050565b60008060009050603c8311612031578290506120b3565b603c83118015612042575060788311155b15612073576002603c8461205691906146fd565b612060919061460f565b603c61206c9190614417565b90506120b2565b607883118015612084575060f08311155b156120b157600360788461209891906146fd565b6120a2919061460f565b60b46120ae9190614417565b90505b5b5b670de0b6b3a7640000816120c7919061460f565b905080915050919050565b600e60009054906101000a900473ffffffffffffffffffffffffffffffffffffffff1673ffffffffffffffffffffffffffffffffffffffff166347fea81e8585856040518463ffffffff1660e01b815260040161213193929190614332565b600060405180830381600087803b15801561214b57600080fd5b505af115801561215f573d6000803e3d6000fd5b50505050600460126000838152602001908152602001600020600a0160006101000a81548160ff0219169083600481111561219d5761219c6149f3565b5b02179055508173ffffffffffffffffffffffffffffffffffffffff167f5f9c763688279c7782f685a70462a053a838f3453a1b3a1bdc3c782d12670d61826040516121e89190614065565b60405180910390a250505050565b606060006002836002612209919061460f565b6122139190614417565b67ffffffffffffffff81111561222c5761222b614a80565b5b6040519080825280601f01601f19166020018201604052801561225e5781602001600182028036833780820191505090505b5090507f30000000000000000000000000000000000000000000000000000000000000008160008151811061229657612295614a51565b5b60200101907effffffffffffffffffffffffffffffffffffffffffffffffffffffffffffff1916908160001a9053507f7800000000000000000000000000000000000000000000000000000000000000816001815181106122fa576122f9614a51565b5b60200101907effffffffffffffffffffffffffffffffffffffffffffffffffffffffffffff1916908160001a9053506000600184600261233a919061460f565b6123449190614417565b90505b60018111156123e4577f3031323334353637383961626364656600000000000000000000000000000000600f86166010811061238657612385614a51565b5b1a60f81b82828151811061239d5761239c614a51565b5b60200101907effffffffffffffffffffffffffffffffffffffffffffffffffffffffffffff1916908160001a905350600485901c9450806123dd90614860565b9050612347565b5060008414612428576040517f08c379a000000000000000000000000000000000000000000000000000000000815260040161241f9061416e565b60405180910390fd5b8091505092915050565b6000600e60009054906101000a900473ffffffffffffffffffffffffffffffffffffffff1673ffffffffffffffffffffffffffffffffffffffff166216bd78856040518263ffffffff1660e01b815260040161248e91906142ee565b60206040518083038186803b1580156124a657600080fd5b505afa1580156124ba573d6000803e3d6000fd5b505050506040513d601f19601f820116820180604052508101906124de91906135de565b9050801561260557600160126000848152602001908152602001600020600a0160006101000a81548160ff021916908360048111156125205761251f6149f3565b5b02179055508273ffffffffffffffffffffffffffffffffffffffff167fe2b215a9cb677e3aed3f981858d4991d0fa674cac07f691ae9e55285cd21e6508360405161256b9190614065565b60405180910390a2600f60009054906101000a900473ffffffffffffffffffffffffffffffffffffffff1673ffffffffffffffffffffffffffffffffffffffff1663b918e5e2846040518263ffffffff1660e01b81526004016125ce9190613f87565b600060405180830381600087803b1580156125e857600080fd5b505af11580156125fc573d6000803e3d6000fd5b505050506126cd565b600260126000848152602001908152602001600020600a0160006101000a81548160ff0219169083600481111561263f5761263e6149f3565b5b02179055508273ffffffffffffffffffffffffffffffffffffffff167fdf516e73760083066a1382f39eddf56faec71fab4e9b20387809572f492857308360405161268a9190614065565b60405180910390a26040517f08c379a00000000000000000000000000000000000000000000000000000000081526004016126c4906142ce565b60405180910390fd5b50505050565b60606126de8661287b565b856126e8866116e6565b6126f18661287b565b6126fa86610ece565b60405160200161270e959493929190613e30565b604051602081830303815290604052905095945050505050565b6060612746670de0b6b3a76400008a612741919061446d565b61287b565b612762670de0b6b3a76400008a61275d919061446d565b61287b565b61276b8961287b565b6127748961287b565b61277d8961287b565b6127868961287b565b886127908961287b565b6040516020016127a7989796959493929190613eb2565b604051602081830303815290604052905098975050505050505050565b6127cc613376565b6127d4613376565b6127eb858585846129dc909392919063ffffffff16565b9150509392505050565b61280c828460800151612a8c90919063ffffffff16565b612823818460800151612a8c90919063ffffffff16565b505050565b61283f828460800151612a8c90919063ffffffff16565b612856818460800151612ab190919063ffffffff16565b505050565b60006128728484846001634042994660e01b612b5e565b90509392505050565b606060008214156128c3576040518060400160405280600181526020017f300000000000000000000000000000000000000000000000000000000000000081525090506129d7565b600082905060005b600082146128f55780806128de906148ed565b915050600a826128ee919061446d565b91506128cb565b60008167ffffffffffffffff81111561291157612910614a80565b5b6040519080825280601f01601f1916602001820160405280156129435781602001600182028036833780820191505090505b5090505b600085146129d05760018261295c91906146fd565b9150600a8561296b9190614964565b60306129779190614417565b60f81b81838151811061298d5761298c614a51565b5b60200101907effffffffffffffffffffffffffffffffffffffffffffffffffffffffffffff1916908160001a905350600a856129c9919061446d565b9450612947565b8093505050505b919050565b6129e4613376565b6129f48560800151610100612dc6565b508385600001818152505082856020019073ffffffffffffffffffffffffffffffffffffffff16908173ffffffffffffffffffffffffffffffffffffffff16815250508185604001907bffffffffffffffffffffffffffffffffffffffffffffffffffffffff191690817bffffffffffffffffffffffffffffffffffffffffffffffffffffffff191681525050849050949350505050565b612a998260038351612e30565b612aac8183612f7590919063ffffffff16565b505050565b7fffffffffffffffffffffffffffffffffffffffffffffffff0000000000000000811215612ae857612ae38282612f97565b612b5a565b67ffffffffffffffff811315612b0757612b02828261300e565b612b59565b60008112612b2057612b1b82600083612e30565b612b58565b612b57826001837fffffffffffffffffffffffffffffffffffffffffffffffffffffffffffffffff612b529190614669565b612e30565b5b5b5b5050565b600030600454604051602001612b75929190613d69565b604051602081830303815290604052805190602001209050600454856060018181525050856005600083815260200190815260200160002060006101000a81548173ffffffffffffffffffffffffffffffffffffffff021916908373ffffffffffffffffffffffffffffffffffffffff160217905550807fb5e6e01e79f91267dc17b4e6314d5d4d03593d2ceee0fbb452b750bd70ea5af960405160405180910390a2600082600080886000015189602001518a604001518b606001518a8d6080015160000151604051602401612c53989796959493929190613fa2565b604051602081830303815290604052907bffffffffffffffffffffffffffffffffffffffffffffffffffffffff19166020820180517bffffffffffffffffffffffffffffffffffffffffffffffffffffffff83818316178352505050509050600260009054906101000a900473ffffffffffffffffffffffffffffffffffffffff1673ffffffffffffffffffffffffffffffffffffffff16634000aea08887846040518463ffffffff1660e01b8152600401612d1193929190614027565b602060405180830381600087803b158015612d2b57600080fd5b505af1158015612d3f573d6000803e3d6000fd5b505050506040513d601f19601f82011682018060405250810190612d6391906135de565b612da2576040517f08c379a0000000000000000000000000000000000000000000000000000000008152600401612d99906141ce565b60405180910390fd5b600160046000828254612db59190614417565b925050819055505095945050505050565b612dce6133e3565b6000602083612ddd9190614964565b14612e0957602082612def9190614964565b6020612dfb91906146fd565b82612e069190614417565b91505b81836020018181525050604051808452600081528281016020016040525082905092915050565b60178111612e5d57612e578160058460ff16901b60ff16178461305a90919063ffffffff16565b50612f70565b60ff8111612e9f57612e82601860058460ff16901b178461305a90919063ffffffff16565b50612e998160018561307a9092919063ffffffff16565b50612f6f565b61ffff8111612ee257612ec5601960058460ff16901b178461305a90919063ffffffff16565b50612edc8160028561307a9092919063ffffffff16565b50612f6e565b63ffffffff8111612f2757612f0a601a60058460ff16901b178461305a90919063ffffffff16565b50612f218160048561307a9092919063ffffffff16565b50612f6d565b67ffffffffffffffff8111612f6c57612f53601b60058460ff16901b178461305a90919063ffffffff16565b50612f6a8160088561307a9092919063ffffffff16565b505b5b5b5b5b505050565b612f7d6133e3565b612f8f8384600001515184855161309c565b905092915050565b612fb560036005600660ff16901b178361305a90919063ffffffff16565b5061300a82827fffffffffffffffffffffffffffffffffffffffffffffffffffffffffffffffff612fe69190614669565b604051602001612ff691906142ee565b6040516020818303038152906040526131a6565b5050565b61302c60026005600660ff16901b178361305a90919063ffffffff16565b50613056828260405160200161304291906142ee565b6040516020818303038152906040526131a6565b5050565b6130626133e3565b61307283846000015151846131cb565b905092915050565b6130826133e3565b613093848560000151518585613222565b90509392505050565b6130a46133e3565b82518211156130b257600080fd5b846020015182856130c39190614417565b11156130f8576130f78560026130e8886020015188876130e39190614417565b6132b0565b6130f2919061460f565b6132cc565b5b6000808651805187602083010193508088870111156131175787860182525b60208701925050505b6020841061315e57805182526020826131399190614417565b91506020816131489190614417565b905060208461315791906146fd565b9350613120565b6000600185602061316f91906146fd565b61010061317c91906144f1565b61318691906146fd565b905080198251168184511681811785525050879350505050949350505050565b6131b38260028351612e30565b6131c68183612f7590919063ffffffff16565b505050565b6131d36133e3565b836020015183106131f9576131f884600286602001516131f3919061460f565b6132cc565b5b8351805160208583010184815381861415613215576001820183525b5050508390509392505050565b61322a6133e3565b8460200151848361323b9190614417565b11156132635761326285600286856132539190614417565b61325d919061460f565b6132cc565b5b600060018361010061327591906144f1565b61327f91906146fd565b905085518386820101858319825116178152815185880111156132a25784870182525b505085915050949350505050565b6000818311156132c2578290506132c6565b8190505b92915050565b6000826000015190506132df8383612dc6565b506132ea8382612f75565b50505050565b8280546132fc9061488a565b90600052602060002090601f01602090048101928261331e5760008555613365565b82601f1061333757805160ff1916838001178555613365565b82800160010185558215613365579182015b82811115613364578251825591602001919060010190613349565b5b50905061337291906133fd565b5090565b6040518060a0016040528060008019168152602001600073ffffffffffffffffffffffffffffffffffffffff16815260200160007bffffffffffffffffffffffffffffffffffffffffffffffffffffffff19168152602001600081526020016133dd6133e3565b81525090565b604051806040016040528060608152602001600081525090565b5b808211156134165760008160009055506001016133fe565b5090565b600061342d6134288461438e565b614369565b90508281526020810184848401111561344957613448614ab4565b5b61345484828561481e565b509392505050565b60008135905061346b81615071565b92915050565b60008135905061348081615088565b92915050565b60008151905061349581615088565b92915050565b6000813590506134aa8161509f565b92915050565b600082601f8301126134c5576134c4614aaf565b5b81356134d584826020860161341a565b91505092915050565b6000813590506134ed816150b6565b92915050565b60006020828403121561350957613508614abe565b5b60006135178482850161345c565b91505092915050565b600080600080600080600060e0888a03121561353f5761353e614abe565b5b600061354d8a828b0161345c565b975050602061355e8a828b016134de565b965050604088013567ffffffffffffffff81111561357f5761357e614ab9565b5b61358b8a828b016134b0565b955050606061359c8a828b016134de565b94505060806135ad8a828b016134de565b93505060a06135be8a828b016134de565b92505060c06135cf8a828b016134de565b91505092959891949750929550565b6000602082840312156135f4576135f3614abe565b5b600061360284828501613486565b91505092915050565b60006020828403121561362157613620614abe565b5b600061362f8482850161349b565b91505092915050565b6000806040838503121561364f5761364e614abe565b5b600061365d8582860161349b565b925050602061366e858286016134de565b9150509250929050565b60006020828403121561368e5761368d614abe565b5b600061369c848285016134de565b91505092915050565b6000806000606084860312156136be576136bd614abe565b5b60006136cc868287016134de565b93505060206136dd8682870161345c565b92505060406136ee8682870161345c565b9150509250925092565b600080600080600060a0868803121561371457613713614abe565b5b6000613722888289016134de565b955050602086013567ffffffffffffffff81111561374357613742614ab9565b5b61374f888289016134b0565b945050604086013567ffffffffffffffff8111156137705761376f614ab9565b5b61377c888289016134b0565b935050606086013567ffffffffffffffff81111561379d5761379c614ab9565b5b6137a9888289016134b0565b92505060806137ba88828901613471565b9150509295509295909350565b6137d081614765565b82525050565b6137e76137e282614765565b614936565b82525050565b6137f681614783565b82525050565b6138058161478d565b82525050565b6000613816826143d4565b61382081856143ea565b935061383081856020860161482d565b61383981614ac3565b840191505092915050565b613855613850826147fa565b614936565b82525050565b6000613866826143df565b61387081856143fb565b935061388081856020860161482d565b61388981614ac3565b840191505092915050565b600061389f826143df565b6138a9818561440c565b93506138b981856020860161482d565b80840191505092915050565b600081546138d28161488a565b6138dc818661440c565b945060018216600081146138f757600181146139085761393b565b60ff1983168652818601935061393b565b613911856143bf565b60005b8381101561393357815481890152600182019150602081019050613914565b838801955050505b50505092915050565b6000613951600d8361440c565b915061395c82614aee565b600d82019050919050565b60006139746020836143fb565b915061397f82614b17565b602082019050919050565b6000613997601b836143fb565b91506139a282614b40565b602082019050919050565b60006139ba600b8361440c565b91506139c582614b69565b600b82019050919050565b60006139dd60118361440c565b91506139e882614b92565b601182019050919050565b6000613a00601c836143fb565b9150613a0b82614bbb565b602082019050919050565b6000613a2360078361440c565b9150613a2e82614be4565b600782019050919050565b6000613a466023836143fb565b9150613a5182614c0d565b604082019050919050565b6000613a69600e8361440c565b9150613a7482614c5c565b600e82019050919050565b6000613a8c60128361440c565b9150613a9782614c85565b601282019050919050565b6000613aaf602a836143fb565b9150613aba82614cae565b604082019050919050565b6000613ad260128361440c565b9150613add82614cfd565b601282019050919050565b6000613af56022836143fb565b9150613b0082614d26565b604082019050919050565b6000613b18600b8361440c565b9150613b2382614d75565b600b82019050919050565b6000613b3b600b8361440c565b9150613b4682614d9e565b600b82019050919050565b6000613b5e6017836143fb565b9150613b6982614dc7565b602082019050919050565b6000613b8160018361440c565b9150613b8c82614df0565b600182019050919050565b6000613ba4600b8361440c565b9150613baf82614e19565b600b82019050919050565b6000613bc760128361440c565b9150613bd282614e42565b601282019050919050565b6000613bea60118361440c565b9150613bf582614e6b565b601182019050919050565b6000613c0d6029836143fb565b9150613c1882614e94565b604082019050919050565b6000613c30600c8361440c565b9150613c3b82614ee3565b600c82019050919050565b6000613c536025836143fb565b9150613c5e82614f0c565b604082019050919050565b6000613c7660108361440c565b9150613c8182614f5b565b601082019050919050565b6000613c99603e836143fb565b9150613ca482614f84565b604082019050919050565b6000613cbc6028836143fb565b9150613cc782614fd3565b604082019050919050565b6000613cdf602d836143fb565b9150613cea82615022565b604082019050919050565b613cfe816147e3565b82525050565b613d15613d10826147e3565b61495a565b82525050565b6000613d2782876137d6565b601482019150613d378286613d04565b602082019150613d478285613d04565b602082019150613d578284613d04565b60208201915081905095945050505050565b6000613d758285613844565b601482019150613d858284613d04565b6020820191508190509392505050565b6000613da18284613894565b915081905092915050565b6000613db88286613894565b9150613dc48285613894565b9150613dd08284613894565b9150819050949350505050565b6000613de982846138c5565b915081905092915050565b6000613e0082866138c5565b9150613e0c8285613894565b9150613e1782613b97565b9150613e238284613894565b9150819050949350505050565b6000613e3b82613a16565b9150613e478288613894565b9150613e5282613ac5565b9150613e5e8287613894565b9150613e6982613944565b9150613e758286613894565b9150613e8082613a5c565b9150613e8c8285613894565b9150613e97826139d0565b9150613ea38284613894565b91508190509695505050505050565b6000613ebd82613c23565b9150613ec9828b613894565b9150613ed4826139ad565b9150613ee0828a613894565b9150613eeb82613bdd565b9150613ef78289613894565b9150613f0282613bba565b9150613f0e8288613894565b9150613f1982613c69565b9150613f258287613894565b9150613f3082613b2e565b9150613f3c8286613894565b9150613f4782613b0b565b9150613f538285613894565b9150613f5e82613a7f565b9150613f6a8284613894565b9150613f7582613b74565b91508190509998505050505050505050565b6000602082019050613f9c60008301846137c7565b92915050565b600061010082019050613fb8600083018b6137c7565b613fc5602083018a613cf5565b613fd260408301896137ed565b613fdf60608301886137c7565b613fec60808301876137fc565b613ff960a0830186613cf5565b61400660c0830185613cf5565b81810360e0830152614018818461380b565b90509998505050505050505050565b600060608201905061403c60008301866137c7565b6140496020830185613cf5565b818103604083015261405b818461380b565b9050949350505050565b600060208201905061407a60008301846137ed565b92915050565b600060408201905061409560008301856137ed565b6140a260208301846137ed565b9392505050565b600060208201905081810360008301526140c3818461385b565b905092915050565b60006101408201905081810360008301526140e6818d61385b565b90506140f5602083018c6137ed565b614102604083018b613cf5565b61410f606083018a6137c7565b61411c6080830189613cf5565b61412960a0830188613cf5565b61413660c0830187613cf5565b61414360e0830186613cf5565b614151610100830185613cf5565b61415f610120830184613cf5565b9b9a5050505050505050505050565b6000602082019050818103600083015261418781613967565b9050919050565b600060208201905081810360008301526141a78161398a565b9050919050565b600060208201905081810360008301526141c7816139f3565b9050919050565b600060208201905081810360008301526141e781613a39565b9050919050565b6000602082019050818103600083015261420781613aa2565b9050919050565b6000602082019050818103600083015261422781613ae8565b9050919050565b6000602082019050818103600083015261424781613b51565b9050919050565b6000602082019050818103600083015261426781613c00565b9050919050565b6000602082019050818103600083015261428781613c46565b9050919050565b600060208201905081810360008301526142a781613c8c565b9050919050565b600060208201905081810360008301526142c781613caf565b9050919050565b600060208201905081810360008301526142e781613cd2565b9050919050565b60006020820190506143036000830184613cf5565b92915050565b600060408201905061431e6000830185613cf5565b61432b6020830184613cf5565b9392505050565b60006060820190506143476000830186613cf5565b6143546020830185613cf5565b61436160408301846137c7565b949350505050565b6000614373614384565b905061437f82826148bc565b919050565b6000604051905090565b600067ffffffffffffffff8211156143a9576143a8614a80565b5b6143b282614ac3565b9050602081019050919050565b60008190508160005260206000209050919050565b600081519050919050565b600081519050919050565b600082825260208201905092915050565b600082825260208201905092915050565b600081905092915050565b6000614422826147e3565b915061442d836147e3565b9250827fffffffffffffffffffffffffffffffffffffffffffffffffffffffffffffffff0382111561446257614461614995565b5b828201905092915050565b6000614478826147e3565b9150614483836147e3565b925082614493576144926149c4565b5b828204905092915050565b6000808291508390505b60018511156144e8578086048111156144c4576144c3614995565b5b60018516156144d35780820291505b80810290506144e185614ae1565b94506144a8565b94509492505050565b60006144fc826147e3565b9150614507836147e3565b92506145347fffffffffffffffffffffffffffffffffffffffffffffffffffffffffffffffff848461453c565b905092915050565b60008261454c5760019050614608565b8161455a5760009050614608565b8160018114614570576002811461457a576145a9565b6001915050614608565b60ff84111561458c5761458b614995565b5b8360020a9150848211156145a3576145a2614995565b5b50614608565b5060208310610133831016604e8410600b84101617156145de5782820a9050838111156145d9576145d8614995565b5b614608565b6145eb848484600161449e565b9250905081840481111561460257614601614995565b5b81810290505b9392505050565b600061461a826147e3565b9150614625836147e3565b9250817fffffffffffffffffffffffffffffffffffffffffffffffffffffffffffffffff048311821515161561465e5761465d614995565b5b828202905092915050565b6000614674826147b9565b915061467f836147b9565b9250827f8000000000000000000000000000000000000000000000000000000000000000018212600084121516156146ba576146b9614995565b5b827f7fffffffffffffffffffffffffffffffffffffffffffffffffffffffffffffff0182136000841216156146f2576146f1614995565b5b828203905092915050565b6000614708826147e3565b9150614713836147e3565b92508282101561472657614725614995565b5b828203905092915050565b600061473c826147ed565b9150614747836147ed565b92508282101561475a57614759614995565b5b828203905092915050565b6000614770826147c3565b9050919050565b60008115159050919050565b6000819050919050565b60007fffffffff0000000000000000000000000000000000000000000000000000000082169050919050565b6000819050919050565b600073ffffffffffffffffffffffffffffffffffffffff82169050919050565b6000819050919050565b600060ff82169050919050565b60006148058261480c565b9050919050565b6000614817826147c3565b9050919050565b82818337600083830152505050565b60005b8381101561484b578082015181840152602081019050614830565b8381111561485a576000848401525b50505050565b600061486b826147e3565b9150600082141561487f5761487e614995565b5b600182039050919050565b600060028204905060018216806148a257607f821691505b602082108114156148b6576148b5614a22565b5b50919050565b6148c582614ac3565b810181811067ffffffffffffffff821117156148e4576148e3614a80565b5b80604052505050565b60006148f8826147e3565b91507fffffffffffffffffffffffffffffffffffffffffffffffffffffffffffffffff82141561492b5761492a614995565b5b600182019050919050565b600061494182614948565b9050919050565b600061495382614ad4565b9050919050565b6000819050919050565b600061496f826147e3565b915061497a836147e3565b92508261498a576149896149c4565b5b828206905092915050565b7f4e487b7100000000000000000000000000000000000000000000000000000000600052601160045260246000fd5b7f4e487b7100000000000000000000000000000000000000000000000000000000600052601260045260246000fd5b7f4e487b7100000000000000000000000000000000000000000000000000000000600052602160045260246000fd5b7f4e487b7100000000000000000000000000000000000000000000000000000000600052602260045260246000fd5b7f4e487b7100000000000000000000000000000000000000000000000000000000600052603260045260246000fd5b7f4e487b7100000000000000000000000000000000000000000000000000000000600052604160045260246000fd5b600080fd5b600080fd5b600080fd5b600080fd5b6000601f19601f8301169050919050565b60008160601b9050919050565b60008160011c9050919050565b7f3a200a506f6c69637949643a2000000000000000000000000000000000000000600082015250565b7f537472696e67733a20686578206c656e67746820696e73756666696369656e74600082015250565b7f7468652070726576696f7573206f776e65722069732077726f6e670000000000600082015250565b7f2c200a5061796f66663a20000000000000000000000000000000000000000000600082015250565b7f2c200a4275796572416464726573733a20000000000000000000000000000000600082015250565b7f77726f6e6720666c69676874206e756d6265722070726f766964656400000000600082015250565b7f0a506f6c69637900000000000000000000000000000000000000000000000000600082015250565b7f756e61626c6520746f207472616e73666572416e6443616c6c20746f206f726160008201527f636c650000000000000000000000000000000000000000000000000000000000602082015250565b7f2c200a50726f6475637449643a20000000000000000000000000000000000000600082015250565b7f2c200a44656c617920526573756c74733a200000000000000000000000000000600082015250565b7f6f6e6c792063616c6c65642066726f6d2074686520706f6c69637920746f6b6560008201527f6e20636f6e747261637400000000000000000000000000000000000000000000602082015250565b7f3a200a7b466c696768744e756d6265723a200000000000000000000000000000600082015250565b7f4552524f523a3a54494d455f544f5f4445504152545552455f544f4f5f534d4160008201527f4c4c000000000000000000000000000000000000000000000000000000000000602082015250565b7f2c200a4973557365643a20000000000000000000000000000000000000000000600082015250565b7f2c200a5374617475733a20000000000000000000000000000000000000000000600082015250565b7f6e6f20706f6c69637920666f7220746869732075736572000000000000000000600082015250565b7f7d00000000000000000000000000000000000000000000000000000000000000600082015250565b7f2f74696d657374616d703d000000000000000000000000000000000000000000600082015250565b7f2c200a446570617274757265446174653a200000000000000000000000000000600082015250565b7f2c200a5075726368617365446174653a20000000000000000000000000000000600082015250565b7f63616e206f6e6c7920636c61696d206120706f6c69637920616674657220697460008201527f73206c616e64696e670000000000000000000000000000000000000000000000602082015250565b7f2c200a5072656d69756d3a200000000000000000000000000000000000000000600082015250565b7f6f6e6c7920746865206f776e65722063616e2063616c6c20746869732066756e60008201527f6374696f6e000000000000000000000000000000000000000000000000000000602082015250565b7f2c200a4c616e64696e67446174653a2000000000000000000000000000000000600082015250565b7f54686520706f6c69637920686173206265656e2066696e616c20636865636b6560008201527f642c206f7220796f75206e65656420746f20666f726365207570646174650000602082015250565b7f536f75726365206d75737420626520746865206f7261636c65206f662074686560008201527f2072657175657374000000000000000000000000000000000000000000000000602082015250565b7f6e6f742073756666696369656e7420636170616369747920696e20746865206960008201527f6e737572616e636520706f6f6c00000000000000000000000000000000000000602082015250565b61507a81614765565b811461508557600080fd5b50565b61509181614777565b811461509c57600080fd5b50565b6150a881614783565b81146150b357600080fd5b50565b6150bf816147e3565b81146150ca57600080fd5b5056fea2646970667358221220968cc15cb50ef7190a95c02f2d3b8d3c4439638d3b6eb6d34531111d01e1dc8664736f6c63430008050033",
  "immutableReferences": {},
  "source": "// SPDX-License-Identifier: MIT\r\npragma solidity ^0.8.0;\r\n\r\nimport \"./libraries/PolicyTypes.sol\";\r\nimport \"./libraries/ToStrings.sol\";\r\nimport \"./interfaces/IInsurancePool.sol\";\r\nimport \"@chainlink/contracts/src/v0.8/ChainlinkClient.sol\";\r\nimport \"@openzeppelin/contracts/utils/Strings.sol\";\r\nimport \"./interfaces/IPolicyToken.sol\";\r\n\r\ncontract PolicyFlow is ChainlinkClient, PolicyTypes, ToStrings {\r\n    using Chainlink for Chainlink.Request;\r\n    using Strings for uint256;\r\n\r\n    uint256 public oracleResponse; // A test variable to store the oracle address\r\n    uint256 fee;\r\n    string private FLIGHT_STATUS_URL = \"http://39.101.132.228:8000/live/\";\r\n    address private oracleAddress;\r\n    bytes32 private jobId;\r\n\r\n    mapping(bytes32 => uint256) requestList; // requestId => total order\r\n    mapping(uint256 => uint256) resultList; // total order => delay result\r\n\r\n    address public owner;\r\n    IInsurancePool insurancePool;\r\n    IPolicyToken policyToken;\r\n\r\n    // Minimum time before departure for applying\r\n    uint256 public constant MIN_TIME_BEFORE_DEPARTURE = 24 hours;\r\n    uint256 public DELAY_THRESHOLD = 240;\r\n    uint256 public Total_Policies;\r\n\r\n    // Mappings\r\n    mapping(bytes32 => PolicyInfo) policyList; // policyId => policyInfo\r\n    mapping(uint256 => bytes32) policyOrderList; // total order => policyId\r\n\r\n    mapping(address => uint256[]) userPolicy; // uint256[]: those totalOrders of a user\r\n    mapping(address => uint256) userPolicyCount; // userAddress => user policy amount\r\n\r\n    // Constructor Function\r\n    constructor(\r\n        IInsurancePool _insurancePool,\r\n        IPolicyToken _policyToken,\r\n        address _oracleAddress\r\n    ) {\r\n        // Set owner address\r\n        owner = msg.sender;\r\n\r\n        // Set two interfaces' addresses\r\n        insurancePool = _insurancePool;\r\n        policyToken = _policyToken;\r\n\r\n        // Set oracle address\r\n        oracleAddress = _oracleAddress;\r\n        jobId = \"cef74a7ff7ea4194ab97f00c89abef6b\";\r\n\r\n        setPublicChainlinkToken();\r\n        fee = 1 * 10**18; // 1 LINK\r\n\r\n        // Initialize the count (actually do not need to initialize)\r\n        Total_Policies = 0;\r\n    }\r\n\r\n    // ************************************ Modifiers ************************************ //\r\n\r\n    modifier onlyOracle() {\r\n        require(\r\n            msg.sender == oracleAddress,\r\n            \"only the oracle can call this function\"\r\n        );\r\n        _;\r\n    }\r\n    modifier onlyOwner() {\r\n        require(msg.sender == owner, \"only the owner can call this function\");\r\n        _;\r\n    }\r\n\r\n    // ************************************ View Functions ************************************ //\r\n\r\n    /**\r\n     * @notice Returns the address of the LINK token\r\n     * @dev This is the public implementation for chainlinkTokenAddress, which is\r\n     * an internal method of the ChainlinkClient contract\r\n     */\r\n    function getChainlinkToken() public view returns (address) {\r\n        return chainlinkTokenAddress();\r\n    }\r\n\r\n    /**\r\n     * @notice show a user's policies (all)\r\n     * @param _userAddress: user's address (buyer)\r\n     * @return user's policy details\r\n     */\r\n    function viewPolicy(address _userAddress)\r\n        public\r\n        view\r\n        returns (string memory)\r\n    {\r\n        require(userPolicyCount[_userAddress] > 0, \"no policy for this user\");\r\n\r\n        uint256 policyCount = userPolicyCount[_userAddress];\r\n        string memory result = \" \";\r\n        for (uint256 i = 0; i < policyCount; i++) {\r\n            uint256 policyOrder = userPolicy[_userAddress][i];\r\n\r\n            bytes32 policyid = policyOrderList[policyOrder];\r\n\r\n            string memory isUsed = policyList[policyid].isUsed\r\n                ? \"used\"\r\n                : \"not used\";\r\n\r\n            string memory result1 = encodePack1(\r\n                i,\r\n                policyList[policyid].flightNumber,\r\n                policyid,\r\n                policyList[policyid].productId,\r\n                policyList[policyid].buyerAddress\r\n            );\r\n            string memory result2 = encodePack2(\r\n                policyList[policyid].premium,\r\n                policyList[policyid].payoff,\r\n                policyList[policyid].purchaseDate,\r\n                policyList[policyid].departureDate,\r\n                policyList[policyid].landingDate,\r\n                uint256(policyList[policyid].status),\r\n                isUsed,\r\n                policyList[policyid].delayResult\r\n            );\r\n\r\n            result = string(abi.encodePacked(result, result1, result2));\r\n\r\n            // result = string(\r\n            //     abi.encodePacked(\r\n            //         result,\r\n            //         string(\r\n            //             abi.encodePacked(\r\n            //                 \"\\nPolicy\",\r\n            //                 i.toString(),\r\n            //                 \": \\n{PolicyId: \",\r\n            //                 bytes32ToString(policyid),\r\n            //                 \", \\nProductId: \",\r\n            //                 policyList[policyid].productId.toString(),\r\n            //                 \", \\nBuyerAddress: \",\r\n            //                 addressToString(policyList[policyid].buyerAddress),\r\n            //                 \", \\nPremium: \",\r\n            //                 (policyList[policyid].premium / 10**18).toString(),\r\n            //                 \", \\nPayoff: \",\r\n            //                 (policyList[policyid].payoff / 10**18).toString(),\r\n            //                 \", \\nPurchaseDate: \",\r\n            //                 (policyList[policyid].purchaseDate).toString(),\r\n            //                 \", \\nDepartureDate: \",\r\n            //                 (policyList[policyid].departureDate).toString(),\r\n            //                 \", \\nLandingDate: \",\r\n            //                 (policyList[policyid].landingDate).toString(),\r\n            //                 \", \\nStatus: \",\r\n            //                 uint256(policyList[policyid].status).toString(),\r\n            //                 \", \\nIsUsed: \",\r\n            //                 isUsed,\r\n            //                 \", \\nDelay Results: \",\r\n            //                 policyList[policyid].delayResult.toString(),\r\n            //                 \"}\"\r\n            //             )\r\n            //         )\r\n            //     )\r\n            // );\r\n        }\r\n        return result;\r\n    }\r\n\r\n    /**\r\n     * @notice get the policyId (bytes32) from its count/order\r\n     * @param _count: total count\r\n     * @return policyId (bytes32)\r\n     */\r\n    function getPolicyIdByCount(uint256 _count) public view returns (bytes32) {\r\n        return policyOrderList[_count];\r\n    }\r\n\r\n    /**\r\n     * @notice get the policyInfo from its count/order\r\n     * @param _count: total count\r\n     */\r\n    function getPolicyInfoByCount(uint256 _count)\r\n        public\r\n        view\r\n        returns (\r\n            string memory _flightNumber,\r\n            bytes32 _policyId,\r\n            uint256 _productId,\r\n            address _owner,\r\n            uint256 _premium,\r\n            uint256 _payoff,\r\n            uint256 _purchaseDate,\r\n            uint256 _departureDate,\r\n            uint256 _landingDate,\r\n            uint256 _policyStatus\r\n        )\r\n    {\r\n        bytes32 policyId = policyOrderList[_count];\r\n        return (\r\n            policyList[policyId].flightNumber,\r\n            policyId,\r\n            policyList[policyId].productId,\r\n            policyList[policyId].buyerAddress,\r\n            policyList[policyId].premium,\r\n            policyList[policyId].payoff,\r\n            policyList[policyId].purchaseDate,\r\n            policyList[policyId].departureDate,\r\n            policyList[policyId].landingDate,\r\n            uint256(policyList[policyId].status)\r\n        );\r\n    }\r\n\r\n    /**\r\n     * @notice get a user's policy amount\r\n     * @param _userAddress: user's address\r\n     */\r\n    function getUserPolicyCount(address _userAddress)\r\n        public\r\n        view\r\n        returns (uint256)\r\n    {\r\n        return userPolicyCount[_userAddress];\r\n    }\r\n\r\n    /**\r\n     * @notice get the policy buyer by policyId\r\n     */\r\n    function findPolicyBuyerById(bytes32 _policyId)\r\n        public\r\n        view\r\n        returns (address)\r\n    {\r\n        return policyList[_policyId].buyerAddress;\r\n    }\r\n\r\n    // ************************************ Helper Functions ************************************ //\r\n\r\n    /**\r\n     * @notice change the job id\r\n     * @param _jobId: new job Id\r\n     */\r\n    function changeJobId(bytes32 _jobId) public onlyOwner {\r\n        jobId = _jobId;\r\n    }\r\n\r\n    /**\r\n     * @notice change the oracle fee\r\n     * @param _fee: new fee\r\n     */\r\n    function changeFee(uint256 _fee) public onlyOwner {\r\n        fee = _fee;\r\n    }\r\n\r\n    /**\r\n     * @notice change the oracle address\r\n     * @param _oracleAddress: new oracle address\r\n     */\r\n    function changeOrcaleAddress(address _oracleAddress) public onlyOwner {\r\n        oracleAddress = _oracleAddress;\r\n    }\r\n\r\n    /**\r\n     * @notice set the new delay threshold\r\n     */\r\n    function setDelayThreshold(uint256 _threshold) public onlyOwner {\r\n        DELAY_THRESHOLD = _threshold;\r\n    }\r\n\r\n    // ************************************ Main Functions ************************************ //\r\n\r\n    /**\r\n     * @notice start a new policy application\r\n     * @param _userAddress: user's address (buyer)\r\n     * @param _productId: ID of the purchased product (0: flightdelay; 1,2,3...: others) (different products)\r\n     * @param _premium: premium of this policy (decimal 18)\r\n     * @param _payoff: payoff of this policy (decimal 18)\r\n     * @param _departureDate: expiry date of this policy (unix timestamp)\r\n     */\r\n    function newApplication(\r\n        address _userAddress,\r\n        uint256 _productId,\r\n        string memory _flightNumber,\r\n        uint256 _premium,\r\n        uint256 _payoff,\r\n        uint256 _departureDate,\r\n        uint256 _landingDate\r\n    ) public returns (bytes32 _policyId) {\r\n        // Check the buying time not too close to the departure time\r\n        require(\r\n            _departureDate >= block.timestamp + MIN_TIME_BEFORE_DEPARTURE,\r\n            \"ERROR::TIME_TO_DEPARTURE_TOO_SMALL\"\r\n        );\r\n\r\n        // Generate the unique policyId\r\n        bytes32 policyId = keccak256(\r\n            abi.encodePacked(\r\n                _userAddress,\r\n                _productId,\r\n                _departureDate,\r\n                Total_Policies\r\n            )\r\n        );\r\n\r\n        // Check the policy with the insurance pool status\r\n        // May be accepted or rejected\r\n        policyCheck(_payoff, _userAddress, policyId);\r\n\r\n        uint256 TEMP_purchaseDate = block.timestamp;\r\n\r\n        // Generate the policy\r\n        policyList[policyId] = PolicyInfo(\r\n            _productId,\r\n            _userAddress,\r\n            Total_Policies,\r\n            _flightNumber,\r\n            policyId,\r\n            _premium,\r\n            _payoff,\r\n            TEMP_purchaseDate,\r\n            _departureDate,\r\n            _landingDate,\r\n            PolicyStatus.INI,\r\n            false,\r\n            404\r\n        );\r\n\r\n        // Store the policy's total order with userAddress\r\n        userPolicy[_userAddress].push(Total_Policies);\r\n        // Update the user's policy amount\r\n        userPolicyCount[_userAddress] += 1;\r\n        // Update the policyOrderList\r\n        policyOrderList[Total_Policies] = policyId;\r\n        // Update total policies\r\n        Total_Policies += 1;\r\n\r\n        emit newPolicyApplication(policyId, _userAddress);\r\n\r\n        return policyId;\r\n    }\r\n\r\n    /** @notice calculate the flight status\r\n     *  @param _policyOrder The total order of the policy\r\n     *  @param _flightNumber The flight number\r\n     *  @param _date The flight date\r\n     *  @param _path Which data in json needs to get\r\n     *  @param _forceUpdate Owner can force to update\r\n     */\r\n    function newClaimRequest(\r\n        uint256 _policyOrder,\r\n        string memory _flightNumber,\r\n        string memory _date,\r\n        string memory _path,\r\n        bool _forceUpdate\r\n    ) public onlyOwner {\r\n        bytes32 _policyId = policyOrderList[_policyOrder];\r\n        require(\r\n            block.timestamp >= policyList[_policyId].landingDate,\r\n            \"can only claim a policy after its landing\"\r\n        );\r\n        require(\r\n            (!policyList[_policyId].isUsed) ||\r\n                (_forceUpdate && (msg.sender == owner)),\r\n            \"The policy has been final checked, or you need to force update\"\r\n        );\r\n        require(\r\n            keccak256(abi.encodePacked(_flightNumber)) ==\r\n                keccak256(abi.encodePacked(policyList[_policyId].flightNumber)),\r\n            \"wrong flight number provided\"\r\n        );\r\n\r\n        string memory _url = string(\r\n            abi.encodePacked(\r\n                FLIGHT_STATUS_URL,\r\n                _flightNumber,\r\n                \"/timestamp=\",\r\n                _date\r\n            )\r\n        );\r\n        bytes32 requestId = createRequestTo(\r\n            oracleAddress,\r\n            jobId,\r\n            fee,\r\n            _url,\r\n            _path,\r\n            1\r\n        );\r\n        requestList[requestId] = _policyOrder;\r\n        policyList[_policyId].isUsed = true;\r\n    }\r\n\r\n    /**\r\n     * @notice check the policy and then determine whether we can afford it\r\n     * @param _payoff: the payoff of the policy sold\r\n     * @param _userAddress: user's address\r\n     * @param _policyId: the unique policy ID\r\n     */\r\n    function policyCheck(\r\n        uint256 _payoff,\r\n        address _userAddress,\r\n        bytes32 _policyId\r\n    ) internal {\r\n        // Whether there are enough capacity in the pool\r\n        bool _isAccepted = insurancePool.checkCapacity(_payoff);\r\n\r\n        if (_isAccepted) {\r\n            policyList[_policyId].status = PolicyStatus.SOLD;\r\n            emit PolicySold(_policyId, _userAddress);\r\n\r\n            policyToken.mintPolicyToken(_userAddress);\r\n        } else {\r\n            policyList[_policyId].status = PolicyStatus.DECLINED;\r\n            emit PolicyDeclined(_policyId, _userAddress);\r\n            revert(\"not sufficient capacity in the insurance pool\");\r\n        }\r\n    }\r\n\r\n    /**\r\n     * @notice Creates a request to the specified Oracle contract address\r\n     * @dev This function ignores the stored Oracle contract address and\r\n     * will instead send the request to the address specified\r\n     * @param _oracle The Oracle contract address to send the request to\r\n     * @param _jobId The bytes32 JobID to be executed\r\n     * @param _url The URL to fetch data from\r\n     * @param _path The dot-delimited path to parse of the response\r\n     * @param _times The number to multiply the result by\r\n     */\r\n    function createRequestTo(\r\n        address _oracle,\r\n        bytes32 _jobId,\r\n        uint256 _payment,\r\n        string memory _url,\r\n        string memory _path,\r\n        int256 _times\r\n    ) private returns (bytes32) {\r\n        Chainlink.Request memory req = buildChainlinkRequest(\r\n            _jobId,\r\n            address(this),\r\n            this.fulfill.selector\r\n        );\r\n        req.add(\"url\", _url);\r\n        req.add(\"path\", _path);\r\n        req.addInt(\"times\", _times);\r\n        return sendChainlinkRequestTo(_oracle, req, _payment);\r\n    }\r\n\r\n    /**\r\n     * @notice The fulfill method from requests created by this contract\r\n     * @dev The recordChainlinkFulfillment protects this function from being called\r\n     * by anyone other than the oracle address that the request was sent to\r\n     * @param _requestId The ID that was generated for the request\r\n     * @param _data The answer provided by the oracle\r\n     */\r\n    function fulfill(bytes32 _requestId, uint256 _data)\r\n        public\r\n        recordChainlinkFulfillment(_requestId)\r\n    {\r\n        oracleResponse = _data;\r\n\r\n        uint256 order = requestList[_requestId];\r\n        bytes32 policyId = policyOrderList[order];\r\n        policyList[policyId].delayResult = _data;\r\n\r\n        if (_data == 0) {\r\n            // 0: on time\r\n            policyExpired(\r\n                policyList[policyId].premium,\r\n                policyList[policyId].payoff,\r\n                policyList[policyId].buyerAddress,\r\n                policyId\r\n            );\r\n        } else if (_data <= DELAY_THRESHOLD) {\r\n            uint256 payoff = calcPayoff(_data);\r\n            if (payoff < policyList[policyId].payoff) {\r\n                policyClaimed(\r\n                    policyList[policyId].premium,\r\n                    payoff,\r\n                    policyList[policyId].buyerAddress,\r\n                    policyId\r\n                );\r\n            } else {\r\n                policyClaimed(\r\n                    policyList[policyId].premium,\r\n                    policyList[policyId].payoff,\r\n                    policyList[policyId].buyerAddress,\r\n                    policyId\r\n                );\r\n            }\r\n        } else if (_data == 400) {\r\n            // 400: cancelled\r\n            policyClaimed(\r\n                policyList[policyId].premium,\r\n                policyList[policyId].payoff,\r\n                policyList[policyId].buyerAddress,\r\n                policyId\r\n            );\r\n        } else {\r\n            policyExpired(\r\n                policyList[policyId].premium,\r\n                policyList[policyId].payoff,\r\n                policyList[policyId].buyerAddress,\r\n                policyId\r\n            );\r\n        }\r\n\r\n        emit FulfilledOracleRequest(policyId, _requestId);\r\n    }\r\n\r\n    /**\r\n     * @notice update the policy when it is expired\r\n     * @param _premium: the premium of the policy sold\r\n     * @param _payoff: the payoff of the policy sold\r\n     * @param _userAddress: user's address\r\n     * @param _policyId: the unique policy ID\r\n     */\r\n    function policyExpired(\r\n        uint256 _premium,\r\n        uint256 _payoff,\r\n        address _userAddress,\r\n        bytes32 _policyId\r\n    ) internal {\r\n        insurancePool.updateWhenExpire(_premium, _payoff);\r\n        policyList[_policyId].status = PolicyStatus.EXPIRED;\r\n        emit PolicyExpired(_policyId, _userAddress);\r\n    }\r\n\r\n    /**\r\n     * @notice update the policy when it is claimed\r\n     * @param _premium: the premium of the policy sold\r\n     * @param _payoff: the payoff of the policy sold\r\n     * @param _userAddress: user's address\r\n     * @param _policyId: the unique policy ID\r\n     */\r\n    function policyClaimed(\r\n        uint256 _premium,\r\n        uint256 _payoff,\r\n        address _userAddress,\r\n        bytes32 _policyId\r\n    ) internal {\r\n        insurancePool.payClaim(_premium, _payoff, _userAddress);\r\n        policyList[_policyId].status = PolicyStatus.CLAIMED;\r\n        emit PolicyClaimed(_policyId, _userAddress);\r\n    }\r\n\r\n    /**\r\n     * @notice The payoff formula\r\n     * @param _delay Delay in minutes\r\n     * @return the final payoff volume\r\n     */\r\n    function calcPayoff(uint256 _delay) internal pure returns (uint256) {\r\n        uint256 payoff = 0;\r\n\r\n        // payoff model 1 - linear\r\n        if (_delay <= 60) {\r\n            payoff = _delay;\r\n        } else if (_delay > 60 && _delay <= 120) {\r\n            payoff = 60 + (_delay - 60) * 2;\r\n        } else if (_delay > 120 && _delay <= 240) {\r\n            payoff = 180 + (_delay - 120) * 3;\r\n        }\r\n\r\n        payoff = payoff * 1e18;\r\n        return payoff;\r\n    }\r\n\r\n    function policyOwnerTransfer(\r\n        uint256 _tokenId,\r\n        address _oldOwner,\r\n        address _newOwner\r\n    ) external {\r\n        require(\r\n            msg.sender == address(policyToken),\r\n            \"only called from the policy token contract\"\r\n        );\r\n\r\n        bytes32 policyId = policyOrderList[_tokenId];\r\n        require(\r\n            _oldOwner == policyList[policyId].buyerAddress,\r\n            \"the previous owner is wrong\"\r\n        );\r\n\r\n        policyList[policyId].buyerAddress = _newOwner;\r\n        emit PolicyOwnerTransfer(_tokenId, _newOwner);\r\n    }\r\n\r\n    function encodePack1(\r\n        uint256 _order,\r\n        string memory _flightNumber,\r\n        bytes32 _policyId,\r\n        uint256 _productId,\r\n        address _userAddress\r\n    ) internal pure returns (string memory _result1) {\r\n        _result1 = string(\r\n            abi.encodePacked(\r\n                \"\\nPolicy\",\r\n                _order.toString(),\r\n                \": \\n{FlightNumber: \",\r\n                _flightNumber,\r\n                \": \\nPolicyId: \",\r\n                bytes32ToString(_policyId),\r\n                \", \\nProductId: \",\r\n                _productId.toString(),\r\n                \", \\nBuyerAddress: \",\r\n                addressToString(_userAddress)\r\n            )\r\n        );\r\n    }\r\n\r\n    function encodePack2(\r\n        uint256 _premium,\r\n        uint256 _payoff,\r\n        uint256 _purchaseDate,\r\n        uint256 _departureDate,\r\n        uint256 _landingDate,\r\n        uint256 _status,\r\n        string memory _isUsed,\r\n        uint256 _delayResult\r\n    ) internal pure returns (string memory _result2) {\r\n        _result2 = string(\r\n            abi.encodePacked(\r\n                \", \\nPremium: \",\r\n                (_premium / 10**18).toString(),\r\n                \", \\nPayoff: \",\r\n                (_payoff / 10**18).toString(),\r\n                \", \\nPurchaseDate: \",\r\n                (_purchaseDate).toString(),\r\n                \", \\nDepartureDate: \",\r\n                (_departureDate).toString(),\r\n                \", \\nLandingDate: \",\r\n                (_landingDate).toString(),\r\n                \", \\nStatus: \",\r\n                uint256(_status).toString(),\r\n                \", \\nIsUsed: \",\r\n                _isUsed,\r\n                \", \\nDelay Results: \",\r\n                _delayResult.toString(),\r\n                \"}\"\r\n            )\r\n        );\r\n    }\r\n}\r\n",
  "sourcePath": "D:\\src\\Degis-Contracts-1\\contracts\\PolicyFlow.sol",
  "compiler": {
    "name": "solc",
    "version": "0.8.5+commit.a4f2e591.Emscripten.clang"
  },
  "schemaVersion": "3.4.3",
  "updatedAt": "2021-10-13T08:16:27.945Z",
  "networkType": "ethereum",
  "devdoc": {
    "kind": "dev",
    "methods": {
      "addressToString(address)": {
        "params": {
          "_addr": ": input address"
        },
        "returns": {
          "_0": "string form of _addr"
        }
      },
      "bytes32ToHumanString(bytes32)": {
        "params": {
          "_bytes": ": input bytes32"
        },
        "returns": {
          "_0": "string form of _bytes"
        }
      },
      "bytes32ToString(bytes32)": {
        "params": {
          "_bytes": ": input bytes32"
        },
        "returns": {
          "_0": "string form of _bytes"
        }
      },
      "bytesToUint(bytes32)": {
        "params": {
          "s": "input bytes"
        },
        "returns": {
          "_0": "the number"
        }
      },
      "changeFee(uint256)": {
        "params": {
          "_fee": ": new fee"
        }
      },
      "changeJobId(bytes32)": {
        "params": {
          "_jobId": ": new job Id"
        }
      },
      "changeOrcaleAddress(address)": {
        "params": {
          "_oracleAddress": ": new oracle address"
        }
      },
      "fulfill(bytes32,uint256)": {
        "details": "The recordChainlinkFulfillment protects this function from being called by anyone other than the oracle address that the request was sent to",
        "params": {
          "_data": "The answer provided by the oracle",
          "_requestId": "The ID that was generated for the request"
        }
      },
      "getChainlinkToken()": {
        "details": "This is the public implementation for chainlinkTokenAddress, which is an internal method of the ChainlinkClient contract"
      },
      "getPolicyIdByCount(uint256)": {
        "params": {
          "_count": ": total count"
        },
        "returns": {
          "_0": "policyId (bytes32)"
        }
      },
      "getPolicyInfoByCount(uint256)": {
        "params": {
          "_count": ": total count"
        }
      },
      "getUserPolicyCount(address)": {
        "params": {
          "_userAddress": ": user's address"
        }
      },
      "newApplication(address,uint256,string,uint256,uint256,uint256,uint256)": {
        "params": {
          "_departureDate": ": expiry date of this policy (unix timestamp)",
          "_payoff": ": payoff of this policy (decimal 18)",
          "_premium": ": premium of this policy (decimal 18)",
          "_productId": ": ID of the purchased product (0: flightdelay; 1,2,3...: others) (different products)",
          "_userAddress": ": user's address (buyer)"
        }
      },
      "newClaimRequest(uint256,string,string,string,bool)": {
        "params": {
          "_date": "The flight date",
          "_flightNumber": "The flight number",
          "_forceUpdate": "Owner can force to update",
          "_path": "Which data in json needs to get",
          "_policyOrder": "The total order of the policy"
        }
      },
      "viewPolicy(address)": {
        "params": {
          "_userAddress": ": user's address (buyer)"
        },
        "returns": {
          "_0": "user's policy details"
        }
      }
    },
    "version": 1
  },
  "userdoc": {
    "kind": "user",
    "methods": {
      "addressToString(address)": {
        "notice": "transfer an address to a string"
      },
      "bytes32ToHumanString(bytes32)": {
        "notice": "transfer bytes32 to string (human-readable form)"
      },
      "bytes32ToString(bytes32)": {
        "notice": "transfer bytes32 to string (not change the content)"
      },
      "bytesToUint(bytes32)": {
        "notice": "Transfer a bytes(ascii) to uint"
      },
      "changeFee(uint256)": {
        "notice": "change the oracle fee"
      },
      "changeJobId(bytes32)": {
        "notice": "change the job id"
      },
      "changeOrcaleAddress(address)": {
        "notice": "change the oracle address"
      },
      "findPolicyBuyerById(bytes32)": {
        "notice": "get the policy buyer by policyId"
      },
      "fulfill(bytes32,uint256)": {
        "notice": "The fulfill method from requests created by this contract"
      },
      "getChainlinkToken()": {
        "notice": "Returns the address of the LINK token"
      },
      "getPolicyIdByCount(uint256)": {
        "notice": "get the policyId (bytes32) from its count/order"
      },
      "getPolicyInfoByCount(uint256)": {
        "notice": "get the policyInfo from its count/order"
      },
      "getUserPolicyCount(address)": {
        "notice": "get a user's policy amount"
      },
      "newApplication(address,uint256,string,uint256,uint256,uint256,uint256)": {
        "notice": "start a new policy application"
      },
      "newClaimRequest(uint256,string,string,string,bool)": {
        "notice": "calculate the flight status"
      },
      "setDelayThreshold(uint256)": {
        "notice": "set the new delay threshold"
      },
      "viewPolicy(address)": {
        "notice": "show a user's policies (all)"
      }
    },
    "version": 1
  }
}