{
  "contractName": "PolicyFlow",
  "abi": [
    {
      "inputs": [
        {
          "internalType": "contract IInsurancePool",
          "name": "_insurancePool",
          "type": "address"
        },
        {
          "internalType": "contract IPolicyToken",
          "name": "_policyToken",
          "type": "address"
        },
        {
          "internalType": "address",
          "name": "_oracleAddress",
          "type": "address"
        }
      ],
      "stateMutability": "nonpayable",
      "type": "constructor"
    },
    {
      "anonymous": false,
      "inputs": [
        {
          "indexed": true,
          "internalType": "bytes32",
          "name": "id",
          "type": "bytes32"
        }
      ],
      "name": "ChainlinkCancelled",
      "type": "event"
    },
    {
      "anonymous": false,
      "inputs": [
        {
          "indexed": true,
          "internalType": "bytes32",
          "name": "id",
          "type": "bytes32"
        }
      ],
      "name": "ChainlinkFulfilled",
      "type": "event"
    },
    {
      "anonymous": false,
      "inputs": [
        {
          "indexed": true,
          "internalType": "bytes32",
          "name": "id",
          "type": "bytes32"
        }
      ],
      "name": "ChainlinkRequested",
      "type": "event"
    },
    {
      "anonymous": false,
      "inputs": [
        {
          "indexed": false,
          "internalType": "bytes32",
          "name": "_policyId",
          "type": "bytes32"
        },
        {
          "indexed": false,
          "internalType": "bytes32",
          "name": "_requestId",
          "type": "bytes32"
        }
      ],
      "name": "FulfilledOracleRequest",
      "type": "event"
    },
    {
      "anonymous": false,
      "inputs": [
        {
          "indexed": false,
          "internalType": "bytes32",
          "name": "_policyID",
          "type": "bytes32"
        },
        {
          "indexed": true,
          "internalType": "address",
          "name": "_userAddress",
          "type": "address"
        }
      ],
      "name": "PolicyClaimed",
      "type": "event"
    },
    {
      "anonymous": false,
      "inputs": [
        {
          "indexed": false,
          "internalType": "bytes32",
          "name": "_policyID",
          "type": "bytes32"
        },
        {
          "indexed": true,
          "internalType": "address",
          "name": "_userAddress",
          "type": "address"
        }
      ],
      "name": "PolicyDeclined",
      "type": "event"
    },
    {
      "anonymous": false,
      "inputs": [
        {
          "indexed": false,
          "internalType": "bytes32",
          "name": "_policyID",
          "type": "bytes32"
        },
        {
          "indexed": true,
          "internalType": "address",
          "name": "_userAddress",
          "type": "address"
        }
      ],
      "name": "PolicyExpired",
      "type": "event"
    },
    {
      "anonymous": false,
      "inputs": [
        {
          "indexed": true,
          "internalType": "uint256",
          "name": "_tokenId",
          "type": "uint256"
        },
        {
          "indexed": false,
          "internalType": "address",
          "name": "_newOwner",
          "type": "address"
        }
      ],
      "name": "PolicyOwnerTransfer",
      "type": "event"
    },
    {
      "anonymous": false,
      "inputs": [
        {
          "indexed": false,
          "internalType": "bytes32",
          "name": "_policyID",
          "type": "bytes32"
        },
        {
          "indexed": true,
          "internalType": "address",
          "name": "_userAddress",
          "type": "address"
        }
      ],
      "name": "PolicySold",
      "type": "event"
    },
    {
      "anonymous": false,
      "inputs": [
        {
          "indexed": false,
          "internalType": "bytes32",
          "name": "_policyID",
          "type": "bytes32"
        },
        {
          "indexed": true,
          "internalType": "address",
          "name": "_userAddress",
          "type": "address"
        }
      ],
      "name": "newPolicyApplication",
      "type": "event"
    },
    {
      "inputs": [],
      "name": "DELAY_THRESHOLD",
      "outputs": [
        {
          "internalType": "uint256",
          "name": "",
          "type": "uint256"
        }
      ],
      "stateMutability": "view",
      "type": "function"
    },
    {
      "inputs": [],
      "name": "MIN_TIME_BEFORE_DEPARTURE",
      "outputs": [
        {
          "internalType": "uint256",
          "name": "",
          "type": "uint256"
        }
      ],
      "stateMutability": "view",
      "type": "function"
    },
    {
      "inputs": [],
      "name": "Total_Policies",
      "outputs": [
        {
          "internalType": "uint256",
          "name": "",
          "type": "uint256"
        }
      ],
      "stateMutability": "view",
      "type": "function"
    },
    {
      "inputs": [
        {
          "internalType": "address",
          "name": "_addr",
          "type": "address"
        }
      ],
      "name": "addressToString",
      "outputs": [
        {
          "internalType": "string",
          "name": "",
          "type": "string"
        }
      ],
      "stateMutability": "pure",
      "type": "function"
    },
    {
      "inputs": [
        {
          "internalType": "bytes32",
          "name": "_bytes",
          "type": "bytes32"
        }
      ],
      "name": "bytes32ToHumanString",
      "outputs": [
        {
          "internalType": "string",
          "name": "",
          "type": "string"
        }
      ],
      "stateMutability": "pure",
      "type": "function"
    },
    {
      "inputs": [
        {
          "internalType": "bytes32",
          "name": "_bytes",
          "type": "bytes32"
        }
      ],
      "name": "bytes32ToString",
      "outputs": [
        {
          "internalType": "string",
          "name": "",
          "type": "string"
        }
      ],
      "stateMutability": "pure",
      "type": "function"
    },
    {
      "inputs": [
        {
          "internalType": "bytes32",
          "name": "s",
          "type": "bytes32"
        }
      ],
      "name": "bytesToUint",
      "outputs": [
        {
          "internalType": "uint256",
          "name": "",
          "type": "uint256"
        }
      ],
      "stateMutability": "pure",
      "type": "function"
    },
    {
      "inputs": [],
      "name": "oracleResponse",
      "outputs": [
        {
          "internalType": "uint256",
          "name": "",
          "type": "uint256"
        }
      ],
      "stateMutability": "view",
      "type": "function"
    },
    {
      "inputs": [],
      "name": "owner",
      "outputs": [
        {
          "internalType": "address",
          "name": "",
          "type": "address"
        }
      ],
      "stateMutability": "view",
      "type": "function"
    },
    {
      "inputs": [],
      "name": "getChainlinkToken",
      "outputs": [
        {
          "internalType": "address",
          "name": "",
          "type": "address"
        }
      ],
      "stateMutability": "view",
      "type": "function"
    },
    {
      "inputs": [
        {
          "internalType": "address",
          "name": "_userAddress",
          "type": "address"
        }
      ],
      "name": "viewPolicy",
      "outputs": [
        {
          "internalType": "string",
          "name": "",
          "type": "string"
        }
      ],
      "stateMutability": "view",
      "type": "function"
    },
    {
      "inputs": [
        {
          "internalType": "uint256",
          "name": "_count",
          "type": "uint256"
        }
      ],
      "name": "getPolicyIdByCount",
      "outputs": [
        {
          "internalType": "bytes32",
          "name": "",
          "type": "bytes32"
        }
      ],
      "stateMutability": "view",
      "type": "function"
    },
    {
      "inputs": [
        {
          "internalType": "uint256",
          "name": "_count",
          "type": "uint256"
        }
      ],
      "name": "getPolicyInfoByCount",
      "outputs": [
        {
          "internalType": "string",
          "name": "_flightNumber",
          "type": "string"
        },
        {
          "internalType": "bytes32",
          "name": "_policyId",
          "type": "bytes32"
        },
        {
          "internalType": "uint256",
          "name": "_productId",
          "type": "uint256"
        },
        {
          "internalType": "address",
          "name": "_owner",
          "type": "address"
        },
        {
          "internalType": "uint256",
          "name": "_premium",
          "type": "uint256"
        },
        {
          "internalType": "uint256",
          "name": "_payoff",
          "type": "uint256"
        },
        {
          "internalType": "uint256",
          "name": "_purchaseDate",
          "type": "uint256"
        },
        {
          "internalType": "uint256",
          "name": "_departureDate",
          "type": "uint256"
        },
        {
          "internalType": "uint256",
          "name": "_landingDate",
          "type": "uint256"
        },
        {
          "internalType": "uint256",
          "name": "_policyStatus",
          "type": "uint256"
        }
      ],
      "stateMutability": "view",
      "type": "function"
    },
    {
      "inputs": [
        {
          "internalType": "address",
          "name": "_userAddress",
          "type": "address"
        }
      ],
      "name": "getUserPolicyCount",
      "outputs": [
        {
          "internalType": "uint256",
          "name": "",
          "type": "uint256"
        }
      ],
      "stateMutability": "view",
      "type": "function"
    },
    {
      "inputs": [
        {
          "internalType": "bytes32",
          "name": "_policyId",
          "type": "bytes32"
        }
      ],
      "name": "findPolicyBuyerById",
      "outputs": [
        {
          "internalType": "address",
          "name": "",
          "type": "address"
        }
      ],
      "stateMutability": "view",
      "type": "function"
    },
    {
      "inputs": [
        {
          "internalType": "bytes32",
          "name": "_jobId",
          "type": "bytes32"
        }
      ],
      "name": "changeJobId",
      "outputs": [],
      "stateMutability": "nonpayable",
      "type": "function"
    },
    {
      "inputs": [
        {
          "internalType": "uint256",
          "name": "_fee",
          "type": "uint256"
        }
      ],
      "name": "changeFee",
      "outputs": [],
      "stateMutability": "nonpayable",
      "type": "function"
    },
    {
      "inputs": [
        {
          "internalType": "address",
          "name": "_oracleAddress",
          "type": "address"
        }
      ],
      "name": "changeOrcaleAddress",
      "outputs": [],
      "stateMutability": "nonpayable",
      "type": "function"
    },
    {
      "inputs": [
        {
          "internalType": "uint256",
          "name": "_threshold",
          "type": "uint256"
        }
      ],
      "name": "setDelayThreshold",
      "outputs": [],
      "stateMutability": "nonpayable",
      "type": "function"
    },
    {
      "inputs": [
        {
          "internalType": "address",
          "name": "_userAddress",
          "type": "address"
        },
        {
          "internalType": "uint256",
          "name": "_productId",
          "type": "uint256"
        },
        {
          "internalType": "string",
          "name": "_flightNumber",
          "type": "string"
        },
        {
          "internalType": "uint256",
          "name": "_premium",
          "type": "uint256"
        },
        {
          "internalType": "uint256",
          "name": "_payoff",
          "type": "uint256"
        },
        {
          "internalType": "uint256",
          "name": "_departureDate",
          "type": "uint256"
        },
        {
          "internalType": "uint256",
          "name": "_landingDate",
          "type": "uint256"
        }
      ],
      "name": "newApplication",
      "outputs": [
        {
          "internalType": "bytes32",
          "name": "_policyId",
          "type": "bytes32"
        }
      ],
      "stateMutability": "nonpayable",
      "type": "function"
    },
    {
      "inputs": [
        {
          "internalType": "uint256",
          "name": "_policyOrder",
          "type": "uint256"
        },
        {
          "internalType": "string",
          "name": "_flightNumber",
          "type": "string"
        },
        {
          "internalType": "string",
          "name": "_date",
          "type": "string"
        },
        {
          "internalType": "string",
          "name": "_path",
          "type": "string"
        },
        {
          "internalType": "bool",
          "name": "_forceUpdate",
          "type": "bool"
        }
      ],
      "name": "newClaimRequest",
      "outputs": [],
      "stateMutability": "nonpayable",
      "type": "function"
    },
    {
      "inputs": [
        {
          "internalType": "bytes32",
          "name": "_requestId",
          "type": "bytes32"
        },
        {
          "internalType": "uint256",
          "name": "_data",
          "type": "uint256"
        }
      ],
      "name": "fulfill",
      "outputs": [],
      "stateMutability": "nonpayable",
      "type": "function"
    },
    {
      "inputs": [
        {
          "internalType": "uint256",
          "name": "_tokenId",
          "type": "uint256"
        },
        {
          "internalType": "address",
          "name": "_oldOwner",
          "type": "address"
        },
        {
          "internalType": "address",
          "name": "_newOwner",
          "type": "address"
        }
      ],
      "name": "policyOwnerTransfer",
      "outputs": [],
      "stateMutability": "nonpayable",
      "type": "function"
    }
  ],
  "bytecode": "0x608060405260016004556040518060400160405280602081526020017f687474703a2f2f33392e3130312e3133322e3232383a383030302f6c6976652f8152506008908051906020019062000056929190620002d6565b5060f06010553480156200006957600080fd5b50604051620057343803806200573483398181016040528101906200008f9190620003fd565b33600d60006101000a81548173ffffffffffffffffffffffffffffffffffffffff021916908373ffffffffffffffffffffffffffffffffffffffff16021790555082600e60006101000a81548173ffffffffffffffffffffffffffffffffffffffff021916908373ffffffffffffffffffffffffffffffffffffffff16021790555081600f60006101000a81548173ffffffffffffffffffffffffffffffffffffffff021916908373ffffffffffffffffffffffffffffffffffffffff16021790555080600960006101000a81548173ffffffffffffffffffffffffffffffffffffffff021916908373ffffffffffffffffffffffffffffffffffffffff1602179055507f6365663734613766663765613431393461623937663030633839616265663662600a81905550620001ca620001ea60201b60201c565b670de0b6b3a764000060078190555060006011819055505050506200056d565b6200029073c89bd4e1632d3a43cb03aaad5262cbe4038bc57173ffffffffffffffffffffffffffffffffffffffff166338cc48316040518163ffffffff1660e01b815260040160206040518083038186803b1580156200024957600080fd5b505afa1580156200025e573d6000803e3d6000fd5b505050506040513d601f19601f82011682018060405250810190620002849190620003cb565b6200029260201b60201c565b565b80600260006101000a81548173ffffffffffffffffffffffffffffffffffffffff021916908373ffffffffffffffffffffffffffffffffffffffff16021790555050565b828054620002e490620004b5565b90600052602060002090601f01602090048101928262000308576000855562000354565b82601f106200032357805160ff191683800117855562000354565b8280016001018555821562000354579182015b828111156200035357825182559160200191906001019062000336565b5b50905062000363919062000367565b5090565b5b808211156200038257600081600090555060010162000368565b5090565b60008151905062000397816200051f565b92915050565b600081519050620003ae8162000539565b92915050565b600081519050620003c58162000553565b92915050565b600060208284031215620003e457620003e36200051a565b5b6000620003f48482850162000386565b91505092915050565b6000806000606084860312156200041957620004186200051a565b5b600062000429868287016200039d565b93505060206200043c86828701620003b4565b92505060406200044f8682870162000386565b9150509250925092565b6000620004668262000495565b9050919050565b60006200047a8262000459565b9050919050565b60006200048e8262000459565b9050919050565b600073ffffffffffffffffffffffffffffffffffffffff82169050919050565b60006002820490506001821680620004ce57607f821691505b60208210811415620004e557620004e4620004eb565b5b50919050565b7f4e487b7100000000000000000000000000000000000000000000000000000000600052602260045260246000fd5b600080fd5b6200052a8162000459565b81146200053657600080fd5b50565b62000544816200046d565b81146200055057600080fd5b50565b6200055e8162000481565b81146200056a57600080fd5b50565b6151b7806200057d6000396000f3fe608060405234801561001057600080fd5b506004361061014d5760003560e01c80636a1db1bf116100c3578063aed0acee1161007c578063aed0acee146103c9578063b7b357ac146103e7578063be6b824814610405578063cfc5a96914610423578063ddf9d61714610453578063e25f3fc8146104835761014d565b80636a1db1bf146102f75780636d0be997146103135780638d8ccfce1461032f5780638da5cb5b1461035f5780638e34ce351461037d5780639201de55146103995761014d565b80633d21a7d1116101155780633d21a7d1146102135780633da21def146102435780634357855e1461025f5780635e57966d1461027b578063624c5223146102ab57806369099ee7146102db5761014d565b8063081c29a8146101525780630f42fd0b14610182578063165d35e11461019e578063214a64a9146101bc57806330dbc6c4146101da575b600080fd5b61016c6004803603810190610167919061372c565b6104b3565b6040516101799190614119565b60405180910390f35b61019c600480360381019061019791906137ac565b6104d0565b005b6101a66107ec565b6040516101b3919061403b565b60405180910390f35b6101c46107fb565b6040516101d191906143a2565b60405180910390f35b6101f460048036038101906101ef919061372c565b610801565b60405161020a9a9998979695949392919061417f565b60405180910390f35b61022d600480360381019061022891906135a7565b6109e4565b60405161023a91906143a2565b60405180910390f35b61025d600480360381019061025891906136bf565b610a2d565b005b610279600480360381019061027491906136ec565b610ac7565b005b610295600480360381019061029091906135a7565b610ece565b6040516102a2919061415d565b60405180910390f35b6102c560048036038101906102c091906135d4565b610f01565b6040516102d29190614119565b60405180910390f35b6102f560048036038101906102f091906135a7565b61129a565b005b610311600480360381019061030c919061372c565b61136e565b005b61032d6004803603810190610328919061372c565b611408565b005b610349600480360381019061034491906136bf565b6114a2565b604051610356919061403b565b60405180910390f35b6103676114e2565b604051610374919061403b565b60405180910390f35b61039760048036038101906103929190613759565b611508565b005b6103b360048036038101906103ae91906136bf565b6116e7565b6040516103c0919061415d565b60405180910390f35b6103d1611707565b6040516103de91906143a2565b60405180910390f35b6103ef61170d565b6040516103fc91906143a2565b60405180910390f35b61040d611714565b60405161041a91906143a2565b60405180910390f35b61043d600480360381019061043891906136bf565b61171a565b60405161044a91906143a2565b60405180910390f35b61046d600480360381019061046891906135a7565b6118b8565b60405161047a919061415d565b60405180910390f35b61049d600480360381019061049891906136bf565b611cec565b6040516104aa919061415d565b60405180910390f35b600060136000838152602001908152602001600020549050919050565b600d60009054906101000a900473ffffffffffffffffffffffffffffffffffffffff1673ffffffffffffffffffffffffffffffffffffffff163373ffffffffffffffffffffffffffffffffffffffff1614610560576040517f08c379a000000000000000000000000000000000000000000000000000000000815260040161055790614322565b60405180910390fd5b60006013600087815260200190815260200160002054905060126000828152602001908152602001600020600901544210156105d1576040517f08c379a00000000000000000000000000000000000000000000000000000000081526004016105c890614302565b60405180910390fd5b60126000828152602001908152602001600020600a0160019054906101000a900460ff16158061065757508180156106565750600d60009054906101000a900473ffffffffffffffffffffffffffffffffffffffff1673ffffffffffffffffffffffffffffffffffffffff163373ffffffffffffffffffffffffffffffffffffffff16145b5b610696576040517f08c379a000000000000000000000000000000000000000000000000000000000815260040161068d90614342565b60405180910390fd5b601260008281526020019081526020016000206003016040516020016106bc9190613e91565b60405160208183030381529060405280519060200120856040516020016106e39190613e49565b6040516020818303038152906040528051906020012014610739576040517f08c379a000000000000000000000000000000000000000000000000000000000815260040161073090614262565b60405180910390fd5b60006008868660405160200161075193929190613ea8565b60405160208183030381529060405290506000610799600960009054906101000a900473ffffffffffffffffffffffffffffffffffffffff16600a5460075485896001611dc2565b905087600b600083815260200190815260200160002081905550600160126000858152602001908152602001600020600a0160016101000a81548160ff0219169083151502179055505050505050505050565b60006107f6611ecf565b905090565b60065481565b6060600080600080600080600080600080601360008d8152602001908152602001600020549050601260008281526020019081526020016000206003018160126000848152602001908152602001600020600001546012600085815260200190815260200160002060010160009054906101000a900473ffffffffffffffffffffffffffffffffffffffff166012600086815260200190815260200160002060050154601260008781526020019081526020016000206006015460126000888152602001908152602001600020600701546012600089815260200190815260200160002060080154601260008a815260200190815260200160002060090154601260008b8152602001908152602001600020600a0160009054906101000a900460ff16600481111561093657610935614aa7565b5b8980546109429061493e565b80601f016020809104026020016040519081016040528092919081815260200182805461096e9061493e565b80156109bb5780601f10610990576101008083540402835291602001916109bb565b820191906000526020600020905b81548152906001019060200180831161099e57829003601f168201915b505050505099509a509a509a509a509a509a509a509a509a509a50509193959799509193959799565b6000601560008373ffffffffffffffffffffffffffffffffffffffff1673ffffffffffffffffffffffffffffffffffffffff168152602001908152602001600020549050919050565b600d60009054906101000a900473ffffffffffffffffffffffffffffffffffffffff1673ffffffffffffffffffffffffffffffffffffffff163373ffffffffffffffffffffffffffffffffffffffff1614610abd576040517f08c379a0000000000000000000000000000000000000000000000000000000008152600401610ab490614322565b60405180910390fd5b80600a8190555050565b816005600082815260200190815260200160002060009054906101000a900473ffffffffffffffffffffffffffffffffffffffff1673ffffffffffffffffffffffffffffffffffffffff163373ffffffffffffffffffffffffffffffffffffffff1614610b69576040517f08c379a0000000000000000000000000000000000000000000000000000000008152600401610b6090614362565b60405180910390fd5b6005600082815260200190815260200160002060006101000a81549073ffffffffffffffffffffffffffffffffffffffff0219169055807f7cc135e0cebb02c3480ae5d74d377283180a2601f8f644edf7987b009316c63a60405160405180910390a2816006819055506000600b60008581526020019081526020016000205490506000601360008381526020019081526020016000205490508360126000838152602001908152602001600020600b01819055506000841415610c9a57610c95601260008381526020019081526020016000206005015460126000848152602001908152602001600020600601546012600085815260200190815260200160002060010160009054906101000a900473ffffffffffffffffffffffffffffffffffffffff1684611ef9565b610e8e565b6010548411610da0576000610cae8561201b565b90506012600083815260200190815260200160002060060154811015610d2b57610d266012600084815260200190815260200160002060050154826012600086815260200190815260200160002060010160009054906101000a900473ffffffffffffffffffffffffffffffffffffffff16856120d3565b610d9a565b610d99601260008481526020019081526020016000206005015460126000858152602001908152602001600020600601546012600086815260200190815260200160002060010160009054906101000a900473ffffffffffffffffffffffffffffffffffffffff16856120d3565b5b50610e8d565b610190841415610e1d57610e18601260008381526020019081526020016000206005015460126000848152602001908152602001600020600601546012600085815260200190815260200160002060010160009054906101000a900473ffffffffffffffffffffffffffffffffffffffff16846120d3565b610e8c565b610e8b601260008381526020019081526020016000206005015460126000848152602001908152602001600020600601546012600085815260200190815260200160002060010160009054906101000a900473ffffffffffffffffffffffffffffffffffffffff1684611ef9565b5b5b5b7fa9ddea9ab39eadd77698a6649216466253039b513895fe0e268e695809f28f3d8186604051610ebf929190614134565b60405180910390a15050505050565b6060610efa60148373ffffffffffffffffffffffffffffffffffffffff166121f790919063ffffffff16565b9050919050565b60006201518042610f1291906144cb565b831015610f54576040517f08c379a0000000000000000000000000000000000000000000000000000000008152600401610f4b906142c2565b60405180910390fd5b6000888885601154604051602001610f6f9493929190613dcf565b604051602081830303815290604052805190602001209050610f9386868b84612433565b6000429050604051806101a001604052808a81526020018b73ffffffffffffffffffffffffffffffffffffffff16815260200160115481526020018981526020018381526020018881526020018781526020018281526020018681526020018581526020016000600481111561100c5761100b614aa7565b5b8152602001600015158152602001610194815250601260008481526020019081526020016000206000820151816000015560208201518160010160006101000a81548173ffffffffffffffffffffffffffffffffffffffff021916908373ffffffffffffffffffffffffffffffffffffffff1602179055506040820151816002015560608201518160030190805190602001906110aa9291906133a4565b506080820151816004015560a0820151816005015560c0820151816006015560e082015181600701556101008201518160080155610120820151816009015561014082015181600a0160006101000a81548160ff0219169083600481111561111557611114614aa7565b5b021790555061016082015181600a0160016101000a81548160ff02191690831515021790555061018082015181600b0155905050601460008b73ffffffffffffffffffffffffffffffffffffffff1673ffffffffffffffffffffffffffffffffffffffff16815260200190815260200160002060115490806001815401808255809150506001900390600052602060002001600090919091909150556001601560008c73ffffffffffffffffffffffffffffffffffffffff1673ffffffffffffffffffffffffffffffffffffffff168152602001908152602001600020600082825461120191906144cb565b92505081905550816013600060115481526020019081526020016000208190555060016011600082825461123591906144cb565b925050819055508973ffffffffffffffffffffffffffffffffffffffff167fea7d153d9403b2cbdaa11045591904450ef979d8225ec92d7f2bd664b4a7d79b836040516112829190614119565b60405180910390a28192505050979650505050505050565b600d60009054906101000a900473ffffffffffffffffffffffffffffffffffffffff1673ffffffffffffffffffffffffffffffffffffffff163373ffffffffffffffffffffffffffffffffffffffff161461132a576040517f08c379a000000000000000000000000000000000000000000000000000000000815260040161132190614322565b60405180910390fd5b80600960006101000a81548173ffffffffffffffffffffffffffffffffffffffff021916908373ffffffffffffffffffffffffffffffffffffffff16021790555050565b600d60009054906101000a900473ffffffffffffffffffffffffffffffffffffffff1673ffffffffffffffffffffffffffffffffffffffff163373ffffffffffffffffffffffffffffffffffffffff16146113fe576040517f08c379a00000000000000000000000000000000000000000000000000000000081526004016113f590614322565b60405180910390fd5b8060078190555050565b600d60009054906101000a900473ffffffffffffffffffffffffffffffffffffffff1673ffffffffffffffffffffffffffffffffffffffff163373ffffffffffffffffffffffffffffffffffffffff1614611498576040517f08c379a000000000000000000000000000000000000000000000000000000000815260040161148f90614322565b60405180910390fd5b8060108190555050565b60006012600083815260200190815260200160002060010160009054906101000a900473ffffffffffffffffffffffffffffffffffffffff169050919050565b600d60009054906101000a900473ffffffffffffffffffffffffffffffffffffffff1681565b600f60009054906101000a900473ffffffffffffffffffffffffffffffffffffffff1673ffffffffffffffffffffffffffffffffffffffff163373ffffffffffffffffffffffffffffffffffffffff1614611598576040517f08c379a000000000000000000000000000000000000000000000000000000000815260040161158f906142a2565b60405180910390fd5b6000601360008581526020019081526020016000205490506012600082815260200190815260200160002060010160009054906101000a900473ffffffffffffffffffffffffffffffffffffffff1673ffffffffffffffffffffffffffffffffffffffff168373ffffffffffffffffffffffffffffffffffffffff1614611654576040517f08c379a000000000000000000000000000000000000000000000000000000000815260040161164b90614242565b60405180910390fd5b816012600083815260200190815260200160002060010160006101000a81548173ffffffffffffffffffffffffffffffffffffffff021916908373ffffffffffffffffffffffffffffffffffffffff160217905550837f131013c706ffe7a58a15c6576c2affbfee4aa57a8fc2c179fff9da687da631e6836040516116d9919061403b565b60405180910390a250505050565b606061170060208360001c6121f790919063ffffffff16565b9050919050565b60105481565b6201518081565b60115481565b600080602067ffffffffffffffff81111561173857611737614b34565b5b6040519080825280601f01601f19166020018201604052801561176a5781602001600182028036833780820191505090505b50905060005b60208110156117e55783816020811061178c5761178b614b05565b5b1a60f81b8282815181106117a3576117a2614b05565b5b60200101907effffffffffffffffffffffffffffffffffffffffffffffffffffffffffffff1916908160001a90535080806117dd906149a1565b915050611770565b506000805b82518110156118ad57603083828151811061180857611807614b05565b5b602001015160f81c60f81b60f81c60ff161015801561184b5750603983828151811061183757611836614b05565b5b602001015160f81c60f81b60f81c60ff1611155b1561189a57603083828151811061186557611864614b05565b5b602001015160f81c60f81b60f81c61187d91906147e5565b60ff16600a8361188d91906146c3565b61189791906144cb565b91505b80806118a5906149a1565b9150506117ea565b508092505050919050565b60606000601560008473ffffffffffffffffffffffffffffffffffffffff1673ffffffffffffffffffffffffffffffffffffffff168152602001908152602001600020541161193c576040517f08c379a0000000000000000000000000000000000000000000000000000000008152600401611933906142e2565b60405180910390fd5b6000601560008473ffffffffffffffffffffffffffffffffffffffff1673ffffffffffffffffffffffffffffffffffffffff16815260200190815260200160002054905060006040518060400160405280600181526020017f2000000000000000000000000000000000000000000000000000000000000000815250905060005b82811015611ce1576000601460008773ffffffffffffffffffffffffffffffffffffffff1673ffffffffffffffffffffffffffffffffffffffff1681526020019081526020016000208281548110611a1857611a17614b05565b5b90600052602060002001549050600060136000838152602001908152602001600020549050600060126000838152602001908152602001600020600a0160019054906101000a900460ff16611aa2576040518060400160405280600881526020017f6e6f742075736564000000000000000000000000000000000000000000000000815250611ad9565b6040518060400160405280600481526020017f75736564000000000000000000000000000000000000000000000000000000008152505b90506000611bd485601260008681526020019081526020016000206003018054611b029061493e565b80601f0160208091040260200160405190810160405280929190818152602001828054611b2e9061493e565b8015611b7b5780601f10611b5057610100808354040283529160200191611b7b565b820191906000526020600020905b815481529060010190602001808311611b5e57829003601f168201915b50505050508560126000888152602001908152602001600020600001546012600089815260200190815260200160002060010160009054906101000a900473ffffffffffffffffffffffffffffffffffffffff16612787565b90506000611ca16012600086815260200190815260200160002060050154601260008781526020019081526020016000206006015460126000888152602001908152602001600020600701546012600089815260200190815260200160002060080154601260008a815260200190815260200160002060090154601260008b8152602001908152602001600020600a0160009054906101000a900460ff166004811115611c8457611c83614aa7565b5b89601260008d8152602001908152602001600020600b01546127dc565b9050868282604051602001611cb893929190613e60565b604051602081830303815290604052965050505050508080611cd9906149a1565b9150506119bd565b508092505050919050565b60606000602067ffffffffffffffff811115611d0b57611d0a614b34565b5b6040519080825280601f01601f191660200182016040528015611d3d5781602001600182028036833780820191505090505b50905060005b6020811015611db857838160208110611d5f57611d5e614b05565b5b1a60f81b828281518110611d7657611d75614b05565b5b60200101907effffffffffffffffffffffffffffffffffffffffffffffffffffffffffffff1916908160001a9053508080611db0906149a1565b915050611d43565b5080915050919050565b600080611dd78730634357855e60e01b612878565b9050611e236040518060400160405280600381526020017f75726c000000000000000000000000000000000000000000000000000000000081525086836128a99092919063ffffffff16565b611e6d6040518060400160405280600481526020017f706174680000000000000000000000000000000000000000000000000000000081525085836128a99092919063ffffffff16565b611eb76040518060400160405280600581526020017f74696d657300000000000000000000000000000000000000000000000000000081525084836128dc9092919063ffffffff16565b611ec288828861290f565b9150509695505050505050565b6000600260009054906101000a900473ffffffffffffffffffffffffffffffffffffffff16905090565b600e60009054906101000a900473ffffffffffffffffffffffffffffffffffffffff1673ffffffffffffffffffffffffffffffffffffffff16638f6987a285856040518363ffffffff1660e01b8152600401611f569291906143bd565b600060405180830381600087803b158015611f7057600080fd5b505af1158015611f84573d6000803e3d6000fd5b50505050600360126000838152602001908152602001600020600a0160006101000a81548160ff02191690836004811115611fc257611fc1614aa7565b5b02179055508173ffffffffffffffffffffffffffffffffffffffff167f8629ba1a018e1397c942e8dcf53afb2cfd0f250c02bc785e041010dfe6bbe0028260405161200d9190614119565b60405180910390a250505050565b60008060009050603c8311612032578290506120b4565b603c83118015612043575060788311155b15612074576002603c8461205791906147b1565b61206191906146c3565b603c61206d91906144cb565b90506120b3565b607883118015612085575060f08311155b156120b257600360788461209991906147b1565b6120a391906146c3565b60b46120af91906144cb565b90505b5b5b670de0b6b3a7640000816120c891906146c3565b905080915050919050565b600e60009054906101000a900473ffffffffffffffffffffffffffffffffffffffff1673ffffffffffffffffffffffffffffffffffffffff166347fea81e8585856040518463ffffffff1660e01b8152600401612132939291906143e6565b600060405180830381600087803b15801561214c57600080fd5b505af1158015612160573d6000803e3d6000fd5b50505050600460126000838152602001908152602001600020600a0160006101000a81548160ff0219169083600481111561219e5761219d614aa7565b5b02179055508173ffffffffffffffffffffffffffffffffffffffff167f5f9c763688279c7782f685a70462a053a838f3453a1b3a1bdc3c782d12670d61826040516121e99190614119565b60405180910390a250505050565b60606000600283600261220a91906146c3565b61221491906144cb565b67ffffffffffffffff81111561222d5761222c614b34565b5b6040519080825280601f01601f19166020018201604052801561225f5781602001600182028036833780820191505090505b5090507f30000000000000000000000000000000000000000000000000000000000000008160008151811061229757612296614b05565b5b60200101907effffffffffffffffffffffffffffffffffffffffffffffffffffffffffffff1916908160001a9053507f7800000000000000000000000000000000000000000000000000000000000000816001815181106122fb576122fa614b05565b5b60200101907effffffffffffffffffffffffffffffffffffffffffffffffffffffffffffff1916908160001a9053506000600184600261233b91906146c3565b61234591906144cb565b90505b60018111156123e5577f3031323334353637383961626364656600000000000000000000000000000000600f86166010811061238757612386614b05565b5b1a60f81b82828151811061239e5761239d614b05565b5b60200101907effffffffffffffffffffffffffffffffffffffffffffffffffffffffffffff1916908160001a905350600485901c9450806123de90614914565b9050612348565b5060008414612429576040517f08c379a000000000000000000000000000000000000000000000000000000000815260040161242090614222565b60405180910390fd5b8091505092915050565b6000600e60009054906101000a900473ffffffffffffffffffffffffffffffffffffffff1673ffffffffffffffffffffffffffffffffffffffff166216bd78856040518263ffffffff1660e01b815260040161248f91906143a2565b60206040518083038186803b1580156124a757600080fd5b505afa1580156124bb573d6000803e3d6000fd5b505050506040513d601f19601f820116820180604052508101906124df9190613692565b905080156126b857600e60009054906101000a900473ffffffffffffffffffffffffffffffffffffffff1673ffffffffffffffffffffffffffffffffffffffff1663bf131f4b8686866040518463ffffffff1660e01b8152600401612546939291906143e6565b602060405180830381600087803b15801561256057600080fd5b505af1158015612574573d6000803e3d6000fd5b505050506040513d601f19601f820116820180604052508101906125989190613692565b50600160126000848152602001908152602001600020600a0160006101000a81548160ff021916908360048111156125d3576125d2614aa7565b5b02179055508273ffffffffffffffffffffffffffffffffffffffff167fe2b215a9cb677e3aed3f981858d4991d0fa674cac07f691ae9e55285cd21e6508360405161261e9190614119565b60405180910390a2600f60009054906101000a900473ffffffffffffffffffffffffffffffffffffffff1673ffffffffffffffffffffffffffffffffffffffff1663b918e5e2846040518263ffffffff1660e01b8152600401612681919061403b565b600060405180830381600087803b15801561269b57600080fd5b505af11580156126af573d6000803e3d6000fd5b50505050612780565b600260126000848152602001908152602001600020600a0160006101000a81548160ff021916908360048111156126f2576126f1614aa7565b5b02179055508273ffffffffffffffffffffffffffffffffffffffff167fdf516e73760083066a1382f39eddf56faec71fab4e9b20387809572f492857308360405161273d9190614119565b60405180910390a26040517f08c379a000000000000000000000000000000000000000000000000000000000815260040161277790614382565b60405180910390fd5b5050505050565b60606127928661292f565b8561279c866116e7565b6127a58661292f565b6127ae86610ece565b6040516020016127c2959493929190613ee4565b604051602081830303815290604052905095945050505050565b60606127fa670de0b6b3a76400008a6127f59190614521565b61292f565b612816670de0b6b3a76400008a6128119190614521565b61292f565b61281f8961292f565b6128288961292f565b6128318961292f565b61283a8961292f565b886128448961292f565b60405160200161285b989796959493929190613f66565b604051602081830303815290604052905098975050505050505050565b61288061342a565b61288861342a565b61289f85858584612a90909392919063ffffffff16565b9150509392505050565b6128c0828460800151612b4090919063ffffffff16565b6128d7818460800151612b4090919063ffffffff16565b505050565b6128f3828460800151612b4090919063ffffffff16565b61290a818460800151612b6590919063ffffffff16565b505050565b60006129268484846001634042994660e01b612c12565b90509392505050565b60606000821415612977576040518060400160405280600181526020017f30000000000000000000000000000000000000000000000000000000000000008152509050612a8b565b600082905060005b600082146129a9578080612992906149a1565b915050600a826129a29190614521565b915061297f565b60008167ffffffffffffffff8111156129c5576129c4614b34565b5b6040519080825280601f01601f1916602001820160405280156129f75781602001600182028036833780820191505090505b5090505b60008514612a8457600182612a1091906147b1565b9150600a85612a1f9190614a18565b6030612a2b91906144cb565b60f81b818381518110612a4157612a40614b05565b5b60200101907effffffffffffffffffffffffffffffffffffffffffffffffffffffffffffff1916908160001a905350600a85612a7d9190614521565b94506129fb565b8093505050505b919050565b612a9861342a565b612aa88560800151610100612e7a565b508385600001818152505082856020019073ffffffffffffffffffffffffffffffffffffffff16908173ffffffffffffffffffffffffffffffffffffffff16815250508185604001907bffffffffffffffffffffffffffffffffffffffffffffffffffffffff191690817bffffffffffffffffffffffffffffffffffffffffffffffffffffffff191681525050849050949350505050565b612b4d8260038351612ee4565b612b60818361302990919063ffffffff16565b505050565b7fffffffffffffffffffffffffffffffffffffffffffffffff0000000000000000811215612b9c57612b97828261304b565b612c0e565b67ffffffffffffffff811315612bbb57612bb682826130c2565b612c0d565b60008112612bd457612bcf82600083612ee4565b612c0c565b612c0b826001837fffffffffffffffffffffffffffffffffffffffffffffffffffffffffffffffff612c06919061471d565b612ee4565b5b5b5b5050565b600030600454604051602001612c29929190613e1d565b604051602081830303815290604052805190602001209050600454856060018181525050856005600083815260200190815260200160002060006101000a81548173ffffffffffffffffffffffffffffffffffffffff021916908373ffffffffffffffffffffffffffffffffffffffff160217905550807fb5e6e01e79f91267dc17b4e6314d5d4d03593d2ceee0fbb452b750bd70ea5af960405160405180910390a2600082600080886000015189602001518a604001518b606001518a8d6080015160000151604051602401612d07989796959493929190614056565b604051602081830303815290604052907bffffffffffffffffffffffffffffffffffffffffffffffffffffffff19166020820180517bffffffffffffffffffffffffffffffffffffffffffffffffffffffff83818316178352505050509050600260009054906101000a900473ffffffffffffffffffffffffffffffffffffffff1673ffffffffffffffffffffffffffffffffffffffff16634000aea08887846040518463ffffffff1660e01b8152600401612dc5939291906140db565b602060405180830381600087803b158015612ddf57600080fd5b505af1158015612df3573d6000803e3d6000fd5b505050506040513d601f19601f82011682018060405250810190612e179190613692565b612e56576040517f08c379a0000000000000000000000000000000000000000000000000000000008152600401612e4d90614282565b60405180910390fd5b600160046000828254612e6991906144cb565b925050819055505095945050505050565b612e82613497565b6000602083612e919190614a18565b14612ebd57602082612ea39190614a18565b6020612eaf91906147b1565b82612eba91906144cb565b91505b81836020018181525050604051808452600081528281016020016040525082905092915050565b60178111612f1157612f0b8160058460ff16901b60ff16178461310e90919063ffffffff16565b50613024565b60ff8111612f5357612f36601860058460ff16901b178461310e90919063ffffffff16565b50612f4d8160018561312e9092919063ffffffff16565b50613023565b61ffff8111612f9657612f79601960058460ff16901b178461310e90919063ffffffff16565b50612f908160028561312e9092919063ffffffff16565b50613022565b63ffffffff8111612fdb57612fbe601a60058460ff16901b178461310e90919063ffffffff16565b50612fd58160048561312e9092919063ffffffff16565b50613021565b67ffffffffffffffff811161302057613007601b60058460ff16901b178461310e90919063ffffffff16565b5061301e8160088561312e9092919063ffffffff16565b505b5b5b5b5b505050565b613031613497565b61304383846000015151848551613150565b905092915050565b61306960036005600660ff16901b178361310e90919063ffffffff16565b506130be82827fffffffffffffffffffffffffffffffffffffffffffffffffffffffffffffffff61309a919061471d565b6040516020016130aa91906143a2565b60405160208183030381529060405261325a565b5050565b6130e060026005600660ff16901b178361310e90919063ffffffff16565b5061310a82826040516020016130f691906143a2565b60405160208183030381529060405261325a565b5050565b613116613497565b613126838460000151518461327f565b905092915050565b613136613497565b6131478485600001515185856132d6565b90509392505050565b613158613497565b825182111561316657600080fd5b8460200151828561317791906144cb565b11156131ac576131ab85600261319c8860200151888761319791906144cb565b613364565b6131a691906146c3565b613380565b5b6000808651805187602083010193508088870111156131cb5787860182525b60208701925050505b6020841061321257805182526020826131ed91906144cb565b91506020816131fc91906144cb565b905060208461320b91906147b1565b93506131d4565b6000600185602061322391906147b1565b61010061323091906145a5565b61323a91906147b1565b905080198251168184511681811785525050879350505050949350505050565b6132678260028351612ee4565b61327a818361302990919063ffffffff16565b505050565b613287613497565b836020015183106132ad576132ac84600286602001516132a791906146c3565b613380565b5b83518051602085830101848153818614156132c9576001820183525b5050508390509392505050565b6132de613497565b846020015184836132ef91906144cb565b111561331757613316856002868561330791906144cb565b61331191906146c3565b613380565b5b600060018361010061332991906145a5565b61333391906147b1565b905085518386820101858319825116178152815185880111156133565784870182525b505085915050949350505050565b6000818311156133765782905061337a565b8190505b92915050565b6000826000015190506133938383612e7a565b5061339e8382613029565b50505050565b8280546133b09061493e565b90600052602060002090601f0160209004810192826133d25760008555613419565b82601f106133eb57805160ff1916838001178555613419565b82800160010185558215613419579182015b828111156134185782518255916020019190600101906133fd565b5b50905061342691906134b1565b5090565b6040518060a0016040528060008019168152602001600073ffffffffffffffffffffffffffffffffffffffff16815260200160007bffffffffffffffffffffffffffffffffffffffffffffffffffffffff1916815260200160008152602001613491613497565b81525090565b604051806040016040528060608152602001600081525090565b5b808211156134ca5760008160009055506001016134b2565b5090565b60006134e16134dc84614442565b61441d565b9050828152602081018484840111156134fd576134fc614b68565b5b6135088482856148d2565b509392505050565b60008135905061351f81615125565b92915050565b6000813590506135348161513c565b92915050565b6000815190506135498161513c565b92915050565b60008135905061355e81615153565b92915050565b600082601f83011261357957613578614b63565b5b81356135898482602086016134ce565b91505092915050565b6000813590506135a18161516a565b92915050565b6000602082840312156135bd576135bc614b72565b5b60006135cb84828501613510565b91505092915050565b600080600080600080600060e0888a0312156135f3576135f2614b72565b5b60006136018a828b01613510565b97505060206136128a828b01613592565b965050604088013567ffffffffffffffff81111561363357613632614b6d565b5b61363f8a828b01613564565b95505060606136508a828b01613592565b94505060806136618a828b01613592565b93505060a06136728a828b01613592565b92505060c06136838a828b01613592565b91505092959891949750929550565b6000602082840312156136a8576136a7614b72565b5b60006136b68482850161353a565b91505092915050565b6000602082840312156136d5576136d4614b72565b5b60006136e38482850161354f565b91505092915050565b6000806040838503121561370357613702614b72565b5b60006137118582860161354f565b925050602061372285828601613592565b9150509250929050565b60006020828403121561374257613741614b72565b5b600061375084828501613592565b91505092915050565b60008060006060848603121561377257613771614b72565b5b600061378086828701613592565b935050602061379186828701613510565b92505060406137a286828701613510565b9150509250925092565b600080600080600060a086880312156137c8576137c7614b72565b5b60006137d688828901613592565b955050602086013567ffffffffffffffff8111156137f7576137f6614b6d565b5b61380388828901613564565b945050604086013567ffffffffffffffff81111561382457613823614b6d565b5b61383088828901613564565b935050606086013567ffffffffffffffff81111561385157613850614b6d565b5b61385d88828901613564565b925050608061386e88828901613525565b9150509295509295909350565b61388481614819565b82525050565b61389b61389682614819565b6149ea565b82525050565b6138aa81614837565b82525050565b6138b981614841565b82525050565b60006138ca82614488565b6138d4818561449e565b93506138e48185602086016148e1565b6138ed81614b77565b840191505092915050565b613909613904826148ae565b6149ea565b82525050565b600061391a82614493565b61392481856144af565b93506139348185602086016148e1565b61393d81614b77565b840191505092915050565b600061395382614493565b61395d81856144c0565b935061396d8185602086016148e1565b80840191505092915050565b600081546139868161493e565b61399081866144c0565b945060018216600081146139ab57600181146139bc576139ef565b60ff198316865281860193506139ef565b6139c585614473565b60005b838110156139e7578154818901526001820191506020810190506139c8565b838801955050505b50505092915050565b6000613a05600d836144c0565b9150613a1082614ba2565b600d82019050919050565b6000613a286020836144af565b9150613a3382614bcb565b602082019050919050565b6000613a4b601b836144af565b9150613a5682614bf4565b602082019050919050565b6000613a6e600b836144c0565b9150613a7982614c1d565b600b82019050919050565b6000613a916011836144c0565b9150613a9c82614c46565b601182019050919050565b6000613ab4601c836144af565b9150613abf82614c6f565b602082019050919050565b6000613ad76007836144c0565b9150613ae282614c98565b600782019050919050565b6000613afa6023836144af565b9150613b0582614cc1565b604082019050919050565b6000613b1d600e836144c0565b9150613b2882614d10565b600e82019050919050565b6000613b406012836144c0565b9150613b4b82614d39565b601282019050919050565b6000613b63602a836144af565b9150613b6e82614d62565b604082019050919050565b6000613b866012836144c0565b9150613b9182614db1565b601282019050919050565b6000613ba96022836144af565b9150613bb482614dda565b604082019050919050565b6000613bcc600b836144c0565b9150613bd782614e29565b600b82019050919050565b6000613bef600b836144c0565b9150613bfa82614e52565b600b82019050919050565b6000613c126017836144af565b9150613c1d82614e7b565b602082019050919050565b6000613c356001836144c0565b9150613c4082614ea4565b600182019050919050565b6000613c58600b836144c0565b9150613c6382614ecd565b600b82019050919050565b6000613c7b6012836144c0565b9150613c8682614ef6565b601282019050919050565b6000613c9e6011836144c0565b9150613ca982614f1f565b601182019050919050565b6000613cc16029836144af565b9150613ccc82614f48565b604082019050919050565b6000613ce4600c836144c0565b9150613cef82614f97565b600c82019050919050565b6000613d076025836144af565b9150613d1282614fc0565b604082019050919050565b6000613d2a6010836144c0565b9150613d358261500f565b601082019050919050565b6000613d4d603e836144af565b9150613d5882615038565b604082019050919050565b6000613d706028836144af565b9150613d7b82615087565b604082019050919050565b6000613d93602d836144af565b9150613d9e826150d6565b604082019050919050565b613db281614897565b82525050565b613dc9613dc482614897565b614a0e565b82525050565b6000613ddb828761388a565b601482019150613deb8286613db8565b602082019150613dfb8285613db8565b602082019150613e0b8284613db8565b60208201915081905095945050505050565b6000613e2982856138f8565b601482019150613e398284613db8565b6020820191508190509392505050565b6000613e558284613948565b915081905092915050565b6000613e6c8286613948565b9150613e788285613948565b9150613e848284613948565b9150819050949350505050565b6000613e9d8284613979565b915081905092915050565b6000613eb48286613979565b9150613ec08285613948565b9150613ecb82613c4b565b9150613ed78284613948565b9150819050949350505050565b6000613eef82613aca565b9150613efb8288613948565b9150613f0682613b79565b9150613f128287613948565b9150613f1d826139f8565b9150613f298286613948565b9150613f3482613b10565b9150613f408285613948565b9150613f4b82613a84565b9150613f578284613948565b91508190509695505050505050565b6000613f7182613cd7565b9150613f7d828b613948565b9150613f8882613a61565b9150613f94828a613948565b9150613f9f82613c91565b9150613fab8289613948565b9150613fb682613c6e565b9150613fc28288613948565b9150613fcd82613d1d565b9150613fd98287613948565b9150613fe482613be2565b9150613ff08286613948565b9150613ffb82613bbf565b91506140078285613948565b915061401282613b33565b915061401e8284613948565b915061402982613c28565b91508190509998505050505050505050565b6000602082019050614050600083018461387b565b92915050565b60006101008201905061406c600083018b61387b565b614079602083018a613da9565b61408660408301896138a1565b614093606083018861387b565b6140a060808301876138b0565b6140ad60a0830186613da9565b6140ba60c0830185613da9565b81810360e08301526140cc81846138bf565b90509998505050505050505050565b60006060820190506140f0600083018661387b565b6140fd6020830185613da9565b818103604083015261410f81846138bf565b9050949350505050565b600060208201905061412e60008301846138a1565b92915050565b600060408201905061414960008301856138a1565b61415660208301846138a1565b9392505050565b60006020820190508181036000830152614177818461390f565b905092915050565b600061014082019050818103600083015261419a818d61390f565b90506141a9602083018c6138a1565b6141b6604083018b613da9565b6141c3606083018a61387b565b6141d06080830189613da9565b6141dd60a0830188613da9565b6141ea60c0830187613da9565b6141f760e0830186613da9565b614205610100830185613da9565b614213610120830184613da9565b9b9a5050505050505050505050565b6000602082019050818103600083015261423b81613a1b565b9050919050565b6000602082019050818103600083015261425b81613a3e565b9050919050565b6000602082019050818103600083015261427b81613aa7565b9050919050565b6000602082019050818103600083015261429b81613aed565b9050919050565b600060208201905081810360008301526142bb81613b56565b9050919050565b600060208201905081810360008301526142db81613b9c565b9050919050565b600060208201905081810360008301526142fb81613c05565b9050919050565b6000602082019050818103600083015261431b81613cb4565b9050919050565b6000602082019050818103600083015261433b81613cfa565b9050919050565b6000602082019050818103600083015261435b81613d40565b9050919050565b6000602082019050818103600083015261437b81613d63565b9050919050565b6000602082019050818103600083015261439b81613d86565b9050919050565b60006020820190506143b76000830184613da9565b92915050565b60006040820190506143d26000830185613da9565b6143df6020830184613da9565b9392505050565b60006060820190506143fb6000830186613da9565b6144086020830185613da9565b614415604083018461387b565b949350505050565b6000614427614438565b90506144338282614970565b919050565b6000604051905090565b600067ffffffffffffffff82111561445d5761445c614b34565b5b61446682614b77565b9050602081019050919050565b60008190508160005260206000209050919050565b600081519050919050565b600081519050919050565b600082825260208201905092915050565b600082825260208201905092915050565b600081905092915050565b60006144d682614897565b91506144e183614897565b9250827fffffffffffffffffffffffffffffffffffffffffffffffffffffffffffffffff0382111561451657614515614a49565b5b828201905092915050565b600061452c82614897565b915061453783614897565b92508261454757614546614a78565b5b828204905092915050565b6000808291508390505b600185111561459c5780860481111561457857614577614a49565b5b60018516156145875780820291505b808102905061459585614b95565b945061455c565b94509492505050565b60006145b082614897565b91506145bb83614897565b92506145e87fffffffffffffffffffffffffffffffffffffffffffffffffffffffffffffffff84846145f0565b905092915050565b60008261460057600190506146bc565b8161460e57600090506146bc565b8160018114614624576002811461462e5761465d565b60019150506146bc565b60ff8411156146405761463f614a49565b5b8360020a91508482111561465757614656614a49565b5b506146bc565b5060208310610133831016604e8410600b84101617156146925782820a90508381111561468d5761468c614a49565b5b6146bc565b61469f8484846001614552565b925090508184048111156146b6576146b5614a49565b5b81810290505b9392505050565b60006146ce82614897565b91506146d983614897565b9250817fffffffffffffffffffffffffffffffffffffffffffffffffffffffffffffffff048311821515161561471257614711614a49565b5b828202905092915050565b60006147288261486d565b91506147338361486d565b9250827f80000000000000000000000000000000000000000000000000000000000000000182126000841215161561476e5761476d614a49565b5b827f7fffffffffffffffffffffffffffffffffffffffffffffffffffffffffffffff0182136000841216156147a6576147a5614a49565b5b828203905092915050565b60006147bc82614897565b91506147c783614897565b9250828210156147da576147d9614a49565b5b828203905092915050565b60006147f0826148a1565b91506147fb836148a1565b92508282101561480e5761480d614a49565b5b828203905092915050565b600061482482614877565b9050919050565b60008115159050919050565b6000819050919050565b60007fffffffff0000000000000000000000000000000000000000000000000000000082169050919050565b6000819050919050565b600073ffffffffffffffffffffffffffffffffffffffff82169050919050565b6000819050919050565b600060ff82169050919050565b60006148b9826148c0565b9050919050565b60006148cb82614877565b9050919050565b82818337600083830152505050565b60005b838110156148ff5780820151818401526020810190506148e4565b8381111561490e576000848401525b50505050565b600061491f82614897565b9150600082141561493357614932614a49565b5b600182039050919050565b6000600282049050600182168061495657607f821691505b6020821081141561496a57614969614ad6565b5b50919050565b61497982614b77565b810181811067ffffffffffffffff8211171561499857614997614b34565b5b80604052505050565b60006149ac82614897565b91507fffffffffffffffffffffffffffffffffffffffffffffffffffffffffffffffff8214156149df576149de614a49565b5b600182019050919050565b60006149f5826149fc565b9050919050565b6000614a0782614b88565b9050919050565b6000819050919050565b6000614a2382614897565b9150614a2e83614897565b925082614a3e57614a3d614a78565b5b828206905092915050565b7f4e487b7100000000000000000000000000000000000000000000000000000000600052601160045260246000fd5b7f4e487b7100000000000000000000000000000000000000000000000000000000600052601260045260246000fd5b7f4e487b7100000000000000000000000000000000000000000000000000000000600052602160045260246000fd5b7f4e487b7100000000000000000000000000000000000000000000000000000000600052602260045260246000fd5b7f4e487b7100000000000000000000000000000000000000000000000000000000600052603260045260246000fd5b7f4e487b7100000000000000000000000000000000000000000000000000000000600052604160045260246000fd5b600080fd5b600080fd5b600080fd5b600080fd5b6000601f19601f8301169050919050565b60008160601b9050919050565b60008160011c9050919050565b7f3a200a506f6c69637949643a2000000000000000000000000000000000000000600082015250565b7f537472696e67733a20686578206c656e67746820696e73756666696369656e74600082015250565b7f7468652070726576696f7573206f776e65722069732077726f6e670000000000600082015250565b7f2c200a5061796f66663a20000000000000000000000000000000000000000000600082015250565b7f2c200a4275796572416464726573733a20000000000000000000000000000000600082015250565b7f77726f6e6720666c69676874206e756d6265722070726f766964656400000000600082015250565b7f0a506f6c69637900000000000000000000000000000000000000000000000000600082015250565b7f756e61626c6520746f207472616e73666572416e6443616c6c20746f206f726160008201527f636c650000000000000000000000000000000000000000000000000000000000602082015250565b7f2c200a50726f6475637449643a20000000000000000000000000000000000000600082015250565b7f2c200a44656c617920526573756c74733a200000000000000000000000000000600082015250565b7f6f6e6c792063616c6c65642066726f6d2074686520706f6c69637920746f6b6560008201527f6e20636f6e747261637400000000000000000000000000000000000000000000602082015250565b7f3a200a7b466c696768744e756d6265723a200000000000000000000000000000600082015250565b7f4552524f523a3a54494d455f544f5f4445504152545552455f544f4f5f534d4160008201527f4c4c000000000000000000000000000000000000000000000000000000000000602082015250565b7f2c200a4973557365643a20000000000000000000000000000000000000000000600082015250565b7f2c200a5374617475733a20000000000000000000000000000000000000000000600082015250565b7f6e6f20706f6c69637920666f7220746869732075736572000000000000000000600082015250565b7f7d00000000000000000000000000000000000000000000000000000000000000600082015250565b7f2f74696d657374616d703d000000000000000000000000000000000000000000600082015250565b7f2c200a446570617274757265446174653a200000000000000000000000000000600082015250565b7f2c200a5075726368617365446174653a20000000000000000000000000000000600082015250565b7f63616e206f6e6c7920636c61696d206120706f6c69637920616674657220697460008201527f73206c616e64696e670000000000000000000000000000000000000000000000602082015250565b7f2c200a5072656d69756d3a200000000000000000000000000000000000000000600082015250565b7f6f6e6c7920746865206f776e65722063616e2063616c6c20746869732066756e60008201527f6374696f6e000000000000000000000000000000000000000000000000000000602082015250565b7f2c200a4c616e64696e67446174653a2000000000000000000000000000000000600082015250565b7f54686520706f6c69637920686173206265656e2066696e616c20636865636b6560008201527f642c206f7220796f75206e65656420746f20666f726365207570646174650000602082015250565b7f536f75726365206d75737420626520746865206f7261636c65206f662074686560008201527f2072657175657374000000000000000000000000000000000000000000000000602082015250565b7f6e6f742073756666696369656e7420636170616369747920696e20746865206960008201527f6e737572616e636520706f6f6c00000000000000000000000000000000000000602082015250565b61512e81614819565b811461513957600080fd5b50565b6151458161482b565b811461515057600080fd5b50565b61515c81614837565b811461516757600080fd5b50565b61517381614897565b811461517e57600080fd5b5056fea2646970667358221220afb6beba5c094ea2be444726c35c8d18c4bc3bca945e1f9361c8488c31d7827d64736f6c63430008050033",
  "immutableReferences": {},
  "source": "// SPDX-License-Identifier: MIT\npragma solidity ^0.8.0;\n\nimport \"./libraries/PolicyTypes.sol\";\nimport \"./libraries/ToStrings.sol\";\nimport \"./interfaces/IInsurancePool.sol\";\nimport \"@chainlink/contracts/src/v0.8/ChainlinkClient.sol\";\nimport \"@openzeppelin/contracts/utils/Strings.sol\";\nimport \"./interfaces/IPolicyToken.sol\";\n\ncontract PolicyFlow is ChainlinkClient, PolicyTypes, ToStrings {\n    using Chainlink for Chainlink.Request;\n    using Strings for uint256;\n\n    uint256 public oracleResponse; // A test variable to store the oracle address\n    uint256 fee;\n    string private FLIGHT_STATUS_URL = \"http://39.101.132.228:8000/live/\";\n    address private oracleAddress;\n    bytes32 private jobId;\n\n    mapping(bytes32 => uint256) requestList; // requestId => total order\n    mapping(uint256 => uint256) resultList; // total order => delay result\n\n    address public owner;\n    IInsurancePool insurancePool;\n    IPolicyToken policyToken;\n\n    // Minimum time before departure for applying\n    uint256 public constant MIN_TIME_BEFORE_DEPARTURE = 24 hours;\n    uint256 public DELAY_THRESHOLD = 240;\n    uint256 public Total_Policies;\n\n    // Mappings\n    mapping(bytes32 => PolicyInfo) policyList; // policyId => policyInfo\n    mapping(uint256 => bytes32) policyOrderList; // total order => policyId\n\n    mapping(address => uint256[]) userPolicy; // uint256[]: those totalOrders of a user\n    mapping(address => uint256) userPolicyCount; // userAddress => user policy amount\n\n    // Constructor Function\n    constructor(\n        IInsurancePool _insurancePool,\n        IPolicyToken _policyToken,\n        address _oracleAddress\n    ) {\n        // Set owner address\n        owner = msg.sender;\n\n        // Set two interfaces' addresses\n        insurancePool = _insurancePool;\n        policyToken = _policyToken;\n\n        // Set oracle address\n        oracleAddress = _oracleAddress;\n        jobId = \"cef74a7ff7ea4194ab97f00c89abef6b\";\n\n        setPublicChainlinkToken();\n        fee = 1 * 10**18; // 1 LINK\n\n        // Initialize the count (actually do not need to initialize)\n        Total_Policies = 0;\n    }\n\n    // ************************************ Modifiers ************************************ //\n\n    modifier onlyOracle() {\n        require(\n            msg.sender == oracleAddress,\n            \"only the oracle can call this function\"\n        );\n        _;\n    }\n    modifier onlyOwner() {\n        require(msg.sender == owner, \"only the owner can call this function\");\n        _;\n    }\n\n    // ************************************ View Functions ************************************ //\n\n    /**\n     * @notice Returns the address of the LINK token\n     * @dev This is the public implementation for chainlinkTokenAddress, which is\n     * an internal method of the ChainlinkClient contract\n     */\n    function getChainlinkToken() public view returns (address) {\n        return chainlinkTokenAddress();\n    }\n\n    /**\n     * @notice show a user's policies (all)\n     * @param _userAddress: user's address (buyer)\n     * @return user's policy details\n     */\n    function viewPolicy(address _userAddress)\n        public\n        view\n        returns (string memory)\n    {\n        require(userPolicyCount[_userAddress] > 0, \"no policy for this user\");\n\n        uint256 policyCount = userPolicyCount[_userAddress];\n        string memory result = \" \";\n        for (uint256 i = 0; i < policyCount; i++) {\n            uint256 policyOrder = userPolicy[_userAddress][i];\n\n            bytes32 policyid = policyOrderList[policyOrder];\n\n            string memory isUsed = policyList[policyid].isUsed\n                ? \"used\"\n                : \"not used\";\n\n            string memory result1 = encodePack1(\n                i,\n                policyList[policyid].flightNumber,\n                policyid,\n                policyList[policyid].productId,\n                policyList[policyid].buyerAddress\n            );\n            string memory result2 = encodePack2(\n                policyList[policyid].premium,\n                policyList[policyid].payoff,\n                policyList[policyid].purchaseDate,\n                policyList[policyid].departureDate,\n                policyList[policyid].landingDate,\n                uint256(policyList[policyid].status),\n                isUsed,\n                policyList[policyid].delayResult\n            );\n\n            result = string(abi.encodePacked(result, result1, result2));\n\n            // result = string(\n            //     abi.encodePacked(\n            //         result,\n            //         string(\n            //             abi.encodePacked(\n            //                 \"\\nPolicy\",\n            //                 i.toString(),\n            //                 \": \\n{PolicyId: \",\n            //                 bytes32ToString(policyid),\n            //                 \", \\nProductId: \",\n            //                 policyList[policyid].productId.toString(),\n            //                 \", \\nBuyerAddress: \",\n            //                 addressToString(policyList[policyid].buyerAddress),\n            //                 \", \\nPremium: \",\n            //                 (policyList[policyid].premium / 10**18).toString(),\n            //                 \", \\nPayoff: \",\n            //                 (policyList[policyid].payoff / 10**18).toString(),\n            //                 \", \\nPurchaseDate: \",\n            //                 (policyList[policyid].purchaseDate).toString(),\n            //                 \", \\nDepartureDate: \",\n            //                 (policyList[policyid].departureDate).toString(),\n            //                 \", \\nLandingDate: \",\n            //                 (policyList[policyid].landingDate).toString(),\n            //                 \", \\nStatus: \",\n            //                 uint256(policyList[policyid].status).toString(),\n            //                 \", \\nIsUsed: \",\n            //                 isUsed,\n            //                 \", \\nDelay Results: \",\n            //                 policyList[policyid].delayResult.toString(),\n            //                 \"}\"\n            //             )\n            //         )\n            //     )\n            // );\n        }\n        return result;\n    }\n\n    /**\n     * @notice get the policyId (bytes32) from its count/order\n     * @param _count: total count\n     * @return policyId (bytes32)\n     */\n    function getPolicyIdByCount(uint256 _count) public view returns (bytes32) {\n        return policyOrderList[_count];\n    }\n\n    /**\n     * @notice get the policyInfo from its count/order\n     * @param _count: total count\n     */\n    function getPolicyInfoByCount(uint256 _count)\n        public\n        view\n        returns (\n            string memory _flightNumber,\n            bytes32 _policyId,\n            uint256 _productId,\n            address _owner,\n            uint256 _premium,\n            uint256 _payoff,\n            uint256 _purchaseDate,\n            uint256 _departureDate,\n            uint256 _landingDate,\n            uint256 _policyStatus\n        )\n    {\n        bytes32 policyId = policyOrderList[_count];\n        return (\n            policyList[policyId].flightNumber,\n            policyId,\n            policyList[policyId].productId,\n            policyList[policyId].buyerAddress,\n            policyList[policyId].premium,\n            policyList[policyId].payoff,\n            policyList[policyId].purchaseDate,\n            policyList[policyId].departureDate,\n            policyList[policyId].landingDate,\n            uint256(policyList[policyId].status)\n        );\n    }\n\n    /**\n     * @notice get a user's policy amount\n     * @param _userAddress: user's address\n     */\n    function getUserPolicyCount(address _userAddress)\n        public\n        view\n        returns (uint256)\n    {\n        return userPolicyCount[_userAddress];\n    }\n\n    /**\n     * @notice get the policy buyer by policyId\n     */\n    function findPolicyBuyerById(bytes32 _policyId)\n        public\n        view\n        returns (address)\n    {\n        return policyList[_policyId].buyerAddress;\n    }\n\n    // ************************************ Helper Functions ************************************ //\n\n    /**\n     * @notice change the job id\n     * @param _jobId: new job Id\n     */\n    function changeJobId(bytes32 _jobId) public onlyOwner {\n        jobId = _jobId;\n    }\n\n    /**\n     * @notice change the oracle fee\n     * @param _fee: new fee\n     */\n    function changeFee(uint256 _fee) public onlyOwner {\n        fee = _fee;\n    }\n\n    /**\n     * @notice change the oracle address\n     * @param _oracleAddress: new oracle address\n     */\n    function changeOrcaleAddress(address _oracleAddress) public onlyOwner {\n        oracleAddress = _oracleAddress;\n    }\n\n    /**\n     * @notice set the new delay threshold\n     */\n    function setDelayThreshold(uint256 _threshold) public onlyOwner {\n        DELAY_THRESHOLD = _threshold;\n    }\n\n    // ************************************ Main Functions ************************************ //\n\n    /**\n     * @notice start a new policy application\n     * @param _userAddress: user's address (buyer)\n     * @param _productId: ID of the purchased product (0: flightdelay; 1,2,3...: others) (different products)\n     * @param _premium: premium of this policy (decimal 18)\n     * @param _payoff: payoff of this policy (decimal 18)\n     * @param _departureDate: expiry date of this policy (unix timestamp)\n     */\n    function newApplication(\n        address _userAddress,\n        uint256 _productId,\n        string memory _flightNumber,\n        uint256 _premium,\n        uint256 _payoff,\n        uint256 _departureDate,\n        uint256 _landingDate\n    ) public returns (bytes32 _policyId) {\n        // Check the buying time not too close to the departure time\n        require(\n            _departureDate >= block.timestamp + MIN_TIME_BEFORE_DEPARTURE,\n            \"ERROR::TIME_TO_DEPARTURE_TOO_SMALL\"\n        );\n\n        // Generate the unique policyId\n        bytes32 policyId = keccak256(\n            abi.encodePacked(\n                _userAddress,\n                _productId,\n                _departureDate,\n                Total_Policies\n            )\n        );\n\n        // Check the policy with the insurance pool status\n        // May be accepted or rejected\n        policyCheck(_premium, _payoff, _userAddress, policyId);\n\n        uint256 TEMP_purchaseDate = block.timestamp;\n\n        // Generate the policy\n        policyList[policyId] = PolicyInfo(\n            _productId,\n            _userAddress,\n            Total_Policies,\n            _flightNumber,\n            policyId,\n            _premium,\n            _payoff,\n            TEMP_purchaseDate,\n            _departureDate,\n            _landingDate,\n            PolicyStatus.INI,\n            false,\n            404\n        );\n\n        // Store the policy's total order with userAddress\n        userPolicy[_userAddress].push(Total_Policies);\n        // Update the user's policy amount\n        userPolicyCount[_userAddress] += 1;\n        // Update the policyOrderList\n        policyOrderList[Total_Policies] = policyId;\n        // Update total policies\n        Total_Policies += 1;\n\n        emit newPolicyApplication(policyId, _userAddress);\n\n        return policyId;\n    }\n\n    /** @notice calculate the flight status\n     *  @param _policyOrder The total order of the policy\n     *  @param _flightNumber The flight number\n     *  @param _date The flight date\n     *  @param _path Which data in json needs to get\n     *  @param _forceUpdate Owner can force to update\n     */\n    function newClaimRequest(\n        uint256 _policyOrder,\n        string memory _flightNumber,\n        string memory _date,\n        string memory _path,\n        bool _forceUpdate\n    ) public onlyOwner {\n        bytes32 _policyId = policyOrderList[_policyOrder];\n        require(\n            block.timestamp >= policyList[_policyId].landingDate,\n            \"can only claim a policy after its landing\"\n        );\n        require(\n            (!policyList[_policyId].isUsed) ||\n                (_forceUpdate && (msg.sender == owner)),\n            \"The policy has been final checked, or you need to force update\"\n        );\n        require(\n            keccak256(abi.encodePacked(_flightNumber)) ==\n                keccak256(abi.encodePacked(policyList[_policyId].flightNumber)),\n            \"wrong flight number provided\"\n        );\n\n        string memory _url = string(\n            abi.encodePacked(\n                FLIGHT_STATUS_URL,\n                _flightNumber,\n                \"/timestamp=\",\n                _date\n            )\n        );\n        bytes32 requestId = createRequestTo(\n            oracleAddress,\n            jobId,\n            fee,\n            _url,\n            _path,\n            1\n        );\n        requestList[requestId] = _policyOrder;\n        policyList[_policyId].isUsed = true;\n    }\n\n    /**\n     * @notice check the policy and then determine whether we can afford it\n     * @param _payoff: the payoff of the policy sold\n     * @param _userAddress: user's address\n     * @param _policyId: the unique policy ID\n     */\n    function policyCheck(\n        uint256 _premium,\n        uint256 _payoff,\n        address _userAddress,\n        bytes32 _policyId\n    ) internal {\n        // Whether there are enough capacity in the pool\n        bool _isAccepted = insurancePool.checkCapacity(_payoff);\n\n        if (_isAccepted) {\n            insurancePool.updateWhenBuy(_premium, _payoff, _userAddress);\n            policyList[_policyId].status = PolicyStatus.SOLD;\n            emit PolicySold(_policyId, _userAddress);\n\n            policyToken.mintPolicyToken(_userAddress);\n        } else {\n            policyList[_policyId].status = PolicyStatus.DECLINED;\n            emit PolicyDeclined(_policyId, _userAddress);\n            revert(\"not sufficient capacity in the insurance pool\");\n        }\n    }\n\n    /**\n     * @notice Creates a request to the specified Oracle contract address\n     * @dev This function ignores the stored Oracle contract address and\n     * will instead send the request to the address specified\n     * @param _oracle The Oracle contract address to send the request to\n     * @param _jobId The bytes32 JobID to be executed\n     * @param _url The URL to fetch data from\n     * @param _path The dot-delimited path to parse of the response\n     * @param _times The number to multiply the result by\n     */\n    function createRequestTo(\n        address _oracle,\n        bytes32 _jobId,\n        uint256 _payment,\n        string memory _url,\n        string memory _path,\n        int256 _times\n    ) private returns (bytes32) {\n        Chainlink.Request memory req = buildChainlinkRequest(\n            _jobId,\n            address(this),\n            this.fulfill.selector\n        );\n        req.add(\"url\", _url);\n        req.add(\"path\", _path);\n        req.addInt(\"times\", _times);\n        return sendChainlinkRequestTo(_oracle, req, _payment);\n    }\n\n    /**\n     * @notice The fulfill method from requests created by this contract\n     * @dev The recordChainlinkFulfillment protects this function from being called\n     * by anyone other than the oracle address that the request was sent to\n     * @param _requestId The ID that was generated for the request\n     * @param _data The answer provided by the oracle\n     */\n    function fulfill(bytes32 _requestId, uint256 _data)\n        public\n        recordChainlinkFulfillment(_requestId)\n    {\n        oracleResponse = _data;\n\n        uint256 order = requestList[_requestId];\n        bytes32 policyId = policyOrderList[order];\n        policyList[policyId].delayResult = _data;\n\n        if (_data == 0) {\n            // 0: on time\n            policyExpired(\n                policyList[policyId].premium,\n                policyList[policyId].payoff,\n                policyList[policyId].buyerAddress,\n                policyId\n            );\n        } else if (_data <= DELAY_THRESHOLD) {\n            uint256 payoff = calcPayoff(_data);\n            if (payoff < policyList[policyId].payoff) {\n                policyClaimed(\n                    policyList[policyId].premium,\n                    payoff,\n                    policyList[policyId].buyerAddress,\n                    policyId\n                );\n            } else {\n                policyClaimed(\n                    policyList[policyId].premium,\n                    policyList[policyId].payoff,\n                    policyList[policyId].buyerAddress,\n                    policyId\n                );\n            }\n        } else if (_data == 400) {\n            // 400: cancelled\n            policyClaimed(\n                policyList[policyId].premium,\n                policyList[policyId].payoff,\n                policyList[policyId].buyerAddress,\n                policyId\n            );\n        } else {\n            policyExpired(\n                policyList[policyId].premium,\n                policyList[policyId].payoff,\n                policyList[policyId].buyerAddress,\n                policyId\n            );\n        }\n\n        emit FulfilledOracleRequest(policyId, _requestId);\n    }\n\n    /**\n     * @notice update the policy when it is expired\n     * @param _premium: the premium of the policy sold\n     * @param _payoff: the payoff of the policy sold\n     * @param _userAddress: user's address\n     * @param _policyId: the unique policy ID\n     */\n    function policyExpired(\n        uint256 _premium,\n        uint256 _payoff,\n        address _userAddress,\n        bytes32 _policyId\n    ) internal {\n        insurancePool.updateWhenExpire(_premium, _payoff);\n        policyList[_policyId].status = PolicyStatus.EXPIRED;\n        emit PolicyExpired(_policyId, _userAddress);\n    }\n\n    /**\n     * @notice update the policy when it is claimed\n     * @param _premium: the premium of the policy sold\n     * @param _payoff: the payoff of the policy sold\n     * @param _userAddress: user's address\n     * @param _policyId: the unique policy ID\n     */\n    function policyClaimed(\n        uint256 _premium,\n        uint256 _payoff,\n        address _userAddress,\n        bytes32 _policyId\n    ) internal {\n        insurancePool.payClaim(_premium, _payoff, _userAddress);\n        policyList[_policyId].status = PolicyStatus.CLAIMED;\n        emit PolicyClaimed(_policyId, _userAddress);\n    }\n\n    /**\n     * @notice The payoff formula\n     * @param _delay Delay in minutes\n     * @return the final payoff volume\n     */\n    function calcPayoff(uint256 _delay) internal pure returns (uint256) {\n        uint256 payoff = 0;\n\n        // payoff model 1 - linear\n        if (_delay <= 60) {\n            payoff = _delay;\n        } else if (_delay > 60 && _delay <= 120) {\n            payoff = 60 + (_delay - 60) * 2;\n        } else if (_delay > 120 && _delay <= 240) {\n            payoff = 180 + (_delay - 120) * 3;\n        }\n\n        payoff = payoff * 1e18;\n        return payoff;\n    }\n\n    function policyOwnerTransfer(\n        uint256 _tokenId,\n        address _oldOwner,\n        address _newOwner\n    ) external {\n        require(\n            msg.sender == address(policyToken),\n            \"only called from the policy token contract\"\n        );\n\n        bytes32 policyId = policyOrderList[_tokenId];\n        require(\n            _oldOwner == policyList[policyId].buyerAddress,\n            \"the previous owner is wrong\"\n        );\n\n        policyList[policyId].buyerAddress = _newOwner;\n        emit PolicyOwnerTransfer(_tokenId, _newOwner);\n    }\n\n    function encodePack1(\n        uint256 _order,\n        string memory _flightNumber,\n        bytes32 _policyId,\n        uint256 _productId,\n        address _userAddress\n    ) internal pure returns (string memory _result1) {\n        _result1 = string(\n            abi.encodePacked(\n                \"\\nPolicy\",\n                _order.toString(),\n                \": \\n{FlightNumber: \",\n                _flightNumber,\n                \": \\nPolicyId: \",\n                bytes32ToString(_policyId),\n                \", \\nProductId: \",\n                _productId.toString(),\n                \", \\nBuyerAddress: \",\n                addressToString(_userAddress)\n            )\n        );\n    }\n\n    function encodePack2(\n        uint256 _premium,\n        uint256 _payoff,\n        uint256 _purchaseDate,\n        uint256 _departureDate,\n        uint256 _landingDate,\n        uint256 _status,\n        string memory _isUsed,\n        uint256 _delayResult\n    ) internal pure returns (string memory _result2) {\n        _result2 = string(\n            abi.encodePacked(\n                \", \\nPremium: \",\n                (_premium / 10**18).toString(),\n                \", \\nPayoff: \",\n                (_payoff / 10**18).toString(),\n                \", \\nPurchaseDate: \",\n                (_purchaseDate).toString(),\n                \", \\nDepartureDate: \",\n                (_departureDate).toString(),\n                \", \\nLandingDate: \",\n                (_landingDate).toString(),\n                \", \\nStatus: \",\n                uint256(_status).toString(),\n                \", \\nIsUsed: \",\n                _isUsed,\n                \", \\nDelay Results: \",\n                _delayResult.toString(),\n                \"}\"\n            )\n        );\n    }\n}\n",
  "sourcePath": "/Users/liyang/src/Degis-Contracts-1/contracts/PolicyFlow.sol",
  "compiler": {
    "name": "solc",
    "version": "0.8.5+commit.a4f2e591.Emscripten.clang"
  },
  "schemaVersion": "3.4.3",
  "updatedAt": "2021-10-14T07:40:02.702Z",
  "devdoc": {
    "kind": "dev",
    "methods": {
      "addressToString(address)": {
        "params": {
          "_addr": ": input address"
        },
        "returns": {
          "_0": "string form of _addr"
        }
      },
      "bytes32ToHumanString(bytes32)": {
        "params": {
          "_bytes": ": input bytes32"
        },
        "returns": {
          "_0": "string form of _bytes"
        }
      },
      "bytes32ToString(bytes32)": {
        "params": {
          "_bytes": ": input bytes32"
        },
        "returns": {
          "_0": "string form of _bytes"
        }
      },
      "bytesToUint(bytes32)": {
        "params": {
          "s": "input bytes"
        },
        "returns": {
          "_0": "the number"
        }
      },
      "changeFee(uint256)": {
        "params": {
          "_fee": ": new fee"
        }
      },
      "changeJobId(bytes32)": {
        "params": {
          "_jobId": ": new job Id"
        }
      },
      "changeOrcaleAddress(address)": {
        "params": {
          "_oracleAddress": ": new oracle address"
        }
      },
      "fulfill(bytes32,uint256)": {
        "details": "The recordChainlinkFulfillment protects this function from being called by anyone other than the oracle address that the request was sent to",
        "params": {
          "_data": "The answer provided by the oracle",
          "_requestId": "The ID that was generated for the request"
        }
      },
      "getChainlinkToken()": {
        "details": "This is the public implementation for chainlinkTokenAddress, which is an internal method of the ChainlinkClient contract"
      },
      "getPolicyIdByCount(uint256)": {
        "params": {
          "_count": ": total count"
        },
        "returns": {
          "_0": "policyId (bytes32)"
        }
      },
      "getPolicyInfoByCount(uint256)": {
        "params": {
          "_count": ": total count"
        }
      },
      "getUserPolicyCount(address)": {
        "params": {
          "_userAddress": ": user's address"
        }
      },
      "newApplication(address,uint256,string,uint256,uint256,uint256,uint256)": {
        "params": {
          "_departureDate": ": expiry date of this policy (unix timestamp)",
          "_payoff": ": payoff of this policy (decimal 18)",
          "_premium": ": premium of this policy (decimal 18)",
          "_productId": ": ID of the purchased product (0: flightdelay; 1,2,3...: others) (different products)",
          "_userAddress": ": user's address (buyer)"
        }
      },
      "newClaimRequest(uint256,string,string,string,bool)": {
        "params": {
          "_date": "The flight date",
          "_flightNumber": "The flight number",
          "_forceUpdate": "Owner can force to update",
          "_path": "Which data in json needs to get",
          "_policyOrder": "The total order of the policy"
        }
      },
      "viewPolicy(address)": {
        "params": {
          "_userAddress": ": user's address (buyer)"
        },
        "returns": {
          "_0": "user's policy details"
        }
      }
    },
    "version": 1
  },
  "userdoc": {
    "kind": "user",
    "methods": {
      "addressToString(address)": {
        "notice": "transfer an address to a string"
      },
      "bytes32ToHumanString(bytes32)": {
        "notice": "transfer bytes32 to string (human-readable form)"
      },
      "bytes32ToString(bytes32)": {
        "notice": "transfer bytes32 to string (not change the content)"
      },
      "bytesToUint(bytes32)": {
        "notice": "Transfer a bytes(ascii) to uint"
      },
      "changeFee(uint256)": {
        "notice": "change the oracle fee"
      },
      "changeJobId(bytes32)": {
        "notice": "change the job id"
      },
      "changeOrcaleAddress(address)": {
        "notice": "change the oracle address"
      },
      "findPolicyBuyerById(bytes32)": {
        "notice": "get the policy buyer by policyId"
      },
      "fulfill(bytes32,uint256)": {
        "notice": "The fulfill method from requests created by this contract"
      },
      "getChainlinkToken()": {
        "notice": "Returns the address of the LINK token"
      },
      "getPolicyIdByCount(uint256)": {
        "notice": "get the policyId (bytes32) from its count/order"
      },
      "getPolicyInfoByCount(uint256)": {
        "notice": "get the policyInfo from its count/order"
      },
      "getUserPolicyCount(address)": {
        "notice": "get a user's policy amount"
      },
      "newApplication(address,uint256,string,uint256,uint256,uint256,uint256)": {
        "notice": "start a new policy application"
      },
      "newClaimRequest(uint256,string,string,string,bool)": {
        "notice": "calculate the flight status"
      },
      "setDelayThreshold(uint256)": {
        "notice": "set the new delay threshold"
      },
      "viewPolicy(address)": {
        "notice": "show a user's policies (all)"
      }
    },
    "version": 1
  }
}