{
  "contractName": "RandomNumberGenerator",
  "abi": [
    {
      "inputs": [
        {
          "internalType": "address",
          "name": "_vrfCoordinator",
          "type": "address"
        },
        {
          "internalType": "address",
          "name": "_linkToken",
          "type": "address"
        },
        {
          "internalType": "bytes32",
          "name": "_keyHash",
          "type": "bytes32"
        }
      ],
      "stateMutability": "nonpayable",
      "type": "constructor"
    },
    {
      "anonymous": false,
      "inputs": [
        {
          "indexed": true,
          "internalType": "address",
          "name": "previousOwner",
          "type": "address"
        },
        {
          "indexed": true,
          "internalType": "address",
          "name": "newOwner",
          "type": "address"
        }
      ],
      "name": "OwnershipTransferred",
      "type": "event"
    },
    {
      "inputs": [],
      "name": "DegisLottery",
      "outputs": [
        {
          "internalType": "address",
          "name": "",
          "type": "address"
        }
      ],
      "stateMutability": "view",
      "type": "function",
      "constant": true
    },
    {
      "inputs": [],
      "name": "fee",
      "outputs": [
        {
          "internalType": "uint256",
          "name": "",
          "type": "uint256"
        }
      ],
      "stateMutability": "view",
      "type": "function",
      "constant": true
    },
    {
      "inputs": [],
      "name": "keyHash",
      "outputs": [
        {
          "internalType": "bytes32",
          "name": "",
          "type": "bytes32"
        }
      ],
      "stateMutability": "view",
      "type": "function",
      "constant": true
    },
    {
      "inputs": [],
      "name": "latestLotteryId",
      "outputs": [
        {
          "internalType": "uint256",
          "name": "",
          "type": "uint256"
        }
      ],
      "stateMutability": "view",
      "type": "function",
      "constant": true
    },
    {
      "inputs": [],
      "name": "latestRequestId",
      "outputs": [
        {
          "internalType": "bytes32",
          "name": "",
          "type": "bytes32"
        }
      ],
      "stateMutability": "view",
      "type": "function",
      "constant": true
    },
    {
      "inputs": [],
      "name": "owner",
      "outputs": [
        {
          "internalType": "address",
          "name": "",
          "type": "address"
        }
      ],
      "stateMutability": "view",
      "type": "function",
      "constant": true
    },
    {
      "inputs": [],
      "name": "randomResult",
      "outputs": [
        {
          "internalType": "uint32",
          "name": "",
          "type": "uint32"
        }
      ],
      "stateMutability": "view",
      "type": "function",
      "constant": true
    },
    {
      "inputs": [
        {
          "internalType": "bytes32",
          "name": "requestId",
          "type": "bytes32"
        },
        {
          "internalType": "uint256",
          "name": "randomness",
          "type": "uint256"
        }
      ],
      "name": "rawFulfillRandomness",
      "outputs": [],
      "stateMutability": "nonpayable",
      "type": "function"
    },
    {
      "inputs": [],
      "name": "renounceOwnership",
      "outputs": [],
      "stateMutability": "nonpayable",
      "type": "function"
    },
    {
      "inputs": [
        {
          "internalType": "address",
          "name": "newOwner",
          "type": "address"
        }
      ],
      "name": "transferOwnership",
      "outputs": [],
      "stateMutability": "nonpayable",
      "type": "function"
    },
    {
      "inputs": [],
      "name": "getRandomNumber",
      "outputs": [],
      "stateMutability": "nonpayable",
      "type": "function"
    },
    {
      "inputs": [
        {
          "internalType": "uint256",
          "name": "_fee",
          "type": "uint256"
        }
      ],
      "name": "setFee",
      "outputs": [],
      "stateMutability": "nonpayable",
      "type": "function"
    },
    {
      "inputs": [
        {
          "internalType": "bytes32",
          "name": "_keyHash",
          "type": "bytes32"
        }
      ],
      "name": "setKeyHash",
      "outputs": [],
      "stateMutability": "nonpayable",
      "type": "function"
    },
    {
      "inputs": [
        {
          "internalType": "address",
          "name": "_degisLottery",
          "type": "address"
        }
      ],
      "name": "setLotteryAddress",
      "outputs": [],
      "stateMutability": "nonpayable",
      "type": "function"
    },
    {
      "inputs": [
        {
          "internalType": "address",
          "name": "_tokenAddress",
          "type": "address"
        },
        {
          "internalType": "uint256",
          "name": "_tokenAmount",
          "type": "uint256"
        }
      ],
      "name": "withdrawTokens",
      "outputs": [],
      "stateMutability": "nonpayable",
      "type": "function"
    },
    {
      "inputs": [],
      "name": "viewLatestLotteryId",
      "outputs": [
        {
          "internalType": "uint256",
          "name": "",
          "type": "uint256"
        }
      ],
      "stateMutability": "view",
      "type": "function",
      "constant": true
    },
    {
      "inputs": [],
      "name": "viewRandomResult",
      "outputs": [
        {
          "internalType": "uint32",
          "name": "",
          "type": "uint32"
        }
      ],
      "stateMutability": "view",
      "type": "function",
      "constant": true
    }
  ],
  "bytecode": "0x60c060405234801561001057600080fd5b506040516113ba3803806113ba83398101604081905261002f916100ea565b6c01000000000000000000000000600160a060020a03808516820260a05283160260805260006100666401000000006100ca810204565b60018054600160a060020a031916600160a060020a038316908117909155604051919250906000907f8be0079c531659141344cd1fd0a4f28419497f9722a3daafe3b4186f6b6457e0908290a3506003555050670de0b6b3a7640000600655610126565b3390565b8051600160a060020a03811681146100e557600080fd5b919050565b6000806000606084860312156100ff57600080fd5b610108846100ce565b9250610116602085016100ce565b9150604084015190509250925092565b6080516c01000000000000000000000000900460a0516c010000000000000000000000009004611241610179600039600081816105350152610ba301526000818161071f0152610b6701526112416000f3fe608060405234801561001057600080fd5b5060043610610138576000357c01000000000000000000000000000000000000000000000000000000009004806394985ddd116100cf578063dbdff2c11161009e578063eed8e1ee11610083578063eed8e1ee1461026e578063f2fde38b14610277578063fbe5d9171461028a57600080fd5b8063dbdff2c11461025d578063ddca3f431461026557600080fd5b806394985ddd14610209578063985447101461021c578063a1c4f55a1461022f578063d581b5b61461023d57600080fd5b806361728f391161010b57806361728f39146101a657806369fe0e2d146101af578063715018a6146101c25780638da5cb5b146101ca57600080fd5b806306b091f91461013d5780631aa46f59146101525780632a332b2a1461016e57806342619f6614610181575b600080fd5b61015061014b366004611008565b610292565b005b61015b60045481565b6040519081526020015b60405180910390f35b61015061017c366004610fed565b61032b565b6005546101919063ffffffff1681565b60405163ffffffff9091168152602001610165565b61015b60035481565b6101506101bd366004611054565b6103d6565b61015061044a565b60015473ffffffffffffffffffffffffffffffffffffffff165b60405173ffffffffffffffffffffffffffffffffffffffff9091168152602001610165565b61015061021736600461106d565b61051d565b61015061022a366004611054565b6105b4565b60055463ffffffff16610191565b6002546101e49073ffffffffffffffffffffffffffffffffffffffff1681565b610150610628565b61015b60065481565b61015b60075481565b610150610285366004610fed565b610817565b60075461015b565b60015473ffffffffffffffffffffffffffffffffffffffff163314610306576040516000805160206111ec833981519152815260206004820181905260248201527f4f776e61626c653a2063616c6c6572206973206e6f7420746865206f776e657260448201526064015b60405180910390fd5b61032773ffffffffffffffffffffffffffffffffffffffff8316338361099a565b5050565b60015473ffffffffffffffffffffffffffffffffffffffff16331461039a576040516000805160206111ec833981519152815260206004820181905260248201527f4f776e61626c653a2063616c6c6572206973206e6f7420746865206f776e657260448201526064016102fd565b6002805473ffffffffffffffffffffffffffffffffffffffff191673ffffffffffffffffffffffffffffffffffffffff92909216919091179055565b60015473ffffffffffffffffffffffffffffffffffffffff163314610445576040516000805160206111ec833981519152815260206004820181905260248201527f4f776e61626c653a2063616c6c6572206973206e6f7420746865206f776e657260448201526064016102fd565b600655565b60015473ffffffffffffffffffffffffffffffffffffffff1633146104b9576040516000805160206111ec833981519152815260206004820181905260248201527f4f776e61626c653a2063616c6c6572206973206e6f7420746865206f776e657260448201526064016102fd565b60015460405160009173ffffffffffffffffffffffffffffffffffffffff16907f8be0079c531659141344cd1fd0a4f28419497f9722a3daafe3b4186f6b6457e0908390a36001805473ffffffffffffffffffffffffffffffffffffffff19169055565b3373ffffffffffffffffffffffffffffffffffffffff7f000000000000000000000000000000000000000000000000000000000000000016146105aa576040516000805160206111ec833981519152815260206004820152601f60248201527f4f6e6c7920565246436f6f7264696e61746f722063616e2066756c66696c6c0060448201526064016102fd565b6103278282610a2c565b60015473ffffffffffffffffffffffffffffffffffffffff163314610623576040516000805160206111ec833981519152815260206004820181905260248201527f4f776e61626c653a2063616c6c6572206973206e6f7420746865206f776e657260448201526064016102fd565b600355565b60025473ffffffffffffffffffffffffffffffffffffffff163314610697576040516000805160206111ec833981519152815260206004820152601160248201527f4f6e6c792044656769734c6f747465727900000000000000000000000000000060448201526064016102fd565b6003546106ee576040516000805160206111ec833981519152815260206004820152601860248201527f4d75737420686176652076616c6964206b65792068617368000000000000000060448201526064016102fd565b6006546040517f70a082310000000000000000000000000000000000000000000000000000000081523060048201527f000000000000000000000000000000000000000000000000000000000000000073ffffffffffffffffffffffffffffffffffffffff16906370a082319060240160206040518083038186803b15801561077657600080fd5b505afa15801561078a573d6000803e3d6000fd5b505050506040513d601f19601f820116820180604052508101906107ae919061108f565b1015610804576040516000805160206111ec833981519152815260206004820152601660248201527f4e6f7420656e6f756768204c494e4b20746f6b656e730000000000000000000060448201526064016102fd565b610812600354600654610b63565b600455565b60015473ffffffffffffffffffffffffffffffffffffffff163314610886576040516000805160206111ec833981519152815260206004820181905260248201527f4f776e61626c653a2063616c6c6572206973206e6f7420746865206f776e657260448201526064016102fd565b73ffffffffffffffffffffffffffffffffffffffff8116610917576040516000805160206111ec833981519152815260206004820152602660248201527f4f776e61626c653a206e6577206f776e657220697320746865207a65726f206160448201527f646472657373000000000000000000000000000000000000000000000000000060648201526084016102fd565b60015460405173ffffffffffffffffffffffffffffffffffffffff8084169216907f8be0079c531659141344cd1fd0a4f28419497f9722a3daafe3b4186f6b6457e090600090a36001805473ffffffffffffffffffffffffffffffffffffffff191673ffffffffffffffffffffffffffffffffffffffff92909216919091179055565b6040805173ffffffffffffffffffffffffffffffffffffffff8416602482015260448082018490528251808303909101815260649091019091526020810180517bffffffffffffffffffffffffffffffffffffffffffffffffffffffff167fa9059cbb00000000000000000000000000000000000000000000000000000000179052610a27908490610d13565b505050565b8160045414610a85576040516000805160206111ec833981519152815260206004820152600f60248201527f57726f6e6720726571756573744964000000000000000000000000000000000060448201526064016102fd565b610a91612710826111b0565b610a9d90612710611141565b6005805463ffffffff191663ffffffff92909216919091179055600254604080517f80a06160000000000000000000000000000000000000000000000000000000008152905173ffffffffffffffffffffffffffffffffffffffff909216916380a06160916004808201926020929091908290030181600087803b158015610b2457600080fd5b505af1158015610b38573d6000803e3d6000fd5b505050506040513d601f19601f82011682018060405250810190610b5c919061108f565b6007555050565b60007f000000000000000000000000000000000000000000000000000000000000000073ffffffffffffffffffffffffffffffffffffffff16634000aea07f000000000000000000000000000000000000000000000000000000000000000084866000604051602001610be0929190918252602082015260400190565b60408051601f19818403018152908290527c010000000000000000000000000000000000000000000000000000000063ffffffff8616028252610c279392916004016110f0565b602060405180830381600087803b158015610c4157600080fd5b505af1158015610c55573d6000803e3d6000fd5b505050506040513d601f19601f82011682018060405250810190610c799190611032565b5060008381526020818152604080832054815180840188905280830185905230606082015260808082018390528351808303909101815260a090910190925281519183019190912086845292909152610cd3906001611141565b6000858152602081815260409182902092909255805180830187905280820184905281518082038301815260609091019091528051910120949350505050565b6000610d75826040518060400160405280602081526020017f5361666545524332303a206c6f772d6c6576656c2063616c6c206661696c65648152508573ffffffffffffffffffffffffffffffffffffffff16610e0d9092919063ffffffff16565b805190915015610a275780806020019051810190610d939190611032565b610a27576040516000805160206111ec833981519152815260206004820152602a60248201527f5361666545524332303a204552433230206f7065726174696f6e20646964206e60448201527f6f7420737563636565640000000000000000000000000000000000000000000060648201526084016102fd565b6060610e1c8484600085610e26565b90505b9392505050565b60603031831115610ea7576040516000805160206111ec833981519152815260206004820152602660248201527f416464726573733a20696e73756666696369656e742062616c616e636520666f60448201527f722063616c6c000000000000000000000000000000000000000000000000000060648201526084016102fd565b843b610efd576040516000805160206111ec833981519152815260206004820152601d60248201527f416464726573733a2063616c6c20746f206e6f6e2d636f6e747261637400000060448201526064016102fd565b6000808673ffffffffffffffffffffffffffffffffffffffff168587604051610f2691906110d4565b60006040518083038185875af1925050503d8060008114610f63576040519150601f19603f3d011682016040523d82523d6000602084013e610f68565b606091505b5091509150610f78828286610f83565b979650505050505050565b60608315610f92575081610e1f565b825115610fa25782518084602001fd5b816040516000805160206111ec83398151915281526004016102fd919061112e565b803573ffffffffffffffffffffffffffffffffffffffff81168114610fe857600080fd5b919050565b600060208284031215610fff57600080fd5b610e1f82610fc4565b6000806040838503121561101b57600080fd5b61102483610fc4565b946020939093013593505050565b60006020828403121561104457600080fd5b81518015158114610e1f57600080fd5b60006020828403121561106657600080fd5b5035919050565b6000806040838503121561108057600080fd5b50508035926020909101359150565b6000602082840312156110a157600080fd5b5051919050565b600081518084526110c0816020860160208601611180565b601f01601f19169290920160200192915050565b600082516110e6818460208701611180565b9190910192915050565b73ffffffffffffffffffffffffffffffffffffffff8416815282602082015260606040820152600061112560608301846110a8565b95945050505050565b602081526000610e1f60208301846110a8565b6000821982111561117b577f4e487b7100000000000000000000000000000000000000000000000000000000600052601160045260246000fd5b500190565b60005b8381101561119b578181015183820152602001611183565b838111156111aa576000848401525b50505050565b6000826111e6577f4e487b7100000000000000000000000000000000000000000000000000000000600052601260045260246000fd5b50069056fe08c379a000000000000000000000000000000000000000000000000000000000a2646970667358221220b603f4fadeb8b4f37b68002bc39d377a51bebd161d6f6c88a6d0fb9032d7528664736f6c63430008050033",
  "immutableReferences": {
    "73": [
      {
        "length": 32,
        "start": 1823
      },
      {
        "length": 32,
        "start": 2919
      }
    ],
    "75": [
      {
        "length": 32,
        "start": 1333
      },
      {
        "length": 32,
        "start": 2979
      }
    ]
  },
  "source": "// SPDX-License-Identifier: MIT\r\npragma solidity ^0.8.0;\r\n\r\nimport \"@openzeppelin/contracts/access/Ownable.sol\";\r\nimport \"@openzeppelin/contracts/utils/Address.sol\";\r\nimport \"@chainlink/contracts/src/v0.8/VRFConsumerBase.sol\";\r\nimport \"./interfaces/IRandomNumberGenerator.sol\";\r\nimport \"./interfaces/IDegisLottery.sol\";\r\nimport \"@openzeppelin/contracts/token/ERC20/utils/SafeERC20.sol\";\r\n\r\ncontract RandomNumberGenerator is\r\n    VRFConsumerBase,\r\n    IRandomNumberGenerator,\r\n    Ownable\r\n{\r\n    using SafeERC20 for IERC20;\r\n\r\n    address public DegisLottery;\r\n    bytes32 public keyHash;\r\n    bytes32 public latestRequestId;\r\n    uint32 public randomResult;\r\n    uint256 public fee;\r\n    uint256 public latestLotteryId;\r\n\r\n    /**\r\n     * @notice Constructor\r\n     * @dev RandomNumberGenerator must be deployed before the lottery.\r\n     * Once the lottery contract is deployed, setLotteryAddress must be called.\r\n     * https://docs.chain.link/docs/vrf-contracts/\r\n     * @param _vrfCoordinator: address of the VRF coordinator\r\n     * @param _linkToken: address of the LINK token\r\n     */\r\n    constructor(\r\n        address _vrfCoordinator,\r\n        address _linkToken,\r\n        bytes32 _keyHash\r\n    ) VRFConsumerBase(_vrfCoordinator, _linkToken) {\r\n        keyHash = _keyHash;\r\n        fee = 0.1 * 10e18;\r\n    }\r\n\r\n    /**\r\n     * @notice Request randomness from Chainlink VRF\r\n     */\r\n    function getRandomNumber() external override {\r\n        require(msg.sender == DegisLottery, \"Only DegisLottery\");\r\n        require(keyHash != bytes32(0), \"Must have valid key hash\");\r\n        require(LINK.balanceOf(address(this)) >= fee, \"Not enough LINK tokens\");\r\n\r\n        latestRequestId = requestRandomness(keyHash, fee);\r\n    }\r\n\r\n    /**\r\n     * @notice Change the fee\r\n     * @param _fee: new fee (in LINK)\r\n     */\r\n    function setFee(uint256 _fee) external onlyOwner {\r\n        fee = _fee;\r\n    }\r\n\r\n    /**\r\n     * @notice Change the keyHash\r\n     * @param _keyHash: new keyHash\r\n     */\r\n    function setKeyHash(bytes32 _keyHash) external onlyOwner {\r\n        keyHash = _keyHash;\r\n    }\r\n\r\n    /**\r\n     * @notice Set the address for the DegisLottery\r\n     * @param _degisLottery: address of the PancakeSwap lottery\r\n     */\r\n    function setLotteryAddress(address _degisLottery) external onlyOwner {\r\n        DegisLottery = _degisLottery;\r\n    }\r\n\r\n    /**\r\n     * @notice It allows the admin to withdraw tokens sent to the contract\r\n     * @param _tokenAddress: the address of the token to withdraw\r\n     * @param _tokenAmount: the number of token amount to withdraw\r\n     * @dev Only callable by owner.\r\n     */\r\n    function withdrawTokens(address _tokenAddress, uint256 _tokenAmount)\r\n        external\r\n        onlyOwner\r\n    {\r\n        IERC20(_tokenAddress).safeTransfer(address(msg.sender), _tokenAmount);\r\n    }\r\n\r\n    /**\r\n     * @notice View latestLotteryId\r\n     */\r\n    function viewLatestLotteryId() external view override returns (uint256) {\r\n        return latestLotteryId;\r\n    }\r\n\r\n    /**\r\n     * @notice View random result\r\n     */\r\n    function viewRandomResult() external view override returns (uint32) {\r\n        return randomResult;\r\n    }\r\n\r\n    /**\r\n     * @notice Callback function used by ChainLink's VRF Coordinator\r\n     */\r\n    function fulfillRandomness(bytes32 requestId, uint256 randomness)\r\n        internal\r\n        override\r\n    {\r\n        require(latestRequestId == requestId, \"Wrong requestId\");\r\n        randomResult = uint32(10000 + (randomness % 10000));\r\n        latestLotteryId = IDegisLottery(DegisLottery).viewCurrentLotteryId();\r\n    }\r\n}\r\n",
  "sourcePath": "D:\\src\\Degis-Lucky\\contracts\\RandomNumberGenerator.sol",
  "compiler": {
    "name": "solc",
    "version": "0.8.5+commit.a4f2e591.Emscripten.clang"
  },
  "schemaVersion": "3.4.3",
  "updatedAt": "2021-10-13T07:01:27.848Z",
  "networkType": "ethereum",
  "devdoc": {
    "kind": "dev",
    "methods": {
      "constructor": {
        "details": "RandomNumberGenerator must be deployed before the lottery. Once the lottery contract is deployed, setLotteryAddress must be called. https://docs.chain.link/docs/vrf-contracts/",
        "params": {
          "_linkToken": ": address of the LINK token",
          "_vrfCoordinator": ": address of the VRF coordinator"
        }
      },
      "owner()": {
        "details": "Returns the address of the current owner."
      },
      "renounceOwnership()": {
        "details": "Leaves the contract without owner. It will not be possible to call `onlyOwner` functions anymore. Can only be called by the current owner. NOTE: Renouncing ownership will leave the contract without an owner, thereby removing any functionality that is only available to the owner."
      },
      "setFee(uint256)": {
        "params": {
          "_fee": ": new fee (in LINK)"
        }
      },
      "setKeyHash(bytes32)": {
        "params": {
          "_keyHash": ": new keyHash"
        }
      },
      "setLotteryAddress(address)": {
        "params": {
          "_degisLottery": ": address of the PancakeSwap lottery"
        }
      },
      "transferOwnership(address)": {
        "details": "Transfers ownership of the contract to a new account (`newOwner`). Can only be called by the current owner."
      },
      "withdrawTokens(address,uint256)": {
        "details": "Only callable by owner.",
        "params": {
          "_tokenAddress": ": the address of the token to withdraw",
          "_tokenAmount": ": the number of token amount to withdraw"
        }
      }
    },
    "version": 1
  },
  "userdoc": {
    "kind": "user",
    "methods": {
      "constructor": {
        "notice": "Constructor"
      },
      "getRandomNumber()": {
        "notice": "Request randomness from Chainlink VRF"
      },
      "setFee(uint256)": {
        "notice": "Change the fee"
      },
      "setKeyHash(bytes32)": {
        "notice": "Change the keyHash"
      },
      "setLotteryAddress(address)": {
        "notice": "Set the address for the DegisLottery"
      },
      "viewLatestLotteryId()": {
        "notice": "View latestLotteryId"
      },
      "viewRandomResult()": {
        "notice": "View random result"
      },
      "withdrawTokens(address,uint256)": {
        "notice": "It allows the admin to withdraw tokens sent to the contract"
      }
    },
    "version": 1
  }
}